{
	"scalable-dex/contracts/src/starkex/StarkExchange.sol": {
		"StarkExchange": {
			"abi": [
				{
					"stateMutability": "payable",
					"type": "fallback"
				},
				{
					"inputs": [],
					"name": "VERSION",
					"outputs": [
						{
							"internalType": "string",
							"name": "",
							"type": "string"
						}
					],
					"stateMutability": "view",
					"type": "function"
				},
				{
					"inputs": [
						{
							"internalType": "bytes",
							"name": "data",
							"type": "bytes"
						}
					],
					"name": "initialize",
					"outputs": [],
					"stateMutability": "nonpayable",
					"type": "function"
				},
				{
					"stateMutability": "payable",
					"type": "receive"
				}
			],
			"devdoc": {
				"kind": "dev",
				"methods": {},
				"version": 1
			},
			"evm": {
				"assembly": "    /* \"scalable-dex/contracts/src/starkex/StarkExchange.sol\":110:2600  contract StarkExchange is MainDispatcher {... */\n  mstore(0x40, 0xa0)\n  callvalue\n  dup1\n  iszero\n  tag_1\n  jumpi\n  0x00\n  dup1\n  revert\ntag_1:\n  pop\n    /* \"scalable-dex/contracts/src/interfaces/BlockDirectCall.sol\":711:723  bytes32 slot */\n  0x00\n    /* \"scalable-dex/contracts/src/interfaces/BlockDirectCall.sol\":747:751  this */\n  address\n    /* \"scalable-dex/contracts/src/interfaces/BlockDirectCall.sol\":753:768  block.timestamp */\n  timestamp\n    /* \"scalable-dex/contracts/src/interfaces/BlockDirectCall.sol\":770:779  gasleft() */\n  gas\n    /* \"scalable-dex/contracts/src/interfaces/BlockDirectCall.sol\":736:780  abi.encode(this, block.timestamp, gasleft()) */\n  add(0x20, mload(0x40))\n  dup1\n  dup5\n  0xffffffffffffffffffffffffffffffffffffffff\n  and\n  dup2\n  mstore\n  0x20\n  add\n  dup4\n  dup2\n  mstore\n  0x20\n  add\n  dup3\n  dup2\n  mstore\n  0x20\n  add\n  swap4\n  pop\n  pop\n  pop\n  pop\n  mload(0x40)\n  0x20\n  dup2\n  dup4\n  sub\n  sub\n  dup2\n  mstore\n  swap1\n  0x40\n  mstore\n    /* \"scalable-dex/contracts/src/interfaces/BlockDirectCall.sol\":726:781  keccak256(abi.encode(this, block.timestamp, gasleft())) */\n  dup1\n  mload\n  swap1\n  0x20\n  add\n  keccak256\n    /* \"scalable-dex/contracts/src/interfaces/BlockDirectCall.sol\":711:781  bytes32 slot = keccak256(abi.encode(this, block.timestamp, gasleft())) */\n  swap1\n  pop\n    /* \"scalable-dex/contracts/src/interfaces/BlockDirectCall.sol\":815:819  slot */\n  dup1\n    /* \"scalable-dex/contracts/src/interfaces/BlockDirectCall.sol\":791:819  UNIQUE_SAFEGUARD_SLOT = slot */\n  0x80\n  dup2\n  dup2\n  mstore\n  pop\n  pop\n    /* \"scalable-dex/contracts/src/interfaces/BlockDirectCall.sol\":865:867  42 */\n  0x2a\n    /* \"scalable-dex/contracts/src/interfaces/BlockDirectCall.sol\":859:863  slot */\n  dup2\n    /* \"scalable-dex/contracts/src/interfaces/BlockDirectCall.sol\":852:868  sstore(slot, 42) */\n  sstore\n    /* \"scalable-dex/contracts/src/interfaces/BlockDirectCall.sol\":838:878  {... */\n  pop\n    /* \"scalable-dex/contracts/src/starkex/StarkExchange.sol\":110:2600  contract StarkExchange is MainDispatcher {... */\n  mload(0x80)\n  codecopy(0x00, dataOffset(sub_0), dataSize(sub_0))\n  assignImmutable(\"0x06a79e67d636d828aa58884bc7fed897698bb40922db4eadf708235cd9c2de2c\")\n  return(0x00, dataSize(sub_0))\nstop\n\nsub_0: assembly {\n        /* \"scalable-dex/contracts/src/starkex/StarkExchange.sol\":110:2600  contract StarkExchange is MainDispatcher {... */\n      mstore(0x40, 0x80)\n      jumpi(tag_1, lt(calldatasize, 0x04))\n      shr(0xe0, calldataload(0x00))\n      dup1\n      0x439fab91\n      eq\n      tag_3\n      jumpi\n      dup1\n      0xffa1ad74\n      eq\n      tag_4\n      jumpi\n      jump(tag_2)\n    tag_1:\n      jumpi(tag_2, calldatasize)\n        /* \"scalable-dex/contracts/src/interfaces/MainDispatcherBase.sol\":527:569  revert(\"CONTRACT_NOT_EXPECTED_TO_RECEIVE\") */\n      mload(0x40)\n      0x08c379a000000000000000000000000000000000000000000000000000000000\n      dup2\n      mstore\n      0x04\n      add\n      dup1\n      dup1\n      0x20\n      add\n      dup3\n      dup2\n      sub\n      dup3\n      mstore\n      0x20\n      dup2\n      mstore\n      0x20\n      add\n      dup1\n      0x434f4e54524143545f4e4f545f45585045435445445f544f5f52454345495645\n      dup2\n      mstore\n      pop\n      0x20\n      add\n      swap2\n      pop\n      pop\n      mload(0x40)\n      dup1\n      swap2\n      sub\n      swap1\n      revert\n        /* \"scalable-dex/contracts/src/starkex/StarkExchange.sol\":110:2600  contract StarkExchange is MainDispatcher {... */\n    tag_2:\n        /* \"scalable-dex/contracts/src/interfaces/MainDispatcherBase.sol\":620:646  address subContractAddress */\n      0x00\n        /* \"scalable-dex/contracts/src/interfaces/MainDispatcherBase.sol\":649:672  getSubContract(msg.sig) */\n      tag_9\n        /* \"scalable-dex/contracts/src/interfaces/MainDispatcherBase.sol\":664:671  msg.sig */\n      and(0xffffffff00000000000000000000000000000000000000000000000000000000, calldataload(0x00))\n        /* \"scalable-dex/contracts/src/interfaces/MainDispatcherBase.sol\":649:663  getSubContract */\n      tag_10\n        /* \"scalable-dex/contracts/src/interfaces/MainDispatcherBase.sol\":649:672  getSubContract(msg.sig) */\n      jump\t// in\n    tag_9:\n        /* \"scalable-dex/contracts/src/interfaces/MainDispatcherBase.sol\":620:672  address subContractAddress = getSubContract(msg.sig) */\n      swap1\n      pop\n        /* \"scalable-dex/contracts/src/interfaces/MainDispatcherBase.sol\":720:723  0x0 */\n      0x00\n        /* \"scalable-dex/contracts/src/interfaces/MainDispatcherBase.sol\":690:724  subContractAddress != address(0x0) */\n      0xffffffffffffffffffffffffffffffffffffffff\n      and\n        /* \"scalable-dex/contracts/src/interfaces/MainDispatcherBase.sol\":690:708  subContractAddress */\n      dup2\n        /* \"scalable-dex/contracts/src/interfaces/MainDispatcherBase.sol\":690:724  subContractAddress != address(0x0) */\n      0xffffffffffffffffffffffffffffffffffffffff\n      and\n      eq\n      iszero\n        /* \"scalable-dex/contracts/src/interfaces/MainDispatcherBase.sol\":682:753  require(subContractAddress != address(0x0), \"NO_CONTRACT_FOR_FUNCTION\") */\n      tag_11\n      jumpi\n      mload(0x40)\n      0x08c379a000000000000000000000000000000000000000000000000000000000\n      dup2\n      mstore\n      0x04\n      add\n      dup1\n      dup1\n      0x20\n      add\n      dup3\n      dup2\n      sub\n      dup3\n      mstore\n      0x18\n      dup2\n      mstore\n      0x20\n      add\n      dup1\n      0x4e4f5f434f4e54524143545f464f525f46554e4354494f4e0000000000000000\n      dup2\n      mstore\n      pop\n      0x20\n      add\n      swap2\n      pop\n      pop\n      mload(0x40)\n      dup1\n      swap2\n      sub\n      swap1\n      revert\n    tag_11:\n        /* \"scalable-dex/contracts/src/interfaces/MainDispatcherBase.sol\":1032:1046  calldatasize() */\n      calldatasize\n        /* \"scalable-dex/contracts/src/interfaces/MainDispatcherBase.sol\":1029:1030  0 */\n      0x00\n        /* \"scalable-dex/contracts/src/interfaces/MainDispatcherBase.sol\":1026:1027  0 */\n      dup1\n        /* \"scalable-dex/contracts/src/interfaces/MainDispatcherBase.sol\":1013:1047  calldatacopy(0, 0, calldatasize()) */\n      calldatacopy\n        /* \"scalable-dex/contracts/src/interfaces/MainDispatcherBase.sol\":1258:1259  0 */\n      0x00\n        /* \"scalable-dex/contracts/src/interfaces/MainDispatcherBase.sol\":1255:1256  0 */\n      dup1\n        /* \"scalable-dex/contracts/src/interfaces/MainDispatcherBase.sol\":1239:1253  calldatasize() */\n      calldatasize\n        /* \"scalable-dex/contracts/src/interfaces/MainDispatcherBase.sol\":1236:1237  0 */\n      0x00\n        /* \"scalable-dex/contracts/src/interfaces/MainDispatcherBase.sol\":1216:1234  subContractAddress */\n      dup5\n        /* \"scalable-dex/contracts/src/interfaces/MainDispatcherBase.sol\":1209:1214  gas() */\n      gas\n        /* \"scalable-dex/contracts/src/interfaces/MainDispatcherBase.sol\":1196:1260  delegatecall(gas(), subContractAddress, 0, calldatasize(), 0, 0) */\n      delegatecall\n        /* \"scalable-dex/contracts/src/interfaces/MainDispatcherBase.sol\":1334:1350  returndatasize() */\n      returndatasize\n        /* \"scalable-dex/contracts/src/interfaces/MainDispatcherBase.sol\":1331:1332  0 */\n      0x00\n        /* \"scalable-dex/contracts/src/interfaces/MainDispatcherBase.sol\":1328:1329  0 */\n      dup1\n        /* \"scalable-dex/contracts/src/interfaces/MainDispatcherBase.sol\":1313:1351  returndatacopy(0, 0, returndatasize()) */\n      returndatacopy\n        /* \"scalable-dex/contracts/src/interfaces/MainDispatcherBase.sol\":1372:1378  result */\n      dup1\n        /* \"scalable-dex/contracts/src/interfaces/MainDispatcherBase.sol\":1444:1445  0 */\n      0x00\n        /* \"scalable-dex/contracts/src/interfaces/MainDispatcherBase.sol\":1439:1505  case 0 {... */\n      dup2\n      eq\n      tag_13\n      jumpi\n        /* \"scalable-dex/contracts/src/interfaces/MainDispatcherBase.sol\":1554:1570  returndatasize() */\n      returndatasize\n        /* \"scalable-dex/contracts/src/interfaces/MainDispatcherBase.sol\":1551:1552  0 */\n      0x00\n        /* \"scalable-dex/contracts/src/interfaces/MainDispatcherBase.sol\":1544:1571  return(0, returndatasize()) */\n      return\n        /* \"scalable-dex/contracts/src/interfaces/MainDispatcherBase.sol\":1439:1505  case 0 {... */\n    tag_13:\n        /* \"scalable-dex/contracts/src/interfaces/MainDispatcherBase.sol\":1474:1490  returndatasize() */\n      returndatasize\n        /* \"scalable-dex/contracts/src/interfaces/MainDispatcherBase.sol\":1471:1472  0 */\n      0x00\n        /* \"scalable-dex/contracts/src/interfaces/MainDispatcherBase.sol\":1464:1491  revert(0, returndatasize()) */\n      revert\n        /* \"scalable-dex/contracts/src/interfaces/MainDispatcherBase.sol\":4781:8904  function initialize(bytes calldata data) external virtual notCalledDirectly {... */\n    tag_3:\n      callvalue\n      dup1\n      iszero\n      tag_14\n      jumpi\n      0x00\n      dup1\n      revert\n    tag_14:\n      pop\n      tag_15\n      0x04\n      dup1\n      calldatasize\n      sub\n      0x20\n      dup2\n      lt\n      iszero\n      tag_16\n      jumpi\n      0x00\n      dup1\n      revert\n    tag_16:\n      dup2\n      add\n      swap1\n      dup1\n      dup1\n      calldataload\n      swap1\n      0x20\n      add\n      swap1\n      0x0100000000\n      dup2\n      gt\n      iszero\n      tag_17\n      jumpi\n      0x00\n      dup1\n      revert\n    tag_17:\n      dup3\n      add\n      dup4\n      0x20\n      dup3\n      add\n      gt\n      iszero\n      tag_18\n      jumpi\n      0x00\n      dup1\n      revert\n    tag_18:\n      dup1\n      calldataload\n      swap1\n      0x20\n      add\n      swap2\n      dup5\n      0x01\n      dup4\n      mul\n      dup5\n      add\n      gt\n      0x0100000000\n      dup4\n      gt\n      or\n      iszero\n      tag_19\n      jumpi\n      0x00\n      dup1\n      revert\n    tag_19:\n      swap1\n      swap2\n      swap3\n      swap4\n      swap2\n      swap3\n      swap4\n      swap1\n      pop\n      pop\n      pop\n      tag_20\n      jump\t// in\n    tag_15:\n      stop\n        /* \"scalable-dex/contracts/src/starkex/StarkExchange.sol\":157:197  string public constant VERSION = \"4.0.1\" */\n    tag_4:\n      callvalue\n      dup1\n      iszero\n      tag_21\n      jumpi\n      0x00\n      dup1\n      revert\n    tag_21:\n      pop\n      tag_22\n      tag_23\n      jump\t// in\n    tag_22:\n      mload(0x40)\n      dup1\n      dup1\n      0x20\n      add\n      dup3\n      dup2\n      sub\n      dup3\n      mstore\n      dup4\n      dup2\n      dup2\n      mload\n      dup2\n      mstore\n      0x20\n      add\n      swap2\n      pop\n      dup1\n      mload\n      swap1\n      0x20\n      add\n      swap1\n      dup1\n      dup4\n      dup4\n      0x00\n    tag_24:\n      dup4\n      dup2\n      lt\n      iszero\n      tag_26\n      jumpi\n      dup1\n      dup3\n      add\n      mload\n      dup2\n      dup5\n      add\n      mstore\n      0x20\n      dup2\n      add\n      swap1\n      pop\n      jump(tag_24)\n    tag_26:\n      pop\n      pop\n      pop\n      pop\n      swap1\n      pop\n      swap1\n      dup2\n      add\n      swap1\n      0x1f\n      and\n      dup1\n      iszero\n      tag_27\n      jumpi\n      dup1\n      dup3\n      sub\n      dup1\n      mload\n      0x01\n      dup4\n      0x20\n      sub\n      0x0100\n      exp\n      sub\n      not\n      and\n      dup2\n      mstore\n      0x20\n      add\n      swap2\n      pop\n    tag_27:\n      pop\n      swap3\n      pop\n      pop\n      pop\n      mload(0x40)\n      dup1\n      swap2\n      sub\n      swap1\n      return\n        /* \"scalable-dex/contracts/src/interfaces/MainDispatcher.sol\":922:1410  function getSubContract(bytes4 selector) internal view override returns (address) {... */\n    tag_10:\n        /* \"scalable-dex/contracts/src/interfaces/MainDispatcher.sol\":995:1002  address */\n      0x00\n        /* \"scalable-dex/contracts/src/interfaces/MainDispatcher.sol\":1014:1030  uint256 location */\n      dup1\n        /* \"scalable-dex/contracts/src/interfaces/MainDispatcher.sol\":1075:1083  selector */\n      dup3\n        /* \"scalable-dex/contracts/src/interfaces/MainDispatcher.sol\":1085:1096  magicSalt() */\n      tag_29\n        /* \"scalable-dex/contracts/src/interfaces/MainDispatcher.sol\":1085:1094  magicSalt */\n      tag_30\n        /* \"scalable-dex/contracts/src/interfaces/MainDispatcher.sol\":1085:1096  magicSalt() */\n      jump\t// in\n    tag_29:\n        /* \"scalable-dex/contracts/src/interfaces/MainDispatcher.sol\":1058:1097  abi.encodePacked(selector, magicSalt()) */\n      add(0x20, mload(0x40))\n      dup1\n      dup4\n      not(0xffffffffffffffffffffffffffffffffffffffffffffffffffffffff)\n      and\n      dup2\n      mstore\n      0x04\n      add\n      dup3\n      dup2\n      mstore\n      0x20\n      add\n      swap3\n      pop\n      pop\n      pop\n      mload(0x40)\n      0x20\n      dup2\n      dup4\n      sub\n      sub\n      dup2\n      mstore\n      swap1\n      0x40\n      mstore\n        /* \"scalable-dex/contracts/src/interfaces/MainDispatcher.sol\":1048:1098  keccak256(abi.encodePacked(selector, magicSalt())) */\n      dup1\n      mload\n      swap1\n      0x20\n      add\n      keccak256\n        /* \"scalable-dex/contracts/src/interfaces/MainDispatcher.sol\":1040:1099  uint256(keccak256(abi.encodePacked(selector, magicSalt()))) */\n      0x00\n      shr\n        /* \"scalable-dex/contracts/src/interfaces/MainDispatcher.sol\":1033:1037  0xFF */\n      0xff\n        /* \"scalable-dex/contracts/src/interfaces/MainDispatcher.sol\":1033:1099  0xFF & uint256(keccak256(abi.encodePacked(selector, magicSalt()))) */\n      and\n        /* \"scalable-dex/contracts/src/interfaces/MainDispatcher.sol\":1014:1099  uint256 location = 0xFF & uint256(keccak256(abi.encodePacked(selector, magicSalt()))) */\n      swap1\n      pop\n        /* \"scalable-dex/contracts/src/interfaces/MainDispatcher.sol\":1109:1131  uint256 subContractIdx */\n      0x00\n        /* \"scalable-dex/contracts/src/interfaces/MainDispatcher.sol\":1141:1155  uint256 offset */\n      dup1\n        /* \"scalable-dex/contracts/src/interfaces/MainDispatcher.sol\":1190:1193  256 */\n      0x0100\n        /* \"scalable-dex/contracts/src/interfaces/MainDispatcher.sol\":1178:1186  location */\n      dup4\n        /* \"scalable-dex/contracts/src/interfaces/MainDispatcher.sol\":252:253  4 */\n      0x04\n        /* \"scalable-dex/contracts/src/interfaces/MainDispatcher.sol\":1159:1186  SUBCONTRACT_BITS * location */\n      mul\n        /* \"scalable-dex/contracts/src/interfaces/MainDispatcher.sol\":1158:1193  (SUBCONTRACT_BITS * location) % 256 */\n      dup2\n      tag_31\n      jumpi\n      invalid\n    tag_31:\n      mod\n        /* \"scalable-dex/contracts/src/interfaces/MainDispatcher.sol\":1141:1193  uint256 offset = (SUBCONTRACT_BITS * location) % 256 */\n      swap1\n      pop\n        /* \"scalable-dex/contracts/src/interfaces/MainDispatcher.sol\":1355:1358  0xF */\n      0x0f\n        /* \"scalable-dex/contracts/src/interfaces/MainDispatcher.sol\":1345:1351  offset */\n      dup2\n        /* \"scalable-dex/contracts/src/interfaces/MainDispatcher.sol\":1309:1341  handlerMapSection(location >> 6) */\n      tag_32\n        /* \"scalable-dex/contracts/src/interfaces/MainDispatcher.sol\":1339:1340  6 */\n      0x06\n        /* \"scalable-dex/contracts/src/interfaces/MainDispatcher.sol\":1327:1335  location */\n      dup7\n        /* \"scalable-dex/contracts/src/interfaces/MainDispatcher.sol\":1327:1340  location >> 6 */\n      swap1\n      shr\n        /* \"scalable-dex/contracts/src/interfaces/MainDispatcher.sol\":1309:1326  handlerMapSection */\n      tag_33\n        /* \"scalable-dex/contracts/src/interfaces/MainDispatcher.sol\":1309:1341  handlerMapSection(location >> 6) */\n      jump\t// in\n    tag_32:\n        /* \"scalable-dex/contracts/src/interfaces/MainDispatcher.sol\":1309:1351  handlerMapSection(location >> 6) >> offset */\n      swap1\n      shr\n        /* \"scalable-dex/contracts/src/interfaces/MainDispatcher.sol\":1308:1358  (handlerMapSection(location >> 6) >> offset) & 0xF */\n      and\n        /* \"scalable-dex/contracts/src/interfaces/MainDispatcher.sol\":1291:1358  subContractIdx = (handlerMapSection(location >> 6) >> offset) & 0xF */\n      swap2\n      pop\n        /* \"scalable-dex/contracts/src/interfaces/MainDispatcher.sol\":1375:1387  subContracts */\n      0x1e\n        /* \"scalable-dex/contracts/src/interfaces/MainDispatcher.sol\":1375:1403  subContracts[subContractIdx] */\n      0x00\n        /* \"scalable-dex/contracts/src/interfaces/MainDispatcher.sol\":1388:1402  subContractIdx */\n      dup4\n        /* \"scalable-dex/contracts/src/interfaces/MainDispatcher.sol\":1375:1403  subContracts[subContractIdx] */\n      dup2\n      mstore\n      0x20\n      add\n      swap1\n      dup2\n      mstore\n      0x20\n      add\n      0x00\n      keccak256\n      0x00\n      swap1\n      sload\n      swap1\n      0x0100\n      exp\n      swap1\n      div\n      0xffffffffffffffffffffffffffffffffffffffff\n      and\n        /* \"scalable-dex/contracts/src/interfaces/MainDispatcher.sol\":1368:1403  return subContracts[subContractIdx] */\n      swap4\n      pop\n      pop\n      pop\n      pop\n        /* \"scalable-dex/contracts/src/interfaces/MainDispatcher.sol\":922:1410  function getSubContract(bytes4 selector) internal view override returns (address) {... */\n      swap2\n      swap1\n      pop\n      jump\t// out\n        /* \"scalable-dex/contracts/src/interfaces/MainDispatcherBase.sol\":4781:8904  function initialize(bytes calldata data) external virtual notCalledDirectly {... */\n    tag_20:\n        /* \"scalable-dex/contracts/src/interfaces/BlockDirectCall.sol\":1001:1023  uint256 safeGuardValue */\n      0x00\n        /* \"scalable-dex/contracts/src/interfaces/BlockDirectCall.sol\":1037:1049  bytes32 slot */\n      dup1\n        /* \"scalable-dex/contracts/src/interfaces/BlockDirectCall.sol\":1052:1073  UNIQUE_SAFEGUARD_SLOT */\n      immutable(\"0x06a79e67d636d828aa58884bc7fed897698bb40922db4eadf708235cd9c2de2c\")\n        /* \"scalable-dex/contracts/src/interfaces/BlockDirectCall.sol\":1037:1073  bytes32 slot = UNIQUE_SAFEGUARD_SLOT */\n      swap1\n      pop\n        /* \"scalable-dex/contracts/src/interfaces/BlockDirectCall.sol\":1138:1142  slot */\n      dup1\n        /* \"scalable-dex/contracts/src/interfaces/BlockDirectCall.sol\":1132:1143  sload(slot) */\n      sload\n        /* \"scalable-dex/contracts/src/interfaces/BlockDirectCall.sol\":1114:1143  safeGuardValue := sload(slot) */\n      swap2\n      pop\n        /* \"scalable-dex/contracts/src/interfaces/BlockDirectCall.sol\":1196:1197  0 */\n      0x00\n        /* \"scalable-dex/contracts/src/interfaces/BlockDirectCall.sol\":1178:1192  safeGuardValue */\n      dup3\n        /* \"scalable-dex/contracts/src/interfaces/BlockDirectCall.sol\":1178:1197  safeGuardValue == 0 */\n      eq\n        /* \"scalable-dex/contracts/src/interfaces/BlockDirectCall.sol\":1170:1224  require(safeGuardValue == 0, \"DIRECT_CALL_DISALLOWED\") */\n      tag_35\n      jumpi\n      mload(0x40)\n      0x08c379a000000000000000000000000000000000000000000000000000000000\n      dup2\n      mstore\n      0x04\n      add\n      dup1\n      dup1\n      0x20\n      add\n      dup3\n      dup2\n      sub\n      dup3\n      mstore\n      0x16\n      dup2\n      mstore\n      0x20\n      add\n      dup1\n      0x4449524543545f43414c4c5f444953414c4c4f57454400000000000000000000\n      dup2\n      mstore\n      pop\n      0x20\n      add\n      swap2\n      pop\n      pop\n      mload(0x40)\n      dup1\n      swap2\n      sub\n      swap1\n      revert\n    tag_35:\n        /* \"scalable-dex/contracts/src/interfaces/MainDispatcherBase.sol\":4781:8904  function initialize(bytes calldata data) external virtual notCalledDirectly {... */\n      pop\n      pop\n        /* \"scalable-dex/contracts/src/interfaces/MainDispatcherBase.sol\":4903:4924  uint256 nSubContracts */\n      0x00\n        /* \"scalable-dex/contracts/src/interfaces/MainDispatcherBase.sol\":4927:4947  getNumSubcontracts() */\n      tag_37\n        /* \"scalable-dex/contracts/src/interfaces/MainDispatcherBase.sol\":4927:4945  getNumSubcontracts */\n      tag_38\n        /* \"scalable-dex/contracts/src/interfaces/MainDispatcherBase.sol\":4927:4947  getNumSubcontracts() */\n      jump\t// in\n    tag_37:\n        /* \"scalable-dex/contracts/src/interfaces/MainDispatcherBase.sol\":4903:4947  uint256 nSubContracts = getNumSubcontracts() */\n      swap1\n      pop\n        /* \"scalable-dex/contracts/src/interfaces/MainDispatcherBase.sol\":5071:5073  15 */\n      0x0f\n        /* \"scalable-dex/contracts/src/interfaces/MainDispatcherBase.sol\":5054:5067  nSubContracts */\n      dup2\n        /* \"scalable-dex/contracts/src/interfaces/MainDispatcherBase.sol\":5054:5073  nSubContracts <= 15 */\n      gt\n      iszero\n        /* \"scalable-dex/contracts/src/interfaces/MainDispatcherBase.sol\":5046:5100  require(nSubContracts <= 15, \"TOO_MANY_SUB_CONTRACTS\") */\n      tag_39\n      jumpi\n      mload(0x40)\n      0x08c379a000000000000000000000000000000000000000000000000000000000\n      dup2\n      mstore\n      0x04\n      add\n      dup1\n      dup1\n      0x20\n      add\n      dup3\n      dup2\n      sub\n      dup3\n      mstore\n      0x16\n      dup2\n      mstore\n      0x20\n      add\n      dup1\n      0x544f4f5f4d414e595f5355425f434f4e54524143545300000000000000000000\n      dup2\n      mstore\n      pop\n      0x20\n      add\n      swap2\n      pop\n      pop\n      mload(0x40)\n      dup1\n      swap2\n      sub\n      swap1\n      revert\n    tag_39:\n        /* \"scalable-dex/contracts/src/interfaces/MainDispatcherBase.sol\":5197:5219  uint256 totalInitSizes */\n      0x00\n        /* \"scalable-dex/contracts/src/interfaces/MainDispatcherBase.sol\":5355:5386  uint256 initDataContractsOffset */\n      dup1\n        /* \"scalable-dex/contracts/src/interfaces/MainDispatcherBase.sol\":5411:5412  1 */\n      0x01\n        /* \"scalable-dex/contracts/src/interfaces/MainDispatcherBase.sol\":5395:5408  nSubContracts */\n      dup4\n        /* \"scalable-dex/contracts/src/interfaces/MainDispatcherBase.sol\":5395:5412  nSubContracts + 1 */\n      add\n        /* \"scalable-dex/contracts/src/interfaces/MainDispatcherBase.sol\":5389:5391  32 */\n      0x20\n        /* \"scalable-dex/contracts/src/interfaces/MainDispatcherBase.sol\":5389:5413  32 * (nSubContracts + 1) */\n      mul\n        /* \"scalable-dex/contracts/src/interfaces/MainDispatcherBase.sol\":5355:5413  uint256 initDataContractsOffset = 32 * (nSubContracts + 1) */\n      swap1\n      pop\n        /* \"scalable-dex/contracts/src/interfaces/MainDispatcherBase.sol\":5520:5543  initDataContractsOffset */\n      dup1\n        /* \"scalable-dex/contracts/src/interfaces/MainDispatcherBase.sol\":5505:5509  data */\n      dup6\n      dup6\n        /* \"scalable-dex/contracts/src/interfaces/MainDispatcherBase.sol\":5505:5516  data.length */\n      swap1\n      pop\n        /* \"scalable-dex/contracts/src/interfaces/MainDispatcherBase.sol\":5505:5543  data.length >= initDataContractsOffset */\n      lt\n      iszero\n        /* \"scalable-dex/contracts/src/interfaces/MainDispatcherBase.sol\":5497:5574  require(data.length >= initDataContractsOffset, \"SUB_CONTRACTS_NOT_PROVIDED\") */\n      tag_40\n      jumpi\n      mload(0x40)\n      0x08c379a000000000000000000000000000000000000000000000000000000000\n      dup2\n      mstore\n      0x04\n      add\n      dup1\n      dup1\n      0x20\n      add\n      dup3\n      dup2\n      sub\n      dup3\n      mstore\n      0x1a\n      dup2\n      mstore\n      0x20\n      add\n      dup1\n      0x5355425f434f4e5452414354535f4e4f545f50524f5649444544000000000000\n      dup2\n      mstore\n      pop\n      0x20\n      add\n      swap2\n      pop\n      pop\n      mload(0x40)\n      dup1\n      swap2\n      sub\n      swap1\n      revert\n    tag_40:\n        /* \"scalable-dex/contracts/src/interfaces/MainDispatcherBase.sol\":5651:5677  uint256 additionalDataSize */\n      0x00\n        /* \"scalable-dex/contracts/src/interfaces/MainDispatcherBase.sol\":5694:5717  initDataContractsOffset */\n      dup2\n        /* \"scalable-dex/contracts/src/interfaces/MainDispatcherBase.sol\":5680:5684  data */\n      dup7\n      dup7\n        /* \"scalable-dex/contracts/src/interfaces/MainDispatcherBase.sol\":5680:5691  data.length */\n      swap1\n      pop\n        /* \"scalable-dex/contracts/src/interfaces/MainDispatcherBase.sol\":5680:5717  data.length - initDataContractsOffset */\n      sub\n        /* \"scalable-dex/contracts/src/interfaces/MainDispatcherBase.sol\":5651:5717  uint256 additionalDataSize = data.length - initDataContractsOffset */\n      swap1\n      pop\n        /* \"scalable-dex/contracts/src/interfaces/MainDispatcherBase.sol\":5781:5798  uint256 nContract */\n      0x00\n        /* \"scalable-dex/contracts/src/interfaces/MainDispatcherBase.sol\":5801:5802  1 */\n      0x01\n        /* \"scalable-dex/contracts/src/interfaces/MainDispatcherBase.sol\":5781:5802  uint256 nContract = 1 */\n      swap1\n      pop\n        /* \"scalable-dex/contracts/src/interfaces/MainDispatcherBase.sol\":5776:6252  for (uint256 nContract = 1; nContract <= nSubContracts; nContract++) {... */\n    tag_41:\n        /* \"scalable-dex/contracts/src/interfaces/MainDispatcherBase.sol\":5817:5830  nSubContracts */\n      dup5\n        /* \"scalable-dex/contracts/src/interfaces/MainDispatcherBase.sol\":5804:5813  nContract */\n      dup2\n        /* \"scalable-dex/contracts/src/interfaces/MainDispatcherBase.sol\":5804:5830  nContract <= nSubContracts */\n      gt\n        /* \"scalable-dex/contracts/src/interfaces/MainDispatcherBase.sol\":5776:6252  for (uint256 nContract = 1; nContract <= nSubContracts; nContract++) {... */\n      tag_42\n      jumpi\n        /* \"scalable-dex/contracts/src/interfaces/MainDispatcherBase.sol\":5904:5927  address contractAddress */\n      0x00\n        /* \"scalable-dex/contracts/src/interfaces/MainDispatcherBase.sol\":5958:5962  data */\n      dup8\n      dup8\n        /* \"scalable-dex/contracts/src/interfaces/MainDispatcherBase.sol\":5981:5982  1 */\n      0x01\n        /* \"scalable-dex/contracts/src/interfaces/MainDispatcherBase.sol\":5969:5978  nContract */\n      dup5\n        /* \"scalable-dex/contracts/src/interfaces/MainDispatcherBase.sol\":5969:5982  nContract - 1 */\n      sub\n        /* \"scalable-dex/contracts/src/interfaces/MainDispatcherBase.sol\":5963:5965  32 */\n      0x20\n        /* \"scalable-dex/contracts/src/interfaces/MainDispatcherBase.sol\":5963:5983  32 * (nContract - 1) */\n      mul\n        /* \"scalable-dex/contracts/src/interfaces/MainDispatcherBase.sol\":5958:5999  data[32 * (nContract - 1):32 * nContract] */\n      swap1\n        /* \"scalable-dex/contracts/src/interfaces/MainDispatcherBase.sol\":5989:5998  nContract */\n      dup5\n        /* \"scalable-dex/contracts/src/interfaces/MainDispatcherBase.sol\":5984:5986  32 */\n      0x20\n        /* \"scalable-dex/contracts/src/interfaces/MainDispatcherBase.sol\":5984:5998  32 * nContract */\n      mul\n        /* \"scalable-dex/contracts/src/interfaces/MainDispatcherBase.sol\":5958:5999  data[32 * (nContract - 1):32 * nContract] */\n      swap3\n      tag_44\n      swap4\n      swap3\n      swap2\n      swap1\n      tag_45\n      jump\t// in\n    tag_44:\n        /* \"scalable-dex/contracts/src/interfaces/MainDispatcherBase.sol\":5930:6040  abi.decode(... */\n      0x20\n      dup2\n      lt\n      iszero\n      tag_46\n      jumpi\n      0x00\n      dup1\n      revert\n    tag_46:\n      dup2\n      add\n      swap1\n      dup1\n      dup1\n      calldataload\n      0xffffffffffffffffffffffffffffffffffffffff\n      and\n      swap1\n      0x20\n      add\n      swap1\n      swap3\n      swap2\n      swap1\n      pop\n      pop\n      pop\n        /* \"scalable-dex/contracts/src/interfaces/MainDispatcherBase.sol\":5904:6040  address contractAddress = abi.decode(... */\n      swap1\n      pop\n        /* \"scalable-dex/contracts/src/interfaces/MainDispatcherBase.sol\":6055:6107  validateSubContractIndex(nContract, contractAddress) */\n      tag_47\n        /* \"scalable-dex/contracts/src/interfaces/MainDispatcherBase.sol\":6080:6089  nContract */\n      dup3\n        /* \"scalable-dex/contracts/src/interfaces/MainDispatcherBase.sol\":6091:6106  contractAddress */\n      dup3\n        /* \"scalable-dex/contracts/src/interfaces/MainDispatcherBase.sol\":6055:6079  validateSubContractIndex */\n      tag_48\n        /* \"scalable-dex/contracts/src/interfaces/MainDispatcherBase.sol\":6055:6107  validateSubContractIndex(nContract, contractAddress) */\n      jump\t// in\n    tag_47:\n        /* \"scalable-dex/contracts/src/interfaces/MainDispatcherBase.sol\":6192:6241  setSubContractAddress(nContract, contractAddress) */\n      tag_49\n        /* \"scalable-dex/contracts/src/interfaces/MainDispatcherBase.sol\":6214:6223  nContract */\n      dup3\n        /* \"scalable-dex/contracts/src/interfaces/MainDispatcherBase.sol\":6225:6240  contractAddress */\n      dup3\n        /* \"scalable-dex/contracts/src/interfaces/MainDispatcherBase.sol\":6192:6213  setSubContractAddress */\n      tag_50\n        /* \"scalable-dex/contracts/src/interfaces/MainDispatcherBase.sol\":6192:6241  setSubContractAddress(nContract, contractAddress) */\n      jump\t// in\n    tag_49:\n        /* \"scalable-dex/contracts/src/interfaces/MainDispatcherBase.sol\":5776:6252  for (uint256 nContract = 1; nContract <= nSubContracts; nContract++) {... */\n      pop\n        /* \"scalable-dex/contracts/src/interfaces/MainDispatcherBase.sol\":5832:5843  nContract++ */\n      dup1\n      dup1\n      0x01\n      add\n      swap2\n      pop\n      pop\n        /* \"scalable-dex/contracts/src/interfaces/MainDispatcherBase.sol\":5776:6252  for (uint256 nContract = 1; nContract <= nSubContracts; nContract++) {... */\n      jump(tag_41)\n    tag_42:\n      pop\n        /* \"scalable-dex/contracts/src/interfaces/MainDispatcherBase.sol\":6324:6355  address externalInitializerAddr */\n      0x00\n        /* \"scalable-dex/contracts/src/interfaces/MainDispatcherBase.sol\":6382:6386  data */\n      dup7\n      dup7\n        /* \"scalable-dex/contracts/src/interfaces/MainDispatcherBase.sol\":6413:6415  32 */\n      0x20\n        /* \"scalable-dex/contracts/src/interfaces/MainDispatcherBase.sol\":6387:6410  initDataContractsOffset */\n      dup6\n        /* \"scalable-dex/contracts/src/interfaces/MainDispatcherBase.sol\":6387:6415  initDataContractsOffset - 32 */\n      sub\n        /* \"scalable-dex/contracts/src/interfaces/MainDispatcherBase.sol\":6382:6440  data[initDataContractsOffset - 32:initDataContractsOffset] */\n      swap1\n        /* \"scalable-dex/contracts/src/interfaces/MainDispatcherBase.sol\":6416:6439  initDataContractsOffset */\n      dup6\n        /* \"scalable-dex/contracts/src/interfaces/MainDispatcherBase.sol\":6382:6440  data[initDataContractsOffset - 32:initDataContractsOffset] */\n      swap3\n      tag_51\n      swap4\n      swap3\n      swap2\n      swap1\n      tag_45\n      jump\t// in\n    tag_51:\n        /* \"scalable-dex/contracts/src/interfaces/MainDispatcherBase.sol\":6358:6473  abi.decode(... */\n      0x20\n      dup2\n      lt\n      iszero\n      tag_52\n      jumpi\n      0x00\n      dup1\n      revert\n    tag_52:\n      dup2\n      add\n      swap1\n      dup1\n      dup1\n      calldataload\n      0xffffffffffffffffffffffffffffffffffffffff\n      and\n      swap1\n      0x20\n      add\n      swap1\n      swap3\n      swap2\n      swap1\n      pop\n      pop\n      pop\n        /* \"scalable-dex/contracts/src/interfaces/MainDispatcherBase.sol\":6324:6473  address externalInitializerAddr = abi.decode(... */\n      swap1\n      pop\n        /* \"scalable-dex/contracts/src/interfaces/MainDispatcherBase.sol\":6569:6572  0x0 */\n      0x00\n        /* \"scalable-dex/contracts/src/interfaces/MainDispatcherBase.sol\":6534:6573  externalInitializerAddr != address(0x0) */\n      0xffffffffffffffffffffffffffffffffffffffff\n      and\n        /* \"scalable-dex/contracts/src/interfaces/MainDispatcherBase.sol\":6534:6557  externalInitializerAddr */\n      dup2\n        /* \"scalable-dex/contracts/src/interfaces/MainDispatcherBase.sol\":6534:6573  externalInitializerAddr != address(0x0) */\n      0xffffffffffffffffffffffffffffffffffffffff\n      and\n      eq\n        /* \"scalable-dex/contracts/src/interfaces/MainDispatcherBase.sol\":6530:6700  if (externalInitializerAddr != address(0x0)) {... */\n      tag_53\n      jumpi\n        /* \"scalable-dex/contracts/src/interfaces/MainDispatcherBase.sol\":6589:6669  callExternalInitializer(externalInitializerAddr, data[initDataContractsOffset:]) */\n      tag_54\n        /* \"scalable-dex/contracts/src/interfaces/MainDispatcherBase.sol\":6613:6636  externalInitializerAddr */\n      dup2\n        /* \"scalable-dex/contracts/src/interfaces/MainDispatcherBase.sol\":6638:6642  data */\n      dup9\n      dup9\n        /* \"scalable-dex/contracts/src/interfaces/MainDispatcherBase.sol\":6643:6666  initDataContractsOffset */\n      dup7\n        /* \"scalable-dex/contracts/src/interfaces/MainDispatcherBase.sol\":6638:6668  data[initDataContractsOffset:] */\n      swap1\n      dup1\n      swap3\n      tag_55\n      swap4\n      swap3\n      swap2\n      swap1\n      tag_45\n      jump\t// in\n    tag_55:\n        /* \"scalable-dex/contracts/src/interfaces/MainDispatcherBase.sol\":6589:6612  callExternalInitializer */\n      tag_56\n        /* \"scalable-dex/contracts/src/interfaces/MainDispatcherBase.sol\":6589:6669  callExternalInitializer(externalInitializerAddr, data[initDataContractsOffset:]) */\n      jump\t// in\n    tag_54:\n        /* \"scalable-dex/contracts/src/interfaces/MainDispatcherBase.sol\":6683:6690  return; */\n      pop\n      pop\n      pop\n      pop\n      pop\n      jump(tag_36)\n        /* \"scalable-dex/contracts/src/interfaces/MainDispatcherBase.sol\":6530:6700  if (externalInitializerAddr != address(0x0)) {... */\n    tag_53:\n        /* \"scalable-dex/contracts/src/interfaces/MainDispatcherBase.sol\":6850:6851  0 */\n      0x00\n        /* \"scalable-dex/contracts/src/interfaces/MainDispatcherBase.sol\":6828:6846  additionalDataSize */\n      dup3\n        /* \"scalable-dex/contracts/src/interfaces/MainDispatcherBase.sol\":6828:6851  additionalDataSize == 0 */\n      eq\n        /* \"scalable-dex/contracts/src/interfaces/MainDispatcherBase.sol\":6824:6884  if (additionalDataSize == 0) {... */\n      iszero\n      tag_57\n      jumpi\n        /* \"scalable-dex/contracts/src/interfaces/MainDispatcherBase.sol\":6867:6874  return; */\n      pop\n      pop\n      pop\n      pop\n      pop\n      jump(tag_36)\n        /* \"scalable-dex/contracts/src/interfaces/MainDispatcherBase.sol\":6824:6884  if (additionalDataSize == 0) {... */\n    tag_57:\n        /* \"scalable-dex/contracts/src/interfaces/MainDispatcherBase.sol\":6976:6979  0x0 */\n      0x00\n        /* \"scalable-dex/contracts/src/interfaces/MainDispatcherBase.sol\":6941:6980  externalInitializerAddr == address(0x0) */\n      0xffffffffffffffffffffffffffffffffffffffff\n      and\n        /* \"scalable-dex/contracts/src/interfaces/MainDispatcherBase.sol\":6941:6964  externalInitializerAddr */\n      dup2\n        /* \"scalable-dex/contracts/src/interfaces/MainDispatcherBase.sol\":6941:6980  externalInitializerAddr == address(0x0) */\n      0xffffffffffffffffffffffffffffffffffffffff\n      and\n      eq\n        /* \"scalable-dex/contracts/src/interfaces/MainDispatcherBase.sol\":6934:6981  assert(externalInitializerAddr == address(0x0)) */\n      tag_58\n      jumpi\n      invalid\n    tag_58:\n        /* \"scalable-dex/contracts/src/interfaces/MainDispatcherBase.sol\":7036:7060  initializationSentinel() */\n      tag_59\n        /* \"scalable-dex/contracts/src/interfaces/MainDispatcherBase.sol\":7036:7058  initializationSentinel */\n      tag_60\n        /* \"scalable-dex/contracts/src/interfaces/MainDispatcherBase.sol\":7036:7060  initializationSentinel() */\n      jump\t// in\n    tag_59:\n        /* \"scalable-dex/contracts/src/interfaces/MainDispatcherBase.sol\":7173:7190  uint256 nContract */\n      0x00\n        /* \"scalable-dex/contracts/src/interfaces/MainDispatcherBase.sol\":7193:7194  1 */\n      0x01\n        /* \"scalable-dex/contracts/src/interfaces/MainDispatcherBase.sol\":7173:7194  uint256 nContract = 1 */\n      swap1\n      pop\n        /* \"scalable-dex/contracts/src/interfaces/MainDispatcherBase.sol\":7168:8813  for (uint256 nContract = 1; nContract <= nSubContracts; nContract++) {... */\n    tag_61:\n        /* \"scalable-dex/contracts/src/interfaces/MainDispatcherBase.sol\":7209:7222  nSubContracts */\n      dup6\n        /* \"scalable-dex/contracts/src/interfaces/MainDispatcherBase.sol\":7196:7205  nContract */\n      dup2\n        /* \"scalable-dex/contracts/src/interfaces/MainDispatcherBase.sol\":7196:7222  nContract <= nSubContracts */\n      gt\n        /* \"scalable-dex/contracts/src/interfaces/MainDispatcherBase.sol\":7168:8813  for (uint256 nContract = 1; nContract <= nSubContracts; nContract++) {... */\n      tag_62\n      jumpi\n        /* \"scalable-dex/contracts/src/interfaces/MainDispatcherBase.sol\":7296:7319  address contractAddress */\n      0x00\n        /* \"scalable-dex/contracts/src/interfaces/MainDispatcherBase.sol\":7350:7354  data */\n      dup9\n      dup9\n        /* \"scalable-dex/contracts/src/interfaces/MainDispatcherBase.sol\":7373:7374  1 */\n      0x01\n        /* \"scalable-dex/contracts/src/interfaces/MainDispatcherBase.sol\":7361:7370  nContract */\n      dup5\n        /* \"scalable-dex/contracts/src/interfaces/MainDispatcherBase.sol\":7361:7374  nContract - 1 */\n      sub\n        /* \"scalable-dex/contracts/src/interfaces/MainDispatcherBase.sol\":7355:7357  32 */\n      0x20\n        /* \"scalable-dex/contracts/src/interfaces/MainDispatcherBase.sol\":7355:7375  32 * (nContract - 1) */\n      mul\n        /* \"scalable-dex/contracts/src/interfaces/MainDispatcherBase.sol\":7350:7391  data[32 * (nContract - 1):32 * nContract] */\n      swap1\n        /* \"scalable-dex/contracts/src/interfaces/MainDispatcherBase.sol\":7381:7390  nContract */\n      dup5\n        /* \"scalable-dex/contracts/src/interfaces/MainDispatcherBase.sol\":7376:7378  32 */\n      0x20\n        /* \"scalable-dex/contracts/src/interfaces/MainDispatcherBase.sol\":7376:7390  32 * nContract */\n      mul\n        /* \"scalable-dex/contracts/src/interfaces/MainDispatcherBase.sol\":7350:7391  data[32 * (nContract - 1):32 * nContract] */\n      swap3\n      tag_64\n      swap4\n      swap3\n      swap2\n      swap1\n      tag_45\n      jump\t// in\n    tag_64:\n        /* \"scalable-dex/contracts/src/interfaces/MainDispatcherBase.sol\":7322:7432  abi.decode(... */\n      0x20\n      dup2\n      lt\n      iszero\n      tag_65\n      jumpi\n      0x00\n      dup1\n      revert\n    tag_65:\n      dup2\n      add\n      swap1\n      dup1\n      dup1\n      calldataload\n      0xffffffffffffffffffffffffffffffffffffffff\n      and\n      swap1\n      0x20\n      add\n      swap1\n      swap3\n      swap2\n      swap1\n      pop\n      pop\n      pop\n        /* \"scalable-dex/contracts/src/interfaces/MainDispatcherBase.sol\":7296:7432  address contractAddress = abi.decode(... */\n      swap1\n      pop\n        /* \"scalable-dex/contracts/src/interfaces/MainDispatcherBase.sol\":7730:7742  bool success */\n      0x00\n        /* \"scalable-dex/contracts/src/interfaces/MainDispatcherBase.sol\":7744:7767  bytes memory returndata */\n      0x60\n        /* \"scalable-dex/contracts/src/interfaces/MainDispatcherBase.sol\":7771:7786  contractAddress */\n      dup3\n        /* \"scalable-dex/contracts/src/interfaces/MainDispatcherBase.sol\":7771:7799  contractAddress.delegatecall */\n      0xffffffffffffffffffffffffffffffffffffffff\n      and\n        /* \"scalable-dex/contracts/src/interfaces/MainDispatcherBase.sol\":7840:7895  SubContractor(contractAddress).initializerSize.selector */\n      shl(0xe0, 0x3cc660ad)\n        /* \"scalable-dex/contracts/src/interfaces/MainDispatcherBase.sol\":7817:7896  abi.encodeWithSelector(SubContractor(contractAddress).initializerSize.selector) */\n      add(0x24, mload(0x40))\n      mload(0x40)\n      0x20\n      dup2\n      dup4\n      sub\n      sub\n      dup2\n      mstore\n      swap1\n      0x40\n      mstore\n      swap1\n      not(0xffffffffffffffffffffffffffffffffffffffffffffffffffffffff)\n      and\n      0x20\n      dup3\n      add\n      dup1\n      mload\n      0xffffffffffffffffffffffffffffffffffffffffffffffffffffffff\n      dup4\n      dup2\n      dup4\n      and\n      or\n      dup4\n      mstore\n      pop\n      pop\n      pop\n      pop\n        /* \"scalable-dex/contracts/src/interfaces/MainDispatcherBase.sol\":7771:7910  contractAddress.delegatecall(... */\n      mload(0x40)\n      dup1\n      dup3\n      dup1\n      mload\n      swap1\n      0x20\n      add\n      swap1\n      dup1\n      dup4\n      dup4\n    tag_66:\n      0x20\n      dup4\n      lt\n      tag_68\n      jumpi\n      dup1\n      mload\n      dup3\n      mstore\n      0x20\n      dup3\n      add\n      swap2\n      pop\n      0x20\n      dup2\n      add\n      swap1\n      pop\n      0x20\n      dup4\n      sub\n      swap3\n      pop\n      jump(tag_66)\n    tag_68:\n      0x01\n      dup4\n      0x20\n      sub\n      0x0100\n      exp\n      sub\n      dup1\n      not\n      dup3\n      mload\n      and\n      dup2\n      dup5\n      mload\n      and\n      dup1\n      dup3\n      or\n      dup6\n      mstore\n      pop\n      pop\n      pop\n      pop\n      pop\n      pop\n      swap1\n      pop\n      add\n      swap2\n      pop\n      pop\n      0x00\n      mload(0x40)\n      dup1\n      dup4\n      sub\n      dup2\n      dup6\n      gas\n      delegatecall\n      swap2\n      pop\n      pop\n      returndatasize\n      dup1\n      0x00\n      dup2\n      eq\n      tag_71\n      jumpi\n      mload(0x40)\n      swap2\n      pop\n      and(add(returndatasize, 0x3f), not(0x1f))\n      dup3\n      add\n      0x40\n      mstore\n      returndatasize\n      dup3\n      mstore\n      returndatasize\n      0x00\n      0x20\n      dup5\n      add\n      returndatacopy\n      jump(tag_70)\n    tag_71:\n      0x60\n      swap2\n      pop\n    tag_70:\n      pop\n        /* \"scalable-dex/contracts/src/interfaces/MainDispatcherBase.sol\":7729:7910  (bool success, bytes memory returndata) = contractAddress.delegatecall(... */\n      swap2\n      pop\n      swap2\n      pop\n        /* \"scalable-dex/contracts/src/interfaces/MainDispatcherBase.sol\":7932:7939  success */\n      dup2\n        /* \"scalable-dex/contracts/src/interfaces/MainDispatcherBase.sol\":7948:7958  returndata */\n      dup2\n        /* \"scalable-dex/contracts/src/interfaces/MainDispatcherBase.sol\":7924:7960  require(success, string(returndata)) */\n      swap1\n      tag_72\n      jumpi\n      mload(0x40)\n      0x08c379a000000000000000000000000000000000000000000000000000000000\n      dup2\n      mstore\n      0x04\n      add\n      dup1\n      dup1\n      0x20\n      add\n      dup3\n      dup2\n      sub\n      dup3\n      mstore\n      dup4\n      dup2\n      dup2\n      mload\n      dup2\n      mstore\n      0x20\n      add\n      swap2\n      pop\n      dup1\n      mload\n      swap1\n      0x20\n      add\n      swap1\n      dup1\n      dup4\n      dup4\n      0x00\n    tag_73:\n      dup4\n      dup2\n      lt\n      iszero\n      tag_75\n      jumpi\n      dup1\n      dup3\n      add\n      mload\n      dup2\n      dup5\n      add\n      mstore\n      0x20\n      dup2\n      add\n      swap1\n      pop\n      jump(tag_73)\n    tag_75:\n      pop\n      pop\n      pop\n      pop\n      swap1\n      pop\n      swap1\n      dup2\n      add\n      swap1\n      0x1f\n      and\n      dup1\n      iszero\n      tag_76\n      jumpi\n      dup1\n      dup3\n      sub\n      dup1\n      mload\n      0x01\n      dup4\n      0x20\n      sub\n      0x0100\n      exp\n      sub\n      not\n      and\n      dup2\n      mstore\n      0x20\n      add\n      swap2\n      pop\n    tag_76:\n      pop\n      swap3\n      pop\n      pop\n      pop\n      mload(0x40)\n      dup1\n      swap2\n      sub\n      swap1\n      revert\n    tag_72:\n      pop\n        /* \"scalable-dex/contracts/src/interfaces/MainDispatcherBase.sol\":7974:7990  uint256 initSize */\n      0x00\n        /* \"scalable-dex/contracts/src/interfaces/MainDispatcherBase.sol\":8004:8014  returndata */\n      dup2\n        /* \"scalable-dex/contracts/src/interfaces/MainDispatcherBase.sol\":7993:8026  abi.decode(returndata, (uint256)) */\n      dup1\n      0x20\n      add\n      swap1\n      mload\n      0x20\n      dup2\n      lt\n      iszero\n      tag_77\n      jumpi\n      0x00\n      dup1\n      revert\n    tag_77:\n      dup2\n      add\n      swap1\n      dup1\n      dup1\n      mload\n      swap1\n      0x20\n      add\n      swap1\n      swap3\n      swap2\n      swap1\n      pop\n      pop\n      pop\n        /* \"scalable-dex/contracts/src/interfaces/MainDispatcherBase.sol\":7974:8026  uint256 initSize = abi.decode(returndata, (uint256)) */\n      swap1\n      pop\n        /* \"scalable-dex/contracts/src/interfaces/MainDispatcherBase.sol\":8060:8078  additionalDataSize */\n      dup7\n        /* \"scalable-dex/contracts/src/interfaces/MainDispatcherBase.sol\":8048:8056  initSize */\n      dup2\n        /* \"scalable-dex/contracts/src/interfaces/MainDispatcherBase.sol\":8048:8078  initSize <= additionalDataSize */\n      gt\n      iszero\n        /* \"scalable-dex/contracts/src/interfaces/MainDispatcherBase.sol\":8040:8107  require(initSize <= additionalDataSize, \"INVALID_INITIALIZER_SIZE\") */\n      tag_78\n      jumpi\n      mload(0x40)\n      0x08c379a000000000000000000000000000000000000000000000000000000000\n      dup2\n      mstore\n      0x04\n      add\n      dup1\n      dup1\n      0x20\n      add\n      dup3\n      dup2\n      sub\n      dup3\n      mstore\n      0x18\n      dup2\n      mstore\n      0x20\n      add\n      dup1\n      0x494e56414c49445f494e495449414c495a45525f53495a450000000000000000\n      dup2\n      mstore\n      pop\n      0x20\n      add\n      swap2\n      pop\n      pop\n      mload(0x40)\n      dup1\n      swap2\n      sub\n      swap1\n      revert\n    tag_78:\n        /* \"scalable-dex/contracts/src/interfaces/MainDispatcherBase.sol\":8158:8176  additionalDataSize */\n      dup7\n        /* \"scalable-dex/contracts/src/interfaces/MainDispatcherBase.sol\":8146:8154  initSize */\n      dup2\n        /* \"scalable-dex/contracts/src/interfaces/MainDispatcherBase.sol\":8129:8143  totalInitSizes */\n      dup11\n        /* \"scalable-dex/contracts/src/interfaces/MainDispatcherBase.sol\":8129:8154  totalInitSizes + initSize */\n      add\n        /* \"scalable-dex/contracts/src/interfaces/MainDispatcherBase.sol\":8129:8176  totalInitSizes + initSize <= additionalDataSize */\n      gt\n      iszero\n        /* \"scalable-dex/contracts/src/interfaces/MainDispatcherBase.sol\":8121:8205  require(totalInitSizes + initSize <= additionalDataSize, \"INVALID_INITIALIZER_SIZE\") */\n      tag_79\n      jumpi\n      mload(0x40)\n      0x08c379a000000000000000000000000000000000000000000000000000000000\n      dup2\n      mstore\n      0x04\n      add\n      dup1\n      dup1\n      0x20\n      add\n      dup3\n      dup2\n      sub\n      dup3\n      mstore\n      0x18\n      dup2\n      mstore\n      0x20\n      add\n      dup1\n      0x494e56414c49445f494e495449414c495a45525f53495a450000000000000000\n      dup2\n      mstore\n      pop\n      0x20\n      add\n      swap2\n      pop\n      pop\n      mload(0x40)\n      dup1\n      swap2\n      sub\n      swap1\n      revert\n    tag_79:\n        /* \"scalable-dex/contracts/src/interfaces/MainDispatcherBase.sol\":8236:8237  0 */\n      0x00\n        /* \"scalable-dex/contracts/src/interfaces/MainDispatcherBase.sol\":8224:8232  initSize */\n      dup2\n        /* \"scalable-dex/contracts/src/interfaces/MainDispatcherBase.sol\":8224:8237  initSize == 0 */\n      eq\n        /* \"scalable-dex/contracts/src/interfaces/MainDispatcherBase.sol\":8220:8280  if (initSize == 0) {... */\n      iszero\n      tag_80\n      jumpi\n        /* \"scalable-dex/contracts/src/interfaces/MainDispatcherBase.sol\":8257:8265  continue */\n      pop\n      pop\n      pop\n      pop\n      jump(tag_63)\n        /* \"scalable-dex/contracts/src/interfaces/MainDispatcherBase.sol\":8220:8280  if (initSize == 0) {... */\n    tag_80:\n        /* \"scalable-dex/contracts/src/interfaces/MainDispatcherBase.sol\":8431:8446  contractAddress */\n      dup4\n        /* \"scalable-dex/contracts/src/interfaces/MainDispatcherBase.sol\":8431:8459  contractAddress.delegatecall */\n      0xffffffffffffffffffffffffffffffffffffffff\n      and\n        /* \"scalable-dex/contracts/src/interfaces/MainDispatcherBase.sol\":8521:8545  this.initialize.selector */\n      shl(0xe0, 0x439fab91)\n        /* \"scalable-dex/contracts/src/interfaces/MainDispatcherBase.sol\":8567:8571  data */\n      dup14\n      dup14\n        /* \"scalable-dex/contracts/src/interfaces/MainDispatcherBase.sol\":8572:8595  initDataContractsOffset */\n      dup12\n        /* \"scalable-dex/contracts/src/interfaces/MainDispatcherBase.sol\":8567:8631  data[initDataContractsOffset:initDataContractsOffset + initSize] */\n      swap1\n        /* \"scalable-dex/contracts/src/interfaces/MainDispatcherBase.sol\":8622:8630  initSize */\n      dup6\n        /* \"scalable-dex/contracts/src/interfaces/MainDispatcherBase.sol\":8596:8619  initDataContractsOffset */\n      dup14\n        /* \"scalable-dex/contracts/src/interfaces/MainDispatcherBase.sol\":8596:8630  initDataContractsOffset + initSize */\n      add\n        /* \"scalable-dex/contracts/src/interfaces/MainDispatcherBase.sol\":8567:8631  data[initDataContractsOffset:initDataContractsOffset + initSize] */\n      swap3\n      tag_81\n      swap4\n      swap3\n      swap2\n      swap1\n      tag_45\n      jump\t// in\n    tag_81:\n        /* \"scalable-dex/contracts/src/interfaces/MainDispatcherBase.sol\":8477:8649  abi.encodeWithSelector(... */\n      add(0x24, mload(0x40))\n      dup1\n      dup1\n      0x20\n      add\n      dup3\n      dup2\n      sub\n      dup3\n      mstore\n      dup5\n      dup5\n      dup3\n      dup2\n      dup2\n      mstore\n      0x20\n      add\n      swap3\n      pop\n      dup1\n      dup3\n      dup5\n      calldatacopy\n      0x00\n      dup2\n      dup5\n      add\n      mstore\n      not(0x1f)\n      0x1f\n      dup3\n      add\n      and\n      swap1\n      pop\n      dup1\n      dup4\n      add\n      swap3\n      pop\n      pop\n      pop\n      swap4\n      pop\n      pop\n      pop\n      pop\n      mload(0x40)\n      0x20\n      dup2\n      dup4\n      sub\n      sub\n      dup2\n      mstore\n      swap1\n      0x40\n      mstore\n      swap1\n      not(0xffffffffffffffffffffffffffffffffffffffffffffffffffffffff)\n      and\n      0x20\n      dup3\n      add\n      dup1\n      mload\n      0xffffffffffffffffffffffffffffffffffffffffffffffffffffffff\n      dup4\n      dup2\n      dup4\n      and\n      or\n      dup4\n      mstore\n      pop\n      pop\n      pop\n      pop\n        /* \"scalable-dex/contracts/src/interfaces/MainDispatcherBase.sol\":8431:8663  contractAddress.delegatecall(... */\n      mload(0x40)\n      dup1\n      dup3\n      dup1\n      mload\n      swap1\n      0x20\n      add\n      swap1\n      dup1\n      dup4\n      dup4\n    tag_82:\n      0x20\n      dup4\n      lt\n      tag_84\n      jumpi\n      dup1\n      mload\n      dup3\n      mstore\n      0x20\n      dup3\n      add\n      swap2\n      pop\n      0x20\n      dup2\n      add\n      swap1\n      pop\n      0x20\n      dup4\n      sub\n      swap3\n      pop\n      jump(tag_82)\n    tag_84:\n      0x01\n      dup4\n      0x20\n      sub\n      0x0100\n      exp\n      sub\n      dup1\n      not\n      dup3\n      mload\n      and\n      dup2\n      dup5\n      mload\n      and\n      dup1\n      dup3\n      or\n      dup6\n      mstore\n      pop\n      pop\n      pop\n      pop\n      pop\n      pop\n      swap1\n      pop\n      add\n      swap2\n      pop\n      pop\n      0x00\n      mload(0x40)\n      dup1\n      dup4\n      sub\n      dup2\n      dup6\n      gas\n      delegatecall\n      swap2\n      pop\n      pop\n      returndatasize\n      dup1\n      0x00\n      dup2\n      eq\n      tag_87\n      jumpi\n      mload(0x40)\n      swap2\n      pop\n      and(add(returndatasize, 0x3f), not(0x1f))\n      dup3\n      add\n      0x40\n      mstore\n      returndatasize\n      dup3\n      mstore\n      returndatasize\n      0x00\n      0x20\n      dup5\n      add\n      returndatacopy\n      jump(tag_86)\n    tag_87:\n      0x60\n      swap2\n      pop\n    tag_86:\n      pop\n        /* \"scalable-dex/contracts/src/interfaces/MainDispatcherBase.sol\":8407:8663  (success, returndata) = contractAddress.delegatecall(... */\n      dup1\n      swap4\n      pop\n      dup2\n      swap5\n      pop\n      pop\n      pop\n        /* \"scalable-dex/contracts/src/interfaces/MainDispatcherBase.sol\":8685:8692  success */\n      dup3\n        /* \"scalable-dex/contracts/src/interfaces/MainDispatcherBase.sol\":8701:8711  returndata */\n      dup3\n        /* \"scalable-dex/contracts/src/interfaces/MainDispatcherBase.sol\":8677:8713  require(success, string(returndata)) */\n      swap1\n      tag_88\n      jumpi\n      mload(0x40)\n      0x08c379a000000000000000000000000000000000000000000000000000000000\n      dup2\n      mstore\n      0x04\n      add\n      dup1\n      dup1\n      0x20\n      add\n      dup3\n      dup2\n      sub\n      dup3\n      mstore\n      dup4\n      dup2\n      dup2\n      mload\n      dup2\n      mstore\n      0x20\n      add\n      swap2\n      pop\n      dup1\n      mload\n      swap1\n      0x20\n      add\n      swap1\n      dup1\n      dup4\n      dup4\n      0x00\n    tag_89:\n      dup4\n      dup2\n      lt\n      iszero\n      tag_91\n      jumpi\n      dup1\n      dup3\n      add\n      mload\n      dup2\n      dup5\n      add\n      mstore\n      0x20\n      dup2\n      add\n      swap1\n      pop\n      jump(tag_89)\n    tag_91:\n      pop\n      pop\n      pop\n      pop\n      swap1\n      pop\n      swap1\n      dup2\n      add\n      swap1\n      0x1f\n      and\n      dup1\n      iszero\n      tag_92\n      jumpi\n      dup1\n      dup3\n      sub\n      dup1\n      mload\n      0x01\n      dup4\n      0x20\n      sub\n      0x0100\n      exp\n      sub\n      not\n      and\n      dup2\n      mstore\n      0x20\n      add\n      swap2\n      pop\n    tag_92:\n      pop\n      swap3\n      pop\n      pop\n      pop\n      mload(0x40)\n      dup1\n      swap2\n      sub\n      swap1\n      revert\n    tag_88:\n      pop\n        /* \"scalable-dex/contracts/src/interfaces/MainDispatcherBase.sol\":8745:8753  initSize */\n      dup1\n        /* \"scalable-dex/contracts/src/interfaces/MainDispatcherBase.sol\":8727:8753  totalInitSizes += initSize */\n      dup10\n      add\n      swap9\n      pop\n        /* \"scalable-dex/contracts/src/interfaces/MainDispatcherBase.sol\":8794:8802  initSize */\n      dup1\n        /* \"scalable-dex/contracts/src/interfaces/MainDispatcherBase.sol\":8767:8802  initDataContractsOffset += initSize */\n      dup9\n      add\n      swap8\n      pop\n        /* \"scalable-dex/contracts/src/interfaces/MainDispatcherBase.sol\":7168:8813  for (uint256 nContract = 1; nContract <= nSubContracts; nContract++) {... */\n      pop\n      pop\n      pop\n      pop\n    tag_63:\n        /* \"scalable-dex/contracts/src/interfaces/MainDispatcherBase.sol\":7224:7235  nContract++ */\n      dup1\n      dup1\n      0x01\n      add\n      swap2\n      pop\n      pop\n        /* \"scalable-dex/contracts/src/interfaces/MainDispatcherBase.sol\":7168:8813  for (uint256 nContract = 1; nContract <= nSubContracts; nContract++) {... */\n      jump(tag_61)\n    tag_62:\n      pop\n        /* \"scalable-dex/contracts/src/interfaces/MainDispatcherBase.sol\":8852:8866  totalInitSizes */\n      dup4\n        /* \"scalable-dex/contracts/src/interfaces/MainDispatcherBase.sol\":8830:8848  additionalDataSize */\n      dup3\n        /* \"scalable-dex/contracts/src/interfaces/MainDispatcherBase.sol\":8830:8866  additionalDataSize == totalInitSizes */\n      eq\n        /* \"scalable-dex/contracts/src/interfaces/MainDispatcherBase.sol\":8822:8897  require(additionalDataSize == totalInitSizes, \"MISMATCHING_INIT_DATA_SIZE\") */\n      tag_93\n      jumpi\n      mload(0x40)\n      0x08c379a000000000000000000000000000000000000000000000000000000000\n      dup2\n      mstore\n      0x04\n      add\n      dup1\n      dup1\n      0x20\n      add\n      dup3\n      dup2\n      sub\n      dup3\n      mstore\n      0x1a\n      dup2\n      mstore\n      0x20\n      add\n      dup1\n      0x4d49534d41544348494e475f494e49545f444154415f53495a45000000000000\n      dup2\n      mstore\n      pop\n      0x20\n      add\n      swap2\n      pop\n      pop\n      mload(0x40)\n      dup1\n      swap2\n      sub\n      swap1\n      revert\n    tag_93:\n        /* \"scalable-dex/contracts/src/interfaces/BlockDirectCall.sol\":1244:1245  _ */\n      pop\n      pop\n      pop\n      pop\n      pop\n    tag_36:\n        /* \"scalable-dex/contracts/src/interfaces/MainDispatcherBase.sol\":4781:8904  function initialize(bytes calldata data) external virtual notCalledDirectly {... */\n      pop\n      pop\n      jump\t// out\n        /* \"scalable-dex/contracts/src/starkex/StarkExchange.sol\":157:197  string public constant VERSION = \"4.0.1\" */\n    tag_23:\n      mload(0x40)\n      dup1\n      0x40\n      add\n      0x40\n      mstore\n      dup1\n      0x05\n      dup2\n      mstore\n      0x20\n      add\n      0x342e302e31000000000000000000000000000000000000000000000000000000\n      dup2\n      mstore\n      pop\n      dup2\n      jump\t// out\n        /* \"scalable-dex/contracts/src/starkex/StarkExchange.sol\":975:1071  function magicSalt() internal pure override returns (uint256) {... */\n    tag_30:\n        /* \"scalable-dex/contracts/src/starkex/StarkExchange.sol\":1028:1035  uint256 */\n      0x00\n        /* \"scalable-dex/contracts/src/starkex/StarkExchange.sol\":403:408  46110 */\n      0xb41e\n        /* \"scalable-dex/contracts/src/starkex/StarkExchange.sol\":1047:1064  return MAGIC_SALT */\n      swap1\n      pop\n        /* \"scalable-dex/contracts/src/starkex/StarkExchange.sol\":975:1071  function magicSalt() internal pure override returns (uint256) {... */\n      swap1\n      jump\t// out\n        /* \"scalable-dex/contracts/src/starkex/StarkExchange.sol\":1077:1471  function handlerMapSection(uint256 section) internal view override returns (uint256) {... */\n    tag_33:\n        /* \"scalable-dex/contracts/src/starkex/StarkExchange.sol\":1153:1160  uint256 */\n      0x00\n        /* \"scalable-dex/contracts/src/starkex/StarkExchange.sol\":1187:1188  0 */\n      dup1\n        /* \"scalable-dex/contracts/src/starkex/StarkExchange.sol\":1176:1183  section */\n      dup3\n        /* \"scalable-dex/contracts/src/starkex/StarkExchange.sol\":1176:1188  section == 0 */\n      eq\n        /* \"scalable-dex/contracts/src/starkex/StarkExchange.sol\":1172:1426  if (section == 0) {... */\n      iszero\n      tag_96\n      jumpi\n        /* \"scalable-dex/contracts/src/starkex/StarkExchange.sol\":443:507  0x30006100050005012000102002000001200000010001100500200000000020 */\n      0x30006100050005012000102002000001200000010001100500200000000020\n        /* \"scalable-dex/contracts/src/starkex/StarkExchange.sol\":1204:1220  return IDX_MAP_0 */\n      swap1\n      pop\n      jump(tag_95)\n        /* \"scalable-dex/contracts/src/starkex/StarkExchange.sol\":1172:1426  if (section == 0) {... */\n    tag_96:\n        /* \"scalable-dex/contracts/src/starkex/StarkExchange.sol\":1252:1253  1 */\n      0x01\n        /* \"scalable-dex/contracts/src/starkex/StarkExchange.sol\":1241:1248  section */\n      dup3\n        /* \"scalable-dex/contracts/src/starkex/StarkExchange.sol\":1241:1253  section == 1 */\n      eq\n        /* \"scalable-dex/contracts/src/starkex/StarkExchange.sol\":1237:1426  if (section == 1) {... */\n      iszero\n      tag_98\n      jumpi\n        /* \"scalable-dex/contracts/src/starkex/StarkExchange.sol\":542:607  0x120000105000000501200000120502000000200452005000202002030500003 */\n      0x0120000105000000501200000120502000000200452005000202002030500003\n        /* \"scalable-dex/contracts/src/starkex/StarkExchange.sol\":1269:1285  return IDX_MAP_1 */\n      swap1\n      pop\n      jump(tag_95)\n        /* \"scalable-dex/contracts/src/starkex/StarkExchange.sol\":1237:1426  if (section == 1) {... */\n    tag_98:\n        /* \"scalable-dex/contracts/src/starkex/StarkExchange.sol\":1317:1318  2 */\n      0x02\n        /* \"scalable-dex/contracts/src/starkex/StarkExchange.sol\":1306:1313  section */\n      dup3\n        /* \"scalable-dex/contracts/src/starkex/StarkExchange.sol\":1306:1318  section == 2 */\n      eq\n        /* \"scalable-dex/contracts/src/starkex/StarkExchange.sol\":1302:1426  if (section == 2) {... */\n      iszero\n      tag_100\n      jumpi\n        /* \"scalable-dex/contracts/src/starkex/StarkExchange.sol\":642:708  0x1020000000003020000502203000300000200000000001000100330010220001 */\n      0x1020000000003020000502203000300000200000000001000100330010220001\n        /* \"scalable-dex/contracts/src/starkex/StarkExchange.sol\":1334:1350  return IDX_MAP_2 */\n      swap1\n      pop\n      jump(tag_95)\n        /* \"scalable-dex/contracts/src/starkex/StarkExchange.sol\":1302:1426  if (section == 2) {... */\n    tag_100:\n        /* \"scalable-dex/contracts/src/starkex/StarkExchange.sol\":1382:1383  3 */\n      0x03\n        /* \"scalable-dex/contracts/src/starkex/StarkExchange.sol\":1371:1378  section */\n      dup3\n        /* \"scalable-dex/contracts/src/starkex/StarkExchange.sol\":1371:1383  section == 3 */\n      eq\n        /* \"scalable-dex/contracts/src/starkex/StarkExchange.sol\":1367:1426  if (section == 3) {... */\n      iszero\n      tag_102\n      jumpi\n        /* \"scalable-dex/contracts/src/starkex/StarkExchange.sol\":743:808  0x200230200020300001401200000000100020011200000002020000010000301 */\n      0x0200230200020300001401200000000100020011200000002020000010000301\n        /* \"scalable-dex/contracts/src/starkex/StarkExchange.sol\":1399:1415  return IDX_MAP_3 */\n      swap1\n      pop\n      jump(tag_95)\n        /* \"scalable-dex/contracts/src/starkex/StarkExchange.sol\":1367:1426  if (section == 3) {... */\n    tag_102:\n        /* \"scalable-dex/contracts/src/starkex/StarkExchange.sol\":1435:1464  revert(\"BAD_IDX_MAP_SECTION\") */\n      mload(0x40)\n      0x08c379a000000000000000000000000000000000000000000000000000000000\n      dup2\n      mstore\n      0x04\n      add\n      dup1\n      dup1\n      0x20\n      add\n      dup3\n      dup2\n      sub\n      dup3\n      mstore\n      0x13\n      dup2\n      mstore\n      0x20\n      add\n      dup1\n      0x4241445f4944585f4d41505f53454354494f4e00000000000000000000000000\n      dup2\n      mstore\n      pop\n      0x20\n      add\n      swap2\n      pop\n      pop\n      mload(0x40)\n      dup1\n      swap2\n      sub\n      swap1\n      revert\n        /* \"scalable-dex/contracts/src/starkex/StarkExchange.sol\":1077:1471  function handlerMapSection(uint256 section) internal view override returns (uint256) {... */\n    tag_95:\n      swap2\n      swap1\n      pop\n      jump\t// out\n        /* \"scalable-dex/contracts/src/starkex/StarkExchange.sol\":873:969  function getNumSubcontracts() internal pure override returns (uint256) {... */\n    tag_38:\n        /* \"scalable-dex/contracts/src/starkex/StarkExchange.sol\":935:942  uint256 */\n      0x00\n        /* \"scalable-dex/contracts/src/starkex/StarkExchange.sol\":961:962  6 */\n      0x06\n        /* \"scalable-dex/contracts/src/starkex/StarkExchange.sol\":954:962  return 6 */\n      swap1\n      pop\n        /* \"scalable-dex/contracts/src/starkex/StarkExchange.sol\":873:969  function getNumSubcontracts() internal pure override returns (uint256) {... */\n      swap1\n      jump\t// out\n        /* \"scalable-dex/contracts/src/interfaces/MainDispatcher.sol\":514:916  function validateSubContractIndex(uint256 index, address subContract) internal pure override {... */\n    tag_48:\n        /* \"scalable-dex/contracts/src/interfaces/MainDispatcher.sol\":617:633  string memory id */\n      0x60\n        /* \"scalable-dex/contracts/src/interfaces/MainDispatcher.sol\":650:661  subContract */\n      dup2\n        /* \"scalable-dex/contracts/src/interfaces/MainDispatcher.sol\":636:671  SubContractor(subContract).identify */\n      0xffffffffffffffffffffffffffffffffffffffff\n      and\n      0xeeb72866\n        /* \"scalable-dex/contracts/src/interfaces/MainDispatcher.sol\":636:673  SubContractor(subContract).identify() */\n      mload(0x40)\n      dup2\n      0xffffffff\n      and\n      0xe0\n      shl\n      dup2\n      mstore\n      0x04\n      add\n      0x00\n      mload(0x40)\n      dup1\n      dup4\n      sub\n      dup2\n      dup7\n      dup1\n      extcodesize\n      iszero\n      dup1\n      iszero\n      tag_105\n      jumpi\n      0x00\n      dup1\n      revert\n    tag_105:\n      pop\n      gas\n      staticcall\n      iszero\n      dup1\n      iszero\n      tag_107\n      jumpi\n      returndatasize\n      0x00\n      dup1\n      returndatacopy\n      revert(0x00, returndatasize)\n    tag_107:\n      pop\n      pop\n      pop\n      pop\n      mload(0x40)\n      returndatasize\n      0x00\n      dup3\n      returndatacopy\n      returndatasize\n      not(0x1f)\n      0x1f\n      dup3\n      add\n      and\n      dup3\n      add\n      dup1\n      0x40\n      mstore\n      pop\n      0x20\n      dup2\n      lt\n      iszero\n      tag_108\n      jumpi\n      0x00\n      dup1\n      revert\n    tag_108:\n      dup2\n      add\n      swap1\n      dup1\n      dup1\n      mload\n      mload(0x40)\n      swap4\n      swap3\n      swap2\n      swap1\n      dup5\n      0x0100000000\n      dup3\n      gt\n      iszero\n      tag_109\n      jumpi\n      0x00\n      dup1\n      revert\n    tag_109:\n      dup4\n      dup3\n      add\n      swap2\n      pop\n      0x20\n      dup3\n      add\n      dup6\n      dup2\n      gt\n      iszero\n      tag_110\n      jumpi\n      0x00\n      dup1\n      revert\n    tag_110:\n      dup3\n      mload\n      dup7\n      0x01\n      dup3\n      mul\n      dup4\n      add\n      gt\n      0x0100000000\n      dup3\n      gt\n      or\n      iszero\n      tag_111\n      jumpi\n      0x00\n      dup1\n      revert\n    tag_111:\n      dup1\n      dup4\n      mstore\n      0x20\n      dup4\n      add\n      swap3\n      pop\n      pop\n      pop\n      swap1\n      dup1\n      mload\n      swap1\n      0x20\n      add\n      swap1\n      dup1\n      dup4\n      dup4\n      0x00\n    tag_112:\n      dup4\n      dup2\n      lt\n      iszero\n      tag_114\n      jumpi\n      dup1\n      dup3\n      add\n      mload\n      dup2\n      dup5\n      add\n      mstore\n      0x20\n      dup2\n      add\n      swap1\n      pop\n      jump(tag_112)\n    tag_114:\n      pop\n      pop\n      pop\n      pop\n      swap1\n      pop\n      swap1\n      dup2\n      add\n      swap1\n      0x1f\n      and\n      dup1\n      iszero\n      tag_115\n      jumpi\n      dup1\n      dup3\n      sub\n      dup1\n      mload\n      0x01\n      dup4\n      0x20\n      sub\n      0x0100\n      exp\n      sub\n      not\n      and\n      dup2\n      mstore\n      0x20\n      add\n      swap2\n      pop\n    tag_115:\n      pop\n      0x40\n      mstore\n      pop\n      pop\n      pop\n        /* \"scalable-dex/contracts/src/interfaces/MainDispatcher.sol\":617:673  string memory id = SubContractor(subContract).identify() */\n      swap1\n      pop\n        /* \"scalable-dex/contracts/src/interfaces/MainDispatcher.sol\":683:709  bytes32 hashed_expected_id */\n      0x00\n        /* \"scalable-dex/contracts/src/interfaces/MainDispatcher.sol\":739:763  expectedIdByIndex(index) */\n      tag_116\n        /* \"scalable-dex/contracts/src/interfaces/MainDispatcher.sol\":757:762  index */\n      dup5\n        /* \"scalable-dex/contracts/src/interfaces/MainDispatcher.sol\":739:756  expectedIdByIndex */\n      tag_117\n        /* \"scalable-dex/contracts/src/interfaces/MainDispatcher.sol\":739:763  expectedIdByIndex(index) */\n      jump\t// in\n    tag_116:\n        /* \"scalable-dex/contracts/src/interfaces/MainDispatcher.sol\":722:764  abi.encodePacked(expectedIdByIndex(index)) */\n      add(0x20, mload(0x40))\n      dup1\n      dup3\n      dup1\n      mload\n      swap1\n      0x20\n      add\n      swap1\n      dup1\n      dup4\n      dup4\n    tag_118:\n      0x20\n      dup4\n      lt\n      tag_120\n      jumpi\n      dup1\n      mload\n      dup3\n      mstore\n      0x20\n      dup3\n      add\n      swap2\n      pop\n      0x20\n      dup2\n      add\n      swap1\n      pop\n      0x20\n      dup4\n      sub\n      swap3\n      pop\n      jump(tag_118)\n    tag_120:\n      0x01\n      dup4\n      0x20\n      sub\n      0x0100\n      exp\n      sub\n      dup1\n      not\n      dup3\n      mload\n      and\n      dup2\n      dup5\n      mload\n      and\n      dup1\n      dup3\n      or\n      dup6\n      mstore\n      pop\n      pop\n      pop\n      pop\n      pop\n      pop\n      swap1\n      pop\n      add\n      swap2\n      pop\n      pop\n      mload(0x40)\n      0x20\n      dup2\n      dup4\n      sub\n      sub\n      dup2\n      mstore\n      swap1\n      0x40\n      mstore\n        /* \"scalable-dex/contracts/src/interfaces/MainDispatcher.sol\":712:765  keccak256(abi.encodePacked(expectedIdByIndex(index))) */\n      dup1\n      mload\n      swap1\n      0x20\n      add\n      keccak256\n        /* \"scalable-dex/contracts/src/interfaces/MainDispatcher.sol\":683:765  bytes32 hashed_expected_id = keccak256(abi.encodePacked(expectedIdByIndex(index))) */\n      swap1\n      pop\n        /* \"scalable-dex/contracts/src/interfaces/MainDispatcher.sol\":845:847  id */\n      dup2\n        /* \"scalable-dex/contracts/src/interfaces/MainDispatcher.sol\":828:848  abi.encodePacked(id) */\n      add(0x20, mload(0x40))\n      dup1\n      dup3\n      dup1\n      mload\n      swap1\n      0x20\n      add\n      swap1\n      dup1\n      dup4\n      dup4\n    tag_121:\n      0x20\n      dup4\n      lt\n      tag_123\n      jumpi\n      dup1\n      mload\n      dup3\n      mstore\n      0x20\n      dup3\n      add\n      swap2\n      pop\n      0x20\n      dup2\n      add\n      swap1\n      pop\n      0x20\n      dup4\n      sub\n      swap3\n      pop\n      jump(tag_121)\n    tag_123:\n      0x01\n      dup4\n      0x20\n      sub\n      0x0100\n      exp\n      sub\n      dup1\n      not\n      dup3\n      mload\n      and\n      dup2\n      dup5\n      mload\n      and\n      dup1\n      dup3\n      or\n      dup6\n      mstore\n      pop\n      pop\n      pop\n      pop\n      pop\n      pop\n      swap1\n      pop\n      add\n      swap2\n      pop\n      pop\n      mload(0x40)\n      0x20\n      dup2\n      dup4\n      sub\n      sub\n      dup2\n      mstore\n      swap1\n      0x40\n      mstore\n        /* \"scalable-dex/contracts/src/interfaces/MainDispatcher.sol\":818:849  keccak256(abi.encodePacked(id)) */\n      dup1\n      mload\n      swap1\n      0x20\n      add\n      keccak256\n        /* \"scalable-dex/contracts/src/interfaces/MainDispatcher.sol\":796:814  hashed_expected_id */\n      dup2\n        /* \"scalable-dex/contracts/src/interfaces/MainDispatcher.sol\":796:849  hashed_expected_id == keccak256(abi.encodePacked(id)) */\n      eq\n        /* \"scalable-dex/contracts/src/interfaces/MainDispatcher.sol\":775:909  require(... */\n      tag_124\n      jumpi\n      mload(0x40)\n      0x08c379a000000000000000000000000000000000000000000000000000000000\n      dup2\n      mstore\n      0x04\n      add\n      dup1\n      dup1\n      0x20\n      add\n      dup3\n      dup2\n      sub\n      dup3\n      mstore\n      0x22\n      dup2\n      mstore\n      0x20\n      add\n      dup1\n      data_6be999353f67f128d478ed42b42d0bd68b138e501adf00a1911a331bf658849a\n      0x22\n      swap2\n      codecopy\n      0x40\n      add\n      swap2\n      pop\n      pop\n      mload(0x40)\n      dup1\n      swap2\n      sub\n      swap1\n      revert\n    tag_124:\n        /* \"scalable-dex/contracts/src/interfaces/MainDispatcher.sol\":514:916  function validateSubContractIndex(uint256 index, address subContract) internal pure override {... */\n      pop\n      pop\n      pop\n      pop\n      jump\t// out\n        /* \"scalable-dex/contracts/src/interfaces/MainDispatcher.sol\":1416:1565  function setSubContractAddress(uint256 index, address subContractAddress) internal override {... */\n    tag_50:\n        /* \"scalable-dex/contracts/src/interfaces/MainDispatcher.sol\":1540:1558  subContractAddress */\n      dup1\n        /* \"scalable-dex/contracts/src/interfaces/MainDispatcher.sol\":1518:1530  subContracts */\n      0x1e\n        /* \"scalable-dex/contracts/src/interfaces/MainDispatcher.sol\":1518:1537  subContracts[index] */\n      0x00\n        /* \"scalable-dex/contracts/src/interfaces/MainDispatcher.sol\":1531:1536  index */\n      dup5\n        /* \"scalable-dex/contracts/src/interfaces/MainDispatcher.sol\":1518:1537  subContracts[index] */\n      dup2\n      mstore\n      0x20\n      add\n      swap1\n      dup2\n      mstore\n      0x20\n      add\n      0x00\n      keccak256\n      0x00\n        /* \"scalable-dex/contracts/src/interfaces/MainDispatcher.sol\":1518:1558  subContracts[index] = subContractAddress */\n      0x0100\n      exp\n      dup2\n      sload\n      dup2\n      0xffffffffffffffffffffffffffffffffffffffff\n      mul\n      not\n      and\n      swap1\n      dup4\n      0xffffffffffffffffffffffffffffffffffffffff\n      and\n      mul\n      or\n      swap1\n      sstore\n      pop\n        /* \"scalable-dex/contracts/src/interfaces/MainDispatcher.sol\":1416:1565  function setSubContractAddress(uint256 index, address subContractAddress) internal override {... */\n      pop\n      pop\n      jump\t// out\n        /* \"scalable-dex/contracts/src/interfaces/MainDispatcherBase.sol\":8910:9454  function callExternalInitializer(address externalInitializerAddr, bytes calldata extInitData)... */\n    tag_56:\n        /* \"scalable-dex/contracts/src/interfaces/MainDispatcherBase.sol\":9042:9078  externalInitializerAddr.isContract() */\n      tag_127\n        /* \"scalable-dex/contracts/src/interfaces/MainDispatcherBase.sol\":9042:9065  externalInitializerAddr */\n      dup4\n        /* \"scalable-dex/contracts/src/interfaces/MainDispatcherBase.sol\":9042:9076  externalInitializerAddr.isContract */\n      0xffffffffffffffffffffffffffffffffffffffff\n      and\n      tag_128\n        /* \"scalable-dex/contracts/src/interfaces/MainDispatcherBase.sol\":9042:9078  externalInitializerAddr.isContract() */\n      jump\t// in\n    tag_127:\n        /* \"scalable-dex/contracts/src/interfaces/MainDispatcherBase.sol\":9034:9097  require(externalInitializerAddr.isContract(), \"NOT_A_CONTRACT\") */\n      tag_129\n      jumpi\n      mload(0x40)\n      0x08c379a000000000000000000000000000000000000000000000000000000000\n      dup2\n      mstore\n      0x04\n      add\n      dup1\n      dup1\n      0x20\n      add\n      dup3\n      dup2\n      sub\n      dup3\n      mstore\n      0x0e\n      dup2\n      mstore\n      0x20\n      add\n      dup1\n      0x4e4f545f415f434f4e5452414354000000000000000000000000000000000000\n      dup2\n      mstore\n      pop\n      0x20\n      add\n      swap2\n      pop\n      pop\n      mload(0x40)\n      dup1\n      swap2\n      sub\n      swap1\n      revert\n    tag_129:\n        /* \"scalable-dex/contracts/src/interfaces/MainDispatcherBase.sol\":9178:9190  bool success */\n      0x00\n        /* \"scalable-dex/contracts/src/interfaces/MainDispatcherBase.sol\":9192:9215  bytes memory returndata */\n      0x60\n        /* \"scalable-dex/contracts/src/interfaces/MainDispatcherBase.sol\":9219:9242  externalInitializerAddr */\n      dup5\n        /* \"scalable-dex/contracts/src/interfaces/MainDispatcherBase.sol\":9219:9255  externalInitializerAddr.delegatecall */\n      0xffffffffffffffffffffffffffffffffffffffff\n      and\n        /* \"scalable-dex/contracts/src/interfaces/MainDispatcherBase.sol\":9292:9316  this.initialize.selector */\n      shl(0xe0, 0x439fab91)\n        /* \"scalable-dex/contracts/src/interfaces/MainDispatcherBase.sol\":9318:9329  extInitData */\n      dup6\n      dup6\n        /* \"scalable-dex/contracts/src/interfaces/MainDispatcherBase.sol\":9269:9330  abi.encodeWithSelector(this.initialize.selector, extInitData) */\n      add(0x24, mload(0x40))\n      dup1\n      dup1\n      0x20\n      add\n      dup3\n      dup2\n      sub\n      dup3\n      mstore\n      dup5\n      dup5\n      dup3\n      dup2\n      dup2\n      mstore\n      0x20\n      add\n      swap3\n      pop\n      dup1\n      dup3\n      dup5\n      calldatacopy\n      0x00\n      dup2\n      dup5\n      add\n      mstore\n      not(0x1f)\n      0x1f\n      dup3\n      add\n      and\n      swap1\n      pop\n      dup1\n      dup4\n      add\n      swap3\n      pop\n      pop\n      pop\n      swap4\n      pop\n      pop\n      pop\n      pop\n      mload(0x40)\n      0x20\n      dup2\n      dup4\n      sub\n      sub\n      dup2\n      mstore\n      swap1\n      0x40\n      mstore\n      swap1\n      not(0xffffffffffffffffffffffffffffffffffffffffffffffffffffffff)\n      and\n      0x20\n      dup3\n      add\n      dup1\n      mload\n      0xffffffffffffffffffffffffffffffffffffffffffffffffffffffff\n      dup4\n      dup2\n      dup4\n      and\n      or\n      dup4\n      mstore\n      pop\n      pop\n      pop\n      pop\n        /* \"scalable-dex/contracts/src/interfaces/MainDispatcherBase.sol\":9219:9340  externalInitializerAddr.delegatecall(... */\n      mload(0x40)\n      dup1\n      dup3\n      dup1\n      mload\n      swap1\n      0x20\n      add\n      swap1\n      dup1\n      dup4\n      dup4\n    tag_130:\n      0x20\n      dup4\n      lt\n      tag_132\n      jumpi\n      dup1\n      mload\n      dup3\n      mstore\n      0x20\n      dup3\n      add\n      swap2\n      pop\n      0x20\n      dup2\n      add\n      swap1\n      pop\n      0x20\n      dup4\n      sub\n      swap3\n      pop\n      jump(tag_130)\n    tag_132:\n      0x01\n      dup4\n      0x20\n      sub\n      0x0100\n      exp\n      sub\n      dup1\n      not\n      dup3\n      mload\n      and\n      dup2\n      dup5\n      mload\n      and\n      dup1\n      dup3\n      or\n      dup6\n      mstore\n      pop\n      pop\n      pop\n      pop\n      pop\n      pop\n      swap1\n      pop\n      add\n      swap2\n      pop\n      pop\n      0x00\n      mload(0x40)\n      dup1\n      dup4\n      sub\n      dup2\n      dup6\n      gas\n      delegatecall\n      swap2\n      pop\n      pop\n      returndatasize\n      dup1\n      0x00\n      dup2\n      eq\n      tag_135\n      jumpi\n      mload(0x40)\n      swap2\n      pop\n      and(add(returndatasize, 0x3f), not(0x1f))\n      dup3\n      add\n      0x40\n      mstore\n      returndatasize\n      dup3\n      mstore\n      returndatasize\n      0x00\n      0x20\n      dup5\n      add\n      returndatacopy\n      jump(tag_134)\n    tag_135:\n      0x60\n      swap2\n      pop\n    tag_134:\n      pop\n        /* \"scalable-dex/contracts/src/interfaces/MainDispatcherBase.sol\":9177:9340  (bool success, bytes memory returndata) = externalInitializerAddr.delegatecall(... */\n      swap2\n      pop\n      swap2\n      pop\n        /* \"scalable-dex/contracts/src/interfaces/MainDispatcherBase.sol\":9358:9365  success */\n      dup2\n        /* \"scalable-dex/contracts/src/interfaces/MainDispatcherBase.sol\":9374:9384  returndata */\n      dup2\n        /* \"scalable-dex/contracts/src/interfaces/MainDispatcherBase.sol\":9350:9386  require(success, string(returndata)) */\n      swap1\n      tag_136\n      jumpi\n      mload(0x40)\n      0x08c379a000000000000000000000000000000000000000000000000000000000\n      dup2\n      mstore\n      0x04\n      add\n      dup1\n      dup1\n      0x20\n      add\n      dup3\n      dup2\n      sub\n      dup3\n      mstore\n      dup4\n      dup2\n      dup2\n      mload\n      dup2\n      mstore\n      0x20\n      add\n      swap2\n      pop\n      dup1\n      mload\n      swap1\n      0x20\n      add\n      swap1\n      dup1\n      dup4\n      dup4\n      0x00\n    tag_137:\n      dup4\n      dup2\n      lt\n      iszero\n      tag_139\n      jumpi\n      dup1\n      dup3\n      add\n      mload\n      dup2\n      dup5\n      add\n      mstore\n      0x20\n      dup2\n      add\n      swap1\n      pop\n      jump(tag_137)\n    tag_139:\n      pop\n      pop\n      pop\n      pop\n      swap1\n      pop\n      swap1\n      dup2\n      add\n      swap1\n      0x1f\n      and\n      dup1\n      iszero\n      tag_140\n      jumpi\n      dup1\n      dup3\n      sub\n      dup1\n      mload\n      0x01\n      dup4\n      0x20\n      sub\n      0x0100\n      exp\n      sub\n      not\n      and\n      dup2\n      mstore\n      0x20\n      add\n      swap2\n      pop\n    tag_140:\n      pop\n      swap3\n      pop\n      pop\n      pop\n      mload(0x40)\n      dup1\n      swap2\n      sub\n      swap1\n      revert\n    tag_136:\n      pop\n        /* \"scalable-dex/contracts/src/interfaces/MainDispatcherBase.sol\":9425:9426  0 */\n      0x00\n        /* \"scalable-dex/contracts/src/interfaces/MainDispatcherBase.sol\":9404:9414  returndata */\n      dup2\n        /* \"scalable-dex/contracts/src/interfaces/MainDispatcherBase.sol\":9404:9421  returndata.length */\n      mload\n        /* \"scalable-dex/contracts/src/interfaces/MainDispatcherBase.sol\":9404:9426  returndata.length == 0 */\n      eq\n        /* \"scalable-dex/contracts/src/interfaces/MainDispatcherBase.sol\":9435:9445  returndata */\n      dup2\n        /* \"scalable-dex/contracts/src/interfaces/MainDispatcherBase.sol\":9396:9447  require(returndata.length == 0, string(returndata)) */\n      swap1\n      tag_141\n      jumpi\n      mload(0x40)\n      0x08c379a000000000000000000000000000000000000000000000000000000000\n      dup2\n      mstore\n      0x04\n      add\n      dup1\n      dup1\n      0x20\n      add\n      dup3\n      dup2\n      sub\n      dup3\n      mstore\n      dup4\n      dup2\n      dup2\n      mload\n      dup2\n      mstore\n      0x20\n      add\n      swap2\n      pop\n      dup1\n      mload\n      swap1\n      0x20\n      add\n      swap1\n      dup1\n      dup4\n      dup4\n      0x00\n    tag_142:\n      dup4\n      dup2\n      lt\n      iszero\n      tag_144\n      jumpi\n      dup1\n      dup3\n      add\n      mload\n      dup2\n      dup5\n      add\n      mstore\n      0x20\n      dup2\n      add\n      swap1\n      pop\n      jump(tag_142)\n    tag_144:\n      pop\n      pop\n      pop\n      pop\n      swap1\n      pop\n      swap1\n      dup2\n      add\n      swap1\n      0x1f\n      and\n      dup1\n      iszero\n      tag_145\n      jumpi\n      dup1\n      dup3\n      sub\n      dup1\n      mload\n      0x01\n      dup4\n      0x20\n      sub\n      0x0100\n      exp\n      sub\n      not\n      and\n      dup2\n      mstore\n      0x20\n      add\n      swap2\n      pop\n    tag_145:\n      pop\n      swap3\n      pop\n      pop\n      pop\n      mload(0x40)\n      dup1\n      swap2\n      sub\n      swap1\n      revert\n    tag_141:\n      pop\n        /* \"scalable-dex/contracts/src/interfaces/MainDispatcherBase.sol\":8910:9454  function callExternalInitializer(address externalInitializerAddr, bytes calldata extInitData)... */\n      pop\n      pop\n      pop\n      pop\n      pop\n      jump\t// out\n        /* \"scalable-dex/contracts/src/starkex/StarkExchange.sol\":2144:2598  function initializationSentinel() internal view override {... */\n    tag_60:\n        /* \"scalable-dex/contracts/src/starkex/StarkExchange.sol\":2211:2235  string memory REVERT_MSG */\n      0x60\n        /* \"scalable-dex/contracts/src/starkex/StarkExchange.sol\":2211:2262  string memory REVERT_MSG = \"INITIALIZATION_BLOCKED\" */\n      mload(0x40)\n      dup1\n      0x40\n      add\n      0x40\n      mstore\n      dup1\n      0x16\n      dup2\n      mstore\n      0x20\n      add\n      0x494e495449414c495a4154494f4e5f424c4f434b454400000000000000000000\n      dup2\n      mstore\n      pop\n      swap1\n      pop\n        /* \"scalable-dex/contracts/src/starkex/StarkExchange.sol\":2430:2431  0 */\n      0x00\n        /* \"scalable-dex/contracts/src/starkex/StarkExchange.sol\":2417:2426  vaultRoot */\n      sload(0x0d)\n        /* \"scalable-dex/contracts/src/starkex/StarkExchange.sol\":2417:2431  vaultRoot == 0 */\n      eq\n        /* \"scalable-dex/contracts/src/starkex/StarkExchange.sol\":2433:2443  REVERT_MSG */\n      dup2\n        /* \"scalable-dex/contracts/src/starkex/StarkExchange.sol\":2409:2444  require(vaultRoot == 0, REVERT_MSG) */\n      swap1\n      tag_147\n      jumpi\n      mload(0x40)\n      0x08c379a000000000000000000000000000000000000000000000000000000000\n      dup2\n      mstore\n      0x04\n      add\n      dup1\n      dup1\n      0x20\n      add\n      dup3\n      dup2\n      sub\n      dup3\n      mstore\n      dup4\n      dup2\n      dup2\n      mload\n      dup2\n      mstore\n      0x20\n      add\n      swap2\n      pop\n      dup1\n      mload\n      swap1\n      0x20\n      add\n      swap1\n      dup1\n      dup4\n      dup4\n      0x00\n    tag_148:\n      dup4\n      dup2\n      lt\n      iszero\n      tag_150\n      jumpi\n      dup1\n      dup3\n      add\n      mload\n      dup2\n      dup5\n      add\n      mstore\n      0x20\n      dup2\n      add\n      swap1\n      pop\n      jump(tag_148)\n    tag_150:\n      pop\n      pop\n      pop\n      pop\n      swap1\n      pop\n      swap1\n      dup2\n      add\n      swap1\n      0x1f\n      and\n      dup1\n      iszero\n      tag_151\n      jumpi\n      dup1\n      dup3\n      sub\n      dup1\n      mload\n      0x01\n      dup4\n      0x20\n      sub\n      0x0100\n      exp\n      sub\n      not\n      and\n      dup2\n      mstore\n      0x20\n      add\n      swap2\n      pop\n    tag_151:\n      pop\n      swap3\n      pop\n      pop\n      pop\n      mload(0x40)\n      dup1\n      swap2\n      sub\n      swap1\n      revert\n    tag_147:\n      pop\n        /* \"scalable-dex/contracts/src/starkex/StarkExchange.sol\":2481:2482  0 */\n      0x00\n        /* \"scalable-dex/contracts/src/starkex/StarkExchange.sol\":2462:2477  vaultTreeHeight */\n      sload(0x0e)\n        /* \"scalable-dex/contracts/src/starkex/StarkExchange.sol\":2462:2482  vaultTreeHeight == 0 */\n      eq\n        /* \"scalable-dex/contracts/src/starkex/StarkExchange.sol\":2484:2494  REVERT_MSG */\n      dup2\n        /* \"scalable-dex/contracts/src/starkex/StarkExchange.sol\":2454:2495  require(vaultTreeHeight == 0, REVERT_MSG) */\n      swap1\n      tag_152\n      jumpi\n      mload(0x40)\n      0x08c379a000000000000000000000000000000000000000000000000000000000\n      dup2\n      mstore\n      0x04\n      add\n      dup1\n      dup1\n      0x20\n      add\n      dup3\n      dup2\n      sub\n      dup3\n      mstore\n      dup4\n      dup2\n      dup2\n      mload\n      dup2\n      mstore\n      0x20\n      add\n      swap2\n      pop\n      dup1\n      mload\n      swap1\n      0x20\n      add\n      swap1\n      dup1\n      dup4\n      dup4\n      0x00\n    tag_153:\n      dup4\n      dup2\n      lt\n      iszero\n      tag_155\n      jumpi\n      dup1\n      dup3\n      add\n      mload\n      dup2\n      dup5\n      add\n      mstore\n      0x20\n      dup2\n      add\n      swap1\n      pop\n      jump(tag_153)\n    tag_155:\n      pop\n      pop\n      pop\n      pop\n      swap1\n      pop\n      swap1\n      dup2\n      add\n      swap1\n      0x1f\n      and\n      dup1\n      iszero\n      tag_156\n      jumpi\n      dup1\n      dup3\n      sub\n      dup1\n      mload\n      0x01\n      dup4\n      0x20\n      sub\n      0x0100\n      exp\n      sub\n      not\n      and\n      dup2\n      mstore\n      0x20\n      add\n      swap2\n      pop\n    tag_156:\n      pop\n      swap3\n      pop\n      pop\n      pop\n      mload(0x40)\n      dup1\n      swap2\n      sub\n      swap1\n      revert\n    tag_152:\n      pop\n        /* \"scalable-dex/contracts/src/starkex/StarkExchange.sol\":2526:2527  0 */\n      0x00\n        /* \"scalable-dex/contracts/src/starkex/StarkExchange.sol\":2513:2522  orderRoot */\n      sload(0x0f)\n        /* \"scalable-dex/contracts/src/starkex/StarkExchange.sol\":2513:2527  orderRoot == 0 */\n      eq\n        /* \"scalable-dex/contracts/src/starkex/StarkExchange.sol\":2529:2539  REVERT_MSG */\n      dup2\n        /* \"scalable-dex/contracts/src/starkex/StarkExchange.sol\":2505:2540  require(orderRoot == 0, REVERT_MSG) */\n      swap1\n      tag_157\n      jumpi\n      mload(0x40)\n      0x08c379a000000000000000000000000000000000000000000000000000000000\n      dup2\n      mstore\n      0x04\n      add\n      dup1\n      dup1\n      0x20\n      add\n      dup3\n      dup2\n      sub\n      dup3\n      mstore\n      dup4\n      dup2\n      dup2\n      mload\n      dup2\n      mstore\n      0x20\n      add\n      swap2\n      pop\n      dup1\n      mload\n      swap1\n      0x20\n      add\n      swap1\n      dup1\n      dup4\n      dup4\n      0x00\n    tag_158:\n      dup4\n      dup2\n      lt\n      iszero\n      tag_160\n      jumpi\n      dup1\n      dup3\n      add\n      mload\n      dup2\n      dup5\n      add\n      mstore\n      0x20\n      dup2\n      add\n      swap1\n      pop\n      jump(tag_158)\n    tag_160:\n      pop\n      pop\n      pop\n      pop\n      swap1\n      pop\n      swap1\n      dup2\n      add\n      swap1\n      0x1f\n      and\n      dup1\n      iszero\n      tag_161\n      jumpi\n      dup1\n      dup3\n      sub\n      dup1\n      mload\n      0x01\n      dup4\n      0x20\n      sub\n      0x0100\n      exp\n      sub\n      not\n      and\n      dup2\n      mstore\n      0x20\n      add\n      swap2\n      pop\n    tag_161:\n      pop\n      swap3\n      pop\n      pop\n      pop\n      mload(0x40)\n      dup1\n      swap2\n      sub\n      swap1\n      revert\n    tag_157:\n      pop\n        /* \"scalable-dex/contracts/src/starkex/StarkExchange.sol\":2577:2578  0 */\n      0x00\n        /* \"scalable-dex/contracts/src/starkex/StarkExchange.sol\":2558:2573  orderTreeHeight */\n      sload(0x10)\n        /* \"scalable-dex/contracts/src/starkex/StarkExchange.sol\":2558:2578  orderTreeHeight == 0 */\n      eq\n        /* \"scalable-dex/contracts/src/starkex/StarkExchange.sol\":2580:2590  REVERT_MSG */\n      dup2\n        /* \"scalable-dex/contracts/src/starkex/StarkExchange.sol\":2550:2591  require(orderTreeHeight == 0, REVERT_MSG) */\n      swap1\n      tag_162\n      jumpi\n      mload(0x40)\n      0x08c379a000000000000000000000000000000000000000000000000000000000\n      dup2\n      mstore\n      0x04\n      add\n      dup1\n      dup1\n      0x20\n      add\n      dup3\n      dup2\n      sub\n      dup3\n      mstore\n      dup4\n      dup2\n      dup2\n      mload\n      dup2\n      mstore\n      0x20\n      add\n      swap2\n      pop\n      dup1\n      mload\n      swap1\n      0x20\n      add\n      swap1\n      dup1\n      dup4\n      dup4\n      0x00\n    tag_163:\n      dup4\n      dup2\n      lt\n      iszero\n      tag_165\n      jumpi\n      dup1\n      dup3\n      add\n      mload\n      dup2\n      dup5\n      add\n      mstore\n      0x20\n      dup2\n      add\n      swap1\n      pop\n      jump(tag_163)\n    tag_165:\n      pop\n      pop\n      pop\n      pop\n      swap1\n      pop\n      swap1\n      dup2\n      add\n      swap1\n      0x1f\n      and\n      dup1\n      iszero\n      tag_166\n      jumpi\n      dup1\n      dup3\n      sub\n      dup1\n      mload\n      0x01\n      dup4\n      0x20\n      sub\n      0x0100\n      exp\n      sub\n      not\n      and\n      dup2\n      mstore\n      0x20\n      add\n      swap2\n      pop\n    tag_166:\n      pop\n      swap3\n      pop\n      pop\n      pop\n      mload(0x40)\n      dup1\n      swap2\n      sub\n      swap1\n      revert\n    tag_162:\n      pop\n        /* \"scalable-dex/contracts/src/starkex/StarkExchange.sol\":2144:2598  function initializationSentinel() internal view override {... */\n      pop\n      jump\t// out\n        /* \"scalable-dex/contracts/src/starkex/StarkExchange.sol\":1477:2138  function expectedIdByIndex(uint256 index) internal pure override returns (string memory id) {... */\n    tag_117:\n        /* \"scalable-dex/contracts/src/starkex/StarkExchange.sol\":1551:1567  string memory id */\n      0x60\n        /* \"scalable-dex/contracts/src/starkex/StarkExchange.sol\":1592:1593  1 */\n      0x01\n        /* \"scalable-dex/contracts/src/starkex/StarkExchange.sol\":1583:1588  index */\n      dup3\n        /* \"scalable-dex/contracts/src/starkex/StarkExchange.sol\":1583:1593  index == 1 */\n      eq\n        /* \"scalable-dex/contracts/src/starkex/StarkExchange.sol\":1579:2132  if (index == 1) {... */\n      iszero\n      tag_168\n      jumpi\n        /* \"scalable-dex/contracts/src/starkex/StarkExchange.sol\":1609:1645  id = \"StarkWare_AllVerifiers_2020_1\" */\n      mload(0x40)\n      dup1\n      0x40\n      add\n      0x40\n      mstore\n      dup1\n      0x1d\n      dup2\n      mstore\n      0x20\n      add\n      0x537461726b576172655f416c6c5665726966696572735f323032305f31000000\n      dup2\n      mstore\n      pop\n      swap1\n      pop\n        /* \"scalable-dex/contracts/src/starkex/StarkExchange.sol\":1579:2132  if (index == 1) {... */\n      jump(tag_169)\n    tag_168:\n        /* \"scalable-dex/contracts/src/starkex/StarkExchange.sol\":1675:1676  2 */\n      0x02\n        /* \"scalable-dex/contracts/src/starkex/StarkExchange.sol\":1666:1671  index */\n      dup3\n        /* \"scalable-dex/contracts/src/starkex/StarkExchange.sol\":1666:1676  index == 2 */\n      eq\n        /* \"scalable-dex/contracts/src/starkex/StarkExchange.sol\":1662:2132  if (index == 2) {... */\n      iszero\n      tag_170\n      jumpi\n        /* \"scalable-dex/contracts/src/starkex/StarkExchange.sol\":1692:1732  id = \"StarkWare_TokensAndRamping_2020_1\" */\n      mload(0x40)\n      dup1\n      0x60\n      add\n      0x40\n      mstore\n      dup1\n      0x21\n      dup2\n      mstore\n      0x20\n      add\n      data_a807a291c1b020dc15db775821c6fd4a17ed2a5ebbd6aa293217b5d0f23d7ec1\n      0x21\n      swap2\n      codecopy\n      swap1\n      pop\n        /* \"scalable-dex/contracts/src/starkex/StarkExchange.sol\":1662:2132  if (index == 2) {... */\n      jump(tag_171)\n    tag_170:\n        /* \"scalable-dex/contracts/src/starkex/StarkExchange.sol\":1762:1763  3 */\n      0x03\n        /* \"scalable-dex/contracts/src/starkex/StarkExchange.sol\":1753:1758  index */\n      dup3\n        /* \"scalable-dex/contracts/src/starkex/StarkExchange.sol\":1753:1763  index == 3 */\n      eq\n        /* \"scalable-dex/contracts/src/starkex/StarkExchange.sol\":1749:2132  if (index == 3) {... */\n      iszero\n      tag_172\n      jumpi\n        /* \"scalable-dex/contracts/src/starkex/StarkExchange.sol\":1779:1815  id = \"StarkWare_StarkExState_2021_1\" */\n      mload(0x40)\n      dup1\n      0x40\n      add\n      0x40\n      mstore\n      dup1\n      0x1d\n      dup2\n      mstore\n      0x20\n      add\n      0x537461726b576172655f537461726b457853746174655f323032315f31000000\n      dup2\n      mstore\n      pop\n      swap1\n      pop\n        /* \"scalable-dex/contracts/src/starkex/StarkExchange.sol\":1749:2132  if (index == 3) {... */\n      jump(tag_173)\n    tag_172:\n        /* \"scalable-dex/contracts/src/starkex/StarkExchange.sol\":1845:1846  4 */\n      0x04\n        /* \"scalable-dex/contracts/src/starkex/StarkExchange.sol\":1836:1841  index */\n      dup3\n        /* \"scalable-dex/contracts/src/starkex/StarkExchange.sol\":1836:1846  index == 4 */\n      eq\n        /* \"scalable-dex/contracts/src/starkex/StarkExchange.sol\":1832:2132  if (index == 4) {... */\n      iszero\n      tag_174\n      jumpi\n        /* \"scalable-dex/contracts/src/starkex/StarkExchange.sol\":1862:1899  id = \"StarkWare_ForcedActions_2020_1\" */\n      mload(0x40)\n      dup1\n      0x40\n      add\n      0x40\n      mstore\n      dup1\n      0x1e\n      dup2\n      mstore\n      0x20\n      add\n      0x537461726b576172655f466f72636564416374696f6e735f323032305f310000\n      dup2\n      mstore\n      pop\n      swap1\n      pop\n        /* \"scalable-dex/contracts/src/starkex/StarkExchange.sol\":1832:2132  if (index == 4) {... */\n      jump(tag_175)\n    tag_174:\n        /* \"scalable-dex/contracts/src/starkex/StarkExchange.sol\":1929:1930  5 */\n      0x05\n        /* \"scalable-dex/contracts/src/starkex/StarkExchange.sol\":1920:1925  index */\n      dup3\n        /* \"scalable-dex/contracts/src/starkex/StarkExchange.sol\":1920:1930  index == 5 */\n      eq\n        /* \"scalable-dex/contracts/src/starkex/StarkExchange.sol\":1916:2132  if (index == 5) {... */\n      iszero\n      tag_176\n      jumpi\n        /* \"scalable-dex/contracts/src/starkex/StarkExchange.sol\":1946:1983  id = \"StarkWare_OnchainVaults_2021_1\" */\n      mload(0x40)\n      dup1\n      0x40\n      add\n      0x40\n      mstore\n      dup1\n      0x1e\n      dup2\n      mstore\n      0x20\n      add\n      0x537461726b576172655f4f6e636861696e5661756c74735f323032315f310000\n      dup2\n      mstore\n      pop\n      swap1\n      pop\n        /* \"scalable-dex/contracts/src/starkex/StarkExchange.sol\":1916:2132  if (index == 5) {... */\n      jump(tag_177)\n    tag_176:\n        /* \"scalable-dex/contracts/src/starkex/StarkExchange.sol\":2013:2014  6 */\n      0x06\n        /* \"scalable-dex/contracts/src/starkex/StarkExchange.sol\":2004:2009  index */\n      dup3\n        /* \"scalable-dex/contracts/src/starkex/StarkExchange.sol\":2004:2014  index == 6 */\n      eq\n        /* \"scalable-dex/contracts/src/starkex/StarkExchange.sol\":2000:2132  if (index == 6) {... */\n      iszero\n      tag_178\n      jumpi\n        /* \"scalable-dex/contracts/src/starkex/StarkExchange.sol\":2030:2064  id = \"StarkWare_ProxyUtils_2021_1\" */\n      mload(0x40)\n      dup1\n      0x40\n      add\n      0x40\n      mstore\n      dup1\n      0x1b\n      dup2\n      mstore\n      0x20\n      add\n      0x537461726b576172655f50726f78795574696c735f323032315f310000000000\n      dup2\n      mstore\n      pop\n      swap1\n      pop\n        /* \"scalable-dex/contracts/src/starkex/StarkExchange.sol\":2000:2132  if (index == 6) {... */\n      jump(tag_179)\n    tag_178:\n        /* \"scalable-dex/contracts/src/starkex/StarkExchange.sol\":2095:2121  revert(\"UNEXPECTED_INDEX\") */\n      mload(0x40)\n      0x08c379a000000000000000000000000000000000000000000000000000000000\n      dup2\n      mstore\n      0x04\n      add\n      dup1\n      dup1\n      0x20\n      add\n      dup3\n      dup2\n      sub\n      dup3\n      mstore\n      0x10\n      dup2\n      mstore\n      0x20\n      add\n      dup1\n      0x554e45585045435445445f494e44455800000000000000000000000000000000\n      dup2\n      mstore\n      pop\n      0x20\n      add\n      swap2\n      pop\n      pop\n      mload(0x40)\n      dup1\n      swap2\n      sub\n      swap1\n      revert\n        /* \"scalable-dex/contracts/src/starkex/StarkExchange.sol\":2000:2132  if (index == 6) {... */\n    tag_179:\n        /* \"scalable-dex/contracts/src/starkex/StarkExchange.sol\":1916:2132  if (index == 5) {... */\n    tag_177:\n        /* \"scalable-dex/contracts/src/starkex/StarkExchange.sol\":1832:2132  if (index == 4) {... */\n    tag_175:\n        /* \"scalable-dex/contracts/src/starkex/StarkExchange.sol\":1749:2132  if (index == 3) {... */\n    tag_173:\n        /* \"scalable-dex/contracts/src/starkex/StarkExchange.sol\":1662:2132  if (index == 2) {... */\n    tag_171:\n        /* \"scalable-dex/contracts/src/starkex/StarkExchange.sol\":1579:2132  if (index == 1) {... */\n    tag_169:\n        /* \"scalable-dex/contracts/src/starkex/StarkExchange.sol\":1477:2138  function expectedIdByIndex(uint256 index) internal pure override returns (string memory id) {... */\n      swap2\n      swap1\n      pop\n      jump\t// out\n        /* \"scalable-dex/contracts/src/libraries/Common.sol\":161:351  function isContract(address account) internal view returns (bool) {... */\n    tag_128:\n        /* \"scalable-dex/contracts/src/libraries/Common.sol\":221:225  bool */\n      0x00\n        /* \"scalable-dex/contracts/src/libraries/Common.sol\":237:249  uint256 size */\n      dup1\n        /* \"scalable-dex/contracts/src/libraries/Common.sol\":302:309  account */\n      dup3\n        /* \"scalable-dex/contracts/src/libraries/Common.sol\":290:310  extcodesize(account) */\n      extcodesize\n        /* \"scalable-dex/contracts/src/libraries/Common.sol\":282:310  size := extcodesize(account) */\n      swap1\n      pop\n        /* \"scalable-dex/contracts/src/libraries/Common.sol\":343:344  0 */\n      0x00\n        /* \"scalable-dex/contracts/src/libraries/Common.sol\":336:340  size */\n      dup2\n        /* \"scalable-dex/contracts/src/libraries/Common.sol\":336:344  size > 0 */\n      gt\n        /* \"scalable-dex/contracts/src/libraries/Common.sol\":329:344  return size > 0 */\n      swap2\n      pop\n      pop\n        /* \"scalable-dex/contracts/src/libraries/Common.sol\":161:351  function isContract(address account) internal view returns (bool) {... */\n      swap2\n      swap1\n      pop\n      jump\t// out\n        /* \"--CODEGEN--\":5:323   */\n    tag_45:\n      0x00\n      dup1\n        /* \"--CODEGEN--\":155:163   */\n      dup6\n        /* \"--CODEGEN--\":143:153   */\n      dup6\n        /* \"--CODEGEN--\":140:164   */\n      gt\n        /* \"--CODEGEN--\":137:139   */\n      iszero\n      tag_183\n      jumpi\n        /* \"--CODEGEN--\":177:178   */\n      0x00\n        /* \"--CODEGEN--\":174:175   */\n      dup1\n        /* \"--CODEGEN--\":167:179   */\n      revert\n        /* \"--CODEGEN--\":137:139   */\n    tag_183:\n        /* \"--CODEGEN--\":202:208   */\n      dup4\n        /* \"--CODEGEN--\":192:200   */\n      dup7\n        /* \"--CODEGEN--\":189:209   */\n      gt\n        /* \"--CODEGEN--\":186:188   */\n      iszero\n      tag_184\n      jumpi\n        /* \"--CODEGEN--\":222:223   */\n      0x00\n        /* \"--CODEGEN--\":219:220   */\n      dup1\n        /* \"--CODEGEN--\":212:224   */\n      revert\n        /* \"--CODEGEN--\":186:188   */\n    tag_184:\n        /* \"--CODEGEN--\":272:273   */\n      0x01\n        /* \"--CODEGEN--\":260:270   */\n      dup6\n        /* \"--CODEGEN--\":256:274   */\n      mul\n        /* \"--CODEGEN--\":248:254   */\n      dup4\n        /* \"--CODEGEN--\":244:275   */\n      add\n        /* \"--CODEGEN--\":231:275   */\n      swap2\n      pop\n        /* \"--CODEGEN--\":307:317   */\n      dup5\n        /* \"--CODEGEN--\":297:305   */\n      dup7\n        /* \"--CODEGEN--\":293:318   */\n      sub\n        /* \"--CODEGEN--\":280:318   */\n      swap1\n      pop\n        /* \"--CODEGEN--\":131:323   */\n      swap5\n      pop\n      swap5\n      swap3\n      pop\n      pop\n      pop\n      jump\t// out\n    stop\n    data_6be999353f67f128d478ed42b42d0bd68b138e501adf00a1911a331bf658849a 4d4953504c414345445f494e4445585f4f525f4241445f434f4e54524143545f4944\n    data_a807a291c1b020dc15db775821c6fd4a17ed2a5ebbd6aa293217b5d0f23d7ec1 537461726b576172655f546f6b656e73416e6452616d70696e675f323032305f31\n\n    auxdata: 0xa26469706673582212205e18af344d84ed68d253da47ebbe4ece29148021dcbde0580a5b59d8fde6a6f864736f6c634300060c0033\n}\n",
				"bytecode": {
					"linkReferences": {},
					"object": "60a060405234801561001057600080fd5b50600030425a604051602001808473ffffffffffffffffffffffffffffffffffffffff16815260200183815260200182815260200193505050506040516020818303038152906040528051906020012090508060808181525050602a815550608051611a176100896000398061037c5250611a176000f3fe60806040526004361061002d5760003560e01c8063439fab911461019a578063ffa1ad7414610220576100a0565b366100a0576040517f08c379a00000000000000000000000000000000000000000000000000000000081526004018080602001828103825260208152602001807f434f4e54524143545f4e4f545f45585045435445445f544f5f5245434549564581525060200191505060405180910390fd5b60006100cf6000357fffffffff00000000000000000000000000000000000000000000000000000000166102b0565b9050600073ffffffffffffffffffffffffffffffffffffffff168173ffffffffffffffffffffffffffffffffffffffff161415610174576040517f08c379a00000000000000000000000000000000000000000000000000000000081526004018080602001828103825260188152602001807f4e4f5f434f4e54524143545f464f525f46554e4354494f4e000000000000000081525060200191505060405180910390fd5b3660008037600080366000845af43d6000803e8060008114610195573d6000f35b3d6000fd5b3480156101a657600080fd5b5061021e600480360360208110156101bd57600080fd5b81019080803590602001906401000000008111156101da57600080fd5b8201836020820111156101ec57600080fd5b8035906020019184600183028401116401000000008311171561020e57600080fd5b9091929391929390505050610377565b005b34801561022c57600080fd5b50610235610cb1565b6040518080602001828103825283818151815260200191508051906020019080838360005b8381101561027557808201518184015260208101905061025a565b50505050905090810190601f1680156102a25780820380516001836020036101000a031916815260200191505b509250505060405180910390f35b600080826102bc610cea565b60405160200180837bffffffffffffffffffffffffffffffffffffffffffffffffffffffff19168152600401828152602001925050506040516020818303038152906040528051906020012060001c60ff169050600080610100836004028161032157fe5b069050600f81610334600686901c610cf4565b901c169150601e600083815260200190815260200160002060009054906101000a900473ffffffffffffffffffffffffffffffffffffffff169350505050919050565b6000807f000000000000000000000000000000000000000000000000000000000000000090508054915060008214610417576040517f08c379a00000000000000000000000000000000000000000000000000000000081526004018080602001828103825260168152602001807f4449524543545f43414c4c5f444953414c4c4f5745440000000000000000000081525060200191505060405180910390fd5b50506000610423610e2b565b9050600f81111561049c576040517f08c379a00000000000000000000000000000000000000000000000000000000081526004018080602001828103825260168152602001807f544f4f5f4d414e595f5355425f434f4e5452414354530000000000000000000081525060200191505060405180910390fd5b60008060018301602002905080858590501015610521576040517f08c379a000000000000000000000000000000000000000000000000000000000815260040180806020018281038252601a8152602001807f5355425f434f4e5452414354535f4e4f545f50524f564944454400000000000081525060200191505060405180910390fd5b600081868690500390506000600190505b8481116105af5760008787600184036020029084602002926105569392919061196b565b602081101561056457600080fd5b81019080803573ffffffffffffffffffffffffffffffffffffffff16906020019092919050505090506105978282610e34565b6105a182826110c4565b508080600101915050610532565b5060008686602085039085926105c79392919061196b565b60208110156105d557600080fd5b81019080803573ffffffffffffffffffffffffffffffffffffffff1690602001909291905050509050600073ffffffffffffffffffffffffffffffffffffffff168173ffffffffffffffffffffffffffffffffffffffff16146106575761064d818888869080926106489392919061196b565b61111a565b5050505050610cad565b600082141561066a575050505050610cad565b600073ffffffffffffffffffffffffffffffffffffffff168173ffffffffffffffffffffffffffffffffffffffff16146106a057fe5b6106a8611462565b6000600190505b858111610c315760008888600184036020029084602002926106d39392919061196b565b60208110156106e157600080fd5b81019080803573ffffffffffffffffffffffffffffffffffffffff1690602001909291905050509050600060608273ffffffffffffffffffffffffffffffffffffffff16633cc660ad60e01b604051602401604051602081830303815290604052907bffffffffffffffffffffffffffffffffffffffffffffffffffffffff19166020820180517bffffffffffffffffffffffffffffffffffffffffffffffffffffffff83818316178352505050506040518082805190602001908083835b602083106107c357805182526020820191506020810190506020830392506107a0565b6001836020036101000a038019825116818451168082178552505050505050905001915050600060405180830381855af49150503d8060008114610823576040519150601f19603f3d011682016040523d82523d6000602084013e610828565b606091505b50915091508181906108d5576040517f08c379a00000000000000000000000000000000000000000000000000000000081526004018080602001828103825283818151815260200191508051906020019080838360005b8381101561089a57808201518184015260208101905061087f565b50505050905090810190601f1680156108c75780820380516001836020036101000a031916815260200191505b509250505060405180910390fd5b5060008180602001905160208110156108ed57600080fd5b8101908080519060200190929190505050905086811115610976576040517f08c379a00000000000000000000000000000000000000000000000000000000081526004018080602001828103825260188152602001807f494e56414c49445f494e495449414c495a45525f53495a45000000000000000081525060200191505060405180910390fd5b86818a0111156109ee576040517f08c379a00000000000000000000000000000000000000000000000000000000081526004018080602001828103825260188152602001807f494e56414c49445f494e495449414c495a45525f53495a45000000000000000081525060200191505060405180910390fd5b6000811415610a005750505050610c24565b8373ffffffffffffffffffffffffffffffffffffffff1663439fab9160e01b8d8d8b90858d0192610a339392919061196b565b60405160240180806020018281038252848482818152602001925080828437600081840152601f19601f8201169050808301925050509350505050604051602081830303815290604052907bffffffffffffffffffffffffffffffffffffffffffffffffffffffff19166020820180517bffffffffffffffffffffffffffffffffffffffffffffffffffffffff83818316178352505050506040518082805190602001908083835b60208310610afe5780518252602082019150602081019050602083039250610adb565b6001836020036101000a038019825116818451168082178552505050505050905001915050600060405180830381855af49150503d8060008114610b5e576040519150601f19603f3d011682016040523d82523d6000602084013e610b63565b606091505b508093508194505050828290610c14576040517f08c379a00000000000000000000000000000000000000000000000000000000081526004018080602001828103825283818151815260200191508051906020019080838360005b83811015610bd9578082015181840152602081019050610bbe565b50505050905090810190601f168015610c065780820380516001836020036101000a031916815260200191505b509250505060405180910390fd5b5080890198508088019750505050505b80806001019150506106af565b50838214610ca7576040517f08c379a000000000000000000000000000000000000000000000000000000000815260040180806020018281038252601a8152602001807f4d49534d41544348494e475f494e49545f444154415f53495a4500000000000081525060200191505060405180910390fd5b50505050505b5050565b6040518060400160405280600581526020017f342e302e3100000000000000000000000000000000000000000000000000000081525081565b600061b41e905090565b600080821415610d25577e300061000500050120001020020000012000000100011005002000000000209050610e26565b6001821415610d56577f01200001050000005012000001205020000002004520050002020020305000039050610e26565b6002821415610d87577f10200000000030200005022030003000002000000000010001003300102200019050610e26565b6003821415610db8577f02002302000203000014012000000001000200112000000020200000100003019050610e26565b6040517f08c379a00000000000000000000000000000000000000000000000000000000081526004018080602001828103825260138152602001807f4241445f4944585f4d41505f53454354494f4e0000000000000000000000000081525060200191505060405180910390fd5b919050565b60006006905090565b60608173ffffffffffffffffffffffffffffffffffffffff1663eeb728666040518163ffffffff1660e01b815260040160006040518083038186803b158015610e7c57600080fd5b505afa158015610e90573d6000803e3d6000fd5b505050506040513d6000823e3d601f19601f820116820180604052506020811015610eba57600080fd5b8101908080516040519392919084640100000000821115610eda57600080fd5b83820191506020820185811115610ef057600080fd5b8251866001820283011164010000000082111715610f0d57600080fd5b8083526020830192505050908051906020019080838360005b83811015610f41578082015181840152602081019050610f26565b50505050905090810190601f168015610f6e5780820380516001836020036101000a031916815260200191505b5060405250505090506000610f8284611757565b6040516020018082805190602001908083835b60208310610fb85780518252602082019150602081019050602083039250610f95565b6001836020036101000a038019825116818451168082178552505050505050905001915050604051602081830303815290604052805190602001209050816040516020018082805190602001908083835b6020831061102c5780518252602082019150602081019050602083039250611009565b6001836020036101000a0380198251168184511680821785525050505050509050019150506040516020818303038152906040528051906020012081146110be576040517f08c379a000000000000000000000000000000000000000000000000000000000815260040180806020018281038252602281526020018061199f6022913960400191505060405180910390fd5b50505050565b80601e600084815260200190815260200160002060006101000a81548173ffffffffffffffffffffffffffffffffffffffff021916908373ffffffffffffffffffffffffffffffffffffffff1602179055505050565b6111398373ffffffffffffffffffffffffffffffffffffffff16611958565b6111ab576040517f08c379a000000000000000000000000000000000000000000000000000000000815260040180806020018281038252600e8152602001807f4e4f545f415f434f4e545241435400000000000000000000000000000000000081525060200191505060405180910390fd5b600060608473ffffffffffffffffffffffffffffffffffffffff1663439fab9160e01b858560405160240180806020018281038252848482818152602001925080828437600081840152601f19601f8201169050808301925050509350505050604051602081830303815290604052907bffffffffffffffffffffffffffffffffffffffffffffffffffffffff19166020820180517bffffffffffffffffffffffffffffffffffffffffffffffffffffffff83818316178352505050506040518082805190602001908083835b6020831061129b5780518252602082019150602081019050602083039250611278565b6001836020036101000a038019825116818451168082178552505050505050905001915050600060405180830381855af49150503d80600081146112fb576040519150601f19603f3d011682016040523d82523d6000602084013e611300565b606091505b50915091508181906113ad576040517f08c379a00000000000000000000000000000000000000000000000000000000081526004018080602001828103825283818151815260200191508051906020019080838360005b83811015611372578082015181840152602081019050611357565b50505050905090810190601f16801561139f5780820380516001836020036101000a031916815260200191505b509250505060405180910390fd5b506000815114819061145a576040517f08c379a00000000000000000000000000000000000000000000000000000000081526004018080602001828103825283818151815260200191508051906020019080838360005b8381101561141f578082015181840152602081019050611404565b50505050905090810190601f16801561144c5780820380516001836020036101000a031916815260200191505b509250505060405180910390fd5b505050505050565b60606040518060400160405280601681526020017f494e495449414c495a4154494f4e5f424c4f434b45440000000000000000000081525090506000600d54148190611549576040517f08c379a00000000000000000000000000000000000000000000000000000000081526004018080602001828103825283818151815260200191508051906020019080838360005b8381101561150e5780820151818401526020810190506114f3565b50505050905090810190601f16801561153b5780820380516001836020036101000a031916815260200191505b509250505060405180910390fd5b506000600e541481906115f7576040517f08c379a00000000000000000000000000000000000000000000000000000000081526004018080602001828103825283818151815260200191508051906020019080838360005b838110156115bc5780820151818401526020810190506115a1565b50505050905090810190601f1680156115e95780820380516001836020036101000a031916815260200191505b509250505060405180910390fd5b506000600f541481906116a5576040517f08c379a00000000000000000000000000000000000000000000000000000000081526004018080602001828103825283818151815260200191508051906020019080838360005b8381101561166a57808201518184015260208101905061164f565b50505050905090810190601f1680156116975780820380516001836020036101000a031916815260200191505b509250505060405180910390fd5b506000601054148190611753576040517f08c379a00000000000000000000000000000000000000000000000000000000081526004018080602001828103825283818151815260200191508051906020019080838360005b838110156117185780820151818401526020810190506116fd565b50505050905090810190601f1680156117455780820380516001836020036101000a031916815260200191505b509250505060405180910390fd5b5050565b6060600182141561179f576040518060400160405280601d81526020017f537461726b576172655f416c6c5665726966696572735f323032305f310000008152509050611953565b60028214156117c8576040518060600160405280602181526020016119c1602191399050611952565b600382141561180e576040518060400160405280601d81526020017f537461726b576172655f537461726b457853746174655f323032315f310000008152509050611951565b6004821415611854576040518060400160405280601e81526020017f537461726b576172655f466f72636564416374696f6e735f323032305f3100008152509050611950565b600582141561189a576040518060400160405280601e81526020017f537461726b576172655f4f6e636861696e5661756c74735f323032315f310000815250905061194f565b60068214156118e0576040518060400160405280601b81526020017f537461726b576172655f50726f78795574696c735f323032315f310000000000815250905061194e565b6040517f08c379a00000000000000000000000000000000000000000000000000000000081526004018080602001828103825260108152602001807f554e45585045435445445f494e4445580000000000000000000000000000000081525060200191505060405180910390fd5b5b5b5b5b5b919050565b600080823b905060008111915050919050565b6000808585111561197b57600080fd5b8386111561198857600080fd5b600185028301915084860390509450949250505056fe4d4953504c414345445f494e4445585f4f525f4241445f434f4e54524143545f4944537461726b576172655f546f6b656e73416e6452616d70696e675f323032305f31a26469706673582212205e18af344d84ed68d253da47ebbe4ece29148021dcbde0580a5b59d8fde6a6f864736f6c634300060c0033",
					"opcodes": "PUSH1 0xA0 PUSH1 0x40 MSTORE CALLVALUE DUP1 ISZERO PUSH2 0x10 JUMPI PUSH1 0x0 DUP1 REVERT JUMPDEST POP PUSH1 0x0 ADDRESS TIMESTAMP GAS PUSH1 0x40 MLOAD PUSH1 0x20 ADD DUP1 DUP5 PUSH20 0xFFFFFFFFFFFFFFFFFFFFFFFFFFFFFFFFFFFFFFFF AND DUP2 MSTORE PUSH1 0x20 ADD DUP4 DUP2 MSTORE PUSH1 0x20 ADD DUP3 DUP2 MSTORE PUSH1 0x20 ADD SWAP4 POP POP POP POP PUSH1 0x40 MLOAD PUSH1 0x20 DUP2 DUP4 SUB SUB DUP2 MSTORE SWAP1 PUSH1 0x40 MSTORE DUP1 MLOAD SWAP1 PUSH1 0x20 ADD KECCAK256 SWAP1 POP DUP1 PUSH1 0x80 DUP2 DUP2 MSTORE POP POP PUSH1 0x2A DUP2 SSTORE POP PUSH1 0x80 MLOAD PUSH2 0x1A17 PUSH2 0x89 PUSH1 0x0 CODECOPY DUP1 PUSH2 0x37C MSTORE POP PUSH2 0x1A17 PUSH1 0x0 RETURN INVALID PUSH1 0x80 PUSH1 0x40 MSTORE PUSH1 0x4 CALLDATASIZE LT PUSH2 0x2D JUMPI PUSH1 0x0 CALLDATALOAD PUSH1 0xE0 SHR DUP1 PUSH4 0x439FAB91 EQ PUSH2 0x19A JUMPI DUP1 PUSH4 0xFFA1AD74 EQ PUSH2 0x220 JUMPI PUSH2 0xA0 JUMP JUMPDEST CALLDATASIZE PUSH2 0xA0 JUMPI PUSH1 0x40 MLOAD PUSH32 0x8C379A000000000000000000000000000000000000000000000000000000000 DUP2 MSTORE PUSH1 0x4 ADD DUP1 DUP1 PUSH1 0x20 ADD DUP3 DUP2 SUB DUP3 MSTORE PUSH1 0x20 DUP2 MSTORE PUSH1 0x20 ADD DUP1 PUSH32 0x434F4E54524143545F4E4F545F45585045435445445F544F5F52454345495645 DUP2 MSTORE POP PUSH1 0x20 ADD SWAP2 POP POP PUSH1 0x40 MLOAD DUP1 SWAP2 SUB SWAP1 REVERT JUMPDEST PUSH1 0x0 PUSH2 0xCF PUSH1 0x0 CALLDATALOAD PUSH32 0xFFFFFFFF00000000000000000000000000000000000000000000000000000000 AND PUSH2 0x2B0 JUMP JUMPDEST SWAP1 POP PUSH1 0x0 PUSH20 0xFFFFFFFFFFFFFFFFFFFFFFFFFFFFFFFFFFFFFFFF AND DUP2 PUSH20 0xFFFFFFFFFFFFFFFFFFFFFFFFFFFFFFFFFFFFFFFF AND EQ ISZERO PUSH2 0x174 JUMPI PUSH1 0x40 MLOAD PUSH32 0x8C379A000000000000000000000000000000000000000000000000000000000 DUP2 MSTORE PUSH1 0x4 ADD DUP1 DUP1 PUSH1 0x20 ADD DUP3 DUP2 SUB DUP3 MSTORE PUSH1 0x18 DUP2 MSTORE PUSH1 0x20 ADD DUP1 PUSH32 0x4E4F5F434F4E54524143545F464F525F46554E4354494F4E0000000000000000 DUP2 MSTORE POP PUSH1 0x20 ADD SWAP2 POP POP PUSH1 0x40 MLOAD DUP1 SWAP2 SUB SWAP1 REVERT JUMPDEST CALLDATASIZE PUSH1 0x0 DUP1 CALLDATACOPY PUSH1 0x0 DUP1 CALLDATASIZE PUSH1 0x0 DUP5 GAS DELEGATECALL RETURNDATASIZE PUSH1 0x0 DUP1 RETURNDATACOPY DUP1 PUSH1 0x0 DUP2 EQ PUSH2 0x195 JUMPI RETURNDATASIZE PUSH1 0x0 RETURN JUMPDEST RETURNDATASIZE PUSH1 0x0 REVERT JUMPDEST CALLVALUE DUP1 ISZERO PUSH2 0x1A6 JUMPI PUSH1 0x0 DUP1 REVERT JUMPDEST POP PUSH2 0x21E PUSH1 0x4 DUP1 CALLDATASIZE SUB PUSH1 0x20 DUP2 LT ISZERO PUSH2 0x1BD JUMPI PUSH1 0x0 DUP1 REVERT JUMPDEST DUP2 ADD SWAP1 DUP1 DUP1 CALLDATALOAD SWAP1 PUSH1 0x20 ADD SWAP1 PUSH5 0x100000000 DUP2 GT ISZERO PUSH2 0x1DA JUMPI PUSH1 0x0 DUP1 REVERT JUMPDEST DUP3 ADD DUP4 PUSH1 0x20 DUP3 ADD GT ISZERO PUSH2 0x1EC JUMPI PUSH1 0x0 DUP1 REVERT JUMPDEST DUP1 CALLDATALOAD SWAP1 PUSH1 0x20 ADD SWAP2 DUP5 PUSH1 0x1 DUP4 MUL DUP5 ADD GT PUSH5 0x100000000 DUP4 GT OR ISZERO PUSH2 0x20E JUMPI PUSH1 0x0 DUP1 REVERT JUMPDEST SWAP1 SWAP2 SWAP3 SWAP4 SWAP2 SWAP3 SWAP4 SWAP1 POP POP POP PUSH2 0x377 JUMP JUMPDEST STOP JUMPDEST CALLVALUE DUP1 ISZERO PUSH2 0x22C JUMPI PUSH1 0x0 DUP1 REVERT JUMPDEST POP PUSH2 0x235 PUSH2 0xCB1 JUMP JUMPDEST PUSH1 0x40 MLOAD DUP1 DUP1 PUSH1 0x20 ADD DUP3 DUP2 SUB DUP3 MSTORE DUP4 DUP2 DUP2 MLOAD DUP2 MSTORE PUSH1 0x20 ADD SWAP2 POP DUP1 MLOAD SWAP1 PUSH1 0x20 ADD SWAP1 DUP1 DUP4 DUP4 PUSH1 0x0 JUMPDEST DUP4 DUP2 LT ISZERO PUSH2 0x275 JUMPI DUP1 DUP3 ADD MLOAD DUP2 DUP5 ADD MSTORE PUSH1 0x20 DUP2 ADD SWAP1 POP PUSH2 0x25A JUMP JUMPDEST POP POP POP POP SWAP1 POP SWAP1 DUP2 ADD SWAP1 PUSH1 0x1F AND DUP1 ISZERO PUSH2 0x2A2 JUMPI DUP1 DUP3 SUB DUP1 MLOAD PUSH1 0x1 DUP4 PUSH1 0x20 SUB PUSH2 0x100 EXP SUB NOT AND DUP2 MSTORE PUSH1 0x20 ADD SWAP2 POP JUMPDEST POP SWAP3 POP POP POP PUSH1 0x40 MLOAD DUP1 SWAP2 SUB SWAP1 RETURN JUMPDEST PUSH1 0x0 DUP1 DUP3 PUSH2 0x2BC PUSH2 0xCEA JUMP JUMPDEST PUSH1 0x40 MLOAD PUSH1 0x20 ADD DUP1 DUP4 PUSH28 0xFFFFFFFFFFFFFFFFFFFFFFFFFFFFFFFFFFFFFFFFFFFFFFFFFFFFFFFF NOT AND DUP2 MSTORE PUSH1 0x4 ADD DUP3 DUP2 MSTORE PUSH1 0x20 ADD SWAP3 POP POP POP PUSH1 0x40 MLOAD PUSH1 0x20 DUP2 DUP4 SUB SUB DUP2 MSTORE SWAP1 PUSH1 0x40 MSTORE DUP1 MLOAD SWAP1 PUSH1 0x20 ADD KECCAK256 PUSH1 0x0 SHR PUSH1 0xFF AND SWAP1 POP PUSH1 0x0 DUP1 PUSH2 0x100 DUP4 PUSH1 0x4 MUL DUP2 PUSH2 0x321 JUMPI INVALID JUMPDEST MOD SWAP1 POP PUSH1 0xF DUP2 PUSH2 0x334 PUSH1 0x6 DUP7 SWAP1 SHR PUSH2 0xCF4 JUMP JUMPDEST SWAP1 SHR AND SWAP2 POP PUSH1 0x1E PUSH1 0x0 DUP4 DUP2 MSTORE PUSH1 0x20 ADD SWAP1 DUP2 MSTORE PUSH1 0x20 ADD PUSH1 0x0 KECCAK256 PUSH1 0x0 SWAP1 SLOAD SWAP1 PUSH2 0x100 EXP SWAP1 DIV PUSH20 0xFFFFFFFFFFFFFFFFFFFFFFFFFFFFFFFFFFFFFFFF AND SWAP4 POP POP POP POP SWAP2 SWAP1 POP JUMP JUMPDEST PUSH1 0x0 DUP1 PUSH32 0x0 SWAP1 POP DUP1 SLOAD SWAP2 POP PUSH1 0x0 DUP3 EQ PUSH2 0x417 JUMPI PUSH1 0x40 MLOAD PUSH32 0x8C379A000000000000000000000000000000000000000000000000000000000 DUP2 MSTORE PUSH1 0x4 ADD DUP1 DUP1 PUSH1 0x20 ADD DUP3 DUP2 SUB DUP3 MSTORE PUSH1 0x16 DUP2 MSTORE PUSH1 0x20 ADD DUP1 PUSH32 0x4449524543545F43414C4C5F444953414C4C4F57454400000000000000000000 DUP2 MSTORE POP PUSH1 0x20 ADD SWAP2 POP POP PUSH1 0x40 MLOAD DUP1 SWAP2 SUB SWAP1 REVERT JUMPDEST POP POP PUSH1 0x0 PUSH2 0x423 PUSH2 0xE2B JUMP JUMPDEST SWAP1 POP PUSH1 0xF DUP2 GT ISZERO PUSH2 0x49C JUMPI PUSH1 0x40 MLOAD PUSH32 0x8C379A000000000000000000000000000000000000000000000000000000000 DUP2 MSTORE PUSH1 0x4 ADD DUP1 DUP1 PUSH1 0x20 ADD DUP3 DUP2 SUB DUP3 MSTORE PUSH1 0x16 DUP2 MSTORE PUSH1 0x20 ADD DUP1 PUSH32 0x544F4F5F4D414E595F5355425F434F4E54524143545300000000000000000000 DUP2 MSTORE POP PUSH1 0x20 ADD SWAP2 POP POP PUSH1 0x40 MLOAD DUP1 SWAP2 SUB SWAP1 REVERT JUMPDEST PUSH1 0x0 DUP1 PUSH1 0x1 DUP4 ADD PUSH1 0x20 MUL SWAP1 POP DUP1 DUP6 DUP6 SWAP1 POP LT ISZERO PUSH2 0x521 JUMPI PUSH1 0x40 MLOAD PUSH32 0x8C379A000000000000000000000000000000000000000000000000000000000 DUP2 MSTORE PUSH1 0x4 ADD DUP1 DUP1 PUSH1 0x20 ADD DUP3 DUP2 SUB DUP3 MSTORE PUSH1 0x1A DUP2 MSTORE PUSH1 0x20 ADD DUP1 PUSH32 0x5355425F434F4E5452414354535F4E4F545F50524F5649444544000000000000 DUP2 MSTORE POP PUSH1 0x20 ADD SWAP2 POP POP PUSH1 0x40 MLOAD DUP1 SWAP2 SUB SWAP1 REVERT JUMPDEST PUSH1 0x0 DUP2 DUP7 DUP7 SWAP1 POP SUB SWAP1 POP PUSH1 0x0 PUSH1 0x1 SWAP1 POP JUMPDEST DUP5 DUP2 GT PUSH2 0x5AF JUMPI PUSH1 0x0 DUP8 DUP8 PUSH1 0x1 DUP5 SUB PUSH1 0x20 MUL SWAP1 DUP5 PUSH1 0x20 MUL SWAP3 PUSH2 0x556 SWAP4 SWAP3 SWAP2 SWAP1 PUSH2 0x196B JUMP JUMPDEST PUSH1 0x20 DUP2 LT ISZERO PUSH2 0x564 JUMPI PUSH1 0x0 DUP1 REVERT JUMPDEST DUP2 ADD SWAP1 DUP1 DUP1 CALLDATALOAD PUSH20 0xFFFFFFFFFFFFFFFFFFFFFFFFFFFFFFFFFFFFFFFF AND SWAP1 PUSH1 0x20 ADD SWAP1 SWAP3 SWAP2 SWAP1 POP POP POP SWAP1 POP PUSH2 0x597 DUP3 DUP3 PUSH2 0xE34 JUMP JUMPDEST PUSH2 0x5A1 DUP3 DUP3 PUSH2 0x10C4 JUMP JUMPDEST POP DUP1 DUP1 PUSH1 0x1 ADD SWAP2 POP POP PUSH2 0x532 JUMP JUMPDEST POP PUSH1 0x0 DUP7 DUP7 PUSH1 0x20 DUP6 SUB SWAP1 DUP6 SWAP3 PUSH2 0x5C7 SWAP4 SWAP3 SWAP2 SWAP1 PUSH2 0x196B JUMP JUMPDEST PUSH1 0x20 DUP2 LT ISZERO PUSH2 0x5D5 JUMPI PUSH1 0x0 DUP1 REVERT JUMPDEST DUP2 ADD SWAP1 DUP1 DUP1 CALLDATALOAD PUSH20 0xFFFFFFFFFFFFFFFFFFFFFFFFFFFFFFFFFFFFFFFF AND SWAP1 PUSH1 0x20 ADD SWAP1 SWAP3 SWAP2 SWAP1 POP POP POP SWAP1 POP PUSH1 0x0 PUSH20 0xFFFFFFFFFFFFFFFFFFFFFFFFFFFFFFFFFFFFFFFF AND DUP2 PUSH20 0xFFFFFFFFFFFFFFFFFFFFFFFFFFFFFFFFFFFFFFFF AND EQ PUSH2 0x657 JUMPI PUSH2 0x64D DUP2 DUP9 DUP9 DUP7 SWAP1 DUP1 SWAP3 PUSH2 0x648 SWAP4 SWAP3 SWAP2 SWAP1 PUSH2 0x196B JUMP JUMPDEST PUSH2 0x111A JUMP JUMPDEST POP POP POP POP POP PUSH2 0xCAD JUMP JUMPDEST PUSH1 0x0 DUP3 EQ ISZERO PUSH2 0x66A JUMPI POP POP POP POP POP PUSH2 0xCAD JUMP JUMPDEST PUSH1 0x0 PUSH20 0xFFFFFFFFFFFFFFFFFFFFFFFFFFFFFFFFFFFFFFFF AND DUP2 PUSH20 0xFFFFFFFFFFFFFFFFFFFFFFFFFFFFFFFFFFFFFFFF AND EQ PUSH2 0x6A0 JUMPI INVALID JUMPDEST PUSH2 0x6A8 PUSH2 0x1462 JUMP JUMPDEST PUSH1 0x0 PUSH1 0x1 SWAP1 POP JUMPDEST DUP6 DUP2 GT PUSH2 0xC31 JUMPI PUSH1 0x0 DUP9 DUP9 PUSH1 0x1 DUP5 SUB PUSH1 0x20 MUL SWAP1 DUP5 PUSH1 0x20 MUL SWAP3 PUSH2 0x6D3 SWAP4 SWAP3 SWAP2 SWAP1 PUSH2 0x196B JUMP JUMPDEST PUSH1 0x20 DUP2 LT ISZERO PUSH2 0x6E1 JUMPI PUSH1 0x0 DUP1 REVERT JUMPDEST DUP2 ADD SWAP1 DUP1 DUP1 CALLDATALOAD PUSH20 0xFFFFFFFFFFFFFFFFFFFFFFFFFFFFFFFFFFFFFFFF AND SWAP1 PUSH1 0x20 ADD SWAP1 SWAP3 SWAP2 SWAP1 POP POP POP SWAP1 POP PUSH1 0x0 PUSH1 0x60 DUP3 PUSH20 0xFFFFFFFFFFFFFFFFFFFFFFFFFFFFFFFFFFFFFFFF AND PUSH4 0x3CC660AD PUSH1 0xE0 SHL PUSH1 0x40 MLOAD PUSH1 0x24 ADD PUSH1 0x40 MLOAD PUSH1 0x20 DUP2 DUP4 SUB SUB DUP2 MSTORE SWAP1 PUSH1 0x40 MSTORE SWAP1 PUSH28 0xFFFFFFFFFFFFFFFFFFFFFFFFFFFFFFFFFFFFFFFFFFFFFFFFFFFFFFFF NOT AND PUSH1 0x20 DUP3 ADD DUP1 MLOAD PUSH28 0xFFFFFFFFFFFFFFFFFFFFFFFFFFFFFFFFFFFFFFFFFFFFFFFFFFFFFFFF DUP4 DUP2 DUP4 AND OR DUP4 MSTORE POP POP POP POP PUSH1 0x40 MLOAD DUP1 DUP3 DUP1 MLOAD SWAP1 PUSH1 0x20 ADD SWAP1 DUP1 DUP4 DUP4 JUMPDEST PUSH1 0x20 DUP4 LT PUSH2 0x7C3 JUMPI DUP1 MLOAD DUP3 MSTORE PUSH1 0x20 DUP3 ADD SWAP2 POP PUSH1 0x20 DUP2 ADD SWAP1 POP PUSH1 0x20 DUP4 SUB SWAP3 POP PUSH2 0x7A0 JUMP JUMPDEST PUSH1 0x1 DUP4 PUSH1 0x20 SUB PUSH2 0x100 EXP SUB DUP1 NOT DUP3 MLOAD AND DUP2 DUP5 MLOAD AND DUP1 DUP3 OR DUP6 MSTORE POP POP POP POP POP POP SWAP1 POP ADD SWAP2 POP POP PUSH1 0x0 PUSH1 0x40 MLOAD DUP1 DUP4 SUB DUP2 DUP6 GAS DELEGATECALL SWAP2 POP POP RETURNDATASIZE DUP1 PUSH1 0x0 DUP2 EQ PUSH2 0x823 JUMPI PUSH1 0x40 MLOAD SWAP2 POP PUSH1 0x1F NOT PUSH1 0x3F RETURNDATASIZE ADD AND DUP3 ADD PUSH1 0x40 MSTORE RETURNDATASIZE DUP3 MSTORE RETURNDATASIZE PUSH1 0x0 PUSH1 0x20 DUP5 ADD RETURNDATACOPY PUSH2 0x828 JUMP JUMPDEST PUSH1 0x60 SWAP2 POP JUMPDEST POP SWAP2 POP SWAP2 POP DUP2 DUP2 SWAP1 PUSH2 0x8D5 JUMPI PUSH1 0x40 MLOAD PUSH32 0x8C379A000000000000000000000000000000000000000000000000000000000 DUP2 MSTORE PUSH1 0x4 ADD DUP1 DUP1 PUSH1 0x20 ADD DUP3 DUP2 SUB DUP3 MSTORE DUP4 DUP2 DUP2 MLOAD DUP2 MSTORE PUSH1 0x20 ADD SWAP2 POP DUP1 MLOAD SWAP1 PUSH1 0x20 ADD SWAP1 DUP1 DUP4 DUP4 PUSH1 0x0 JUMPDEST DUP4 DUP2 LT ISZERO PUSH2 0x89A JUMPI DUP1 DUP3 ADD MLOAD DUP2 DUP5 ADD MSTORE PUSH1 0x20 DUP2 ADD SWAP1 POP PUSH2 0x87F JUMP JUMPDEST POP POP POP POP SWAP1 POP SWAP1 DUP2 ADD SWAP1 PUSH1 0x1F AND DUP1 ISZERO PUSH2 0x8C7 JUMPI DUP1 DUP3 SUB DUP1 MLOAD PUSH1 0x1 DUP4 PUSH1 0x20 SUB PUSH2 0x100 EXP SUB NOT AND DUP2 MSTORE PUSH1 0x20 ADD SWAP2 POP JUMPDEST POP SWAP3 POP POP POP PUSH1 0x40 MLOAD DUP1 SWAP2 SUB SWAP1 REVERT JUMPDEST POP PUSH1 0x0 DUP2 DUP1 PUSH1 0x20 ADD SWAP1 MLOAD PUSH1 0x20 DUP2 LT ISZERO PUSH2 0x8ED JUMPI PUSH1 0x0 DUP1 REVERT JUMPDEST DUP2 ADD SWAP1 DUP1 DUP1 MLOAD SWAP1 PUSH1 0x20 ADD SWAP1 SWAP3 SWAP2 SWAP1 POP POP POP SWAP1 POP DUP7 DUP2 GT ISZERO PUSH2 0x976 JUMPI PUSH1 0x40 MLOAD PUSH32 0x8C379A000000000000000000000000000000000000000000000000000000000 DUP2 MSTORE PUSH1 0x4 ADD DUP1 DUP1 PUSH1 0x20 ADD DUP3 DUP2 SUB DUP3 MSTORE PUSH1 0x18 DUP2 MSTORE PUSH1 0x20 ADD DUP1 PUSH32 0x494E56414C49445F494E495449414C495A45525F53495A450000000000000000 DUP2 MSTORE POP PUSH1 0x20 ADD SWAP2 POP POP PUSH1 0x40 MLOAD DUP1 SWAP2 SUB SWAP1 REVERT JUMPDEST DUP7 DUP2 DUP11 ADD GT ISZERO PUSH2 0x9EE JUMPI PUSH1 0x40 MLOAD PUSH32 0x8C379A000000000000000000000000000000000000000000000000000000000 DUP2 MSTORE PUSH1 0x4 ADD DUP1 DUP1 PUSH1 0x20 ADD DUP3 DUP2 SUB DUP3 MSTORE PUSH1 0x18 DUP2 MSTORE PUSH1 0x20 ADD DUP1 PUSH32 0x494E56414C49445F494E495449414C495A45525F53495A450000000000000000 DUP2 MSTORE POP PUSH1 0x20 ADD SWAP2 POP POP PUSH1 0x40 MLOAD DUP1 SWAP2 SUB SWAP1 REVERT JUMPDEST PUSH1 0x0 DUP2 EQ ISZERO PUSH2 0xA00 JUMPI POP POP POP POP PUSH2 0xC24 JUMP JUMPDEST DUP4 PUSH20 0xFFFFFFFFFFFFFFFFFFFFFFFFFFFFFFFFFFFFFFFF AND PUSH4 0x439FAB91 PUSH1 0xE0 SHL DUP14 DUP14 DUP12 SWAP1 DUP6 DUP14 ADD SWAP3 PUSH2 0xA33 SWAP4 SWAP3 SWAP2 SWAP1 PUSH2 0x196B JUMP JUMPDEST PUSH1 0x40 MLOAD PUSH1 0x24 ADD DUP1 DUP1 PUSH1 0x20 ADD DUP3 DUP2 SUB DUP3 MSTORE DUP5 DUP5 DUP3 DUP2 DUP2 MSTORE PUSH1 0x20 ADD SWAP3 POP DUP1 DUP3 DUP5 CALLDATACOPY PUSH1 0x0 DUP2 DUP5 ADD MSTORE PUSH1 0x1F NOT PUSH1 0x1F DUP3 ADD AND SWAP1 POP DUP1 DUP4 ADD SWAP3 POP POP POP SWAP4 POP POP POP POP PUSH1 0x40 MLOAD PUSH1 0x20 DUP2 DUP4 SUB SUB DUP2 MSTORE SWAP1 PUSH1 0x40 MSTORE SWAP1 PUSH28 0xFFFFFFFFFFFFFFFFFFFFFFFFFFFFFFFFFFFFFFFFFFFFFFFFFFFFFFFF NOT AND PUSH1 0x20 DUP3 ADD DUP1 MLOAD PUSH28 0xFFFFFFFFFFFFFFFFFFFFFFFFFFFFFFFFFFFFFFFFFFFFFFFFFFFFFFFF DUP4 DUP2 DUP4 AND OR DUP4 MSTORE POP POP POP POP PUSH1 0x40 MLOAD DUP1 DUP3 DUP1 MLOAD SWAP1 PUSH1 0x20 ADD SWAP1 DUP1 DUP4 DUP4 JUMPDEST PUSH1 0x20 DUP4 LT PUSH2 0xAFE JUMPI DUP1 MLOAD DUP3 MSTORE PUSH1 0x20 DUP3 ADD SWAP2 POP PUSH1 0x20 DUP2 ADD SWAP1 POP PUSH1 0x20 DUP4 SUB SWAP3 POP PUSH2 0xADB JUMP JUMPDEST PUSH1 0x1 DUP4 PUSH1 0x20 SUB PUSH2 0x100 EXP SUB DUP1 NOT DUP3 MLOAD AND DUP2 DUP5 MLOAD AND DUP1 DUP3 OR DUP6 MSTORE POP POP POP POP POP POP SWAP1 POP ADD SWAP2 POP POP PUSH1 0x0 PUSH1 0x40 MLOAD DUP1 DUP4 SUB DUP2 DUP6 GAS DELEGATECALL SWAP2 POP POP RETURNDATASIZE DUP1 PUSH1 0x0 DUP2 EQ PUSH2 0xB5E JUMPI PUSH1 0x40 MLOAD SWAP2 POP PUSH1 0x1F NOT PUSH1 0x3F RETURNDATASIZE ADD AND DUP3 ADD PUSH1 0x40 MSTORE RETURNDATASIZE DUP3 MSTORE RETURNDATASIZE PUSH1 0x0 PUSH1 0x20 DUP5 ADD RETURNDATACOPY PUSH2 0xB63 JUMP JUMPDEST PUSH1 0x60 SWAP2 POP JUMPDEST POP DUP1 SWAP4 POP DUP2 SWAP5 POP POP POP DUP3 DUP3 SWAP1 PUSH2 0xC14 JUMPI PUSH1 0x40 MLOAD PUSH32 0x8C379A000000000000000000000000000000000000000000000000000000000 DUP2 MSTORE PUSH1 0x4 ADD DUP1 DUP1 PUSH1 0x20 ADD DUP3 DUP2 SUB DUP3 MSTORE DUP4 DUP2 DUP2 MLOAD DUP2 MSTORE PUSH1 0x20 ADD SWAP2 POP DUP1 MLOAD SWAP1 PUSH1 0x20 ADD SWAP1 DUP1 DUP4 DUP4 PUSH1 0x0 JUMPDEST DUP4 DUP2 LT ISZERO PUSH2 0xBD9 JUMPI DUP1 DUP3 ADD MLOAD DUP2 DUP5 ADD MSTORE PUSH1 0x20 DUP2 ADD SWAP1 POP PUSH2 0xBBE JUMP JUMPDEST POP POP POP POP SWAP1 POP SWAP1 DUP2 ADD SWAP1 PUSH1 0x1F AND DUP1 ISZERO PUSH2 0xC06 JUMPI DUP1 DUP3 SUB DUP1 MLOAD PUSH1 0x1 DUP4 PUSH1 0x20 SUB PUSH2 0x100 EXP SUB NOT AND DUP2 MSTORE PUSH1 0x20 ADD SWAP2 POP JUMPDEST POP SWAP3 POP POP POP PUSH1 0x40 MLOAD DUP1 SWAP2 SUB SWAP1 REVERT JUMPDEST POP DUP1 DUP10 ADD SWAP9 POP DUP1 DUP9 ADD SWAP8 POP POP POP POP POP JUMPDEST DUP1 DUP1 PUSH1 0x1 ADD SWAP2 POP POP PUSH2 0x6AF JUMP JUMPDEST POP DUP4 DUP3 EQ PUSH2 0xCA7 JUMPI PUSH1 0x40 MLOAD PUSH32 0x8C379A000000000000000000000000000000000000000000000000000000000 DUP2 MSTORE PUSH1 0x4 ADD DUP1 DUP1 PUSH1 0x20 ADD DUP3 DUP2 SUB DUP3 MSTORE PUSH1 0x1A DUP2 MSTORE PUSH1 0x20 ADD DUP1 PUSH32 0x4D49534D41544348494E475F494E49545F444154415F53495A45000000000000 DUP2 MSTORE POP PUSH1 0x20 ADD SWAP2 POP POP PUSH1 0x40 MLOAD DUP1 SWAP2 SUB SWAP1 REVERT JUMPDEST POP POP POP POP POP JUMPDEST POP POP JUMP JUMPDEST PUSH1 0x40 MLOAD DUP1 PUSH1 0x40 ADD PUSH1 0x40 MSTORE DUP1 PUSH1 0x5 DUP2 MSTORE PUSH1 0x20 ADD PUSH32 0x342E302E31000000000000000000000000000000000000000000000000000000 DUP2 MSTORE POP DUP2 JUMP JUMPDEST PUSH1 0x0 PUSH2 0xB41E SWAP1 POP SWAP1 JUMP JUMPDEST PUSH1 0x0 DUP1 DUP3 EQ ISZERO PUSH2 0xD25 JUMPI PUSH31 0x30006100050005012000102002000001200000010001100500200000000020 SWAP1 POP PUSH2 0xE26 JUMP JUMPDEST PUSH1 0x1 DUP3 EQ ISZERO PUSH2 0xD56 JUMPI PUSH32 0x120000105000000501200000120502000000200452005000202002030500003 SWAP1 POP PUSH2 0xE26 JUMP JUMPDEST PUSH1 0x2 DUP3 EQ ISZERO PUSH2 0xD87 JUMPI PUSH32 0x1020000000003020000502203000300000200000000001000100330010220001 SWAP1 POP PUSH2 0xE26 JUMP JUMPDEST PUSH1 0x3 DUP3 EQ ISZERO PUSH2 0xDB8 JUMPI PUSH32 0x200230200020300001401200000000100020011200000002020000010000301 SWAP1 POP PUSH2 0xE26 JUMP JUMPDEST PUSH1 0x40 MLOAD PUSH32 0x8C379A000000000000000000000000000000000000000000000000000000000 DUP2 MSTORE PUSH1 0x4 ADD DUP1 DUP1 PUSH1 0x20 ADD DUP3 DUP2 SUB DUP3 MSTORE PUSH1 0x13 DUP2 MSTORE PUSH1 0x20 ADD DUP1 PUSH32 0x4241445F4944585F4D41505F53454354494F4E00000000000000000000000000 DUP2 MSTORE POP PUSH1 0x20 ADD SWAP2 POP POP PUSH1 0x40 MLOAD DUP1 SWAP2 SUB SWAP1 REVERT JUMPDEST SWAP2 SWAP1 POP JUMP JUMPDEST PUSH1 0x0 PUSH1 0x6 SWAP1 POP SWAP1 JUMP JUMPDEST PUSH1 0x60 DUP2 PUSH20 0xFFFFFFFFFFFFFFFFFFFFFFFFFFFFFFFFFFFFFFFF AND PUSH4 0xEEB72866 PUSH1 0x40 MLOAD DUP2 PUSH4 0xFFFFFFFF AND PUSH1 0xE0 SHL DUP2 MSTORE PUSH1 0x4 ADD PUSH1 0x0 PUSH1 0x40 MLOAD DUP1 DUP4 SUB DUP2 DUP7 DUP1 EXTCODESIZE ISZERO DUP1 ISZERO PUSH2 0xE7C JUMPI PUSH1 0x0 DUP1 REVERT JUMPDEST POP GAS STATICCALL ISZERO DUP1 ISZERO PUSH2 0xE90 JUMPI RETURNDATASIZE PUSH1 0x0 DUP1 RETURNDATACOPY RETURNDATASIZE PUSH1 0x0 REVERT JUMPDEST POP POP POP POP PUSH1 0x40 MLOAD RETURNDATASIZE PUSH1 0x0 DUP3 RETURNDATACOPY RETURNDATASIZE PUSH1 0x1F NOT PUSH1 0x1F DUP3 ADD AND DUP3 ADD DUP1 PUSH1 0x40 MSTORE POP PUSH1 0x20 DUP2 LT ISZERO PUSH2 0xEBA JUMPI PUSH1 0x0 DUP1 REVERT JUMPDEST DUP2 ADD SWAP1 DUP1 DUP1 MLOAD PUSH1 0x40 MLOAD SWAP4 SWAP3 SWAP2 SWAP1 DUP5 PUSH5 0x100000000 DUP3 GT ISZERO PUSH2 0xEDA JUMPI PUSH1 0x0 DUP1 REVERT JUMPDEST DUP4 DUP3 ADD SWAP2 POP PUSH1 0x20 DUP3 ADD DUP6 DUP2 GT ISZERO PUSH2 0xEF0 JUMPI PUSH1 0x0 DUP1 REVERT JUMPDEST DUP3 MLOAD DUP7 PUSH1 0x1 DUP3 MUL DUP4 ADD GT PUSH5 0x100000000 DUP3 GT OR ISZERO PUSH2 0xF0D JUMPI PUSH1 0x0 DUP1 REVERT JUMPDEST DUP1 DUP4 MSTORE PUSH1 0x20 DUP4 ADD SWAP3 POP POP POP SWAP1 DUP1 MLOAD SWAP1 PUSH1 0x20 ADD SWAP1 DUP1 DUP4 DUP4 PUSH1 0x0 JUMPDEST DUP4 DUP2 LT ISZERO PUSH2 0xF41 JUMPI DUP1 DUP3 ADD MLOAD DUP2 DUP5 ADD MSTORE PUSH1 0x20 DUP2 ADD SWAP1 POP PUSH2 0xF26 JUMP JUMPDEST POP POP POP POP SWAP1 POP SWAP1 DUP2 ADD SWAP1 PUSH1 0x1F AND DUP1 ISZERO PUSH2 0xF6E JUMPI DUP1 DUP3 SUB DUP1 MLOAD PUSH1 0x1 DUP4 PUSH1 0x20 SUB PUSH2 0x100 EXP SUB NOT AND DUP2 MSTORE PUSH1 0x20 ADD SWAP2 POP JUMPDEST POP PUSH1 0x40 MSTORE POP POP POP SWAP1 POP PUSH1 0x0 PUSH2 0xF82 DUP5 PUSH2 0x1757 JUMP JUMPDEST PUSH1 0x40 MLOAD PUSH1 0x20 ADD DUP1 DUP3 DUP1 MLOAD SWAP1 PUSH1 0x20 ADD SWAP1 DUP1 DUP4 DUP4 JUMPDEST PUSH1 0x20 DUP4 LT PUSH2 0xFB8 JUMPI DUP1 MLOAD DUP3 MSTORE PUSH1 0x20 DUP3 ADD SWAP2 POP PUSH1 0x20 DUP2 ADD SWAP1 POP PUSH1 0x20 DUP4 SUB SWAP3 POP PUSH2 0xF95 JUMP JUMPDEST PUSH1 0x1 DUP4 PUSH1 0x20 SUB PUSH2 0x100 EXP SUB DUP1 NOT DUP3 MLOAD AND DUP2 DUP5 MLOAD AND DUP1 DUP3 OR DUP6 MSTORE POP POP POP POP POP POP SWAP1 POP ADD SWAP2 POP POP PUSH1 0x40 MLOAD PUSH1 0x20 DUP2 DUP4 SUB SUB DUP2 MSTORE SWAP1 PUSH1 0x40 MSTORE DUP1 MLOAD SWAP1 PUSH1 0x20 ADD KECCAK256 SWAP1 POP DUP2 PUSH1 0x40 MLOAD PUSH1 0x20 ADD DUP1 DUP3 DUP1 MLOAD SWAP1 PUSH1 0x20 ADD SWAP1 DUP1 DUP4 DUP4 JUMPDEST PUSH1 0x20 DUP4 LT PUSH2 0x102C JUMPI DUP1 MLOAD DUP3 MSTORE PUSH1 0x20 DUP3 ADD SWAP2 POP PUSH1 0x20 DUP2 ADD SWAP1 POP PUSH1 0x20 DUP4 SUB SWAP3 POP PUSH2 0x1009 JUMP JUMPDEST PUSH1 0x1 DUP4 PUSH1 0x20 SUB PUSH2 0x100 EXP SUB DUP1 NOT DUP3 MLOAD AND DUP2 DUP5 MLOAD AND DUP1 DUP3 OR DUP6 MSTORE POP POP POP POP POP POP SWAP1 POP ADD SWAP2 POP POP PUSH1 0x40 MLOAD PUSH1 0x20 DUP2 DUP4 SUB SUB DUP2 MSTORE SWAP1 PUSH1 0x40 MSTORE DUP1 MLOAD SWAP1 PUSH1 0x20 ADD KECCAK256 DUP2 EQ PUSH2 0x10BE JUMPI PUSH1 0x40 MLOAD PUSH32 0x8C379A000000000000000000000000000000000000000000000000000000000 DUP2 MSTORE PUSH1 0x4 ADD DUP1 DUP1 PUSH1 0x20 ADD DUP3 DUP2 SUB DUP3 MSTORE PUSH1 0x22 DUP2 MSTORE PUSH1 0x20 ADD DUP1 PUSH2 0x199F PUSH1 0x22 SWAP2 CODECOPY PUSH1 0x40 ADD SWAP2 POP POP PUSH1 0x40 MLOAD DUP1 SWAP2 SUB SWAP1 REVERT JUMPDEST POP POP POP POP JUMP JUMPDEST DUP1 PUSH1 0x1E PUSH1 0x0 DUP5 DUP2 MSTORE PUSH1 0x20 ADD SWAP1 DUP2 MSTORE PUSH1 0x20 ADD PUSH1 0x0 KECCAK256 PUSH1 0x0 PUSH2 0x100 EXP DUP2 SLOAD DUP2 PUSH20 0xFFFFFFFFFFFFFFFFFFFFFFFFFFFFFFFFFFFFFFFF MUL NOT AND SWAP1 DUP4 PUSH20 0xFFFFFFFFFFFFFFFFFFFFFFFFFFFFFFFFFFFFFFFF AND MUL OR SWAP1 SSTORE POP POP POP JUMP JUMPDEST PUSH2 0x1139 DUP4 PUSH20 0xFFFFFFFFFFFFFFFFFFFFFFFFFFFFFFFFFFFFFFFF AND PUSH2 0x1958 JUMP JUMPDEST PUSH2 0x11AB JUMPI PUSH1 0x40 MLOAD PUSH32 0x8C379A000000000000000000000000000000000000000000000000000000000 DUP2 MSTORE PUSH1 0x4 ADD DUP1 DUP1 PUSH1 0x20 ADD DUP3 DUP2 SUB DUP3 MSTORE PUSH1 0xE DUP2 MSTORE PUSH1 0x20 ADD DUP1 PUSH32 0x4E4F545F415F434F4E5452414354000000000000000000000000000000000000 DUP2 MSTORE POP PUSH1 0x20 ADD SWAP2 POP POP PUSH1 0x40 MLOAD DUP1 SWAP2 SUB SWAP1 REVERT JUMPDEST PUSH1 0x0 PUSH1 0x60 DUP5 PUSH20 0xFFFFFFFFFFFFFFFFFFFFFFFFFFFFFFFFFFFFFFFF AND PUSH4 0x439FAB91 PUSH1 0xE0 SHL DUP6 DUP6 PUSH1 0x40 MLOAD PUSH1 0x24 ADD DUP1 DUP1 PUSH1 0x20 ADD DUP3 DUP2 SUB DUP3 MSTORE DUP5 DUP5 DUP3 DUP2 DUP2 MSTORE PUSH1 0x20 ADD SWAP3 POP DUP1 DUP3 DUP5 CALLDATACOPY PUSH1 0x0 DUP2 DUP5 ADD MSTORE PUSH1 0x1F NOT PUSH1 0x1F DUP3 ADD AND SWAP1 POP DUP1 DUP4 ADD SWAP3 POP POP POP SWAP4 POP POP POP POP PUSH1 0x40 MLOAD PUSH1 0x20 DUP2 DUP4 SUB SUB DUP2 MSTORE SWAP1 PUSH1 0x40 MSTORE SWAP1 PUSH28 0xFFFFFFFFFFFFFFFFFFFFFFFFFFFFFFFFFFFFFFFFFFFFFFFFFFFFFFFF NOT AND PUSH1 0x20 DUP3 ADD DUP1 MLOAD PUSH28 0xFFFFFFFFFFFFFFFFFFFFFFFFFFFFFFFFFFFFFFFFFFFFFFFFFFFFFFFF DUP4 DUP2 DUP4 AND OR DUP4 MSTORE POP POP POP POP PUSH1 0x40 MLOAD DUP1 DUP3 DUP1 MLOAD SWAP1 PUSH1 0x20 ADD SWAP1 DUP1 DUP4 DUP4 JUMPDEST PUSH1 0x20 DUP4 LT PUSH2 0x129B JUMPI DUP1 MLOAD DUP3 MSTORE PUSH1 0x20 DUP3 ADD SWAP2 POP PUSH1 0x20 DUP2 ADD SWAP1 POP PUSH1 0x20 DUP4 SUB SWAP3 POP PUSH2 0x1278 JUMP JUMPDEST PUSH1 0x1 DUP4 PUSH1 0x20 SUB PUSH2 0x100 EXP SUB DUP1 NOT DUP3 MLOAD AND DUP2 DUP5 MLOAD AND DUP1 DUP3 OR DUP6 MSTORE POP POP POP POP POP POP SWAP1 POP ADD SWAP2 POP POP PUSH1 0x0 PUSH1 0x40 MLOAD DUP1 DUP4 SUB DUP2 DUP6 GAS DELEGATECALL SWAP2 POP POP RETURNDATASIZE DUP1 PUSH1 0x0 DUP2 EQ PUSH2 0x12FB JUMPI PUSH1 0x40 MLOAD SWAP2 POP PUSH1 0x1F NOT PUSH1 0x3F RETURNDATASIZE ADD AND DUP3 ADD PUSH1 0x40 MSTORE RETURNDATASIZE DUP3 MSTORE RETURNDATASIZE PUSH1 0x0 PUSH1 0x20 DUP5 ADD RETURNDATACOPY PUSH2 0x1300 JUMP JUMPDEST PUSH1 0x60 SWAP2 POP JUMPDEST POP SWAP2 POP SWAP2 POP DUP2 DUP2 SWAP1 PUSH2 0x13AD JUMPI PUSH1 0x40 MLOAD PUSH32 0x8C379A000000000000000000000000000000000000000000000000000000000 DUP2 MSTORE PUSH1 0x4 ADD DUP1 DUP1 PUSH1 0x20 ADD DUP3 DUP2 SUB DUP3 MSTORE DUP4 DUP2 DUP2 MLOAD DUP2 MSTORE PUSH1 0x20 ADD SWAP2 POP DUP1 MLOAD SWAP1 PUSH1 0x20 ADD SWAP1 DUP1 DUP4 DUP4 PUSH1 0x0 JUMPDEST DUP4 DUP2 LT ISZERO PUSH2 0x1372 JUMPI DUP1 DUP3 ADD MLOAD DUP2 DUP5 ADD MSTORE PUSH1 0x20 DUP2 ADD SWAP1 POP PUSH2 0x1357 JUMP JUMPDEST POP POP POP POP SWAP1 POP SWAP1 DUP2 ADD SWAP1 PUSH1 0x1F AND DUP1 ISZERO PUSH2 0x139F JUMPI DUP1 DUP3 SUB DUP1 MLOAD PUSH1 0x1 DUP4 PUSH1 0x20 SUB PUSH2 0x100 EXP SUB NOT AND DUP2 MSTORE PUSH1 0x20 ADD SWAP2 POP JUMPDEST POP SWAP3 POP POP POP PUSH1 0x40 MLOAD DUP1 SWAP2 SUB SWAP1 REVERT JUMPDEST POP PUSH1 0x0 DUP2 MLOAD EQ DUP2 SWAP1 PUSH2 0x145A JUMPI PUSH1 0x40 MLOAD PUSH32 0x8C379A000000000000000000000000000000000000000000000000000000000 DUP2 MSTORE PUSH1 0x4 ADD DUP1 DUP1 PUSH1 0x20 ADD DUP3 DUP2 SUB DUP3 MSTORE DUP4 DUP2 DUP2 MLOAD DUP2 MSTORE PUSH1 0x20 ADD SWAP2 POP DUP1 MLOAD SWAP1 PUSH1 0x20 ADD SWAP1 DUP1 DUP4 DUP4 PUSH1 0x0 JUMPDEST DUP4 DUP2 LT ISZERO PUSH2 0x141F JUMPI DUP1 DUP3 ADD MLOAD DUP2 DUP5 ADD MSTORE PUSH1 0x20 DUP2 ADD SWAP1 POP PUSH2 0x1404 JUMP JUMPDEST POP POP POP POP SWAP1 POP SWAP1 DUP2 ADD SWAP1 PUSH1 0x1F AND DUP1 ISZERO PUSH2 0x144C JUMPI DUP1 DUP3 SUB DUP1 MLOAD PUSH1 0x1 DUP4 PUSH1 0x20 SUB PUSH2 0x100 EXP SUB NOT AND DUP2 MSTORE PUSH1 0x20 ADD SWAP2 POP JUMPDEST POP SWAP3 POP POP POP PUSH1 0x40 MLOAD DUP1 SWAP2 SUB SWAP1 REVERT JUMPDEST POP POP POP POP POP POP JUMP JUMPDEST PUSH1 0x60 PUSH1 0x40 MLOAD DUP1 PUSH1 0x40 ADD PUSH1 0x40 MSTORE DUP1 PUSH1 0x16 DUP2 MSTORE PUSH1 0x20 ADD PUSH32 0x494E495449414C495A4154494F4E5F424C4F434B454400000000000000000000 DUP2 MSTORE POP SWAP1 POP PUSH1 0x0 PUSH1 0xD SLOAD EQ DUP2 SWAP1 PUSH2 0x1549 JUMPI PUSH1 0x40 MLOAD PUSH32 0x8C379A000000000000000000000000000000000000000000000000000000000 DUP2 MSTORE PUSH1 0x4 ADD DUP1 DUP1 PUSH1 0x20 ADD DUP3 DUP2 SUB DUP3 MSTORE DUP4 DUP2 DUP2 MLOAD DUP2 MSTORE PUSH1 0x20 ADD SWAP2 POP DUP1 MLOAD SWAP1 PUSH1 0x20 ADD SWAP1 DUP1 DUP4 DUP4 PUSH1 0x0 JUMPDEST DUP4 DUP2 LT ISZERO PUSH2 0x150E JUMPI DUP1 DUP3 ADD MLOAD DUP2 DUP5 ADD MSTORE PUSH1 0x20 DUP2 ADD SWAP1 POP PUSH2 0x14F3 JUMP JUMPDEST POP POP POP POP SWAP1 POP SWAP1 DUP2 ADD SWAP1 PUSH1 0x1F AND DUP1 ISZERO PUSH2 0x153B JUMPI DUP1 DUP3 SUB DUP1 MLOAD PUSH1 0x1 DUP4 PUSH1 0x20 SUB PUSH2 0x100 EXP SUB NOT AND DUP2 MSTORE PUSH1 0x20 ADD SWAP2 POP JUMPDEST POP SWAP3 POP POP POP PUSH1 0x40 MLOAD DUP1 SWAP2 SUB SWAP1 REVERT JUMPDEST POP PUSH1 0x0 PUSH1 0xE SLOAD EQ DUP2 SWAP1 PUSH2 0x15F7 JUMPI PUSH1 0x40 MLOAD PUSH32 0x8C379A000000000000000000000000000000000000000000000000000000000 DUP2 MSTORE PUSH1 0x4 ADD DUP1 DUP1 PUSH1 0x20 ADD DUP3 DUP2 SUB DUP3 MSTORE DUP4 DUP2 DUP2 MLOAD DUP2 MSTORE PUSH1 0x20 ADD SWAP2 POP DUP1 MLOAD SWAP1 PUSH1 0x20 ADD SWAP1 DUP1 DUP4 DUP4 PUSH1 0x0 JUMPDEST DUP4 DUP2 LT ISZERO PUSH2 0x15BC JUMPI DUP1 DUP3 ADD MLOAD DUP2 DUP5 ADD MSTORE PUSH1 0x20 DUP2 ADD SWAP1 POP PUSH2 0x15A1 JUMP JUMPDEST POP POP POP POP SWAP1 POP SWAP1 DUP2 ADD SWAP1 PUSH1 0x1F AND DUP1 ISZERO PUSH2 0x15E9 JUMPI DUP1 DUP3 SUB DUP1 MLOAD PUSH1 0x1 DUP4 PUSH1 0x20 SUB PUSH2 0x100 EXP SUB NOT AND DUP2 MSTORE PUSH1 0x20 ADD SWAP2 POP JUMPDEST POP SWAP3 POP POP POP PUSH1 0x40 MLOAD DUP1 SWAP2 SUB SWAP1 REVERT JUMPDEST POP PUSH1 0x0 PUSH1 0xF SLOAD EQ DUP2 SWAP1 PUSH2 0x16A5 JUMPI PUSH1 0x40 MLOAD PUSH32 0x8C379A000000000000000000000000000000000000000000000000000000000 DUP2 MSTORE PUSH1 0x4 ADD DUP1 DUP1 PUSH1 0x20 ADD DUP3 DUP2 SUB DUP3 MSTORE DUP4 DUP2 DUP2 MLOAD DUP2 MSTORE PUSH1 0x20 ADD SWAP2 POP DUP1 MLOAD SWAP1 PUSH1 0x20 ADD SWAP1 DUP1 DUP4 DUP4 PUSH1 0x0 JUMPDEST DUP4 DUP2 LT ISZERO PUSH2 0x166A JUMPI DUP1 DUP3 ADD MLOAD DUP2 DUP5 ADD MSTORE PUSH1 0x20 DUP2 ADD SWAP1 POP PUSH2 0x164F JUMP JUMPDEST POP POP POP POP SWAP1 POP SWAP1 DUP2 ADD SWAP1 PUSH1 0x1F AND DUP1 ISZERO PUSH2 0x1697 JUMPI DUP1 DUP3 SUB DUP1 MLOAD PUSH1 0x1 DUP4 PUSH1 0x20 SUB PUSH2 0x100 EXP SUB NOT AND DUP2 MSTORE PUSH1 0x20 ADD SWAP2 POP JUMPDEST POP SWAP3 POP POP POP PUSH1 0x40 MLOAD DUP1 SWAP2 SUB SWAP1 REVERT JUMPDEST POP PUSH1 0x0 PUSH1 0x10 SLOAD EQ DUP2 SWAP1 PUSH2 0x1753 JUMPI PUSH1 0x40 MLOAD PUSH32 0x8C379A000000000000000000000000000000000000000000000000000000000 DUP2 MSTORE PUSH1 0x4 ADD DUP1 DUP1 PUSH1 0x20 ADD DUP3 DUP2 SUB DUP3 MSTORE DUP4 DUP2 DUP2 MLOAD DUP2 MSTORE PUSH1 0x20 ADD SWAP2 POP DUP1 MLOAD SWAP1 PUSH1 0x20 ADD SWAP1 DUP1 DUP4 DUP4 PUSH1 0x0 JUMPDEST DUP4 DUP2 LT ISZERO PUSH2 0x1718 JUMPI DUP1 DUP3 ADD MLOAD DUP2 DUP5 ADD MSTORE PUSH1 0x20 DUP2 ADD SWAP1 POP PUSH2 0x16FD JUMP JUMPDEST POP POP POP POP SWAP1 POP SWAP1 DUP2 ADD SWAP1 PUSH1 0x1F AND DUP1 ISZERO PUSH2 0x1745 JUMPI DUP1 DUP3 SUB DUP1 MLOAD PUSH1 0x1 DUP4 PUSH1 0x20 SUB PUSH2 0x100 EXP SUB NOT AND DUP2 MSTORE PUSH1 0x20 ADD SWAP2 POP JUMPDEST POP SWAP3 POP POP POP PUSH1 0x40 MLOAD DUP1 SWAP2 SUB SWAP1 REVERT JUMPDEST POP POP JUMP JUMPDEST PUSH1 0x60 PUSH1 0x1 DUP3 EQ ISZERO PUSH2 0x179F JUMPI PUSH1 0x40 MLOAD DUP1 PUSH1 0x40 ADD PUSH1 0x40 MSTORE DUP1 PUSH1 0x1D DUP2 MSTORE PUSH1 0x20 ADD PUSH32 0x537461726B576172655F416C6C5665726966696572735F323032305F31000000 DUP2 MSTORE POP SWAP1 POP PUSH2 0x1953 JUMP JUMPDEST PUSH1 0x2 DUP3 EQ ISZERO PUSH2 0x17C8 JUMPI PUSH1 0x40 MLOAD DUP1 PUSH1 0x60 ADD PUSH1 0x40 MSTORE DUP1 PUSH1 0x21 DUP2 MSTORE PUSH1 0x20 ADD PUSH2 0x19C1 PUSH1 0x21 SWAP2 CODECOPY SWAP1 POP PUSH2 0x1952 JUMP JUMPDEST PUSH1 0x3 DUP3 EQ ISZERO PUSH2 0x180E JUMPI PUSH1 0x40 MLOAD DUP1 PUSH1 0x40 ADD PUSH1 0x40 MSTORE DUP1 PUSH1 0x1D DUP2 MSTORE PUSH1 0x20 ADD PUSH32 0x537461726B576172655F537461726B457853746174655F323032315F31000000 DUP2 MSTORE POP SWAP1 POP PUSH2 0x1951 JUMP JUMPDEST PUSH1 0x4 DUP3 EQ ISZERO PUSH2 0x1854 JUMPI PUSH1 0x40 MLOAD DUP1 PUSH1 0x40 ADD PUSH1 0x40 MSTORE DUP1 PUSH1 0x1E DUP2 MSTORE PUSH1 0x20 ADD PUSH32 0x537461726B576172655F466F72636564416374696F6E735F323032305F310000 DUP2 MSTORE POP SWAP1 POP PUSH2 0x1950 JUMP JUMPDEST PUSH1 0x5 DUP3 EQ ISZERO PUSH2 0x189A JUMPI PUSH1 0x40 MLOAD DUP1 PUSH1 0x40 ADD PUSH1 0x40 MSTORE DUP1 PUSH1 0x1E DUP2 MSTORE PUSH1 0x20 ADD PUSH32 0x537461726B576172655F4F6E636861696E5661756C74735F323032315F310000 DUP2 MSTORE POP SWAP1 POP PUSH2 0x194F JUMP JUMPDEST PUSH1 0x6 DUP3 EQ ISZERO PUSH2 0x18E0 JUMPI PUSH1 0x40 MLOAD DUP1 PUSH1 0x40 ADD PUSH1 0x40 MSTORE DUP1 PUSH1 0x1B DUP2 MSTORE PUSH1 0x20 ADD PUSH32 0x537461726B576172655F50726F78795574696C735F323032315F310000000000 DUP2 MSTORE POP SWAP1 POP PUSH2 0x194E JUMP JUMPDEST PUSH1 0x40 MLOAD PUSH32 0x8C379A000000000000000000000000000000000000000000000000000000000 DUP2 MSTORE PUSH1 0x4 ADD DUP1 DUP1 PUSH1 0x20 ADD DUP3 DUP2 SUB DUP3 MSTORE PUSH1 0x10 DUP2 MSTORE PUSH1 0x20 ADD DUP1 PUSH32 0x554E45585045435445445F494E44455800000000000000000000000000000000 DUP2 MSTORE POP PUSH1 0x20 ADD SWAP2 POP POP PUSH1 0x40 MLOAD DUP1 SWAP2 SUB SWAP1 REVERT JUMPDEST JUMPDEST JUMPDEST JUMPDEST JUMPDEST JUMPDEST SWAP2 SWAP1 POP JUMP JUMPDEST PUSH1 0x0 DUP1 DUP3 EXTCODESIZE SWAP1 POP PUSH1 0x0 DUP2 GT SWAP2 POP POP SWAP2 SWAP1 POP JUMP JUMPDEST PUSH1 0x0 DUP1 DUP6 DUP6 GT ISZERO PUSH2 0x197B JUMPI PUSH1 0x0 DUP1 REVERT JUMPDEST DUP4 DUP7 GT ISZERO PUSH2 0x1988 JUMPI PUSH1 0x0 DUP1 REVERT JUMPDEST PUSH1 0x1 DUP6 MUL DUP4 ADD SWAP2 POP DUP5 DUP7 SUB SWAP1 POP SWAP5 POP SWAP5 SWAP3 POP POP POP JUMP INVALID 0x4D 0x49 MSTORE8 POP 0x4C COINBASE NUMBER GASLIMIT DIFFICULTY 0x5F 0x49 0x4E DIFFICULTY GASLIMIT PC 0x5F 0x4F MSTORE 0x5F TIMESTAMP COINBASE DIFFICULTY 0x5F NUMBER 0x4F 0x4E SLOAD MSTORE COINBASE NUMBER SLOAD 0x5F 0x49 DIFFICULTY MSTORE8 PUSH21 0x61726B576172655F546F6B656E73416E6452616D70 PUSH10 0x6E675F323032305F31A2 PUSH5 0x6970667358 0x22 SLT KECCAK256 0x5E XOR 0xAF CALLVALUE 0x4D DUP5 0xED PUSH9 0xD253DA47EBBE4ECE29 EQ DUP1 0x21 0xDC 0xBD 0xE0 PC EXP JUMPDEST MSIZE 0xD8 REVERT 0xE6 0xA6 0xF8 PUSH5 0x736F6C6343 STOP MOD 0xC STOP CALLER "
				},
				"gasEstimates": {
					"creation": {
						"codeDepositCost": "1335800",
						"executionCost": "infinite",
						"totalCost": "infinite"
					},
					"external": {
						"": "infinite",
						"VERSION()": "infinite",
						"initialize(bytes)": "infinite"
					},
					"internal": {
						"expectedIdByIndex(uint256)": "infinite",
						"getNumSubcontracts()": "23",
						"handlerMapSection(uint256)": "infinite",
						"initializationSentinel()": "infinite",
						"magicSalt()": "23"
					}
				},
				"methodIdentifiers": {
					"VERSION()": "ffa1ad74",
					"initialize(bytes)": "439fab91"
				}
			},
			"userdoc": {
				"kind": "user",
				"methods": {},
				"version": 1
			}
		}
	}
}