{
	"data": {
		"bytecode": {
			"linkReferences": {},
			"object": "608060405234801561001057600080fd5b506102aa806100206000396000f3fe608060405234801561001057600080fd5b50600436106100875760003560e01c8063993f36391161005b578063993f363914610128578063b766311214610146578063e30a5cff14610164578063e6de62821461018257610087565b80627175421461008c5780635e586cd1146100aa5780635eecd218146100ec57806377e84e0d1461010a575b600080fd5b6100946101a0565b6040518082815260200191505060405180910390f35b6100d6600480360360208110156100c057600080fd5b81019080803590602001909291905050506101a7565b6040518082815260200191505060405180910390f35b6100f4610242565b6040518082815260200191505060405180910390f35b61011261024f565b6040518082815260200191505060405180910390f35b610130610256565b6040518082815260200191505060405180910390f35b61014e61025e565b6040518082815260200191505060405180910390f35b61016c61026a565b6040518082815260200191505060405180910390f35b61018a61026f565b6040518082815260200191505060405180910390f35b62093a8081565b60006024805490508210610223576040517f08c379a00000000000000000000000000000000000000000000000000000000081526004018080602001828103825260158152602001807f414354494f4e5f494e4445585f544f4f5f48494748000000000000000000000081525060200191505060405180910390fd5b6024828154811061023057fe5b90600052602060002001549050919050565b6000602480549050905090565b6202a30081565b6301e1338081565b621baf8062093a800181565b600a81565b60408156fea2646970667358221220a28eb1b95ad325b93be9f43a619b4dbf6f14de7c2caa6a3b1b05d3a287cbf64d64736f6c634300060c0033",
			"opcodes": "PUSH1 0x80 PUSH1 0x40 MSTORE CALLVALUE DUP1 ISZERO PUSH2 0x10 JUMPI PUSH1 0x0 DUP1 REVERT JUMPDEST POP PUSH2 0x2AA DUP1 PUSH2 0x20 PUSH1 0x0 CODECOPY PUSH1 0x0 RETURN INVALID PUSH1 0x80 PUSH1 0x40 MSTORE CALLVALUE DUP1 ISZERO PUSH2 0x10 JUMPI PUSH1 0x0 DUP1 REVERT JUMPDEST POP PUSH1 0x4 CALLDATASIZE LT PUSH2 0x87 JUMPI PUSH1 0x0 CALLDATALOAD PUSH1 0xE0 SHR DUP1 PUSH4 0x993F3639 GT PUSH2 0x5B JUMPI DUP1 PUSH4 0x993F3639 EQ PUSH2 0x128 JUMPI DUP1 PUSH4 0xB7663112 EQ PUSH2 0x146 JUMPI DUP1 PUSH4 0xE30A5CFF EQ PUSH2 0x164 JUMPI DUP1 PUSH4 0xE6DE6282 EQ PUSH2 0x182 JUMPI PUSH2 0x87 JUMP JUMPDEST DUP1 PUSH3 0x717542 EQ PUSH2 0x8C JUMPI DUP1 PUSH4 0x5E586CD1 EQ PUSH2 0xAA JUMPI DUP1 PUSH4 0x5EECD218 EQ PUSH2 0xEC JUMPI DUP1 PUSH4 0x77E84E0D EQ PUSH2 0x10A JUMPI JUMPDEST PUSH1 0x0 DUP1 REVERT JUMPDEST PUSH2 0x94 PUSH2 0x1A0 JUMP JUMPDEST PUSH1 0x40 MLOAD DUP1 DUP3 DUP2 MSTORE PUSH1 0x20 ADD SWAP2 POP POP PUSH1 0x40 MLOAD DUP1 SWAP2 SUB SWAP1 RETURN JUMPDEST PUSH2 0xD6 PUSH1 0x4 DUP1 CALLDATASIZE SUB PUSH1 0x20 DUP2 LT ISZERO PUSH2 0xC0 JUMPI PUSH1 0x0 DUP1 REVERT JUMPDEST DUP2 ADD SWAP1 DUP1 DUP1 CALLDATALOAD SWAP1 PUSH1 0x20 ADD SWAP1 SWAP3 SWAP2 SWAP1 POP POP POP PUSH2 0x1A7 JUMP JUMPDEST PUSH1 0x40 MLOAD DUP1 DUP3 DUP2 MSTORE PUSH1 0x20 ADD SWAP2 POP POP PUSH1 0x40 MLOAD DUP1 SWAP2 SUB SWAP1 RETURN JUMPDEST PUSH2 0xF4 PUSH2 0x242 JUMP JUMPDEST PUSH1 0x40 MLOAD DUP1 DUP3 DUP2 MSTORE PUSH1 0x20 ADD SWAP2 POP POP PUSH1 0x40 MLOAD DUP1 SWAP2 SUB SWAP1 RETURN JUMPDEST PUSH2 0x112 PUSH2 0x24F JUMP JUMPDEST PUSH1 0x40 MLOAD DUP1 DUP3 DUP2 MSTORE PUSH1 0x20 ADD SWAP2 POP POP PUSH1 0x40 MLOAD DUP1 SWAP2 SUB SWAP1 RETURN JUMPDEST PUSH2 0x130 PUSH2 0x256 JUMP JUMPDEST PUSH1 0x40 MLOAD DUP1 DUP3 DUP2 MSTORE PUSH1 0x20 ADD SWAP2 POP POP PUSH1 0x40 MLOAD DUP1 SWAP2 SUB SWAP1 RETURN JUMPDEST PUSH2 0x14E PUSH2 0x25E JUMP JUMPDEST PUSH1 0x40 MLOAD DUP1 DUP3 DUP2 MSTORE PUSH1 0x20 ADD SWAP2 POP POP PUSH1 0x40 MLOAD DUP1 SWAP2 SUB SWAP1 RETURN JUMPDEST PUSH2 0x16C PUSH2 0x26A JUMP JUMPDEST PUSH1 0x40 MLOAD DUP1 DUP3 DUP2 MSTORE PUSH1 0x20 ADD SWAP2 POP POP PUSH1 0x40 MLOAD DUP1 SWAP2 SUB SWAP1 RETURN JUMPDEST PUSH2 0x18A PUSH2 0x26F JUMP JUMPDEST PUSH1 0x40 MLOAD DUP1 DUP3 DUP2 MSTORE PUSH1 0x20 ADD SWAP2 POP POP PUSH1 0x40 MLOAD DUP1 SWAP2 SUB SWAP1 RETURN JUMPDEST PUSH3 0x93A80 DUP2 JUMP JUMPDEST PUSH1 0x0 PUSH1 0x24 DUP1 SLOAD SWAP1 POP DUP3 LT PUSH2 0x223 JUMPI PUSH1 0x40 MLOAD PUSH32 0x8C379A000000000000000000000000000000000000000000000000000000000 DUP2 MSTORE PUSH1 0x4 ADD DUP1 DUP1 PUSH1 0x20 ADD DUP3 DUP2 SUB DUP3 MSTORE PUSH1 0x15 DUP2 MSTORE PUSH1 0x20 ADD DUP1 PUSH32 0x414354494F4E5F494E4445585F544F4F5F484947480000000000000000000000 DUP2 MSTORE POP PUSH1 0x20 ADD SWAP2 POP POP PUSH1 0x40 MLOAD DUP1 SWAP2 SUB SWAP1 REVERT JUMPDEST PUSH1 0x24 DUP3 DUP2 SLOAD DUP2 LT PUSH2 0x230 JUMPI INVALID JUMPDEST SWAP1 PUSH1 0x0 MSTORE PUSH1 0x20 PUSH1 0x0 KECCAK256 ADD SLOAD SWAP1 POP SWAP2 SWAP1 POP JUMP JUMPDEST PUSH1 0x0 PUSH1 0x24 DUP1 SLOAD SWAP1 POP SWAP1 POP SWAP1 JUMP JUMPDEST PUSH3 0x2A300 DUP2 JUMP JUMPDEST PUSH4 0x1E13380 DUP2 JUMP JUMPDEST PUSH3 0x1BAF80 PUSH3 0x93A80 ADD DUP2 JUMP JUMPDEST PUSH1 0xA DUP2 JUMP JUMPDEST PUSH1 0x40 DUP2 JUMP INVALID LOG2 PUSH5 0x6970667358 0x22 SLT KECCAK256 LOG2 DUP15 0xB1 0xB9 GAS 0xD3 0x25 0xB9 EXTCODESIZE 0xE9 DELEGATECALL GASPRICE PUSH2 0x9B4D 0xBF PUSH16 0x14DE7C2CAA6A3B1B05D3A287CBF64D64 PUSH20 0x6F6C634300060C00330000000000000000000000 "
		},
		"gasEstimates": {
			"creation": {
				"codeDepositCost": "136400",
				"executionCost": "183",
				"totalCost": "136583"
			},
			"external": {
				"DEPOSIT_CANCEL_DELAY()": "272",
				"FREEZE_GRACE_PERIOD()": "206",
				"MAX_FORCED_ACTIONS_REQS_PER_BLOCK()": "249",
				"MAX_VERIFIER_COUNT()": "271",
				"UNFREEZE_DELAY()": "205",
				"VERIFIER_REMOVAL_DELAY()": "233",
				"getActionCount()": "1066",
				"getActionHashByIndex(uint256)": "2834"
			},
			"internal": {
				"getActionHash(string memory,bytes memory)": "infinite",
				"setActionHash(bytes32,bool)": "infinite"
			}
		},
		"methodIdentifiers": {
			"DEPOSIT_CANCEL_DELAY()": "77e84e0d",
			"FREEZE_GRACE_PERIOD()": "00717542",
			"MAX_FORCED_ACTIONS_REQS_PER_BLOCK()": "e30a5cff",
			"MAX_VERIFIER_COUNT()": "e6de6282",
			"UNFREEZE_DELAY()": "993f3639",
			"VERIFIER_REMOVAL_DELAY()": "b7663112",
			"getActionCount()": "5eecd218",
			"getActionHashByIndex(uint256)": "5e586cd1"
		}
	},
	"abi": [
		{
			"inputs": [],
			"name": "DEPOSIT_CANCEL_DELAY",
			"outputs": [
				{
					"internalType": "uint256",
					"name": "",
					"type": "uint256"
				}
			],
			"stateMutability": "view",
			"type": "function"
		},
		{
			"inputs": [],
			"name": "FREEZE_GRACE_PERIOD",
			"outputs": [
				{
					"internalType": "uint256",
					"name": "",
					"type": "uint256"
				}
			],
			"stateMutability": "view",
			"type": "function"
		},
		{
			"inputs": [],
			"name": "MAX_FORCED_ACTIONS_REQS_PER_BLOCK",
			"outputs": [
				{
					"internalType": "uint256",
					"name": "",
					"type": "uint256"
				}
			],
			"stateMutability": "view",
			"type": "function"
		},
		{
			"inputs": [],
			"name": "MAX_VERIFIER_COUNT",
			"outputs": [
				{
					"internalType": "uint256",
					"name": "",
					"type": "uint256"
				}
			],
			"stateMutability": "view",
			"type": "function"
		},
		{
			"inputs": [],
			"name": "UNFREEZE_DELAY",
			"outputs": [
				{
					"internalType": "uint256",
					"name": "",
					"type": "uint256"
				}
			],
			"stateMutability": "view",
			"type": "function"
		},
		{
			"inputs": [],
			"name": "VERIFIER_REMOVAL_DELAY",
			"outputs": [
				{
					"internalType": "uint256",
					"name": "",
					"type": "uint256"
				}
			],
			"stateMutability": "view",
			"type": "function"
		},
		{
			"inputs": [],
			"name": "getActionCount",
			"outputs": [
				{
					"internalType": "uint256",
					"name": "",
					"type": "uint256"
				}
			],
			"stateMutability": "view",
			"type": "function"
		},
		{
			"inputs": [
				{
					"internalType": "uint256",
					"name": "actionIndex",
					"type": "uint256"
				}
			],
			"name": "getActionHashByIndex",
			"outputs": [
				{
					"internalType": "bytes32",
					"name": "",
					"type": "bytes32"
				}
			],
			"stateMutability": "view",
			"type": "function"
		}
	]
}