{
	"data": {
		"bytecode": {
			"linkReferences": {},
			"object": "608060405234801561001057600080fd5b506101bc806100206000396000f3fe608060405234801561001057600080fd5b506004361061007c5760003560e01c8063993f36391161005b578063993f3639146100db578063b7663112146100f9578063e30a5cff14610117578063e6de6282146101355761007c565b80627175421461008157806377e84e0d1461009f578063835a71c3146100bd575b600080fd5b610089610153565b6040518082815260200191505060405180910390f35b6100a761015a565b6040518082815260200191505060405180910390f35b6100c5610161565b6040518082815260200191505060405180910390f35b6100e3610168565b6040518082815260200191505060405180910390f35b610101610170565b6040518082815260200191505060405180910390f35b61011f61017c565b6040518082815260200191505060405180910390f35b61013d610181565b6040518082815260200191505060405180910390f35b62093a8081565b6202a30081565b62093a8081565b6301e1338081565b621baf8062093a800181565b600a81565b60408156fea2646970667358221220f24a09ed20936ceac2f89705c5b50845f671235f40e3ad569498fa6e24a5d90a64736f6c634300060c0033",
			"opcodes": "PUSH1 0x80 PUSH1 0x40 MSTORE CALLVALUE DUP1 ISZERO PUSH2 0x10 JUMPI PUSH1 0x0 DUP1 REVERT JUMPDEST POP PUSH2 0x1BC DUP1 PUSH2 0x20 PUSH1 0x0 CODECOPY PUSH1 0x0 RETURN INVALID PUSH1 0x80 PUSH1 0x40 MSTORE CALLVALUE DUP1 ISZERO PUSH2 0x10 JUMPI PUSH1 0x0 DUP1 REVERT JUMPDEST POP PUSH1 0x4 CALLDATASIZE LT PUSH2 0x7C JUMPI PUSH1 0x0 CALLDATALOAD PUSH1 0xE0 SHR DUP1 PUSH4 0x993F3639 GT PUSH2 0x5B JUMPI DUP1 PUSH4 0x993F3639 EQ PUSH2 0xDB JUMPI DUP1 PUSH4 0xB7663112 EQ PUSH2 0xF9 JUMPI DUP1 PUSH4 0xE30A5CFF EQ PUSH2 0x117 JUMPI DUP1 PUSH4 0xE6DE6282 EQ PUSH2 0x135 JUMPI PUSH2 0x7C JUMP JUMPDEST DUP1 PUSH3 0x717542 EQ PUSH2 0x81 JUMPI DUP1 PUSH4 0x77E84E0D EQ PUSH2 0x9F JUMPI DUP1 PUSH4 0x835A71C3 EQ PUSH2 0xBD JUMPI JUMPDEST PUSH1 0x0 DUP1 REVERT JUMPDEST PUSH2 0x89 PUSH2 0x153 JUMP JUMPDEST PUSH1 0x40 MLOAD DUP1 DUP3 DUP2 MSTORE PUSH1 0x20 ADD SWAP2 POP POP PUSH1 0x40 MLOAD DUP1 SWAP2 SUB SWAP1 RETURN JUMPDEST PUSH2 0xA7 PUSH2 0x15A JUMP JUMPDEST PUSH1 0x40 MLOAD DUP1 DUP3 DUP2 MSTORE PUSH1 0x20 ADD SWAP2 POP POP PUSH1 0x40 MLOAD DUP1 SWAP2 SUB SWAP1 RETURN JUMPDEST PUSH2 0xC5 PUSH2 0x161 JUMP JUMPDEST PUSH1 0x40 MLOAD DUP1 DUP3 DUP2 MSTORE PUSH1 0x20 ADD SWAP2 POP POP PUSH1 0x40 MLOAD DUP1 SWAP2 SUB SWAP1 RETURN JUMPDEST PUSH2 0xE3 PUSH2 0x168 JUMP JUMPDEST PUSH1 0x40 MLOAD DUP1 DUP3 DUP2 MSTORE PUSH1 0x20 ADD SWAP2 POP POP PUSH1 0x40 MLOAD DUP1 SWAP2 SUB SWAP1 RETURN JUMPDEST PUSH2 0x101 PUSH2 0x170 JUMP JUMPDEST PUSH1 0x40 MLOAD DUP1 DUP3 DUP2 MSTORE PUSH1 0x20 ADD SWAP2 POP POP PUSH1 0x40 MLOAD DUP1 SWAP2 SUB SWAP1 RETURN JUMPDEST PUSH2 0x11F PUSH2 0x17C JUMP JUMPDEST PUSH1 0x40 MLOAD DUP1 DUP3 DUP2 MSTORE PUSH1 0x20 ADD SWAP2 POP POP PUSH1 0x40 MLOAD DUP1 SWAP2 SUB SWAP1 RETURN JUMPDEST PUSH2 0x13D PUSH2 0x181 JUMP JUMPDEST PUSH1 0x40 MLOAD DUP1 DUP3 DUP2 MSTORE PUSH1 0x20 ADD SWAP2 POP POP PUSH1 0x40 MLOAD DUP1 SWAP2 SUB SWAP1 RETURN JUMPDEST PUSH3 0x93A80 DUP2 JUMP JUMPDEST PUSH3 0x2A300 DUP2 JUMP JUMPDEST PUSH3 0x93A80 DUP2 JUMP JUMPDEST PUSH4 0x1E13380 DUP2 JUMP JUMPDEST PUSH3 0x1BAF80 PUSH3 0x93A80 ADD DUP2 JUMP JUMPDEST PUSH1 0xA DUP2 JUMP JUMPDEST PUSH1 0x40 DUP2 JUMP INVALID LOG2 PUSH5 0x6970667358 0x22 SLT KECCAK256 CALLCODE 0x4A MULMOD 0xED KECCAK256 SWAP4 PUSH13 0xEAC2F89705C5B50845F671235F BLOCKHASH 0xE3 0xAD JUMP SWAP5 SWAP9 STATICCALL PUSH15 0x24A5D90A64736F6C634300060C0033 "
		},
		"gasEstimates": {
			"creation": {
				"codeDepositCost": "88800",
				"executionCost": "135",
				"totalCost": "88935"
			},
			"external": {
				"DEPOSIT_CANCEL_DELAY()": "228",
				"FREEZE_GRACE_PERIOD()": "206",
				"MAX_FORCED_ACTIONS_REQS_PER_BLOCK()": "249",
				"MAX_VERIFIER_COUNT()": "271",
				"STARKEX_MAX_DEFAULT_VAULT_LOCK()": "250",
				"UNFREEZE_DELAY()": "205",
				"VERIFIER_REMOVAL_DELAY()": "233"
			}
		},
		"methodIdentifiers": {
			"DEPOSIT_CANCEL_DELAY()": "77e84e0d",
			"FREEZE_GRACE_PERIOD()": "00717542",
			"MAX_FORCED_ACTIONS_REQS_PER_BLOCK()": "e30a5cff",
			"MAX_VERIFIER_COUNT()": "e6de6282",
			"STARKEX_MAX_DEFAULT_VAULT_LOCK()": "835a71c3",
			"UNFREEZE_DELAY()": "993f3639",
			"VERIFIER_REMOVAL_DELAY()": "b7663112"
		}
	},
	"abi": [
		{
			"inputs": [],
			"name": "DEPOSIT_CANCEL_DELAY",
			"outputs": [
				{
					"internalType": "uint256",
					"name": "",
					"type": "uint256"
				}
			],
			"stateMutability": "view",
			"type": "function"
		},
		{
			"inputs": [],
			"name": "FREEZE_GRACE_PERIOD",
			"outputs": [
				{
					"internalType": "uint256",
					"name": "",
					"type": "uint256"
				}
			],
			"stateMutability": "view",
			"type": "function"
		},
		{
			"inputs": [],
			"name": "MAX_FORCED_ACTIONS_REQS_PER_BLOCK",
			"outputs": [
				{
					"internalType": "uint256",
					"name": "",
					"type": "uint256"
				}
			],
			"stateMutability": "view",
			"type": "function"
		},
		{
			"inputs": [],
			"name": "MAX_VERIFIER_COUNT",
			"outputs": [
				{
					"internalType": "uint256",
					"name": "",
					"type": "uint256"
				}
			],
			"stateMutability": "view",
			"type": "function"
		},
		{
			"inputs": [],
			"name": "STARKEX_MAX_DEFAULT_VAULT_LOCK",
			"outputs": [
				{
					"internalType": "uint256",
					"name": "",
					"type": "uint256"
				}
			],
			"stateMutability": "view",
			"type": "function"
		},
		{
			"inputs": [],
			"name": "UNFREEZE_DELAY",
			"outputs": [
				{
					"internalType": "uint256",
					"name": "",
					"type": "uint256"
				}
			],
			"stateMutability": "view",
			"type": "function"
		},
		{
			"inputs": [],
			"name": "VERIFIER_REMOVAL_DELAY",
			"outputs": [
				{
					"internalType": "uint256",
					"name": "",
					"type": "uint256"
				}
			],
			"stateMutability": "view",
			"type": "function"
		}
	]
}