{
	"scalable-dex/contracts/src/toplevel_subcontracts/AllVerifiers.sol": {
		"AllVerifiers": {
			"abi": [
				{
					"anonymous": false,
					"inputs": [],
					"name": "LogFrozen",
					"type": "event"
				},
				{
					"anonymous": false,
					"inputs": [
						{
							"indexed": false,
							"internalType": "address",
							"name": "acceptedGovernor",
							"type": "address"
						}
					],
					"name": "LogNewGovernorAccepted",
					"type": "event"
				},
				{
					"anonymous": false,
					"inputs": [
						{
							"indexed": false,
							"internalType": "address",
							"name": "nominatedGovernor",
							"type": "address"
						}
					],
					"name": "LogNominatedGovernor",
					"type": "event"
				},
				{
					"anonymous": false,
					"inputs": [],
					"name": "LogNominationCancelled",
					"type": "event"
				},
				{
					"anonymous": false,
					"inputs": [
						{
							"indexed": false,
							"internalType": "address",
							"name": "entry",
							"type": "address"
						},
						{
							"indexed": false,
							"internalType": "string",
							"name": "entryId",
							"type": "string"
						}
					],
					"name": "LogRegistered",
					"type": "event"
				},
				{
					"anonymous": false,
					"inputs": [
						{
							"indexed": false,
							"internalType": "address",
							"name": "entry",
							"type": "address"
						},
						{
							"indexed": false,
							"internalType": "string",
							"name": "entryId",
							"type": "string"
						}
					],
					"name": "LogRemovalIntent",
					"type": "event"
				},
				{
					"anonymous": false,
					"inputs": [
						{
							"indexed": false,
							"internalType": "address",
							"name": "entry",
							"type": "address"
						},
						{
							"indexed": false,
							"internalType": "string",
							"name": "entryId",
							"type": "string"
						}
					],
					"name": "LogRemoved",
					"type": "event"
				},
				{
					"anonymous": false,
					"inputs": [
						{
							"indexed": false,
							"internalType": "address",
							"name": "removedGovernor",
							"type": "address"
						}
					],
					"name": "LogRemovedGovernor",
					"type": "event"
				},
				{
					"anonymous": false,
					"inputs": [],
					"name": "LogUnFrozen",
					"type": "event"
				},
				{
					"inputs": [],
					"name": "DEPOSIT_CANCEL_DELAY",
					"outputs": [
						{
							"internalType": "uint256",
							"name": "",
							"type": "uint256"
						}
					],
					"stateMutability": "view",
					"type": "function"
				},
				{
					"inputs": [],
					"name": "FREEZE_GRACE_PERIOD",
					"outputs": [
						{
							"internalType": "uint256",
							"name": "",
							"type": "uint256"
						}
					],
					"stateMutability": "view",
					"type": "function"
				},
				{
					"inputs": [],
					"name": "MAIN_GOVERNANCE_INFO_TAG",
					"outputs": [
						{
							"internalType": "string",
							"name": "",
							"type": "string"
						}
					],
					"stateMutability": "view",
					"type": "function"
				},
				{
					"inputs": [],
					"name": "MAX_FORCED_ACTIONS_REQS_PER_BLOCK",
					"outputs": [
						{
							"internalType": "uint256",
							"name": "",
							"type": "uint256"
						}
					],
					"stateMutability": "view",
					"type": "function"
				},
				{
					"inputs": [],
					"name": "MAX_VERIFIER_COUNT",
					"outputs": [
						{
							"internalType": "uint256",
							"name": "",
							"type": "uint256"
						}
					],
					"stateMutability": "view",
					"type": "function"
				},
				{
					"inputs": [],
					"name": "UNFREEZE_DELAY",
					"outputs": [
						{
							"internalType": "uint256",
							"name": "",
							"type": "uint256"
						}
					],
					"stateMutability": "view",
					"type": "function"
				},
				{
					"inputs": [],
					"name": "VERIFIER_REMOVAL_DELAY",
					"outputs": [
						{
							"internalType": "uint256",
							"name": "",
							"type": "uint256"
						}
					],
					"stateMutability": "view",
					"type": "function"
				},
				{
					"inputs": [
						{
							"internalType": "address",
							"name": "verifier",
							"type": "address"
						}
					],
					"name": "announceAvailabilityVerifierRemovalIntent",
					"outputs": [],
					"stateMutability": "nonpayable",
					"type": "function"
				},
				{
					"inputs": [
						{
							"internalType": "address",
							"name": "verifier",
							"type": "address"
						}
					],
					"name": "announceVerifierRemovalIntent",
					"outputs": [],
					"stateMutability": "nonpayable",
					"type": "function"
				},
				{
					"inputs": [],
					"name": "getRegisteredAvailabilityVerifiers",
					"outputs": [
						{
							"internalType": "address[]",
							"name": "_verifers",
							"type": "address[]"
						}
					],
					"stateMutability": "view",
					"type": "function"
				},
				{
					"inputs": [],
					"name": "getRegisteredVerifiers",
					"outputs": [
						{
							"internalType": "address[]",
							"name": "_verifers",
							"type": "address[]"
						}
					],
					"stateMutability": "view",
					"type": "function"
				},
				{
					"inputs": [],
					"name": "identify",
					"outputs": [
						{
							"internalType": "string",
							"name": "",
							"type": "string"
						}
					],
					"stateMutability": "pure",
					"type": "function"
				},
				{
					"inputs": [
						{
							"internalType": "bytes",
							"name": "",
							"type": "bytes"
						}
					],
					"name": "initialize",
					"outputs": [],
					"stateMutability": "nonpayable",
					"type": "function"
				},
				{
					"inputs": [],
					"name": "initializerSize",
					"outputs": [
						{
							"internalType": "uint256",
							"name": "",
							"type": "uint256"
						}
					],
					"stateMutability": "view",
					"type": "function"
				},
				{
					"inputs": [
						{
							"internalType": "address",
							"name": "verifierAddress",
							"type": "address"
						}
					],
					"name": "isAvailabilityVerifier",
					"outputs": [
						{
							"internalType": "bool",
							"name": "",
							"type": "bool"
						}
					],
					"stateMutability": "view",
					"type": "function"
				},
				{
					"inputs": [],
					"name": "isFrozen",
					"outputs": [
						{
							"internalType": "bool",
							"name": "",
							"type": "bool"
						}
					],
					"stateMutability": "view",
					"type": "function"
				},
				{
					"inputs": [
						{
							"internalType": "address",
							"name": "verifierAddress",
							"type": "address"
						}
					],
					"name": "isVerifier",
					"outputs": [
						{
							"internalType": "bool",
							"name": "",
							"type": "bool"
						}
					],
					"stateMutability": "view",
					"type": "function"
				},
				{
					"inputs": [],
					"name": "mainAcceptGovernance",
					"outputs": [],
					"stateMutability": "nonpayable",
					"type": "function"
				},
				{
					"inputs": [],
					"name": "mainCancelNomination",
					"outputs": [],
					"stateMutability": "nonpayable",
					"type": "function"
				},
				{
					"inputs": [
						{
							"internalType": "address",
							"name": "testGovernor",
							"type": "address"
						}
					],
					"name": "mainIsGovernor",
					"outputs": [
						{
							"internalType": "bool",
							"name": "",
							"type": "bool"
						}
					],
					"stateMutability": "view",
					"type": "function"
				},
				{
					"inputs": [
						{
							"internalType": "address",
							"name": "newGovernor",
							"type": "address"
						}
					],
					"name": "mainNominateNewGovernor",
					"outputs": [],
					"stateMutability": "nonpayable",
					"type": "function"
				},
				{
					"inputs": [
						{
							"internalType": "address",
							"name": "governorForRemoval",
							"type": "address"
						}
					],
					"name": "mainRemoveGovernor",
					"outputs": [],
					"stateMutability": "nonpayable",
					"type": "function"
				},
				{
					"inputs": [
						{
							"internalType": "address",
							"name": "verifier",
							"type": "address"
						},
						{
							"internalType": "string",
							"name": "identifier",
							"type": "string"
						}
					],
					"name": "registerAvailabilityVerifier",
					"outputs": [],
					"stateMutability": "nonpayable",
					"type": "function"
				},
				{
					"inputs": [
						{
							"internalType": "address",
							"name": "verifier",
							"type": "address"
						},
						{
							"internalType": "string",
							"name": "identifier",
							"type": "string"
						}
					],
					"name": "registerVerifier",
					"outputs": [],
					"stateMutability": "nonpayable",
					"type": "function"
				},
				{
					"inputs": [
						{
							"internalType": "address",
							"name": "verifier",
							"type": "address"
						}
					],
					"name": "removeAvailabilityVerifier",
					"outputs": [],
					"stateMutability": "nonpayable",
					"type": "function"
				},
				{
					"inputs": [
						{
							"internalType": "address",
							"name": "verifier",
							"type": "address"
						}
					],
					"name": "removeVerifier",
					"outputs": [],
					"stateMutability": "nonpayable",
					"type": "function"
				},
				{
					"inputs": [],
					"name": "unFreeze",
					"outputs": [],
					"stateMutability": "nonpayable",
					"type": "function"
				}
			],
			"devdoc": {
				"kind": "dev",
				"methods": {},
				"version": 1
			},
			"evm": {
				"assembly": "    /* \"scalable-dex/contracts/src/toplevel_subcontracts/AllVerifiers.sol\":320:815  contract AllVerifiers is... */\n  mstore(0x40, 0x80)\n  callvalue\n  dup1\n  iszero\n  tag_1\n  jumpi\n  0x00\n  dup1\n  revert\ntag_1:\n  pop\n  dataSize(sub_0)\n  dup1\n  dataOffset(sub_0)\n  0x00\n  codecopy\n  0x00\n  return\nstop\n\nsub_0: assembly {\n        /* \"scalable-dex/contracts/src/toplevel_subcontracts/AllVerifiers.sol\":320:815  contract AllVerifiers is... */\n      mstore(0x40, 0x80)\n      callvalue\n      dup1\n      iszero\n      tag_1\n      jumpi\n      0x00\n      dup1\n      revert\n    tag_1:\n      pop\n      jumpi(tag_2, lt(calldatasize, 0x04))\n      shr(0xe0, calldataload(0x00))\n      dup1\n      0x77e84e0d\n      gt\n      tag_30\n      jumpi\n      dup1\n      0xbd1279ae\n      gt\n      tag_31\n      jumpi\n      dup1\n      0xca2dfd0a\n      gt\n      tag_32\n      jumpi\n      dup1\n      0xca2dfd0a\n      eq\n      tag_26\n      jumpi\n      dup1\n      0xe30a5cff\n      eq\n      tag_27\n      jumpi\n      dup1\n      0xe6de6282\n      eq\n      tag_28\n      jumpi\n      dup1\n      0xeeb72866\n      eq\n      tag_29\n      jumpi\n      jump(tag_2)\n    tag_32:\n      dup1\n      0xbd1279ae\n      eq\n      tag_23\n      jumpi\n      dup1\n      0xbdb75785\n      eq\n      tag_24\n      jumpi\n      dup1\n      0xc23b60ef\n      eq\n      tag_25\n      jumpi\n      jump(tag_2)\n    tag_31:\n      dup1\n      0x993f3639\n      gt\n      tag_33\n      jumpi\n      dup1\n      0x993f3639\n      eq\n      tag_19\n      jumpi\n      dup1\n      0xa1cc921e\n      eq\n      tag_20\n      jumpi\n      dup1\n      0xb1e640bf\n      eq\n      tag_21\n      jumpi\n      dup1\n      0xb7663112\n      eq\n      tag_22\n      jumpi\n      jump(tag_2)\n    tag_33:\n      dup1\n      0x77e84e0d\n      eq\n      tag_16\n      jumpi\n      dup1\n      0x7cf12b90\n      eq\n      tag_17\n      jumpi\n      dup1\n      0x8c4bce1c\n      eq\n      tag_18\n      jumpi\n      jump(tag_2)\n    tag_30:\n      dup1\n      0x3776fe2a\n      gt\n      tag_34\n      jumpi\n      dup1\n      0x439fab91\n      gt\n      tag_35\n      jumpi\n      dup1\n      0x439fab91\n      eq\n      tag_12\n      jumpi\n      dup1\n      0x45f5cd97\n      eq\n      tag_13\n      jumpi\n      dup1\n      0x4eab9ed3\n      eq\n      tag_14\n      jumpi\n      dup1\n      0x72eb3688\n      eq\n      tag_15\n      jumpi\n      jump(tag_2)\n    tag_35:\n      dup1\n      0x3776fe2a\n      eq\n      tag_9\n      jumpi\n      dup1\n      0x3cc660ad\n      eq\n      tag_10\n      jumpi\n      dup1\n      0x418573b7\n      eq\n      tag_11\n      jumpi\n      jump(tag_2)\n    tag_34:\n      dup1\n      0x717542\n      eq\n      tag_3\n      jumpi\n      dup1\n      0x1ac347f2\n      eq\n      tag_4\n      jumpi\n      dup1\n      0x1d078bbb\n      eq\n      tag_5\n      jumpi\n      dup1\n      0x28700a15\n      eq\n      tag_6\n      jumpi\n      dup1\n      0x33105218\n      eq\n      tag_7\n      jumpi\n      dup1\n      0x33eeb147\n      eq\n      tag_8\n      jumpi\n    tag_2:\n      0x00\n      dup1\n      revert\n        /* \"scalable-dex/contracts/src/libraries/LibConstants.sol\":650:702  uint256 public constant FREEZE_GRACE_PERIOD = 7 days */\n    tag_3:\n      tag_36\n      tag_37\n      jump\t// in\n    tag_36:\n      mload(0x40)\n      dup1\n      dup3\n      dup2\n      mstore\n      0x20\n      add\n      swap2\n      pop\n      pop\n      mload(0x40)\n      dup1\n      swap2\n      sub\n      swap1\n      return\n        /* \"scalable-dex/contracts/src/components/AvailabilityVerifiers.sol\":2026:2206  function getRegisteredAvailabilityVerifiers()... */\n    tag_4:\n      tag_38\n      tag_39\n      jump\t// in\n    tag_38:\n      mload(0x40)\n      dup1\n      dup1\n      0x20\n      add\n      dup3\n      dup2\n      sub\n      dup3\n      mstore\n      dup4\n      dup2\n      dup2\n      mload\n      dup2\n      mstore\n      0x20\n      add\n      swap2\n      pop\n      dup1\n      mload\n      swap1\n      0x20\n      add\n      swap1\n      0x20\n      mul\n      dup1\n      dup4\n      dup4\n      0x00\n    tag_40:\n      dup4\n      dup2\n      lt\n      iszero\n      tag_42\n      jumpi\n      dup1\n      dup3\n      add\n      mload\n      dup2\n      dup5\n      add\n      mstore\n      0x20\n      dup2\n      add\n      swap1\n      pop\n      jump(tag_40)\n    tag_42:\n      pop\n      pop\n      pop\n      pop\n      swap1\n      pop\n      add\n      swap3\n      pop\n      pop\n      pop\n      mload(0x40)\n      dup1\n      swap2\n      sub\n      swap1\n      return\n        /* \"scalable-dex/contracts/src/components/AvailabilityVerifiers.sol\":2600:2778  function announceAvailabilityVerifierRemovalIntent(address verifier) external {... */\n    tag_5:\n      tag_43\n      0x04\n      dup1\n      calldatasize\n      sub\n      0x20\n      dup2\n      lt\n      iszero\n      tag_44\n      jumpi\n      0x00\n      dup1\n      revert\n    tag_44:\n      dup2\n      add\n      swap1\n      dup1\n      dup1\n      calldataload\n      0xffffffffffffffffffffffffffffffffffffffff\n      and\n      swap1\n      0x20\n      add\n      swap1\n      swap3\n      swap2\n      swap1\n      pop\n      pop\n      pop\n      tag_45\n      jump\t// in\n    tag_43:\n      stop\n        /* \"scalable-dex/contracts/src/components/MainGovernance.sol\":2328:2404  function mainAcceptGovernance() external {... */\n    tag_6:\n      tag_46\n      tag_47\n      jump\t// in\n    tag_46:\n      stop\n        /* \"scalable-dex/contracts/src/components/Verifiers.sol\":1819:1983  function isVerifier(address verifierAddress) external view returns (bool) {... */\n    tag_7:\n      tag_48\n      0x04\n      dup1\n      calldatasize\n      sub\n      0x20\n      dup2\n      lt\n      iszero\n      tag_49\n      jumpi\n      0x00\n      dup1\n      revert\n    tag_49:\n      dup2\n      add\n      swap1\n      dup1\n      dup1\n      calldataload\n      0xffffffffffffffffffffffffffffffffffffffff\n      and\n      swap1\n      0x20\n      add\n      swap1\n      swap3\n      swap2\n      swap1\n      pop\n      pop\n      pop\n      tag_50\n      jump\t// in\n    tag_48:\n      mload(0x40)\n      dup1\n      dup3\n      iszero\n      iszero\n      dup2\n      mstore\n      0x20\n      add\n      swap2\n      pop\n      pop\n      mload(0x40)\n      dup1\n      swap2\n      sub\n      swap1\n      return\n        /* \"scalable-dex/contracts/src/components/Freezable.sol\":382:473  function isFrozen() public view override returns (bool) {... */\n    tag_8:\n      tag_51\n      tag_52\n      jump\t// in\n    tag_51:\n      mload(0x40)\n      dup1\n      dup3\n      iszero\n      iszero\n      dup2\n      mstore\n      0x20\n      add\n      swap2\n      pop\n      pop\n      mload(0x40)\n      dup1\n      swap2\n      sub\n      swap1\n      return\n        /* \"scalable-dex/contracts/src/components/Verifiers.sol\":1989:2153  function registerVerifier(address verifier, string calldata identifier) external {... */\n    tag_9:\n      tag_53\n      0x04\n      dup1\n      calldatasize\n      sub\n      0x40\n      dup2\n      lt\n      iszero\n      tag_54\n      jumpi\n      0x00\n      dup1\n      revert\n    tag_54:\n      dup2\n      add\n      swap1\n      dup1\n      dup1\n      calldataload\n      0xffffffffffffffffffffffffffffffffffffffff\n      and\n      swap1\n      0x20\n      add\n      swap1\n      swap3\n      swap2\n      swap1\n      dup1\n      calldataload\n      swap1\n      0x20\n      add\n      swap1\n      0x0100000000\n      dup2\n      gt\n      iszero\n      tag_55\n      jumpi\n      0x00\n      dup1\n      revert\n    tag_55:\n      dup3\n      add\n      dup4\n      0x20\n      dup3\n      add\n      gt\n      iszero\n      tag_56\n      jumpi\n      0x00\n      dup1\n      revert\n    tag_56:\n      dup1\n      calldataload\n      swap1\n      0x20\n      add\n      swap2\n      dup5\n      0x01\n      dup4\n      mul\n      dup5\n      add\n      gt\n      0x0100000000\n      dup4\n      gt\n      or\n      iszero\n      tag_57\n      jumpi\n      0x00\n      dup1\n      revert\n    tag_57:\n      swap1\n      swap2\n      swap3\n      swap4\n      swap2\n      swap3\n      swap4\n      swap1\n      pop\n      pop\n      pop\n      tag_58\n      jump\t// in\n    tag_53:\n      stop\n        /* \"scalable-dex/contracts/src/toplevel_subcontracts/AllVerifiers.sol\":592:685  function initializerSize() external view override returns (uint256) {... */\n    tag_10:\n      tag_59\n      tag_60\n      jump\t// in\n    tag_59:\n      mload(0x40)\n      dup1\n      dup3\n      dup2\n      mstore\n      0x20\n      add\n      swap2\n      pop\n      pop\n      mload(0x40)\n      dup1\n      swap2\n      sub\n      swap1\n      return\n        /* \"scalable-dex/contracts/src/components/Verifiers.sol\":2159:2313  function announceVerifierRemovalIntent(address verifier) external {... */\n    tag_11:\n      tag_61\n      0x04\n      dup1\n      calldatasize\n      sub\n      0x20\n      dup2\n      lt\n      iszero\n      tag_62\n      jumpi\n      0x00\n      dup1\n      revert\n    tag_62:\n      dup2\n      add\n      swap1\n      dup1\n      dup1\n      calldataload\n      0xffffffffffffffffffffffffffffffffffffffff\n      and\n      swap1\n      0x20\n      add\n      swap1\n      swap3\n      swap2\n      swap1\n      pop\n      pop\n      pop\n      tag_63\n      jump\t// in\n    tag_61:\n      stop\n        /* \"scalable-dex/contracts/src/toplevel_subcontracts/AllVerifiers.sol\":465:586  function initialize(... */\n    tag_12:\n      tag_64\n      0x04\n      dup1\n      calldatasize\n      sub\n      0x20\n      dup2\n      lt\n      iszero\n      tag_65\n      jumpi\n      0x00\n      dup1\n      revert\n    tag_65:\n      dup2\n      add\n      swap1\n      dup1\n      dup1\n      calldataload\n      swap1\n      0x20\n      add\n      swap1\n      0x0100000000\n      dup2\n      gt\n      iszero\n      tag_66\n      jumpi\n      0x00\n      dup1\n      revert\n    tag_66:\n      dup3\n      add\n      dup4\n      0x20\n      dup3\n      add\n      gt\n      iszero\n      tag_67\n      jumpi\n      0x00\n      dup1\n      revert\n    tag_67:\n      dup1\n      calldataload\n      swap1\n      0x20\n      add\n      swap2\n      dup5\n      0x01\n      dup4\n      mul\n      dup5\n      add\n      gt\n      0x0100000000\n      dup4\n      gt\n      or\n      iszero\n      tag_68\n      jumpi\n      0x00\n      dup1\n      revert\n    tag_68:\n      swap1\n      swap2\n      swap3\n      swap4\n      swap2\n      swap3\n      swap4\n      swap1\n      pop\n      pop\n      pop\n      tag_69\n      jump\t// in\n    tag_64:\n      stop\n        /* \"scalable-dex/contracts/src/components/MainGovernance.sol\":1959:2082  function mainIsGovernor(address testGovernor) external view returns (bool) {... */\n    tag_13:\n      tag_70\n      0x04\n      dup1\n      calldatasize\n      sub\n      0x20\n      dup2\n      lt\n      iszero\n      tag_71\n      jumpi\n      0x00\n      dup1\n      revert\n    tag_71:\n      dup2\n      add\n      swap1\n      dup1\n      dup1\n      calldataload\n      0xffffffffffffffffffffffffffffffffffffffff\n      and\n      swap1\n      0x20\n      add\n      swap1\n      swap3\n      swap2\n      swap1\n      pop\n      pop\n      pop\n      tag_72\n      jump\t// in\n    tag_70:\n      mload(0x40)\n      dup1\n      dup3\n      iszero\n      iszero\n      dup2\n      mstore\n      0x20\n      add\n      swap2\n      pop\n      pop\n      mload(0x40)\n      dup1\n      swap2\n      sub\n      swap1\n      return\n        /* \"scalable-dex/contracts/src/components/Verifiers.sol\":1685:1813  function getRegisteredVerifiers() external view returns (address[] memory _verifers) {... */\n    tag_14:\n      tag_73\n      tag_74\n      jump\t// in\n    tag_73:\n      mload(0x40)\n      dup1\n      dup1\n      0x20\n      add\n      dup3\n      dup2\n      sub\n      dup3\n      mstore\n      dup4\n      dup2\n      dup2\n      mload\n      dup2\n      mstore\n      0x20\n      add\n      swap2\n      pop\n      dup1\n      mload\n      swap1\n      0x20\n      add\n      swap1\n      0x20\n      mul\n      dup1\n      dup4\n      dup4\n      0x00\n    tag_75:\n      dup4\n      dup2\n      lt\n      iszero\n      tag_77\n      jumpi\n      dup1\n      dup3\n      add\n      mload\n      dup2\n      dup5\n      add\n      mstore\n      0x20\n      dup2\n      add\n      swap1\n      pop\n      jump(tag_75)\n    tag_77:\n      pop\n      pop\n      pop\n      pop\n      swap1\n      pop\n      add\n      swap3\n      pop\n      pop\n      pop\n      mload(0x40)\n      dup1\n      swap2\n      sub\n      swap1\n      return\n        /* \"scalable-dex/contracts/src/components/MainGovernance.sol\":2410:2486  function mainCancelNomination() external {... */\n    tag_15:\n      tag_78\n      tag_79\n      jump\t// in\n    tag_78:\n      stop\n        /* \"scalable-dex/contracts/src/libraries/LibConstants.sol\":463:516  uint256 public constant DEPOSIT_CANCEL_DELAY = 2 days */\n    tag_16:\n      tag_80\n      tag_81\n      jump\t// in\n    tag_80:\n      mload(0x40)\n      dup1\n      dup3\n      dup2\n      mstore\n      0x20\n      add\n      swap2\n      pop\n      pop\n      mload(0x40)\n      dup1\n      swap2\n      sub\n      swap1\n      return\n        /* \"scalable-dex/contracts/src/components/Freezable.sol\":1292:1658  function unFreeze() external onlyFrozen onlyGovernance {... */\n    tag_17:\n      tag_82\n      tag_83\n      jump\t// in\n    tag_82:\n      stop\n        /* \"scalable-dex/contracts/src/components/MainGovernance.sol\":2088:2200  function mainNominateNewGovernor(address newGovernor) external {... */\n    tag_18:\n      tag_84\n      0x04\n      dup1\n      calldatasize\n      sub\n      0x20\n      dup2\n      lt\n      iszero\n      tag_85\n      jumpi\n      0x00\n      dup1\n      revert\n    tag_85:\n      dup2\n      add\n      swap1\n      dup1\n      dup1\n      calldataload\n      0xffffffffffffffffffffffffffffffffffffffff\n      and\n      swap1\n      0x20\n      add\n      swap1\n      swap3\n      swap2\n      swap1\n      pop\n      pop\n      pop\n      tag_86\n      jump\t// in\n    tag_84:\n      stop\n        /* \"scalable-dex/contracts/src/libraries/LibConstants.sol\":877:926  uint256 public constant UNFREEZE_DELAY = 365 days */\n    tag_19:\n      tag_87\n      tag_88\n      jump\t// in\n    tag_87:\n      mload(0x40)\n      dup1\n      dup3\n      dup2\n      mstore\n      0x20\n      add\n      swap2\n      pop\n      pop\n      mload(0x40)\n      dup1\n      swap2\n      sub\n      swap1\n      return\n        /* \"scalable-dex/contracts/src/components/MainGovernance.sol\":2206:2322  function mainRemoveGovernor(address governorForRemoval) external {... */\n    tag_20:\n      tag_89\n      0x04\n      dup1\n      calldatasize\n      sub\n      0x20\n      dup2\n      lt\n      iszero\n      tag_90\n      jumpi\n      0x00\n      dup1\n      revert\n    tag_90:\n      dup2\n      add\n      swap1\n      dup1\n      dup1\n      calldataload\n      0xffffffffffffffffffffffffffffffffffffffff\n      and\n      swap1\n      0x20\n      add\n      swap1\n      swap3\n      swap2\n      swap1\n      pop\n      pop\n      pop\n      tag_91\n      jump\t// in\n    tag_89:\n      stop\n        /* \"scalable-dex/contracts/src/components/AvailabilityVerifiers.sol\":2784:2913  function removeAvailabilityVerifier(address verifier) external {... */\n    tag_21:\n      tag_92\n      0x04\n      dup1\n      calldatasize\n      sub\n      0x20\n      dup2\n      lt\n      iszero\n      tag_93\n      jumpi\n      0x00\n      dup1\n      revert\n    tag_93:\n      dup2\n      add\n      swap1\n      dup1\n      dup1\n      calldataload\n      0xffffffffffffffffffffffffffffffffffffffff\n      and\n      swap1\n      0x20\n      add\n      swap1\n      swap3\n      swap2\n      swap1\n      pop\n      pop\n      pop\n      tag_94\n      jump\t// in\n    tag_92:\n      stop\n        /* \"scalable-dex/contracts/src/libraries/LibConstants.sol\":1128:1208  uint256 public constant VERIFIER_REMOVAL_DELAY = FREEZE_GRACE_PERIOD + (21 days) */\n    tag_22:\n      tag_95\n      tag_96\n      jump\t// in\n    tag_95:\n      mload(0x40)\n      dup1\n      dup3\n      dup2\n      mstore\n      0x20\n      add\n      swap2\n      pop\n      pop\n      mload(0x40)\n      dup1\n      swap2\n      sub\n      swap1\n      return\n        /* \"scalable-dex/contracts/src/components/AvailabilityVerifiers.sol\":2212:2400  function isAvailabilityVerifier(address verifierAddress) external view returns (bool) {... */\n    tag_23:\n      tag_97\n      0x04\n      dup1\n      calldatasize\n      sub\n      0x20\n      dup2\n      lt\n      iszero\n      tag_98\n      jumpi\n      0x00\n      dup1\n      revert\n    tag_98:\n      dup2\n      add\n      swap1\n      dup1\n      dup1\n      calldataload\n      0xffffffffffffffffffffffffffffffffffffffff\n      and\n      swap1\n      0x20\n      add\n      swap1\n      swap3\n      swap2\n      swap1\n      pop\n      pop\n      pop\n      tag_99\n      jump\t// in\n    tag_97:\n      mload(0x40)\n      dup1\n      dup3\n      iszero\n      iszero\n      dup2\n      mstore\n      0x20\n      add\n      swap2\n      pop\n      pop\n      mload(0x40)\n      dup1\n      swap2\n      sub\n      swap1\n      return\n        /* \"scalable-dex/contracts/src/components/AvailabilityVerifiers.sol\":2406:2594  function registerAvailabilityVerifier(address verifier, string calldata identifier) external {... */\n    tag_24:\n      tag_100\n      0x04\n      dup1\n      calldatasize\n      sub\n      0x40\n      dup2\n      lt\n      iszero\n      tag_101\n      jumpi\n      0x00\n      dup1\n      revert\n    tag_101:\n      dup2\n      add\n      swap1\n      dup1\n      dup1\n      calldataload\n      0xffffffffffffffffffffffffffffffffffffffff\n      and\n      swap1\n      0x20\n      add\n      swap1\n      swap3\n      swap2\n      swap1\n      dup1\n      calldataload\n      swap1\n      0x20\n      add\n      swap1\n      0x0100000000\n      dup2\n      gt\n      iszero\n      tag_102\n      jumpi\n      0x00\n      dup1\n      revert\n    tag_102:\n      dup3\n      add\n      dup4\n      0x20\n      dup3\n      add\n      gt\n      iszero\n      tag_103\n      jumpi\n      0x00\n      dup1\n      revert\n    tag_103:\n      dup1\n      calldataload\n      swap1\n      0x20\n      add\n      swap2\n      dup5\n      0x01\n      dup4\n      mul\n      dup5\n      add\n      gt\n      0x0100000000\n      dup4\n      gt\n      or\n      iszero\n      tag_104\n      jumpi\n      0x00\n      dup1\n      revert\n    tag_104:\n      swap1\n      swap2\n      swap3\n      swap4\n      swap2\n      swap3\n      swap4\n      swap1\n      pop\n      pop\n      pop\n      tag_105\n      jump\t// in\n    tag_100:\n      stop\n        /* \"scalable-dex/contracts/src/components/MainGovernance.sol\":1730:1820  string public constant MAIN_GOVERNANCE_INFO_TAG = \"StarkEx.Main.2019.GovernorsInformation\" */\n    tag_25:\n      tag_106\n      tag_107\n      jump\t// in\n    tag_106:\n      mload(0x40)\n      dup1\n      dup1\n      0x20\n      add\n      dup3\n      dup2\n      sub\n      dup3\n      mstore\n      dup4\n      dup2\n      dup2\n      mload\n      dup2\n      mstore\n      0x20\n      add\n      swap2\n      pop\n      dup1\n      mload\n      swap1\n      0x20\n      add\n      swap1\n      dup1\n      dup4\n      dup4\n      0x00\n    tag_108:\n      dup4\n      dup2\n      lt\n      iszero\n      tag_110\n      jumpi\n      dup1\n      dup3\n      add\n      mload\n      dup2\n      dup5\n      add\n      mstore\n      0x20\n      dup2\n      add\n      swap1\n      pop\n      jump(tag_108)\n    tag_110:\n      pop\n      pop\n      pop\n      pop\n      swap1\n      pop\n      swap1\n      dup2\n      add\n      swap1\n      0x1f\n      and\n      dup1\n      iszero\n      tag_111\n      jumpi\n      dup1\n      dup3\n      sub\n      dup1\n      mload\n      0x01\n      dup4\n      0x20\n      sub\n      0x0100\n      exp\n      sub\n      not\n      and\n      dup2\n      mstore\n      0x20\n      add\n      swap2\n      pop\n    tag_111:\n      pop\n      swap3\n      pop\n      pop\n      pop\n      mload(0x40)\n      dup1\n      swap2\n      sub\n      swap1\n      return\n        /* \"scalable-dex/contracts/src/components/Verifiers.sol\":2319:2424  function removeVerifier(address verifier) external {... */\n    tag_26:\n      tag_112\n      0x04\n      dup1\n      calldatasize\n      sub\n      0x20\n      dup2\n      lt\n      iszero\n      tag_113\n      jumpi\n      0x00\n      dup1\n      revert\n    tag_113:\n      dup2\n      add\n      swap1\n      dup1\n      dup1\n      calldataload\n      0xffffffffffffffffffffffffffffffffffffffff\n      and\n      swap1\n      0x20\n      add\n      swap1\n      swap3\n      swap2\n      swap1\n      pop\n      pop\n      pop\n      tag_114\n      jump\t// in\n    tag_112:\n      stop\n        /* \"scalable-dex/contracts/src/libraries/LibConstants.sol\":1696:1758  uint256 public constant MAX_FORCED_ACTIONS_REQS_PER_BLOCK = 10 */\n    tag_27:\n      tag_115\n      tag_116\n      jump\t// in\n    tag_115:\n      mload(0x40)\n      dup1\n      dup3\n      dup2\n      mstore\n      0x20\n      add\n      swap2\n      pop\n      pop\n      mload(0x40)\n      dup1\n      swap2\n      sub\n      swap1\n      return\n        /* \"scalable-dex/contracts/src/libraries/LibConstants.sol\":988:1044  uint256 public constant MAX_VERIFIER_COUNT = uint256(64) */\n    tag_28:\n      tag_117\n      tag_118\n      jump\t// in\n    tag_117:\n      mload(0x40)\n      dup1\n      dup3\n      dup2\n      mstore\n      0x20\n      add\n      swap2\n      pop\n      pop\n      mload(0x40)\n      dup1\n      swap2\n      sub\n      swap1\n      return\n        /* \"scalable-dex/contracts/src/toplevel_subcontracts/AllVerifiers.sol\":691:813  function identify() external pure override returns (string memory) {... */\n    tag_29:\n      tag_119\n      tag_120\n      jump\t// in\n    tag_119:\n      mload(0x40)\n      dup1\n      dup1\n      0x20\n      add\n      dup3\n      dup2\n      sub\n      dup3\n      mstore\n      dup4\n      dup2\n      dup2\n      mload\n      dup2\n      mstore\n      0x20\n      add\n      swap2\n      pop\n      dup1\n      mload\n      swap1\n      0x20\n      add\n      swap1\n      dup1\n      dup4\n      dup4\n      0x00\n    tag_121:\n      dup4\n      dup2\n      lt\n      iszero\n      tag_123\n      jumpi\n      dup1\n      dup3\n      add\n      mload\n      dup2\n      dup5\n      add\n      mstore\n      0x20\n      dup2\n      add\n      swap1\n      pop\n      jump(tag_121)\n    tag_123:\n      pop\n      pop\n      pop\n      pop\n      swap1\n      pop\n      swap1\n      dup2\n      add\n      swap1\n      0x1f\n      and\n      dup1\n      iszero\n      tag_124\n      jumpi\n      dup1\n      dup3\n      sub\n      dup1\n      mload\n      0x01\n      dup4\n      0x20\n      sub\n      0x0100\n      exp\n      sub\n      not\n      and\n      dup2\n      mstore\n      0x20\n      add\n      swap2\n      pop\n    tag_124:\n      pop\n      swap3\n      pop\n      pop\n      pop\n      mload(0x40)\n      dup1\n      swap2\n      sub\n      swap1\n      return\n        /* \"scalable-dex/contracts/src/libraries/LibConstants.sol\":650:702  uint256 public constant FREEZE_GRACE_PERIOD = 7 days */\n    tag_37:\n        /* \"scalable-dex/contracts/src/libraries/LibConstants.sol\":696:702  7 days */\n      0x093a80\n        /* \"scalable-dex/contracts/src/libraries/LibConstants.sol\":650:702  uint256 public constant FREEZE_GRACE_PERIOD = 7 days */\n      dup2\n      jump\t// out\n        /* \"scalable-dex/contracts/src/components/AvailabilityVerifiers.sol\":2026:2206  function getRegisteredAvailabilityVerifiers()... */\n    tag_39:\n        /* \"scalable-dex/contracts/src/components/AvailabilityVerifiers.sol\":2119:2145  address[] memory _verifers */\n      0x60\n        /* \"scalable-dex/contracts/src/components/AvailabilityVerifiers.sol\":2168:2194  availabilityVerifiersChain */\n      0x1b\n        /* \"scalable-dex/contracts/src/components/AvailabilityVerifiers.sol\":2168:2199  availabilityVerifiersChain.list */\n      0x00\n      add\n        /* \"scalable-dex/contracts/src/components/AvailabilityVerifiers.sol\":2161:2199  return availabilityVerifiersChain.list */\n      dup1\n      sload\n      dup1\n      0x20\n      mul\n      0x20\n      add\n      mload(0x40)\n      swap1\n      dup2\n      add\n      0x40\n      mstore\n      dup1\n      swap3\n      swap2\n      swap1\n      dup2\n      dup2\n      mstore\n      0x20\n      add\n      dup3\n      dup1\n      sload\n      dup1\n      iszero\n      tag_126\n      jumpi\n      0x20\n      mul\n      dup3\n      add\n      swap2\n      swap1\n      0x00\n      mstore\n      keccak256(0x00, 0x20)\n      swap1\n    tag_127:\n      dup2\n      0x00\n      swap1\n      sload\n      swap1\n      0x0100\n      exp\n      swap1\n      div\n      0xffffffffffffffffffffffffffffffffffffffff\n      and\n      0xffffffffffffffffffffffffffffffffffffffff\n      and\n      dup2\n      mstore\n      0x20\n      add\n      swap1\n      0x01\n      add\n      swap1\n      dup1\n      dup4\n      gt\n      tag_127\n      jumpi\n    tag_126:\n      pop\n      pop\n      pop\n      pop\n      pop\n      swap1\n      pop\n        /* \"scalable-dex/contracts/src/components/AvailabilityVerifiers.sol\":2026:2206  function getRegisteredAvailabilityVerifiers()... */\n      swap1\n      jump\t// out\n        /* \"scalable-dex/contracts/src/components/AvailabilityVerifiers.sol\":2600:2778  function announceAvailabilityVerifierRemovalIntent(address verifier) external {... */\n    tag_45:\n        /* \"scalable-dex/contracts/src/components/AvailabilityVerifiers.sol\":2688:2771  announceRemovalIntent(availabilityVerifiersChain, verifier, VERIFIER_REMOVAL_DELAY) */\n      tag_129\n        /* \"scalable-dex/contracts/src/components/AvailabilityVerifiers.sol\":2710:2736  availabilityVerifiersChain */\n      0x1b\n        /* \"scalable-dex/contracts/src/components/AvailabilityVerifiers.sol\":2738:2746  verifier */\n      dup3\n        /* \"scalable-dex/contracts/src/libraries/LibConstants.sol\":1200:1207  21 days */\n      0x1baf80\n        /* \"scalable-dex/contracts/src/libraries/LibConstants.sol\":696:702  7 days */\n      0x093a80\n        /* \"scalable-dex/contracts/src/libraries/LibConstants.sol\":1177:1208  FREEZE_GRACE_PERIOD + (21 days) */\n      add\n        /* \"scalable-dex/contracts/src/components/AvailabilityVerifiers.sol\":2688:2709  announceRemovalIntent */\n      tag_130\n        /* \"scalable-dex/contracts/src/components/AvailabilityVerifiers.sol\":2688:2771  announceRemovalIntent(availabilityVerifiersChain, verifier, VERIFIER_REMOVAL_DELAY) */\n      jump\t// in\n    tag_129:\n        /* \"scalable-dex/contracts/src/components/AvailabilityVerifiers.sol\":2600:2778  function announceAvailabilityVerifierRemovalIntent(address verifier) external {... */\n      pop\n      jump\t// out\n        /* \"scalable-dex/contracts/src/components/MainGovernance.sol\":2328:2404  function mainAcceptGovernance() external {... */\n    tag_47:\n        /* \"scalable-dex/contracts/src/components/MainGovernance.sol\":2379:2397  acceptGovernance() */\n      tag_132\n        /* \"scalable-dex/contracts/src/components/MainGovernance.sol\":2379:2395  acceptGovernance */\n      tag_133\n        /* \"scalable-dex/contracts/src/components/MainGovernance.sol\":2379:2397  acceptGovernance() */\n      jump\t// in\n    tag_132:\n        /* \"scalable-dex/contracts/src/components/MainGovernance.sol\":2328:2404  function mainAcceptGovernance() external {... */\n      jump\t// out\n        /* \"scalable-dex/contracts/src/components/Verifiers.sol\":1819:1983  function isVerifier(address verifierAddress) external view returns (bool) {... */\n    tag_50:\n        /* \"scalable-dex/contracts/src/components/Verifiers.sol\":1887:1891  bool */\n      0x00\n        /* \"scalable-dex/contracts/src/interfaces/MApprovalChain.sol\":297:299  ~0 */\n      0xffffffffffffffffffffffffffffffffffffffffffffffffffffffffffffffff\n        /* \"scalable-dex/contracts/src/components/Verifiers.sol\":1910:1957  findEntry(verifiersChain.list, verifierAddress) */\n      tag_135\n        /* \"scalable-dex/contracts/src/components/Verifiers.sol\":1920:1934  verifiersChain */\n      0x19\n        /* \"scalable-dex/contracts/src/components/Verifiers.sol\":1920:1939  verifiersChain.list */\n      0x00\n      add\n        /* \"scalable-dex/contracts/src/components/Verifiers.sol\":1941:1956  verifierAddress */\n      dup5\n        /* \"scalable-dex/contracts/src/components/Verifiers.sol\":1910:1919  findEntry */\n      tag_136\n        /* \"scalable-dex/contracts/src/components/Verifiers.sol\":1910:1957  findEntry(verifiersChain.list, verifierAddress) */\n      jump\t// in\n    tag_135:\n        /* \"scalable-dex/contracts/src/components/Verifiers.sol\":1910:1976  findEntry(verifiersChain.list, verifierAddress) != ENTRY_NOT_FOUND */\n      eq\n      iszero\n        /* \"scalable-dex/contracts/src/components/Verifiers.sol\":1903:1976  return findEntry(verifiersChain.list, verifierAddress) != ENTRY_NOT_FOUND */\n      swap1\n      pop\n        /* \"scalable-dex/contracts/src/components/Verifiers.sol\":1819:1983  function isVerifier(address verifierAddress) external view returns (bool) {... */\n      swap2\n      swap1\n      pop\n      jump\t// out\n        /* \"scalable-dex/contracts/src/components/Freezable.sol\":382:473  function isFrozen() public view override returns (bool) {... */\n    tag_52:\n        /* \"scalable-dex/contracts/src/components/Freezable.sol\":432:436  bool */\n      0x00\n        /* \"scalable-dex/contracts/src/components/Freezable.sol\":455:466  stateFrozen */\n      0x04\n      0x14\n      swap1\n      sload\n      swap1\n      0x0100\n      exp\n      swap1\n      div\n      0xff\n      and\n        /* \"scalable-dex/contracts/src/components/Freezable.sol\":448:466  return stateFrozen */\n      swap1\n      pop\n        /* \"scalable-dex/contracts/src/components/Freezable.sol\":382:473  function isFrozen() public view override returns (bool) {... */\n      swap1\n      jump\t// out\n        /* \"scalable-dex/contracts/src/components/Verifiers.sol\":1989:2153  function registerVerifier(address verifier, string calldata identifier) external {... */\n    tag_58:\n        /* \"scalable-dex/contracts/src/components/Verifiers.sol\":2080:2146  addEntry(verifiersChain, verifier, MAX_VERIFIER_COUNT, identifier) */\n      tag_139\n        /* \"scalable-dex/contracts/src/components/Verifiers.sol\":2089:2103  verifiersChain */\n      0x19\n        /* \"scalable-dex/contracts/src/components/Verifiers.sol\":2105:2113  verifier */\n      dup5\n        /* \"scalable-dex/contracts/src/libraries/LibConstants.sol\":1041:1043  64 */\n      0x40\n        /* \"scalable-dex/contracts/src/components/Verifiers.sol\":2135:2145  identifier */\n      dup6\n      dup6\n        /* \"scalable-dex/contracts/src/components/Verifiers.sol\":2080:2146  addEntry(verifiersChain, verifier, MAX_VERIFIER_COUNT, identifier) */\n      dup1\n      dup1\n      0x1f\n      add\n      0x20\n      dup1\n      swap2\n      div\n      mul\n      0x20\n      add\n      mload(0x40)\n      swap1\n      dup2\n      add\n      0x40\n      mstore\n      dup1\n      swap4\n      swap3\n      swap2\n      swap1\n      dup2\n      dup2\n      mstore\n      0x20\n      add\n      dup4\n      dup4\n      dup1\n      dup3\n      dup5\n      calldatacopy\n      0x00\n      dup2\n      dup5\n      add\n      mstore\n      not(0x1f)\n      0x1f\n      dup3\n      add\n      and\n      swap1\n      pop\n      dup1\n      dup4\n      add\n      swap3\n      pop\n      pop\n      pop\n      pop\n      pop\n      pop\n      pop\n        /* \"scalable-dex/contracts/src/components/Verifiers.sol\":2080:2088  addEntry */\n      tag_140\n        /* \"scalable-dex/contracts/src/components/Verifiers.sol\":2080:2146  addEntry(verifiersChain, verifier, MAX_VERIFIER_COUNT, identifier) */\n      jump\t// in\n    tag_139:\n        /* \"scalable-dex/contracts/src/components/Verifiers.sol\":1989:2153  function registerVerifier(address verifier, string calldata identifier) external {... */\n      pop\n      pop\n      pop\n      jump\t// out\n        /* \"scalable-dex/contracts/src/toplevel_subcontracts/AllVerifiers.sol\":592:685  function initializerSize() external view override returns (uint256) {... */\n    tag_60:\n        /* \"scalable-dex/contracts/src/toplevel_subcontracts/AllVerifiers.sol\":651:658  uint256 */\n      0x00\n        /* \"scalable-dex/contracts/src/toplevel_subcontracts/AllVerifiers.sol\":592:685  function initializerSize() external view override returns (uint256) {... */\n      swap1\n      jump\t// out\n        /* \"scalable-dex/contracts/src/components/Verifiers.sol\":2159:2313  function announceVerifierRemovalIntent(address verifier) external {... */\n    tag_63:\n        /* \"scalable-dex/contracts/src/components/Verifiers.sol\":2235:2306  announceRemovalIntent(verifiersChain, verifier, VERIFIER_REMOVAL_DELAY) */\n      tag_143\n        /* \"scalable-dex/contracts/src/components/Verifiers.sol\":2257:2271  verifiersChain */\n      0x19\n        /* \"scalable-dex/contracts/src/components/Verifiers.sol\":2273:2281  verifier */\n      dup3\n        /* \"scalable-dex/contracts/src/libraries/LibConstants.sol\":1200:1207  21 days */\n      0x1baf80\n        /* \"scalable-dex/contracts/src/libraries/LibConstants.sol\":696:702  7 days */\n      0x093a80\n        /* \"scalable-dex/contracts/src/libraries/LibConstants.sol\":1177:1208  FREEZE_GRACE_PERIOD + (21 days) */\n      add\n        /* \"scalable-dex/contracts/src/components/Verifiers.sol\":2235:2256  announceRemovalIntent */\n      tag_130\n        /* \"scalable-dex/contracts/src/components/Verifiers.sol\":2235:2306  announceRemovalIntent(verifiersChain, verifier, VERIFIER_REMOVAL_DELAY) */\n      jump\t// in\n    tag_143:\n        /* \"scalable-dex/contracts/src/components/Verifiers.sol\":2159:2313  function announceVerifierRemovalIntent(address verifier) external {... */\n      pop\n      jump\t// out\n        /* \"scalable-dex/contracts/src/toplevel_subcontracts/AllVerifiers.sol\":465:586  function initialize(... */\n    tag_69:\n        /* \"scalable-dex/contracts/src/toplevel_subcontracts/AllVerifiers.sol\":554:579  revert(\"NOT_IMPLEMENTED\") */\n      mload(0x40)\n      0x08c379a000000000000000000000000000000000000000000000000000000000\n      dup2\n      mstore\n      0x04\n      add\n      dup1\n      dup1\n      0x20\n      add\n      dup3\n      dup2\n      sub\n      dup3\n      mstore\n      0x0f\n      dup2\n      mstore\n      0x20\n      add\n      dup1\n      0x4e4f545f494d504c454d454e5445440000000000000000000000000000000000\n      dup2\n      mstore\n      pop\n      0x20\n      add\n      swap2\n      pop\n      pop\n      mload(0x40)\n      dup1\n      swap2\n      sub\n      swap1\n      revert\n        /* \"scalable-dex/contracts/src/components/MainGovernance.sol\":1959:2082  function mainIsGovernor(address testGovernor) external view returns (bool) {... */\n    tag_72:\n        /* \"scalable-dex/contracts/src/components/MainGovernance.sol\":2028:2032  bool */\n      0x00\n        /* \"scalable-dex/contracts/src/components/MainGovernance.sol\":2051:2075  isGovernor(testGovernor) */\n      tag_146\n        /* \"scalable-dex/contracts/src/components/MainGovernance.sol\":2062:2074  testGovernor */\n      dup3\n        /* \"scalable-dex/contracts/src/components/MainGovernance.sol\":2051:2061  isGovernor */\n      tag_147\n        /* \"scalable-dex/contracts/src/components/MainGovernance.sol\":2051:2075  isGovernor(testGovernor) */\n      jump\t// in\n    tag_146:\n        /* \"scalable-dex/contracts/src/components/MainGovernance.sol\":2044:2075  return isGovernor(testGovernor) */\n      swap1\n      pop\n        /* \"scalable-dex/contracts/src/components/MainGovernance.sol\":1959:2082  function mainIsGovernor(address testGovernor) external view returns (bool) {... */\n      swap2\n      swap1\n      pop\n      jump\t// out\n        /* \"scalable-dex/contracts/src/components/Verifiers.sol\":1685:1813  function getRegisteredVerifiers() external view returns (address[] memory _verifers) {... */\n    tag_74:\n        /* \"scalable-dex/contracts/src/components/Verifiers.sol\":1742:1768  address[] memory _verifers */\n      0x60\n        /* \"scalable-dex/contracts/src/components/Verifiers.sol\":1787:1801  verifiersChain */\n      0x19\n        /* \"scalable-dex/contracts/src/components/Verifiers.sol\":1787:1806  verifiersChain.list */\n      0x00\n      add\n        /* \"scalable-dex/contracts/src/components/Verifiers.sol\":1780:1806  return verifiersChain.list */\n      dup1\n      sload\n      dup1\n      0x20\n      mul\n      0x20\n      add\n      mload(0x40)\n      swap1\n      dup2\n      add\n      0x40\n      mstore\n      dup1\n      swap3\n      swap2\n      swap1\n      dup2\n      dup2\n      mstore\n      0x20\n      add\n      dup3\n      dup1\n      sload\n      dup1\n      iszero\n      tag_149\n      jumpi\n      0x20\n      mul\n      dup3\n      add\n      swap2\n      swap1\n      0x00\n      mstore\n      keccak256(0x00, 0x20)\n      swap1\n    tag_150:\n      dup2\n      0x00\n      swap1\n      sload\n      swap1\n      0x0100\n      exp\n      swap1\n      div\n      0xffffffffffffffffffffffffffffffffffffffff\n      and\n      0xffffffffffffffffffffffffffffffffffffffff\n      and\n      dup2\n      mstore\n      0x20\n      add\n      swap1\n      0x01\n      add\n      swap1\n      dup1\n      dup4\n      gt\n      tag_150\n      jumpi\n    tag_149:\n      pop\n      pop\n      pop\n      pop\n      pop\n      swap1\n      pop\n        /* \"scalable-dex/contracts/src/components/Verifiers.sol\":1685:1813  function getRegisteredVerifiers() external view returns (address[] memory _verifers) {... */\n      swap1\n      jump\t// out\n        /* \"scalable-dex/contracts/src/components/MainGovernance.sol\":2410:2486  function mainCancelNomination() external {... */\n    tag_79:\n        /* \"scalable-dex/contracts/src/components/MainGovernance.sol\":2461:2479  cancelNomination() */\n      tag_152\n        /* \"scalable-dex/contracts/src/components/MainGovernance.sol\":2461:2477  cancelNomination */\n      tag_153\n        /* \"scalable-dex/contracts/src/components/MainGovernance.sol\":2461:2479  cancelNomination() */\n      jump\t// in\n    tag_152:\n        /* \"scalable-dex/contracts/src/components/MainGovernance.sol\":2410:2486  function mainCancelNomination() external {... */\n      jump\t// out\n        /* \"scalable-dex/contracts/src/libraries/LibConstants.sol\":463:516  uint256 public constant DEPOSIT_CANCEL_DELAY = 2 days */\n    tag_81:\n        /* \"scalable-dex/contracts/src/libraries/LibConstants.sol\":510:516  2 days */\n      0x02a300\n        /* \"scalable-dex/contracts/src/libraries/LibConstants.sol\":463:516  uint256 public constant DEPOSIT_CANCEL_DELAY = 2 days */\n      dup2\n      jump\t// out\n        /* \"scalable-dex/contracts/src/components/Freezable.sol\":1292:1658  function unFreeze() external onlyFrozen onlyGovernance {... */\n    tag_83:\n        /* \"scalable-dex/contracts/src/interfaces/MFreezable.sol\":617:627  isFrozen() */\n      tag_155\n        /* \"scalable-dex/contracts/src/interfaces/MFreezable.sol\":617:625  isFrozen */\n      tag_52\n        /* \"scalable-dex/contracts/src/interfaces/MFreezable.sol\":617:627  isFrozen() */\n      jump\t// in\n    tag_155:\n        /* \"scalable-dex/contracts/src/interfaces/MFreezable.sol\":609:648  require(isFrozen(), \"STATE_NOT_FROZEN\") */\n      tag_156\n      jumpi\n      mload(0x40)\n      0x08c379a000000000000000000000000000000000000000000000000000000000\n      dup2\n      mstore\n      0x04\n      add\n      dup1\n      dup1\n      0x20\n      add\n      dup3\n      dup2\n      sub\n      dup3\n      mstore\n      0x10\n      dup2\n      mstore\n      0x20\n      add\n      dup1\n      0x53544154455f4e4f545f46524f5a454e00000000000000000000000000000000\n      dup2\n      mstore\n      pop\n      0x20\n      add\n      swap2\n      pop\n      pop\n      mload(0x40)\n      dup1\n      swap2\n      sub\n      swap1\n      revert\n    tag_156:\n        /* \"scalable-dex/contracts/src/interfaces/MGovernance.sol\":299:321  isGovernor(msg.sender) */\n      tag_158\n        /* \"scalable-dex/contracts/src/interfaces/MGovernance.sol\":310:320  msg.sender */\n      caller\n        /* \"scalable-dex/contracts/src/interfaces/MGovernance.sol\":299:309  isGovernor */\n      tag_147\n        /* \"scalable-dex/contracts/src/interfaces/MGovernance.sol\":299:321  isGovernor(msg.sender) */\n      jump\t// in\n    tag_158:\n        /* \"scalable-dex/contracts/src/interfaces/MGovernance.sol\":291:341  require(isGovernor(msg.sender), \"ONLY_GOVERNANCE\") */\n      tag_159\n      jumpi\n      mload(0x40)\n      0x08c379a000000000000000000000000000000000000000000000000000000000\n      dup2\n      mstore\n      0x04\n      add\n      dup1\n      dup1\n      0x20\n      add\n      dup3\n      dup2\n      sub\n      dup3\n      mstore\n      0x0f\n      dup2\n      mstore\n      0x20\n      add\n      dup1\n      0x4f4e4c595f474f5645524e414e43450000000000000000000000000000000000\n      dup2\n      mstore\n      pop\n      0x20\n      add\n      swap2\n      pop\n      pop\n      mload(0x40)\n      dup1\n      swap2\n      sub\n      swap1\n      revert\n    tag_159:\n        /* \"scalable-dex/contracts/src/components/Freezable.sol\":1384:1396  unFreezeTime */\n      sload(0x05)\n        /* \"scalable-dex/contracts/src/components/Freezable.sol\":1365:1380  block.timestamp */\n      timestamp\n        /* \"scalable-dex/contracts/src/components/Freezable.sol\":1365:1396  block.timestamp >= unFreezeTime */\n      lt\n      iszero\n        /* \"scalable-dex/contracts/src/components/Freezable.sol\":1357:1425  require(block.timestamp >= unFreezeTime, \"UNFREEZE_NOT_ALLOWED_YET\") */\n      tag_161\n      jumpi\n      mload(0x40)\n      0x08c379a000000000000000000000000000000000000000000000000000000000\n      dup2\n      mstore\n      0x04\n      add\n      dup1\n      dup1\n      0x20\n      add\n      dup3\n      dup2\n      sub\n      dup3\n      mstore\n      0x18\n      dup2\n      mstore\n      0x20\n      add\n      dup1\n      0x554e465245455a455f4e4f545f414c4c4f5745445f5945540000000000000000\n      dup2\n      mstore\n      pop\n      0x20\n      add\n      swap2\n      pop\n      pop\n      mload(0x40)\n      dup1\n      swap2\n      sub\n      swap1\n      revert\n    tag_161:\n        /* \"scalable-dex/contracts/src/components/Freezable.sol\":1475:1480  false */\n      0x00\n        /* \"scalable-dex/contracts/src/components/Freezable.sol\":1461:1472  stateFrozen */\n      0x04\n      0x14\n        /* \"scalable-dex/contracts/src/components/Freezable.sol\":1461:1480  stateFrozen = false */\n      0x0100\n      exp\n      dup2\n      sload\n      dup2\n      0xff\n      mul\n      not\n      and\n      swap1\n      dup4\n      iszero\n      iszero\n      mul\n      or\n      swap1\n      sstore\n      pop\n        /* \"scalable-dex/contracts/src/components/Freezable.sol\":1575:1576  1 */\n      0x01\n        /* \"scalable-dex/contracts/src/components/Freezable.sol\":1562:1571  vaultRoot */\n      0x0d\n      0x00\n        /* \"scalable-dex/contracts/src/components/Freezable.sol\":1562:1576  vaultRoot += 1 */\n      dup3\n      dup3\n      sload\n      add\n      swap3\n      pop\n      pop\n      dup2\n      swap1\n      sstore\n      pop\n        /* \"scalable-dex/contracts/src/components/Freezable.sol\":1599:1600  1 */\n      0x01\n        /* \"scalable-dex/contracts/src/components/Freezable.sol\":1586:1595  orderRoot */\n      0x0f\n      0x00\n        /* \"scalable-dex/contracts/src/components/Freezable.sol\":1586:1600  orderRoot += 1 */\n      dup3\n      dup3\n      sload\n      add\n      swap3\n      pop\n      pop\n      dup2\n      swap1\n      sstore\n      pop\n        /* \"scalable-dex/contracts/src/components/Freezable.sol\":1638:1651  LogUnFrozen() */\n      0x07017fe9180629cfffba412f65a9affcf9a121de02294179f5c058f881dcc9f8\n      mload(0x40)\n      mload(0x40)\n      dup1\n      swap2\n      sub\n      swap1\n      log1\n        /* \"scalable-dex/contracts/src/components/Freezable.sol\":1292:1658  function unFreeze() external onlyFrozen onlyGovernance {... */\n      jump\t// out\n        /* \"scalable-dex/contracts/src/components/MainGovernance.sol\":2088:2200  function mainNominateNewGovernor(address newGovernor) external {... */\n    tag_86:\n        /* \"scalable-dex/contracts/src/components/MainGovernance.sol\":2161:2193  nominateNewGovernor(newGovernor) */\n      tag_163\n        /* \"scalable-dex/contracts/src/components/MainGovernance.sol\":2181:2192  newGovernor */\n      dup2\n        /* \"scalable-dex/contracts/src/components/MainGovernance.sol\":2161:2180  nominateNewGovernor */\n      tag_164\n        /* \"scalable-dex/contracts/src/components/MainGovernance.sol\":2161:2193  nominateNewGovernor(newGovernor) */\n      jump\t// in\n    tag_163:\n        /* \"scalable-dex/contracts/src/components/MainGovernance.sol\":2088:2200  function mainNominateNewGovernor(address newGovernor) external {... */\n      pop\n      jump\t// out\n        /* \"scalable-dex/contracts/src/libraries/LibConstants.sol\":877:926  uint256 public constant UNFREEZE_DELAY = 365 days */\n    tag_88:\n        /* \"scalable-dex/contracts/src/libraries/LibConstants.sol\":918:926  365 days */\n      0x01e13380\n        /* \"scalable-dex/contracts/src/libraries/LibConstants.sol\":877:926  uint256 public constant UNFREEZE_DELAY = 365 days */\n      dup2\n      jump\t// out\n        /* \"scalable-dex/contracts/src/components/MainGovernance.sol\":2206:2322  function mainRemoveGovernor(address governorForRemoval) external {... */\n    tag_91:\n        /* \"scalable-dex/contracts/src/components/MainGovernance.sol\":2281:2315  removeGovernor(governorForRemoval) */\n      tag_166\n        /* \"scalable-dex/contracts/src/components/MainGovernance.sol\":2296:2314  governorForRemoval */\n      dup2\n        /* \"scalable-dex/contracts/src/components/MainGovernance.sol\":2281:2295  removeGovernor */\n      tag_167\n        /* \"scalable-dex/contracts/src/components/MainGovernance.sol\":2281:2315  removeGovernor(governorForRemoval) */\n      jump\t// in\n    tag_166:\n        /* \"scalable-dex/contracts/src/components/MainGovernance.sol\":2206:2322  function mainRemoveGovernor(address governorForRemoval) external {... */\n      pop\n      jump\t// out\n        /* \"scalable-dex/contracts/src/components/AvailabilityVerifiers.sol\":2784:2913  function removeAvailabilityVerifier(address verifier) external {... */\n    tag_94:\n        /* \"scalable-dex/contracts/src/components/AvailabilityVerifiers.sol\":2857:2906  removeEntry(availabilityVerifiersChain, verifier) */\n      tag_169\n        /* \"scalable-dex/contracts/src/components/AvailabilityVerifiers.sol\":2869:2895  availabilityVerifiersChain */\n      0x1b\n        /* \"scalable-dex/contracts/src/components/AvailabilityVerifiers.sol\":2897:2905  verifier */\n      dup3\n        /* \"scalable-dex/contracts/src/components/AvailabilityVerifiers.sol\":2857:2868  removeEntry */\n      tag_170\n        /* \"scalable-dex/contracts/src/components/AvailabilityVerifiers.sol\":2857:2906  removeEntry(availabilityVerifiersChain, verifier) */\n      jump\t// in\n    tag_169:\n        /* \"scalable-dex/contracts/src/components/AvailabilityVerifiers.sol\":2784:2913  function removeAvailabilityVerifier(address verifier) external {... */\n      pop\n      jump\t// out\n        /* \"scalable-dex/contracts/src/libraries/LibConstants.sol\":1128:1208  uint256 public constant VERIFIER_REMOVAL_DELAY = FREEZE_GRACE_PERIOD + (21 days) */\n    tag_96:\n        /* \"scalable-dex/contracts/src/libraries/LibConstants.sol\":1200:1207  21 days */\n      0x1baf80\n        /* \"scalable-dex/contracts/src/libraries/LibConstants.sol\":696:702  7 days */\n      0x093a80\n        /* \"scalable-dex/contracts/src/libraries/LibConstants.sol\":1177:1208  FREEZE_GRACE_PERIOD + (21 days) */\n      add\n        /* \"scalable-dex/contracts/src/libraries/LibConstants.sol\":1128:1208  uint256 public constant VERIFIER_REMOVAL_DELAY = FREEZE_GRACE_PERIOD + (21 days) */\n      dup2\n      jump\t// out\n        /* \"scalable-dex/contracts/src/components/AvailabilityVerifiers.sol\":2212:2400  function isAvailabilityVerifier(address verifierAddress) external view returns (bool) {... */\n    tag_99:\n        /* \"scalable-dex/contracts/src/components/AvailabilityVerifiers.sol\":2292:2296  bool */\n      0x00\n        /* \"scalable-dex/contracts/src/interfaces/MApprovalChain.sol\":297:299  ~0 */\n      0xffffffffffffffffffffffffffffffffffffffffffffffffffffffffffffffff\n        /* \"scalable-dex/contracts/src/components/AvailabilityVerifiers.sol\":2315:2374  findEntry(availabilityVerifiersChain.list, verifierAddress) */\n      tag_172\n        /* \"scalable-dex/contracts/src/components/AvailabilityVerifiers.sol\":2325:2351  availabilityVerifiersChain */\n      0x1b\n        /* \"scalable-dex/contracts/src/components/AvailabilityVerifiers.sol\":2325:2356  availabilityVerifiersChain.list */\n      0x00\n      add\n        /* \"scalable-dex/contracts/src/components/AvailabilityVerifiers.sol\":2358:2373  verifierAddress */\n      dup5\n        /* \"scalable-dex/contracts/src/components/AvailabilityVerifiers.sol\":2315:2324  findEntry */\n      tag_136\n        /* \"scalable-dex/contracts/src/components/AvailabilityVerifiers.sol\":2315:2374  findEntry(availabilityVerifiersChain.list, verifierAddress) */\n      jump\t// in\n    tag_172:\n        /* \"scalable-dex/contracts/src/components/AvailabilityVerifiers.sol\":2315:2393  findEntry(availabilityVerifiersChain.list, verifierAddress) != ENTRY_NOT_FOUND */\n      eq\n      iszero\n        /* \"scalable-dex/contracts/src/components/AvailabilityVerifiers.sol\":2308:2393  return findEntry(availabilityVerifiersChain.list, verifierAddress) != ENTRY_NOT_FOUND */\n      swap1\n      pop\n        /* \"scalable-dex/contracts/src/components/AvailabilityVerifiers.sol\":2212:2400  function isAvailabilityVerifier(address verifierAddress) external view returns (bool) {... */\n      swap2\n      swap1\n      pop\n      jump\t// out\n        /* \"scalable-dex/contracts/src/components/AvailabilityVerifiers.sol\":2406:2594  function registerAvailabilityVerifier(address verifier, string calldata identifier) external {... */\n    tag_105:\n        /* \"scalable-dex/contracts/src/components/AvailabilityVerifiers.sol\":2509:2587  addEntry(availabilityVerifiersChain, verifier, MAX_VERIFIER_COUNT, identifier) */\n      tag_174\n        /* \"scalable-dex/contracts/src/components/AvailabilityVerifiers.sol\":2518:2544  availabilityVerifiersChain */\n      0x1b\n        /* \"scalable-dex/contracts/src/components/AvailabilityVerifiers.sol\":2546:2554  verifier */\n      dup5\n        /* \"scalable-dex/contracts/src/libraries/LibConstants.sol\":1041:1043  64 */\n      0x40\n        /* \"scalable-dex/contracts/src/components/AvailabilityVerifiers.sol\":2576:2586  identifier */\n      dup6\n      dup6\n        /* \"scalable-dex/contracts/src/components/AvailabilityVerifiers.sol\":2509:2587  addEntry(availabilityVerifiersChain, verifier, MAX_VERIFIER_COUNT, identifier) */\n      dup1\n      dup1\n      0x1f\n      add\n      0x20\n      dup1\n      swap2\n      div\n      mul\n      0x20\n      add\n      mload(0x40)\n      swap1\n      dup2\n      add\n      0x40\n      mstore\n      dup1\n      swap4\n      swap3\n      swap2\n      swap1\n      dup2\n      dup2\n      mstore\n      0x20\n      add\n      dup4\n      dup4\n      dup1\n      dup3\n      dup5\n      calldatacopy\n      0x00\n      dup2\n      dup5\n      add\n      mstore\n      not(0x1f)\n      0x1f\n      dup3\n      add\n      and\n      swap1\n      pop\n      dup1\n      dup4\n      add\n      swap3\n      pop\n      pop\n      pop\n      pop\n      pop\n      pop\n      pop\n        /* \"scalable-dex/contracts/src/components/AvailabilityVerifiers.sol\":2509:2517  addEntry */\n      tag_140\n        /* \"scalable-dex/contracts/src/components/AvailabilityVerifiers.sol\":2509:2587  addEntry(availabilityVerifiersChain, verifier, MAX_VERIFIER_COUNT, identifier) */\n      jump\t// in\n    tag_174:\n        /* \"scalable-dex/contracts/src/components/AvailabilityVerifiers.sol\":2406:2594  function registerAvailabilityVerifier(address verifier, string calldata identifier) external {... */\n      pop\n      pop\n      pop\n      jump\t// out\n        /* \"scalable-dex/contracts/src/components/MainGovernance.sol\":1730:1820  string public constant MAIN_GOVERNANCE_INFO_TAG = \"StarkEx.Main.2019.GovernorsInformation\" */\n    tag_107:\n      mload(0x40)\n      dup1\n      0x60\n      add\n      0x40\n      mstore\n      dup1\n      0x26\n      dup2\n      mstore\n      0x20\n      add\n      data_ba6723cd96f04722dd5b39f1fec1d379925779afeea0248c94e7ccb35c720bcb\n      0x26\n      swap2\n      codecopy\n      dup2\n      jump\t// out\n        /* \"scalable-dex/contracts/src/components/Verifiers.sol\":2319:2424  function removeVerifier(address verifier) external {... */\n    tag_114:\n        /* \"scalable-dex/contracts/src/components/Verifiers.sol\":2380:2417  removeEntry(verifiersChain, verifier) */\n      tag_176\n        /* \"scalable-dex/contracts/src/components/Verifiers.sol\":2392:2406  verifiersChain */\n      0x19\n        /* \"scalable-dex/contracts/src/components/Verifiers.sol\":2408:2416  verifier */\n      dup3\n        /* \"scalable-dex/contracts/src/components/Verifiers.sol\":2380:2391  removeEntry */\n      tag_170\n        /* \"scalable-dex/contracts/src/components/Verifiers.sol\":2380:2417  removeEntry(verifiersChain, verifier) */\n      jump\t// in\n    tag_176:\n        /* \"scalable-dex/contracts/src/components/Verifiers.sol\":2319:2424  function removeVerifier(address verifier) external {... */\n      pop\n      jump\t// out\n        /* \"scalable-dex/contracts/src/libraries/LibConstants.sol\":1696:1758  uint256 public constant MAX_FORCED_ACTIONS_REQS_PER_BLOCK = 10 */\n    tag_116:\n        /* \"scalable-dex/contracts/src/libraries/LibConstants.sol\":1756:1758  10 */\n      0x0a\n        /* \"scalable-dex/contracts/src/libraries/LibConstants.sol\":1696:1758  uint256 public constant MAX_FORCED_ACTIONS_REQS_PER_BLOCK = 10 */\n      dup2\n      jump\t// out\n        /* \"scalable-dex/contracts/src/libraries/LibConstants.sol\":988:1044  uint256 public constant MAX_VERIFIER_COUNT = uint256(64) */\n    tag_118:\n        /* \"scalable-dex/contracts/src/libraries/LibConstants.sol\":1041:1043  64 */\n      0x40\n        /* \"scalable-dex/contracts/src/libraries/LibConstants.sol\":988:1044  uint256 public constant MAX_VERIFIER_COUNT = uint256(64) */\n      dup2\n      jump\t// out\n        /* \"scalable-dex/contracts/src/toplevel_subcontracts/AllVerifiers.sol\":691:813  function identify() external pure override returns (string memory) {... */\n    tag_120:\n        /* \"scalable-dex/contracts/src/toplevel_subcontracts/AllVerifiers.sol\":743:756  string memory */\n      0x60\n        /* \"scalable-dex/contracts/src/toplevel_subcontracts/AllVerifiers.sol\":768:806  return \"StarkWare_AllVerifiers_2020_1\" */\n      mload(0x40)\n      dup1\n      0x40\n      add\n      0x40\n      mstore\n      dup1\n      0x1d\n      dup2\n      mstore\n      0x20\n      add\n      0x537461726b576172655f416c6c5665726966696572735f323032305f31000000\n      dup2\n      mstore\n      pop\n      swap1\n      pop\n        /* \"scalable-dex/contracts/src/toplevel_subcontracts/AllVerifiers.sol\":691:813  function identify() external pure override returns (string memory) {... */\n      swap1\n      jump\t// out\n        /* \"scalable-dex/contracts/src/components/ApprovalChain.sol\":2488:3041  function announceRemovalIntent(... */\n    tag_130:\n        /* \"scalable-dex/contracts/src/interfaces/MGovernance.sol\":299:321  isGovernor(msg.sender) */\n      tag_179\n        /* \"scalable-dex/contracts/src/interfaces/MGovernance.sol\":310:320  msg.sender */\n      caller\n        /* \"scalable-dex/contracts/src/interfaces/MGovernance.sol\":299:309  isGovernor */\n      tag_147\n        /* \"scalable-dex/contracts/src/interfaces/MGovernance.sol\":299:321  isGovernor(msg.sender) */\n      jump\t// in\n    tag_179:\n        /* \"scalable-dex/contracts/src/interfaces/MGovernance.sol\":291:341  require(isGovernor(msg.sender), \"ONLY_GOVERNANCE\") */\n      tag_180\n      jumpi\n      mload(0x40)\n      0x08c379a000000000000000000000000000000000000000000000000000000000\n      dup2\n      mstore\n      0x04\n      add\n      dup1\n      dup1\n      0x20\n      add\n      dup3\n      dup2\n      sub\n      dup3\n      mstore\n      0x0f\n      dup2\n      mstore\n      0x20\n      add\n      dup1\n      0x4f4e4c595f474f5645524e414e43450000000000000000000000000000000000\n      dup2\n      mstore\n      pop\n      0x20\n      add\n      swap2\n      pop\n      pop\n      mload(0x40)\n      dup1\n      swap2\n      sub\n      swap1\n      revert\n    tag_180:\n        /* \"scalable-dex/contracts/src/interfaces/MFreezable.sol\":368:378  isFrozen() */\n      tag_182\n        /* \"scalable-dex/contracts/src/interfaces/MFreezable.sol\":368:376  isFrozen */\n      tag_52\n        /* \"scalable-dex/contracts/src/interfaces/MFreezable.sol\":368:378  isFrozen() */\n      jump\t// in\n    tag_182:\n        /* \"scalable-dex/contracts/src/interfaces/MFreezable.sol\":367:378  !isFrozen() */\n      iszero\n        /* \"scalable-dex/contracts/src/interfaces/MFreezable.sol\":359:398  require(!isFrozen(), \"STATE_IS_FROZEN\") */\n      tag_183\n      jumpi\n      mload(0x40)\n      0x08c379a000000000000000000000000000000000000000000000000000000000\n      dup2\n      mstore\n      0x04\n      add\n      dup1\n      dup1\n      0x20\n      add\n      dup3\n      dup2\n      sub\n      dup3\n      mstore\n      0x0f\n      dup2\n      mstore\n      0x20\n      add\n      dup1\n      0x53544154455f49535f46524f5a454e0000000000000000000000000000000000\n      dup2\n      mstore\n      pop\n      0x20\n      add\n      swap2\n      pop\n      pop\n      mload(0x40)\n      dup1\n      swap2\n      sub\n      swap1\n      revert\n    tag_183:\n        /* \"scalable-dex/contracts/src/components/ApprovalChain.sol\":2685:2717  safeFindEntry(chain.list, entry) */\n      tag_185\n        /* \"scalable-dex/contracts/src/components/ApprovalChain.sol\":2699:2704  chain */\n      dup4\n        /* \"scalable-dex/contracts/src/components/ApprovalChain.sol\":2699:2709  chain.list */\n      0x00\n      add\n        /* \"scalable-dex/contracts/src/components/ApprovalChain.sol\":2711:2716  entry */\n      dup4\n        /* \"scalable-dex/contracts/src/components/ApprovalChain.sol\":2685:2698  safeFindEntry */\n      tag_186\n        /* \"scalable-dex/contracts/src/components/ApprovalChain.sol\":2685:2717  safeFindEntry(chain.list, entry) */\n      jump\t// in\n    tag_185:\n      pop\n        /* \"scalable-dex/contracts/src/components/ApprovalChain.sol\":2768:2783  block.timestamp */\n      timestamp\n        /* \"scalable-dex/contracts/src/components/ApprovalChain.sol\":2753:2765  removalDelay */\n      dup2\n        /* \"scalable-dex/contracts/src/components/ApprovalChain.sol\":2735:2750  block.timestamp */\n      timestamp\n        /* \"scalable-dex/contracts/src/components/ApprovalChain.sol\":2735:2765  block.timestamp + removalDelay */\n      add\n        /* \"scalable-dex/contracts/src/components/ApprovalChain.sol\":2735:2783  block.timestamp + removalDelay > block.timestamp */\n      gt\n        /* \"scalable-dex/contracts/src/components/ApprovalChain.sol\":2727:2809  require(block.timestamp + removalDelay > block.timestamp, \"INVALID_REMOVAL_DELAY\") */\n      tag_187\n      jumpi\n      mload(0x40)\n      0x08c379a000000000000000000000000000000000000000000000000000000000\n      dup2\n      mstore\n      0x04\n      add\n      dup1\n      dup1\n      0x20\n      add\n      dup3\n      dup2\n      sub\n      dup3\n      mstore\n      0x15\n      dup2\n      mstore\n      0x20\n      add\n      dup1\n      0x494e56414c49445f52454d4f56414c5f44454c41590000000000000000000000\n      dup2\n      mstore\n      pop\n      0x20\n      add\n      swap2\n      pop\n      pop\n      mload(0x40)\n      dup1\n      swap2\n      sub\n      swap1\n      revert\n    tag_187:\n        /* \"scalable-dex/contracts/src/components/ApprovalChain.sol\":2866:2867  0 */\n      0x00\n        /* \"scalable-dex/contracts/src/components/ApprovalChain.sol\":2827:2832  chain */\n      dup4\n        /* \"scalable-dex/contracts/src/components/ApprovalChain.sol\":2827:2855  chain.unlockedForRemovalTime */\n      0x01\n      add\n        /* \"scalable-dex/contracts/src/components/ApprovalChain.sol\":2827:2862  chain.unlockedForRemovalTime[entry] */\n      0x00\n        /* \"scalable-dex/contracts/src/components/ApprovalChain.sol\":2856:2861  entry */\n      dup5\n        /* \"scalable-dex/contracts/src/components/ApprovalChain.sol\":2827:2862  chain.unlockedForRemovalTime[entry] */\n      0xffffffffffffffffffffffffffffffffffffffff\n      and\n      0xffffffffffffffffffffffffffffffffffffffff\n      and\n      dup2\n      mstore\n      0x20\n      add\n      swap1\n      dup2\n      mstore\n      0x20\n      add\n      0x00\n      keccak256\n      sload\n        /* \"scalable-dex/contracts/src/components/ApprovalChain.sol\":2827:2867  chain.unlockedForRemovalTime[entry] == 0 */\n      eq\n        /* \"scalable-dex/contracts/src/components/ApprovalChain.sol\":2819:2889  require(chain.unlockedForRemovalTime[entry] == 0, \"ALREADY_ANNOUNCED\") */\n      tag_188\n      jumpi\n      mload(0x40)\n      0x08c379a000000000000000000000000000000000000000000000000000000000\n      dup2\n      mstore\n      0x04\n      add\n      dup1\n      dup1\n      0x20\n      add\n      dup3\n      dup2\n      sub\n      dup3\n      mstore\n      0x11\n      dup2\n      mstore\n      0x20\n      add\n      dup1\n      0x414c52454144595f414e4e4f554e434544000000000000000000000000000000\n      dup2\n      mstore\n      pop\n      0x20\n      add\n      swap2\n      pop\n      pop\n      mload(0x40)\n      dup1\n      swap2\n      sub\n      swap1\n      revert\n    tag_188:\n        /* \"scalable-dex/contracts/src/components/ApprovalChain.sol\":2956:2968  removalDelay */\n      dup1\n        /* \"scalable-dex/contracts/src/components/ApprovalChain.sol\":2938:2953  block.timestamp */\n      timestamp\n        /* \"scalable-dex/contracts/src/components/ApprovalChain.sol\":2938:2968  block.timestamp + removalDelay */\n      add\n        /* \"scalable-dex/contracts/src/components/ApprovalChain.sol\":2900:2905  chain */\n      dup4\n        /* \"scalable-dex/contracts/src/components/ApprovalChain.sol\":2900:2928  chain.unlockedForRemovalTime */\n      0x01\n      add\n        /* \"scalable-dex/contracts/src/components/ApprovalChain.sol\":2900:2935  chain.unlockedForRemovalTime[entry] */\n      0x00\n        /* \"scalable-dex/contracts/src/components/ApprovalChain.sol\":2929:2934  entry */\n      dup5\n        /* \"scalable-dex/contracts/src/components/ApprovalChain.sol\":2900:2935  chain.unlockedForRemovalTime[entry] */\n      0xffffffffffffffffffffffffffffffffffffffff\n      and\n      0xffffffffffffffffffffffffffffffffffffffff\n      and\n      dup2\n      mstore\n      0x20\n      add\n      swap1\n      dup2\n      mstore\n      0x20\n      add\n      0x00\n      keccak256\n        /* \"scalable-dex/contracts/src/components/ApprovalChain.sol\":2900:2968  chain.unlockedForRemovalTime[entry] = block.timestamp + removalDelay */\n      dup2\n      swap1\n      sstore\n      pop\n        /* \"scalable-dex/contracts/src/components/ApprovalChain.sol\":2983:3034  LogRemovalIntent(entry, Identity(entry).identify()) */\n      0xa98ac1f696177f16ca482653307aa4a02b68cf03b14409a546de5adf946484fc\n        /* \"scalable-dex/contracts/src/components/ApprovalChain.sol\":3000:3005  entry */\n      dup3\n        /* \"scalable-dex/contracts/src/components/ApprovalChain.sol\":3016:3021  entry */\n      dup4\n        /* \"scalable-dex/contracts/src/components/ApprovalChain.sol\":3007:3031  Identity(entry).identify */\n      0xffffffffffffffffffffffffffffffffffffffff\n      and\n      0xeeb72866\n        /* \"scalable-dex/contracts/src/components/ApprovalChain.sol\":3007:3033  Identity(entry).identify() */\n      mload(0x40)\n      dup2\n      0xffffffff\n      and\n      0xe0\n      shl\n      dup2\n      mstore\n      0x04\n      add\n      0x00\n      mload(0x40)\n      dup1\n      dup4\n      sub\n      dup2\n      dup7\n      dup1\n      extcodesize\n      iszero\n      dup1\n      iszero\n      tag_189\n      jumpi\n      0x00\n      dup1\n      revert\n    tag_189:\n      pop\n      gas\n      staticcall\n      iszero\n      dup1\n      iszero\n      tag_191\n      jumpi\n      returndatasize\n      0x00\n      dup1\n      returndatacopy\n      revert(0x00, returndatasize)\n    tag_191:\n      pop\n      pop\n      pop\n      pop\n      mload(0x40)\n      returndatasize\n      0x00\n      dup3\n      returndatacopy\n      returndatasize\n      not(0x1f)\n      0x1f\n      dup3\n      add\n      and\n      dup3\n      add\n      dup1\n      0x40\n      mstore\n      pop\n      0x20\n      dup2\n      lt\n      iszero\n      tag_192\n      jumpi\n      0x00\n      dup1\n      revert\n    tag_192:\n      dup2\n      add\n      swap1\n      dup1\n      dup1\n      mload\n      mload(0x40)\n      swap4\n      swap3\n      swap2\n      swap1\n      dup5\n      0x0100000000\n      dup3\n      gt\n      iszero\n      tag_193\n      jumpi\n      0x00\n      dup1\n      revert\n    tag_193:\n      dup4\n      dup3\n      add\n      swap2\n      pop\n      0x20\n      dup3\n      add\n      dup6\n      dup2\n      gt\n      iszero\n      tag_194\n      jumpi\n      0x00\n      dup1\n      revert\n    tag_194:\n      dup3\n      mload\n      dup7\n      0x01\n      dup3\n      mul\n      dup4\n      add\n      gt\n      0x0100000000\n      dup3\n      gt\n      or\n      iszero\n      tag_195\n      jumpi\n      0x00\n      dup1\n      revert\n    tag_195:\n      dup1\n      dup4\n      mstore\n      0x20\n      dup4\n      add\n      swap3\n      pop\n      pop\n      pop\n      swap1\n      dup1\n      mload\n      swap1\n      0x20\n      add\n      swap1\n      dup1\n      dup4\n      dup4\n      0x00\n    tag_196:\n      dup4\n      dup2\n      lt\n      iszero\n      tag_198\n      jumpi\n      dup1\n      dup3\n      add\n      mload\n      dup2\n      dup5\n      add\n      mstore\n      0x20\n      dup2\n      add\n      swap1\n      pop\n      jump(tag_196)\n    tag_198:\n      pop\n      pop\n      pop\n      pop\n      swap1\n      pop\n      swap1\n      dup2\n      add\n      swap1\n      0x1f\n      and\n      dup1\n      iszero\n      tag_199\n      jumpi\n      dup1\n      dup3\n      sub\n      dup1\n      mload\n      0x01\n      dup4\n      0x20\n      sub\n      0x0100\n      exp\n      sub\n      not\n      and\n      dup2\n      mstore\n      0x20\n      add\n      swap2\n      pop\n    tag_199:\n      pop\n      0x40\n      mstore\n      pop\n      pop\n      pop\n        /* \"scalable-dex/contracts/src/components/ApprovalChain.sol\":2983:3034  LogRemovalIntent(entry, Identity(entry).identify()) */\n      mload(0x40)\n      dup1\n      dup4\n      0xffffffffffffffffffffffffffffffffffffffff\n      and\n      dup2\n      mstore\n      0x20\n      add\n      dup1\n      0x20\n      add\n      dup3\n      dup2\n      sub\n      dup3\n      mstore\n      dup4\n      dup2\n      dup2\n      mload\n      dup2\n      mstore\n      0x20\n      add\n      swap2\n      pop\n      dup1\n      mload\n      swap1\n      0x20\n      add\n      swap1\n      dup1\n      dup4\n      dup4\n      0x00\n    tag_200:\n      dup4\n      dup2\n      lt\n      iszero\n      tag_202\n      jumpi\n      dup1\n      dup3\n      add\n      mload\n      dup2\n      dup5\n      add\n      mstore\n      0x20\n      dup2\n      add\n      swap1\n      pop\n      jump(tag_200)\n    tag_202:\n      pop\n      pop\n      pop\n      pop\n      swap1\n      pop\n      swap1\n      dup2\n      add\n      swap1\n      0x1f\n      and\n      dup1\n      iszero\n      tag_203\n      jumpi\n      dup1\n      dup3\n      sub\n      dup1\n      mload\n      0x01\n      dup4\n      0x20\n      sub\n      0x0100\n      exp\n      sub\n      not\n      and\n      dup2\n      mstore\n      0x20\n      add\n      swap2\n      pop\n    tag_203:\n      pop\n      swap4\n      pop\n      pop\n      pop\n      pop\n      mload(0x40)\n      dup1\n      swap2\n      sub\n      swap1\n      log1\n        /* \"scalable-dex/contracts/src/components/ApprovalChain.sol\":2488:3041  function announceRemovalIntent(... */\n      pop\n      pop\n      pop\n      jump\t// out\n        /* \"scalable-dex/contracts/src/components/Governance.sol\":3847:4349  function acceptGovernance() internal {... */\n    tag_133:\n        /* \"scalable-dex/contracts/src/components/Governance.sol\":3975:4007  GovernanceInfoStruct storage gub */\n      0x00\n        /* \"scalable-dex/contracts/src/components/Governance.sol\":4010:4034  contractGovernanceInfo() */\n      tag_205\n        /* \"scalable-dex/contracts/src/components/Governance.sol\":4010:4032  contractGovernanceInfo */\n      tag_206\n        /* \"scalable-dex/contracts/src/components/Governance.sol\":4010:4034  contractGovernanceInfo() */\n      jump\t// in\n    tag_205:\n        /* \"scalable-dex/contracts/src/components/Governance.sol\":3975:4034  GovernanceInfoStruct storage gub = contractGovernanceInfo() */\n      swap1\n      pop\n        /* \"scalable-dex/contracts/src/components/Governance.sol\":4066:4069  gub */\n      dup1\n        /* \"scalable-dex/contracts/src/components/Governance.sol\":4066:4087  gub.candidateGovernor */\n      0x01\n      add\n      0x00\n      swap1\n      sload\n      swap1\n      0x0100\n      exp\n      swap1\n      div\n      0xffffffffffffffffffffffffffffffffffffffff\n      and\n        /* \"scalable-dex/contracts/src/components/Governance.sol\":4052:4087  msg.sender == gub.candidateGovernor */\n      0xffffffffffffffffffffffffffffffffffffffff\n      and\n        /* \"scalable-dex/contracts/src/components/Governance.sol\":4052:4062  msg.sender */\n      caller\n        /* \"scalable-dex/contracts/src/components/Governance.sol\":4052:4087  msg.sender == gub.candidateGovernor */\n      0xffffffffffffffffffffffffffffffffffffffff\n      and\n      eq\n        /* \"scalable-dex/contracts/src/components/Governance.sol\":4044:4115  require(msg.sender == gub.candidateGovernor, \"ONLY_CANDIDATE_GOVERNOR\") */\n      tag_207\n      jumpi\n      mload(0x40)\n      0x08c379a000000000000000000000000000000000000000000000000000000000\n      dup2\n      mstore\n      0x04\n      add\n      dup1\n      dup1\n      0x20\n      add\n      dup3\n      dup2\n      sub\n      dup3\n      mstore\n      0x17\n      dup2\n      mstore\n      0x20\n      add\n      dup1\n      0x4f4e4c595f43414e4449444154455f474f5645524e4f52000000000000000000\n      dup2\n      mstore\n      pop\n      0x20\n      add\n      swap2\n      pop\n      pop\n      mload(0x40)\n      dup1\n      swap2\n      sub\n      swap1\n      revert\n    tag_207:\n        /* \"scalable-dex/contracts/src/components/Governance.sol\":4151:4185  addGovernor(gub.candidateGovernor) */\n      tag_208\n        /* \"scalable-dex/contracts/src/components/Governance.sol\":4163:4166  gub */\n      dup2\n        /* \"scalable-dex/contracts/src/components/Governance.sol\":4163:4184  gub.candidateGovernor */\n      0x01\n      add\n      0x00\n      swap1\n      sload\n      swap1\n      0x0100\n      exp\n      swap1\n      div\n      0xffffffffffffffffffffffffffffffffffffffff\n      and\n        /* \"scalable-dex/contracts/src/components/Governance.sol\":4151:4162  addGovernor */\n      tag_209\n        /* \"scalable-dex/contracts/src/components/Governance.sol\":4151:4185  addGovernor(gub.candidateGovernor) */\n      jump\t// in\n    tag_208:\n        /* \"scalable-dex/contracts/src/components/Governance.sol\":4227:4230  0x0 */\n      0x00\n        /* \"scalable-dex/contracts/src/components/Governance.sol\":4195:4198  gub */\n      dup2\n        /* \"scalable-dex/contracts/src/components/Governance.sol\":4195:4216  gub.candidateGovernor */\n      0x01\n      add\n      0x00\n        /* \"scalable-dex/contracts/src/components/Governance.sol\":4195:4231  gub.candidateGovernor = address(0x0) */\n      0x0100\n      exp\n      dup2\n      sload\n      dup2\n      0xffffffffffffffffffffffffffffffffffffffff\n      mul\n      not\n      and\n      swap1\n      dup4\n      0xffffffffffffffffffffffffffffffffffffffff\n      and\n      mul\n      or\n      swap1\n      sstore\n      pop\n        /* \"scalable-dex/contracts/src/components/Governance.sol\":4308:4342  LogNewGovernorAccepted(msg.sender) */\n      0xcfb473e6c03f9a29ddaf990e736fa3de5188a0bd85d684f5b6e164ebfbfff5d2\n        /* \"scalable-dex/contracts/src/components/Governance.sol\":4331:4341  msg.sender */\n      caller\n        /* \"scalable-dex/contracts/src/components/Governance.sol\":4308:4342  LogNewGovernorAccepted(msg.sender) */\n      mload(0x40)\n      dup1\n      dup3\n      0xffffffffffffffffffffffffffffffffffffffff\n      and\n      dup2\n      mstore\n      0x20\n      add\n      swap2\n      pop\n      pop\n      mload(0x40)\n      dup1\n      swap2\n      sub\n      swap1\n      log1\n        /* \"scalable-dex/contracts/src/components/Governance.sol\":3847:4349  function acceptGovernance() internal {... */\n      pop\n      jump\t// out\n        /* \"scalable-dex/contracts/src/components/ApprovalChain.sol\":1870:2222  function findEntry(address[] storage list, address entry)... */\n    tag_136:\n        /* \"scalable-dex/contracts/src/components/ApprovalChain.sol\":1992:1999  uint256 */\n      0x00\n        /* \"scalable-dex/contracts/src/components/ApprovalChain.sol\":2015:2032  uint256 n_entries */\n      dup1\n        /* \"scalable-dex/contracts/src/components/ApprovalChain.sol\":2035:2039  list */\n      dup4\n        /* \"scalable-dex/contracts/src/components/ApprovalChain.sol\":2035:2046  list.length */\n      dup1\n      sload\n      swap1\n      pop\n        /* \"scalable-dex/contracts/src/components/ApprovalChain.sol\":2015:2046  uint256 n_entries = list.length */\n      swap1\n      pop\n        /* \"scalable-dex/contracts/src/components/ApprovalChain.sol\":2061:2070  uint256 i */\n      0x00\n        /* \"scalable-dex/contracts/src/components/ApprovalChain.sol\":2056:2183  for (uint256 i = 0; i < n_entries; i++) {... */\n    tag_211:\n        /* \"scalable-dex/contracts/src/components/ApprovalChain.sol\":2080:2089  n_entries */\n      dup2\n        /* \"scalable-dex/contracts/src/components/ApprovalChain.sol\":2076:2077  i */\n      dup2\n        /* \"scalable-dex/contracts/src/components/ApprovalChain.sol\":2076:2089  i < n_entries */\n      lt\n        /* \"scalable-dex/contracts/src/components/ApprovalChain.sol\":2056:2183  for (uint256 i = 0; i < n_entries; i++) {... */\n      iszero\n      tag_212\n      jumpi\n        /* \"scalable-dex/contracts/src/components/ApprovalChain.sol\":2125:2130  entry */\n      dup4\n        /* \"scalable-dex/contracts/src/components/ApprovalChain.sol\":2114:2130  list[i] == entry */\n      0xffffffffffffffffffffffffffffffffffffffff\n      and\n        /* \"scalable-dex/contracts/src/components/ApprovalChain.sol\":2114:2118  list */\n      dup6\n        /* \"scalable-dex/contracts/src/components/ApprovalChain.sol\":2119:2120  i */\n      dup3\n        /* \"scalable-dex/contracts/src/components/ApprovalChain.sol\":2114:2121  list[i] */\n      dup2\n      sload\n      dup2\n      lt\n      tag_214\n      jumpi\n      invalid\n    tag_214:\n      swap1\n      0x00\n      mstore\n      keccak256(0x00, 0x20)\n      add\n      0x00\n      swap1\n      sload\n      swap1\n      0x0100\n      exp\n      swap1\n      div\n      0xffffffffffffffffffffffffffffffffffffffff\n      and\n        /* \"scalable-dex/contracts/src/components/ApprovalChain.sol\":2114:2130  list[i] == entry */\n      0xffffffffffffffffffffffffffffffffffffffff\n      and\n      eq\n        /* \"scalable-dex/contracts/src/components/ApprovalChain.sol\":2110:2173  if (list[i] == entry) {... */\n      iszero\n      tag_216\n      jumpi\n        /* \"scalable-dex/contracts/src/components/ApprovalChain.sol\":2157:2158  i */\n      dup1\n        /* \"scalable-dex/contracts/src/components/ApprovalChain.sol\":2150:2158  return i */\n      swap3\n      pop\n      pop\n      pop\n      jump(tag_210)\n        /* \"scalable-dex/contracts/src/components/ApprovalChain.sol\":2110:2173  if (list[i] == entry) {... */\n    tag_216:\n        /* \"scalable-dex/contracts/src/components/ApprovalChain.sol\":2091:2094  i++ */\n      dup1\n      dup1\n      0x01\n      add\n      swap2\n      pop\n      pop\n        /* \"scalable-dex/contracts/src/components/ApprovalChain.sol\":2056:2183  for (uint256 i = 0; i < n_entries; i++) {... */\n      jump(tag_211)\n    tag_212:\n      pop\n        /* \"scalable-dex/contracts/src/interfaces/MApprovalChain.sol\":297:299  ~0 */\n      0xffffffffffffffffffffffffffffffffffffffffffffffffffffffffffffffff\n        /* \"scalable-dex/contracts/src/components/ApprovalChain.sol\":2193:2215  return ENTRY_NOT_FOUND */\n      swap2\n      pop\n      pop\n        /* \"scalable-dex/contracts/src/components/ApprovalChain.sol\":1870:2222  function findEntry(address[] storage list, address entry)... */\n    tag_210:\n      swap3\n      swap2\n      pop\n      pop\n      jump\t// out\n        /* \"scalable-dex/contracts/src/components/ApprovalChain.sol\":792:1864  function addEntry(... */\n    tag_140:\n        /* \"scalable-dex/contracts/src/interfaces/MGovernance.sol\":299:321  isGovernor(msg.sender) */\n      tag_218\n        /* \"scalable-dex/contracts/src/interfaces/MGovernance.sol\":310:320  msg.sender */\n      caller\n        /* \"scalable-dex/contracts/src/interfaces/MGovernance.sol\":299:309  isGovernor */\n      tag_147\n        /* \"scalable-dex/contracts/src/interfaces/MGovernance.sol\":299:321  isGovernor(msg.sender) */\n      jump\t// in\n    tag_218:\n        /* \"scalable-dex/contracts/src/interfaces/MGovernance.sol\":291:341  require(isGovernor(msg.sender), \"ONLY_GOVERNANCE\") */\n      tag_219\n      jumpi\n      mload(0x40)\n      0x08c379a000000000000000000000000000000000000000000000000000000000\n      dup2\n      mstore\n      0x04\n      add\n      dup1\n      dup1\n      0x20\n      add\n      dup3\n      dup2\n      sub\n      dup3\n      mstore\n      0x0f\n      dup2\n      mstore\n      0x20\n      add\n      dup1\n      0x4f4e4c595f474f5645524e414e43450000000000000000000000000000000000\n      dup2\n      mstore\n      pop\n      0x20\n      add\n      swap2\n      pop\n      pop\n      mload(0x40)\n      dup1\n      swap2\n      sub\n      swap1\n      revert\n    tag_219:\n        /* \"scalable-dex/contracts/src/interfaces/MFreezable.sol\":368:378  isFrozen() */\n      tag_221\n        /* \"scalable-dex/contracts/src/interfaces/MFreezable.sol\":368:376  isFrozen */\n      tag_52\n        /* \"scalable-dex/contracts/src/interfaces/MFreezable.sol\":368:378  isFrozen() */\n      jump\t// in\n    tag_221:\n        /* \"scalable-dex/contracts/src/interfaces/MFreezable.sol\":367:378  !isFrozen() */\n      iszero\n        /* \"scalable-dex/contracts/src/interfaces/MFreezable.sol\":359:398  require(!isFrozen(), \"STATE_IS_FROZEN\") */\n      tag_222\n      jumpi\n      mload(0x40)\n      0x08c379a000000000000000000000000000000000000000000000000000000000\n      dup2\n      mstore\n      0x04\n      add\n      dup1\n      dup1\n      0x20\n      add\n      dup3\n      dup2\n      sub\n      dup3\n      mstore\n      0x0f\n      dup2\n      mstore\n      0x20\n      add\n      dup1\n      0x53544154455f49535f46524f5a454e0000000000000000000000000000000000\n      dup2\n      mstore\n      pop\n      0x20\n      add\n      swap2\n      pop\n      pop\n      mload(0x40)\n      dup1\n      swap2\n      sub\n      swap1\n      revert\n    tag_222:\n        /* \"scalable-dex/contracts/src/components/ApprovalChain.sol\":1007:1029  address[] storage list */\n      0x00\n        /* \"scalable-dex/contracts/src/components/ApprovalChain.sol\":1032:1037  chain */\n      dup5\n        /* \"scalable-dex/contracts/src/components/ApprovalChain.sol\":1032:1042  chain.list */\n      0x00\n      add\n        /* \"scalable-dex/contracts/src/components/ApprovalChain.sol\":1007:1042  address[] storage list = chain.list */\n      swap1\n      pop\n        /* \"scalable-dex/contracts/src/components/ApprovalChain.sol\":1060:1078  entry.isContract() */\n      tag_224\n        /* \"scalable-dex/contracts/src/components/ApprovalChain.sol\":1060:1065  entry */\n      dup5\n        /* \"scalable-dex/contracts/src/components/ApprovalChain.sol\":1060:1076  entry.isContract */\n      0xffffffffffffffffffffffffffffffffffffffff\n      and\n      tag_225\n        /* \"scalable-dex/contracts/src/components/ApprovalChain.sol\":1060:1078  entry.isContract() */\n      jump\t// in\n    tag_224:\n        /* \"scalable-dex/contracts/src/components/ApprovalChain.sol\":1052:1103  require(entry.isContract(), \"ADDRESS_NOT_CONTRACT\") */\n      tag_226\n      jumpi\n      mload(0x40)\n      0x08c379a000000000000000000000000000000000000000000000000000000000\n      dup2\n      mstore\n      0x04\n      add\n      dup1\n      dup1\n      0x20\n      add\n      dup3\n      dup2\n      sub\n      dup3\n      mstore\n      0x14\n      dup2\n      mstore\n      0x20\n      add\n      dup1\n      0x414444524553535f4e4f545f434f4e5452414354000000000000000000000000\n      dup2\n      mstore\n      pop\n      0x20\n      add\n      swap2\n      pop\n      pop\n      mload(0x40)\n      dup1\n      swap2\n      sub\n      swap1\n      revert\n    tag_226:\n        /* \"scalable-dex/contracts/src/components/ApprovalChain.sol\":1113:1130  bytes32 hash_real */\n      0x00\n        /* \"scalable-dex/contracts/src/components/ApprovalChain.sol\":1169:1174  entry */\n      dup5\n        /* \"scalable-dex/contracts/src/components/ApprovalChain.sol\":1160:1184  Identity(entry).identify */\n      0xffffffffffffffffffffffffffffffffffffffff\n      and\n      0xeeb72866\n        /* \"scalable-dex/contracts/src/components/ApprovalChain.sol\":1160:1186  Identity(entry).identify() */\n      mload(0x40)\n      dup2\n      0xffffffff\n      and\n      0xe0\n      shl\n      dup2\n      mstore\n      0x04\n      add\n      0x00\n      mload(0x40)\n      dup1\n      dup4\n      sub\n      dup2\n      dup7\n      dup1\n      extcodesize\n      iszero\n      dup1\n      iszero\n      tag_227\n      jumpi\n      0x00\n      dup1\n      revert\n    tag_227:\n      pop\n      gas\n      staticcall\n      iszero\n      dup1\n      iszero\n      tag_229\n      jumpi\n      returndatasize\n      0x00\n      dup1\n      returndatacopy\n      revert(0x00, returndatasize)\n    tag_229:\n      pop\n      pop\n      pop\n      pop\n      mload(0x40)\n      returndatasize\n      0x00\n      dup3\n      returndatacopy\n      returndatasize\n      not(0x1f)\n      0x1f\n      dup3\n      add\n      and\n      dup3\n      add\n      dup1\n      0x40\n      mstore\n      pop\n      0x20\n      dup2\n      lt\n      iszero\n      tag_230\n      jumpi\n      0x00\n      dup1\n      revert\n    tag_230:\n      dup2\n      add\n      swap1\n      dup1\n      dup1\n      mload\n      mload(0x40)\n      swap4\n      swap3\n      swap2\n      swap1\n      dup5\n      0x0100000000\n      dup3\n      gt\n      iszero\n      tag_231\n      jumpi\n      0x00\n      dup1\n      revert\n    tag_231:\n      dup4\n      dup3\n      add\n      swap2\n      pop\n      0x20\n      dup3\n      add\n      dup6\n      dup2\n      gt\n      iszero\n      tag_232\n      jumpi\n      0x00\n      dup1\n      revert\n    tag_232:\n      dup3\n      mload\n      dup7\n      0x01\n      dup3\n      mul\n      dup4\n      add\n      gt\n      0x0100000000\n      dup3\n      gt\n      or\n      iszero\n      tag_233\n      jumpi\n      0x00\n      dup1\n      revert\n    tag_233:\n      dup1\n      dup4\n      mstore\n      0x20\n      dup4\n      add\n      swap3\n      pop\n      pop\n      pop\n      swap1\n      dup1\n      mload\n      swap1\n      0x20\n      add\n      swap1\n      dup1\n      dup4\n      dup4\n      0x00\n    tag_234:\n      dup4\n      dup2\n      lt\n      iszero\n      tag_236\n      jumpi\n      dup1\n      dup3\n      add\n      mload\n      dup2\n      dup5\n      add\n      mstore\n      0x20\n      dup2\n      add\n      swap1\n      pop\n      jump(tag_234)\n    tag_236:\n      pop\n      pop\n      pop\n      pop\n      swap1\n      pop\n      swap1\n      dup2\n      add\n      swap1\n      0x1f\n      and\n      dup1\n      iszero\n      tag_237\n      jumpi\n      dup1\n      dup3\n      sub\n      dup1\n      mload\n      0x01\n      dup4\n      0x20\n      sub\n      0x0100\n      exp\n      sub\n      not\n      and\n      dup2\n      mstore\n      0x20\n      add\n      swap2\n      pop\n    tag_237:\n      pop\n      0x40\n      mstore\n      pop\n      pop\n      pop\n        /* \"scalable-dex/contracts/src/components/ApprovalChain.sol\":1143:1187  abi.encodePacked(Identity(entry).identify()) */\n      add(0x20, mload(0x40))\n      dup1\n      dup3\n      dup1\n      mload\n      swap1\n      0x20\n      add\n      swap1\n      dup1\n      dup4\n      dup4\n    tag_238:\n      0x20\n      dup4\n      lt\n      tag_240\n      jumpi\n      dup1\n      mload\n      dup3\n      mstore\n      0x20\n      dup3\n      add\n      swap2\n      pop\n      0x20\n      dup2\n      add\n      swap1\n      pop\n      0x20\n      dup4\n      sub\n      swap3\n      pop\n      jump(tag_238)\n    tag_240:\n      0x01\n      dup4\n      0x20\n      sub\n      0x0100\n      exp\n      sub\n      dup1\n      not\n      dup3\n      mload\n      and\n      dup2\n      dup5\n      mload\n      and\n      dup1\n      dup3\n      or\n      dup6\n      mstore\n      pop\n      pop\n      pop\n      pop\n      pop\n      pop\n      swap1\n      pop\n      add\n      swap2\n      pop\n      pop\n      mload(0x40)\n      0x20\n      dup2\n      dup4\n      sub\n      sub\n      dup2\n      mstore\n      swap1\n      0x40\n      mstore\n        /* \"scalable-dex/contracts/src/components/ApprovalChain.sol\":1133:1188  keccak256(abi.encodePacked(Identity(entry).identify())) */\n      dup1\n      mload\n      swap1\n      0x20\n      add\n      keccak256\n        /* \"scalable-dex/contracts/src/components/ApprovalChain.sol\":1113:1188  bytes32 hash_real = keccak256(abi.encodePacked(Identity(entry).identify())) */\n      swap1\n      pop\n        /* \"scalable-dex/contracts/src/components/ApprovalChain.sol\":1198:1221  bytes32 hash_identifier */\n      0x00\n        /* \"scalable-dex/contracts/src/components/ApprovalChain.sol\":1251:1261  identifier */\n      dup4\n        /* \"scalable-dex/contracts/src/components/ApprovalChain.sol\":1234:1262  abi.encodePacked(identifier) */\n      add(0x20, mload(0x40))\n      dup1\n      dup3\n      dup1\n      mload\n      swap1\n      0x20\n      add\n      swap1\n      dup1\n      dup4\n      dup4\n    tag_241:\n      0x20\n      dup4\n      lt\n      tag_243\n      jumpi\n      dup1\n      mload\n      dup3\n      mstore\n      0x20\n      dup3\n      add\n      swap2\n      pop\n      0x20\n      dup2\n      add\n      swap1\n      pop\n      0x20\n      dup4\n      sub\n      swap3\n      pop\n      jump(tag_241)\n    tag_243:\n      0x01\n      dup4\n      0x20\n      sub\n      0x0100\n      exp\n      sub\n      dup1\n      not\n      dup3\n      mload\n      and\n      dup2\n      dup5\n      mload\n      and\n      dup1\n      dup3\n      or\n      dup6\n      mstore\n      pop\n      pop\n      pop\n      pop\n      pop\n      pop\n      swap1\n      pop\n      add\n      swap2\n      pop\n      pop\n      mload(0x40)\n      0x20\n      dup2\n      dup4\n      sub\n      sub\n      dup2\n      mstore\n      swap1\n      0x40\n      mstore\n        /* \"scalable-dex/contracts/src/components/ApprovalChain.sol\":1224:1263  keccak256(abi.encodePacked(identifier)) */\n      dup1\n      mload\n      swap1\n      0x20\n      add\n      keccak256\n        /* \"scalable-dex/contracts/src/components/ApprovalChain.sol\":1198:1263  bytes32 hash_identifier = keccak256(abi.encodePacked(identifier)) */\n      swap1\n      pop\n        /* \"scalable-dex/contracts/src/components/ApprovalChain.sol\":1294:1309  hash_identifier */\n      dup1\n        /* \"scalable-dex/contracts/src/components/ApprovalChain.sol\":1281:1290  hash_real */\n      dup3\n        /* \"scalable-dex/contracts/src/components/ApprovalChain.sol\":1281:1309  hash_real == hash_identifier */\n      eq\n        /* \"scalable-dex/contracts/src/components/ApprovalChain.sol\":1273:1344  require(hash_real == hash_identifier, \"UNEXPECTED_CONTRACT_IDENTIFIER\") */\n      tag_244\n      jumpi\n      mload(0x40)\n      0x08c379a000000000000000000000000000000000000000000000000000000000\n      dup2\n      mstore\n      0x04\n      add\n      dup1\n      dup1\n      0x20\n      add\n      dup3\n      dup2\n      sub\n      dup3\n      mstore\n      0x1e\n      dup2\n      mstore\n      0x20\n      add\n      dup1\n      0x554e45585045435445445f434f4e54524143545f4944454e5449464945520000\n      dup2\n      mstore\n      pop\n      0x20\n      add\n      swap2\n      pop\n      pop\n      mload(0x40)\n      dup1\n      swap2\n      sub\n      swap1\n      revert\n    tag_244:\n        /* \"scalable-dex/contracts/src/components/ApprovalChain.sol\":1376:1385  maxLength */\n      dup5\n        /* \"scalable-dex/contracts/src/components/ApprovalChain.sol\":1362:1366  list */\n      dup4\n        /* \"scalable-dex/contracts/src/components/ApprovalChain.sol\":1362:1373  list.length */\n      dup1\n      sload\n      swap1\n      pop\n        /* \"scalable-dex/contracts/src/components/ApprovalChain.sol\":1362:1385  list.length < maxLength */\n      lt\n        /* \"scalable-dex/contracts/src/components/ApprovalChain.sol\":1354:1411  require(list.length < maxLength, \"CHAIN_AT_MAX_CAPACITY\") */\n      tag_245\n      jumpi\n      mload(0x40)\n      0x08c379a000000000000000000000000000000000000000000000000000000000\n      dup2\n      mstore\n      0x04\n      add\n      dup1\n      dup1\n      0x20\n      add\n      dup3\n      dup2\n      sub\n      dup3\n      mstore\n      0x15\n      dup2\n      mstore\n      0x20\n      add\n      dup1\n      0x434841494e5f41545f4d41585f43415041434954590000000000000000000000\n      dup2\n      mstore\n      pop\n      0x20\n      add\n      swap2\n      pop\n      pop\n      mload(0x40)\n      dup1\n      swap2\n      sub\n      swap1\n      revert\n    tag_245:\n        /* \"scalable-dex/contracts/src/interfaces/MApprovalChain.sol\":297:299  ~0 */\n      0xffffffffffffffffffffffffffffffffffffffffffffffffffffffffffffffff\n        /* \"scalable-dex/contracts/src/components/ApprovalChain.sol\":1429:1451  findEntry(list, entry) */\n      tag_246\n        /* \"scalable-dex/contracts/src/components/ApprovalChain.sol\":1439:1443  list */\n      dup5\n        /* \"scalable-dex/contracts/src/components/ApprovalChain.sol\":1445:1450  entry */\n      dup9\n        /* \"scalable-dex/contracts/src/components/ApprovalChain.sol\":1429:1438  findEntry */\n      tag_136\n        /* \"scalable-dex/contracts/src/components/ApprovalChain.sol\":1429:1451  findEntry(list, entry) */\n      jump\t// in\n    tag_246:\n        /* \"scalable-dex/contracts/src/components/ApprovalChain.sol\":1429:1470  findEntry(list, entry) == ENTRY_NOT_FOUND */\n      eq\n        /* \"scalable-dex/contracts/src/components/ApprovalChain.sol\":1421:1495  require(findEntry(list, entry) == ENTRY_NOT_FOUND, \"ENTRY_ALREADY_EXISTS\") */\n      tag_247\n      jumpi\n      mload(0x40)\n      0x08c379a000000000000000000000000000000000000000000000000000000000\n      dup2\n      mstore\n      0x04\n      add\n      dup1\n      dup1\n      0x20\n      add\n      dup3\n      dup2\n      sub\n      dup3\n      mstore\n      0x14\n      dup2\n      mstore\n      0x20\n      add\n      dup1\n      0x454e5452595f414c52454144595f455849535453000000000000000000000000\n      dup2\n      mstore\n      pop\n      0x20\n      add\n      swap2\n      pop\n      pop\n      mload(0x40)\n      dup1\n      swap2\n      sub\n      swap1\n      revert\n    tag_247:\n        /* \"scalable-dex/contracts/src/components/ApprovalChain.sol\":1681:1682  0 */\n      0x00\n        /* \"scalable-dex/contracts/src/components/ApprovalChain.sol\":1666:1670  list */\n      dup4\n        /* \"scalable-dex/contracts/src/components/ApprovalChain.sol\":1666:1677  list.length */\n      dup1\n      sload\n      swap1\n      pop\n        /* \"scalable-dex/contracts/src/components/ApprovalChain.sol\":1666:1682  list.length == 0 */\n      eq\n        /* \"scalable-dex/contracts/src/components/ApprovalChain.sol\":1666:1735  list.length == 0 || IQueryableFactRegistry(entry).hasRegisteredFact() */\n      dup1\n      tag_248\n      jumpi\n      pop\n        /* \"scalable-dex/contracts/src/components/ApprovalChain.sol\":1709:1714  entry */\n      dup6\n        /* \"scalable-dex/contracts/src/components/ApprovalChain.sol\":1686:1733  IQueryableFactRegistry(entry).hasRegisteredFact */\n      0xffffffffffffffffffffffffffffffffffffffff\n      and\n      0xd6354e15\n        /* \"scalable-dex/contracts/src/components/ApprovalChain.sol\":1686:1735  IQueryableFactRegistry(entry).hasRegisteredFact() */\n      mload(0x40)\n      dup2\n      0xffffffff\n      and\n      0xe0\n      shl\n      dup2\n      mstore\n      0x04\n      add\n      0x20\n      mload(0x40)\n      dup1\n      dup4\n      sub\n      dup2\n      dup7\n      dup1\n      extcodesize\n      iszero\n      dup1\n      iszero\n      tag_249\n      jumpi\n      0x00\n      dup1\n      revert\n    tag_249:\n      pop\n      gas\n      staticcall\n      iszero\n      dup1\n      iszero\n      tag_251\n      jumpi\n      returndatasize\n      0x00\n      dup1\n      returndatacopy\n      revert(0x00, returndatasize)\n    tag_251:\n      pop\n      pop\n      pop\n      pop\n      mload(0x40)\n      returndatasize\n      0x20\n      dup2\n      lt\n      iszero\n      tag_252\n      jumpi\n      0x00\n      dup1\n      revert\n    tag_252:\n      dup2\n      add\n      swap1\n      dup1\n      dup1\n      mload\n      swap1\n      0x20\n      add\n      swap1\n      swap3\n      swap2\n      swap1\n      pop\n      pop\n      pop\n        /* \"scalable-dex/contracts/src/components/ApprovalChain.sol\":1666:1735  list.length == 0 || IQueryableFactRegistry(entry).hasRegisteredFact() */\n    tag_248:\n        /* \"scalable-dex/contracts/src/components/ApprovalChain.sol\":1645:1778  require(... */\n      tag_253\n      jumpi\n      mload(0x40)\n      0x08c379a000000000000000000000000000000000000000000000000000000000\n      dup2\n      mstore\n      0x04\n      add\n      dup1\n      dup1\n      0x20\n      add\n      dup3\n      dup2\n      sub\n      dup3\n      mstore\n      0x11\n      dup2\n      mstore\n      0x20\n      add\n      dup1\n      0x454e5452595f4e4f545f454e41424c4544000000000000000000000000000000\n      dup2\n      mstore\n      pop\n      0x20\n      add\n      swap2\n      pop\n      pop\n      mload(0x40)\n      dup1\n      swap2\n      sub\n      swap1\n      revert\n    tag_253:\n        /* \"scalable-dex/contracts/src/components/ApprovalChain.sol\":1788:1793  chain */\n      dup7\n        /* \"scalable-dex/contracts/src/components/ApprovalChain.sol\":1788:1798  chain.list */\n      0x00\n      add\n        /* \"scalable-dex/contracts/src/components/ApprovalChain.sol\":1804:1809  entry */\n      dup7\n        /* \"scalable-dex/contracts/src/components/ApprovalChain.sol\":1788:1810  chain.list.push(entry) */\n      swap1\n      dup1\n      0x01\n      dup2\n      sload\n      add\n      dup1\n      dup3\n      sstore\n      dup1\n      swap2\n      pop\n      pop\n      0x01\n      swap1\n      sub\n      swap1\n      0x00\n      mstore\n      keccak256(0x00, 0x20)\n      add\n      0x00\n      swap1\n      swap2\n      swap1\n      swap2\n      swap1\n      swap2\n      0x0100\n      exp\n      dup2\n      sload\n      dup2\n      0xffffffffffffffffffffffffffffffffffffffff\n      mul\n      not\n      and\n      swap1\n      dup4\n      0xffffffffffffffffffffffffffffffffffffffff\n      and\n      mul\n      or\n      swap1\n      sstore\n      pop\n        /* \"scalable-dex/contracts/src/components/ApprovalChain.sol\":1825:1857  LogRegistered(entry, identifier) */\n      0xaa7f29c97c6763919ef56006f07fbf5c1ac734b0414665df43cecdbce9010c9b\n        /* \"scalable-dex/contracts/src/components/ApprovalChain.sol\":1839:1844  entry */\n      dup7\n        /* \"scalable-dex/contracts/src/components/ApprovalChain.sol\":1846:1856  identifier */\n      dup6\n        /* \"scalable-dex/contracts/src/components/ApprovalChain.sol\":1825:1857  LogRegistered(entry, identifier) */\n      mload(0x40)\n      dup1\n      dup4\n      0xffffffffffffffffffffffffffffffffffffffff\n      and\n      dup2\n      mstore\n      0x20\n      add\n      dup1\n      0x20\n      add\n      dup3\n      dup2\n      sub\n      dup3\n      mstore\n      dup4\n      dup2\n      dup2\n      mload\n      dup2\n      mstore\n      0x20\n      add\n      swap2\n      pop\n      dup1\n      mload\n      swap1\n      0x20\n      add\n      swap1\n      dup1\n      dup4\n      dup4\n      0x00\n    tag_255:\n      dup4\n      dup2\n      lt\n      iszero\n      tag_257\n      jumpi\n      dup1\n      dup3\n      add\n      mload\n      dup2\n      dup5\n      add\n      mstore\n      0x20\n      dup2\n      add\n      swap1\n      pop\n      jump(tag_255)\n    tag_257:\n      pop\n      pop\n      pop\n      pop\n      swap1\n      pop\n      swap1\n      dup2\n      add\n      swap1\n      0x1f\n      and\n      dup1\n      iszero\n      tag_258\n      jumpi\n      dup1\n      dup3\n      sub\n      dup1\n      mload\n      0x01\n      dup4\n      0x20\n      sub\n      0x0100\n      exp\n      sub\n      not\n      and\n      dup2\n      mstore\n      0x20\n      add\n      swap2\n      pop\n    tag_258:\n      pop\n      swap4\n      pop\n      pop\n      pop\n      pop\n      mload(0x40)\n      dup1\n      swap2\n      sub\n      swap1\n      log1\n        /* \"scalable-dex/contracts/src/interfaces/MFreezable.sol\":408:409  _ */\n      pop\n      pop\n      pop\n        /* \"scalable-dex/contracts/src/components/ApprovalChain.sol\":792:1864  function addEntry(... */\n      pop\n      pop\n      pop\n      pop\n      jump\t// out\n        /* \"scalable-dex/contracts/src/components/Governance.sol\":2474:2683  function isGovernor(address testGovernor) internal view override returns (bool) {... */\n    tag_147:\n        /* \"scalable-dex/contracts/src/components/Governance.sol\":2548:2552  bool */\n      0x00\n        /* \"scalable-dex/contracts/src/components/Governance.sol\":2564:2596  GovernanceInfoStruct storage gub */\n      dup1\n        /* \"scalable-dex/contracts/src/components/Governance.sol\":2599:2623  contractGovernanceInfo() */\n      tag_260\n        /* \"scalable-dex/contracts/src/components/Governance.sol\":2599:2621  contractGovernanceInfo */\n      tag_206\n        /* \"scalable-dex/contracts/src/components/Governance.sol\":2599:2623  contractGovernanceInfo() */\n      jump\t// in\n    tag_260:\n        /* \"scalable-dex/contracts/src/components/Governance.sol\":2564:2623  GovernanceInfoStruct storage gub = contractGovernanceInfo() */\n      swap1\n      pop\n        /* \"scalable-dex/contracts/src/components/Governance.sol\":2640:2643  gub */\n      dup1\n        /* \"scalable-dex/contracts/src/components/Governance.sol\":2640:2662  gub.effectiveGovernors */\n      0x00\n      add\n        /* \"scalable-dex/contracts/src/components/Governance.sol\":2640:2676  gub.effectiveGovernors[testGovernor] */\n      0x00\n        /* \"scalable-dex/contracts/src/components/Governance.sol\":2663:2675  testGovernor */\n      dup5\n        /* \"scalable-dex/contracts/src/components/Governance.sol\":2640:2676  gub.effectiveGovernors[testGovernor] */\n      0xffffffffffffffffffffffffffffffffffffffff\n      and\n      0xffffffffffffffffffffffffffffffffffffffff\n      and\n      dup2\n      mstore\n      0x20\n      add\n      swap1\n      dup2\n      mstore\n      0x20\n      add\n      0x00\n      keccak256\n      0x00\n      swap1\n      sload\n      swap1\n      0x0100\n      exp\n      swap1\n      div\n      0xff\n      and\n        /* \"scalable-dex/contracts/src/components/Governance.sol\":2633:2676  return gub.effectiveGovernors[testGovernor] */\n      swap2\n      pop\n      pop\n        /* \"scalable-dex/contracts/src/components/Governance.sol\":2474:2683  function isGovernor(address testGovernor) internal view override returns (bool) {... */\n      swap2\n      swap1\n      pop\n      jump\t// out\n        /* \"scalable-dex/contracts/src/components/Governance.sol\":2757:2970  function cancelNomination() internal onlyGovernance {... */\n    tag_153:\n        /* \"scalable-dex/contracts/src/interfaces/MGovernance.sol\":299:321  isGovernor(msg.sender) */\n      tag_262\n        /* \"scalable-dex/contracts/src/interfaces/MGovernance.sol\":310:320  msg.sender */\n      caller\n        /* \"scalable-dex/contracts/src/interfaces/MGovernance.sol\":299:309  isGovernor */\n      tag_147\n        /* \"scalable-dex/contracts/src/interfaces/MGovernance.sol\":299:321  isGovernor(msg.sender) */\n      jump\t// in\n    tag_262:\n        /* \"scalable-dex/contracts/src/interfaces/MGovernance.sol\":291:341  require(isGovernor(msg.sender), \"ONLY_GOVERNANCE\") */\n      tag_263\n      jumpi\n      mload(0x40)\n      0x08c379a000000000000000000000000000000000000000000000000000000000\n      dup2\n      mstore\n      0x04\n      add\n      dup1\n      dup1\n      0x20\n      add\n      dup3\n      dup2\n      sub\n      dup3\n      mstore\n      0x0f\n      dup2\n      mstore\n      0x20\n      add\n      dup1\n      0x4f4e4c595f474f5645524e414e43450000000000000000000000000000000000\n      dup2\n      mstore\n      pop\n      0x20\n      add\n      swap2\n      pop\n      pop\n      mload(0x40)\n      dup1\n      swap2\n      sub\n      swap1\n      revert\n    tag_263:\n        /* \"scalable-dex/contracts/src/components/Governance.sol\":2819:2851  GovernanceInfoStruct storage gub */\n      0x00\n        /* \"scalable-dex/contracts/src/components/Governance.sol\":2854:2878  contractGovernanceInfo() */\n      tag_265\n        /* \"scalable-dex/contracts/src/components/Governance.sol\":2854:2876  contractGovernanceInfo */\n      tag_206\n        /* \"scalable-dex/contracts/src/components/Governance.sol\":2854:2878  contractGovernanceInfo() */\n      jump\t// in\n    tag_265:\n        /* \"scalable-dex/contracts/src/components/Governance.sol\":2819:2878  GovernanceInfoStruct storage gub = contractGovernanceInfo() */\n      swap1\n      pop\n        /* \"scalable-dex/contracts/src/components/Governance.sol\":2920:2923  0x0 */\n      0x00\n        /* \"scalable-dex/contracts/src/components/Governance.sol\":2888:2891  gub */\n      dup2\n        /* \"scalable-dex/contracts/src/components/Governance.sol\":2888:2909  gub.candidateGovernor */\n      0x01\n      add\n      0x00\n        /* \"scalable-dex/contracts/src/components/Governance.sol\":2888:2924  gub.candidateGovernor = address(0x0) */\n      0x0100\n      exp\n      dup2\n      sload\n      dup2\n      0xffffffffffffffffffffffffffffffffffffffff\n      mul\n      not\n      and\n      swap1\n      dup4\n      0xffffffffffffffffffffffffffffffffffffffff\n      and\n      mul\n      or\n      swap1\n      sstore\n      pop\n        /* \"scalable-dex/contracts/src/components/Governance.sol\":2939:2963  LogNominationCancelled() */\n      0x7a8dc7dd7fffb43c4807438fa62729225156941e641fd877938f4edade3429f5\n      mload(0x40)\n      mload(0x40)\n      dup1\n      swap2\n      sub\n      swap1\n      log1\n        /* \"scalable-dex/contracts/src/interfaces/MGovernance.sol\":351:352  _ */\n      pop\n        /* \"scalable-dex/contracts/src/components/Governance.sol\":2757:2970  function cancelNomination() internal onlyGovernance {... */\n      jump\t// out\n        /* \"scalable-dex/contracts/src/components/Governance.sol\":2976:3282  function nominateNewGovernor(address newGovernor) internal onlyGovernance {... */\n    tag_164:\n        /* \"scalable-dex/contracts/src/interfaces/MGovernance.sol\":299:321  isGovernor(msg.sender) */\n      tag_267\n        /* \"scalable-dex/contracts/src/interfaces/MGovernance.sol\":310:320  msg.sender */\n      caller\n        /* \"scalable-dex/contracts/src/interfaces/MGovernance.sol\":299:309  isGovernor */\n      tag_147\n        /* \"scalable-dex/contracts/src/interfaces/MGovernance.sol\":299:321  isGovernor(msg.sender) */\n      jump\t// in\n    tag_267:\n        /* \"scalable-dex/contracts/src/interfaces/MGovernance.sol\":291:341  require(isGovernor(msg.sender), \"ONLY_GOVERNANCE\") */\n      tag_268\n      jumpi\n      mload(0x40)\n      0x08c379a000000000000000000000000000000000000000000000000000000000\n      dup2\n      mstore\n      0x04\n      add\n      dup1\n      dup1\n      0x20\n      add\n      dup3\n      dup2\n      sub\n      dup3\n      mstore\n      0x0f\n      dup2\n      mstore\n      0x20\n      add\n      dup1\n      0x4f4e4c595f474f5645524e414e43450000000000000000000000000000000000\n      dup2\n      mstore\n      pop\n      0x20\n      add\n      swap2\n      pop\n      pop\n      mload(0x40)\n      dup1\n      swap2\n      sub\n      swap1\n      revert\n    tag_268:\n        /* \"scalable-dex/contracts/src/components/Governance.sol\":3060:3092  GovernanceInfoStruct storage gub */\n      0x00\n        /* \"scalable-dex/contracts/src/components/Governance.sol\":3095:3119  contractGovernanceInfo() */\n      tag_270\n        /* \"scalable-dex/contracts/src/components/Governance.sol\":3095:3117  contractGovernanceInfo */\n      tag_206\n        /* \"scalable-dex/contracts/src/components/Governance.sol\":3095:3119  contractGovernanceInfo() */\n      jump\t// in\n    tag_270:\n        /* \"scalable-dex/contracts/src/components/Governance.sol\":3060:3119  GovernanceInfoStruct storage gub = contractGovernanceInfo() */\n      swap1\n      pop\n        /* \"scalable-dex/contracts/src/components/Governance.sol\":3138:3161  isGovernor(newGovernor) */\n      tag_271\n        /* \"scalable-dex/contracts/src/components/Governance.sol\":3149:3160  newGovernor */\n      dup3\n        /* \"scalable-dex/contracts/src/components/Governance.sol\":3138:3148  isGovernor */\n      tag_147\n        /* \"scalable-dex/contracts/src/components/Governance.sol\":3138:3161  isGovernor(newGovernor) */\n      jump\t// in\n    tag_271:\n        /* \"scalable-dex/contracts/src/components/Governance.sol\":3137:3161  !isGovernor(newGovernor) */\n      iszero\n        /* \"scalable-dex/contracts/src/components/Governance.sol\":3129:3182  require(!isGovernor(newGovernor), \"ALREADY_GOVERNOR\") */\n      tag_272\n      jumpi\n      mload(0x40)\n      0x08c379a000000000000000000000000000000000000000000000000000000000\n      dup2\n      mstore\n      0x04\n      add\n      dup1\n      dup1\n      0x20\n      add\n      dup3\n      dup2\n      sub\n      dup3\n      mstore\n      0x10\n      dup2\n      mstore\n      0x20\n      add\n      dup1\n      0x414c52454144595f474f5645524e4f5200000000000000000000000000000000\n      dup2\n      mstore\n      pop\n      0x20\n      add\n      swap2\n      pop\n      pop\n      mload(0x40)\n      dup1\n      swap2\n      sub\n      swap1\n      revert\n    tag_272:\n        /* \"scalable-dex/contracts/src/components/Governance.sol\":3216:3227  newGovernor */\n      dup2\n        /* \"scalable-dex/contracts/src/components/Governance.sol\":3192:3195  gub */\n      dup2\n        /* \"scalable-dex/contracts/src/components/Governance.sol\":3192:3213  gub.candidateGovernor */\n      0x01\n      add\n      0x00\n        /* \"scalable-dex/contracts/src/components/Governance.sol\":3192:3227  gub.candidateGovernor = newGovernor */\n      0x0100\n      exp\n      dup2\n      sload\n      dup2\n      0xffffffffffffffffffffffffffffffffffffffff\n      mul\n      not\n      and\n      swap1\n      dup4\n      0xffffffffffffffffffffffffffffffffffffffff\n      and\n      mul\n      or\n      swap1\n      sstore\n      pop\n        /* \"scalable-dex/contracts/src/components/Governance.sol\":3242:3275  LogNominatedGovernor(newGovernor) */\n      0x6166272c8d3f5f579082f2827532732f97195007983bb5b83ac12c56700b01a6\n        /* \"scalable-dex/contracts/src/components/Governance.sol\":3263:3274  newGovernor */\n      dup3\n        /* \"scalable-dex/contracts/src/components/Governance.sol\":3242:3275  LogNominatedGovernor(newGovernor) */\n      mload(0x40)\n      dup1\n      dup3\n      0xffffffffffffffffffffffffffffffffffffffff\n      and\n      dup2\n      mstore\n      0x20\n      add\n      swap2\n      pop\n      pop\n      mload(0x40)\n      dup1\n      swap2\n      sub\n      swap1\n      log1\n        /* \"scalable-dex/contracts/src/interfaces/MGovernance.sol\":351:352  _ */\n      pop\n        /* \"scalable-dex/contracts/src/components/Governance.sol\":2976:3282  function nominateNewGovernor(address newGovernor) internal onlyGovernance {... */\n      pop\n      jump\t// out\n        /* \"scalable-dex/contracts/src/components/Governance.sol\":4406:4811  function removeGovernor(address governorForRemoval) internal onlyGovernance {... */\n    tag_167:\n        /* \"scalable-dex/contracts/src/interfaces/MGovernance.sol\":299:321  isGovernor(msg.sender) */\n      tag_274\n        /* \"scalable-dex/contracts/src/interfaces/MGovernance.sol\":310:320  msg.sender */\n      caller\n        /* \"scalable-dex/contracts/src/interfaces/MGovernance.sol\":299:309  isGovernor */\n      tag_147\n        /* \"scalable-dex/contracts/src/interfaces/MGovernance.sol\":299:321  isGovernor(msg.sender) */\n      jump\t// in\n    tag_274:\n        /* \"scalable-dex/contracts/src/interfaces/MGovernance.sol\":291:341  require(isGovernor(msg.sender), \"ONLY_GOVERNANCE\") */\n      tag_275\n      jumpi\n      mload(0x40)\n      0x08c379a000000000000000000000000000000000000000000000000000000000\n      dup2\n      mstore\n      0x04\n      add\n      dup1\n      dup1\n      0x20\n      add\n      dup3\n      dup2\n      sub\n      dup3\n      mstore\n      0x0f\n      dup2\n      mstore\n      0x20\n      add\n      dup1\n      0x4f4e4c595f474f5645524e414e43450000000000000000000000000000000000\n      dup2\n      mstore\n      pop\n      0x20\n      add\n      swap2\n      pop\n      pop\n      mload(0x40)\n      dup1\n      swap2\n      sub\n      swap1\n      revert\n    tag_275:\n        /* \"scalable-dex/contracts/src/components/Governance.sol\":4514:4532  governorForRemoval */\n      dup1\n        /* \"scalable-dex/contracts/src/components/Governance.sol\":4500:4532  msg.sender != governorForRemoval */\n      0xffffffffffffffffffffffffffffffffffffffff\n      and\n        /* \"scalable-dex/contracts/src/components/Governance.sol\":4500:4510  msg.sender */\n      caller\n        /* \"scalable-dex/contracts/src/components/Governance.sol\":4500:4532  msg.sender != governorForRemoval */\n      0xffffffffffffffffffffffffffffffffffffffff\n      and\n      eq\n      iszero\n        /* \"scalable-dex/contracts/src/components/Governance.sol\":4492:4557  require(msg.sender != governorForRemoval, \"GOVERNOR_SELF_REMOVE\") */\n      tag_277\n      jumpi\n      mload(0x40)\n      0x08c379a000000000000000000000000000000000000000000000000000000000\n      dup2\n      mstore\n      0x04\n      add\n      dup1\n      dup1\n      0x20\n      add\n      dup3\n      dup2\n      sub\n      dup3\n      mstore\n      0x14\n      dup2\n      mstore\n      0x20\n      add\n      dup1\n      0x474f5645524e4f525f53454c465f52454d4f5645000000000000000000000000\n      dup2\n      mstore\n      pop\n      0x20\n      add\n      swap2\n      pop\n      pop\n      mload(0x40)\n      dup1\n      swap2\n      sub\n      swap1\n      revert\n    tag_277:\n        /* \"scalable-dex/contracts/src/components/Governance.sol\":4567:4599  GovernanceInfoStruct storage gub */\n      0x00\n        /* \"scalable-dex/contracts/src/components/Governance.sol\":4602:4626  contractGovernanceInfo() */\n      tag_278\n        /* \"scalable-dex/contracts/src/components/Governance.sol\":4602:4624  contractGovernanceInfo */\n      tag_206\n        /* \"scalable-dex/contracts/src/components/Governance.sol\":4602:4626  contractGovernanceInfo() */\n      jump\t// in\n    tag_278:\n        /* \"scalable-dex/contracts/src/components/Governance.sol\":4567:4626  GovernanceInfoStruct storage gub = contractGovernanceInfo() */\n      swap1\n      pop\n        /* \"scalable-dex/contracts/src/components/Governance.sol\":4644:4674  isGovernor(governorForRemoval) */\n      tag_279\n        /* \"scalable-dex/contracts/src/components/Governance.sol\":4655:4673  governorForRemoval */\n      dup3\n        /* \"scalable-dex/contracts/src/components/Governance.sol\":4644:4654  isGovernor */\n      tag_147\n        /* \"scalable-dex/contracts/src/components/Governance.sol\":4644:4674  isGovernor(governorForRemoval) */\n      jump\t// in\n    tag_279:\n        /* \"scalable-dex/contracts/src/components/Governance.sol\":4636:4691  require(isGovernor(governorForRemoval), \"NOT_GOVERNOR\") */\n      tag_280\n      jumpi\n      mload(0x40)\n      0x08c379a000000000000000000000000000000000000000000000000000000000\n      dup2\n      mstore\n      0x04\n      add\n      dup1\n      dup1\n      0x20\n      add\n      dup3\n      dup2\n      sub\n      dup3\n      mstore\n      0x0c\n      dup2\n      mstore\n      0x20\n      add\n      dup1\n      0x4e4f545f474f5645524e4f520000000000000000000000000000000000000000\n      dup2\n      mstore\n      pop\n      0x20\n      add\n      swap2\n      pop\n      pop\n      mload(0x40)\n      dup1\n      swap2\n      sub\n      swap1\n      revert\n    tag_280:\n        /* \"scalable-dex/contracts/src/components/Governance.sol\":4746:4751  false */\n      0x00\n        /* \"scalable-dex/contracts/src/components/Governance.sol\":4701:4704  gub */\n      dup2\n        /* \"scalable-dex/contracts/src/components/Governance.sol\":4701:4723  gub.effectiveGovernors */\n      0x00\n      add\n        /* \"scalable-dex/contracts/src/components/Governance.sol\":4701:4743  gub.effectiveGovernors[governorForRemoval] */\n      0x00\n        /* \"scalable-dex/contracts/src/components/Governance.sol\":4724:4742  governorForRemoval */\n      dup5\n        /* \"scalable-dex/contracts/src/components/Governance.sol\":4701:4743  gub.effectiveGovernors[governorForRemoval] */\n      0xffffffffffffffffffffffffffffffffffffffff\n      and\n      0xffffffffffffffffffffffffffffffffffffffff\n      and\n      dup2\n      mstore\n      0x20\n      add\n      swap1\n      dup2\n      mstore\n      0x20\n      add\n      0x00\n      keccak256\n      0x00\n        /* \"scalable-dex/contracts/src/components/Governance.sol\":4701:4751  gub.effectiveGovernors[governorForRemoval] = false */\n      0x0100\n      exp\n      dup2\n      sload\n      dup2\n      0xff\n      mul\n      not\n      and\n      swap1\n      dup4\n      iszero\n      iszero\n      mul\n      or\n      swap1\n      sstore\n      pop\n        /* \"scalable-dex/contracts/src/components/Governance.sol\":4766:4804  LogRemovedGovernor(governorForRemoval) */\n      0xd75f94825e770b8b512be8e74759e252ad00e102e38f50cce2f7c6f868a29599\n        /* \"scalable-dex/contracts/src/components/Governance.sol\":4785:4803  governorForRemoval */\n      dup3\n        /* \"scalable-dex/contracts/src/components/Governance.sol\":4766:4804  LogRemovedGovernor(governorForRemoval) */\n      mload(0x40)\n      dup1\n      dup3\n      0xffffffffffffffffffffffffffffffffffffffff\n      and\n      dup2\n      mstore\n      0x20\n      add\n      swap2\n      pop\n      pop\n      mload(0x40)\n      dup1\n      swap2\n      sub\n      swap1\n      log1\n        /* \"scalable-dex/contracts/src/interfaces/MGovernance.sol\":351:352  _ */\n      pop\n        /* \"scalable-dex/contracts/src/components/Governance.sol\":4406:4811  function removeGovernor(address governorForRemoval) internal onlyGovernance {... */\n      pop\n      jump\t// out\n        /* \"scalable-dex/contracts/src/components/ApprovalChain.sol\":3047:3960  function removeEntry(StarkExTypes.ApprovalChainData storage chain, address entry)... */\n    tag_170:\n        /* \"scalable-dex/contracts/src/interfaces/MGovernance.sol\":299:321  isGovernor(msg.sender) */\n      tag_282\n        /* \"scalable-dex/contracts/src/interfaces/MGovernance.sol\":310:320  msg.sender */\n      caller\n        /* \"scalable-dex/contracts/src/interfaces/MGovernance.sol\":299:309  isGovernor */\n      tag_147\n        /* \"scalable-dex/contracts/src/interfaces/MGovernance.sol\":299:321  isGovernor(msg.sender) */\n      jump\t// in\n    tag_282:\n        /* \"scalable-dex/contracts/src/interfaces/MGovernance.sol\":291:341  require(isGovernor(msg.sender), \"ONLY_GOVERNANCE\") */\n      tag_283\n      jumpi\n      mload(0x40)\n      0x08c379a000000000000000000000000000000000000000000000000000000000\n      dup2\n      mstore\n      0x04\n      add\n      dup1\n      dup1\n      0x20\n      add\n      dup3\n      dup2\n      sub\n      dup3\n      mstore\n      0x0f\n      dup2\n      mstore\n      0x20\n      add\n      dup1\n      0x4f4e4c595f474f5645524e414e43450000000000000000000000000000000000\n      dup2\n      mstore\n      pop\n      0x20\n      add\n      swap2\n      pop\n      pop\n      mload(0x40)\n      dup1\n      swap2\n      sub\n      swap1\n      revert\n    tag_283:\n        /* \"scalable-dex/contracts/src/interfaces/MFreezable.sol\":368:378  isFrozen() */\n      tag_285\n        /* \"scalable-dex/contracts/src/interfaces/MFreezable.sol\":368:376  isFrozen */\n      tag_52\n        /* \"scalable-dex/contracts/src/interfaces/MFreezable.sol\":368:378  isFrozen() */\n      jump\t// in\n    tag_285:\n        /* \"scalable-dex/contracts/src/interfaces/MFreezable.sol\":367:378  !isFrozen() */\n      iszero\n        /* \"scalable-dex/contracts/src/interfaces/MFreezable.sol\":359:398  require(!isFrozen(), \"STATE_IS_FROZEN\") */\n      tag_286\n      jumpi\n      mload(0x40)\n      0x08c379a000000000000000000000000000000000000000000000000000000000\n      dup2\n      mstore\n      0x04\n      add\n      dup1\n      dup1\n      0x20\n      add\n      dup3\n      dup2\n      sub\n      dup3\n      mstore\n      0x0f\n      dup2\n      mstore\n      0x20\n      add\n      dup1\n      0x53544154455f49535f46524f5a454e0000000000000000000000000000000000\n      dup2\n      mstore\n      pop\n      0x20\n      add\n      swap2\n      pop\n      pop\n      mload(0x40)\n      dup1\n      swap2\n      sub\n      swap1\n      revert\n    tag_286:\n        /* \"scalable-dex/contracts/src/components/ApprovalChain.sol\":3218:3240  address[] storage list */\n      0x00\n        /* \"scalable-dex/contracts/src/components/ApprovalChain.sol\":3243:3248  chain */\n      dup3\n        /* \"scalable-dex/contracts/src/components/ApprovalChain.sol\":3243:3253  chain.list */\n      0x00\n      add\n        /* \"scalable-dex/contracts/src/components/ApprovalChain.sol\":3218:3253  address[] storage list = chain.list */\n      swap1\n      pop\n        /* \"scalable-dex/contracts/src/components/ApprovalChain.sol\":3298:3309  uint256 idx */\n      0x00\n        /* \"scalable-dex/contracts/src/components/ApprovalChain.sol\":3312:3338  safeFindEntry(list, entry) */\n      tag_288\n        /* \"scalable-dex/contracts/src/components/ApprovalChain.sol\":3326:3330  list */\n      dup3\n        /* \"scalable-dex/contracts/src/components/ApprovalChain.sol\":3332:3337  entry */\n      dup5\n        /* \"scalable-dex/contracts/src/components/ApprovalChain.sol\":3312:3325  safeFindEntry */\n      tag_186\n        /* \"scalable-dex/contracts/src/components/ApprovalChain.sol\":3312:3338  safeFindEntry(list, entry) */\n      jump\t// in\n    tag_288:\n        /* \"scalable-dex/contracts/src/components/ApprovalChain.sol\":3298:3338  uint256 idx = safeFindEntry(list, entry) */\n      swap1\n      pop\n        /* \"scalable-dex/contracts/src/components/ApprovalChain.sol\":3348:3378  uint256 unlockedForRemovalTime */\n      0x00\n        /* \"scalable-dex/contracts/src/components/ApprovalChain.sol\":3381:3386  chain */\n      dup5\n        /* \"scalable-dex/contracts/src/components/ApprovalChain.sol\":3381:3409  chain.unlockedForRemovalTime */\n      0x01\n      add\n        /* \"scalable-dex/contracts/src/components/ApprovalChain.sol\":3381:3416  chain.unlockedForRemovalTime[entry] */\n      0x00\n        /* \"scalable-dex/contracts/src/components/ApprovalChain.sol\":3410:3415  entry */\n      dup6\n        /* \"scalable-dex/contracts/src/components/ApprovalChain.sol\":3381:3416  chain.unlockedForRemovalTime[entry] */\n      0xffffffffffffffffffffffffffffffffffffffff\n      and\n      0xffffffffffffffffffffffffffffffffffffffff\n      and\n      dup2\n      mstore\n      0x20\n      add\n      swap1\n      dup2\n      mstore\n      0x20\n      add\n      0x00\n      keccak256\n      sload\n        /* \"scalable-dex/contracts/src/components/ApprovalChain.sol\":3348:3416  uint256 unlockedForRemovalTime = chain.unlockedForRemovalTime[entry] */\n      swap1\n      pop\n        /* \"scalable-dex/contracts/src/components/ApprovalChain.sol\":3460:3461  0 */\n      0x00\n        /* \"scalable-dex/contracts/src/components/ApprovalChain.sol\":3435:3457  unlockedForRemovalTime */\n      dup2\n        /* \"scalable-dex/contracts/src/components/ApprovalChain.sol\":3435:3461  unlockedForRemovalTime > 0 */\n      gt\n        /* \"scalable-dex/contracts/src/components/ApprovalChain.sol\":3427:3487  require(unlockedForRemovalTime > 0, \"REMOVAL_NOT_ANNOUNCED\") */\n      tag_289\n      jumpi\n      mload(0x40)\n      0x08c379a000000000000000000000000000000000000000000000000000000000\n      dup2\n      mstore\n      0x04\n      add\n      dup1\n      dup1\n      0x20\n      add\n      dup3\n      dup2\n      sub\n      dup3\n      mstore\n      0x15\n      dup2\n      mstore\n      0x20\n      add\n      dup1\n      0x52454d4f56414c5f4e4f545f414e4e4f554e4345440000000000000000000000\n      dup2\n      mstore\n      pop\n      0x20\n      add\n      swap2\n      pop\n      pop\n      mload(0x40)\n      dup1\n      swap2\n      sub\n      swap1\n      revert\n    tag_289:\n        /* \"scalable-dex/contracts/src/components/ApprovalChain.sol\":3524:3546  unlockedForRemovalTime */\n      dup1\n        /* \"scalable-dex/contracts/src/components/ApprovalChain.sol\":3505:3520  block.timestamp */\n      timestamp\n        /* \"scalable-dex/contracts/src/components/ApprovalChain.sol\":3505:3546  block.timestamp >= unlockedForRemovalTime */\n      lt\n      iszero\n        /* \"scalable-dex/contracts/src/components/ApprovalChain.sol\":3497:3574  require(block.timestamp >= unlockedForRemovalTime, \"REMOVAL_NOT_ENABLED_YET\") */\n      tag_290\n      jumpi\n      mload(0x40)\n      0x08c379a000000000000000000000000000000000000000000000000000000000\n      dup2\n      mstore\n      0x04\n      add\n      dup1\n      dup1\n      0x20\n      add\n      dup3\n      dup2\n      sub\n      dup3\n      mstore\n      0x17\n      dup2\n      mstore\n      0x20\n      add\n      dup1\n      0x52454d4f56414c5f4e4f545f454e41424c45445f594554000000000000000000\n      dup2\n      mstore\n      pop\n      0x20\n      add\n      swap2\n      pop\n      pop\n      mload(0x40)\n      dup1\n      swap2\n      sub\n      swap1\n      revert\n    tag_290:\n        /* \"scalable-dex/contracts/src/components/ApprovalChain.sol\":3585:3602  uint256 n_entries */\n      0x00\n        /* \"scalable-dex/contracts/src/components/ApprovalChain.sol\":3605:3609  list */\n      dup4\n        /* \"scalable-dex/contracts/src/components/ApprovalChain.sol\":3605:3616  list.length */\n      dup1\n      sload\n      swap1\n      pop\n        /* \"scalable-dex/contracts/src/components/ApprovalChain.sol\":3585:3616  uint256 n_entries = list.length */\n      swap1\n      pop\n        /* \"scalable-dex/contracts/src/components/ApprovalChain.sol\":3694:3695  1 */\n      0x01\n        /* \"scalable-dex/contracts/src/components/ApprovalChain.sol\":3682:3691  n_entries */\n      dup2\n        /* \"scalable-dex/contracts/src/components/ApprovalChain.sol\":3682:3695  n_entries > 1 */\n      gt\n        /* \"scalable-dex/contracts/src/components/ApprovalChain.sol\":3674:3729  require(n_entries > 1, \"LAST_ENTRY_MAY_NOT_BE_REMOVED\") */\n      tag_291\n      jumpi\n      mload(0x40)\n      0x08c379a000000000000000000000000000000000000000000000000000000000\n      dup2\n      mstore\n      0x04\n      add\n      dup1\n      dup1\n      0x20\n      add\n      dup3\n      dup2\n      sub\n      dup3\n      mstore\n      0x1d\n      dup2\n      mstore\n      0x20\n      add\n      dup1\n      0x4c4153545f454e5452595f4d41595f4e4f545f42455f52454d4f564544000000\n      dup2\n      mstore\n      pop\n      0x20\n      add\n      swap2\n      pop\n      pop\n      mload(0x40)\n      dup1\n      swap2\n      sub\n      swap1\n      revert\n    tag_291:\n        /* \"scalable-dex/contracts/src/components/ApprovalChain.sol\":3763:3764  1 */\n      0x01\n        /* \"scalable-dex/contracts/src/components/ApprovalChain.sol\":3751:3760  n_entries */\n      dup2\n        /* \"scalable-dex/contracts/src/components/ApprovalChain.sol\":3751:3764  n_entries - 1 */\n      sub\n        /* \"scalable-dex/contracts/src/components/ApprovalChain.sol\":3744:3747  idx */\n      dup4\n        /* \"scalable-dex/contracts/src/components/ApprovalChain.sol\":3744:3764  idx != n_entries - 1 */\n      eq\n        /* \"scalable-dex/contracts/src/components/ApprovalChain.sol\":3740:3822  if (idx != n_entries - 1) {... */\n      tag_292\n      jumpi\n        /* \"scalable-dex/contracts/src/components/ApprovalChain.sol\":3792:3796  list */\n      dup4\n        /* \"scalable-dex/contracts/src/components/ApprovalChain.sol\":3809:3810  1 */\n      0x01\n        /* \"scalable-dex/contracts/src/components/ApprovalChain.sol\":3797:3806  n_entries */\n      dup3\n        /* \"scalable-dex/contracts/src/components/ApprovalChain.sol\":3797:3810  n_entries - 1 */\n      sub\n        /* \"scalable-dex/contracts/src/components/ApprovalChain.sol\":3792:3811  list[n_entries - 1] */\n      dup2\n      sload\n      dup2\n      lt\n      tag_293\n      jumpi\n      invalid\n    tag_293:\n      swap1\n      0x00\n      mstore\n      keccak256(0x00, 0x20)\n      add\n      0x00\n      swap1\n      sload\n      swap1\n      0x0100\n      exp\n      swap1\n      div\n      0xffffffffffffffffffffffffffffffffffffffff\n      and\n        /* \"scalable-dex/contracts/src/components/ApprovalChain.sol\":3780:3784  list */\n      dup5\n        /* \"scalable-dex/contracts/src/components/ApprovalChain.sol\":3785:3788  idx */\n      dup5\n        /* \"scalable-dex/contracts/src/components/ApprovalChain.sol\":3780:3789  list[idx] */\n      dup2\n      sload\n      dup2\n      lt\n      tag_295\n      jumpi\n      invalid\n    tag_295:\n      swap1\n      0x00\n      mstore\n      keccak256(0x00, 0x20)\n      add\n      0x00\n        /* \"scalable-dex/contracts/src/components/ApprovalChain.sol\":3780:3811  list[idx] = list[n_entries - 1] */\n      0x0100\n      exp\n      dup2\n      sload\n      dup2\n      0xffffffffffffffffffffffffffffffffffffffff\n      mul\n      not\n      and\n      swap1\n      dup4\n      0xffffffffffffffffffffffffffffffffffffffff\n      and\n      mul\n      or\n      swap1\n      sstore\n      pop\n        /* \"scalable-dex/contracts/src/components/ApprovalChain.sol\":3740:3822  if (idx != n_entries - 1) {... */\n    tag_292:\n        /* \"scalable-dex/contracts/src/components/ApprovalChain.sol\":3831:3835  list */\n      dup4\n        /* \"scalable-dex/contracts/src/components/ApprovalChain.sol\":3831:3841  list.pop() */\n      dup1\n      sload\n      dup1\n      tag_297\n      jumpi\n      invalid\n    tag_297:\n      0x01\n      swap1\n      sub\n      dup2\n      dup2\n      swap1\n      0x00\n      mstore\n      keccak256(0x00, 0x20)\n      add\n      exp(0x0100, 0x00)\n      dup2\n      sload\n      swap1\n      0xffffffffffffffffffffffffffffffffffffffff\n      mul\n      not\n      and\n      swap1\n      sstore\n      swap1\n      sstore\n        /* \"scalable-dex/contracts/src/components/ApprovalChain.sol\":3858:3863  chain */\n      dup6\n        /* \"scalable-dex/contracts/src/components/ApprovalChain.sol\":3858:3886  chain.unlockedForRemovalTime */\n      0x01\n      add\n        /* \"scalable-dex/contracts/src/components/ApprovalChain.sol\":3858:3893  chain.unlockedForRemovalTime[entry] */\n      0x00\n        /* \"scalable-dex/contracts/src/components/ApprovalChain.sol\":3887:3892  entry */\n      dup7\n        /* \"scalable-dex/contracts/src/components/ApprovalChain.sol\":3858:3893  chain.unlockedForRemovalTime[entry] */\n      0xffffffffffffffffffffffffffffffffffffffff\n      and\n      0xffffffffffffffffffffffffffffffffffffffff\n      and\n      dup2\n      mstore\n      0x20\n      add\n      swap1\n      dup2\n      mstore\n      0x20\n      add\n      0x00\n      keccak256\n        /* \"scalable-dex/contracts/src/components/ApprovalChain.sol\":3851:3893  delete chain.unlockedForRemovalTime[entry] */\n      0x00\n      swap1\n      sstore\n        /* \"scalable-dex/contracts/src/components/ApprovalChain.sol\":3908:3953  LogRemoved(entry, Identity(entry).identify()) */\n      0x35b176cf4f09df896aa55e10eec90bb4c4689ea1d076135a8de3138d829d0142\n        /* \"scalable-dex/contracts/src/components/ApprovalChain.sol\":3919:3924  entry */\n      dup6\n        /* \"scalable-dex/contracts/src/components/ApprovalChain.sol\":3935:3940  entry */\n      dup7\n        /* \"scalable-dex/contracts/src/components/ApprovalChain.sol\":3926:3950  Identity(entry).identify */\n      0xffffffffffffffffffffffffffffffffffffffff\n      and\n      0xeeb72866\n        /* \"scalable-dex/contracts/src/components/ApprovalChain.sol\":3926:3952  Identity(entry).identify() */\n      mload(0x40)\n      dup2\n      0xffffffff\n      and\n      0xe0\n      shl\n      dup2\n      mstore\n      0x04\n      add\n      0x00\n      mload(0x40)\n      dup1\n      dup4\n      sub\n      dup2\n      dup7\n      dup1\n      extcodesize\n      iszero\n      dup1\n      iszero\n      tag_299\n      jumpi\n      0x00\n      dup1\n      revert\n    tag_299:\n      pop\n      gas\n      staticcall\n      iszero\n      dup1\n      iszero\n      tag_301\n      jumpi\n      returndatasize\n      0x00\n      dup1\n      returndatacopy\n      revert(0x00, returndatasize)\n    tag_301:\n      pop\n      pop\n      pop\n      pop\n      mload(0x40)\n      returndatasize\n      0x00\n      dup3\n      returndatacopy\n      returndatasize\n      not(0x1f)\n      0x1f\n      dup3\n      add\n      and\n      dup3\n      add\n      dup1\n      0x40\n      mstore\n      pop\n      0x20\n      dup2\n      lt\n      iszero\n      tag_302\n      jumpi\n      0x00\n      dup1\n      revert\n    tag_302:\n      dup2\n      add\n      swap1\n      dup1\n      dup1\n      mload\n      mload(0x40)\n      swap4\n      swap3\n      swap2\n      swap1\n      dup5\n      0x0100000000\n      dup3\n      gt\n      iszero\n      tag_303\n      jumpi\n      0x00\n      dup1\n      revert\n    tag_303:\n      dup4\n      dup3\n      add\n      swap2\n      pop\n      0x20\n      dup3\n      add\n      dup6\n      dup2\n      gt\n      iszero\n      tag_304\n      jumpi\n      0x00\n      dup1\n      revert\n    tag_304:\n      dup3\n      mload\n      dup7\n      0x01\n      dup3\n      mul\n      dup4\n      add\n      gt\n      0x0100000000\n      dup3\n      gt\n      or\n      iszero\n      tag_305\n      jumpi\n      0x00\n      dup1\n      revert\n    tag_305:\n      dup1\n      dup4\n      mstore\n      0x20\n      dup4\n      add\n      swap3\n      pop\n      pop\n      pop\n      swap1\n      dup1\n      mload\n      swap1\n      0x20\n      add\n      swap1\n      dup1\n      dup4\n      dup4\n      0x00\n    tag_306:\n      dup4\n      dup2\n      lt\n      iszero\n      tag_308\n      jumpi\n      dup1\n      dup3\n      add\n      mload\n      dup2\n      dup5\n      add\n      mstore\n      0x20\n      dup2\n      add\n      swap1\n      pop\n      jump(tag_306)\n    tag_308:\n      pop\n      pop\n      pop\n      pop\n      swap1\n      pop\n      swap1\n      dup2\n      add\n      swap1\n      0x1f\n      and\n      dup1\n      iszero\n      tag_309\n      jumpi\n      dup1\n      dup3\n      sub\n      dup1\n      mload\n      0x01\n      dup4\n      0x20\n      sub\n      0x0100\n      exp\n      sub\n      not\n      and\n      dup2\n      mstore\n      0x20\n      add\n      swap2\n      pop\n    tag_309:\n      pop\n      0x40\n      mstore\n      pop\n      pop\n      pop\n        /* \"scalable-dex/contracts/src/components/ApprovalChain.sol\":3908:3953  LogRemoved(entry, Identity(entry).identify()) */\n      mload(0x40)\n      dup1\n      dup4\n      0xffffffffffffffffffffffffffffffffffffffff\n      and\n      dup2\n      mstore\n      0x20\n      add\n      dup1\n      0x20\n      add\n      dup3\n      dup2\n      sub\n      dup3\n      mstore\n      dup4\n      dup2\n      dup2\n      mload\n      dup2\n      mstore\n      0x20\n      add\n      swap2\n      pop\n      dup1\n      mload\n      swap1\n      0x20\n      add\n      swap1\n      dup1\n      dup4\n      dup4\n      0x00\n    tag_310:\n      dup4\n      dup2\n      lt\n      iszero\n      tag_312\n      jumpi\n      dup1\n      dup3\n      add\n      mload\n      dup2\n      dup5\n      add\n      mstore\n      0x20\n      dup2\n      add\n      swap1\n      pop\n      jump(tag_310)\n    tag_312:\n      pop\n      pop\n      pop\n      pop\n      swap1\n      pop\n      swap1\n      dup2\n      add\n      swap1\n      0x1f\n      and\n      dup1\n      iszero\n      tag_313\n      jumpi\n      dup1\n      dup3\n      sub\n      dup1\n      mload\n      0x01\n      dup4\n      0x20\n      sub\n      0x0100\n      exp\n      sub\n      not\n      and\n      dup2\n      mstore\n      0x20\n      add\n      swap2\n      pop\n    tag_313:\n      pop\n      swap4\n      pop\n      pop\n      pop\n      pop\n      mload(0x40)\n      dup1\n      swap2\n      sub\n      swap1\n      log1\n        /* \"scalable-dex/contracts/src/interfaces/MFreezable.sol\":408:409  _ */\n      pop\n      pop\n      pop\n      pop\n        /* \"scalable-dex/contracts/src/components/ApprovalChain.sol\":3047:3960  function removeEntry(StarkExTypes.ApprovalChainData storage chain, address entry)... */\n      pop\n      pop\n      jump\t// out\n        /* \"scalable-dex/contracts/src/components/ApprovalChain.sol\":2228:2482  function safeFindEntry(address[] storage list, address entry)... */\n    tag_186:\n        /* \"scalable-dex/contracts/src/components/ApprovalChain.sol\":2354:2365  uint256 idx */\n      0x00\n        /* \"scalable-dex/contracts/src/components/ApprovalChain.sol\":2387:2409  findEntry(list, entry) */\n      tag_315\n        /* \"scalable-dex/contracts/src/components/ApprovalChain.sol\":2397:2401  list */\n      dup4\n        /* \"scalable-dex/contracts/src/components/ApprovalChain.sol\":2403:2408  entry */\n      dup4\n        /* \"scalable-dex/contracts/src/components/ApprovalChain.sol\":2387:2396  findEntry */\n      tag_136\n        /* \"scalable-dex/contracts/src/components/ApprovalChain.sol\":2387:2409  findEntry(list, entry) */\n      jump\t// in\n    tag_315:\n        /* \"scalable-dex/contracts/src/components/ApprovalChain.sol\":2381:2409  idx = findEntry(list, entry) */\n      swap1\n      pop\n        /* \"scalable-dex/contracts/src/interfaces/MApprovalChain.sol\":297:299  ~0 */\n      0xffffffffffffffffffffffffffffffffffffffffffffffffffffffffffffffff\n        /* \"scalable-dex/contracts/src/components/ApprovalChain.sol\":2428:2431  idx */\n      dup2\n        /* \"scalable-dex/contracts/src/components/ApprovalChain.sol\":2428:2450  idx != ENTRY_NOT_FOUND */\n      eq\n      iszero\n        /* \"scalable-dex/contracts/src/components/ApprovalChain.sol\":2420:2475  require(idx != ENTRY_NOT_FOUND, \"ENTRY_DOES_NOT_EXIST\") */\n      tag_316\n      jumpi\n      mload(0x40)\n      0x08c379a000000000000000000000000000000000000000000000000000000000\n      dup2\n      mstore\n      0x04\n      add\n      dup1\n      dup1\n      0x20\n      add\n      dup3\n      dup2\n      sub\n      dup3\n      mstore\n      0x14\n      dup2\n      mstore\n      0x20\n      add\n      dup1\n      0x454e5452595f444f45535f4e4f545f4558495354000000000000000000000000\n      dup2\n      mstore\n      pop\n      0x20\n      add\n      swap2\n      pop\n      pop\n      mload(0x40)\n      dup1\n      swap2\n      sub\n      swap1\n      revert\n    tag_316:\n        /* \"scalable-dex/contracts/src/components/ApprovalChain.sol\":2228:2482  function safeFindEntry(address[] storage list, address entry)... */\n      swap3\n      swap2\n      pop\n      pop\n      jump\t// out\n        /* \"scalable-dex/contracts/src/components/Governance.sol\":1231:1510  function contractGovernanceInfo() internal view returns (GovernanceInfoStruct storage) {... */\n    tag_206:\n        /* \"scalable-dex/contracts/src/components/Governance.sol\":1288:1316  GovernanceInfoStruct storage */\n      0x00\n        /* \"scalable-dex/contracts/src/components/Governance.sol\":1328:1345  string memory tag */\n      0x60\n        /* \"scalable-dex/contracts/src/components/Governance.sol\":1348:1366  getGovernanceTag() */\n      tag_318\n        /* \"scalable-dex/contracts/src/components/Governance.sol\":1348:1364  getGovernanceTag */\n      tag_319\n        /* \"scalable-dex/contracts/src/components/Governance.sol\":1348:1366  getGovernanceTag() */\n      jump\t// in\n    tag_318:\n        /* \"scalable-dex/contracts/src/components/Governance.sol\":1328:1366  string memory tag = getGovernanceTag() */\n      swap1\n      pop\n        /* \"scalable-dex/contracts/src/components/Governance.sol\":1376:1408  GovernanceInfoStruct storage gub */\n      0x00\n        /* \"scalable-dex/contracts/src/components/Governance.sol\":1411:1425  governanceInfo */\n      dup1\n        /* \"scalable-dex/contracts/src/components/Governance.sol\":1426:1429  tag */\n      dup3\n        /* \"scalable-dex/contracts/src/components/Governance.sol\":1411:1430  governanceInfo[tag] */\n      mload(0x40)\n      dup1\n      dup3\n      dup1\n      mload\n      swap1\n      0x20\n      add\n      swap1\n      dup1\n      dup4\n      dup4\n    tag_320:\n      0x20\n      dup4\n      lt\n      tag_322\n      jumpi\n      dup1\n      mload\n      dup3\n      mstore\n      0x20\n      dup3\n      add\n      swap2\n      pop\n      0x20\n      dup2\n      add\n      swap1\n      pop\n      0x20\n      dup4\n      sub\n      swap3\n      pop\n      jump(tag_320)\n    tag_322:\n      0x01\n      dup4\n      0x20\n      sub\n      0x0100\n      exp\n      sub\n      dup1\n      not\n      dup3\n      mload\n      and\n      dup2\n      dup5\n      mload\n      and\n      dup1\n      dup3\n      or\n      dup6\n      mstore\n      pop\n      pop\n      pop\n      pop\n      pop\n      pop\n      swap1\n      pop\n      add\n      swap2\n      pop\n      pop\n      swap1\n      dup2\n      mstore\n      0x20\n      add\n      mload(0x40)\n      dup1\n      swap2\n      sub\n      swap1\n      keccak256\n        /* \"scalable-dex/contracts/src/components/Governance.sol\":1376:1430  GovernanceInfoStruct storage gub = governanceInfo[tag] */\n      swap1\n      pop\n        /* \"scalable-dex/contracts/src/components/Governance.sol\":1448:1451  gub */\n      dup1\n        /* \"scalable-dex/contracts/src/components/Governance.sol\":1448:1463  gub.initialized */\n      0x01\n      add\n      0x14\n      swap1\n      sload\n      swap1\n      0x0100\n      exp\n      swap1\n      div\n      0xff\n      and\n        /* \"scalable-dex/contracts/src/components/Governance.sol\":1440:1483  require(gub.initialized, \"NOT_INITIALIZED\") */\n      tag_323\n      jumpi\n      mload(0x40)\n      0x08c379a000000000000000000000000000000000000000000000000000000000\n      dup2\n      mstore\n      0x04\n      add\n      dup1\n      dup1\n      0x20\n      add\n      dup3\n      dup2\n      sub\n      dup3\n      mstore\n      0x0f\n      dup2\n      mstore\n      0x20\n      add\n      dup1\n      0x4e4f545f494e495449414c495a45440000000000000000000000000000000000\n      dup2\n      mstore\n      pop\n      0x20\n      add\n      swap2\n      pop\n      pop\n      mload(0x40)\n      dup1\n      swap2\n      sub\n      swap1\n      revert\n    tag_323:\n        /* \"scalable-dex/contracts/src/components/Governance.sol\":1500:1503  gub */\n      dup1\n        /* \"scalable-dex/contracts/src/components/Governance.sol\":1493:1503  return gub */\n      swap3\n      pop\n      pop\n      pop\n        /* \"scalable-dex/contracts/src/components/Governance.sol\":1231:1510  function contractGovernanceInfo() internal view returns (GovernanceInfoStruct storage) {... */\n      swap1\n      jump\t// out\n        /* \"scalable-dex/contracts/src/components/Governance.sol\":3600:3841  function addGovernor(address newGovernor) private {... */\n    tag_209:\n        /* \"scalable-dex/contracts/src/components/Governance.sol\":3669:3692  isGovernor(newGovernor) */\n      tag_325\n        /* \"scalable-dex/contracts/src/components/Governance.sol\":3680:3691  newGovernor */\n      dup2\n        /* \"scalable-dex/contracts/src/components/Governance.sol\":3669:3679  isGovernor */\n      tag_147\n        /* \"scalable-dex/contracts/src/components/Governance.sol\":3669:3692  isGovernor(newGovernor) */\n      jump\t// in\n    tag_325:\n        /* \"scalable-dex/contracts/src/components/Governance.sol\":3668:3692  !isGovernor(newGovernor) */\n      iszero\n        /* \"scalable-dex/contracts/src/components/Governance.sol\":3660:3713  require(!isGovernor(newGovernor), \"ALREADY_GOVERNOR\") */\n      tag_326\n      jumpi\n      mload(0x40)\n      0x08c379a000000000000000000000000000000000000000000000000000000000\n      dup2\n      mstore\n      0x04\n      add\n      dup1\n      dup1\n      0x20\n      add\n      dup3\n      dup2\n      sub\n      dup3\n      mstore\n      0x10\n      dup2\n      mstore\n      0x20\n      add\n      dup1\n      0x414c52454144595f474f5645524e4f5200000000000000000000000000000000\n      dup2\n      mstore\n      pop\n      0x20\n      add\n      swap2\n      pop\n      pop\n      mload(0x40)\n      dup1\n      swap2\n      sub\n      swap1\n      revert\n    tag_326:\n        /* \"scalable-dex/contracts/src/components/Governance.sol\":3723:3755  GovernanceInfoStruct storage gub */\n      0x00\n        /* \"scalable-dex/contracts/src/components/Governance.sol\":3758:3782  contractGovernanceInfo() */\n      tag_327\n        /* \"scalable-dex/contracts/src/components/Governance.sol\":3758:3780  contractGovernanceInfo */\n      tag_206\n        /* \"scalable-dex/contracts/src/components/Governance.sol\":3758:3782  contractGovernanceInfo() */\n      jump\t// in\n    tag_327:\n        /* \"scalable-dex/contracts/src/components/Governance.sol\":3723:3782  GovernanceInfoStruct storage gub = contractGovernanceInfo() */\n      swap1\n      pop\n        /* \"scalable-dex/contracts/src/components/Governance.sol\":3830:3834  true */\n      0x01\n        /* \"scalable-dex/contracts/src/components/Governance.sol\":3792:3795  gub */\n      dup2\n        /* \"scalable-dex/contracts/src/components/Governance.sol\":3792:3814  gub.effectiveGovernors */\n      0x00\n      add\n        /* \"scalable-dex/contracts/src/components/Governance.sol\":3792:3827  gub.effectiveGovernors[newGovernor] */\n      0x00\n        /* \"scalable-dex/contracts/src/components/Governance.sol\":3815:3826  newGovernor */\n      dup5\n        /* \"scalable-dex/contracts/src/components/Governance.sol\":3792:3827  gub.effectiveGovernors[newGovernor] */\n      0xffffffffffffffffffffffffffffffffffffffff\n      and\n      0xffffffffffffffffffffffffffffffffffffffff\n      and\n      dup2\n      mstore\n      0x20\n      add\n      swap1\n      dup2\n      mstore\n      0x20\n      add\n      0x00\n      keccak256\n      0x00\n        /* \"scalable-dex/contracts/src/components/Governance.sol\":3792:3834  gub.effectiveGovernors[newGovernor] = true */\n      0x0100\n      exp\n      dup2\n      sload\n      dup2\n      0xff\n      mul\n      not\n      and\n      swap1\n      dup4\n      iszero\n      iszero\n      mul\n      or\n      swap1\n      sstore\n      pop\n        /* \"scalable-dex/contracts/src/components/Governance.sol\":3600:3841  function addGovernor(address newGovernor) private {... */\n      pop\n      pop\n      jump\t// out\n        /* \"scalable-dex/contracts/src/libraries/Common.sol\":161:351  function isContract(address account) internal view returns (bool) {... */\n    tag_225:\n        /* \"scalable-dex/contracts/src/libraries/Common.sol\":221:225  bool */\n      0x00\n        /* \"scalable-dex/contracts/src/libraries/Common.sol\":237:249  uint256 size */\n      dup1\n        /* \"scalable-dex/contracts/src/libraries/Common.sol\":302:309  account */\n      dup3\n        /* \"scalable-dex/contracts/src/libraries/Common.sol\":290:310  extcodesize(account) */\n      extcodesize\n        /* \"scalable-dex/contracts/src/libraries/Common.sol\":282:310  size := extcodesize(account) */\n      swap1\n      pop\n        /* \"scalable-dex/contracts/src/libraries/Common.sol\":343:344  0 */\n      0x00\n        /* \"scalable-dex/contracts/src/libraries/Common.sol\":336:340  size */\n      dup2\n        /* \"scalable-dex/contracts/src/libraries/Common.sol\":336:344  size > 0 */\n      gt\n        /* \"scalable-dex/contracts/src/libraries/Common.sol\":329:344  return size > 0 */\n      swap2\n      pop\n      pop\n        /* \"scalable-dex/contracts/src/libraries/Common.sol\":161:351  function isContract(address account) internal view returns (bool) {... */\n      swap2\n      swap1\n      pop\n      jump\t// out\n        /* \"scalable-dex/contracts/src/components/MainGovernance.sol\":1827:1953  function getGovernanceTag() internal pure override returns (string memory tag) {... */\n    tag_319:\n        /* \"scalable-dex/contracts/src/components/MainGovernance.sol\":1887:1904  string memory tag */\n      0x60\n        /* \"scalable-dex/contracts/src/components/MainGovernance.sol\":1922:1946  MAIN_GOVERNANCE_INFO_TAG */\n      mload(0x40)\n      dup1\n      0x60\n      add\n      0x40\n      mstore\n      dup1\n      0x26\n      dup2\n      mstore\n      0x20\n      add\n      data_ba6723cd96f04722dd5b39f1fec1d379925779afeea0248c94e7ccb35c720bcb\n      0x26\n      swap2\n      codecopy\n        /* \"scalable-dex/contracts/src/components/MainGovernance.sol\":1916:1946  tag = MAIN_GOVERNANCE_INFO_TAG */\n      swap1\n      pop\n        /* \"scalable-dex/contracts/src/components/MainGovernance.sol\":1827:1953  function getGovernanceTag() internal pure override returns (string memory tag) {... */\n      swap1\n      jump\t// out\n    stop\n    data_ba6723cd96f04722dd5b39f1fec1d379925779afeea0248c94e7ccb35c720bcb 537461726b45782e4d61696e2e323031392e476f7665726e6f7273496e666f726d6174696f6e\n\n    auxdata: 0xa26469706673582212207db7605fda65a1462f587bacd695f5cae4e754b3bee5c474dd341069f3d798a264736f6c634300060c0033\n}\n",
				"bytecode": {
					"linkReferences": {},
					"object": "608060405234801561001057600080fd5b50612b02806100206000396000f3fe608060405234801561001057600080fd5b50600436106101a85760003560e01c806377e84e0d116100f9578063bd1279ae11610097578063ca2dfd0a11610071578063ca2dfd0a146107cf578063e30a5cff14610813578063e6de628214610831578063eeb728661461084f576101a8565b8063bd1279ae14610659578063bdb75785146106b3578063c23b60ef1461074c576101a8565b8063993f3639116100d3578063993f363914610595578063a1cc921e146105b3578063b1e640bf146105f7578063b76631121461063b576101a8565b806377e84e0d146105295780637cf12b90146105475780638c4bce1c14610551576101a8565b80633776fe2a11610166578063439fab9111610140578063439fab91146103ed57806345f5cd97146104665780634eab9ed3146104c057806372eb36881461051f576101a8565b80633776fe2a146102f25780633cc660ad1461038b578063418573b7146103a9576101a8565b8062717542146101ad5780631ac347f2146101cb5780631d078bbb1461022a57806328700a151461026e578063331052181461027857806333eeb147146102d2575b600080fd5b6101b56108d2565b6040518082815260200191505060405180910390f35b6101d36108d9565b6040518080602001828103825283818151815260200191508051906020019060200280838360005b838110156102165780820151818401526020810190506101fb565b505050509050019250505060405180910390f35b61026c6004803603602081101561024057600080fd5b81019080803573ffffffffffffffffffffffffffffffffffffffff16906020019092919050505061096a565b005b610276610981565b005b6102ba6004803603602081101561028e57600080fd5b81019080803573ffffffffffffffffffffffffffffffffffffffff16906020019092919050505061098b565b60405180821515815260200191505060405180910390f35b6102da6109c5565b60405180821515815260200191505060405180910390f35b6103896004803603604081101561030857600080fd5b81019080803573ffffffffffffffffffffffffffffffffffffffff1690602001909291908035906020019064010000000081111561034557600080fd5b82018360208201111561035757600080fd5b8035906020019184600183028401116401000000008311171561037957600080fd5b90919293919293905050506109dc565b005b610393610a33565b6040518082815260200191505060405180910390f35b6103eb600480360360208110156103bf57600080fd5b81019080803573ffffffffffffffffffffffffffffffffffffffff169060200190929190505050610a38565b005b6104646004803603602081101561040357600080fd5b810190808035906020019064010000000081111561042057600080fd5b82018360208201111561043257600080fd5b8035906020019184600183028401116401000000008311171561045457600080fd5b9091929391929390505050610a4f565b005b6104a86004803603602081101561047c57600080fd5b81019080803573ffffffffffffffffffffffffffffffffffffffff169060200190929190505050610abd565b60405180821515815260200191505060405180910390f35b6104c8610acf565b6040518080602001828103825283818151815260200191508051906020019060200280838360005b8381101561050b5780820151818401526020810190506104f0565b505050509050019250505060405180910390f35b610527610b60565b005b610531610b6a565b6040518082815260200191505060405180910390f35b61054f610b71565b005b6105936004803603602081101561056757600080fd5b81019080803573ffffffffffffffffffffffffffffffffffffffff169060200190929190505050610d49565b005b61059d610d55565b6040518082815260200191505060405180910390f35b6105f5600480360360208110156105c957600080fd5b81019080803573ffffffffffffffffffffffffffffffffffffffff169060200190929190505050610d5d565b005b6106396004803603602081101561060d57600080fd5b81019080803573ffffffffffffffffffffffffffffffffffffffff169060200190929190505050610d69565b005b610643610d77565b6040518082815260200191505060405180910390f35b61069b6004803603602081101561066f57600080fd5b81019080803573ffffffffffffffffffffffffffffffffffffffff169060200190929190505050610d83565b60405180821515815260200191505060405180910390f35b61074a600480360360408110156106c957600080fd5b81019080803573ffffffffffffffffffffffffffffffffffffffff1690602001909291908035906020019064010000000081111561070657600080fd5b82018360208201111561071857600080fd5b8035906020019184600183028401116401000000008311171561073a57600080fd5b9091929391929390505050610dbd565b005b610754610e14565b6040518080602001828103825283818151815260200191508051906020019080838360005b83811015610794578082015181840152602081019050610779565b50505050905090810190601f1680156107c15780820380516001836020036101000a031916815260200191505b509250505060405180910390f35b610811600480360360208110156107e557600080fd5b81019080803573ffffffffffffffffffffffffffffffffffffffff169060200190929190505050610e30565b005b61081b610e3e565b6040518082815260200191505060405180910390f35b610839610e43565b6040518082815260200191505060405180910390f35b610857610e48565b6040518080602001828103825283818151815260200191508051906020019080838360005b8381101561089757808201518184015260208101905061087c565b50505050905090810190601f1680156108c45780820380516001836020036101000a031916815260200191505b509250505060405180910390f35b62093a8081565b6060601b60000180548060200260200160405190810160405280929190818152602001828054801561096057602002820191906000526020600020905b8160009054906101000a900473ffffffffffffffffffffffffffffffffffffffff1673ffffffffffffffffffffffffffffffffffffffff1681526020019060010190808311610916575b5050505050905090565b61097e601b82621baf8062093a8001610e85565b50565b6109896112fc565b565b60007fffffffffffffffffffffffffffffffffffffffffffffffffffffffffffffffff6109bc60196000018461148e565b14159050919050565b6000600460149054906101000a900460ff16905090565b610a2e601984604085858080601f016020809104026020016040519081016040528093929190818152602001838380828437600081840152601f19601f82011690508083019250505050505050611550565b505050565b600090565b610a4c601982621baf8062093a8001610e85565b50565b6040517f08c379a000000000000000000000000000000000000000000000000000000000815260040180806020018281038252600f8152602001807f4e4f545f494d504c454d454e544544000000000000000000000000000000000081525060200191505060405180910390fd5b6000610ac882611cbf565b9050919050565b60606019600001805480602002602001604051908101604052809291908181526020018280548015610b5657602002820191906000526020600020905b8160009054906101000a900473ffffffffffffffffffffffffffffffffffffffff1673ffffffffffffffffffffffffffffffffffffffff1681526020019060010190808311610b0c575b5050505050905090565b610b68611d23565b565b6202a30081565b610b796109c5565b610beb576040517f08c379a00000000000000000000000000000000000000000000000000000000081526004018080602001828103825260108152602001807f53544154455f4e4f545f46524f5a454e0000000000000000000000000000000081525060200191505060405180910390fd5b610bf433611cbf565b610c66576040517f08c379a000000000000000000000000000000000000000000000000000000000815260040180806020018281038252600f8152602001807f4f4e4c595f474f5645524e414e4345000000000000000000000000000000000081525060200191505060405180910390fd5b600554421015610cde576040517f08c379a00000000000000000000000000000000000000000000000000000000081526004018080602001828103825260188152602001807f554e465245455a455f4e4f545f414c4c4f5745445f594554000000000000000081525060200191505060405180910390fd5b6000600460146101000a81548160ff0219169083151502179055506001600d600082825401925050819055506001600f600082825401925050819055507f07017fe9180629cfffba412f65a9affcf9a121de02294179f5c058f881dcc9f860405160405180910390a1565b610d5281611e1d565b50565b6301e1338081565b610d6681611fb4565b50565b610d74601b82612203565b50565b621baf8062093a800181565b60007fffffffffffffffffffffffffffffffffffffffffffffffffffffffffffffffff610db4601b6000018461148e565b14159050919050565b610e0f601b84604085858080601f016020809104026020016040519081016040528093929190818152602001838380828437600081840152601f19601f82011690508083019250505050505050611550565b505050565b604051806060016040528060268152602001612aa76026913981565b610e3b601982612203565b50565b600a81565b604081565b60606040518060400160405280601d81526020017f537461726b576172655f416c6c5665726966696572735f323032305f31000000815250905090565b610e8e33611cbf565b610f00576040517f08c379a000000000000000000000000000000000000000000000000000000000815260040180806020018281038252600f8152602001807f4f4e4c595f474f5645524e414e4345000000000000000000000000000000000081525060200191505060405180910390fd5b610f086109c5565b15610f7b576040517f08c379a000000000000000000000000000000000000000000000000000000000815260040180806020018281038252600f8152602001807f53544154455f49535f46524f5a454e000000000000000000000000000000000081525060200191505060405180910390fd5b610f8883600001836127dd565b504281420111611000576040517f08c379a00000000000000000000000000000000000000000000000000000000081526004018080602001828103825260158152602001807f494e56414c49445f52454d4f56414c5f44454c4159000000000000000000000081525060200191505060405180910390fd5b60008360010160008473ffffffffffffffffffffffffffffffffffffffff1673ffffffffffffffffffffffffffffffffffffffff16815260200190815260200160002054146110b7576040517f08c379a00000000000000000000000000000000000000000000000000000000081526004018080602001828103825260118152602001807f414c52454144595f414e4e4f554e43454400000000000000000000000000000081525060200191505060405180910390fd5b8042018360010160008473ffffffffffffffffffffffffffffffffffffffff1673ffffffffffffffffffffffffffffffffffffffff168152602001908152602001600020819055507fa98ac1f696177f16ca482653307aa4a02b68cf03b14409a546de5adf946484fc828373ffffffffffffffffffffffffffffffffffffffff1663eeb728666040518163ffffffff1660e01b815260040160006040518083038186803b15801561116757600080fd5b505afa15801561117b573d6000803e3d6000fd5b505050506040513d6000823e3d601f19601f8201168201806040525060208110156111a557600080fd5b81019080805160405193929190846401000000008211156111c557600080fd5b838201915060208201858111156111db57600080fd5b82518660018202830111640100000000821117156111f857600080fd5b8083526020830192505050908051906020019080838360005b8381101561122c578082015181840152602081019050611211565b50505050905090810190601f1680156112595780820380516001836020036101000a031916815260200191505b50604052505050604051808373ffffffffffffffffffffffffffffffffffffffff16815260200180602001828103825283818151815260200191508051906020019080838360005b838110156112bc5780820151818401526020810190506112a1565b50505050905090810190601f1680156112e95780820380516001836020036101000a031916815260200191505b50935050505060405180910390a1505050565b6000611306612887565b90508060010160009054906101000a900473ffffffffffffffffffffffffffffffffffffffff1673ffffffffffffffffffffffffffffffffffffffff163373ffffffffffffffffffffffffffffffffffffffff16146113cd576040517f08c379a00000000000000000000000000000000000000000000000000000000081526004018080602001828103825260178152602001807f4f4e4c595f43414e4449444154455f474f5645524e4f5200000000000000000081525060200191505060405180910390fd5b6113fa8160010160009054906101000a900473ffffffffffffffffffffffffffffffffffffffff1661298d565b60008160010160006101000a81548173ffffffffffffffffffffffffffffffffffffffff021916908373ffffffffffffffffffffffffffffffffffffffff1602179055507fcfb473e6c03f9a29ddaf990e736fa3de5188a0bd85d684f5b6e164ebfbfff5d233604051808273ffffffffffffffffffffffffffffffffffffffff16815260200191505060405180910390a150565b6000808380549050905060005b81811015611524578373ffffffffffffffffffffffffffffffffffffffff168582815481106114c657fe5b9060005260206000200160009054906101000a900473ffffffffffffffffffffffffffffffffffffffff1673ffffffffffffffffffffffffffffffffffffffff16141561151757809250505061154a565b808060010191505061149b565b507fffffffffffffffffffffffffffffffffffffffffffffffffffffffffffffffff9150505b92915050565b61155933611cbf565b6115cb576040517f08c379a000000000000000000000000000000000000000000000000000000000815260040180806020018281038252600f8152602001807f4f4e4c595f474f5645524e414e4345000000000000000000000000000000000081525060200191505060405180910390fd5b6115d36109c5565b15611646576040517f08c379a000000000000000000000000000000000000000000000000000000000815260040180806020018281038252600f8152602001807f53544154455f49535f46524f5a454e000000000000000000000000000000000081525060200191505060405180910390fd5b600084600001905061166d8473ffffffffffffffffffffffffffffffffffffffff16612a73565b6116df576040517f08c379a00000000000000000000000000000000000000000000000000000000081526004018080602001828103825260148152602001807f414444524553535f4e4f545f434f4e545241435400000000000000000000000081525060200191505060405180910390fd5b60008473ffffffffffffffffffffffffffffffffffffffff1663eeb728666040518163ffffffff1660e01b815260040160006040518083038186803b15801561172757600080fd5b505afa15801561173b573d6000803e3d6000fd5b505050506040513d6000823e3d601f19601f82011682018060405250602081101561176557600080fd5b810190808051604051939291908464010000000082111561178557600080fd5b8382019150602082018581111561179b57600080fd5b82518660018202830111640100000000821117156117b857600080fd5b8083526020830192505050908051906020019080838360005b838110156117ec5780820151818401526020810190506117d1565b50505050905090810190601f1680156118195780820380516001836020036101000a031916815260200191505b506040525050506040516020018082805190602001908083835b602083106118565780518252602082019150602081019050602083039250611833565b6001836020036101000a0380198251168184511680821785525050505050509050019150506040516020818303038152906040528051906020012090506000836040516020018082805190602001908083835b602083106118cc57805182526020820191506020810190506020830392506118a9565b6001836020036101000a03801982511681845116808217855250505050505090500191505060405160208183030381529060405280519060200120905080821461197e576040517f08c379a000000000000000000000000000000000000000000000000000000000815260040180806020018281038252601e8152602001807f554e45585045435445445f434f4e54524143545f4944454e544946494552000081525060200191505060405180910390fd5b848380549050106119f7576040517f08c379a00000000000000000000000000000000000000000000000000000000081526004018080602001828103825260158152602001807f434841494e5f41545f4d41585f4341504143495459000000000000000000000081525060200191505060405180910390fd5b7fffffffffffffffffffffffffffffffffffffffffffffffffffffffffffffffff611a22848861148e565b14611a95576040517f08c379a00000000000000000000000000000000000000000000000000000000081526004018080602001828103825260148152602001807f454e5452595f414c52454144595f45584953545300000000000000000000000081525060200191505060405180910390fd5b600083805490501480611b2557508573ffffffffffffffffffffffffffffffffffffffff1663d6354e156040518163ffffffff1660e01b815260040160206040518083038186803b158015611ae957600080fd5b505afa158015611afd573d6000803e3d6000fd5b505050506040513d6020811015611b1357600080fd5b81019080805190602001909291905050505b611b97576040517f08c379a00000000000000000000000000000000000000000000000000000000081526004018080602001828103825260118152602001807f454e5452595f4e4f545f454e41424c454400000000000000000000000000000081525060200191505060405180910390fd5b86600001869080600181540180825580915050600190039060005260206000200160009091909190916101000a81548173ffffffffffffffffffffffffffffffffffffffff021916908373ffffffffffffffffffffffffffffffffffffffff1602179055507faa7f29c97c6763919ef56006f07fbf5c1ac734b0414665df43cecdbce9010c9b8685604051808373ffffffffffffffffffffffffffffffffffffffff16815260200180602001828103825283818151815260200191508051906020019080838360005b83811015611c7b578082015181840152602081019050611c60565b50505050905090810190601f168015611ca85780820380516001836020036101000a031916815260200191505b50935050505060405180910390a150505050505050565b600080611cca612887565b90508060000160008473ffffffffffffffffffffffffffffffffffffffff1673ffffffffffffffffffffffffffffffffffffffff16815260200190815260200160002060009054906101000a900460ff16915050919050565b611d2c33611cbf565b611d9e576040517f08c379a000000000000000000000000000000000000000000000000000000000815260040180806020018281038252600f8152602001807f4f4e4c595f474f5645524e414e4345000000000000000000000000000000000081525060200191505060405180910390fd5b6000611da8612887565b905060008160010160006101000a81548173ffffffffffffffffffffffffffffffffffffffff021916908373ffffffffffffffffffffffffffffffffffffffff1602179055507f7a8dc7dd7fffb43c4807438fa62729225156941e641fd877938f4edade3429f560405160405180910390a150565b611e2633611cbf565b611e98576040517f08c379a000000000000000000000000000000000000000000000000000000000815260040180806020018281038252600f8152602001807f4f4e4c595f474f5645524e414e4345000000000000000000000000000000000081525060200191505060405180910390fd5b6000611ea2612887565b9050611ead82611cbf565b15611f20576040517f08c379a00000000000000000000000000000000000000000000000000000000081526004018080602001828103825260108152602001807f414c52454144595f474f5645524e4f520000000000000000000000000000000081525060200191505060405180910390fd5b818160010160006101000a81548173ffffffffffffffffffffffffffffffffffffffff021916908373ffffffffffffffffffffffffffffffffffffffff1602179055507f6166272c8d3f5f579082f2827532732f97195007983bb5b83ac12c56700b01a682604051808273ffffffffffffffffffffffffffffffffffffffff16815260200191505060405180910390a15050565b611fbd33611cbf565b61202f576040517f08c379a000000000000000000000000000000000000000000000000000000000815260040180806020018281038252600f8152602001807f4f4e4c595f474f5645524e414e4345000000000000000000000000000000000081525060200191505060405180910390fd5b8073ffffffffffffffffffffffffffffffffffffffff163373ffffffffffffffffffffffffffffffffffffffff1614156120d1576040517f08c379a00000000000000000000000000000000000000000000000000000000081526004018080602001828103825260148152602001807f474f5645524e4f525f53454c465f52454d4f564500000000000000000000000081525060200191505060405180910390fd5b60006120db612887565b90506120e682611cbf565b612158576040517f08c379a000000000000000000000000000000000000000000000000000000000815260040180806020018281038252600c8152602001807f4e4f545f474f5645524e4f52000000000000000000000000000000000000000081525060200191505060405180910390fd5b60008160000160008473ffffffffffffffffffffffffffffffffffffffff1673ffffffffffffffffffffffffffffffffffffffff16815260200190815260200160002060006101000a81548160ff0219169083151502179055507fd75f94825e770b8b512be8e74759e252ad00e102e38f50cce2f7c6f868a2959982604051808273ffffffffffffffffffffffffffffffffffffffff16815260200191505060405180910390a15050565b61220c33611cbf565b61227e576040517f08c379a000000000000000000000000000000000000000000000000000000000815260040180806020018281038252600f8152602001807f4f4e4c595f474f5645524e414e4345000000000000000000000000000000000081525060200191505060405180910390fd5b6122866109c5565b156122f9576040517f08c379a000000000000000000000000000000000000000000000000000000000815260040180806020018281038252600f8152602001807f53544154455f49535f46524f5a454e000000000000000000000000000000000081525060200191505060405180910390fd5b6000826000019050600061230d82846127dd565b905060008460010160008573ffffffffffffffffffffffffffffffffffffffff1673ffffffffffffffffffffffffffffffffffffffff168152602001908152602001600020549050600081116123cb576040517f08c379a00000000000000000000000000000000000000000000000000000000081526004018080602001828103825260158152602001807f52454d4f56414c5f4e4f545f414e4e4f554e434544000000000000000000000081525060200191505060405180910390fd5b80421015612441576040517f08c379a00000000000000000000000000000000000000000000000000000000081526004018080602001828103825260178152602001807f52454d4f56414c5f4e4f545f454e41424c45445f59455400000000000000000081525060200191505060405180910390fd5b600083805490509050600181116124c0576040517f08c379a000000000000000000000000000000000000000000000000000000000815260040180806020018281038252601d8152602001807f4c4153545f454e5452595f4d41595f4e4f545f42455f52454d4f56454400000081525060200191505060405180910390fd5b600181038314612559578360018203815481106124d957fe5b9060005260206000200160009054906101000a900473ffffffffffffffffffffffffffffffffffffffff1684848154811061251057fe5b9060005260206000200160006101000a81548173ffffffffffffffffffffffffffffffffffffffff021916908373ffffffffffffffffffffffffffffffffffffffff1602179055505b8380548061256357fe5b6001900381819060005260206000200160006101000a81549073ffffffffffffffffffffffffffffffffffffffff021916905590558560010160008673ffffffffffffffffffffffffffffffffffffffff1673ffffffffffffffffffffffffffffffffffffffff168152602001908152602001600020600090557f35b176cf4f09df896aa55e10eec90bb4c4689ea1d076135a8de3138d829d0142858673ffffffffffffffffffffffffffffffffffffffff1663eeb728666040518163ffffffff1660e01b815260040160006040518083038186803b15801561264557600080fd5b505afa158015612659573d6000803e3d6000fd5b505050506040513d6000823e3d601f19601f82011682018060405250602081101561268357600080fd5b81019080805160405193929190846401000000008211156126a357600080fd5b838201915060208201858111156126b957600080fd5b82518660018202830111640100000000821117156126d657600080fd5b8083526020830192505050908051906020019080838360005b8381101561270a5780820151818401526020810190506126ef565b50505050905090810190601f1680156127375780820380516001836020036101000a031916815260200191505b50604052505050604051808373ffffffffffffffffffffffffffffffffffffffff16815260200180602001828103825283818151815260200191508051906020019080838360005b8381101561279a57808201518184015260208101905061277f565b50505050905090810190601f1680156127c75780820380516001836020036101000a031916815260200191505b50935050505060405180910390a1505050505050565b60006127e9838361148e565b90507fffffffffffffffffffffffffffffffffffffffffffffffffffffffffffffffff811415612881576040517f08c379a00000000000000000000000000000000000000000000000000000000081526004018080602001828103825260148152602001807f454e5452595f444f45535f4e4f545f455849535400000000000000000000000081525060200191505060405180910390fd5b92915050565b60006060612893612a86565b9050600080826040518082805190602001908083835b602083106128cc57805182526020820191506020810190506020830392506128a9565b6001836020036101000a038019825116818451168082178552505050505050905001915050908152602001604051809103902090508060010160149054906101000a900460ff16612985576040517f08c379a000000000000000000000000000000000000000000000000000000000815260040180806020018281038252600f8152602001807f4e4f545f494e495449414c495a4544000000000000000000000000000000000081525060200191505060405180910390fd5b809250505090565b61299681611cbf565b15612a09576040517f08c379a00000000000000000000000000000000000000000000000000000000081526004018080602001828103825260108152602001807f414c52454144595f474f5645524e4f520000000000000000000000000000000081525060200191505060405180910390fd5b6000612a13612887565b905060018160000160008473ffffffffffffffffffffffffffffffffffffffff1673ffffffffffffffffffffffffffffffffffffffff16815260200190815260200160002060006101000a81548160ff0219169083151502179055505050565b600080823b905060008111915050919050565b6060604051806060016040528060268152602001612aa76026913990509056fe537461726b45782e4d61696e2e323031392e476f7665726e6f7273496e666f726d6174696f6ea26469706673582212207db7605fda65a1462f587bacd695f5cae4e754b3bee5c474dd341069f3d798a264736f6c634300060c0033",
					"opcodes": "PUSH1 0x80 PUSH1 0x40 MSTORE CALLVALUE DUP1 ISZERO PUSH2 0x10 JUMPI PUSH1 0x0 DUP1 REVERT JUMPDEST POP PUSH2 0x2B02 DUP1 PUSH2 0x20 PUSH1 0x0 CODECOPY PUSH1 0x0 RETURN INVALID PUSH1 0x80 PUSH1 0x40 MSTORE CALLVALUE DUP1 ISZERO PUSH2 0x10 JUMPI PUSH1 0x0 DUP1 REVERT JUMPDEST POP PUSH1 0x4 CALLDATASIZE LT PUSH2 0x1A8 JUMPI PUSH1 0x0 CALLDATALOAD PUSH1 0xE0 SHR DUP1 PUSH4 0x77E84E0D GT PUSH2 0xF9 JUMPI DUP1 PUSH4 0xBD1279AE GT PUSH2 0x97 JUMPI DUP1 PUSH4 0xCA2DFD0A GT PUSH2 0x71 JUMPI DUP1 PUSH4 0xCA2DFD0A EQ PUSH2 0x7CF JUMPI DUP1 PUSH4 0xE30A5CFF EQ PUSH2 0x813 JUMPI DUP1 PUSH4 0xE6DE6282 EQ PUSH2 0x831 JUMPI DUP1 PUSH4 0xEEB72866 EQ PUSH2 0x84F JUMPI PUSH2 0x1A8 JUMP JUMPDEST DUP1 PUSH4 0xBD1279AE EQ PUSH2 0x659 JUMPI DUP1 PUSH4 0xBDB75785 EQ PUSH2 0x6B3 JUMPI DUP1 PUSH4 0xC23B60EF EQ PUSH2 0x74C JUMPI PUSH2 0x1A8 JUMP JUMPDEST DUP1 PUSH4 0x993F3639 GT PUSH2 0xD3 JUMPI DUP1 PUSH4 0x993F3639 EQ PUSH2 0x595 JUMPI DUP1 PUSH4 0xA1CC921E EQ PUSH2 0x5B3 JUMPI DUP1 PUSH4 0xB1E640BF EQ PUSH2 0x5F7 JUMPI DUP1 PUSH4 0xB7663112 EQ PUSH2 0x63B JUMPI PUSH2 0x1A8 JUMP JUMPDEST DUP1 PUSH4 0x77E84E0D EQ PUSH2 0x529 JUMPI DUP1 PUSH4 0x7CF12B90 EQ PUSH2 0x547 JUMPI DUP1 PUSH4 0x8C4BCE1C EQ PUSH2 0x551 JUMPI PUSH2 0x1A8 JUMP JUMPDEST DUP1 PUSH4 0x3776FE2A GT PUSH2 0x166 JUMPI DUP1 PUSH4 0x439FAB91 GT PUSH2 0x140 JUMPI DUP1 PUSH4 0x439FAB91 EQ PUSH2 0x3ED JUMPI DUP1 PUSH4 0x45F5CD97 EQ PUSH2 0x466 JUMPI DUP1 PUSH4 0x4EAB9ED3 EQ PUSH2 0x4C0 JUMPI DUP1 PUSH4 0x72EB3688 EQ PUSH2 0x51F JUMPI PUSH2 0x1A8 JUMP JUMPDEST DUP1 PUSH4 0x3776FE2A EQ PUSH2 0x2F2 JUMPI DUP1 PUSH4 0x3CC660AD EQ PUSH2 0x38B JUMPI DUP1 PUSH4 0x418573B7 EQ PUSH2 0x3A9 JUMPI PUSH2 0x1A8 JUMP JUMPDEST DUP1 PUSH3 0x717542 EQ PUSH2 0x1AD JUMPI DUP1 PUSH4 0x1AC347F2 EQ PUSH2 0x1CB JUMPI DUP1 PUSH4 0x1D078BBB EQ PUSH2 0x22A JUMPI DUP1 PUSH4 0x28700A15 EQ PUSH2 0x26E JUMPI DUP1 PUSH4 0x33105218 EQ PUSH2 0x278 JUMPI DUP1 PUSH4 0x33EEB147 EQ PUSH2 0x2D2 JUMPI JUMPDEST PUSH1 0x0 DUP1 REVERT JUMPDEST PUSH2 0x1B5 PUSH2 0x8D2 JUMP JUMPDEST PUSH1 0x40 MLOAD DUP1 DUP3 DUP2 MSTORE PUSH1 0x20 ADD SWAP2 POP POP PUSH1 0x40 MLOAD DUP1 SWAP2 SUB SWAP1 RETURN JUMPDEST PUSH2 0x1D3 PUSH2 0x8D9 JUMP JUMPDEST PUSH1 0x40 MLOAD DUP1 DUP1 PUSH1 0x20 ADD DUP3 DUP2 SUB DUP3 MSTORE DUP4 DUP2 DUP2 MLOAD DUP2 MSTORE PUSH1 0x20 ADD SWAP2 POP DUP1 MLOAD SWAP1 PUSH1 0x20 ADD SWAP1 PUSH1 0x20 MUL DUP1 DUP4 DUP4 PUSH1 0x0 JUMPDEST DUP4 DUP2 LT ISZERO PUSH2 0x216 JUMPI DUP1 DUP3 ADD MLOAD DUP2 DUP5 ADD MSTORE PUSH1 0x20 DUP2 ADD SWAP1 POP PUSH2 0x1FB JUMP JUMPDEST POP POP POP POP SWAP1 POP ADD SWAP3 POP POP POP PUSH1 0x40 MLOAD DUP1 SWAP2 SUB SWAP1 RETURN JUMPDEST PUSH2 0x26C PUSH1 0x4 DUP1 CALLDATASIZE SUB PUSH1 0x20 DUP2 LT ISZERO PUSH2 0x240 JUMPI PUSH1 0x0 DUP1 REVERT JUMPDEST DUP2 ADD SWAP1 DUP1 DUP1 CALLDATALOAD PUSH20 0xFFFFFFFFFFFFFFFFFFFFFFFFFFFFFFFFFFFFFFFF AND SWAP1 PUSH1 0x20 ADD SWAP1 SWAP3 SWAP2 SWAP1 POP POP POP PUSH2 0x96A JUMP JUMPDEST STOP JUMPDEST PUSH2 0x276 PUSH2 0x981 JUMP JUMPDEST STOP JUMPDEST PUSH2 0x2BA PUSH1 0x4 DUP1 CALLDATASIZE SUB PUSH1 0x20 DUP2 LT ISZERO PUSH2 0x28E JUMPI PUSH1 0x0 DUP1 REVERT JUMPDEST DUP2 ADD SWAP1 DUP1 DUP1 CALLDATALOAD PUSH20 0xFFFFFFFFFFFFFFFFFFFFFFFFFFFFFFFFFFFFFFFF AND SWAP1 PUSH1 0x20 ADD SWAP1 SWAP3 SWAP2 SWAP1 POP POP POP PUSH2 0x98B JUMP JUMPDEST PUSH1 0x40 MLOAD DUP1 DUP3 ISZERO ISZERO DUP2 MSTORE PUSH1 0x20 ADD SWAP2 POP POP PUSH1 0x40 MLOAD DUP1 SWAP2 SUB SWAP1 RETURN JUMPDEST PUSH2 0x2DA PUSH2 0x9C5 JUMP JUMPDEST PUSH1 0x40 MLOAD DUP1 DUP3 ISZERO ISZERO DUP2 MSTORE PUSH1 0x20 ADD SWAP2 POP POP PUSH1 0x40 MLOAD DUP1 SWAP2 SUB SWAP1 RETURN JUMPDEST PUSH2 0x389 PUSH1 0x4 DUP1 CALLDATASIZE SUB PUSH1 0x40 DUP2 LT ISZERO PUSH2 0x308 JUMPI PUSH1 0x0 DUP1 REVERT JUMPDEST DUP2 ADD SWAP1 DUP1 DUP1 CALLDATALOAD PUSH20 0xFFFFFFFFFFFFFFFFFFFFFFFFFFFFFFFFFFFFFFFF AND SWAP1 PUSH1 0x20 ADD SWAP1 SWAP3 SWAP2 SWAP1 DUP1 CALLDATALOAD SWAP1 PUSH1 0x20 ADD SWAP1 PUSH5 0x100000000 DUP2 GT ISZERO PUSH2 0x345 JUMPI PUSH1 0x0 DUP1 REVERT JUMPDEST DUP3 ADD DUP4 PUSH1 0x20 DUP3 ADD GT ISZERO PUSH2 0x357 JUMPI PUSH1 0x0 DUP1 REVERT JUMPDEST DUP1 CALLDATALOAD SWAP1 PUSH1 0x20 ADD SWAP2 DUP5 PUSH1 0x1 DUP4 MUL DUP5 ADD GT PUSH5 0x100000000 DUP4 GT OR ISZERO PUSH2 0x379 JUMPI PUSH1 0x0 DUP1 REVERT JUMPDEST SWAP1 SWAP2 SWAP3 SWAP4 SWAP2 SWAP3 SWAP4 SWAP1 POP POP POP PUSH2 0x9DC JUMP JUMPDEST STOP JUMPDEST PUSH2 0x393 PUSH2 0xA33 JUMP JUMPDEST PUSH1 0x40 MLOAD DUP1 DUP3 DUP2 MSTORE PUSH1 0x20 ADD SWAP2 POP POP PUSH1 0x40 MLOAD DUP1 SWAP2 SUB SWAP1 RETURN JUMPDEST PUSH2 0x3EB PUSH1 0x4 DUP1 CALLDATASIZE SUB PUSH1 0x20 DUP2 LT ISZERO PUSH2 0x3BF JUMPI PUSH1 0x0 DUP1 REVERT JUMPDEST DUP2 ADD SWAP1 DUP1 DUP1 CALLDATALOAD PUSH20 0xFFFFFFFFFFFFFFFFFFFFFFFFFFFFFFFFFFFFFFFF AND SWAP1 PUSH1 0x20 ADD SWAP1 SWAP3 SWAP2 SWAP1 POP POP POP PUSH2 0xA38 JUMP JUMPDEST STOP JUMPDEST PUSH2 0x464 PUSH1 0x4 DUP1 CALLDATASIZE SUB PUSH1 0x20 DUP2 LT ISZERO PUSH2 0x403 JUMPI PUSH1 0x0 DUP1 REVERT JUMPDEST DUP2 ADD SWAP1 DUP1 DUP1 CALLDATALOAD SWAP1 PUSH1 0x20 ADD SWAP1 PUSH5 0x100000000 DUP2 GT ISZERO PUSH2 0x420 JUMPI PUSH1 0x0 DUP1 REVERT JUMPDEST DUP3 ADD DUP4 PUSH1 0x20 DUP3 ADD GT ISZERO PUSH2 0x432 JUMPI PUSH1 0x0 DUP1 REVERT JUMPDEST DUP1 CALLDATALOAD SWAP1 PUSH1 0x20 ADD SWAP2 DUP5 PUSH1 0x1 DUP4 MUL DUP5 ADD GT PUSH5 0x100000000 DUP4 GT OR ISZERO PUSH2 0x454 JUMPI PUSH1 0x0 DUP1 REVERT JUMPDEST SWAP1 SWAP2 SWAP3 SWAP4 SWAP2 SWAP3 SWAP4 SWAP1 POP POP POP PUSH2 0xA4F JUMP JUMPDEST STOP JUMPDEST PUSH2 0x4A8 PUSH1 0x4 DUP1 CALLDATASIZE SUB PUSH1 0x20 DUP2 LT ISZERO PUSH2 0x47C JUMPI PUSH1 0x0 DUP1 REVERT JUMPDEST DUP2 ADD SWAP1 DUP1 DUP1 CALLDATALOAD PUSH20 0xFFFFFFFFFFFFFFFFFFFFFFFFFFFFFFFFFFFFFFFF AND SWAP1 PUSH1 0x20 ADD SWAP1 SWAP3 SWAP2 SWAP1 POP POP POP PUSH2 0xABD JUMP JUMPDEST PUSH1 0x40 MLOAD DUP1 DUP3 ISZERO ISZERO DUP2 MSTORE PUSH1 0x20 ADD SWAP2 POP POP PUSH1 0x40 MLOAD DUP1 SWAP2 SUB SWAP1 RETURN JUMPDEST PUSH2 0x4C8 PUSH2 0xACF JUMP JUMPDEST PUSH1 0x40 MLOAD DUP1 DUP1 PUSH1 0x20 ADD DUP3 DUP2 SUB DUP3 MSTORE DUP4 DUP2 DUP2 MLOAD DUP2 MSTORE PUSH1 0x20 ADD SWAP2 POP DUP1 MLOAD SWAP1 PUSH1 0x20 ADD SWAP1 PUSH1 0x20 MUL DUP1 DUP4 DUP4 PUSH1 0x0 JUMPDEST DUP4 DUP2 LT ISZERO PUSH2 0x50B JUMPI DUP1 DUP3 ADD MLOAD DUP2 DUP5 ADD MSTORE PUSH1 0x20 DUP2 ADD SWAP1 POP PUSH2 0x4F0 JUMP JUMPDEST POP POP POP POP SWAP1 POP ADD SWAP3 POP POP POP PUSH1 0x40 MLOAD DUP1 SWAP2 SUB SWAP1 RETURN JUMPDEST PUSH2 0x527 PUSH2 0xB60 JUMP JUMPDEST STOP JUMPDEST PUSH2 0x531 PUSH2 0xB6A JUMP JUMPDEST PUSH1 0x40 MLOAD DUP1 DUP3 DUP2 MSTORE PUSH1 0x20 ADD SWAP2 POP POP PUSH1 0x40 MLOAD DUP1 SWAP2 SUB SWAP1 RETURN JUMPDEST PUSH2 0x54F PUSH2 0xB71 JUMP JUMPDEST STOP JUMPDEST PUSH2 0x593 PUSH1 0x4 DUP1 CALLDATASIZE SUB PUSH1 0x20 DUP2 LT ISZERO PUSH2 0x567 JUMPI PUSH1 0x0 DUP1 REVERT JUMPDEST DUP2 ADD SWAP1 DUP1 DUP1 CALLDATALOAD PUSH20 0xFFFFFFFFFFFFFFFFFFFFFFFFFFFFFFFFFFFFFFFF AND SWAP1 PUSH1 0x20 ADD SWAP1 SWAP3 SWAP2 SWAP1 POP POP POP PUSH2 0xD49 JUMP JUMPDEST STOP JUMPDEST PUSH2 0x59D PUSH2 0xD55 JUMP JUMPDEST PUSH1 0x40 MLOAD DUP1 DUP3 DUP2 MSTORE PUSH1 0x20 ADD SWAP2 POP POP PUSH1 0x40 MLOAD DUP1 SWAP2 SUB SWAP1 RETURN JUMPDEST PUSH2 0x5F5 PUSH1 0x4 DUP1 CALLDATASIZE SUB PUSH1 0x20 DUP2 LT ISZERO PUSH2 0x5C9 JUMPI PUSH1 0x0 DUP1 REVERT JUMPDEST DUP2 ADD SWAP1 DUP1 DUP1 CALLDATALOAD PUSH20 0xFFFFFFFFFFFFFFFFFFFFFFFFFFFFFFFFFFFFFFFF AND SWAP1 PUSH1 0x20 ADD SWAP1 SWAP3 SWAP2 SWAP1 POP POP POP PUSH2 0xD5D JUMP JUMPDEST STOP JUMPDEST PUSH2 0x639 PUSH1 0x4 DUP1 CALLDATASIZE SUB PUSH1 0x20 DUP2 LT ISZERO PUSH2 0x60D JUMPI PUSH1 0x0 DUP1 REVERT JUMPDEST DUP2 ADD SWAP1 DUP1 DUP1 CALLDATALOAD PUSH20 0xFFFFFFFFFFFFFFFFFFFFFFFFFFFFFFFFFFFFFFFF AND SWAP1 PUSH1 0x20 ADD SWAP1 SWAP3 SWAP2 SWAP1 POP POP POP PUSH2 0xD69 JUMP JUMPDEST STOP JUMPDEST PUSH2 0x643 PUSH2 0xD77 JUMP JUMPDEST PUSH1 0x40 MLOAD DUP1 DUP3 DUP2 MSTORE PUSH1 0x20 ADD SWAP2 POP POP PUSH1 0x40 MLOAD DUP1 SWAP2 SUB SWAP1 RETURN JUMPDEST PUSH2 0x69B PUSH1 0x4 DUP1 CALLDATASIZE SUB PUSH1 0x20 DUP2 LT ISZERO PUSH2 0x66F JUMPI PUSH1 0x0 DUP1 REVERT JUMPDEST DUP2 ADD SWAP1 DUP1 DUP1 CALLDATALOAD PUSH20 0xFFFFFFFFFFFFFFFFFFFFFFFFFFFFFFFFFFFFFFFF AND SWAP1 PUSH1 0x20 ADD SWAP1 SWAP3 SWAP2 SWAP1 POP POP POP PUSH2 0xD83 JUMP JUMPDEST PUSH1 0x40 MLOAD DUP1 DUP3 ISZERO ISZERO DUP2 MSTORE PUSH1 0x20 ADD SWAP2 POP POP PUSH1 0x40 MLOAD DUP1 SWAP2 SUB SWAP1 RETURN JUMPDEST PUSH2 0x74A PUSH1 0x4 DUP1 CALLDATASIZE SUB PUSH1 0x40 DUP2 LT ISZERO PUSH2 0x6C9 JUMPI PUSH1 0x0 DUP1 REVERT JUMPDEST DUP2 ADD SWAP1 DUP1 DUP1 CALLDATALOAD PUSH20 0xFFFFFFFFFFFFFFFFFFFFFFFFFFFFFFFFFFFFFFFF AND SWAP1 PUSH1 0x20 ADD SWAP1 SWAP3 SWAP2 SWAP1 DUP1 CALLDATALOAD SWAP1 PUSH1 0x20 ADD SWAP1 PUSH5 0x100000000 DUP2 GT ISZERO PUSH2 0x706 JUMPI PUSH1 0x0 DUP1 REVERT JUMPDEST DUP3 ADD DUP4 PUSH1 0x20 DUP3 ADD GT ISZERO PUSH2 0x718 JUMPI PUSH1 0x0 DUP1 REVERT JUMPDEST DUP1 CALLDATALOAD SWAP1 PUSH1 0x20 ADD SWAP2 DUP5 PUSH1 0x1 DUP4 MUL DUP5 ADD GT PUSH5 0x100000000 DUP4 GT OR ISZERO PUSH2 0x73A JUMPI PUSH1 0x0 DUP1 REVERT JUMPDEST SWAP1 SWAP2 SWAP3 SWAP4 SWAP2 SWAP3 SWAP4 SWAP1 POP POP POP PUSH2 0xDBD JUMP JUMPDEST STOP JUMPDEST PUSH2 0x754 PUSH2 0xE14 JUMP JUMPDEST PUSH1 0x40 MLOAD DUP1 DUP1 PUSH1 0x20 ADD DUP3 DUP2 SUB DUP3 MSTORE DUP4 DUP2 DUP2 MLOAD DUP2 MSTORE PUSH1 0x20 ADD SWAP2 POP DUP1 MLOAD SWAP1 PUSH1 0x20 ADD SWAP1 DUP1 DUP4 DUP4 PUSH1 0x0 JUMPDEST DUP4 DUP2 LT ISZERO PUSH2 0x794 JUMPI DUP1 DUP3 ADD MLOAD DUP2 DUP5 ADD MSTORE PUSH1 0x20 DUP2 ADD SWAP1 POP PUSH2 0x779 JUMP JUMPDEST POP POP POP POP SWAP1 POP SWAP1 DUP2 ADD SWAP1 PUSH1 0x1F AND DUP1 ISZERO PUSH2 0x7C1 JUMPI DUP1 DUP3 SUB DUP1 MLOAD PUSH1 0x1 DUP4 PUSH1 0x20 SUB PUSH2 0x100 EXP SUB NOT AND DUP2 MSTORE PUSH1 0x20 ADD SWAP2 POP JUMPDEST POP SWAP3 POP POP POP PUSH1 0x40 MLOAD DUP1 SWAP2 SUB SWAP1 RETURN JUMPDEST PUSH2 0x811 PUSH1 0x4 DUP1 CALLDATASIZE SUB PUSH1 0x20 DUP2 LT ISZERO PUSH2 0x7E5 JUMPI PUSH1 0x0 DUP1 REVERT JUMPDEST DUP2 ADD SWAP1 DUP1 DUP1 CALLDATALOAD PUSH20 0xFFFFFFFFFFFFFFFFFFFFFFFFFFFFFFFFFFFFFFFF AND SWAP1 PUSH1 0x20 ADD SWAP1 SWAP3 SWAP2 SWAP1 POP POP POP PUSH2 0xE30 JUMP JUMPDEST STOP JUMPDEST PUSH2 0x81B PUSH2 0xE3E JUMP JUMPDEST PUSH1 0x40 MLOAD DUP1 DUP3 DUP2 MSTORE PUSH1 0x20 ADD SWAP2 POP POP PUSH1 0x40 MLOAD DUP1 SWAP2 SUB SWAP1 RETURN JUMPDEST PUSH2 0x839 PUSH2 0xE43 JUMP JUMPDEST PUSH1 0x40 MLOAD DUP1 DUP3 DUP2 MSTORE PUSH1 0x20 ADD SWAP2 POP POP PUSH1 0x40 MLOAD DUP1 SWAP2 SUB SWAP1 RETURN JUMPDEST PUSH2 0x857 PUSH2 0xE48 JUMP JUMPDEST PUSH1 0x40 MLOAD DUP1 DUP1 PUSH1 0x20 ADD DUP3 DUP2 SUB DUP3 MSTORE DUP4 DUP2 DUP2 MLOAD DUP2 MSTORE PUSH1 0x20 ADD SWAP2 POP DUP1 MLOAD SWAP1 PUSH1 0x20 ADD SWAP1 DUP1 DUP4 DUP4 PUSH1 0x0 JUMPDEST DUP4 DUP2 LT ISZERO PUSH2 0x897 JUMPI DUP1 DUP3 ADD MLOAD DUP2 DUP5 ADD MSTORE PUSH1 0x20 DUP2 ADD SWAP1 POP PUSH2 0x87C JUMP JUMPDEST POP POP POP POP SWAP1 POP SWAP1 DUP2 ADD SWAP1 PUSH1 0x1F AND DUP1 ISZERO PUSH2 0x8C4 JUMPI DUP1 DUP3 SUB DUP1 MLOAD PUSH1 0x1 DUP4 PUSH1 0x20 SUB PUSH2 0x100 EXP SUB NOT AND DUP2 MSTORE PUSH1 0x20 ADD SWAP2 POP JUMPDEST POP SWAP3 POP POP POP PUSH1 0x40 MLOAD DUP1 SWAP2 SUB SWAP1 RETURN JUMPDEST PUSH3 0x93A80 DUP2 JUMP JUMPDEST PUSH1 0x60 PUSH1 0x1B PUSH1 0x0 ADD DUP1 SLOAD DUP1 PUSH1 0x20 MUL PUSH1 0x20 ADD PUSH1 0x40 MLOAD SWAP1 DUP2 ADD PUSH1 0x40 MSTORE DUP1 SWAP3 SWAP2 SWAP1 DUP2 DUP2 MSTORE PUSH1 0x20 ADD DUP3 DUP1 SLOAD DUP1 ISZERO PUSH2 0x960 JUMPI PUSH1 0x20 MUL DUP3 ADD SWAP2 SWAP1 PUSH1 0x0 MSTORE PUSH1 0x20 PUSH1 0x0 KECCAK256 SWAP1 JUMPDEST DUP2 PUSH1 0x0 SWAP1 SLOAD SWAP1 PUSH2 0x100 EXP SWAP1 DIV PUSH20 0xFFFFFFFFFFFFFFFFFFFFFFFFFFFFFFFFFFFFFFFF AND PUSH20 0xFFFFFFFFFFFFFFFFFFFFFFFFFFFFFFFFFFFFFFFF AND DUP2 MSTORE PUSH1 0x20 ADD SWAP1 PUSH1 0x1 ADD SWAP1 DUP1 DUP4 GT PUSH2 0x916 JUMPI JUMPDEST POP POP POP POP POP SWAP1 POP SWAP1 JUMP JUMPDEST PUSH2 0x97E PUSH1 0x1B DUP3 PUSH3 0x1BAF80 PUSH3 0x93A80 ADD PUSH2 0xE85 JUMP JUMPDEST POP JUMP JUMPDEST PUSH2 0x989 PUSH2 0x12FC JUMP JUMPDEST JUMP JUMPDEST PUSH1 0x0 PUSH32 0xFFFFFFFFFFFFFFFFFFFFFFFFFFFFFFFFFFFFFFFFFFFFFFFFFFFFFFFFFFFFFFFF PUSH2 0x9BC PUSH1 0x19 PUSH1 0x0 ADD DUP5 PUSH2 0x148E JUMP JUMPDEST EQ ISZERO SWAP1 POP SWAP2 SWAP1 POP JUMP JUMPDEST PUSH1 0x0 PUSH1 0x4 PUSH1 0x14 SWAP1 SLOAD SWAP1 PUSH2 0x100 EXP SWAP1 DIV PUSH1 0xFF AND SWAP1 POP SWAP1 JUMP JUMPDEST PUSH2 0xA2E PUSH1 0x19 DUP5 PUSH1 0x40 DUP6 DUP6 DUP1 DUP1 PUSH1 0x1F ADD PUSH1 0x20 DUP1 SWAP2 DIV MUL PUSH1 0x20 ADD PUSH1 0x40 MLOAD SWAP1 DUP2 ADD PUSH1 0x40 MSTORE DUP1 SWAP4 SWAP3 SWAP2 SWAP1 DUP2 DUP2 MSTORE PUSH1 0x20 ADD DUP4 DUP4 DUP1 DUP3 DUP5 CALLDATACOPY PUSH1 0x0 DUP2 DUP5 ADD MSTORE PUSH1 0x1F NOT PUSH1 0x1F DUP3 ADD AND SWAP1 POP DUP1 DUP4 ADD SWAP3 POP POP POP POP POP POP POP PUSH2 0x1550 JUMP JUMPDEST POP POP POP JUMP JUMPDEST PUSH1 0x0 SWAP1 JUMP JUMPDEST PUSH2 0xA4C PUSH1 0x19 DUP3 PUSH3 0x1BAF80 PUSH3 0x93A80 ADD PUSH2 0xE85 JUMP JUMPDEST POP JUMP JUMPDEST PUSH1 0x40 MLOAD PUSH32 0x8C379A000000000000000000000000000000000000000000000000000000000 DUP2 MSTORE PUSH1 0x4 ADD DUP1 DUP1 PUSH1 0x20 ADD DUP3 DUP2 SUB DUP3 MSTORE PUSH1 0xF DUP2 MSTORE PUSH1 0x20 ADD DUP1 PUSH32 0x4E4F545F494D504C454D454E5445440000000000000000000000000000000000 DUP2 MSTORE POP PUSH1 0x20 ADD SWAP2 POP POP PUSH1 0x40 MLOAD DUP1 SWAP2 SUB SWAP1 REVERT JUMPDEST PUSH1 0x0 PUSH2 0xAC8 DUP3 PUSH2 0x1CBF JUMP JUMPDEST SWAP1 POP SWAP2 SWAP1 POP JUMP JUMPDEST PUSH1 0x60 PUSH1 0x19 PUSH1 0x0 ADD DUP1 SLOAD DUP1 PUSH1 0x20 MUL PUSH1 0x20 ADD PUSH1 0x40 MLOAD SWAP1 DUP2 ADD PUSH1 0x40 MSTORE DUP1 SWAP3 SWAP2 SWAP1 DUP2 DUP2 MSTORE PUSH1 0x20 ADD DUP3 DUP1 SLOAD DUP1 ISZERO PUSH2 0xB56 JUMPI PUSH1 0x20 MUL DUP3 ADD SWAP2 SWAP1 PUSH1 0x0 MSTORE PUSH1 0x20 PUSH1 0x0 KECCAK256 SWAP1 JUMPDEST DUP2 PUSH1 0x0 SWAP1 SLOAD SWAP1 PUSH2 0x100 EXP SWAP1 DIV PUSH20 0xFFFFFFFFFFFFFFFFFFFFFFFFFFFFFFFFFFFFFFFF AND PUSH20 0xFFFFFFFFFFFFFFFFFFFFFFFFFFFFFFFFFFFFFFFF AND DUP2 MSTORE PUSH1 0x20 ADD SWAP1 PUSH1 0x1 ADD SWAP1 DUP1 DUP4 GT PUSH2 0xB0C JUMPI JUMPDEST POP POP POP POP POP SWAP1 POP SWAP1 JUMP JUMPDEST PUSH2 0xB68 PUSH2 0x1D23 JUMP JUMPDEST JUMP JUMPDEST PUSH3 0x2A300 DUP2 JUMP JUMPDEST PUSH2 0xB79 PUSH2 0x9C5 JUMP JUMPDEST PUSH2 0xBEB JUMPI PUSH1 0x40 MLOAD PUSH32 0x8C379A000000000000000000000000000000000000000000000000000000000 DUP2 MSTORE PUSH1 0x4 ADD DUP1 DUP1 PUSH1 0x20 ADD DUP3 DUP2 SUB DUP3 MSTORE PUSH1 0x10 DUP2 MSTORE PUSH1 0x20 ADD DUP1 PUSH32 0x53544154455F4E4F545F46524F5A454E00000000000000000000000000000000 DUP2 MSTORE POP PUSH1 0x20 ADD SWAP2 POP POP PUSH1 0x40 MLOAD DUP1 SWAP2 SUB SWAP1 REVERT JUMPDEST PUSH2 0xBF4 CALLER PUSH2 0x1CBF JUMP JUMPDEST PUSH2 0xC66 JUMPI PUSH1 0x40 MLOAD PUSH32 0x8C379A000000000000000000000000000000000000000000000000000000000 DUP2 MSTORE PUSH1 0x4 ADD DUP1 DUP1 PUSH1 0x20 ADD DUP3 DUP2 SUB DUP3 MSTORE PUSH1 0xF DUP2 MSTORE PUSH1 0x20 ADD DUP1 PUSH32 0x4F4E4C595F474F5645524E414E43450000000000000000000000000000000000 DUP2 MSTORE POP PUSH1 0x20 ADD SWAP2 POP POP PUSH1 0x40 MLOAD DUP1 SWAP2 SUB SWAP1 REVERT JUMPDEST PUSH1 0x5 SLOAD TIMESTAMP LT ISZERO PUSH2 0xCDE JUMPI PUSH1 0x40 MLOAD PUSH32 0x8C379A000000000000000000000000000000000000000000000000000000000 DUP2 MSTORE PUSH1 0x4 ADD DUP1 DUP1 PUSH1 0x20 ADD DUP3 DUP2 SUB DUP3 MSTORE PUSH1 0x18 DUP2 MSTORE PUSH1 0x20 ADD DUP1 PUSH32 0x554E465245455A455F4E4F545F414C4C4F5745445F5945540000000000000000 DUP2 MSTORE POP PUSH1 0x20 ADD SWAP2 POP POP PUSH1 0x40 MLOAD DUP1 SWAP2 SUB SWAP1 REVERT JUMPDEST PUSH1 0x0 PUSH1 0x4 PUSH1 0x14 PUSH2 0x100 EXP DUP2 SLOAD DUP2 PUSH1 0xFF MUL NOT AND SWAP1 DUP4 ISZERO ISZERO MUL OR SWAP1 SSTORE POP PUSH1 0x1 PUSH1 0xD PUSH1 0x0 DUP3 DUP3 SLOAD ADD SWAP3 POP POP DUP2 SWAP1 SSTORE POP PUSH1 0x1 PUSH1 0xF PUSH1 0x0 DUP3 DUP3 SLOAD ADD SWAP3 POP POP DUP2 SWAP1 SSTORE POP PUSH32 0x7017FE9180629CFFFBA412F65A9AFFCF9A121DE02294179F5C058F881DCC9F8 PUSH1 0x40 MLOAD PUSH1 0x40 MLOAD DUP1 SWAP2 SUB SWAP1 LOG1 JUMP JUMPDEST PUSH2 0xD52 DUP2 PUSH2 0x1E1D JUMP JUMPDEST POP JUMP JUMPDEST PUSH4 0x1E13380 DUP2 JUMP JUMPDEST PUSH2 0xD66 DUP2 PUSH2 0x1FB4 JUMP JUMPDEST POP JUMP JUMPDEST PUSH2 0xD74 PUSH1 0x1B DUP3 PUSH2 0x2203 JUMP JUMPDEST POP JUMP JUMPDEST PUSH3 0x1BAF80 PUSH3 0x93A80 ADD DUP2 JUMP JUMPDEST PUSH1 0x0 PUSH32 0xFFFFFFFFFFFFFFFFFFFFFFFFFFFFFFFFFFFFFFFFFFFFFFFFFFFFFFFFFFFFFFFF PUSH2 0xDB4 PUSH1 0x1B PUSH1 0x0 ADD DUP5 PUSH2 0x148E JUMP JUMPDEST EQ ISZERO SWAP1 POP SWAP2 SWAP1 POP JUMP JUMPDEST PUSH2 0xE0F PUSH1 0x1B DUP5 PUSH1 0x40 DUP6 DUP6 DUP1 DUP1 PUSH1 0x1F ADD PUSH1 0x20 DUP1 SWAP2 DIV MUL PUSH1 0x20 ADD PUSH1 0x40 MLOAD SWAP1 DUP2 ADD PUSH1 0x40 MSTORE DUP1 SWAP4 SWAP3 SWAP2 SWAP1 DUP2 DUP2 MSTORE PUSH1 0x20 ADD DUP4 DUP4 DUP1 DUP3 DUP5 CALLDATACOPY PUSH1 0x0 DUP2 DUP5 ADD MSTORE PUSH1 0x1F NOT PUSH1 0x1F DUP3 ADD AND SWAP1 POP DUP1 DUP4 ADD SWAP3 POP POP POP POP POP POP POP PUSH2 0x1550 JUMP JUMPDEST POP POP POP JUMP JUMPDEST PUSH1 0x40 MLOAD DUP1 PUSH1 0x60 ADD PUSH1 0x40 MSTORE DUP1 PUSH1 0x26 DUP2 MSTORE PUSH1 0x20 ADD PUSH2 0x2AA7 PUSH1 0x26 SWAP2 CODECOPY DUP2 JUMP JUMPDEST PUSH2 0xE3B PUSH1 0x19 DUP3 PUSH2 0x2203 JUMP JUMPDEST POP JUMP JUMPDEST PUSH1 0xA DUP2 JUMP JUMPDEST PUSH1 0x40 DUP2 JUMP JUMPDEST PUSH1 0x60 PUSH1 0x40 MLOAD DUP1 PUSH1 0x40 ADD PUSH1 0x40 MSTORE DUP1 PUSH1 0x1D DUP2 MSTORE PUSH1 0x20 ADD PUSH32 0x537461726B576172655F416C6C5665726966696572735F323032305F31000000 DUP2 MSTORE POP SWAP1 POP SWAP1 JUMP JUMPDEST PUSH2 0xE8E CALLER PUSH2 0x1CBF JUMP JUMPDEST PUSH2 0xF00 JUMPI PUSH1 0x40 MLOAD PUSH32 0x8C379A000000000000000000000000000000000000000000000000000000000 DUP2 MSTORE PUSH1 0x4 ADD DUP1 DUP1 PUSH1 0x20 ADD DUP3 DUP2 SUB DUP3 MSTORE PUSH1 0xF DUP2 MSTORE PUSH1 0x20 ADD DUP1 PUSH32 0x4F4E4C595F474F5645524E414E43450000000000000000000000000000000000 DUP2 MSTORE POP PUSH1 0x20 ADD SWAP2 POP POP PUSH1 0x40 MLOAD DUP1 SWAP2 SUB SWAP1 REVERT JUMPDEST PUSH2 0xF08 PUSH2 0x9C5 JUMP JUMPDEST ISZERO PUSH2 0xF7B JUMPI PUSH1 0x40 MLOAD PUSH32 0x8C379A000000000000000000000000000000000000000000000000000000000 DUP2 MSTORE PUSH1 0x4 ADD DUP1 DUP1 PUSH1 0x20 ADD DUP3 DUP2 SUB DUP3 MSTORE PUSH1 0xF DUP2 MSTORE PUSH1 0x20 ADD DUP1 PUSH32 0x53544154455F49535F46524F5A454E0000000000000000000000000000000000 DUP2 MSTORE POP PUSH1 0x20 ADD SWAP2 POP POP PUSH1 0x40 MLOAD DUP1 SWAP2 SUB SWAP1 REVERT JUMPDEST PUSH2 0xF88 DUP4 PUSH1 0x0 ADD DUP4 PUSH2 0x27DD JUMP JUMPDEST POP TIMESTAMP DUP2 TIMESTAMP ADD GT PUSH2 0x1000 JUMPI PUSH1 0x40 MLOAD PUSH32 0x8C379A000000000000000000000000000000000000000000000000000000000 DUP2 MSTORE PUSH1 0x4 ADD DUP1 DUP1 PUSH1 0x20 ADD DUP3 DUP2 SUB DUP3 MSTORE PUSH1 0x15 DUP2 MSTORE PUSH1 0x20 ADD DUP1 PUSH32 0x494E56414C49445F52454D4F56414C5F44454C41590000000000000000000000 DUP2 MSTORE POP PUSH1 0x20 ADD SWAP2 POP POP PUSH1 0x40 MLOAD DUP1 SWAP2 SUB SWAP1 REVERT JUMPDEST PUSH1 0x0 DUP4 PUSH1 0x1 ADD PUSH1 0x0 DUP5 PUSH20 0xFFFFFFFFFFFFFFFFFFFFFFFFFFFFFFFFFFFFFFFF AND PUSH20 0xFFFFFFFFFFFFFFFFFFFFFFFFFFFFFFFFFFFFFFFF AND DUP2 MSTORE PUSH1 0x20 ADD SWAP1 DUP2 MSTORE PUSH1 0x20 ADD PUSH1 0x0 KECCAK256 SLOAD EQ PUSH2 0x10B7 JUMPI PUSH1 0x40 MLOAD PUSH32 0x8C379A000000000000000000000000000000000000000000000000000000000 DUP2 MSTORE PUSH1 0x4 ADD DUP1 DUP1 PUSH1 0x20 ADD DUP3 DUP2 SUB DUP3 MSTORE PUSH1 0x11 DUP2 MSTORE PUSH1 0x20 ADD DUP1 PUSH32 0x414C52454144595F414E4E4F554E434544000000000000000000000000000000 DUP2 MSTORE POP PUSH1 0x20 ADD SWAP2 POP POP PUSH1 0x40 MLOAD DUP1 SWAP2 SUB SWAP1 REVERT JUMPDEST DUP1 TIMESTAMP ADD DUP4 PUSH1 0x1 ADD PUSH1 0x0 DUP5 PUSH20 0xFFFFFFFFFFFFFFFFFFFFFFFFFFFFFFFFFFFFFFFF AND PUSH20 0xFFFFFFFFFFFFFFFFFFFFFFFFFFFFFFFFFFFFFFFF AND DUP2 MSTORE PUSH1 0x20 ADD SWAP1 DUP2 MSTORE PUSH1 0x20 ADD PUSH1 0x0 KECCAK256 DUP2 SWAP1 SSTORE POP PUSH32 0xA98AC1F696177F16CA482653307AA4A02B68CF03B14409A546DE5ADF946484FC DUP3 DUP4 PUSH20 0xFFFFFFFFFFFFFFFFFFFFFFFFFFFFFFFFFFFFFFFF AND PUSH4 0xEEB72866 PUSH1 0x40 MLOAD DUP2 PUSH4 0xFFFFFFFF AND PUSH1 0xE0 SHL DUP2 MSTORE PUSH1 0x4 ADD PUSH1 0x0 PUSH1 0x40 MLOAD DUP1 DUP4 SUB DUP2 DUP7 DUP1 EXTCODESIZE ISZERO DUP1 ISZERO PUSH2 0x1167 JUMPI PUSH1 0x0 DUP1 REVERT JUMPDEST POP GAS STATICCALL ISZERO DUP1 ISZERO PUSH2 0x117B JUMPI RETURNDATASIZE PUSH1 0x0 DUP1 RETURNDATACOPY RETURNDATASIZE PUSH1 0x0 REVERT JUMPDEST POP POP POP POP PUSH1 0x40 MLOAD RETURNDATASIZE PUSH1 0x0 DUP3 RETURNDATACOPY RETURNDATASIZE PUSH1 0x1F NOT PUSH1 0x1F DUP3 ADD AND DUP3 ADD DUP1 PUSH1 0x40 MSTORE POP PUSH1 0x20 DUP2 LT ISZERO PUSH2 0x11A5 JUMPI PUSH1 0x0 DUP1 REVERT JUMPDEST DUP2 ADD SWAP1 DUP1 DUP1 MLOAD PUSH1 0x40 MLOAD SWAP4 SWAP3 SWAP2 SWAP1 DUP5 PUSH5 0x100000000 DUP3 GT ISZERO PUSH2 0x11C5 JUMPI PUSH1 0x0 DUP1 REVERT JUMPDEST DUP4 DUP3 ADD SWAP2 POP PUSH1 0x20 DUP3 ADD DUP6 DUP2 GT ISZERO PUSH2 0x11DB JUMPI PUSH1 0x0 DUP1 REVERT JUMPDEST DUP3 MLOAD DUP7 PUSH1 0x1 DUP3 MUL DUP4 ADD GT PUSH5 0x100000000 DUP3 GT OR ISZERO PUSH2 0x11F8 JUMPI PUSH1 0x0 DUP1 REVERT JUMPDEST DUP1 DUP4 MSTORE PUSH1 0x20 DUP4 ADD SWAP3 POP POP POP SWAP1 DUP1 MLOAD SWAP1 PUSH1 0x20 ADD SWAP1 DUP1 DUP4 DUP4 PUSH1 0x0 JUMPDEST DUP4 DUP2 LT ISZERO PUSH2 0x122C JUMPI DUP1 DUP3 ADD MLOAD DUP2 DUP5 ADD MSTORE PUSH1 0x20 DUP2 ADD SWAP1 POP PUSH2 0x1211 JUMP JUMPDEST POP POP POP POP SWAP1 POP SWAP1 DUP2 ADD SWAP1 PUSH1 0x1F AND DUP1 ISZERO PUSH2 0x1259 JUMPI DUP1 DUP3 SUB DUP1 MLOAD PUSH1 0x1 DUP4 PUSH1 0x20 SUB PUSH2 0x100 EXP SUB NOT AND DUP2 MSTORE PUSH1 0x20 ADD SWAP2 POP JUMPDEST POP PUSH1 0x40 MSTORE POP POP POP PUSH1 0x40 MLOAD DUP1 DUP4 PUSH20 0xFFFFFFFFFFFFFFFFFFFFFFFFFFFFFFFFFFFFFFFF AND DUP2 MSTORE PUSH1 0x20 ADD DUP1 PUSH1 0x20 ADD DUP3 DUP2 SUB DUP3 MSTORE DUP4 DUP2 DUP2 MLOAD DUP2 MSTORE PUSH1 0x20 ADD SWAP2 POP DUP1 MLOAD SWAP1 PUSH1 0x20 ADD SWAP1 DUP1 DUP4 DUP4 PUSH1 0x0 JUMPDEST DUP4 DUP2 LT ISZERO PUSH2 0x12BC JUMPI DUP1 DUP3 ADD MLOAD DUP2 DUP5 ADD MSTORE PUSH1 0x20 DUP2 ADD SWAP1 POP PUSH2 0x12A1 JUMP JUMPDEST POP POP POP POP SWAP1 POP SWAP1 DUP2 ADD SWAP1 PUSH1 0x1F AND DUP1 ISZERO PUSH2 0x12E9 JUMPI DUP1 DUP3 SUB DUP1 MLOAD PUSH1 0x1 DUP4 PUSH1 0x20 SUB PUSH2 0x100 EXP SUB NOT AND DUP2 MSTORE PUSH1 0x20 ADD SWAP2 POP JUMPDEST POP SWAP4 POP POP POP POP PUSH1 0x40 MLOAD DUP1 SWAP2 SUB SWAP1 LOG1 POP POP POP JUMP JUMPDEST PUSH1 0x0 PUSH2 0x1306 PUSH2 0x2887 JUMP JUMPDEST SWAP1 POP DUP1 PUSH1 0x1 ADD PUSH1 0x0 SWAP1 SLOAD SWAP1 PUSH2 0x100 EXP SWAP1 DIV PUSH20 0xFFFFFFFFFFFFFFFFFFFFFFFFFFFFFFFFFFFFFFFF AND PUSH20 0xFFFFFFFFFFFFFFFFFFFFFFFFFFFFFFFFFFFFFFFF AND CALLER PUSH20 0xFFFFFFFFFFFFFFFFFFFFFFFFFFFFFFFFFFFFFFFF AND EQ PUSH2 0x13CD JUMPI PUSH1 0x40 MLOAD PUSH32 0x8C379A000000000000000000000000000000000000000000000000000000000 DUP2 MSTORE PUSH1 0x4 ADD DUP1 DUP1 PUSH1 0x20 ADD DUP3 DUP2 SUB DUP3 MSTORE PUSH1 0x17 DUP2 MSTORE PUSH1 0x20 ADD DUP1 PUSH32 0x4F4E4C595F43414E4449444154455F474F5645524E4F52000000000000000000 DUP2 MSTORE POP PUSH1 0x20 ADD SWAP2 POP POP PUSH1 0x40 MLOAD DUP1 SWAP2 SUB SWAP1 REVERT JUMPDEST PUSH2 0x13FA DUP2 PUSH1 0x1 ADD PUSH1 0x0 SWAP1 SLOAD SWAP1 PUSH2 0x100 EXP SWAP1 DIV PUSH20 0xFFFFFFFFFFFFFFFFFFFFFFFFFFFFFFFFFFFFFFFF AND PUSH2 0x298D JUMP JUMPDEST PUSH1 0x0 DUP2 PUSH1 0x1 ADD PUSH1 0x0 PUSH2 0x100 EXP DUP2 SLOAD DUP2 PUSH20 0xFFFFFFFFFFFFFFFFFFFFFFFFFFFFFFFFFFFFFFFF MUL NOT AND SWAP1 DUP4 PUSH20 0xFFFFFFFFFFFFFFFFFFFFFFFFFFFFFFFFFFFFFFFF AND MUL OR SWAP1 SSTORE POP PUSH32 0xCFB473E6C03F9A29DDAF990E736FA3DE5188A0BD85D684F5B6E164EBFBFFF5D2 CALLER PUSH1 0x40 MLOAD DUP1 DUP3 PUSH20 0xFFFFFFFFFFFFFFFFFFFFFFFFFFFFFFFFFFFFFFFF AND DUP2 MSTORE PUSH1 0x20 ADD SWAP2 POP POP PUSH1 0x40 MLOAD DUP1 SWAP2 SUB SWAP1 LOG1 POP JUMP JUMPDEST PUSH1 0x0 DUP1 DUP4 DUP1 SLOAD SWAP1 POP SWAP1 POP PUSH1 0x0 JUMPDEST DUP2 DUP2 LT ISZERO PUSH2 0x1524 JUMPI DUP4 PUSH20 0xFFFFFFFFFFFFFFFFFFFFFFFFFFFFFFFFFFFFFFFF AND DUP6 DUP3 DUP2 SLOAD DUP2 LT PUSH2 0x14C6 JUMPI INVALID JUMPDEST SWAP1 PUSH1 0x0 MSTORE PUSH1 0x20 PUSH1 0x0 KECCAK256 ADD PUSH1 0x0 SWAP1 SLOAD SWAP1 PUSH2 0x100 EXP SWAP1 DIV PUSH20 0xFFFFFFFFFFFFFFFFFFFFFFFFFFFFFFFFFFFFFFFF AND PUSH20 0xFFFFFFFFFFFFFFFFFFFFFFFFFFFFFFFFFFFFFFFF AND EQ ISZERO PUSH2 0x1517 JUMPI DUP1 SWAP3 POP POP POP PUSH2 0x154A JUMP JUMPDEST DUP1 DUP1 PUSH1 0x1 ADD SWAP2 POP POP PUSH2 0x149B JUMP JUMPDEST POP PUSH32 0xFFFFFFFFFFFFFFFFFFFFFFFFFFFFFFFFFFFFFFFFFFFFFFFFFFFFFFFFFFFFFFFF SWAP2 POP POP JUMPDEST SWAP3 SWAP2 POP POP JUMP JUMPDEST PUSH2 0x1559 CALLER PUSH2 0x1CBF JUMP JUMPDEST PUSH2 0x15CB JUMPI PUSH1 0x40 MLOAD PUSH32 0x8C379A000000000000000000000000000000000000000000000000000000000 DUP2 MSTORE PUSH1 0x4 ADD DUP1 DUP1 PUSH1 0x20 ADD DUP3 DUP2 SUB DUP3 MSTORE PUSH1 0xF DUP2 MSTORE PUSH1 0x20 ADD DUP1 PUSH32 0x4F4E4C595F474F5645524E414E43450000000000000000000000000000000000 DUP2 MSTORE POP PUSH1 0x20 ADD SWAP2 POP POP PUSH1 0x40 MLOAD DUP1 SWAP2 SUB SWAP1 REVERT JUMPDEST PUSH2 0x15D3 PUSH2 0x9C5 JUMP JUMPDEST ISZERO PUSH2 0x1646 JUMPI PUSH1 0x40 MLOAD PUSH32 0x8C379A000000000000000000000000000000000000000000000000000000000 DUP2 MSTORE PUSH1 0x4 ADD DUP1 DUP1 PUSH1 0x20 ADD DUP3 DUP2 SUB DUP3 MSTORE PUSH1 0xF DUP2 MSTORE PUSH1 0x20 ADD DUP1 PUSH32 0x53544154455F49535F46524F5A454E0000000000000000000000000000000000 DUP2 MSTORE POP PUSH1 0x20 ADD SWAP2 POP POP PUSH1 0x40 MLOAD DUP1 SWAP2 SUB SWAP1 REVERT JUMPDEST PUSH1 0x0 DUP5 PUSH1 0x0 ADD SWAP1 POP PUSH2 0x166D DUP5 PUSH20 0xFFFFFFFFFFFFFFFFFFFFFFFFFFFFFFFFFFFFFFFF AND PUSH2 0x2A73 JUMP JUMPDEST PUSH2 0x16DF JUMPI PUSH1 0x40 MLOAD PUSH32 0x8C379A000000000000000000000000000000000000000000000000000000000 DUP2 MSTORE PUSH1 0x4 ADD DUP1 DUP1 PUSH1 0x20 ADD DUP3 DUP2 SUB DUP3 MSTORE PUSH1 0x14 DUP2 MSTORE PUSH1 0x20 ADD DUP1 PUSH32 0x414444524553535F4E4F545F434F4E5452414354000000000000000000000000 DUP2 MSTORE POP PUSH1 0x20 ADD SWAP2 POP POP PUSH1 0x40 MLOAD DUP1 SWAP2 SUB SWAP1 REVERT JUMPDEST PUSH1 0x0 DUP5 PUSH20 0xFFFFFFFFFFFFFFFFFFFFFFFFFFFFFFFFFFFFFFFF AND PUSH4 0xEEB72866 PUSH1 0x40 MLOAD DUP2 PUSH4 0xFFFFFFFF AND PUSH1 0xE0 SHL DUP2 MSTORE PUSH1 0x4 ADD PUSH1 0x0 PUSH1 0x40 MLOAD DUP1 DUP4 SUB DUP2 DUP7 DUP1 EXTCODESIZE ISZERO DUP1 ISZERO PUSH2 0x1727 JUMPI PUSH1 0x0 DUP1 REVERT JUMPDEST POP GAS STATICCALL ISZERO DUP1 ISZERO PUSH2 0x173B JUMPI RETURNDATASIZE PUSH1 0x0 DUP1 RETURNDATACOPY RETURNDATASIZE PUSH1 0x0 REVERT JUMPDEST POP POP POP POP PUSH1 0x40 MLOAD RETURNDATASIZE PUSH1 0x0 DUP3 RETURNDATACOPY RETURNDATASIZE PUSH1 0x1F NOT PUSH1 0x1F DUP3 ADD AND DUP3 ADD DUP1 PUSH1 0x40 MSTORE POP PUSH1 0x20 DUP2 LT ISZERO PUSH2 0x1765 JUMPI PUSH1 0x0 DUP1 REVERT JUMPDEST DUP2 ADD SWAP1 DUP1 DUP1 MLOAD PUSH1 0x40 MLOAD SWAP4 SWAP3 SWAP2 SWAP1 DUP5 PUSH5 0x100000000 DUP3 GT ISZERO PUSH2 0x1785 JUMPI PUSH1 0x0 DUP1 REVERT JUMPDEST DUP4 DUP3 ADD SWAP2 POP PUSH1 0x20 DUP3 ADD DUP6 DUP2 GT ISZERO PUSH2 0x179B JUMPI PUSH1 0x0 DUP1 REVERT JUMPDEST DUP3 MLOAD DUP7 PUSH1 0x1 DUP3 MUL DUP4 ADD GT PUSH5 0x100000000 DUP3 GT OR ISZERO PUSH2 0x17B8 JUMPI PUSH1 0x0 DUP1 REVERT JUMPDEST DUP1 DUP4 MSTORE PUSH1 0x20 DUP4 ADD SWAP3 POP POP POP SWAP1 DUP1 MLOAD SWAP1 PUSH1 0x20 ADD SWAP1 DUP1 DUP4 DUP4 PUSH1 0x0 JUMPDEST DUP4 DUP2 LT ISZERO PUSH2 0x17EC JUMPI DUP1 DUP3 ADD MLOAD DUP2 DUP5 ADD MSTORE PUSH1 0x20 DUP2 ADD SWAP1 POP PUSH2 0x17D1 JUMP JUMPDEST POP POP POP POP SWAP1 POP SWAP1 DUP2 ADD SWAP1 PUSH1 0x1F AND DUP1 ISZERO PUSH2 0x1819 JUMPI DUP1 DUP3 SUB DUP1 MLOAD PUSH1 0x1 DUP4 PUSH1 0x20 SUB PUSH2 0x100 EXP SUB NOT AND DUP2 MSTORE PUSH1 0x20 ADD SWAP2 POP JUMPDEST POP PUSH1 0x40 MSTORE POP POP POP PUSH1 0x40 MLOAD PUSH1 0x20 ADD DUP1 DUP3 DUP1 MLOAD SWAP1 PUSH1 0x20 ADD SWAP1 DUP1 DUP4 DUP4 JUMPDEST PUSH1 0x20 DUP4 LT PUSH2 0x1856 JUMPI DUP1 MLOAD DUP3 MSTORE PUSH1 0x20 DUP3 ADD SWAP2 POP PUSH1 0x20 DUP2 ADD SWAP1 POP PUSH1 0x20 DUP4 SUB SWAP3 POP PUSH2 0x1833 JUMP JUMPDEST PUSH1 0x1 DUP4 PUSH1 0x20 SUB PUSH2 0x100 EXP SUB DUP1 NOT DUP3 MLOAD AND DUP2 DUP5 MLOAD AND DUP1 DUP3 OR DUP6 MSTORE POP POP POP POP POP POP SWAP1 POP ADD SWAP2 POP POP PUSH1 0x40 MLOAD PUSH1 0x20 DUP2 DUP4 SUB SUB DUP2 MSTORE SWAP1 PUSH1 0x40 MSTORE DUP1 MLOAD SWAP1 PUSH1 0x20 ADD KECCAK256 SWAP1 POP PUSH1 0x0 DUP4 PUSH1 0x40 MLOAD PUSH1 0x20 ADD DUP1 DUP3 DUP1 MLOAD SWAP1 PUSH1 0x20 ADD SWAP1 DUP1 DUP4 DUP4 JUMPDEST PUSH1 0x20 DUP4 LT PUSH2 0x18CC JUMPI DUP1 MLOAD DUP3 MSTORE PUSH1 0x20 DUP3 ADD SWAP2 POP PUSH1 0x20 DUP2 ADD SWAP1 POP PUSH1 0x20 DUP4 SUB SWAP3 POP PUSH2 0x18A9 JUMP JUMPDEST PUSH1 0x1 DUP4 PUSH1 0x20 SUB PUSH2 0x100 EXP SUB DUP1 NOT DUP3 MLOAD AND DUP2 DUP5 MLOAD AND DUP1 DUP3 OR DUP6 MSTORE POP POP POP POP POP POP SWAP1 POP ADD SWAP2 POP POP PUSH1 0x40 MLOAD PUSH1 0x20 DUP2 DUP4 SUB SUB DUP2 MSTORE SWAP1 PUSH1 0x40 MSTORE DUP1 MLOAD SWAP1 PUSH1 0x20 ADD KECCAK256 SWAP1 POP DUP1 DUP3 EQ PUSH2 0x197E JUMPI PUSH1 0x40 MLOAD PUSH32 0x8C379A000000000000000000000000000000000000000000000000000000000 DUP2 MSTORE PUSH1 0x4 ADD DUP1 DUP1 PUSH1 0x20 ADD DUP3 DUP2 SUB DUP3 MSTORE PUSH1 0x1E DUP2 MSTORE PUSH1 0x20 ADD DUP1 PUSH32 0x554E45585045435445445F434F4E54524143545F4944454E5449464945520000 DUP2 MSTORE POP PUSH1 0x20 ADD SWAP2 POP POP PUSH1 0x40 MLOAD DUP1 SWAP2 SUB SWAP1 REVERT JUMPDEST DUP5 DUP4 DUP1 SLOAD SWAP1 POP LT PUSH2 0x19F7 JUMPI PUSH1 0x40 MLOAD PUSH32 0x8C379A000000000000000000000000000000000000000000000000000000000 DUP2 MSTORE PUSH1 0x4 ADD DUP1 DUP1 PUSH1 0x20 ADD DUP3 DUP2 SUB DUP3 MSTORE PUSH1 0x15 DUP2 MSTORE PUSH1 0x20 ADD DUP1 PUSH32 0x434841494E5F41545F4D41585F43415041434954590000000000000000000000 DUP2 MSTORE POP PUSH1 0x20 ADD SWAP2 POP POP PUSH1 0x40 MLOAD DUP1 SWAP2 SUB SWAP1 REVERT JUMPDEST PUSH32 0xFFFFFFFFFFFFFFFFFFFFFFFFFFFFFFFFFFFFFFFFFFFFFFFFFFFFFFFFFFFFFFFF PUSH2 0x1A22 DUP5 DUP9 PUSH2 0x148E JUMP JUMPDEST EQ PUSH2 0x1A95 JUMPI PUSH1 0x40 MLOAD PUSH32 0x8C379A000000000000000000000000000000000000000000000000000000000 DUP2 MSTORE PUSH1 0x4 ADD DUP1 DUP1 PUSH1 0x20 ADD DUP3 DUP2 SUB DUP3 MSTORE PUSH1 0x14 DUP2 MSTORE PUSH1 0x20 ADD DUP1 PUSH32 0x454E5452595F414C52454144595F455849535453000000000000000000000000 DUP2 MSTORE POP PUSH1 0x20 ADD SWAP2 POP POP PUSH1 0x40 MLOAD DUP1 SWAP2 SUB SWAP1 REVERT JUMPDEST PUSH1 0x0 DUP4 DUP1 SLOAD SWAP1 POP EQ DUP1 PUSH2 0x1B25 JUMPI POP DUP6 PUSH20 0xFFFFFFFFFFFFFFFFFFFFFFFFFFFFFFFFFFFFFFFF AND PUSH4 0xD6354E15 PUSH1 0x40 MLOAD DUP2 PUSH4 0xFFFFFFFF AND PUSH1 0xE0 SHL DUP2 MSTORE PUSH1 0x4 ADD PUSH1 0x20 PUSH1 0x40 MLOAD DUP1 DUP4 SUB DUP2 DUP7 DUP1 EXTCODESIZE ISZERO DUP1 ISZERO PUSH2 0x1AE9 JUMPI PUSH1 0x0 DUP1 REVERT JUMPDEST POP GAS STATICCALL ISZERO DUP1 ISZERO PUSH2 0x1AFD JUMPI RETURNDATASIZE PUSH1 0x0 DUP1 RETURNDATACOPY RETURNDATASIZE PUSH1 0x0 REVERT JUMPDEST POP POP POP POP PUSH1 0x40 MLOAD RETURNDATASIZE PUSH1 0x20 DUP2 LT ISZERO PUSH2 0x1B13 JUMPI PUSH1 0x0 DUP1 REVERT JUMPDEST DUP2 ADD SWAP1 DUP1 DUP1 MLOAD SWAP1 PUSH1 0x20 ADD SWAP1 SWAP3 SWAP2 SWAP1 POP POP POP JUMPDEST PUSH2 0x1B97 JUMPI PUSH1 0x40 MLOAD PUSH32 0x8C379A000000000000000000000000000000000000000000000000000000000 DUP2 MSTORE PUSH1 0x4 ADD DUP1 DUP1 PUSH1 0x20 ADD DUP3 DUP2 SUB DUP3 MSTORE PUSH1 0x11 DUP2 MSTORE PUSH1 0x20 ADD DUP1 PUSH32 0x454E5452595F4E4F545F454E41424C4544000000000000000000000000000000 DUP2 MSTORE POP PUSH1 0x20 ADD SWAP2 POP POP PUSH1 0x40 MLOAD DUP1 SWAP2 SUB SWAP1 REVERT JUMPDEST DUP7 PUSH1 0x0 ADD DUP7 SWAP1 DUP1 PUSH1 0x1 DUP2 SLOAD ADD DUP1 DUP3 SSTORE DUP1 SWAP2 POP POP PUSH1 0x1 SWAP1 SUB SWAP1 PUSH1 0x0 MSTORE PUSH1 0x20 PUSH1 0x0 KECCAK256 ADD PUSH1 0x0 SWAP1 SWAP2 SWAP1 SWAP2 SWAP1 SWAP2 PUSH2 0x100 EXP DUP2 SLOAD DUP2 PUSH20 0xFFFFFFFFFFFFFFFFFFFFFFFFFFFFFFFFFFFFFFFF MUL NOT AND SWAP1 DUP4 PUSH20 0xFFFFFFFFFFFFFFFFFFFFFFFFFFFFFFFFFFFFFFFF AND MUL OR SWAP1 SSTORE POP PUSH32 0xAA7F29C97C6763919EF56006F07FBF5C1AC734B0414665DF43CECDBCE9010C9B DUP7 DUP6 PUSH1 0x40 MLOAD DUP1 DUP4 PUSH20 0xFFFFFFFFFFFFFFFFFFFFFFFFFFFFFFFFFFFFFFFF AND DUP2 MSTORE PUSH1 0x20 ADD DUP1 PUSH1 0x20 ADD DUP3 DUP2 SUB DUP3 MSTORE DUP4 DUP2 DUP2 MLOAD DUP2 MSTORE PUSH1 0x20 ADD SWAP2 POP DUP1 MLOAD SWAP1 PUSH1 0x20 ADD SWAP1 DUP1 DUP4 DUP4 PUSH1 0x0 JUMPDEST DUP4 DUP2 LT ISZERO PUSH2 0x1C7B JUMPI DUP1 DUP3 ADD MLOAD DUP2 DUP5 ADD MSTORE PUSH1 0x20 DUP2 ADD SWAP1 POP PUSH2 0x1C60 JUMP JUMPDEST POP POP POP POP SWAP1 POP SWAP1 DUP2 ADD SWAP1 PUSH1 0x1F AND DUP1 ISZERO PUSH2 0x1CA8 JUMPI DUP1 DUP3 SUB DUP1 MLOAD PUSH1 0x1 DUP4 PUSH1 0x20 SUB PUSH2 0x100 EXP SUB NOT AND DUP2 MSTORE PUSH1 0x20 ADD SWAP2 POP JUMPDEST POP SWAP4 POP POP POP POP PUSH1 0x40 MLOAD DUP1 SWAP2 SUB SWAP1 LOG1 POP POP POP POP POP POP POP JUMP JUMPDEST PUSH1 0x0 DUP1 PUSH2 0x1CCA PUSH2 0x2887 JUMP JUMPDEST SWAP1 POP DUP1 PUSH1 0x0 ADD PUSH1 0x0 DUP5 PUSH20 0xFFFFFFFFFFFFFFFFFFFFFFFFFFFFFFFFFFFFFFFF AND PUSH20 0xFFFFFFFFFFFFFFFFFFFFFFFFFFFFFFFFFFFFFFFF AND DUP2 MSTORE PUSH1 0x20 ADD SWAP1 DUP2 MSTORE PUSH1 0x20 ADD PUSH1 0x0 KECCAK256 PUSH1 0x0 SWAP1 SLOAD SWAP1 PUSH2 0x100 EXP SWAP1 DIV PUSH1 0xFF AND SWAP2 POP POP SWAP2 SWAP1 POP JUMP JUMPDEST PUSH2 0x1D2C CALLER PUSH2 0x1CBF JUMP JUMPDEST PUSH2 0x1D9E JUMPI PUSH1 0x40 MLOAD PUSH32 0x8C379A000000000000000000000000000000000000000000000000000000000 DUP2 MSTORE PUSH1 0x4 ADD DUP1 DUP1 PUSH1 0x20 ADD DUP3 DUP2 SUB DUP3 MSTORE PUSH1 0xF DUP2 MSTORE PUSH1 0x20 ADD DUP1 PUSH32 0x4F4E4C595F474F5645524E414E43450000000000000000000000000000000000 DUP2 MSTORE POP PUSH1 0x20 ADD SWAP2 POP POP PUSH1 0x40 MLOAD DUP1 SWAP2 SUB SWAP1 REVERT JUMPDEST PUSH1 0x0 PUSH2 0x1DA8 PUSH2 0x2887 JUMP JUMPDEST SWAP1 POP PUSH1 0x0 DUP2 PUSH1 0x1 ADD PUSH1 0x0 PUSH2 0x100 EXP DUP2 SLOAD DUP2 PUSH20 0xFFFFFFFFFFFFFFFFFFFFFFFFFFFFFFFFFFFFFFFF MUL NOT AND SWAP1 DUP4 PUSH20 0xFFFFFFFFFFFFFFFFFFFFFFFFFFFFFFFFFFFFFFFF AND MUL OR SWAP1 SSTORE POP PUSH32 0x7A8DC7DD7FFFB43C4807438FA62729225156941E641FD877938F4EDADE3429F5 PUSH1 0x40 MLOAD PUSH1 0x40 MLOAD DUP1 SWAP2 SUB SWAP1 LOG1 POP JUMP JUMPDEST PUSH2 0x1E26 CALLER PUSH2 0x1CBF JUMP JUMPDEST PUSH2 0x1E98 JUMPI PUSH1 0x40 MLOAD PUSH32 0x8C379A000000000000000000000000000000000000000000000000000000000 DUP2 MSTORE PUSH1 0x4 ADD DUP1 DUP1 PUSH1 0x20 ADD DUP3 DUP2 SUB DUP3 MSTORE PUSH1 0xF DUP2 MSTORE PUSH1 0x20 ADD DUP1 PUSH32 0x4F4E4C595F474F5645524E414E43450000000000000000000000000000000000 DUP2 MSTORE POP PUSH1 0x20 ADD SWAP2 POP POP PUSH1 0x40 MLOAD DUP1 SWAP2 SUB SWAP1 REVERT JUMPDEST PUSH1 0x0 PUSH2 0x1EA2 PUSH2 0x2887 JUMP JUMPDEST SWAP1 POP PUSH2 0x1EAD DUP3 PUSH2 0x1CBF JUMP JUMPDEST ISZERO PUSH2 0x1F20 JUMPI PUSH1 0x40 MLOAD PUSH32 0x8C379A000000000000000000000000000000000000000000000000000000000 DUP2 MSTORE PUSH1 0x4 ADD DUP1 DUP1 PUSH1 0x20 ADD DUP3 DUP2 SUB DUP3 MSTORE PUSH1 0x10 DUP2 MSTORE PUSH1 0x20 ADD DUP1 PUSH32 0x414C52454144595F474F5645524E4F5200000000000000000000000000000000 DUP2 MSTORE POP PUSH1 0x20 ADD SWAP2 POP POP PUSH1 0x40 MLOAD DUP1 SWAP2 SUB SWAP1 REVERT JUMPDEST DUP2 DUP2 PUSH1 0x1 ADD PUSH1 0x0 PUSH2 0x100 EXP DUP2 SLOAD DUP2 PUSH20 0xFFFFFFFFFFFFFFFFFFFFFFFFFFFFFFFFFFFFFFFF MUL NOT AND SWAP1 DUP4 PUSH20 0xFFFFFFFFFFFFFFFFFFFFFFFFFFFFFFFFFFFFFFFF AND MUL OR SWAP1 SSTORE POP PUSH32 0x6166272C8D3F5F579082F2827532732F97195007983BB5B83AC12C56700B01A6 DUP3 PUSH1 0x40 MLOAD DUP1 DUP3 PUSH20 0xFFFFFFFFFFFFFFFFFFFFFFFFFFFFFFFFFFFFFFFF AND DUP2 MSTORE PUSH1 0x20 ADD SWAP2 POP POP PUSH1 0x40 MLOAD DUP1 SWAP2 SUB SWAP1 LOG1 POP POP JUMP JUMPDEST PUSH2 0x1FBD CALLER PUSH2 0x1CBF JUMP JUMPDEST PUSH2 0x202F JUMPI PUSH1 0x40 MLOAD PUSH32 0x8C379A000000000000000000000000000000000000000000000000000000000 DUP2 MSTORE PUSH1 0x4 ADD DUP1 DUP1 PUSH1 0x20 ADD DUP3 DUP2 SUB DUP3 MSTORE PUSH1 0xF DUP2 MSTORE PUSH1 0x20 ADD DUP1 PUSH32 0x4F4E4C595F474F5645524E414E43450000000000000000000000000000000000 DUP2 MSTORE POP PUSH1 0x20 ADD SWAP2 POP POP PUSH1 0x40 MLOAD DUP1 SWAP2 SUB SWAP1 REVERT JUMPDEST DUP1 PUSH20 0xFFFFFFFFFFFFFFFFFFFFFFFFFFFFFFFFFFFFFFFF AND CALLER PUSH20 0xFFFFFFFFFFFFFFFFFFFFFFFFFFFFFFFFFFFFFFFF AND EQ ISZERO PUSH2 0x20D1 JUMPI PUSH1 0x40 MLOAD PUSH32 0x8C379A000000000000000000000000000000000000000000000000000000000 DUP2 MSTORE PUSH1 0x4 ADD DUP1 DUP1 PUSH1 0x20 ADD DUP3 DUP2 SUB DUP3 MSTORE PUSH1 0x14 DUP2 MSTORE PUSH1 0x20 ADD DUP1 PUSH32 0x474F5645524E4F525F53454C465F52454D4F5645000000000000000000000000 DUP2 MSTORE POP PUSH1 0x20 ADD SWAP2 POP POP PUSH1 0x40 MLOAD DUP1 SWAP2 SUB SWAP1 REVERT JUMPDEST PUSH1 0x0 PUSH2 0x20DB PUSH2 0x2887 JUMP JUMPDEST SWAP1 POP PUSH2 0x20E6 DUP3 PUSH2 0x1CBF JUMP JUMPDEST PUSH2 0x2158 JUMPI PUSH1 0x40 MLOAD PUSH32 0x8C379A000000000000000000000000000000000000000000000000000000000 DUP2 MSTORE PUSH1 0x4 ADD DUP1 DUP1 PUSH1 0x20 ADD DUP3 DUP2 SUB DUP3 MSTORE PUSH1 0xC DUP2 MSTORE PUSH1 0x20 ADD DUP1 PUSH32 0x4E4F545F474F5645524E4F520000000000000000000000000000000000000000 DUP2 MSTORE POP PUSH1 0x20 ADD SWAP2 POP POP PUSH1 0x40 MLOAD DUP1 SWAP2 SUB SWAP1 REVERT JUMPDEST PUSH1 0x0 DUP2 PUSH1 0x0 ADD PUSH1 0x0 DUP5 PUSH20 0xFFFFFFFFFFFFFFFFFFFFFFFFFFFFFFFFFFFFFFFF AND PUSH20 0xFFFFFFFFFFFFFFFFFFFFFFFFFFFFFFFFFFFFFFFF AND DUP2 MSTORE PUSH1 0x20 ADD SWAP1 DUP2 MSTORE PUSH1 0x20 ADD PUSH1 0x0 KECCAK256 PUSH1 0x0 PUSH2 0x100 EXP DUP2 SLOAD DUP2 PUSH1 0xFF MUL NOT AND SWAP1 DUP4 ISZERO ISZERO MUL OR SWAP1 SSTORE POP PUSH32 0xD75F94825E770B8B512BE8E74759E252AD00E102E38F50CCE2F7C6F868A29599 DUP3 PUSH1 0x40 MLOAD DUP1 DUP3 PUSH20 0xFFFFFFFFFFFFFFFFFFFFFFFFFFFFFFFFFFFFFFFF AND DUP2 MSTORE PUSH1 0x20 ADD SWAP2 POP POP PUSH1 0x40 MLOAD DUP1 SWAP2 SUB SWAP1 LOG1 POP POP JUMP JUMPDEST PUSH2 0x220C CALLER PUSH2 0x1CBF JUMP JUMPDEST PUSH2 0x227E JUMPI PUSH1 0x40 MLOAD PUSH32 0x8C379A000000000000000000000000000000000000000000000000000000000 DUP2 MSTORE PUSH1 0x4 ADD DUP1 DUP1 PUSH1 0x20 ADD DUP3 DUP2 SUB DUP3 MSTORE PUSH1 0xF DUP2 MSTORE PUSH1 0x20 ADD DUP1 PUSH32 0x4F4E4C595F474F5645524E414E43450000000000000000000000000000000000 DUP2 MSTORE POP PUSH1 0x20 ADD SWAP2 POP POP PUSH1 0x40 MLOAD DUP1 SWAP2 SUB SWAP1 REVERT JUMPDEST PUSH2 0x2286 PUSH2 0x9C5 JUMP JUMPDEST ISZERO PUSH2 0x22F9 JUMPI PUSH1 0x40 MLOAD PUSH32 0x8C379A000000000000000000000000000000000000000000000000000000000 DUP2 MSTORE PUSH1 0x4 ADD DUP1 DUP1 PUSH1 0x20 ADD DUP3 DUP2 SUB DUP3 MSTORE PUSH1 0xF DUP2 MSTORE PUSH1 0x20 ADD DUP1 PUSH32 0x53544154455F49535F46524F5A454E0000000000000000000000000000000000 DUP2 MSTORE POP PUSH1 0x20 ADD SWAP2 POP POP PUSH1 0x40 MLOAD DUP1 SWAP2 SUB SWAP1 REVERT JUMPDEST PUSH1 0x0 DUP3 PUSH1 0x0 ADD SWAP1 POP PUSH1 0x0 PUSH2 0x230D DUP3 DUP5 PUSH2 0x27DD JUMP JUMPDEST SWAP1 POP PUSH1 0x0 DUP5 PUSH1 0x1 ADD PUSH1 0x0 DUP6 PUSH20 0xFFFFFFFFFFFFFFFFFFFFFFFFFFFFFFFFFFFFFFFF AND PUSH20 0xFFFFFFFFFFFFFFFFFFFFFFFFFFFFFFFFFFFFFFFF AND DUP2 MSTORE PUSH1 0x20 ADD SWAP1 DUP2 MSTORE PUSH1 0x20 ADD PUSH1 0x0 KECCAK256 SLOAD SWAP1 POP PUSH1 0x0 DUP2 GT PUSH2 0x23CB JUMPI PUSH1 0x40 MLOAD PUSH32 0x8C379A000000000000000000000000000000000000000000000000000000000 DUP2 MSTORE PUSH1 0x4 ADD DUP1 DUP1 PUSH1 0x20 ADD DUP3 DUP2 SUB DUP3 MSTORE PUSH1 0x15 DUP2 MSTORE PUSH1 0x20 ADD DUP1 PUSH32 0x52454D4F56414C5F4E4F545F414E4E4F554E4345440000000000000000000000 DUP2 MSTORE POP PUSH1 0x20 ADD SWAP2 POP POP PUSH1 0x40 MLOAD DUP1 SWAP2 SUB SWAP1 REVERT JUMPDEST DUP1 TIMESTAMP LT ISZERO PUSH2 0x2441 JUMPI PUSH1 0x40 MLOAD PUSH32 0x8C379A000000000000000000000000000000000000000000000000000000000 DUP2 MSTORE PUSH1 0x4 ADD DUP1 DUP1 PUSH1 0x20 ADD DUP3 DUP2 SUB DUP3 MSTORE PUSH1 0x17 DUP2 MSTORE PUSH1 0x20 ADD DUP1 PUSH32 0x52454D4F56414C5F4E4F545F454E41424C45445F594554000000000000000000 DUP2 MSTORE POP PUSH1 0x20 ADD SWAP2 POP POP PUSH1 0x40 MLOAD DUP1 SWAP2 SUB SWAP1 REVERT JUMPDEST PUSH1 0x0 DUP4 DUP1 SLOAD SWAP1 POP SWAP1 POP PUSH1 0x1 DUP2 GT PUSH2 0x24C0 JUMPI PUSH1 0x40 MLOAD PUSH32 0x8C379A000000000000000000000000000000000000000000000000000000000 DUP2 MSTORE PUSH1 0x4 ADD DUP1 DUP1 PUSH1 0x20 ADD DUP3 DUP2 SUB DUP3 MSTORE PUSH1 0x1D DUP2 MSTORE PUSH1 0x20 ADD DUP1 PUSH32 0x4C4153545F454E5452595F4D41595F4E4F545F42455F52454D4F564544000000 DUP2 MSTORE POP PUSH1 0x20 ADD SWAP2 POP POP PUSH1 0x40 MLOAD DUP1 SWAP2 SUB SWAP1 REVERT JUMPDEST PUSH1 0x1 DUP2 SUB DUP4 EQ PUSH2 0x2559 JUMPI DUP4 PUSH1 0x1 DUP3 SUB DUP2 SLOAD DUP2 LT PUSH2 0x24D9 JUMPI INVALID JUMPDEST SWAP1 PUSH1 0x0 MSTORE PUSH1 0x20 PUSH1 0x0 KECCAK256 ADD PUSH1 0x0 SWAP1 SLOAD SWAP1 PUSH2 0x100 EXP SWAP1 DIV PUSH20 0xFFFFFFFFFFFFFFFFFFFFFFFFFFFFFFFFFFFFFFFF AND DUP5 DUP5 DUP2 SLOAD DUP2 LT PUSH2 0x2510 JUMPI INVALID JUMPDEST SWAP1 PUSH1 0x0 MSTORE PUSH1 0x20 PUSH1 0x0 KECCAK256 ADD PUSH1 0x0 PUSH2 0x100 EXP DUP2 SLOAD DUP2 PUSH20 0xFFFFFFFFFFFFFFFFFFFFFFFFFFFFFFFFFFFFFFFF MUL NOT AND SWAP1 DUP4 PUSH20 0xFFFFFFFFFFFFFFFFFFFFFFFFFFFFFFFFFFFFFFFF AND MUL OR SWAP1 SSTORE POP JUMPDEST DUP4 DUP1 SLOAD DUP1 PUSH2 0x2563 JUMPI INVALID JUMPDEST PUSH1 0x1 SWAP1 SUB DUP2 DUP2 SWAP1 PUSH1 0x0 MSTORE PUSH1 0x20 PUSH1 0x0 KECCAK256 ADD PUSH1 0x0 PUSH2 0x100 EXP DUP2 SLOAD SWAP1 PUSH20 0xFFFFFFFFFFFFFFFFFFFFFFFFFFFFFFFFFFFFFFFF MUL NOT AND SWAP1 SSTORE SWAP1 SSTORE DUP6 PUSH1 0x1 ADD PUSH1 0x0 DUP7 PUSH20 0xFFFFFFFFFFFFFFFFFFFFFFFFFFFFFFFFFFFFFFFF AND PUSH20 0xFFFFFFFFFFFFFFFFFFFFFFFFFFFFFFFFFFFFFFFF AND DUP2 MSTORE PUSH1 0x20 ADD SWAP1 DUP2 MSTORE PUSH1 0x20 ADD PUSH1 0x0 KECCAK256 PUSH1 0x0 SWAP1 SSTORE PUSH32 0x35B176CF4F09DF896AA55E10EEC90BB4C4689EA1D076135A8DE3138D829D0142 DUP6 DUP7 PUSH20 0xFFFFFFFFFFFFFFFFFFFFFFFFFFFFFFFFFFFFFFFF AND PUSH4 0xEEB72866 PUSH1 0x40 MLOAD DUP2 PUSH4 0xFFFFFFFF AND PUSH1 0xE0 SHL DUP2 MSTORE PUSH1 0x4 ADD PUSH1 0x0 PUSH1 0x40 MLOAD DUP1 DUP4 SUB DUP2 DUP7 DUP1 EXTCODESIZE ISZERO DUP1 ISZERO PUSH2 0x2645 JUMPI PUSH1 0x0 DUP1 REVERT JUMPDEST POP GAS STATICCALL ISZERO DUP1 ISZERO PUSH2 0x2659 JUMPI RETURNDATASIZE PUSH1 0x0 DUP1 RETURNDATACOPY RETURNDATASIZE PUSH1 0x0 REVERT JUMPDEST POP POP POP POP PUSH1 0x40 MLOAD RETURNDATASIZE PUSH1 0x0 DUP3 RETURNDATACOPY RETURNDATASIZE PUSH1 0x1F NOT PUSH1 0x1F DUP3 ADD AND DUP3 ADD DUP1 PUSH1 0x40 MSTORE POP PUSH1 0x20 DUP2 LT ISZERO PUSH2 0x2683 JUMPI PUSH1 0x0 DUP1 REVERT JUMPDEST DUP2 ADD SWAP1 DUP1 DUP1 MLOAD PUSH1 0x40 MLOAD SWAP4 SWAP3 SWAP2 SWAP1 DUP5 PUSH5 0x100000000 DUP3 GT ISZERO PUSH2 0x26A3 JUMPI PUSH1 0x0 DUP1 REVERT JUMPDEST DUP4 DUP3 ADD SWAP2 POP PUSH1 0x20 DUP3 ADD DUP6 DUP2 GT ISZERO PUSH2 0x26B9 JUMPI PUSH1 0x0 DUP1 REVERT JUMPDEST DUP3 MLOAD DUP7 PUSH1 0x1 DUP3 MUL DUP4 ADD GT PUSH5 0x100000000 DUP3 GT OR ISZERO PUSH2 0x26D6 JUMPI PUSH1 0x0 DUP1 REVERT JUMPDEST DUP1 DUP4 MSTORE PUSH1 0x20 DUP4 ADD SWAP3 POP POP POP SWAP1 DUP1 MLOAD SWAP1 PUSH1 0x20 ADD SWAP1 DUP1 DUP4 DUP4 PUSH1 0x0 JUMPDEST DUP4 DUP2 LT ISZERO PUSH2 0x270A JUMPI DUP1 DUP3 ADD MLOAD DUP2 DUP5 ADD MSTORE PUSH1 0x20 DUP2 ADD SWAP1 POP PUSH2 0x26EF JUMP JUMPDEST POP POP POP POP SWAP1 POP SWAP1 DUP2 ADD SWAP1 PUSH1 0x1F AND DUP1 ISZERO PUSH2 0x2737 JUMPI DUP1 DUP3 SUB DUP1 MLOAD PUSH1 0x1 DUP4 PUSH1 0x20 SUB PUSH2 0x100 EXP SUB NOT AND DUP2 MSTORE PUSH1 0x20 ADD SWAP2 POP JUMPDEST POP PUSH1 0x40 MSTORE POP POP POP PUSH1 0x40 MLOAD DUP1 DUP4 PUSH20 0xFFFFFFFFFFFFFFFFFFFFFFFFFFFFFFFFFFFFFFFF AND DUP2 MSTORE PUSH1 0x20 ADD DUP1 PUSH1 0x20 ADD DUP3 DUP2 SUB DUP3 MSTORE DUP4 DUP2 DUP2 MLOAD DUP2 MSTORE PUSH1 0x20 ADD SWAP2 POP DUP1 MLOAD SWAP1 PUSH1 0x20 ADD SWAP1 DUP1 DUP4 DUP4 PUSH1 0x0 JUMPDEST DUP4 DUP2 LT ISZERO PUSH2 0x279A JUMPI DUP1 DUP3 ADD MLOAD DUP2 DUP5 ADD MSTORE PUSH1 0x20 DUP2 ADD SWAP1 POP PUSH2 0x277F JUMP JUMPDEST POP POP POP POP SWAP1 POP SWAP1 DUP2 ADD SWAP1 PUSH1 0x1F AND DUP1 ISZERO PUSH2 0x27C7 JUMPI DUP1 DUP3 SUB DUP1 MLOAD PUSH1 0x1 DUP4 PUSH1 0x20 SUB PUSH2 0x100 EXP SUB NOT AND DUP2 MSTORE PUSH1 0x20 ADD SWAP2 POP JUMPDEST POP SWAP4 POP POP POP POP PUSH1 0x40 MLOAD DUP1 SWAP2 SUB SWAP1 LOG1 POP POP POP POP POP POP JUMP JUMPDEST PUSH1 0x0 PUSH2 0x27E9 DUP4 DUP4 PUSH2 0x148E JUMP JUMPDEST SWAP1 POP PUSH32 0xFFFFFFFFFFFFFFFFFFFFFFFFFFFFFFFFFFFFFFFFFFFFFFFFFFFFFFFFFFFFFFFF DUP2 EQ ISZERO PUSH2 0x2881 JUMPI PUSH1 0x40 MLOAD PUSH32 0x8C379A000000000000000000000000000000000000000000000000000000000 DUP2 MSTORE PUSH1 0x4 ADD DUP1 DUP1 PUSH1 0x20 ADD DUP3 DUP2 SUB DUP3 MSTORE PUSH1 0x14 DUP2 MSTORE PUSH1 0x20 ADD DUP1 PUSH32 0x454E5452595F444F45535F4E4F545F4558495354000000000000000000000000 DUP2 MSTORE POP PUSH1 0x20 ADD SWAP2 POP POP PUSH1 0x40 MLOAD DUP1 SWAP2 SUB SWAP1 REVERT JUMPDEST SWAP3 SWAP2 POP POP JUMP JUMPDEST PUSH1 0x0 PUSH1 0x60 PUSH2 0x2893 PUSH2 0x2A86 JUMP JUMPDEST SWAP1 POP PUSH1 0x0 DUP1 DUP3 PUSH1 0x40 MLOAD DUP1 DUP3 DUP1 MLOAD SWAP1 PUSH1 0x20 ADD SWAP1 DUP1 DUP4 DUP4 JUMPDEST PUSH1 0x20 DUP4 LT PUSH2 0x28CC JUMPI DUP1 MLOAD DUP3 MSTORE PUSH1 0x20 DUP3 ADD SWAP2 POP PUSH1 0x20 DUP2 ADD SWAP1 POP PUSH1 0x20 DUP4 SUB SWAP3 POP PUSH2 0x28A9 JUMP JUMPDEST PUSH1 0x1 DUP4 PUSH1 0x20 SUB PUSH2 0x100 EXP SUB DUP1 NOT DUP3 MLOAD AND DUP2 DUP5 MLOAD AND DUP1 DUP3 OR DUP6 MSTORE POP POP POP POP POP POP SWAP1 POP ADD SWAP2 POP POP SWAP1 DUP2 MSTORE PUSH1 0x20 ADD PUSH1 0x40 MLOAD DUP1 SWAP2 SUB SWAP1 KECCAK256 SWAP1 POP DUP1 PUSH1 0x1 ADD PUSH1 0x14 SWAP1 SLOAD SWAP1 PUSH2 0x100 EXP SWAP1 DIV PUSH1 0xFF AND PUSH2 0x2985 JUMPI PUSH1 0x40 MLOAD PUSH32 0x8C379A000000000000000000000000000000000000000000000000000000000 DUP2 MSTORE PUSH1 0x4 ADD DUP1 DUP1 PUSH1 0x20 ADD DUP3 DUP2 SUB DUP3 MSTORE PUSH1 0xF DUP2 MSTORE PUSH1 0x20 ADD DUP1 PUSH32 0x4E4F545F494E495449414C495A45440000000000000000000000000000000000 DUP2 MSTORE POP PUSH1 0x20 ADD SWAP2 POP POP PUSH1 0x40 MLOAD DUP1 SWAP2 SUB SWAP1 REVERT JUMPDEST DUP1 SWAP3 POP POP POP SWAP1 JUMP JUMPDEST PUSH2 0x2996 DUP2 PUSH2 0x1CBF JUMP JUMPDEST ISZERO PUSH2 0x2A09 JUMPI PUSH1 0x40 MLOAD PUSH32 0x8C379A000000000000000000000000000000000000000000000000000000000 DUP2 MSTORE PUSH1 0x4 ADD DUP1 DUP1 PUSH1 0x20 ADD DUP3 DUP2 SUB DUP3 MSTORE PUSH1 0x10 DUP2 MSTORE PUSH1 0x20 ADD DUP1 PUSH32 0x414C52454144595F474F5645524E4F5200000000000000000000000000000000 DUP2 MSTORE POP PUSH1 0x20 ADD SWAP2 POP POP PUSH1 0x40 MLOAD DUP1 SWAP2 SUB SWAP1 REVERT JUMPDEST PUSH1 0x0 PUSH2 0x2A13 PUSH2 0x2887 JUMP JUMPDEST SWAP1 POP PUSH1 0x1 DUP2 PUSH1 0x0 ADD PUSH1 0x0 DUP5 PUSH20 0xFFFFFFFFFFFFFFFFFFFFFFFFFFFFFFFFFFFFFFFF AND PUSH20 0xFFFFFFFFFFFFFFFFFFFFFFFFFFFFFFFFFFFFFFFF AND DUP2 MSTORE PUSH1 0x20 ADD SWAP1 DUP2 MSTORE PUSH1 0x20 ADD PUSH1 0x0 KECCAK256 PUSH1 0x0 PUSH2 0x100 EXP DUP2 SLOAD DUP2 PUSH1 0xFF MUL NOT AND SWAP1 DUP4 ISZERO ISZERO MUL OR SWAP1 SSTORE POP POP POP JUMP JUMPDEST PUSH1 0x0 DUP1 DUP3 EXTCODESIZE SWAP1 POP PUSH1 0x0 DUP2 GT SWAP2 POP POP SWAP2 SWAP1 POP JUMP JUMPDEST PUSH1 0x60 PUSH1 0x40 MLOAD DUP1 PUSH1 0x60 ADD PUSH1 0x40 MSTORE DUP1 PUSH1 0x26 DUP2 MSTORE PUSH1 0x20 ADD PUSH2 0x2AA7 PUSH1 0x26 SWAP2 CODECOPY SWAP1 POP SWAP1 JUMP INVALID MSTORE8 PUSH21 0x61726B45782E4D61696E2E323031392E476F766572 PUSH15 0x6F7273496E666F726D6174696F6EA2 PUSH5 0x6970667358 0x22 SLT KECCAK256 PUSH30 0xB7605FDA65A1462F587BACD695F5CAE4E754B3BEE5C474DD341069F3D798 LOG2 PUSH5 0x736F6C6343 STOP MOD 0xC STOP CALLER "
				},
				"gasEstimates": {
					"creation": {
						"codeDepositCost": "2202000",
						"executionCost": "2353",
						"totalCost": "2204353"
					},
					"external": {
						"DEPOSIT_CANCEL_DELAY()": "251",
						"FREEZE_GRACE_PERIOD()": "229",
						"MAIN_GOVERNANCE_INFO_TAG()": "infinite",
						"MAX_FORCED_ACTIONS_REQS_PER_BLOCK()": "271",
						"MAX_VERIFIER_COUNT()": "293",
						"UNFREEZE_DELAY()": "250",
						"VERIFIER_REMOVAL_DELAY()": "322",
						"announceAvailabilityVerifierRemovalIntent(address)": "infinite",
						"announceVerifierRemovalIntent(address)": "infinite",
						"getRegisteredAvailabilityVerifiers()": "infinite",
						"getRegisteredVerifiers()": "infinite",
						"identify()": "infinite",
						"initialize(bytes)": "534",
						"initializerSize()": "273",
						"isAvailabilityVerifier(address)": "infinite",
						"isFrozen()": "1239",
						"isVerifier(address)": "infinite",
						"mainAcceptGovernance()": "infinite",
						"mainCancelNomination()": "infinite",
						"mainIsGovernor(address)": "infinite",
						"mainNominateNewGovernor(address)": "infinite",
						"mainRemoveGovernor(address)": "infinite",
						"registerAvailabilityVerifier(address,string)": "infinite",
						"registerVerifier(address,string)": "infinite",
						"removeAvailabilityVerifier(address)": "infinite",
						"removeVerifier(address)": "infinite",
						"unFreeze()": "infinite"
					}
				},
				"methodIdentifiers": {
					"DEPOSIT_CANCEL_DELAY()": "77e84e0d",
					"FREEZE_GRACE_PERIOD()": "00717542",
					"MAIN_GOVERNANCE_INFO_TAG()": "c23b60ef",
					"MAX_FORCED_ACTIONS_REQS_PER_BLOCK()": "e30a5cff",
					"MAX_VERIFIER_COUNT()": "e6de6282",
					"UNFREEZE_DELAY()": "993f3639",
					"VERIFIER_REMOVAL_DELAY()": "b7663112",
					"announceAvailabilityVerifierRemovalIntent(address)": "1d078bbb",
					"announceVerifierRemovalIntent(address)": "418573b7",
					"getRegisteredAvailabilityVerifiers()": "1ac347f2",
					"getRegisteredVerifiers()": "4eab9ed3",
					"identify()": "eeb72866",
					"initialize(bytes)": "439fab91",
					"initializerSize()": "3cc660ad",
					"isAvailabilityVerifier(address)": "bd1279ae",
					"isFrozen()": "33eeb147",
					"isVerifier(address)": "33105218",
					"mainAcceptGovernance()": "28700a15",
					"mainCancelNomination()": "72eb3688",
					"mainIsGovernor(address)": "45f5cd97",
					"mainNominateNewGovernor(address)": "8c4bce1c",
					"mainRemoveGovernor(address)": "a1cc921e",
					"registerAvailabilityVerifier(address,string)": "bdb75785",
					"registerVerifier(address,string)": "3776fe2a",
					"removeAvailabilityVerifier(address)": "b1e640bf",
					"removeVerifier(address)": "ca2dfd0a",
					"unFreeze()": "7cf12b90"
				}
			},
			"userdoc": {
				"kind": "user",
				"methods": {},
				"version": 1
			}
		}
	}
}