{
	"scalable-dex/contracts/src/starkex/toplevel_subcontracts/OnchainVaults.sol": {
		"OnchainVaults": {
			"abi": [
				{
					"anonymous": false,
					"inputs": [
						{
							"indexed": false,
							"internalType": "uint256",
							"name": "newDefaultLockTime",
							"type": "uint256"
						}
					],
					"name": "LogDefaultVaultWithdrawalLockSet",
					"type": "event"
				},
				{
					"anonymous": false,
					"inputs": [
						{
							"indexed": false,
							"internalType": "address",
							"name": "ethKey",
							"type": "address"
						},
						{
							"indexed": false,
							"internalType": "uint256",
							"name": "assetId",
							"type": "uint256"
						},
						{
							"indexed": false,
							"internalType": "uint256",
							"name": "vaultId",
							"type": "uint256"
						},
						{
							"indexed": false,
							"internalType": "uint256",
							"name": "nonQuantizedAmount",
							"type": "uint256"
						},
						{
							"indexed": false,
							"internalType": "uint256",
							"name": "quantizedAmount",
							"type": "uint256"
						}
					],
					"name": "LogDepositToVault",
					"type": "event"
				},
				{
					"anonymous": false,
					"inputs": [
						{
							"indexed": false,
							"internalType": "address",
							"name": "acceptedGovernor",
							"type": "address"
						}
					],
					"name": "LogNewGovernorAccepted",
					"type": "event"
				},
				{
					"anonymous": false,
					"inputs": [
						{
							"indexed": false,
							"internalType": "address",
							"name": "nominatedGovernor",
							"type": "address"
						}
					],
					"name": "LogNominatedGovernor",
					"type": "event"
				},
				{
					"anonymous": false,
					"inputs": [],
					"name": "LogNominationCancelled",
					"type": "event"
				},
				{
					"anonymous": false,
					"inputs": [
						{
							"indexed": false,
							"internalType": "address",
							"name": "removedGovernor",
							"type": "address"
						}
					],
					"name": "LogRemovedGovernor",
					"type": "event"
				},
				{
					"anonymous": false,
					"inputs": [
						{
							"indexed": false,
							"internalType": "address",
							"name": "ethKey",
							"type": "address"
						},
						{
							"indexed": false,
							"internalType": "uint256",
							"name": "assetId",
							"type": "uint256"
						},
						{
							"indexed": false,
							"internalType": "uint256",
							"name": "vaultId",
							"type": "uint256"
						},
						{
							"indexed": false,
							"internalType": "uint256",
							"name": "timeRelease",
							"type": "uint256"
						}
					],
					"name": "LogVaultWithdrawalLockSet",
					"type": "event"
				},
				{
					"anonymous": false,
					"inputs": [
						{
							"indexed": false,
							"internalType": "address",
							"name": "ethKey",
							"type": "address"
						},
						{
							"indexed": false,
							"internalType": "uint256",
							"name": "assetId",
							"type": "uint256"
						},
						{
							"indexed": false,
							"internalType": "uint256",
							"name": "vaultId",
							"type": "uint256"
						},
						{
							"indexed": false,
							"internalType": "uint256",
							"name": "nonQuantizedAmount",
							"type": "uint256"
						},
						{
							"indexed": false,
							"internalType": "uint256",
							"name": "quantizedAmount",
							"type": "uint256"
						}
					],
					"name": "LogWithdrawalFromVault",
					"type": "event"
				},
				{
					"inputs": [],
					"name": "DEPOSIT_CANCEL_DELAY",
					"outputs": [
						{
							"internalType": "uint256",
							"name": "",
							"type": "uint256"
						}
					],
					"stateMutability": "view",
					"type": "function"
				},
				{
					"inputs": [],
					"name": "FREEZE_GRACE_PERIOD",
					"outputs": [
						{
							"internalType": "uint256",
							"name": "",
							"type": "uint256"
						}
					],
					"stateMutability": "view",
					"type": "function"
				},
				{
					"inputs": [],
					"name": "MAIN_GOVERNANCE_INFO_TAG",
					"outputs": [
						{
							"internalType": "string",
							"name": "",
							"type": "string"
						}
					],
					"stateMutability": "view",
					"type": "function"
				},
				{
					"inputs": [],
					"name": "MAX_FORCED_ACTIONS_REQS_PER_BLOCK",
					"outputs": [
						{
							"internalType": "uint256",
							"name": "",
							"type": "uint256"
						}
					],
					"stateMutability": "view",
					"type": "function"
				},
				{
					"inputs": [],
					"name": "MAX_VERIFIER_COUNT",
					"outputs": [
						{
							"internalType": "uint256",
							"name": "",
							"type": "uint256"
						}
					],
					"stateMutability": "view",
					"type": "function"
				},
				{
					"inputs": [],
					"name": "STARKEX_MAX_DEFAULT_VAULT_LOCK",
					"outputs": [
						{
							"internalType": "uint256",
							"name": "",
							"type": "uint256"
						}
					],
					"stateMutability": "view",
					"type": "function"
				},
				{
					"inputs": [],
					"name": "UNFREEZE_DELAY",
					"outputs": [
						{
							"internalType": "uint256",
							"name": "",
							"type": "uint256"
						}
					],
					"stateMutability": "view",
					"type": "function"
				},
				{
					"inputs": [],
					"name": "VERIFIER_REMOVAL_DELAY",
					"outputs": [
						{
							"internalType": "uint256",
							"name": "",
							"type": "uint256"
						}
					],
					"stateMutability": "view",
					"type": "function"
				},
				{
					"inputs": [],
					"name": "defaultVaultWithdrawalLock",
					"outputs": [
						{
							"internalType": "uint256",
							"name": "",
							"type": "uint256"
						}
					],
					"stateMutability": "view",
					"type": "function"
				},
				{
					"inputs": [
						{
							"internalType": "uint256",
							"name": "assetId",
							"type": "uint256"
						},
						{
							"internalType": "uint256",
							"name": "vaultId",
							"type": "uint256"
						},
						{
							"internalType": "uint256",
							"name": "quantizedAmount",
							"type": "uint256"
						}
					],
					"name": "depositERC20ToVault",
					"outputs": [],
					"stateMutability": "nonpayable",
					"type": "function"
				},
				{
					"inputs": [
						{
							"internalType": "uint256",
							"name": "assetId",
							"type": "uint256"
						},
						{
							"internalType": "uint256",
							"name": "vaultId",
							"type": "uint256"
						}
					],
					"name": "depositEthToVault",
					"outputs": [],
					"stateMutability": "payable",
					"type": "function"
				},
				{
					"inputs": [
						{
							"internalType": "uint256",
							"name": "assetType",
							"type": "uint256"
						}
					],
					"name": "getAssetInfo",
					"outputs": [
						{
							"internalType": "bytes",
							"name": "assetInfo",
							"type": "bytes"
						}
					],
					"stateMutability": "view",
					"type": "function"
				},
				{
					"inputs": [
						{
							"internalType": "address",
							"name": "ethKey",
							"type": "address"
						},
						{
							"internalType": "uint256",
							"name": "assetId",
							"type": "uint256"
						},
						{
							"internalType": "uint256",
							"name": "vaultId",
							"type": "uint256"
						}
					],
					"name": "getQuantizedVaultBalance",
					"outputs": [
						{
							"internalType": "uint256",
							"name": "",
							"type": "uint256"
						}
					],
					"stateMutability": "view",
					"type": "function"
				},
				{
					"inputs": [
						{
							"internalType": "uint256",
							"name": "presumedAssetType",
							"type": "uint256"
						}
					],
					"name": "getQuantum",
					"outputs": [
						{
							"internalType": "uint256",
							"name": "quantum",
							"type": "uint256"
						}
					],
					"stateMutability": "view",
					"type": "function"
				},
				{
					"inputs": [
						{
							"internalType": "address",
							"name": "ethKey",
							"type": "address"
						},
						{
							"internalType": "uint256",
							"name": "assetId",
							"type": "uint256"
						},
						{
							"internalType": "uint256",
							"name": "vaultId",
							"type": "uint256"
						}
					],
					"name": "getVaultBalance",
					"outputs": [
						{
							"internalType": "uint256",
							"name": "",
							"type": "uint256"
						}
					],
					"stateMutability": "view",
					"type": "function"
				},
				{
					"inputs": [
						{
							"internalType": "address",
							"name": "ethKey",
							"type": "address"
						},
						{
							"internalType": "uint256",
							"name": "assetId",
							"type": "uint256"
						},
						{
							"internalType": "uint256",
							"name": "vaultId",
							"type": "uint256"
						}
					],
					"name": "getVaultWithdrawalLock",
					"outputs": [
						{
							"internalType": "uint256",
							"name": "",
							"type": "uint256"
						}
					],
					"stateMutability": "view",
					"type": "function"
				},
				{
					"inputs": [],
					"name": "identify",
					"outputs": [
						{
							"internalType": "string",
							"name": "",
							"type": "string"
						}
					],
					"stateMutability": "pure",
					"type": "function"
				},
				{
					"inputs": [
						{
							"internalType": "bytes",
							"name": "",
							"type": "bytes"
						}
					],
					"name": "initialize",
					"outputs": [],
					"stateMutability": "nonpayable",
					"type": "function"
				},
				{
					"inputs": [],
					"name": "initializerSize",
					"outputs": [
						{
							"internalType": "uint256",
							"name": "",
							"type": "uint256"
						}
					],
					"stateMutability": "view",
					"type": "function"
				},
				{
					"inputs": [],
					"name": "isStrictVaultBalancePolicy",
					"outputs": [
						{
							"internalType": "bool",
							"name": "",
							"type": "bool"
						}
					],
					"stateMutability": "view",
					"type": "function"
				},
				{
					"inputs": [
						{
							"internalType": "address",
							"name": "ethKey",
							"type": "address"
						},
						{
							"internalType": "uint256",
							"name": "assetId",
							"type": "uint256"
						},
						{
							"internalType": "uint256",
							"name": "vaultId",
							"type": "uint256"
						}
					],
					"name": "isVaultLocked",
					"outputs": [
						{
							"internalType": "bool",
							"name": "",
							"type": "bool"
						}
					],
					"stateMutability": "view",
					"type": "function"
				},
				{
					"inputs": [
						{
							"internalType": "uint256",
							"name": "assetId",
							"type": "uint256"
						},
						{
							"internalType": "uint256",
							"name": "vaultId",
							"type": "uint256"
						},
						{
							"internalType": "uint256",
							"name": "lockTime",
							"type": "uint256"
						}
					],
					"name": "lockVault",
					"outputs": [],
					"stateMutability": "nonpayable",
					"type": "function"
				},
				{
					"inputs": [],
					"name": "mainAcceptGovernance",
					"outputs": [],
					"stateMutability": "nonpayable",
					"type": "function"
				},
				{
					"inputs": [],
					"name": "mainCancelNomination",
					"outputs": [],
					"stateMutability": "nonpayable",
					"type": "function"
				},
				{
					"inputs": [
						{
							"internalType": "address",
							"name": "testGovernor",
							"type": "address"
						}
					],
					"name": "mainIsGovernor",
					"outputs": [
						{
							"internalType": "bool",
							"name": "",
							"type": "bool"
						}
					],
					"stateMutability": "view",
					"type": "function"
				},
				{
					"inputs": [
						{
							"internalType": "address",
							"name": "newGovernor",
							"type": "address"
						}
					],
					"name": "mainNominateNewGovernor",
					"outputs": [],
					"stateMutability": "nonpayable",
					"type": "function"
				},
				{
					"inputs": [
						{
							"internalType": "address",
							"name": "governorForRemoval",
							"type": "address"
						}
					],
					"name": "mainRemoveGovernor",
					"outputs": [],
					"stateMutability": "nonpayable",
					"type": "function"
				},
				{
					"inputs": [],
					"name": "orderRegistryAddress",
					"outputs": [
						{
							"internalType": "address",
							"name": "",
							"type": "address"
						}
					],
					"stateMutability": "view",
					"type": "function"
				},
				{
					"inputs": [
						{
							"internalType": "uint256",
							"name": "newDefaultTime",
							"type": "uint256"
						}
					],
					"name": "setDefaultVaultWithdrawalLock",
					"outputs": [],
					"stateMutability": "nonpayable",
					"type": "function"
				},
				{
					"inputs": [
						{
							"internalType": "uint256",
							"name": "assetId",
							"type": "uint256"
						},
						{
							"internalType": "uint256",
							"name": "vaultId",
							"type": "uint256"
						},
						{
							"internalType": "uint256",
							"name": "quantizedAmount",
							"type": "uint256"
						}
					],
					"name": "withdrawFromVault",
					"outputs": [],
					"stateMutability": "nonpayable",
					"type": "function"
				}
			],
			"devdoc": {
				"kind": "dev",
				"methods": {},
				"version": 1
			},
			"evm": {
				"assembly": "    /* \"scalable-dex/contracts/src/starkex/toplevel_subcontracts/OnchainVaults.sol\":393:1017  contract OnchainVaults is... */\n  mstore(0x40, 0x80)\n  callvalue\n  dup1\n  iszero\n  tag_1\n  jumpi\n  0x00\n  dup1\n  revert\ntag_1:\n  pop\n  dataSize(sub_0)\n  dup1\n  dataOffset(sub_0)\n  0x00\n  codecopy\n  0x00\n  return\nstop\n\nsub_0: assembly {\n        /* \"scalable-dex/contracts/src/starkex/toplevel_subcontracts/OnchainVaults.sol\":393:1017  contract OnchainVaults is... */\n      mstore(0x40, 0x80)\n      jumpi(tag_1, lt(calldatasize, 0x04))\n      shr(0xe0, calldataload(0x00))\n      dup1\n      0x9de5c4e5\n      gt\n      tag_32\n      jumpi\n      dup1\n      0xd4181dea\n      gt\n      tag_33\n      jumpi\n      dup1\n      0xe6de6282\n      gt\n      tag_34\n      jumpi\n      dup1\n      0xe6de6282\n      eq\n      tag_28\n      jumpi\n      dup1\n      0xe8d28a9d\n      eq\n      tag_29\n      jumpi\n      dup1\n      0xeeb72866\n      eq\n      tag_30\n      jumpi\n      dup1\n      0xf637d950\n      eq\n      tag_31\n      jumpi\n      jump(tag_1)\n    tag_34:\n      dup1\n      0xd4181dea\n      eq\n      tag_24\n      jumpi\n      dup1\n      0xdd7202d8\n      eq\n      tag_25\n      jumpi\n      dup1\n      0xe30a5cff\n      eq\n      tag_26\n      jumpi\n      dup1\n      0xe69a9de7\n      eq\n      tag_27\n      jumpi\n      jump(tag_1)\n    tag_33:\n      dup1\n      0xa45d7841\n      gt\n      tag_35\n      jumpi\n      dup1\n      0xa45d7841\n      eq\n      tag_20\n      jumpi\n      dup1\n      0xb7663112\n      eq\n      tag_21\n      jumpi\n      dup1\n      0xbf422b2e\n      eq\n      tag_22\n      jumpi\n      dup1\n      0xc23b60ef\n      eq\n      tag_23\n      jumpi\n      jump(tag_1)\n    tag_35:\n      dup1\n      0x9de5c4e5\n      eq\n      tag_17\n      jumpi\n      dup1\n      0xa1cc921e\n      eq\n      tag_18\n      jumpi\n      dup1\n      0xa3c71fde\n      eq\n      tag_19\n      jumpi\n      jump(tag_1)\n    tag_32:\n      dup1\n      0x45f5cd97\n      gt\n      tag_36\n      jumpi\n      dup1\n      0x835a71c3\n      gt\n      tag_37\n      jumpi\n      dup1\n      0x835a71c3\n      eq\n      tag_13\n      jumpi\n      dup1\n      0x8c4bce1c\n      eq\n      tag_14\n      jumpi\n      dup1\n      0x993f3639\n      eq\n      tag_15\n      jumpi\n      dup1\n      0x9c6a2837\n      eq\n      tag_16\n      jumpi\n      jump(tag_1)\n    tag_37:\n      dup1\n      0x45f5cd97\n      eq\n      tag_9\n      jumpi\n      dup1\n      0x5adf1639\n      eq\n      tag_10\n      jumpi\n      dup1\n      0x72eb3688\n      eq\n      tag_11\n      jumpi\n      dup1\n      0x77e84e0d\n      eq\n      tag_12\n      jumpi\n      jump(tag_1)\n    tag_36:\n      dup1\n      0x27c2b36d\n      gt\n      tag_38\n      jumpi\n      dup1\n      0x27c2b36d\n      eq\n      tag_5\n      jumpi\n      dup1\n      0x28700a15\n      eq\n      tag_6\n      jumpi\n      dup1\n      0x3cc660ad\n      eq\n      tag_7\n      jumpi\n      dup1\n      0x439fab91\n      eq\n      tag_8\n      jumpi\n      jump(tag_1)\n    tag_38:\n      dup1\n      0x717542\n      eq\n      tag_2\n      jumpi\n      dup1\n      0x1c6bd544\n      eq\n      tag_3\n      jumpi\n      dup1\n      0x1d133002\n      eq\n      tag_4\n      jumpi\n    tag_1:\n      0x00\n      dup1\n      revert\n        /* \"scalable-dex/contracts/src/libraries/LibConstants.sol\":650:702  uint256 public constant FREEZE_GRACE_PERIOD = 7 days */\n    tag_2:\n      callvalue\n      dup1\n      iszero\n      tag_39\n      jumpi\n      0x00\n      dup1\n      revert\n    tag_39:\n      pop\n      tag_40\n      tag_41\n      jump\t// in\n    tag_40:\n      mload(0x40)\n      dup1\n      dup3\n      dup2\n      mstore\n      0x20\n      add\n      swap2\n      pop\n      pop\n      mload(0x40)\n      dup1\n      swap2\n      sub\n      swap1\n      return\n        /* \"scalable-dex/contracts/src/starkex/components/VaultDepositWithdrawal.sol\":1909:2144  function getVaultBalance(... */\n    tag_3:\n      callvalue\n      dup1\n      iszero\n      tag_42\n      jumpi\n      0x00\n      dup1\n      revert\n    tag_42:\n      pop\n      tag_43\n      0x04\n      dup1\n      calldatasize\n      sub\n      0x60\n      dup2\n      lt\n      iszero\n      tag_44\n      jumpi\n      0x00\n      dup1\n      revert\n    tag_44:\n      dup2\n      add\n      swap1\n      dup1\n      dup1\n      calldataload\n      0xffffffffffffffffffffffffffffffffffffffff\n      and\n      swap1\n      0x20\n      add\n      swap1\n      swap3\n      swap2\n      swap1\n      dup1\n      calldataload\n      swap1\n      0x20\n      add\n      swap1\n      swap3\n      swap2\n      swap1\n      dup1\n      calldataload\n      swap1\n      0x20\n      add\n      swap1\n      swap3\n      swap2\n      swap1\n      pop\n      pop\n      pop\n      tag_45\n      jump\t// in\n    tag_43:\n      mload(0x40)\n      dup1\n      dup3\n      dup2\n      mstore\n      0x20\n      add\n      swap2\n      pop\n      pop\n      mload(0x40)\n      dup1\n      swap2\n      sub\n      swap1\n      return\n        /* \"scalable-dex/contracts/src/starkex/components/VaultDepositWithdrawal.sol\":2461:2728  function depositERC20ToVault(... */\n    tag_4:\n      callvalue\n      dup1\n      iszero\n      tag_46\n      jumpi\n      0x00\n      dup1\n      revert\n    tag_46:\n      pop\n      tag_47\n      0x04\n      dup1\n      calldatasize\n      sub\n      0x60\n      dup2\n      lt\n      iszero\n      tag_48\n      jumpi\n      0x00\n      dup1\n      revert\n    tag_48:\n      dup2\n      add\n      swap1\n      dup1\n      dup1\n      calldataload\n      swap1\n      0x20\n      add\n      swap1\n      swap3\n      swap2\n      swap1\n      dup1\n      calldataload\n      swap1\n      0x20\n      add\n      swap1\n      swap3\n      swap2\n      swap1\n      dup1\n      calldataload\n      swap1\n      0x20\n      add\n      swap1\n      swap3\n      swap2\n      swap1\n      pop\n      pop\n      pop\n      tag_49\n      jump\t// in\n    tag_47:\n      stop\n        /* \"scalable-dex/contracts/src/starkex/components/VaultLocks.sol\":2072:2346  function isVaultLocked(... */\n    tag_5:\n      callvalue\n      dup1\n      iszero\n      tag_50\n      jumpi\n      0x00\n      dup1\n      revert\n    tag_50:\n      pop\n      tag_51\n      0x04\n      dup1\n      calldatasize\n      sub\n      0x60\n      dup2\n      lt\n      iszero\n      tag_52\n      jumpi\n      0x00\n      dup1\n      revert\n    tag_52:\n      dup2\n      add\n      swap1\n      dup1\n      dup1\n      calldataload\n      0xffffffffffffffffffffffffffffffffffffffff\n      and\n      swap1\n      0x20\n      add\n      swap1\n      swap3\n      swap2\n      swap1\n      dup1\n      calldataload\n      swap1\n      0x20\n      add\n      swap1\n      swap3\n      swap2\n      swap1\n      dup1\n      calldataload\n      swap1\n      0x20\n      add\n      swap1\n      swap3\n      swap2\n      swap1\n      pop\n      pop\n      pop\n      tag_53\n      jump\t// in\n    tag_51:\n      mload(0x40)\n      dup1\n      dup3\n      iszero\n      iszero\n      dup2\n      mstore\n      0x20\n      add\n      swap2\n      pop\n      pop\n      mload(0x40)\n      dup1\n      swap2\n      sub\n      swap1\n      return\n        /* \"scalable-dex/contracts/src/components/MainGovernance.sol\":2328:2404  function mainAcceptGovernance() external {... */\n    tag_6:\n      callvalue\n      dup1\n      iszero\n      tag_54\n      jumpi\n      0x00\n      dup1\n      revert\n    tag_54:\n      pop\n      tag_55\n      tag_56\n      jump\t// in\n    tag_55:\n      stop\n        /* \"scalable-dex/contracts/src/starkex/toplevel_subcontracts/OnchainVaults.sol\":801:894  function initializerSize() external view override returns (uint256) {... */\n    tag_7:\n      callvalue\n      dup1\n      iszero\n      tag_57\n      jumpi\n      0x00\n      dup1\n      revert\n    tag_57:\n      pop\n      tag_58\n      tag_59\n      jump\t// in\n    tag_58:\n      mload(0x40)\n      dup1\n      dup3\n      dup2\n      mstore\n      0x20\n      add\n      swap2\n      pop\n      pop\n      mload(0x40)\n      dup1\n      swap2\n      sub\n      swap1\n      return\n        /* \"scalable-dex/contracts/src/starkex/toplevel_subcontracts/OnchainVaults.sol\":699:795  function initialize(bytes calldata) external override {... */\n    tag_8:\n      callvalue\n      dup1\n      iszero\n      tag_60\n      jumpi\n      0x00\n      dup1\n      revert\n    tag_60:\n      pop\n      tag_61\n      0x04\n      dup1\n      calldatasize\n      sub\n      0x20\n      dup2\n      lt\n      iszero\n      tag_62\n      jumpi\n      0x00\n      dup1\n      revert\n    tag_62:\n      dup2\n      add\n      swap1\n      dup1\n      dup1\n      calldataload\n      swap1\n      0x20\n      add\n      swap1\n      0x0100000000\n      dup2\n      gt\n      iszero\n      tag_63\n      jumpi\n      0x00\n      dup1\n      revert\n    tag_63:\n      dup3\n      add\n      dup4\n      0x20\n      dup3\n      add\n      gt\n      iszero\n      tag_64\n      jumpi\n      0x00\n      dup1\n      revert\n    tag_64:\n      dup1\n      calldataload\n      swap1\n      0x20\n      add\n      swap2\n      dup5\n      0x01\n      dup4\n      mul\n      dup5\n      add\n      gt\n      0x0100000000\n      dup4\n      gt\n      or\n      iszero\n      tag_65\n      jumpi\n      0x00\n      dup1\n      revert\n    tag_65:\n      swap1\n      swap2\n      swap3\n      swap4\n      swap2\n      swap3\n      swap4\n      swap1\n      pop\n      pop\n      pop\n      tag_66\n      jump\t// in\n    tag_61:\n      stop\n        /* \"scalable-dex/contracts/src/components/MainGovernance.sol\":1959:2082  function mainIsGovernor(address testGovernor) external view returns (bool) {... */\n    tag_9:\n      callvalue\n      dup1\n      iszero\n      tag_67\n      jumpi\n      0x00\n      dup1\n      revert\n    tag_67:\n      pop\n      tag_68\n      0x04\n      dup1\n      calldatasize\n      sub\n      0x20\n      dup2\n      lt\n      iszero\n      tag_69\n      jumpi\n      0x00\n      dup1\n      revert\n    tag_69:\n      dup2\n      add\n      swap1\n      dup1\n      dup1\n      calldataload\n      0xffffffffffffffffffffffffffffffffffffffff\n      and\n      swap1\n      0x20\n      add\n      swap1\n      swap3\n      swap2\n      swap1\n      pop\n      pop\n      pop\n      tag_70\n      jump\t// in\n    tag_68:\n      mload(0x40)\n      dup1\n      dup3\n      iszero\n      iszero\n      dup2\n      mstore\n      0x20\n      add\n      swap2\n      pop\n      pop\n      mload(0x40)\n      dup1\n      swap2\n      sub\n      swap1\n      return\n        /* \"scalable-dex/contracts/src/starkex/toplevel_subcontracts/OnchainVaults.sol\":900:1015  function isStrictVaultBalancePolicy() external view returns (bool) {... */\n    tag_10:\n      callvalue\n      dup1\n      iszero\n      tag_71\n      jumpi\n      0x00\n      dup1\n      revert\n    tag_71:\n      pop\n      tag_72\n      tag_73\n      jump\t// in\n    tag_72:\n      mload(0x40)\n      dup1\n      dup3\n      iszero\n      iszero\n      dup2\n      mstore\n      0x20\n      add\n      swap2\n      pop\n      pop\n      mload(0x40)\n      dup1\n      swap2\n      sub\n      swap1\n      return\n        /* \"scalable-dex/contracts/src/components/MainGovernance.sol\":2410:2486  function mainCancelNomination() external {... */\n    tag_11:\n      callvalue\n      dup1\n      iszero\n      tag_74\n      jumpi\n      0x00\n      dup1\n      revert\n    tag_74:\n      pop\n      tag_75\n      tag_76\n      jump\t// in\n    tag_75:\n      stop\n        /* \"scalable-dex/contracts/src/libraries/LibConstants.sol\":463:516  uint256 public constant DEPOSIT_CANCEL_DELAY = 2 days */\n    tag_12:\n      callvalue\n      dup1\n      iszero\n      tag_77\n      jumpi\n      0x00\n      dup1\n      revert\n    tag_77:\n      pop\n      tag_78\n      tag_79\n      jump\t// in\n    tag_78:\n      mload(0x40)\n      dup1\n      dup3\n      dup2\n      mstore\n      0x20\n      add\n      swap2\n      pop\n      pop\n      mload(0x40)\n      dup1\n      swap2\n      sub\n      swap1\n      return\n        /* \"scalable-dex/contracts/src/starkex/StarkExConstants.sol\":275:338  uint256 public constant STARKEX_MAX_DEFAULT_VAULT_LOCK = 7 days */\n    tag_13:\n      callvalue\n      dup1\n      iszero\n      tag_80\n      jumpi\n      0x00\n      dup1\n      revert\n    tag_80:\n      pop\n      tag_81\n      tag_82\n      jump\t// in\n    tag_81:\n      mload(0x40)\n      dup1\n      dup3\n      dup2\n      mstore\n      0x20\n      add\n      swap2\n      pop\n      pop\n      mload(0x40)\n      dup1\n      swap2\n      sub\n      swap1\n      return\n        /* \"scalable-dex/contracts/src/components/MainGovernance.sol\":2088:2200  function mainNominateNewGovernor(address newGovernor) external {... */\n    tag_14:\n      callvalue\n      dup1\n      iszero\n      tag_83\n      jumpi\n      0x00\n      dup1\n      revert\n    tag_83:\n      pop\n      tag_84\n      0x04\n      dup1\n      calldatasize\n      sub\n      0x20\n      dup2\n      lt\n      iszero\n      tag_85\n      jumpi\n      0x00\n      dup1\n      revert\n    tag_85:\n      dup2\n      add\n      swap1\n      dup1\n      dup1\n      calldataload\n      0xffffffffffffffffffffffffffffffffffffffff\n      and\n      swap1\n      0x20\n      add\n      swap1\n      swap3\n      swap2\n      swap1\n      pop\n      pop\n      pop\n      tag_86\n      jump\t// in\n    tag_84:\n      stop\n        /* \"scalable-dex/contracts/src/libraries/LibConstants.sol\":877:926  uint256 public constant UNFREEZE_DELAY = 365 days */\n    tag_15:\n      callvalue\n      dup1\n      iszero\n      tag_87\n      jumpi\n      0x00\n      dup1\n      revert\n    tag_87:\n      pop\n      tag_88\n      tag_89\n      jump\t// in\n    tag_88:\n      mload(0x40)\n      dup1\n      dup3\n      dup2\n      mstore\n      0x20\n      add\n      swap2\n      pop\n      pop\n      mload(0x40)\n      dup1\n      swap2\n      sub\n      swap1\n      return\n        /* \"scalable-dex/contracts/src/starkex/components/StarkExStorage.sol\":1285:1320  address public orderRegistryAddress */\n    tag_16:\n      callvalue\n      dup1\n      iszero\n      tag_90\n      jumpi\n      0x00\n      dup1\n      revert\n    tag_90:\n      pop\n      tag_91\n      tag_92\n      jump\t// in\n    tag_91:\n      mload(0x40)\n      dup1\n      dup3\n      0xffffffffffffffffffffffffffffffffffffffff\n      and\n      dup2\n      mstore\n      0x20\n      add\n      swap2\n      pop\n      pop\n      mload(0x40)\n      dup1\n      swap2\n      sub\n      swap1\n      return\n        /* \"scalable-dex/contracts/src/starkex/components/VaultLocks.sol\":1009:1222  function getVaultWithdrawalLock(... */\n    tag_17:\n      callvalue\n      dup1\n      iszero\n      tag_93\n      jumpi\n      0x00\n      dup1\n      revert\n    tag_93:\n      pop\n      tag_94\n      0x04\n      dup1\n      calldatasize\n      sub\n      0x60\n      dup2\n      lt\n      iszero\n      tag_95\n      jumpi\n      0x00\n      dup1\n      revert\n    tag_95:\n      dup2\n      add\n      swap1\n      dup1\n      dup1\n      calldataload\n      0xffffffffffffffffffffffffffffffffffffffff\n      and\n      swap1\n      0x20\n      add\n      swap1\n      swap3\n      swap2\n      swap1\n      dup1\n      calldataload\n      swap1\n      0x20\n      add\n      swap1\n      swap3\n      swap2\n      swap1\n      dup1\n      calldataload\n      swap1\n      0x20\n      add\n      swap1\n      swap3\n      swap2\n      swap1\n      pop\n      pop\n      pop\n      tag_96\n      jump\t// in\n    tag_94:\n      mload(0x40)\n      dup1\n      dup3\n      dup2\n      mstore\n      0x20\n      add\n      swap2\n      pop\n      pop\n      mload(0x40)\n      dup1\n      swap2\n      sub\n      swap1\n      return\n        /* \"scalable-dex/contracts/src/components/MainGovernance.sol\":2206:2322  function mainRemoveGovernor(address governorForRemoval) external {... */\n    tag_18:\n      callvalue\n      dup1\n      iszero\n      tag_97\n      jumpi\n      0x00\n      dup1\n      revert\n    tag_97:\n      pop\n      tag_98\n      0x04\n      dup1\n      calldatasize\n      sub\n      0x20\n      dup2\n      lt\n      iszero\n      tag_99\n      jumpi\n      0x00\n      dup1\n      revert\n    tag_99:\n      dup2\n      add\n      swap1\n      dup1\n      dup1\n      calldataload\n      0xffffffffffffffffffffffffffffffffffffffff\n      and\n      swap1\n      0x20\n      add\n      swap1\n      swap3\n      swap2\n      swap1\n      pop\n      pop\n      pop\n      tag_100\n      jump\t// in\n    tag_98:\n      stop\n        /* \"scalable-dex/contracts/src/starkex/components/VaultDepositWithdrawal.sol\":2187:2455  function depositEthToVault(uint256 assetId, uint256 vaultId) external payable {... */\n    tag_19:\n      tag_101\n      0x04\n      dup1\n      calldatasize\n      sub\n      0x40\n      dup2\n      lt\n      iszero\n      tag_102\n      jumpi\n      0x00\n      dup1\n      revert\n    tag_102:\n      dup2\n      add\n      swap1\n      dup1\n      dup1\n      calldataload\n      swap1\n      0x20\n      add\n      swap1\n      swap3\n      swap2\n      swap1\n      dup1\n      calldataload\n      swap1\n      0x20\n      add\n      swap1\n      swap3\n      swap2\n      swap1\n      pop\n      pop\n      pop\n      tag_103\n      jump\t// in\n    tag_101:\n      stop\n        /* \"scalable-dex/contracts/src/starkex/components/StarkExStorage.sol\":1117:1158  uint256 public defaultVaultWithdrawalLock */\n    tag_20:\n      callvalue\n      dup1\n      iszero\n      tag_104\n      jumpi\n      0x00\n      dup1\n      revert\n    tag_104:\n      pop\n      tag_105\n      tag_106\n      jump\t// in\n    tag_105:\n      mload(0x40)\n      dup1\n      dup3\n      dup2\n      mstore\n      0x20\n      add\n      swap2\n      pop\n      pop\n      mload(0x40)\n      dup1\n      swap2\n      sub\n      swap1\n      return\n        /* \"scalable-dex/contracts/src/libraries/LibConstants.sol\":1128:1208  uint256 public constant VERIFIER_REMOVAL_DELAY = FREEZE_GRACE_PERIOD + (21 days) */\n    tag_21:\n      callvalue\n      dup1\n      iszero\n      tag_107\n      jumpi\n      0x00\n      dup1\n      revert\n    tag_107:\n      pop\n      tag_108\n      tag_109\n      jump\t// in\n    tag_108:\n      mload(0x40)\n      dup1\n      dup3\n      dup2\n      mstore\n      0x20\n      add\n      swap2\n      pop\n      pop\n      mload(0x40)\n      dup1\n      swap2\n      sub\n      swap1\n      return\n        /* \"scalable-dex/contracts/src/starkex/components/VaultDepositWithdrawal.sol\":2734:3784  function withdrawFromVault(... */\n    tag_22:\n      callvalue\n      dup1\n      iszero\n      tag_110\n      jumpi\n      0x00\n      dup1\n      revert\n    tag_110:\n      pop\n      tag_111\n      0x04\n      dup1\n      calldatasize\n      sub\n      0x60\n      dup2\n      lt\n      iszero\n      tag_112\n      jumpi\n      0x00\n      dup1\n      revert\n    tag_112:\n      dup2\n      add\n      swap1\n      dup1\n      dup1\n      calldataload\n      swap1\n      0x20\n      add\n      swap1\n      swap3\n      swap2\n      swap1\n      dup1\n      calldataload\n      swap1\n      0x20\n      add\n      swap1\n      swap3\n      swap2\n      swap1\n      dup1\n      calldataload\n      swap1\n      0x20\n      add\n      swap1\n      swap3\n      swap2\n      swap1\n      pop\n      pop\n      pop\n      tag_113\n      jump\t// in\n    tag_111:\n      stop\n        /* \"scalable-dex/contracts/src/components/MainGovernance.sol\":1730:1820  string public constant MAIN_GOVERNANCE_INFO_TAG = \"StarkEx.Main.2019.GovernorsInformation\" */\n    tag_23:\n      callvalue\n      dup1\n      iszero\n      tag_114\n      jumpi\n      0x00\n      dup1\n      revert\n    tag_114:\n      pop\n      tag_115\n      tag_116\n      jump\t// in\n    tag_115:\n      mload(0x40)\n      dup1\n      dup1\n      0x20\n      add\n      dup3\n      dup2\n      sub\n      dup3\n      mstore\n      dup4\n      dup2\n      dup2\n      mload\n      dup2\n      mstore\n      0x20\n      add\n      swap2\n      pop\n      dup1\n      mload\n      swap1\n      0x20\n      add\n      swap1\n      dup1\n      dup4\n      dup4\n      0x00\n    tag_117:\n      dup4\n      dup2\n      lt\n      iszero\n      tag_119\n      jumpi\n      dup1\n      dup3\n      add\n      mload\n      dup2\n      dup5\n      add\n      mstore\n      0x20\n      dup2\n      add\n      swap1\n      pop\n      jump(tag_117)\n    tag_119:\n      pop\n      pop\n      pop\n      pop\n      swap1\n      pop\n      swap1\n      dup2\n      add\n      swap1\n      0x1f\n      and\n      dup1\n      iszero\n      tag_120\n      jumpi\n      dup1\n      dup3\n      sub\n      dup1\n      mload\n      0x01\n      dup4\n      0x20\n      sub\n      0x0100\n      exp\n      sub\n      not\n      and\n      dup2\n      mstore\n      0x20\n      add\n      swap2\n      pop\n    tag_120:\n      pop\n      swap3\n      pop\n      pop\n      pop\n      mload(0x40)\n      dup1\n      swap2\n      sub\n      swap1\n      return\n        /* \"scalable-dex/contracts/src/starkex/components/VaultLocks.sol\":698:1003  function setDefaultVaultWithdrawalLock(uint256 newDefaultTime) public onlyGovernance {... */\n    tag_24:\n      callvalue\n      dup1\n      iszero\n      tag_121\n      jumpi\n      0x00\n      dup1\n      revert\n    tag_121:\n      pop\n      tag_122\n      0x04\n      dup1\n      calldatasize\n      sub\n      0x20\n      dup2\n      lt\n      iszero\n      tag_123\n      jumpi\n      0x00\n      dup1\n      revert\n    tag_123:\n      dup2\n      add\n      swap1\n      dup1\n      dup1\n      calldataload\n      swap1\n      0x20\n      add\n      swap1\n      swap3\n      swap2\n      swap1\n      pop\n      pop\n      pop\n      tag_124\n      jump\t// in\n    tag_122:\n      stop\n        /* \"scalable-dex/contracts/src/interactions/TokenQuantization.sol\":576:934  function getQuantum(uint256 presumedAssetType) public view override returns (uint256 quantum) {... */\n    tag_25:\n      callvalue\n      dup1\n      iszero\n      tag_125\n      jumpi\n      0x00\n      dup1\n      revert\n    tag_125:\n      pop\n      tag_126\n      0x04\n      dup1\n      calldatasize\n      sub\n      0x20\n      dup2\n      lt\n      iszero\n      tag_127\n      jumpi\n      0x00\n      dup1\n      revert\n    tag_127:\n      dup2\n      add\n      swap1\n      dup1\n      dup1\n      calldataload\n      swap1\n      0x20\n      add\n      swap1\n      swap3\n      swap2\n      swap1\n      pop\n      pop\n      pop\n      tag_128\n      jump\t// in\n    tag_126:\n      mload(0x40)\n      dup1\n      dup3\n      dup2\n      mstore\n      0x20\n      add\n      swap2\n      pop\n      pop\n      mload(0x40)\n      dup1\n      swap2\n      sub\n      swap1\n      return\n        /* \"scalable-dex/contracts/src/libraries/LibConstants.sol\":1696:1758  uint256 public constant MAX_FORCED_ACTIONS_REQS_PER_BLOCK = 10 */\n    tag_26:\n      callvalue\n      dup1\n      iszero\n      tag_129\n      jumpi\n      0x00\n      dup1\n      revert\n    tag_129:\n      pop\n      tag_130\n      tag_131\n      jump\t// in\n    tag_130:\n      mload(0x40)\n      dup1\n      dup3\n      dup2\n      mstore\n      0x20\n      add\n      swap2\n      pop\n      pop\n      mload(0x40)\n      dup1\n      swap2\n      sub\n      swap1\n      return\n        /* \"scalable-dex/contracts/src/starkex/components/VaultDepositWithdrawal.sol\":1695:1903  function getQuantizedVaultBalance(... */\n    tag_27:\n      callvalue\n      dup1\n      iszero\n      tag_132\n      jumpi\n      0x00\n      dup1\n      revert\n    tag_132:\n      pop\n      tag_133\n      0x04\n      dup1\n      calldatasize\n      sub\n      0x60\n      dup2\n      lt\n      iszero\n      tag_134\n      jumpi\n      0x00\n      dup1\n      revert\n    tag_134:\n      dup2\n      add\n      swap1\n      dup1\n      dup1\n      calldataload\n      0xffffffffffffffffffffffffffffffffffffffff\n      and\n      swap1\n      0x20\n      add\n      swap1\n      swap3\n      swap2\n      swap1\n      dup1\n      calldataload\n      swap1\n      0x20\n      add\n      swap1\n      swap3\n      swap2\n      swap1\n      dup1\n      calldataload\n      swap1\n      0x20\n      add\n      swap1\n      swap3\n      swap2\n      swap1\n      pop\n      pop\n      pop\n      tag_135\n      jump\t// in\n    tag_133:\n      mload(0x40)\n      dup1\n      dup3\n      dup2\n      mstore\n      0x20\n      add\n      swap2\n      pop\n      pop\n      mload(0x40)\n      dup1\n      swap2\n      sub\n      swap1\n      return\n        /* \"scalable-dex/contracts/src/libraries/LibConstants.sol\":988:1044  uint256 public constant MAX_VERIFIER_COUNT = uint256(64) */\n    tag_28:\n      callvalue\n      dup1\n      iszero\n      tag_136\n      jumpi\n      0x00\n      dup1\n      revert\n    tag_136:\n      pop\n      tag_137\n      tag_138\n      jump\t// in\n    tag_137:\n      mload(0x40)\n      dup1\n      dup3\n      dup2\n      mstore\n      0x20\n      add\n      swap2\n      pop\n      pop\n      mload(0x40)\n      dup1\n      swap2\n      sub\n      swap1\n      return\n        /* \"scalable-dex/contracts/src/starkex/components/VaultLocks.sol\":1228:1724  function lockVault(... */\n    tag_29:\n      callvalue\n      dup1\n      iszero\n      tag_139\n      jumpi\n      0x00\n      dup1\n      revert\n    tag_139:\n      pop\n      tag_140\n      0x04\n      dup1\n      calldatasize\n      sub\n      0x60\n      dup2\n      lt\n      iszero\n      tag_141\n      jumpi\n      0x00\n      dup1\n      revert\n    tag_141:\n      dup2\n      add\n      swap1\n      dup1\n      dup1\n      calldataload\n      swap1\n      0x20\n      add\n      swap1\n      swap3\n      swap2\n      swap1\n      dup1\n      calldataload\n      swap1\n      0x20\n      add\n      swap1\n      swap3\n      swap2\n      swap1\n      dup1\n      calldataload\n      swap1\n      0x20\n      add\n      swap1\n      swap3\n      swap2\n      swap1\n      pop\n      pop\n      pop\n      tag_142\n      jump\t// in\n    tag_140:\n      stop\n        /* \"scalable-dex/contracts/src/starkex/toplevel_subcontracts/OnchainVaults.sol\":570:693  function identify() external pure override returns (string memory) {... */\n    tag_30:\n      callvalue\n      dup1\n      iszero\n      tag_143\n      jumpi\n      0x00\n      dup1\n      revert\n    tag_143:\n      pop\n      tag_144\n      tag_145\n      jump\t// in\n    tag_144:\n      mload(0x40)\n      dup1\n      dup1\n      0x20\n      add\n      dup3\n      dup2\n      sub\n      dup3\n      mstore\n      dup4\n      dup2\n      dup2\n      mload\n      dup2\n      mstore\n      0x20\n      add\n      swap2\n      pop\n      dup1\n      mload\n      swap1\n      0x20\n      add\n      swap1\n      dup1\n      dup4\n      dup4\n      0x00\n    tag_146:\n      dup4\n      dup2\n      lt\n      iszero\n      tag_148\n      jumpi\n      dup1\n      dup3\n      add\n      mload\n      dup2\n      dup5\n      add\n      mstore\n      0x20\n      dup2\n      add\n      swap1\n      pop\n      jump(tag_146)\n    tag_148:\n      pop\n      pop\n      pop\n      pop\n      swap1\n      pop\n      swap1\n      dup2\n      add\n      swap1\n      0x1f\n      and\n      dup1\n      iszero\n      tag_149\n      jumpi\n      dup1\n      dup3\n      sub\n      dup1\n      mload\n      0x01\n      dup4\n      0x20\n      sub\n      0x0100\n      exp\n      sub\n      not\n      and\n      dup2\n      mstore\n      0x20\n      add\n      swap2\n      pop\n    tag_149:\n      pop\n      swap3\n      pop\n      pop\n      pop\n      mload(0x40)\n      dup1\n      swap2\n      sub\n      swap1\n      return\n        /* \"scalable-dex/contracts/src/interactions/TokenAssetData.sol\":1780:2106  function getAssetInfo(uint256 assetType) public view override returns (bytes memory assetInfo) {... */\n    tag_31:\n      callvalue\n      dup1\n      iszero\n      tag_150\n      jumpi\n      0x00\n      dup1\n      revert\n    tag_150:\n      pop\n      tag_151\n      0x04\n      dup1\n      calldatasize\n      sub\n      0x20\n      dup2\n      lt\n      iszero\n      tag_152\n      jumpi\n      0x00\n      dup1\n      revert\n    tag_152:\n      dup2\n      add\n      swap1\n      dup1\n      dup1\n      calldataload\n      swap1\n      0x20\n      add\n      swap1\n      swap3\n      swap2\n      swap1\n      pop\n      pop\n      pop\n      tag_153\n      jump\t// in\n    tag_151:\n      mload(0x40)\n      dup1\n      dup1\n      0x20\n      add\n      dup3\n      dup2\n      sub\n      dup3\n      mstore\n      dup4\n      dup2\n      dup2\n      mload\n      dup2\n      mstore\n      0x20\n      add\n      swap2\n      pop\n      dup1\n      mload\n      swap1\n      0x20\n      add\n      swap1\n      dup1\n      dup4\n      dup4\n      0x00\n    tag_154:\n      dup4\n      dup2\n      lt\n      iszero\n      tag_156\n      jumpi\n      dup1\n      dup3\n      add\n      mload\n      dup2\n      dup5\n      add\n      mstore\n      0x20\n      dup2\n      add\n      swap1\n      pop\n      jump(tag_154)\n    tag_156:\n      pop\n      pop\n      pop\n      pop\n      swap1\n      pop\n      swap1\n      dup2\n      add\n      swap1\n      0x1f\n      and\n      dup1\n      iszero\n      tag_157\n      jumpi\n      dup1\n      dup3\n      sub\n      dup1\n      mload\n      0x01\n      dup4\n      0x20\n      sub\n      0x0100\n      exp\n      sub\n      not\n      and\n      dup2\n      mstore\n      0x20\n      add\n      swap2\n      pop\n    tag_157:\n      pop\n      swap3\n      pop\n      pop\n      pop\n      mload(0x40)\n      dup1\n      swap2\n      sub\n      swap1\n      return\n        /* \"scalable-dex/contracts/src/libraries/LibConstants.sol\":650:702  uint256 public constant FREEZE_GRACE_PERIOD = 7 days */\n    tag_41:\n        /* \"scalable-dex/contracts/src/libraries/LibConstants.sol\":696:702  7 days */\n      0x093a80\n        /* \"scalable-dex/contracts/src/libraries/LibConstants.sol\":650:702  uint256 public constant FREEZE_GRACE_PERIOD = 7 days */\n      dup2\n      jump\t// out\n        /* \"scalable-dex/contracts/src/starkex/components/VaultDepositWithdrawal.sol\":1909:2144  function getVaultBalance(... */\n    tag_45:\n        /* \"scalable-dex/contracts/src/starkex/components/VaultDepositWithdrawal.sol\":2037:2044  uint256 */\n      0x00\n        /* \"scalable-dex/contracts/src/starkex/components/VaultDepositWithdrawal.sol\":2063:2137  fromQuantized(assetId, getQuantizedVaultBalance(ethKey, assetId, vaultId)) */\n      tag_159\n        /* \"scalable-dex/contracts/src/starkex/components/VaultDepositWithdrawal.sol\":2077:2084  assetId */\n      dup4\n        /* \"scalable-dex/contracts/src/starkex/components/VaultDepositWithdrawal.sol\":2086:2136  getQuantizedVaultBalance(ethKey, assetId, vaultId) */\n      tag_160\n        /* \"scalable-dex/contracts/src/starkex/components/VaultDepositWithdrawal.sol\":2111:2117  ethKey */\n      dup7\n        /* \"scalable-dex/contracts/src/starkex/components/VaultDepositWithdrawal.sol\":2119:2126  assetId */\n      dup7\n        /* \"scalable-dex/contracts/src/starkex/components/VaultDepositWithdrawal.sol\":2128:2135  vaultId */\n      dup7\n        /* \"scalable-dex/contracts/src/starkex/components/VaultDepositWithdrawal.sol\":2086:2110  getQuantizedVaultBalance */\n      tag_135\n        /* \"scalable-dex/contracts/src/starkex/components/VaultDepositWithdrawal.sol\":2086:2136  getQuantizedVaultBalance(ethKey, assetId, vaultId) */\n      jump\t// in\n    tag_160:\n        /* \"scalable-dex/contracts/src/starkex/components/VaultDepositWithdrawal.sol\":2063:2076  fromQuantized */\n      tag_161\n        /* \"scalable-dex/contracts/src/starkex/components/VaultDepositWithdrawal.sol\":2063:2137  fromQuantized(assetId, getQuantizedVaultBalance(ethKey, assetId, vaultId)) */\n      jump\t// in\n    tag_159:\n        /* \"scalable-dex/contracts/src/starkex/components/VaultDepositWithdrawal.sol\":2056:2137  return fromQuantized(assetId, getQuantizedVaultBalance(ethKey, assetId, vaultId)) */\n      swap1\n      pop\n        /* \"scalable-dex/contracts/src/starkex/components/VaultDepositWithdrawal.sol\":1909:2144  function getVaultBalance(... */\n      swap4\n      swap3\n      pop\n      pop\n      pop\n      jump\t// out\n        /* \"scalable-dex/contracts/src/starkex/components/VaultDepositWithdrawal.sol\":2461:2728  function depositERC20ToVault(... */\n    tag_49:\n        /* \"scalable-dex/contracts/src/starkex/components/VaultDepositWithdrawal.sol\":2606:2634  isFungibleAssetType(assetId) */\n      tag_163\n        /* \"scalable-dex/contracts/src/starkex/components/VaultDepositWithdrawal.sol\":2626:2633  assetId */\n      dup4\n        /* \"scalable-dex/contracts/src/starkex/components/VaultDepositWithdrawal.sol\":2606:2625  isFungibleAssetType */\n      tag_164\n        /* \"scalable-dex/contracts/src/starkex/components/VaultDepositWithdrawal.sol\":2606:2634  isFungibleAssetType(assetId) */\n      jump\t// in\n    tag_163:\n        /* \"scalable-dex/contracts/src/starkex/components/VaultDepositWithdrawal.sol\":2598:2662  require(isFungibleAssetType(assetId), \"NON_FUNGIBLE_ASSET_TYPE\") */\n      tag_165\n      jumpi\n      mload(0x40)\n      0x08c379a000000000000000000000000000000000000000000000000000000000\n      dup2\n      mstore\n      0x04\n      add\n      dup1\n      dup1\n      0x20\n      add\n      dup3\n      dup2\n      sub\n      dup3\n      mstore\n      0x17\n      dup2\n      mstore\n      0x20\n      add\n      dup1\n      0x4e4f4e5f46554e4749424c455f41535345545f54595045000000000000000000\n      dup2\n      mstore\n      pop\n      0x20\n      add\n      swap2\n      pop\n      pop\n      mload(0x40)\n      dup1\n      swap2\n      sub\n      swap1\n      revert\n    tag_165:\n        /* \"scalable-dex/contracts/src/starkex/components/VaultDepositWithdrawal.sol\":2672:2721  depositToVault(assetId, vaultId, quantizedAmount) */\n      tag_166\n        /* \"scalable-dex/contracts/src/starkex/components/VaultDepositWithdrawal.sol\":2687:2694  assetId */\n      dup4\n        /* \"scalable-dex/contracts/src/starkex/components/VaultDepositWithdrawal.sol\":2696:2703  vaultId */\n      dup4\n        /* \"scalable-dex/contracts/src/starkex/components/VaultDepositWithdrawal.sol\":2705:2720  quantizedAmount */\n      dup4\n        /* \"scalable-dex/contracts/src/starkex/components/VaultDepositWithdrawal.sol\":2672:2686  depositToVault */\n      tag_167\n        /* \"scalable-dex/contracts/src/starkex/components/VaultDepositWithdrawal.sol\":2672:2721  depositToVault(assetId, vaultId, quantizedAmount) */\n      jump\t// in\n    tag_166:\n        /* \"scalable-dex/contracts/src/starkex/components/VaultDepositWithdrawal.sol\":2461:2728  function depositERC20ToVault(... */\n      pop\n      pop\n      pop\n      jump\t// out\n        /* \"scalable-dex/contracts/src/starkex/components/VaultLocks.sol\":2072:2346  function isVaultLocked(... */\n    tag_53:\n        /* \"scalable-dex/contracts/src/starkex/components/VaultLocks.sol\":2205:2209  bool */\n      0x00\n        /* \"scalable-dex/contracts/src/starkex/components/VaultLocks.sol\":2221:2240  uint256 timeRelease */\n      dup1\n        /* \"scalable-dex/contracts/src/starkex/components/VaultLocks.sol\":2243:2291  getVaultWithdrawalLock(ethKey, assetId, vaultId) */\n      tag_169\n        /* \"scalable-dex/contracts/src/starkex/components/VaultLocks.sol\":2266:2272  ethKey */\n      dup6\n        /* \"scalable-dex/contracts/src/starkex/components/VaultLocks.sol\":2274:2281  assetId */\n      dup6\n        /* \"scalable-dex/contracts/src/starkex/components/VaultLocks.sol\":2283:2290  vaultId */\n      dup6\n        /* \"scalable-dex/contracts/src/starkex/components/VaultLocks.sol\":2243:2265  getVaultWithdrawalLock */\n      tag_96\n        /* \"scalable-dex/contracts/src/starkex/components/VaultLocks.sol\":2243:2291  getVaultWithdrawalLock(ethKey, assetId, vaultId) */\n      jump\t// in\n    tag_169:\n        /* \"scalable-dex/contracts/src/starkex/components/VaultLocks.sol\":2221:2291  uint256 timeRelease = getVaultWithdrawalLock(ethKey, assetId, vaultId) */\n      swap1\n      pop\n        /* \"scalable-dex/contracts/src/starkex/components/VaultLocks.sol\":2327:2338  timeRelease */\n      dup1\n        /* \"scalable-dex/contracts/src/starkex/components/VaultLocks.sol\":2309:2324  block.timestamp */\n      timestamp\n        /* \"scalable-dex/contracts/src/starkex/components/VaultLocks.sol\":2309:2338  block.timestamp < timeRelease */\n      lt\n        /* \"scalable-dex/contracts/src/starkex/components/VaultLocks.sol\":2301:2339  return (block.timestamp < timeRelease) */\n      swap2\n      pop\n      pop\n        /* \"scalable-dex/contracts/src/starkex/components/VaultLocks.sol\":2072:2346  function isVaultLocked(... */\n      swap4\n      swap3\n      pop\n      pop\n      pop\n      jump\t// out\n        /* \"scalable-dex/contracts/src/components/MainGovernance.sol\":2328:2404  function mainAcceptGovernance() external {... */\n    tag_56:\n        /* \"scalable-dex/contracts/src/components/MainGovernance.sol\":2379:2397  acceptGovernance() */\n      tag_171\n        /* \"scalable-dex/contracts/src/components/MainGovernance.sol\":2379:2395  acceptGovernance */\n      tag_172\n        /* \"scalable-dex/contracts/src/components/MainGovernance.sol\":2379:2397  acceptGovernance() */\n      jump\t// in\n    tag_171:\n        /* \"scalable-dex/contracts/src/components/MainGovernance.sol\":2328:2404  function mainAcceptGovernance() external {... */\n      jump\t// out\n        /* \"scalable-dex/contracts/src/starkex/toplevel_subcontracts/OnchainVaults.sol\":801:894  function initializerSize() external view override returns (uint256) {... */\n    tag_59:\n        /* \"scalable-dex/contracts/src/starkex/toplevel_subcontracts/OnchainVaults.sol\":860:867  uint256 */\n      0x00\n        /* \"scalable-dex/contracts/src/starkex/toplevel_subcontracts/OnchainVaults.sol\":801:894  function initializerSize() external view override returns (uint256) {... */\n      swap1\n      jump\t// out\n        /* \"scalable-dex/contracts/src/starkex/toplevel_subcontracts/OnchainVaults.sol\":699:795  function initialize(bytes calldata) external override {... */\n    tag_66:\n        /* \"scalable-dex/contracts/src/starkex/toplevel_subcontracts/OnchainVaults.sol\":763:788  revert(\"NOT_IMPLEMENTED\") */\n      mload(0x40)\n      0x08c379a000000000000000000000000000000000000000000000000000000000\n      dup2\n      mstore\n      0x04\n      add\n      dup1\n      dup1\n      0x20\n      add\n      dup3\n      dup2\n      sub\n      dup3\n      mstore\n      0x0f\n      dup2\n      mstore\n      0x20\n      add\n      dup1\n      0x4e4f545f494d504c454d454e5445440000000000000000000000000000000000\n      dup2\n      mstore\n      pop\n      0x20\n      add\n      swap2\n      pop\n      pop\n      mload(0x40)\n      dup1\n      swap2\n      sub\n      swap1\n      revert\n        /* \"scalable-dex/contracts/src/components/MainGovernance.sol\":1959:2082  function mainIsGovernor(address testGovernor) external view returns (bool) {... */\n    tag_70:\n        /* \"scalable-dex/contracts/src/components/MainGovernance.sol\":2028:2032  bool */\n      0x00\n        /* \"scalable-dex/contracts/src/components/MainGovernance.sol\":2051:2075  isGovernor(testGovernor) */\n      tag_176\n        /* \"scalable-dex/contracts/src/components/MainGovernance.sol\":2062:2074  testGovernor */\n      dup3\n        /* \"scalable-dex/contracts/src/components/MainGovernance.sol\":2051:2061  isGovernor */\n      tag_177\n        /* \"scalable-dex/contracts/src/components/MainGovernance.sol\":2051:2075  isGovernor(testGovernor) */\n      jump\t// in\n    tag_176:\n        /* \"scalable-dex/contracts/src/components/MainGovernance.sol\":2044:2075  return isGovernor(testGovernor) */\n      swap1\n      pop\n        /* \"scalable-dex/contracts/src/components/MainGovernance.sol\":1959:2082  function mainIsGovernor(address testGovernor) external view returns (bool) {... */\n      swap2\n      swap1\n      pop\n      jump\t// out\n        /* \"scalable-dex/contracts/src/starkex/toplevel_subcontracts/OnchainVaults.sol\":900:1015  function isStrictVaultBalancePolicy() external view returns (bool) {... */\n    tag_73:\n        /* \"scalable-dex/contracts/src/starkex/toplevel_subcontracts/OnchainVaults.sol\":961:965  bool */\n      0x00\n        /* \"scalable-dex/contracts/src/starkex/toplevel_subcontracts/OnchainVaults.sol\":984:1008  strictVaultBalancePolicy */\n      0x010000000000000002\n      0x00\n      swap1\n      sload\n      swap1\n      0x0100\n      exp\n      swap1\n      div\n      0xff\n      and\n        /* \"scalable-dex/contracts/src/starkex/toplevel_subcontracts/OnchainVaults.sol\":977:1008  return strictVaultBalancePolicy */\n      swap1\n      pop\n        /* \"scalable-dex/contracts/src/starkex/toplevel_subcontracts/OnchainVaults.sol\":900:1015  function isStrictVaultBalancePolicy() external view returns (bool) {... */\n      swap1\n      jump\t// out\n        /* \"scalable-dex/contracts/src/components/MainGovernance.sol\":2410:2486  function mainCancelNomination() external {... */\n    tag_76:\n        /* \"scalable-dex/contracts/src/components/MainGovernance.sol\":2461:2479  cancelNomination() */\n      tag_180\n        /* \"scalable-dex/contracts/src/components/MainGovernance.sol\":2461:2477  cancelNomination */\n      tag_181\n        /* \"scalable-dex/contracts/src/components/MainGovernance.sol\":2461:2479  cancelNomination() */\n      jump\t// in\n    tag_180:\n        /* \"scalable-dex/contracts/src/components/MainGovernance.sol\":2410:2486  function mainCancelNomination() external {... */\n      jump\t// out\n        /* \"scalable-dex/contracts/src/libraries/LibConstants.sol\":463:516  uint256 public constant DEPOSIT_CANCEL_DELAY = 2 days */\n    tag_79:\n        /* \"scalable-dex/contracts/src/libraries/LibConstants.sol\":510:516  2 days */\n      0x02a300\n        /* \"scalable-dex/contracts/src/libraries/LibConstants.sol\":463:516  uint256 public constant DEPOSIT_CANCEL_DELAY = 2 days */\n      dup2\n      jump\t// out\n        /* \"scalable-dex/contracts/src/starkex/StarkExConstants.sol\":275:338  uint256 public constant STARKEX_MAX_DEFAULT_VAULT_LOCK = 7 days */\n    tag_82:\n        /* \"scalable-dex/contracts/src/starkex/StarkExConstants.sol\":332:338  7 days */\n      0x093a80\n        /* \"scalable-dex/contracts/src/starkex/StarkExConstants.sol\":275:338  uint256 public constant STARKEX_MAX_DEFAULT_VAULT_LOCK = 7 days */\n      dup2\n      jump\t// out\n        /* \"scalable-dex/contracts/src/components/MainGovernance.sol\":2088:2200  function mainNominateNewGovernor(address newGovernor) external {... */\n    tag_86:\n        /* \"scalable-dex/contracts/src/components/MainGovernance.sol\":2161:2193  nominateNewGovernor(newGovernor) */\n      tag_183\n        /* \"scalable-dex/contracts/src/components/MainGovernance.sol\":2181:2192  newGovernor */\n      dup2\n        /* \"scalable-dex/contracts/src/components/MainGovernance.sol\":2161:2180  nominateNewGovernor */\n      tag_184\n        /* \"scalable-dex/contracts/src/components/MainGovernance.sol\":2161:2193  nominateNewGovernor(newGovernor) */\n      jump\t// in\n    tag_183:\n        /* \"scalable-dex/contracts/src/components/MainGovernance.sol\":2088:2200  function mainNominateNewGovernor(address newGovernor) external {... */\n      pop\n      jump\t// out\n        /* \"scalable-dex/contracts/src/libraries/LibConstants.sol\":877:926  uint256 public constant UNFREEZE_DELAY = 365 days */\n    tag_89:\n        /* \"scalable-dex/contracts/src/libraries/LibConstants.sol\":918:926  365 days */\n      0x01e13380\n        /* \"scalable-dex/contracts/src/libraries/LibConstants.sol\":877:926  uint256 public constant UNFREEZE_DELAY = 365 days */\n      dup2\n      jump\t// out\n        /* \"scalable-dex/contracts/src/starkex/components/StarkExStorage.sol\":1285:1320  address public orderRegistryAddress */\n    tag_92:\n      0x010000000000000004\n      0x00\n      swap1\n      sload\n      swap1\n      0x0100\n      exp\n      swap1\n      div\n      0xffffffffffffffffffffffffffffffffffffffff\n      and\n      dup2\n      jump\t// out\n        /* \"scalable-dex/contracts/src/starkex/components/VaultLocks.sol\":1009:1222  function getVaultWithdrawalLock(... */\n    tag_96:\n        /* \"scalable-dex/contracts/src/starkex/components/VaultLocks.sol\":1142:1149  uint256 */\n      0x00\n        /* \"scalable-dex/contracts/src/starkex/components/VaultLocks.sol\":1168:1189  vaultsWithdrawalLocks */\n      0x010000000000000001\n        /* \"scalable-dex/contracts/src/starkex/components/VaultLocks.sol\":1168:1197  vaultsWithdrawalLocks[ethKey] */\n      0x00\n        /* \"scalable-dex/contracts/src/starkex/components/VaultLocks.sol\":1190:1196  ethKey */\n      dup6\n        /* \"scalable-dex/contracts/src/starkex/components/VaultLocks.sol\":1168:1197  vaultsWithdrawalLocks[ethKey] */\n      0xffffffffffffffffffffffffffffffffffffffff\n      and\n      0xffffffffffffffffffffffffffffffffffffffff\n      and\n      dup2\n      mstore\n      0x20\n      add\n      swap1\n      dup2\n      mstore\n      0x20\n      add\n      0x00\n      keccak256\n        /* \"scalable-dex/contracts/src/starkex/components/VaultLocks.sol\":1168:1206  vaultsWithdrawalLocks[ethKey][assetId] */\n      0x00\n        /* \"scalable-dex/contracts/src/starkex/components/VaultLocks.sol\":1198:1205  assetId */\n      dup5\n        /* \"scalable-dex/contracts/src/starkex/components/VaultLocks.sol\":1168:1206  vaultsWithdrawalLocks[ethKey][assetId] */\n      dup2\n      mstore\n      0x20\n      add\n      swap1\n      dup2\n      mstore\n      0x20\n      add\n      0x00\n      keccak256\n        /* \"scalable-dex/contracts/src/starkex/components/VaultLocks.sol\":1168:1215  vaultsWithdrawalLocks[ethKey][assetId][vaultId] */\n      0x00\n        /* \"scalable-dex/contracts/src/starkex/components/VaultLocks.sol\":1207:1214  vaultId */\n      dup4\n        /* \"scalable-dex/contracts/src/starkex/components/VaultLocks.sol\":1168:1215  vaultsWithdrawalLocks[ethKey][assetId][vaultId] */\n      dup2\n      mstore\n      0x20\n      add\n      swap1\n      dup2\n      mstore\n      0x20\n      add\n      0x00\n      keccak256\n      sload\n        /* \"scalable-dex/contracts/src/starkex/components/VaultLocks.sol\":1161:1215  return vaultsWithdrawalLocks[ethKey][assetId][vaultId] */\n      swap1\n      pop\n        /* \"scalable-dex/contracts/src/starkex/components/VaultLocks.sol\":1009:1222  function getVaultWithdrawalLock(... */\n      swap4\n      swap3\n      pop\n      pop\n      pop\n      jump\t// out\n        /* \"scalable-dex/contracts/src/components/MainGovernance.sol\":2206:2322  function mainRemoveGovernor(address governorForRemoval) external {... */\n    tag_100:\n        /* \"scalable-dex/contracts/src/components/MainGovernance.sol\":2281:2315  removeGovernor(governorForRemoval) */\n      tag_187\n        /* \"scalable-dex/contracts/src/components/MainGovernance.sol\":2296:2314  governorForRemoval */\n      dup2\n        /* \"scalable-dex/contracts/src/components/MainGovernance.sol\":2281:2295  removeGovernor */\n      tag_188\n        /* \"scalable-dex/contracts/src/components/MainGovernance.sol\":2281:2315  removeGovernor(governorForRemoval) */\n      jump\t// in\n    tag_187:\n        /* \"scalable-dex/contracts/src/components/MainGovernance.sol\":2206:2322  function mainRemoveGovernor(address governorForRemoval) external {... */\n      pop\n      jump\t// out\n        /* \"scalable-dex/contracts/src/starkex/components/VaultDepositWithdrawal.sol\":2187:2455  function depositEthToVault(uint256 assetId, uint256 vaultId) external payable {... */\n    tag_103:\n        /* \"scalable-dex/contracts/src/starkex/components/VaultDepositWithdrawal.sol\":2283:2299  isEther(assetId) */\n      tag_190\n        /* \"scalable-dex/contracts/src/starkex/components/VaultDepositWithdrawal.sol\":2291:2298  assetId */\n      dup3\n        /* \"scalable-dex/contracts/src/starkex/components/VaultDepositWithdrawal.sol\":2283:2290  isEther */\n      tag_191\n        /* \"scalable-dex/contracts/src/starkex/components/VaultDepositWithdrawal.sol\":2283:2299  isEther(assetId) */\n      jump\t// in\n    tag_190:\n        /* \"scalable-dex/contracts/src/starkex/components/VaultDepositWithdrawal.sol\":2275:2322  require(isEther(assetId), \"INVALID_ASSET_TYPE\") */\n      tag_192\n      jumpi\n      mload(0x40)\n      0x08c379a000000000000000000000000000000000000000000000000000000000\n      dup2\n      mstore\n      0x04\n      add\n      dup1\n      dup1\n      0x20\n      add\n      dup3\n      dup2\n      sub\n      dup3\n      mstore\n      0x12\n      dup2\n      mstore\n      0x20\n      add\n      dup1\n      0x494e56414c49445f41535345545f545950450000000000000000000000000000\n      dup2\n      mstore\n      pop\n      0x20\n      add\n      swap2\n      pop\n      pop\n      mload(0x40)\n      dup1\n      swap2\n      sub\n      swap1\n      revert\n    tag_192:\n        /* \"scalable-dex/contracts/src/starkex/components/VaultDepositWithdrawal.sol\":2332:2355  uint256 quantizedAmount */\n      0x00\n        /* \"scalable-dex/contracts/src/starkex/components/VaultDepositWithdrawal.sol\":2358:2389  toQuantized(assetId, msg.value) */\n      tag_193\n        /* \"scalable-dex/contracts/src/starkex/components/VaultDepositWithdrawal.sol\":2370:2377  assetId */\n      dup4\n        /* \"scalable-dex/contracts/src/starkex/components/VaultDepositWithdrawal.sol\":2379:2388  msg.value */\n      callvalue\n        /* \"scalable-dex/contracts/src/starkex/components/VaultDepositWithdrawal.sol\":2358:2369  toQuantized */\n      tag_194\n        /* \"scalable-dex/contracts/src/starkex/components/VaultDepositWithdrawal.sol\":2358:2389  toQuantized(assetId, msg.value) */\n      jump\t// in\n    tag_193:\n        /* \"scalable-dex/contracts/src/starkex/components/VaultDepositWithdrawal.sol\":2332:2389  uint256 quantizedAmount = toQuantized(assetId, msg.value) */\n      swap1\n      pop\n        /* \"scalable-dex/contracts/src/starkex/components/VaultDepositWithdrawal.sol\":2399:2448  depositToVault(assetId, vaultId, quantizedAmount) */\n      tag_195\n        /* \"scalable-dex/contracts/src/starkex/components/VaultDepositWithdrawal.sol\":2414:2421  assetId */\n      dup4\n        /* \"scalable-dex/contracts/src/starkex/components/VaultDepositWithdrawal.sol\":2423:2430  vaultId */\n      dup4\n        /* \"scalable-dex/contracts/src/starkex/components/VaultDepositWithdrawal.sol\":2432:2447  quantizedAmount */\n      dup4\n        /* \"scalable-dex/contracts/src/starkex/components/VaultDepositWithdrawal.sol\":2399:2413  depositToVault */\n      tag_167\n        /* \"scalable-dex/contracts/src/starkex/components/VaultDepositWithdrawal.sol\":2399:2448  depositToVault(assetId, vaultId, quantizedAmount) */\n      jump\t// in\n    tag_195:\n        /* \"scalable-dex/contracts/src/starkex/components/VaultDepositWithdrawal.sol\":2187:2455  function depositEthToVault(uint256 assetId, uint256 vaultId) external payable {... */\n      pop\n      pop\n      pop\n      jump\t// out\n        /* \"scalable-dex/contracts/src/starkex/components/StarkExStorage.sol\":1117:1158  uint256 public defaultVaultWithdrawalLock */\n    tag_106:\n      sload(0x010000000000000003)\n      dup2\n      jump\t// out\n        /* \"scalable-dex/contracts/src/libraries/LibConstants.sol\":1128:1208  uint256 public constant VERIFIER_REMOVAL_DELAY = FREEZE_GRACE_PERIOD + (21 days) */\n    tag_109:\n        /* \"scalable-dex/contracts/src/libraries/LibConstants.sol\":1200:1207  21 days */\n      0x1baf80\n        /* \"scalable-dex/contracts/src/libraries/LibConstants.sol\":696:702  7 days */\n      0x093a80\n        /* \"scalable-dex/contracts/src/libraries/LibConstants.sol\":1177:1208  FREEZE_GRACE_PERIOD + (21 days) */\n      add\n        /* \"scalable-dex/contracts/src/libraries/LibConstants.sol\":1128:1208  uint256 public constant VERIFIER_REMOVAL_DELAY = FREEZE_GRACE_PERIOD + (21 days) */\n      dup2\n      jump\t// out\n        /* \"scalable-dex/contracts/src/starkex/components/VaultDepositWithdrawal.sol\":2734:3784  function withdrawFromVault(... */\n    tag_113:\n        /* \"scalable-dex/contracts/src/starkex/components/VaultDepositWithdrawal.sol\":2895:2896  0 */\n      0x00\n        /* \"scalable-dex/contracts/src/starkex/components/VaultDepositWithdrawal.sol\":2877:2892  quantizedAmount */\n      dup2\n        /* \"scalable-dex/contracts/src/starkex/components/VaultDepositWithdrawal.sol\":2877:2896  quantizedAmount > 0 */\n      gt\n        /* \"scalable-dex/contracts/src/starkex/components/VaultDepositWithdrawal.sol\":2869:2916  require(quantizedAmount > 0, \"ZERO_WITHDRAWAL\") */\n      tag_197\n      jumpi\n      mload(0x40)\n      0x08c379a000000000000000000000000000000000000000000000000000000000\n      dup2\n      mstore\n      0x04\n      add\n      dup1\n      dup1\n      0x20\n      add\n      dup3\n      dup2\n      sub\n      dup3\n      mstore\n      0x0f\n      dup2\n      mstore\n      0x20\n      add\n      dup1\n      0x5a45524f5f5749544844524157414c0000000000000000000000000000000000\n      dup2\n      mstore\n      pop\n      0x20\n      add\n      swap2\n      pop\n      pop\n      mload(0x40)\n      dup1\n      swap2\n      sub\n      swap1\n      revert\n    tag_197:\n        /* \"scalable-dex/contracts/src/starkex/components/VaultDepositWithdrawal.sol\":2935:2978  isVaultLocked(msg.sender, assetId, vaultId) */\n      tag_198\n        /* \"scalable-dex/contracts/src/starkex/components/VaultDepositWithdrawal.sol\":2949:2959  msg.sender */\n      caller\n        /* \"scalable-dex/contracts/src/starkex/components/VaultDepositWithdrawal.sol\":2961:2968  assetId */\n      dup5\n        /* \"scalable-dex/contracts/src/starkex/components/VaultDepositWithdrawal.sol\":2970:2977  vaultId */\n      dup5\n        /* \"scalable-dex/contracts/src/starkex/components/VaultDepositWithdrawal.sol\":2935:2948  isVaultLocked */\n      tag_53\n        /* \"scalable-dex/contracts/src/starkex/components/VaultDepositWithdrawal.sol\":2935:2978  isVaultLocked(msg.sender, assetId, vaultId) */\n      jump\t// in\n    tag_198:\n        /* \"scalable-dex/contracts/src/starkex/components/VaultDepositWithdrawal.sol\":2934:2978  !isVaultLocked(msg.sender, assetId, vaultId) */\n      iszero\n        /* \"scalable-dex/contracts/src/starkex/components/VaultDepositWithdrawal.sol\":2926:2998  require(!isVaultLocked(msg.sender, assetId, vaultId), \"VAULT_IS_LOCKED\") */\n      tag_199\n      jumpi\n      mload(0x40)\n      0x08c379a000000000000000000000000000000000000000000000000000000000\n      dup2\n      mstore\n      0x04\n      add\n      dup1\n      dup1\n      0x20\n      add\n      dup3\n      dup2\n      sub\n      dup3\n      mstore\n      0x0f\n      dup2\n      mstore\n      0x20\n      add\n      dup1\n      0x5641554c545f49535f4c4f434b45440000000000000000000000000000000000\n      dup2\n      mstore\n      pop\n      0x20\n      add\n      swap2\n      pop\n      pop\n      mload(0x40)\n      dup1\n      swap2\n      sub\n      swap1\n      revert\n    tag_199:\n        /* \"scalable-dex/contracts/src/starkex/components/VaultDepositWithdrawal.sol\":3017:3045  isMintableAssetType(assetId) */\n      tag_200\n        /* \"scalable-dex/contracts/src/starkex/components/VaultDepositWithdrawal.sol\":3037:3044  assetId */\n      dup4\n        /* \"scalable-dex/contracts/src/starkex/components/VaultDepositWithdrawal.sol\":3017:3036  isMintableAssetType */\n      tag_201\n        /* \"scalable-dex/contracts/src/starkex/components/VaultDepositWithdrawal.sol\":3017:3045  isMintableAssetType(assetId) */\n      jump\t// in\n    tag_200:\n        /* \"scalable-dex/contracts/src/starkex/components/VaultDepositWithdrawal.sol\":3016:3045  !isMintableAssetType(assetId) */\n      iszero\n        /* \"scalable-dex/contracts/src/starkex/components/VaultDepositWithdrawal.sol\":3008:3069  require(!isMintableAssetType(assetId), \"MINTABLE_ASSET_TYPE\") */\n      tag_202\n      jumpi\n      mload(0x40)\n      0x08c379a000000000000000000000000000000000000000000000000000000000\n      dup2\n      mstore\n      0x04\n      add\n      dup1\n      dup1\n      0x20\n      add\n      dup3\n      dup2\n      sub\n      dup3\n      mstore\n      0x13\n      dup2\n      mstore\n      0x20\n      add\n      dup1\n      0x4d494e5441424c455f41535345545f5459504500000000000000000000000000\n      dup2\n      mstore\n      pop\n      0x20\n      add\n      swap2\n      pop\n      pop\n      mload(0x40)\n      dup1\n      swap2\n      sub\n      swap1\n      revert\n    tag_202:\n        /* \"scalable-dex/contracts/src/starkex/components/VaultDepositWithdrawal.sol\":3087:3115  isFungibleAssetType(assetId) */\n      tag_203\n        /* \"scalable-dex/contracts/src/starkex/components/VaultDepositWithdrawal.sol\":3107:3114  assetId */\n      dup4\n        /* \"scalable-dex/contracts/src/starkex/components/VaultDepositWithdrawal.sol\":3087:3106  isFungibleAssetType */\n      tag_164\n        /* \"scalable-dex/contracts/src/starkex/components/VaultDepositWithdrawal.sol\":3087:3115  isFungibleAssetType(assetId) */\n      jump\t// in\n    tag_203:\n        /* \"scalable-dex/contracts/src/starkex/components/VaultDepositWithdrawal.sol\":3079:3143  require(isFungibleAssetType(assetId), \"NON_FUNGIBLE_ASSET_TYPE\") */\n      tag_204\n      jumpi\n      mload(0x40)\n      0x08c379a000000000000000000000000000000000000000000000000000000000\n      dup2\n      mstore\n      0x04\n      add\n      dup1\n      dup1\n      0x20\n      add\n      dup3\n      dup2\n      sub\n      dup3\n      mstore\n      0x17\n      dup2\n      mstore\n      0x20\n      add\n      dup1\n      0x4e4f4e5f46554e4749424c455f41535345545f54595045000000000000000000\n      dup2\n      mstore\n      pop\n      0x20\n      add\n      swap2\n      pop\n      pop\n      mload(0x40)\n      dup1\n      swap2\n      sub\n      swap1\n      revert\n    tag_204:\n        /* \"scalable-dex/contracts/src/starkex/components/VaultDepositWithdrawal.sol\":3212:3232  uint256 vaultBalance */\n      0x00\n        /* \"scalable-dex/contracts/src/starkex/components/VaultDepositWithdrawal.sol\":3235:3249  vaultsBalances */\n      0x010000000000000000\n        /* \"scalable-dex/contracts/src/starkex/components/VaultDepositWithdrawal.sol\":3235:3261  vaultsBalances[msg.sender] */\n      0x00\n        /* \"scalable-dex/contracts/src/starkex/components/VaultDepositWithdrawal.sol\":3250:3260  msg.sender */\n      caller\n        /* \"scalable-dex/contracts/src/starkex/components/VaultDepositWithdrawal.sol\":3235:3261  vaultsBalances[msg.sender] */\n      0xffffffffffffffffffffffffffffffffffffffff\n      and\n      0xffffffffffffffffffffffffffffffffffffffff\n      and\n      dup2\n      mstore\n      0x20\n      add\n      swap1\n      dup2\n      mstore\n      0x20\n      add\n      0x00\n      keccak256\n        /* \"scalable-dex/contracts/src/starkex/components/VaultDepositWithdrawal.sol\":3235:3270  vaultsBalances[msg.sender][assetId] */\n      0x00\n        /* \"scalable-dex/contracts/src/starkex/components/VaultDepositWithdrawal.sol\":3262:3269  assetId */\n      dup6\n        /* \"scalable-dex/contracts/src/starkex/components/VaultDepositWithdrawal.sol\":3235:3270  vaultsBalances[msg.sender][assetId] */\n      dup2\n      mstore\n      0x20\n      add\n      swap1\n      dup2\n      mstore\n      0x20\n      add\n      0x00\n      keccak256\n        /* \"scalable-dex/contracts/src/starkex/components/VaultDepositWithdrawal.sol\":3235:3279  vaultsBalances[msg.sender][assetId][vaultId] */\n      0x00\n        /* \"scalable-dex/contracts/src/starkex/components/VaultDepositWithdrawal.sol\":3271:3278  vaultId */\n      dup5\n        /* \"scalable-dex/contracts/src/starkex/components/VaultDepositWithdrawal.sol\":3235:3279  vaultsBalances[msg.sender][assetId][vaultId] */\n      dup2\n      mstore\n      0x20\n      add\n      swap1\n      dup2\n      mstore\n      0x20\n      add\n      0x00\n      keccak256\n      sload\n        /* \"scalable-dex/contracts/src/starkex/components/VaultDepositWithdrawal.sol\":3212:3279  uint256 vaultBalance = vaultsBalances[msg.sender][assetId][vaultId] */\n      swap1\n      pop\n        /* \"scalable-dex/contracts/src/starkex/components/VaultDepositWithdrawal.sol\":3313:3328  quantizedAmount */\n      dup2\n        /* \"scalable-dex/contracts/src/starkex/components/VaultDepositWithdrawal.sol\":3297:3309  vaultBalance */\n      dup2\n        /* \"scalable-dex/contracts/src/starkex/components/VaultDepositWithdrawal.sol\":3297:3328  vaultBalance >= quantizedAmount */\n      lt\n      iszero\n        /* \"scalable-dex/contracts/src/starkex/components/VaultDepositWithdrawal.sol\":3289:3353  require(vaultBalance >= quantizedAmount, \"INSUFFICIENT_BALANCE\") */\n      tag_205\n      jumpi\n      mload(0x40)\n      0x08c379a000000000000000000000000000000000000000000000000000000000\n      dup2\n      mstore\n      0x04\n      add\n      dup1\n      dup1\n      0x20\n      add\n      dup3\n      dup2\n      sub\n      dup3\n      mstore\n      0x14\n      dup2\n      mstore\n      0x20\n      add\n      dup1\n      0x494e53554646494349454e545f42414c414e4345000000000000000000000000\n      dup2\n      mstore\n      pop\n      0x20\n      add\n      swap2\n      pop\n      pop\n      mload(0x40)\n      dup1\n      swap2\n      sub\n      swap1\n      revert\n    tag_205:\n        /* \"scalable-dex/contracts/src/starkex/components/VaultDepositWithdrawal.sol\":3457:3472  quantizedAmount */\n      dup2\n        /* \"scalable-dex/contracts/src/starkex/components/VaultDepositWithdrawal.sol\":3442:3454  vaultBalance */\n      dup2\n        /* \"scalable-dex/contracts/src/starkex/components/VaultDepositWithdrawal.sol\":3442:3472  vaultBalance - quantizedAmount */\n      sub\n        /* \"scalable-dex/contracts/src/starkex/components/VaultDepositWithdrawal.sol\":3395:3409  vaultsBalances */\n      0x010000000000000000\n        /* \"scalable-dex/contracts/src/starkex/components/VaultDepositWithdrawal.sol\":3395:3421  vaultsBalances[msg.sender] */\n      0x00\n        /* \"scalable-dex/contracts/src/starkex/components/VaultDepositWithdrawal.sol\":3410:3420  msg.sender */\n      caller\n        /* \"scalable-dex/contracts/src/starkex/components/VaultDepositWithdrawal.sol\":3395:3421  vaultsBalances[msg.sender] */\n      0xffffffffffffffffffffffffffffffffffffffff\n      and\n      0xffffffffffffffffffffffffffffffffffffffff\n      and\n      dup2\n      mstore\n      0x20\n      add\n      swap1\n      dup2\n      mstore\n      0x20\n      add\n      0x00\n      keccak256\n        /* \"scalable-dex/contracts/src/starkex/components/VaultDepositWithdrawal.sol\":3395:3430  vaultsBalances[msg.sender][assetId] */\n      0x00\n        /* \"scalable-dex/contracts/src/starkex/components/VaultDepositWithdrawal.sol\":3422:3429  assetId */\n      dup7\n        /* \"scalable-dex/contracts/src/starkex/components/VaultDepositWithdrawal.sol\":3395:3430  vaultsBalances[msg.sender][assetId] */\n      dup2\n      mstore\n      0x20\n      add\n      swap1\n      dup2\n      mstore\n      0x20\n      add\n      0x00\n      keccak256\n        /* \"scalable-dex/contracts/src/starkex/components/VaultDepositWithdrawal.sol\":3395:3439  vaultsBalances[msg.sender][assetId][vaultId] */\n      0x00\n        /* \"scalable-dex/contracts/src/starkex/components/VaultDepositWithdrawal.sol\":3431:3438  vaultId */\n      dup6\n        /* \"scalable-dex/contracts/src/starkex/components/VaultDepositWithdrawal.sol\":3395:3439  vaultsBalances[msg.sender][assetId][vaultId] */\n      dup2\n      mstore\n      0x20\n      add\n      swap1\n      dup2\n      mstore\n      0x20\n      add\n      0x00\n      keccak256\n        /* \"scalable-dex/contracts/src/starkex/components/VaultDepositWithdrawal.sol\":3395:3472  vaultsBalances[msg.sender][assetId][vaultId] = vaultBalance - quantizedAmount */\n      dup2\n      swap1\n      sstore\n      pop\n        /* \"scalable-dex/contracts/src/starkex/components/VaultDepositWithdrawal.sol\":3510:3559  transferOut(msg.sender, assetId, quantizedAmount) */\n      tag_206\n        /* \"scalable-dex/contracts/src/starkex/components/VaultDepositWithdrawal.sol\":3522:3532  msg.sender */\n      caller\n        /* \"scalable-dex/contracts/src/starkex/components/VaultDepositWithdrawal.sol\":3534:3541  assetId */\n      dup6\n        /* \"scalable-dex/contracts/src/starkex/components/VaultDepositWithdrawal.sol\":3543:3558  quantizedAmount */\n      dup5\n        /* \"scalable-dex/contracts/src/starkex/components/VaultDepositWithdrawal.sol\":3510:3521  transferOut */\n      tag_207\n        /* \"scalable-dex/contracts/src/starkex/components/VaultDepositWithdrawal.sol\":3510:3559  transferOut(msg.sender, assetId, quantizedAmount) */\n      jump\t// in\n    tag_206:\n        /* \"scalable-dex/contracts/src/starkex/components/VaultDepositWithdrawal.sol\":3597:3777  LogWithdrawalFromVault(... */\n      0xa866e320a5fe47b394ae4f8cd2c180329ac2a143cc50f61d7b26a7af1f1c05fc\n        /* \"scalable-dex/contracts/src/starkex/components/VaultDepositWithdrawal.sol\":3633:3643  msg.sender */\n      caller\n        /* \"scalable-dex/contracts/src/starkex/components/VaultDepositWithdrawal.sol\":3657:3664  assetId */\n      dup6\n        /* \"scalable-dex/contracts/src/starkex/components/VaultDepositWithdrawal.sol\":3678:3685  vaultId */\n      dup6\n        /* \"scalable-dex/contracts/src/starkex/components/VaultDepositWithdrawal.sol\":3699:3738  fromQuantized(assetId, quantizedAmount) */\n      tag_208\n        /* \"scalable-dex/contracts/src/starkex/components/VaultDepositWithdrawal.sol\":3713:3720  assetId */\n      dup9\n        /* \"scalable-dex/contracts/src/starkex/components/VaultDepositWithdrawal.sol\":3722:3737  quantizedAmount */\n      dup8\n        /* \"scalable-dex/contracts/src/starkex/components/VaultDepositWithdrawal.sol\":3699:3712  fromQuantized */\n      tag_161\n        /* \"scalable-dex/contracts/src/starkex/components/VaultDepositWithdrawal.sol\":3699:3738  fromQuantized(assetId, quantizedAmount) */\n      jump\t// in\n    tag_208:\n        /* \"scalable-dex/contracts/src/starkex/components/VaultDepositWithdrawal.sol\":3752:3767  quantizedAmount */\n      dup7\n        /* \"scalable-dex/contracts/src/starkex/components/VaultDepositWithdrawal.sol\":3597:3777  LogWithdrawalFromVault(... */\n      mload(0x40)\n      dup1\n      dup7\n      0xffffffffffffffffffffffffffffffffffffffff\n      and\n      dup2\n      mstore\n      0x20\n      add\n      dup6\n      dup2\n      mstore\n      0x20\n      add\n      dup5\n      dup2\n      mstore\n      0x20\n      add\n      dup4\n      dup2\n      mstore\n      0x20\n      add\n      dup3\n      dup2\n      mstore\n      0x20\n      add\n      swap6\n      pop\n      pop\n      pop\n      pop\n      pop\n      pop\n      mload(0x40)\n      dup1\n      swap2\n      sub\n      swap1\n      log1\n        /* \"scalable-dex/contracts/src/starkex/components/VaultDepositWithdrawal.sol\":2734:3784  function withdrawFromVault(... */\n      pop\n      pop\n      pop\n      pop\n      jump\t// out\n        /* \"scalable-dex/contracts/src/components/MainGovernance.sol\":1730:1820  string public constant MAIN_GOVERNANCE_INFO_TAG = \"StarkEx.Main.2019.GovernorsInformation\" */\n    tag_116:\n      mload(0x40)\n      dup1\n      0x60\n      add\n      0x40\n      mstore\n      dup1\n      0x26\n      dup2\n      mstore\n      0x20\n      add\n      data_ba6723cd96f04722dd5b39f1fec1d379925779afeea0248c94e7ccb35c720bcb\n      0x26\n      swap2\n      codecopy\n      dup2\n      jump\t// out\n        /* \"scalable-dex/contracts/src/starkex/components/VaultLocks.sol\":698:1003  function setDefaultVaultWithdrawalLock(uint256 newDefaultTime) public onlyGovernance {... */\n    tag_124:\n        /* \"scalable-dex/contracts/src/interfaces/MGovernance.sol\":299:321  isGovernor(msg.sender) */\n      tag_210\n        /* \"scalable-dex/contracts/src/interfaces/MGovernance.sol\":310:320  msg.sender */\n      caller\n        /* \"scalable-dex/contracts/src/interfaces/MGovernance.sol\":299:309  isGovernor */\n      tag_177\n        /* \"scalable-dex/contracts/src/interfaces/MGovernance.sol\":299:321  isGovernor(msg.sender) */\n      jump\t// in\n    tag_210:\n        /* \"scalable-dex/contracts/src/interfaces/MGovernance.sol\":291:341  require(isGovernor(msg.sender), \"ONLY_GOVERNANCE\") */\n      tag_211\n      jumpi\n      mload(0x40)\n      0x08c379a000000000000000000000000000000000000000000000000000000000\n      dup2\n      mstore\n      0x04\n      add\n      dup1\n      dup1\n      0x20\n      add\n      dup3\n      dup2\n      sub\n      dup3\n      mstore\n      0x0f\n      dup2\n      mstore\n      0x20\n      add\n      dup1\n      0x4f4e4c595f474f5645524e414e43450000000000000000000000000000000000\n      dup2\n      mstore\n      pop\n      0x20\n      add\n      swap2\n      pop\n      pop\n      mload(0x40)\n      dup1\n      swap2\n      sub\n      swap1\n      revert\n    tag_211:\n        /* \"scalable-dex/contracts/src/starkex/StarkExConstants.sol\":332:338  7 days */\n      0x093a80\n        /* \"scalable-dex/contracts/src/starkex/components/VaultLocks.sol\":801:815  newDefaultTime */\n      dup2\n        /* \"scalable-dex/contracts/src/starkex/components/VaultLocks.sol\":801:849  newDefaultTime <= STARKEX_MAX_DEFAULT_VAULT_LOCK */\n      gt\n      iszero\n        /* \"scalable-dex/contracts/src/starkex/components/VaultLocks.sol\":793:880  require(newDefaultTime <= STARKEX_MAX_DEFAULT_VAULT_LOCK, \"DEFAULT_LOCK_TIME_TOO_LONG\") */\n      tag_213\n      jumpi\n      mload(0x40)\n      0x08c379a000000000000000000000000000000000000000000000000000000000\n      dup2\n      mstore\n      0x04\n      add\n      dup1\n      dup1\n      0x20\n      add\n      dup3\n      dup2\n      sub\n      dup3\n      mstore\n      0x1a\n      dup2\n      mstore\n      0x20\n      add\n      dup1\n      0x44454641554c545f4c4f434b5f54494d455f544f4f5f4c4f4e47000000000000\n      dup2\n      mstore\n      pop\n      0x20\n      add\n      swap2\n      pop\n      pop\n      mload(0x40)\n      dup1\n      swap2\n      sub\n      swap1\n      revert\n    tag_213:\n        /* \"scalable-dex/contracts/src/starkex/components/VaultLocks.sol\":919:933  newDefaultTime */\n      dup1\n        /* \"scalable-dex/contracts/src/starkex/components/VaultLocks.sol\":890:916  defaultVaultWithdrawalLock */\n      0x010000000000000003\n        /* \"scalable-dex/contracts/src/starkex/components/VaultLocks.sol\":890:933  defaultVaultWithdrawalLock = newDefaultTime */\n      dup2\n      swap1\n      sstore\n      pop\n        /* \"scalable-dex/contracts/src/starkex/components/VaultLocks.sol\":948:996  LogDefaultVaultWithdrawalLockSet(newDefaultTime) */\n      0x832169a4c3cea413f0041437fd118afbc4b33edbf6783da382128bca1e56b2d2\n        /* \"scalable-dex/contracts/src/starkex/components/VaultLocks.sol\":981:995  newDefaultTime */\n      dup2\n        /* \"scalable-dex/contracts/src/starkex/components/VaultLocks.sol\":948:996  LogDefaultVaultWithdrawalLockSet(newDefaultTime) */\n      mload(0x40)\n      dup1\n      dup3\n      dup2\n      mstore\n      0x20\n      add\n      swap2\n      pop\n      pop\n      mload(0x40)\n      dup1\n      swap2\n      sub\n      swap1\n      log1\n        /* \"scalable-dex/contracts/src/starkex/components/VaultLocks.sol\":698:1003  function setDefaultVaultWithdrawalLock(uint256 newDefaultTime) public onlyGovernance {... */\n      pop\n      jump\t// out\n        /* \"scalable-dex/contracts/src/interactions/TokenQuantization.sol\":576:934  function getQuantum(uint256 presumedAssetType) public view override returns (uint256 quantum) {... */\n    tag_128:\n        /* \"scalable-dex/contracts/src/interactions/TokenQuantization.sol\":653:668  uint256 quantum */\n      0x00\n        /* \"scalable-dex/contracts/src/interactions/TokenQuantization.sol\":685:704  registeredAssetType */\n      0x15\n        /* \"scalable-dex/contracts/src/interactions/TokenQuantization.sol\":685:723  registeredAssetType[presumedAssetType] */\n      0x00\n        /* \"scalable-dex/contracts/src/interactions/TokenQuantization.sol\":705:722  presumedAssetType */\n      dup4\n        /* \"scalable-dex/contracts/src/interactions/TokenQuantization.sol\":685:723  registeredAssetType[presumedAssetType] */\n      dup2\n      mstore\n      0x20\n      add\n      swap1\n      dup2\n      mstore\n      0x20\n      add\n      0x00\n      keccak256\n      0x00\n      swap1\n      sload\n      swap1\n      0x0100\n      exp\n      swap1\n      div\n      0xff\n      and\n        /* \"scalable-dex/contracts/src/interactions/TokenQuantization.sol\":680:928  if (!registeredAssetType[presumedAssetType]) {... */\n      tag_215\n      jumpi\n        /* \"scalable-dex/contracts/src/interactions/TokenQuantization.sol\":800:801  1 */\n      0x01\n        /* \"scalable-dex/contracts/src/interactions/TokenQuantization.sol\":790:801  quantum = 1 */\n      swap1\n      pop\n        /* \"scalable-dex/contracts/src/interactions/TokenQuantization.sol\":680:928  if (!registeredAssetType[presumedAssetType]) {... */\n      jump(tag_216)\n    tag_215:\n        /* \"scalable-dex/contracts/src/interactions/TokenQuantization.sol\":880:898  assetTypeToQuantum */\n      0x16\n        /* \"scalable-dex/contracts/src/interactions/TokenQuantization.sol\":880:917  assetTypeToQuantum[presumedAssetType] */\n      0x00\n        /* \"scalable-dex/contracts/src/interactions/TokenQuantization.sol\":899:916  presumedAssetType */\n      dup4\n        /* \"scalable-dex/contracts/src/interactions/TokenQuantization.sol\":880:917  assetTypeToQuantum[presumedAssetType] */\n      dup2\n      mstore\n      0x20\n      add\n      swap1\n      dup2\n      mstore\n      0x20\n      add\n      0x00\n      keccak256\n      sload\n        /* \"scalable-dex/contracts/src/interactions/TokenQuantization.sol\":870:917  quantum = assetTypeToQuantum[presumedAssetType] */\n      swap1\n      pop\n        /* \"scalable-dex/contracts/src/interactions/TokenQuantization.sol\":680:928  if (!registeredAssetType[presumedAssetType]) {... */\n    tag_216:\n        /* \"scalable-dex/contracts/src/interactions/TokenQuantization.sol\":576:934  function getQuantum(uint256 presumedAssetType) public view override returns (uint256 quantum) {... */\n      swap2\n      swap1\n      pop\n      jump\t// out\n        /* \"scalable-dex/contracts/src/libraries/LibConstants.sol\":1696:1758  uint256 public constant MAX_FORCED_ACTIONS_REQS_PER_BLOCK = 10 */\n    tag_131:\n        /* \"scalable-dex/contracts/src/libraries/LibConstants.sol\":1756:1758  10 */\n      0x0a\n        /* \"scalable-dex/contracts/src/libraries/LibConstants.sol\":1696:1758  uint256 public constant MAX_FORCED_ACTIONS_REQS_PER_BLOCK = 10 */\n      dup2\n      jump\t// out\n        /* \"scalable-dex/contracts/src/starkex/components/VaultDepositWithdrawal.sol\":1695:1903  function getQuantizedVaultBalance(... */\n    tag_135:\n        /* \"scalable-dex/contracts/src/starkex/components/VaultDepositWithdrawal.sol\":1830:1837  uint256 */\n      0x00\n        /* \"scalable-dex/contracts/src/starkex/components/VaultDepositWithdrawal.sol\":1856:1870  vaultsBalances */\n      0x010000000000000000\n        /* \"scalable-dex/contracts/src/starkex/components/VaultDepositWithdrawal.sol\":1856:1878  vaultsBalances[ethKey] */\n      0x00\n        /* \"scalable-dex/contracts/src/starkex/components/VaultDepositWithdrawal.sol\":1871:1877  ethKey */\n      dup6\n        /* \"scalable-dex/contracts/src/starkex/components/VaultDepositWithdrawal.sol\":1856:1878  vaultsBalances[ethKey] */\n      0xffffffffffffffffffffffffffffffffffffffff\n      and\n      0xffffffffffffffffffffffffffffffffffffffff\n      and\n      dup2\n      mstore\n      0x20\n      add\n      swap1\n      dup2\n      mstore\n      0x20\n      add\n      0x00\n      keccak256\n        /* \"scalable-dex/contracts/src/starkex/components/VaultDepositWithdrawal.sol\":1856:1887  vaultsBalances[ethKey][assetId] */\n      0x00\n        /* \"scalable-dex/contracts/src/starkex/components/VaultDepositWithdrawal.sol\":1879:1886  assetId */\n      dup5\n        /* \"scalable-dex/contracts/src/starkex/components/VaultDepositWithdrawal.sol\":1856:1887  vaultsBalances[ethKey][assetId] */\n      dup2\n      mstore\n      0x20\n      add\n      swap1\n      dup2\n      mstore\n      0x20\n      add\n      0x00\n      keccak256\n        /* \"scalable-dex/contracts/src/starkex/components/VaultDepositWithdrawal.sol\":1856:1896  vaultsBalances[ethKey][assetId][vaultId] */\n      0x00\n        /* \"scalable-dex/contracts/src/starkex/components/VaultDepositWithdrawal.sol\":1888:1895  vaultId */\n      dup4\n        /* \"scalable-dex/contracts/src/starkex/components/VaultDepositWithdrawal.sol\":1856:1896  vaultsBalances[ethKey][assetId][vaultId] */\n      dup2\n      mstore\n      0x20\n      add\n      swap1\n      dup2\n      mstore\n      0x20\n      add\n      0x00\n      keccak256\n      sload\n        /* \"scalable-dex/contracts/src/starkex/components/VaultDepositWithdrawal.sol\":1849:1896  return vaultsBalances[ethKey][assetId][vaultId] */\n      swap1\n      pop\n        /* \"scalable-dex/contracts/src/starkex/components/VaultDepositWithdrawal.sol\":1695:1903  function getQuantizedVaultBalance(... */\n      swap4\n      swap3\n      pop\n      pop\n      pop\n      jump\t// out\n        /* \"scalable-dex/contracts/src/libraries/LibConstants.sol\":988:1044  uint256 public constant MAX_VERIFIER_COUNT = uint256(64) */\n    tag_138:\n        /* \"scalable-dex/contracts/src/libraries/LibConstants.sol\":1041:1043  64 */\n      0x40\n        /* \"scalable-dex/contracts/src/libraries/LibConstants.sol\":988:1044  uint256 public constant MAX_VERIFIER_COUNT = uint256(64) */\n      dup2\n      jump\t// out\n        /* \"scalable-dex/contracts/src/starkex/components/VaultLocks.sol\":1228:1724  function lockVault(... */\n    tag_142:\n        /* \"scalable-dex/contracts/src/starkex/components/VaultLocks.sol\":1346:1372  uint256 currentLockRelease */\n      0x00\n        /* \"scalable-dex/contracts/src/starkex/components/VaultLocks.sol\":1375:1427  getVaultWithdrawalLock(msg.sender, assetId, vaultId) */\n      tag_219\n        /* \"scalable-dex/contracts/src/starkex/components/VaultLocks.sol\":1398:1408  msg.sender */\n      caller\n        /* \"scalable-dex/contracts/src/starkex/components/VaultLocks.sol\":1410:1417  assetId */\n      dup6\n        /* \"scalable-dex/contracts/src/starkex/components/VaultLocks.sol\":1419:1426  vaultId */\n      dup6\n        /* \"scalable-dex/contracts/src/starkex/components/VaultLocks.sol\":1375:1397  getVaultWithdrawalLock */\n      tag_96\n        /* \"scalable-dex/contracts/src/starkex/components/VaultLocks.sol\":1375:1427  getVaultWithdrawalLock(msg.sender, assetId, vaultId) */\n      jump\t// in\n    tag_219:\n        /* \"scalable-dex/contracts/src/starkex/components/VaultLocks.sol\":1346:1427  uint256 currentLockRelease = getVaultWithdrawalLock(msg.sender, assetId, vaultId) */\n      swap1\n      pop\n        /* \"scalable-dex/contracts/src/starkex/components/VaultLocks.sol\":1437:1456  uint256 timeRelease */\n      0x00\n        /* \"scalable-dex/contracts/src/starkex/components/VaultLocks.sol\":1477:1485  lockTime */\n      dup3\n        /* \"scalable-dex/contracts/src/starkex/components/VaultLocks.sol\":1459:1474  block.timestamp */\n      timestamp\n        /* \"scalable-dex/contracts/src/starkex/components/VaultLocks.sol\":1459:1485  block.timestamp + lockTime */\n      add\n        /* \"scalable-dex/contracts/src/starkex/components/VaultLocks.sol\":1437:1485  uint256 timeRelease = block.timestamp + lockTime */\n      swap1\n      pop\n        /* \"scalable-dex/contracts/src/starkex/components/VaultLocks.sol\":1518:1536  currentLockRelease */\n      dup2\n        /* \"scalable-dex/contracts/src/starkex/components/VaultLocks.sol\":1503:1514  timeRelease */\n      dup2\n        /* \"scalable-dex/contracts/src/starkex/components/VaultLocks.sol\":1503:1536  timeRelease >= currentLockRelease */\n      lt\n      iszero\n        /* \"scalable-dex/contracts/src/starkex/components/VaultLocks.sol\":1495:1558  require(timeRelease >= currentLockRelease, \"INVALID_LOCK_TIME\") */\n      tag_220\n      jumpi\n      mload(0x40)\n      0x08c379a000000000000000000000000000000000000000000000000000000000\n      dup2\n      mstore\n      0x04\n      add\n      dup1\n      dup1\n      0x20\n      add\n      dup3\n      dup2\n      sub\n      dup3\n      mstore\n      0x11\n      dup2\n      mstore\n      0x20\n      add\n      dup1\n      0x494e56414c49445f4c4f434b5f54494d45000000000000000000000000000000\n      dup2\n      mstore\n      pop\n      0x20\n      add\n      swap2\n      pop\n      pop\n      mload(0x40)\n      dup1\n      swap2\n      sub\n      swap1\n      revert\n    tag_220:\n        /* \"scalable-dex/contracts/src/starkex/components/VaultLocks.sol\":1623:1634  timeRelease */\n      dup1\n        /* \"scalable-dex/contracts/src/starkex/components/VaultLocks.sol\":1569:1590  vaultsWithdrawalLocks */\n      0x010000000000000001\n        /* \"scalable-dex/contracts/src/starkex/components/VaultLocks.sol\":1569:1602  vaultsWithdrawalLocks[msg.sender] */\n      0x00\n        /* \"scalable-dex/contracts/src/starkex/components/VaultLocks.sol\":1591:1601  msg.sender */\n      caller\n        /* \"scalable-dex/contracts/src/starkex/components/VaultLocks.sol\":1569:1602  vaultsWithdrawalLocks[msg.sender] */\n      0xffffffffffffffffffffffffffffffffffffffff\n      and\n      0xffffffffffffffffffffffffffffffffffffffff\n      and\n      dup2\n      mstore\n      0x20\n      add\n      swap1\n      dup2\n      mstore\n      0x20\n      add\n      0x00\n      keccak256\n        /* \"scalable-dex/contracts/src/starkex/components/VaultLocks.sol\":1569:1611  vaultsWithdrawalLocks[msg.sender][assetId] */\n      0x00\n        /* \"scalable-dex/contracts/src/starkex/components/VaultLocks.sol\":1603:1610  assetId */\n      dup8\n        /* \"scalable-dex/contracts/src/starkex/components/VaultLocks.sol\":1569:1611  vaultsWithdrawalLocks[msg.sender][assetId] */\n      dup2\n      mstore\n      0x20\n      add\n      swap1\n      dup2\n      mstore\n      0x20\n      add\n      0x00\n      keccak256\n        /* \"scalable-dex/contracts/src/starkex/components/VaultLocks.sol\":1569:1620  vaultsWithdrawalLocks[msg.sender][assetId][vaultId] */\n      0x00\n        /* \"scalable-dex/contracts/src/starkex/components/VaultLocks.sol\":1612:1619  vaultId */\n      dup7\n        /* \"scalable-dex/contracts/src/starkex/components/VaultLocks.sol\":1569:1620  vaultsWithdrawalLocks[msg.sender][assetId][vaultId] */\n      dup2\n      mstore\n      0x20\n      add\n      swap1\n      dup2\n      mstore\n      0x20\n      add\n      0x00\n      keccak256\n        /* \"scalable-dex/contracts/src/starkex/components/VaultLocks.sol\":1569:1634  vaultsWithdrawalLocks[msg.sender][assetId][vaultId] = timeRelease */\n      dup2\n      swap1\n      sstore\n      pop\n        /* \"scalable-dex/contracts/src/starkex/components/VaultLocks.sol\":1649:1717  LogVaultWithdrawalLockSet(msg.sender, assetId, vaultId, timeRelease) */\n      0xcd08744f6e50d6b64d69f8a5eddc7f66e34db287f51c1da789ff770ebc7cf73e\n        /* \"scalable-dex/contracts/src/starkex/components/VaultLocks.sol\":1675:1685  msg.sender */\n      caller\n        /* \"scalable-dex/contracts/src/starkex/components/VaultLocks.sol\":1687:1694  assetId */\n      dup7\n        /* \"scalable-dex/contracts/src/starkex/components/VaultLocks.sol\":1696:1703  vaultId */\n      dup7\n        /* \"scalable-dex/contracts/src/starkex/components/VaultLocks.sol\":1705:1716  timeRelease */\n      dup5\n        /* \"scalable-dex/contracts/src/starkex/components/VaultLocks.sol\":1649:1717  LogVaultWithdrawalLockSet(msg.sender, assetId, vaultId, timeRelease) */\n      mload(0x40)\n      dup1\n      dup6\n      0xffffffffffffffffffffffffffffffffffffffff\n      and\n      dup2\n      mstore\n      0x20\n      add\n      dup5\n      dup2\n      mstore\n      0x20\n      add\n      dup4\n      dup2\n      mstore\n      0x20\n      add\n      dup3\n      dup2\n      mstore\n      0x20\n      add\n      swap5\n      pop\n      pop\n      pop\n      pop\n      pop\n      mload(0x40)\n      dup1\n      swap2\n      sub\n      swap1\n      log1\n        /* \"scalable-dex/contracts/src/starkex/components/VaultLocks.sol\":1228:1724  function lockVault(... */\n      pop\n      pop\n      pop\n      pop\n      pop\n      jump\t// out\n        /* \"scalable-dex/contracts/src/starkex/toplevel_subcontracts/OnchainVaults.sol\":570:693  function identify() external pure override returns (string memory) {... */\n    tag_145:\n        /* \"scalable-dex/contracts/src/starkex/toplevel_subcontracts/OnchainVaults.sol\":622:635  string memory */\n      0x60\n        /* \"scalable-dex/contracts/src/starkex/toplevel_subcontracts/OnchainVaults.sol\":647:686  return \"StarkWare_OnchainVaults_2021_1\" */\n      mload(0x40)\n      dup1\n      0x40\n      add\n      0x40\n      mstore\n      dup1\n      0x1e\n      dup2\n      mstore\n      0x20\n      add\n      0x537461726b576172655f4f6e636861696e5661756c74735f323032315f310000\n      dup2\n      mstore\n      pop\n      swap1\n      pop\n        /* \"scalable-dex/contracts/src/starkex/toplevel_subcontracts/OnchainVaults.sol\":570:693  function identify() external pure override returns (string memory) {... */\n      swap1\n      jump\t// out\n        /* \"scalable-dex/contracts/src/interactions/TokenAssetData.sol\":1780:2106  function getAssetInfo(uint256 assetType) public view override returns (bytes memory assetInfo) {... */\n    tag_153:\n        /* \"scalable-dex/contracts/src/interactions/TokenAssetData.sol\":1851:1873  bytes memory assetInfo */\n      0x60\n        /* \"scalable-dex/contracts/src/interactions/TokenAssetData.sol\":1951:1970  registeredAssetType */\n      0x15\n        /* \"scalable-dex/contracts/src/interactions/TokenAssetData.sol\":1951:1981  registeredAssetType[assetType] */\n      0x00\n        /* \"scalable-dex/contracts/src/interactions/TokenAssetData.sol\":1971:1980  assetType */\n      dup4\n        /* \"scalable-dex/contracts/src/interactions/TokenAssetData.sol\":1951:1981  registeredAssetType[assetType] */\n      dup2\n      mstore\n      0x20\n      add\n      swap1\n      dup2\n      mstore\n      0x20\n      add\n      0x00\n      keccak256\n      0x00\n      swap1\n      sload\n      swap1\n      0x0100\n      exp\n      swap1\n      div\n      0xff\n      and\n        /* \"scalable-dex/contracts/src/interactions/TokenAssetData.sol\":1943:2011  require(registeredAssetType[assetType], \"ASSET_TYPE_NOT_REGISTERED\") */\n      tag_223\n      jumpi\n      mload(0x40)\n      0x08c379a000000000000000000000000000000000000000000000000000000000\n      dup2\n      mstore\n      0x04\n      add\n      dup1\n      dup1\n      0x20\n      add\n      dup3\n      dup2\n      sub\n      dup3\n      mstore\n      0x19\n      dup2\n      mstore\n      0x20\n      add\n      dup1\n      0x41535345545f545950455f4e4f545f5245474953544552454400000000000000\n      dup2\n      mstore\n      pop\n      0x20\n      add\n      swap2\n      pop\n      pop\n      mload(0x40)\n      dup1\n      swap2\n      sub\n      swap1\n      revert\n    tag_223:\n        /* \"scalable-dex/contracts/src/interactions/TokenAssetData.sol\":2068:2088  assetTypeToAssetInfo */\n      0x14\n        /* \"scalable-dex/contracts/src/interactions/TokenAssetData.sol\":2068:2099  assetTypeToAssetInfo[assetType] */\n      0x00\n        /* \"scalable-dex/contracts/src/interactions/TokenAssetData.sol\":2089:2098  assetType */\n      dup4\n        /* \"scalable-dex/contracts/src/interactions/TokenAssetData.sol\":2068:2099  assetTypeToAssetInfo[assetType] */\n      dup2\n      mstore\n      0x20\n      add\n      swap1\n      dup2\n      mstore\n      0x20\n      add\n      0x00\n      keccak256\n        /* \"scalable-dex/contracts/src/interactions/TokenAssetData.sol\":2056:2099  assetInfo = assetTypeToAssetInfo[assetType] */\n      dup1\n      sload\n      0x01\n      dup2\n      0x01\n      and\n      iszero\n      0x0100\n      mul\n      sub\n      and\n      0x02\n      swap1\n      div\n      dup1\n      0x1f\n      add\n      0x20\n      dup1\n      swap2\n      div\n      mul\n      0x20\n      add\n      mload(0x40)\n      swap1\n      dup2\n      add\n      0x40\n      mstore\n      dup1\n      swap3\n      swap2\n      swap1\n      dup2\n      dup2\n      mstore\n      0x20\n      add\n      dup3\n      dup1\n      sload\n      0x01\n      dup2\n      0x01\n      and\n      iszero\n      0x0100\n      mul\n      sub\n      and\n      0x02\n      swap1\n      div\n      dup1\n      iszero\n      tag_224\n      jumpi\n      dup1\n      0x1f\n      lt\n      tag_225\n      jumpi\n      0x0100\n      dup1\n      dup4\n      sload\n      div\n      mul\n      dup4\n      mstore\n      swap2\n      0x20\n      add\n      swap2\n      jump(tag_224)\n    tag_225:\n      dup3\n      add\n      swap2\n      swap1\n      0x00\n      mstore\n      keccak256(0x00, 0x20)\n      swap1\n    tag_226:\n      dup2\n      sload\n      dup2\n      mstore\n      swap1\n      0x01\n      add\n      swap1\n      0x20\n      add\n      dup1\n      dup4\n      gt\n      tag_226\n      jumpi\n      dup3\n      swap1\n      sub\n      0x1f\n      and\n      dup3\n      add\n      swap2\n    tag_224:\n      pop\n      pop\n      pop\n      pop\n      pop\n      swap1\n      pop\n        /* \"scalable-dex/contracts/src/interactions/TokenAssetData.sol\":1780:2106  function getAssetInfo(uint256 assetType) public view override returns (bytes memory assetInfo) {... */\n      swap2\n      swap1\n      pop\n      jump\t// out\n        /* \"scalable-dex/contracts/src/interactions/TokenQuantization.sol\":222:570  function fromQuantized(uint256 presumedAssetType, uint256 quantizedAmount)... */\n    tag_161:\n        /* \"scalable-dex/contracts/src/interactions/TokenQuantization.sol\":361:375  uint256 amount */\n      0x00\n        /* \"scalable-dex/contracts/src/interactions/TokenQuantization.sol\":391:406  uint256 quantum */\n      dup1\n        /* \"scalable-dex/contracts/src/interactions/TokenQuantization.sol\":409:438  getQuantum(presumedAssetType) */\n      tag_228\n        /* \"scalable-dex/contracts/src/interactions/TokenQuantization.sol\":420:437  presumedAssetType */\n      dup5\n        /* \"scalable-dex/contracts/src/interactions/TokenQuantization.sol\":409:419  getQuantum */\n      tag_128\n        /* \"scalable-dex/contracts/src/interactions/TokenQuantization.sol\":409:438  getQuantum(presumedAssetType) */\n      jump\t// in\n    tag_228:\n        /* \"scalable-dex/contracts/src/interactions/TokenQuantization.sol\":391:438  uint256 quantum = getQuantum(presumedAssetType) */\n      swap1\n      pop\n        /* \"scalable-dex/contracts/src/interactions/TokenQuantization.sol\":475:482  quantum */\n      dup1\n        /* \"scalable-dex/contracts/src/interactions/TokenQuantization.sol\":457:472  quantizedAmount */\n      dup4\n        /* \"scalable-dex/contracts/src/interactions/TokenQuantization.sol\":457:482  quantizedAmount * quantum */\n      mul\n        /* \"scalable-dex/contracts/src/interactions/TokenQuantization.sol\":448:482  amount = quantizedAmount * quantum */\n      swap2\n      pop\n        /* \"scalable-dex/contracts/src/interactions/TokenQuantization.sol\":520:535  quantizedAmount */\n      dup3\n        /* \"scalable-dex/contracts/src/interactions/TokenQuantization.sol\":509:516  quantum */\n      dup2\n        /* \"scalable-dex/contracts/src/interactions/TokenQuantization.sol\":500:506  amount */\n      dup4\n        /* \"scalable-dex/contracts/src/interactions/TokenQuantization.sol\":500:516  amount / quantum */\n      dup2\n      tag_229\n      jumpi\n      invalid\n    tag_229:\n      div\n        /* \"scalable-dex/contracts/src/interactions/TokenQuantization.sol\":500:535  amount / quantum == quantizedAmount */\n      eq\n        /* \"scalable-dex/contracts/src/interactions/TokenQuantization.sol\":492:563  require(amount / quantum == quantizedAmount, \"DEQUANTIZATION_OVERFLOW\") */\n      tag_230\n      jumpi\n      mload(0x40)\n      0x08c379a000000000000000000000000000000000000000000000000000000000\n      dup2\n      mstore\n      0x04\n      add\n      dup1\n      dup1\n      0x20\n      add\n      dup3\n      dup2\n      sub\n      dup3\n      mstore\n      0x17\n      dup2\n      mstore\n      0x20\n      add\n      dup1\n      0x44455155414e54495a4154494f4e5f4f564552464c4f57000000000000000000\n      dup2\n      mstore\n      pop\n      0x20\n      add\n      swap2\n      pop\n      pop\n      mload(0x40)\n      dup1\n      swap2\n      sub\n      swap1\n      revert\n    tag_230:\n        /* \"scalable-dex/contracts/src/interactions/TokenQuantization.sol\":222:570  function fromQuantized(uint256 presumedAssetType, uint256 quantizedAmount)... */\n      pop\n      swap3\n      swap2\n      pop\n      pop\n      jump\t// out\n        /* \"scalable-dex/contracts/src/interactions/TokenAssetData.sol\":2613:2945  function isFungibleAssetType(uint256 assetType) internal view override returns (bool) {... */\n    tag_164:\n        /* \"scalable-dex/contracts/src/interactions/TokenAssetData.sol\":2693:2697  bool */\n      0x00\n        /* \"scalable-dex/contracts/src/interactions/TokenAssetData.sol\":2709:2729  bytes4 tokenSelector */\n      dup1\n        /* \"scalable-dex/contracts/src/interactions/TokenAssetData.sol\":2732:2777  extractTokenSelector(getAssetInfo(assetType)) */\n      tag_232\n        /* \"scalable-dex/contracts/src/interactions/TokenAssetData.sol\":2753:2776  getAssetInfo(assetType) */\n      tag_233\n        /* \"scalable-dex/contracts/src/interactions/TokenAssetData.sol\":2766:2775  assetType */\n      dup5\n        /* \"scalable-dex/contracts/src/interactions/TokenAssetData.sol\":2753:2765  getAssetInfo */\n      tag_153\n        /* \"scalable-dex/contracts/src/interactions/TokenAssetData.sol\":2753:2776  getAssetInfo(assetType) */\n      jump\t// in\n    tag_233:\n        /* \"scalable-dex/contracts/src/interactions/TokenAssetData.sol\":2732:2752  extractTokenSelector */\n      tag_234\n        /* \"scalable-dex/contracts/src/interactions/TokenAssetData.sol\":2732:2777  extractTokenSelector(getAssetInfo(assetType)) */\n      jump\t// in\n    tag_232:\n        /* \"scalable-dex/contracts/src/interactions/TokenAssetData.sol\":2709:2777  bytes4 tokenSelector = extractTokenSelector(getAssetInfo(assetType)) */\n      swap1\n      pop\n        /* \"scalable-dex/contracts/src/interactions/TokenAssetData.sol\":436:454  keccak256(\"ETH()\") */\n      0x8322fff276cdf3f5716784c2e78b276d0d5cf1781fe7a7984e8bff96f75632c6\n        /* \"scalable-dex/contracts/src/interactions/TokenAssetData.sol\":2806:2835  tokenSelector == ETH_SELECTOR */\n      not(0xffffffffffffffffffffffffffffffffffffffffffffffffffffffff)\n      and\n        /* \"scalable-dex/contracts/src/interactions/TokenAssetData.sol\":2806:2819  tokenSelector */\n      dup2\n        /* \"scalable-dex/contracts/src/interactions/TokenAssetData.sol\":2806:2835  tokenSelector == ETH_SELECTOR */\n      not(0xffffffffffffffffffffffffffffffffffffffffffffffffffffffff)\n      and\n      eq\n        /* \"scalable-dex/contracts/src/interactions/TokenAssetData.sol\":2806:2882  tokenSelector == ETH_SELECTOR ||... */\n      dup1\n      tag_235\n      jumpi\n      pop\n        /* \"scalable-dex/contracts/src/interactions/TokenAssetData.sol\":350:382  keccak256(\"ERC20Token(address)\") */\n      0xf47261b06eedbfce68afd46d0f3c27c60b03faad319eaf33103611cf8f6456ad\n        /* \"scalable-dex/contracts/src/interactions/TokenAssetData.sol\":2851:2882  tokenSelector == ERC20_SELECTOR */\n      not(0xffffffffffffffffffffffffffffffffffffffffffffffffffffffff)\n      and\n        /* \"scalable-dex/contracts/src/interactions/TokenAssetData.sol\":2851:2864  tokenSelector */\n      dup2\n        /* \"scalable-dex/contracts/src/interactions/TokenAssetData.sol\":2851:2882  tokenSelector == ERC20_SELECTOR */\n      not(0xffffffffffffffffffffffffffffffffffffffffffffffffffffffff)\n      and\n      eq\n        /* \"scalable-dex/contracts/src/interactions/TokenAssetData.sol\":2806:2882  tokenSelector == ETH_SELECTOR ||... */\n    tag_235:\n        /* \"scalable-dex/contracts/src/interactions/TokenAssetData.sol\":2806:2938  tokenSelector == ETH_SELECTOR ||... */\n      dup1\n      tag_236\n      jumpi\n      pop\n        /* \"scalable-dex/contracts/src/interactions/TokenAssetData.sol\":625:665  keccak256(\"MintableERC20Token(address)\") */\n      0x68646e2d4d60fd63368774f59858335cc28e4c682fa6cfbd77d48c508e7a1c41\n        /* \"scalable-dex/contracts/src/interactions/TokenAssetData.sol\":2898:2938  tokenSelector == MINTABLE_ERC20_SELECTOR */\n      not(0xffffffffffffffffffffffffffffffffffffffffffffffffffffffff)\n      and\n        /* \"scalable-dex/contracts/src/interactions/TokenAssetData.sol\":2898:2911  tokenSelector */\n      dup2\n        /* \"scalable-dex/contracts/src/interactions/TokenAssetData.sol\":2898:2938  tokenSelector == MINTABLE_ERC20_SELECTOR */\n      not(0xffffffffffffffffffffffffffffffffffffffffffffffffffffffff)\n      and\n      eq\n        /* \"scalable-dex/contracts/src/interactions/TokenAssetData.sol\":2806:2938  tokenSelector == ETH_SELECTOR ||... */\n    tag_236:\n        /* \"scalable-dex/contracts/src/interactions/TokenAssetData.sol\":2787:2938  return... */\n      swap2\n      pop\n      pop\n        /* \"scalable-dex/contracts/src/interactions/TokenAssetData.sol\":2613:2945  function isFungibleAssetType(uint256 assetType) internal view override returns (bool) {... */\n      swap2\n      swap1\n      pop\n      jump\t// out\n        /* \"scalable-dex/contracts/src/starkex/components/VaultDepositWithdrawal.sol\":860:1689  function depositToVault(... */\n    tag_167:\n        /* \"scalable-dex/contracts/src/starkex/components/VaultDepositWithdrawal.sol\":1001:1029  isMintableAssetType(assetId) */\n      tag_238\n        /* \"scalable-dex/contracts/src/starkex/components/VaultDepositWithdrawal.sol\":1021:1028  assetId */\n      dup4\n        /* \"scalable-dex/contracts/src/starkex/components/VaultDepositWithdrawal.sol\":1001:1020  isMintableAssetType */\n      tag_201\n        /* \"scalable-dex/contracts/src/starkex/components/VaultDepositWithdrawal.sol\":1001:1029  isMintableAssetType(assetId) */\n      jump\t// in\n    tag_238:\n        /* \"scalable-dex/contracts/src/starkex/components/VaultDepositWithdrawal.sol\":1000:1029  !isMintableAssetType(assetId) */\n      iszero\n        /* \"scalable-dex/contracts/src/starkex/components/VaultDepositWithdrawal.sol\":992:1053  require(!isMintableAssetType(assetId), \"MINTABLE_ASSET_TYPE\") */\n      tag_239\n      jumpi\n      mload(0x40)\n      0x08c379a000000000000000000000000000000000000000000000000000000000\n      dup2\n      mstore\n      0x04\n      add\n      dup1\n      dup1\n      0x20\n      add\n      dup3\n      dup2\n      sub\n      dup3\n      mstore\n      0x13\n      dup2\n      mstore\n      0x20\n      add\n      dup1\n      0x4d494e5441424c455f41535345545f5459504500000000000000000000000000\n      dup2\n      mstore\n      pop\n      0x20\n      add\n      swap2\n      pop\n      pop\n      mload(0x40)\n      dup1\n      swap2\n      sub\n      swap1\n      revert\n    tag_239:\n        /* \"scalable-dex/contracts/src/starkex/components/VaultDepositWithdrawal.sol\":1136:1170  applyDefaultLock(assetId, vaultId) */\n      tag_240\n        /* \"scalable-dex/contracts/src/starkex/components/VaultDepositWithdrawal.sol\":1153:1160  assetId */\n      dup4\n        /* \"scalable-dex/contracts/src/starkex/components/VaultDepositWithdrawal.sol\":1162:1169  vaultId */\n      dup4\n        /* \"scalable-dex/contracts/src/starkex/components/VaultDepositWithdrawal.sol\":1136:1152  applyDefaultLock */\n      tag_241\n        /* \"scalable-dex/contracts/src/starkex/components/VaultDepositWithdrawal.sol\":1136:1170  applyDefaultLock(assetId, vaultId) */\n      jump\t// in\n    tag_240:\n        /* \"scalable-dex/contracts/src/starkex/components/VaultDepositWithdrawal.sol\":1259:1274  quantizedAmount */\n      dup1\n        /* \"scalable-dex/contracts/src/starkex/components/VaultDepositWithdrawal.sol\":1211:1225  vaultsBalances */\n      0x010000000000000000\n        /* \"scalable-dex/contracts/src/starkex/components/VaultDepositWithdrawal.sol\":1211:1237  vaultsBalances[msg.sender] */\n      0x00\n        /* \"scalable-dex/contracts/src/starkex/components/VaultDepositWithdrawal.sol\":1226:1236  msg.sender */\n      caller\n        /* \"scalable-dex/contracts/src/starkex/components/VaultDepositWithdrawal.sol\":1211:1237  vaultsBalances[msg.sender] */\n      0xffffffffffffffffffffffffffffffffffffffff\n      and\n      0xffffffffffffffffffffffffffffffffffffffff\n      and\n      dup2\n      mstore\n      0x20\n      add\n      swap1\n      dup2\n      mstore\n      0x20\n      add\n      0x00\n      keccak256\n        /* \"scalable-dex/contracts/src/starkex/components/VaultDepositWithdrawal.sol\":1211:1246  vaultsBalances[msg.sender][assetId] */\n      0x00\n        /* \"scalable-dex/contracts/src/starkex/components/VaultDepositWithdrawal.sol\":1238:1245  assetId */\n      dup6\n        /* \"scalable-dex/contracts/src/starkex/components/VaultDepositWithdrawal.sol\":1211:1246  vaultsBalances[msg.sender][assetId] */\n      dup2\n      mstore\n      0x20\n      add\n      swap1\n      dup2\n      mstore\n      0x20\n      add\n      0x00\n      keccak256\n        /* \"scalable-dex/contracts/src/starkex/components/VaultDepositWithdrawal.sol\":1211:1255  vaultsBalances[msg.sender][assetId][vaultId] */\n      0x00\n        /* \"scalable-dex/contracts/src/starkex/components/VaultDepositWithdrawal.sol\":1247:1254  vaultId */\n      dup5\n        /* \"scalable-dex/contracts/src/starkex/components/VaultDepositWithdrawal.sol\":1211:1255  vaultsBalances[msg.sender][assetId][vaultId] */\n      dup2\n      mstore\n      0x20\n      add\n      swap1\n      dup2\n      mstore\n      0x20\n      add\n      0x00\n      keccak256\n      0x00\n        /* \"scalable-dex/contracts/src/starkex/components/VaultDepositWithdrawal.sol\":1211:1274  vaultsBalances[msg.sender][assetId][vaultId] += quantizedAmount */\n      dup3\n      dup3\n      sload\n      add\n      swap3\n      pop\n      pop\n      dup2\n      swap1\n      sstore\n      pop\n        /* \"scalable-dex/contracts/src/starkex/components/VaultDepositWithdrawal.sol\":1340:1355  quantizedAmount */\n      dup1\n        /* \"scalable-dex/contracts/src/starkex/components/VaultDepositWithdrawal.sol\":1292:1306  vaultsBalances */\n      0x010000000000000000\n        /* \"scalable-dex/contracts/src/starkex/components/VaultDepositWithdrawal.sol\":1292:1318  vaultsBalances[msg.sender] */\n      0x00\n        /* \"scalable-dex/contracts/src/starkex/components/VaultDepositWithdrawal.sol\":1307:1317  msg.sender */\n      caller\n        /* \"scalable-dex/contracts/src/starkex/components/VaultDepositWithdrawal.sol\":1292:1318  vaultsBalances[msg.sender] */\n      0xffffffffffffffffffffffffffffffffffffffff\n      and\n      0xffffffffffffffffffffffffffffffffffffffff\n      and\n      dup2\n      mstore\n      0x20\n      add\n      swap1\n      dup2\n      mstore\n      0x20\n      add\n      0x00\n      keccak256\n        /* \"scalable-dex/contracts/src/starkex/components/VaultDepositWithdrawal.sol\":1292:1327  vaultsBalances[msg.sender][assetId] */\n      0x00\n        /* \"scalable-dex/contracts/src/starkex/components/VaultDepositWithdrawal.sol\":1319:1326  assetId */\n      dup6\n        /* \"scalable-dex/contracts/src/starkex/components/VaultDepositWithdrawal.sol\":1292:1327  vaultsBalances[msg.sender][assetId] */\n      dup2\n      mstore\n      0x20\n      add\n      swap1\n      dup2\n      mstore\n      0x20\n      add\n      0x00\n      keccak256\n        /* \"scalable-dex/contracts/src/starkex/components/VaultDepositWithdrawal.sol\":1292:1336  vaultsBalances[msg.sender][assetId][vaultId] */\n      0x00\n        /* \"scalable-dex/contracts/src/starkex/components/VaultDepositWithdrawal.sol\":1328:1335  vaultId */\n      dup5\n        /* \"scalable-dex/contracts/src/starkex/components/VaultDepositWithdrawal.sol\":1292:1336  vaultsBalances[msg.sender][assetId][vaultId] */\n      dup2\n      mstore\n      0x20\n      add\n      swap1\n      dup2\n      mstore\n      0x20\n      add\n      0x00\n      keccak256\n      sload\n        /* \"scalable-dex/contracts/src/starkex/components/VaultDepositWithdrawal.sol\":1292:1355  vaultsBalances[msg.sender][assetId][vaultId] >= quantizedAmount */\n      lt\n      iszero\n        /* \"scalable-dex/contracts/src/starkex/components/VaultDepositWithdrawal.sol\":1284:1374  require(vaultsBalances[msg.sender][assetId][vaultId] >= quantizedAmount, \"VAULT_OVERFLOW\") */\n      tag_242\n      jumpi\n      mload(0x40)\n      0x08c379a000000000000000000000000000000000000000000000000000000000\n      dup2\n      mstore\n      0x04\n      add\n      dup1\n      dup1\n      0x20\n      add\n      dup3\n      dup2\n      sub\n      dup3\n      mstore\n      0x0e\n      dup2\n      mstore\n      0x20\n      add\n      dup1\n      0x5641554c545f4f564552464c4f57000000000000000000000000000000000000\n      dup2\n      mstore\n      pop\n      0x20\n      add\n      swap2\n      pop\n      pop\n      mload(0x40)\n      dup1\n      swap2\n      sub\n      swap1\n      revert\n    tag_242:\n        /* \"scalable-dex/contracts/src/starkex/components/VaultDepositWithdrawal.sol\":1433:1469  transferIn(assetId, quantizedAmount) */\n      tag_243\n        /* \"scalable-dex/contracts/src/starkex/components/VaultDepositWithdrawal.sol\":1444:1451  assetId */\n      dup4\n        /* \"scalable-dex/contracts/src/starkex/components/VaultDepositWithdrawal.sol\":1453:1468  quantizedAmount */\n      dup3\n        /* \"scalable-dex/contracts/src/starkex/components/VaultDepositWithdrawal.sol\":1433:1443  transferIn */\n      tag_244\n        /* \"scalable-dex/contracts/src/starkex/components/VaultDepositWithdrawal.sol\":1433:1469  transferIn(assetId, quantizedAmount) */\n      jump\t// in\n    tag_243:\n        /* \"scalable-dex/contracts/src/starkex/components/VaultDepositWithdrawal.sol\":1507:1682  LogDepositToVault(... */\n      0x31f9107e2d3910ab3e05f1950b34a1983eceaed380fbcdc68ae159c4cf8cee75\n        /* \"scalable-dex/contracts/src/starkex/components/VaultDepositWithdrawal.sol\":1538:1548  msg.sender */\n      caller\n        /* \"scalable-dex/contracts/src/starkex/components/VaultDepositWithdrawal.sol\":1562:1569  assetId */\n      dup5\n        /* \"scalable-dex/contracts/src/starkex/components/VaultDepositWithdrawal.sol\":1583:1590  vaultId */\n      dup5\n        /* \"scalable-dex/contracts/src/starkex/components/VaultDepositWithdrawal.sol\":1604:1643  fromQuantized(assetId, quantizedAmount) */\n      tag_245\n        /* \"scalable-dex/contracts/src/starkex/components/VaultDepositWithdrawal.sol\":1618:1625  assetId */\n      dup8\n        /* \"scalable-dex/contracts/src/starkex/components/VaultDepositWithdrawal.sol\":1627:1642  quantizedAmount */\n      dup7\n        /* \"scalable-dex/contracts/src/starkex/components/VaultDepositWithdrawal.sol\":1604:1617  fromQuantized */\n      tag_161\n        /* \"scalable-dex/contracts/src/starkex/components/VaultDepositWithdrawal.sol\":1604:1643  fromQuantized(assetId, quantizedAmount) */\n      jump\t// in\n    tag_245:\n        /* \"scalable-dex/contracts/src/starkex/components/VaultDepositWithdrawal.sol\":1657:1672  quantizedAmount */\n      dup6\n        /* \"scalable-dex/contracts/src/starkex/components/VaultDepositWithdrawal.sol\":1507:1682  LogDepositToVault(... */\n      mload(0x40)\n      dup1\n      dup7\n      0xffffffffffffffffffffffffffffffffffffffff\n      and\n      dup2\n      mstore\n      0x20\n      add\n      dup6\n      dup2\n      mstore\n      0x20\n      add\n      dup5\n      dup2\n      mstore\n      0x20\n      add\n      dup4\n      dup2\n      mstore\n      0x20\n      add\n      dup3\n      dup2\n      mstore\n      0x20\n      add\n      swap6\n      pop\n      pop\n      pop\n      pop\n      pop\n      pop\n      mload(0x40)\n      dup1\n      swap2\n      sub\n      swap1\n      log1\n        /* \"scalable-dex/contracts/src/starkex/components/VaultDepositWithdrawal.sol\":860:1689  function depositToVault(... */\n      pop\n      pop\n      pop\n      jump\t// out\n        /* \"scalable-dex/contracts/src/components/Governance.sol\":3847:4349  function acceptGovernance() internal {... */\n    tag_172:\n        /* \"scalable-dex/contracts/src/components/Governance.sol\":3975:4007  GovernanceInfoStruct storage gub */\n      0x00\n        /* \"scalable-dex/contracts/src/components/Governance.sol\":4010:4034  contractGovernanceInfo() */\n      tag_247\n        /* \"scalable-dex/contracts/src/components/Governance.sol\":4010:4032  contractGovernanceInfo */\n      tag_248\n        /* \"scalable-dex/contracts/src/components/Governance.sol\":4010:4034  contractGovernanceInfo() */\n      jump\t// in\n    tag_247:\n        /* \"scalable-dex/contracts/src/components/Governance.sol\":3975:4034  GovernanceInfoStruct storage gub = contractGovernanceInfo() */\n      swap1\n      pop\n        /* \"scalable-dex/contracts/src/components/Governance.sol\":4066:4069  gub */\n      dup1\n        /* \"scalable-dex/contracts/src/components/Governance.sol\":4066:4087  gub.candidateGovernor */\n      0x01\n      add\n      0x00\n      swap1\n      sload\n      swap1\n      0x0100\n      exp\n      swap1\n      div\n      0xffffffffffffffffffffffffffffffffffffffff\n      and\n        /* \"scalable-dex/contracts/src/components/Governance.sol\":4052:4087  msg.sender == gub.candidateGovernor */\n      0xffffffffffffffffffffffffffffffffffffffff\n      and\n        /* \"scalable-dex/contracts/src/components/Governance.sol\":4052:4062  msg.sender */\n      caller\n        /* \"scalable-dex/contracts/src/components/Governance.sol\":4052:4087  msg.sender == gub.candidateGovernor */\n      0xffffffffffffffffffffffffffffffffffffffff\n      and\n      eq\n        /* \"scalable-dex/contracts/src/components/Governance.sol\":4044:4115  require(msg.sender == gub.candidateGovernor, \"ONLY_CANDIDATE_GOVERNOR\") */\n      tag_249\n      jumpi\n      mload(0x40)\n      0x08c379a000000000000000000000000000000000000000000000000000000000\n      dup2\n      mstore\n      0x04\n      add\n      dup1\n      dup1\n      0x20\n      add\n      dup3\n      dup2\n      sub\n      dup3\n      mstore\n      0x17\n      dup2\n      mstore\n      0x20\n      add\n      dup1\n      0x4f4e4c595f43414e4449444154455f474f5645524e4f52000000000000000000\n      dup2\n      mstore\n      pop\n      0x20\n      add\n      swap2\n      pop\n      pop\n      mload(0x40)\n      dup1\n      swap2\n      sub\n      swap1\n      revert\n    tag_249:\n        /* \"scalable-dex/contracts/src/components/Governance.sol\":4151:4185  addGovernor(gub.candidateGovernor) */\n      tag_250\n        /* \"scalable-dex/contracts/src/components/Governance.sol\":4163:4166  gub */\n      dup2\n        /* \"scalable-dex/contracts/src/components/Governance.sol\":4163:4184  gub.candidateGovernor */\n      0x01\n      add\n      0x00\n      swap1\n      sload\n      swap1\n      0x0100\n      exp\n      swap1\n      div\n      0xffffffffffffffffffffffffffffffffffffffff\n      and\n        /* \"scalable-dex/contracts/src/components/Governance.sol\":4151:4162  addGovernor */\n      tag_251\n        /* \"scalable-dex/contracts/src/components/Governance.sol\":4151:4185  addGovernor(gub.candidateGovernor) */\n      jump\t// in\n    tag_250:\n        /* \"scalable-dex/contracts/src/components/Governance.sol\":4227:4230  0x0 */\n      0x00\n        /* \"scalable-dex/contracts/src/components/Governance.sol\":4195:4198  gub */\n      dup2\n        /* \"scalable-dex/contracts/src/components/Governance.sol\":4195:4216  gub.candidateGovernor */\n      0x01\n      add\n      0x00\n        /* \"scalable-dex/contracts/src/components/Governance.sol\":4195:4231  gub.candidateGovernor = address(0x0) */\n      0x0100\n      exp\n      dup2\n      sload\n      dup2\n      0xffffffffffffffffffffffffffffffffffffffff\n      mul\n      not\n      and\n      swap1\n      dup4\n      0xffffffffffffffffffffffffffffffffffffffff\n      and\n      mul\n      or\n      swap1\n      sstore\n      pop\n        /* \"scalable-dex/contracts/src/components/Governance.sol\":4308:4342  LogNewGovernorAccepted(msg.sender) */\n      0xcfb473e6c03f9a29ddaf990e736fa3de5188a0bd85d684f5b6e164ebfbfff5d2\n        /* \"scalable-dex/contracts/src/components/Governance.sol\":4331:4341  msg.sender */\n      caller\n        /* \"scalable-dex/contracts/src/components/Governance.sol\":4308:4342  LogNewGovernorAccepted(msg.sender) */\n      mload(0x40)\n      dup1\n      dup3\n      0xffffffffffffffffffffffffffffffffffffffff\n      and\n      dup2\n      mstore\n      0x20\n      add\n      swap2\n      pop\n      pop\n      mload(0x40)\n      dup1\n      swap2\n      sub\n      swap1\n      log1\n        /* \"scalable-dex/contracts/src/components/Governance.sol\":3847:4349  function acceptGovernance() internal {... */\n      pop\n      jump\t// out\n        /* \"scalable-dex/contracts/src/components/Governance.sol\":2474:2683  function isGovernor(address testGovernor) internal view override returns (bool) {... */\n    tag_177:\n        /* \"scalable-dex/contracts/src/components/Governance.sol\":2548:2552  bool */\n      0x00\n        /* \"scalable-dex/contracts/src/components/Governance.sol\":2564:2596  GovernanceInfoStruct storage gub */\n      dup1\n        /* \"scalable-dex/contracts/src/components/Governance.sol\":2599:2623  contractGovernanceInfo() */\n      tag_253\n        /* \"scalable-dex/contracts/src/components/Governance.sol\":2599:2621  contractGovernanceInfo */\n      tag_248\n        /* \"scalable-dex/contracts/src/components/Governance.sol\":2599:2623  contractGovernanceInfo() */\n      jump\t// in\n    tag_253:\n        /* \"scalable-dex/contracts/src/components/Governance.sol\":2564:2623  GovernanceInfoStruct storage gub = contractGovernanceInfo() */\n      swap1\n      pop\n        /* \"scalable-dex/contracts/src/components/Governance.sol\":2640:2643  gub */\n      dup1\n        /* \"scalable-dex/contracts/src/components/Governance.sol\":2640:2662  gub.effectiveGovernors */\n      0x00\n      add\n        /* \"scalable-dex/contracts/src/components/Governance.sol\":2640:2676  gub.effectiveGovernors[testGovernor] */\n      0x00\n        /* \"scalable-dex/contracts/src/components/Governance.sol\":2663:2675  testGovernor */\n      dup5\n        /* \"scalable-dex/contracts/src/components/Governance.sol\":2640:2676  gub.effectiveGovernors[testGovernor] */\n      0xffffffffffffffffffffffffffffffffffffffff\n      and\n      0xffffffffffffffffffffffffffffffffffffffff\n      and\n      dup2\n      mstore\n      0x20\n      add\n      swap1\n      dup2\n      mstore\n      0x20\n      add\n      0x00\n      keccak256\n      0x00\n      swap1\n      sload\n      swap1\n      0x0100\n      exp\n      swap1\n      div\n      0xff\n      and\n        /* \"scalable-dex/contracts/src/components/Governance.sol\":2633:2676  return gub.effectiveGovernors[testGovernor] */\n      swap2\n      pop\n      pop\n        /* \"scalable-dex/contracts/src/components/Governance.sol\":2474:2683  function isGovernor(address testGovernor) internal view override returns (bool) {... */\n      swap2\n      swap1\n      pop\n      jump\t// out\n        /* \"scalable-dex/contracts/src/components/Governance.sol\":2757:2970  function cancelNomination() internal onlyGovernance {... */\n    tag_181:\n        /* \"scalable-dex/contracts/src/interfaces/MGovernance.sol\":299:321  isGovernor(msg.sender) */\n      tag_255\n        /* \"scalable-dex/contracts/src/interfaces/MGovernance.sol\":310:320  msg.sender */\n      caller\n        /* \"scalable-dex/contracts/src/interfaces/MGovernance.sol\":299:309  isGovernor */\n      tag_177\n        /* \"scalable-dex/contracts/src/interfaces/MGovernance.sol\":299:321  isGovernor(msg.sender) */\n      jump\t// in\n    tag_255:\n        /* \"scalable-dex/contracts/src/interfaces/MGovernance.sol\":291:341  require(isGovernor(msg.sender), \"ONLY_GOVERNANCE\") */\n      tag_256\n      jumpi\n      mload(0x40)\n      0x08c379a000000000000000000000000000000000000000000000000000000000\n      dup2\n      mstore\n      0x04\n      add\n      dup1\n      dup1\n      0x20\n      add\n      dup3\n      dup2\n      sub\n      dup3\n      mstore\n      0x0f\n      dup2\n      mstore\n      0x20\n      add\n      dup1\n      0x4f4e4c595f474f5645524e414e43450000000000000000000000000000000000\n      dup2\n      mstore\n      pop\n      0x20\n      add\n      swap2\n      pop\n      pop\n      mload(0x40)\n      dup1\n      swap2\n      sub\n      swap1\n      revert\n    tag_256:\n        /* \"scalable-dex/contracts/src/components/Governance.sol\":2819:2851  GovernanceInfoStruct storage gub */\n      0x00\n        /* \"scalable-dex/contracts/src/components/Governance.sol\":2854:2878  contractGovernanceInfo() */\n      tag_258\n        /* \"scalable-dex/contracts/src/components/Governance.sol\":2854:2876  contractGovernanceInfo */\n      tag_248\n        /* \"scalable-dex/contracts/src/components/Governance.sol\":2854:2878  contractGovernanceInfo() */\n      jump\t// in\n    tag_258:\n        /* \"scalable-dex/contracts/src/components/Governance.sol\":2819:2878  GovernanceInfoStruct storage gub = contractGovernanceInfo() */\n      swap1\n      pop\n        /* \"scalable-dex/contracts/src/components/Governance.sol\":2920:2923  0x0 */\n      0x00\n        /* \"scalable-dex/contracts/src/components/Governance.sol\":2888:2891  gub */\n      dup2\n        /* \"scalable-dex/contracts/src/components/Governance.sol\":2888:2909  gub.candidateGovernor */\n      0x01\n      add\n      0x00\n        /* \"scalable-dex/contracts/src/components/Governance.sol\":2888:2924  gub.candidateGovernor = address(0x0) */\n      0x0100\n      exp\n      dup2\n      sload\n      dup2\n      0xffffffffffffffffffffffffffffffffffffffff\n      mul\n      not\n      and\n      swap1\n      dup4\n      0xffffffffffffffffffffffffffffffffffffffff\n      and\n      mul\n      or\n      swap1\n      sstore\n      pop\n        /* \"scalable-dex/contracts/src/components/Governance.sol\":2939:2963  LogNominationCancelled() */\n      0x7a8dc7dd7fffb43c4807438fa62729225156941e641fd877938f4edade3429f5\n      mload(0x40)\n      mload(0x40)\n      dup1\n      swap2\n      sub\n      swap1\n      log1\n        /* \"scalable-dex/contracts/src/interfaces/MGovernance.sol\":351:352  _ */\n      pop\n        /* \"scalable-dex/contracts/src/components/Governance.sol\":2757:2970  function cancelNomination() internal onlyGovernance {... */\n      jump\t// out\n        /* \"scalable-dex/contracts/src/components/Governance.sol\":2976:3282  function nominateNewGovernor(address newGovernor) internal onlyGovernance {... */\n    tag_184:\n        /* \"scalable-dex/contracts/src/interfaces/MGovernance.sol\":299:321  isGovernor(msg.sender) */\n      tag_260\n        /* \"scalable-dex/contracts/src/interfaces/MGovernance.sol\":310:320  msg.sender */\n      caller\n        /* \"scalable-dex/contracts/src/interfaces/MGovernance.sol\":299:309  isGovernor */\n      tag_177\n        /* \"scalable-dex/contracts/src/interfaces/MGovernance.sol\":299:321  isGovernor(msg.sender) */\n      jump\t// in\n    tag_260:\n        /* \"scalable-dex/contracts/src/interfaces/MGovernance.sol\":291:341  require(isGovernor(msg.sender), \"ONLY_GOVERNANCE\") */\n      tag_261\n      jumpi\n      mload(0x40)\n      0x08c379a000000000000000000000000000000000000000000000000000000000\n      dup2\n      mstore\n      0x04\n      add\n      dup1\n      dup1\n      0x20\n      add\n      dup3\n      dup2\n      sub\n      dup3\n      mstore\n      0x0f\n      dup2\n      mstore\n      0x20\n      add\n      dup1\n      0x4f4e4c595f474f5645524e414e43450000000000000000000000000000000000\n      dup2\n      mstore\n      pop\n      0x20\n      add\n      swap2\n      pop\n      pop\n      mload(0x40)\n      dup1\n      swap2\n      sub\n      swap1\n      revert\n    tag_261:\n        /* \"scalable-dex/contracts/src/components/Governance.sol\":3060:3092  GovernanceInfoStruct storage gub */\n      0x00\n        /* \"scalable-dex/contracts/src/components/Governance.sol\":3095:3119  contractGovernanceInfo() */\n      tag_263\n        /* \"scalable-dex/contracts/src/components/Governance.sol\":3095:3117  contractGovernanceInfo */\n      tag_248\n        /* \"scalable-dex/contracts/src/components/Governance.sol\":3095:3119  contractGovernanceInfo() */\n      jump\t// in\n    tag_263:\n        /* \"scalable-dex/contracts/src/components/Governance.sol\":3060:3119  GovernanceInfoStruct storage gub = contractGovernanceInfo() */\n      swap1\n      pop\n        /* \"scalable-dex/contracts/src/components/Governance.sol\":3138:3161  isGovernor(newGovernor) */\n      tag_264\n        /* \"scalable-dex/contracts/src/components/Governance.sol\":3149:3160  newGovernor */\n      dup3\n        /* \"scalable-dex/contracts/src/components/Governance.sol\":3138:3148  isGovernor */\n      tag_177\n        /* \"scalable-dex/contracts/src/components/Governance.sol\":3138:3161  isGovernor(newGovernor) */\n      jump\t// in\n    tag_264:\n        /* \"scalable-dex/contracts/src/components/Governance.sol\":3137:3161  !isGovernor(newGovernor) */\n      iszero\n        /* \"scalable-dex/contracts/src/components/Governance.sol\":3129:3182  require(!isGovernor(newGovernor), \"ALREADY_GOVERNOR\") */\n      tag_265\n      jumpi\n      mload(0x40)\n      0x08c379a000000000000000000000000000000000000000000000000000000000\n      dup2\n      mstore\n      0x04\n      add\n      dup1\n      dup1\n      0x20\n      add\n      dup3\n      dup2\n      sub\n      dup3\n      mstore\n      0x10\n      dup2\n      mstore\n      0x20\n      add\n      dup1\n      0x414c52454144595f474f5645524e4f5200000000000000000000000000000000\n      dup2\n      mstore\n      pop\n      0x20\n      add\n      swap2\n      pop\n      pop\n      mload(0x40)\n      dup1\n      swap2\n      sub\n      swap1\n      revert\n    tag_265:\n        /* \"scalable-dex/contracts/src/components/Governance.sol\":3216:3227  newGovernor */\n      dup2\n        /* \"scalable-dex/contracts/src/components/Governance.sol\":3192:3195  gub */\n      dup2\n        /* \"scalable-dex/contracts/src/components/Governance.sol\":3192:3213  gub.candidateGovernor */\n      0x01\n      add\n      0x00\n        /* \"scalable-dex/contracts/src/components/Governance.sol\":3192:3227  gub.candidateGovernor = newGovernor */\n      0x0100\n      exp\n      dup2\n      sload\n      dup2\n      0xffffffffffffffffffffffffffffffffffffffff\n      mul\n      not\n      and\n      swap1\n      dup4\n      0xffffffffffffffffffffffffffffffffffffffff\n      and\n      mul\n      or\n      swap1\n      sstore\n      pop\n        /* \"scalable-dex/contracts/src/components/Governance.sol\":3242:3275  LogNominatedGovernor(newGovernor) */\n      0x6166272c8d3f5f579082f2827532732f97195007983bb5b83ac12c56700b01a6\n        /* \"scalable-dex/contracts/src/components/Governance.sol\":3263:3274  newGovernor */\n      dup3\n        /* \"scalable-dex/contracts/src/components/Governance.sol\":3242:3275  LogNominatedGovernor(newGovernor) */\n      mload(0x40)\n      dup1\n      dup3\n      0xffffffffffffffffffffffffffffffffffffffff\n      and\n      dup2\n      mstore\n      0x20\n      add\n      swap2\n      pop\n      pop\n      mload(0x40)\n      dup1\n      swap2\n      sub\n      swap1\n      log1\n        /* \"scalable-dex/contracts/src/interfaces/MGovernance.sol\":351:352  _ */\n      pop\n        /* \"scalable-dex/contracts/src/components/Governance.sol\":2976:3282  function nominateNewGovernor(address newGovernor) internal onlyGovernance {... */\n      pop\n      jump\t// out\n        /* \"scalable-dex/contracts/src/components/Governance.sol\":4406:4811  function removeGovernor(address governorForRemoval) internal onlyGovernance {... */\n    tag_188:\n        /* \"scalable-dex/contracts/src/interfaces/MGovernance.sol\":299:321  isGovernor(msg.sender) */\n      tag_267\n        /* \"scalable-dex/contracts/src/interfaces/MGovernance.sol\":310:320  msg.sender */\n      caller\n        /* \"scalable-dex/contracts/src/interfaces/MGovernance.sol\":299:309  isGovernor */\n      tag_177\n        /* \"scalable-dex/contracts/src/interfaces/MGovernance.sol\":299:321  isGovernor(msg.sender) */\n      jump\t// in\n    tag_267:\n        /* \"scalable-dex/contracts/src/interfaces/MGovernance.sol\":291:341  require(isGovernor(msg.sender), \"ONLY_GOVERNANCE\") */\n      tag_268\n      jumpi\n      mload(0x40)\n      0x08c379a000000000000000000000000000000000000000000000000000000000\n      dup2\n      mstore\n      0x04\n      add\n      dup1\n      dup1\n      0x20\n      add\n      dup3\n      dup2\n      sub\n      dup3\n      mstore\n      0x0f\n      dup2\n      mstore\n      0x20\n      add\n      dup1\n      0x4f4e4c595f474f5645524e414e43450000000000000000000000000000000000\n      dup2\n      mstore\n      pop\n      0x20\n      add\n      swap2\n      pop\n      pop\n      mload(0x40)\n      dup1\n      swap2\n      sub\n      swap1\n      revert\n    tag_268:\n        /* \"scalable-dex/contracts/src/components/Governance.sol\":4514:4532  governorForRemoval */\n      dup1\n        /* \"scalable-dex/contracts/src/components/Governance.sol\":4500:4532  msg.sender != governorForRemoval */\n      0xffffffffffffffffffffffffffffffffffffffff\n      and\n        /* \"scalable-dex/contracts/src/components/Governance.sol\":4500:4510  msg.sender */\n      caller\n        /* \"scalable-dex/contracts/src/components/Governance.sol\":4500:4532  msg.sender != governorForRemoval */\n      0xffffffffffffffffffffffffffffffffffffffff\n      and\n      eq\n      iszero\n        /* \"scalable-dex/contracts/src/components/Governance.sol\":4492:4557  require(msg.sender != governorForRemoval, \"GOVERNOR_SELF_REMOVE\") */\n      tag_270\n      jumpi\n      mload(0x40)\n      0x08c379a000000000000000000000000000000000000000000000000000000000\n      dup2\n      mstore\n      0x04\n      add\n      dup1\n      dup1\n      0x20\n      add\n      dup3\n      dup2\n      sub\n      dup3\n      mstore\n      0x14\n      dup2\n      mstore\n      0x20\n      add\n      dup1\n      0x474f5645524e4f525f53454c465f52454d4f5645000000000000000000000000\n      dup2\n      mstore\n      pop\n      0x20\n      add\n      swap2\n      pop\n      pop\n      mload(0x40)\n      dup1\n      swap2\n      sub\n      swap1\n      revert\n    tag_270:\n        /* \"scalable-dex/contracts/src/components/Governance.sol\":4567:4599  GovernanceInfoStruct storage gub */\n      0x00\n        /* \"scalable-dex/contracts/src/components/Governance.sol\":4602:4626  contractGovernanceInfo() */\n      tag_271\n        /* \"scalable-dex/contracts/src/components/Governance.sol\":4602:4624  contractGovernanceInfo */\n      tag_248\n        /* \"scalable-dex/contracts/src/components/Governance.sol\":4602:4626  contractGovernanceInfo() */\n      jump\t// in\n    tag_271:\n        /* \"scalable-dex/contracts/src/components/Governance.sol\":4567:4626  GovernanceInfoStruct storage gub = contractGovernanceInfo() */\n      swap1\n      pop\n        /* \"scalable-dex/contracts/src/components/Governance.sol\":4644:4674  isGovernor(governorForRemoval) */\n      tag_272\n        /* \"scalable-dex/contracts/src/components/Governance.sol\":4655:4673  governorForRemoval */\n      dup3\n        /* \"scalable-dex/contracts/src/components/Governance.sol\":4644:4654  isGovernor */\n      tag_177\n        /* \"scalable-dex/contracts/src/components/Governance.sol\":4644:4674  isGovernor(governorForRemoval) */\n      jump\t// in\n    tag_272:\n        /* \"scalable-dex/contracts/src/components/Governance.sol\":4636:4691  require(isGovernor(governorForRemoval), \"NOT_GOVERNOR\") */\n      tag_273\n      jumpi\n      mload(0x40)\n      0x08c379a000000000000000000000000000000000000000000000000000000000\n      dup2\n      mstore\n      0x04\n      add\n      dup1\n      dup1\n      0x20\n      add\n      dup3\n      dup2\n      sub\n      dup3\n      mstore\n      0x0c\n      dup2\n      mstore\n      0x20\n      add\n      dup1\n      0x4e4f545f474f5645524e4f520000000000000000000000000000000000000000\n      dup2\n      mstore\n      pop\n      0x20\n      add\n      swap2\n      pop\n      pop\n      mload(0x40)\n      dup1\n      swap2\n      sub\n      swap1\n      revert\n    tag_273:\n        /* \"scalable-dex/contracts/src/components/Governance.sol\":4746:4751  false */\n      0x00\n        /* \"scalable-dex/contracts/src/components/Governance.sol\":4701:4704  gub */\n      dup2\n        /* \"scalable-dex/contracts/src/components/Governance.sol\":4701:4723  gub.effectiveGovernors */\n      0x00\n      add\n        /* \"scalable-dex/contracts/src/components/Governance.sol\":4701:4743  gub.effectiveGovernors[governorForRemoval] */\n      0x00\n        /* \"scalable-dex/contracts/src/components/Governance.sol\":4724:4742  governorForRemoval */\n      dup5\n        /* \"scalable-dex/contracts/src/components/Governance.sol\":4701:4743  gub.effectiveGovernors[governorForRemoval] */\n      0xffffffffffffffffffffffffffffffffffffffff\n      and\n      0xffffffffffffffffffffffffffffffffffffffff\n      and\n      dup2\n      mstore\n      0x20\n      add\n      swap1\n      dup2\n      mstore\n      0x20\n      add\n      0x00\n      keccak256\n      0x00\n        /* \"scalable-dex/contracts/src/components/Governance.sol\":4701:4751  gub.effectiveGovernors[governorForRemoval] = false */\n      0x0100\n      exp\n      dup2\n      sload\n      dup2\n      0xff\n      mul\n      not\n      and\n      swap1\n      dup4\n      iszero\n      iszero\n      mul\n      or\n      swap1\n      sstore\n      pop\n        /* \"scalable-dex/contracts/src/components/Governance.sol\":4766:4804  LogRemovedGovernor(governorForRemoval) */\n      0xd75f94825e770b8b512be8e74759e252ad00e102e38f50cce2f7c6f868a29599\n        /* \"scalable-dex/contracts/src/components/Governance.sol\":4785:4803  governorForRemoval */\n      dup3\n        /* \"scalable-dex/contracts/src/components/Governance.sol\":4766:4804  LogRemovedGovernor(governorForRemoval) */\n      mload(0x40)\n      dup1\n      dup3\n      0xffffffffffffffffffffffffffffffffffffffff\n      and\n      dup2\n      mstore\n      0x20\n      add\n      swap2\n      pop\n      pop\n      mload(0x40)\n      dup1\n      swap2\n      sub\n      swap1\n      log1\n        /* \"scalable-dex/contracts/src/interfaces/MGovernance.sol\":351:352  _ */\n      pop\n        /* \"scalable-dex/contracts/src/components/Governance.sol\":4406:4811  function removeGovernor(address governorForRemoval) internal onlyGovernance {... */\n      pop\n      jump\t// out\n        /* \"scalable-dex/contracts/src/interactions/TokenAssetData.sol\":2112:2271  function isEther(uint256 assetType) internal view override returns (bool) {... */\n    tag_191:\n        /* \"scalable-dex/contracts/src/interactions/TokenAssetData.sol\":2180:2184  bool */\n      0x00\n        /* \"scalable-dex/contracts/src/interactions/TokenAssetData.sol\":436:454  keccak256(\"ETH()\") */\n      0x8322fff276cdf3f5716784c2e78b276d0d5cf1781fe7a7984e8bff96f75632c6\n        /* \"scalable-dex/contracts/src/interactions/TokenAssetData.sol\":2203:2264  extractTokenSelector(getAssetInfo(assetType)) == ETH_SELECTOR */\n      not(0xffffffffffffffffffffffffffffffffffffffffffffffffffffffff)\n      and\n        /* \"scalable-dex/contracts/src/interactions/TokenAssetData.sol\":2203:2248  extractTokenSelector(getAssetInfo(assetType)) */\n      tag_275\n        /* \"scalable-dex/contracts/src/interactions/TokenAssetData.sol\":2224:2247  getAssetInfo(assetType) */\n      tag_276\n        /* \"scalable-dex/contracts/src/interactions/TokenAssetData.sol\":2237:2246  assetType */\n      dup5\n        /* \"scalable-dex/contracts/src/interactions/TokenAssetData.sol\":2224:2236  getAssetInfo */\n      tag_153\n        /* \"scalable-dex/contracts/src/interactions/TokenAssetData.sol\":2224:2247  getAssetInfo(assetType) */\n      jump\t// in\n    tag_276:\n        /* \"scalable-dex/contracts/src/interactions/TokenAssetData.sol\":2203:2223  extractTokenSelector */\n      tag_234\n        /* \"scalable-dex/contracts/src/interactions/TokenAssetData.sol\":2203:2248  extractTokenSelector(getAssetInfo(assetType)) */\n      jump\t// in\n    tag_275:\n        /* \"scalable-dex/contracts/src/interactions/TokenAssetData.sol\":2203:2264  extractTokenSelector(getAssetInfo(assetType)) == ETH_SELECTOR */\n      not(0xffffffffffffffffffffffffffffffffffffffffffffffffffffffff)\n      and\n      eq\n        /* \"scalable-dex/contracts/src/interactions/TokenAssetData.sol\":2196:2264  return extractTokenSelector(getAssetInfo(assetType)) == ETH_SELECTOR */\n      swap1\n      pop\n        /* \"scalable-dex/contracts/src/interactions/TokenAssetData.sol\":2112:2271  function isEther(uint256 assetType) internal view override returns (bool) {... */\n      swap2\n      swap1\n      pop\n      jump\t// out\n        /* \"scalable-dex/contracts/src/interactions/TokenQuantization.sol\":940:1263  function toQuantized(uint256 presumedAssetType, uint256 amount)... */\n    tag_194:\n        /* \"scalable-dex/contracts/src/interactions/TokenQuantization.sol\":1068:1091  uint256 quantizedAmount */\n      0x00\n        /* \"scalable-dex/contracts/src/interactions/TokenQuantization.sol\":1107:1122  uint256 quantum */\n      dup1\n        /* \"scalable-dex/contracts/src/interactions/TokenQuantization.sol\":1125:1154  getQuantum(presumedAssetType) */\n      tag_278\n        /* \"scalable-dex/contracts/src/interactions/TokenQuantization.sol\":1136:1153  presumedAssetType */\n      dup5\n        /* \"scalable-dex/contracts/src/interactions/TokenQuantization.sol\":1125:1135  getQuantum */\n      tag_128\n        /* \"scalable-dex/contracts/src/interactions/TokenQuantization.sol\":1125:1154  getQuantum(presumedAssetType) */\n      jump\t// in\n    tag_278:\n        /* \"scalable-dex/contracts/src/interactions/TokenQuantization.sol\":1107:1154  uint256 quantum = getQuantum(presumedAssetType) */\n      swap1\n      pop\n        /* \"scalable-dex/contracts/src/interactions/TokenQuantization.sol\":1192:1193  0 */\n      0x00\n        /* \"scalable-dex/contracts/src/interactions/TokenQuantization.sol\":1181:1188  quantum */\n      dup2\n        /* \"scalable-dex/contracts/src/interactions/TokenQuantization.sol\":1172:1178  amount */\n      dup5\n        /* \"scalable-dex/contracts/src/interactions/TokenQuantization.sol\":1172:1188  amount % quantum */\n      dup2\n      tag_279\n      jumpi\n      invalid\n    tag_279:\n      mod\n        /* \"scalable-dex/contracts/src/interactions/TokenQuantization.sol\":1172:1193  amount % quantum == 0 */\n      eq\n        /* \"scalable-dex/contracts/src/interactions/TokenQuantization.sol\":1164:1212  require(amount % quantum == 0, \"INVALID_AMOUNT\") */\n      tag_280\n      jumpi\n      mload(0x40)\n      0x08c379a000000000000000000000000000000000000000000000000000000000\n      dup2\n      mstore\n      0x04\n      add\n      dup1\n      dup1\n      0x20\n      add\n      dup3\n      dup2\n      sub\n      dup3\n      mstore\n      0x0e\n      dup2\n      mstore\n      0x20\n      add\n      dup1\n      0x494e56414c49445f414d4f554e54000000000000000000000000000000000000\n      dup2\n      mstore\n      pop\n      0x20\n      add\n      swap2\n      pop\n      pop\n      mload(0x40)\n      dup1\n      swap2\n      sub\n      swap1\n      revert\n    tag_280:\n        /* \"scalable-dex/contracts/src/interactions/TokenQuantization.sol\":1249:1256  quantum */\n      dup1\n        /* \"scalable-dex/contracts/src/interactions/TokenQuantization.sol\":1240:1246  amount */\n      dup4\n        /* \"scalable-dex/contracts/src/interactions/TokenQuantization.sol\":1240:1256  amount / quantum */\n      dup2\n      tag_281\n      jumpi\n      invalid\n    tag_281:\n      div\n        /* \"scalable-dex/contracts/src/interactions/TokenQuantization.sol\":1222:1256  quantizedAmount = amount / quantum */\n      swap2\n      pop\n        /* \"scalable-dex/contracts/src/interactions/TokenQuantization.sol\":940:1263  function toQuantized(uint256 presumedAssetType, uint256 amount)... */\n      pop\n      swap3\n      swap2\n      pop\n      pop\n      jump\t// out\n        /* \"scalable-dex/contracts/src/interactions/TokenAssetData.sol\":2951:3236  function isMintableAssetType(uint256 assetType) internal view override returns (bool) {... */\n    tag_201:\n        /* \"scalable-dex/contracts/src/interactions/TokenAssetData.sol\":3031:3035  bool */\n      0x00\n        /* \"scalable-dex/contracts/src/interactions/TokenAssetData.sol\":3047:3067  bytes4 tokenSelector */\n      dup1\n        /* \"scalable-dex/contracts/src/interactions/TokenAssetData.sol\":3070:3115  extractTokenSelector(getAssetInfo(assetType)) */\n      tag_283\n        /* \"scalable-dex/contracts/src/interactions/TokenAssetData.sol\":3091:3114  getAssetInfo(assetType) */\n      tag_284\n        /* \"scalable-dex/contracts/src/interactions/TokenAssetData.sol\":3104:3113  assetType */\n      dup5\n        /* \"scalable-dex/contracts/src/interactions/TokenAssetData.sol\":3091:3103  getAssetInfo */\n      tag_153\n        /* \"scalable-dex/contracts/src/interactions/TokenAssetData.sol\":3091:3114  getAssetInfo(assetType) */\n      jump\t// in\n    tag_284:\n        /* \"scalable-dex/contracts/src/interactions/TokenAssetData.sol\":3070:3090  extractTokenSelector */\n      tag_234\n        /* \"scalable-dex/contracts/src/interactions/TokenAssetData.sol\":3070:3115  extractTokenSelector(getAssetInfo(assetType)) */\n      jump\t// in\n    tag_283:\n        /* \"scalable-dex/contracts/src/interactions/TokenAssetData.sol\":3047:3115  bytes4 tokenSelector = extractTokenSelector(getAssetInfo(assetType)) */\n      swap1\n      pop\n        /* \"scalable-dex/contracts/src/interactions/TokenAssetData.sol\":625:665  keccak256(\"MintableERC20Token(address)\") */\n      0x68646e2d4d60fd63368774f59858335cc28e4c682fa6cfbd77d48c508e7a1c41\n        /* \"scalable-dex/contracts/src/interactions/TokenAssetData.sol\":3144:3184  tokenSelector == MINTABLE_ERC20_SELECTOR */\n      not(0xffffffffffffffffffffffffffffffffffffffffffffffffffffffff)\n      and\n        /* \"scalable-dex/contracts/src/interactions/TokenAssetData.sol\":3144:3157  tokenSelector */\n      dup2\n        /* \"scalable-dex/contracts/src/interactions/TokenAssetData.sol\":3144:3184  tokenSelector == MINTABLE_ERC20_SELECTOR */\n      not(0xffffffffffffffffffffffffffffffffffffffffffffffffffffffff)\n      and\n      eq\n        /* \"scalable-dex/contracts/src/interactions/TokenAssetData.sol\":3144:3229  tokenSelector == MINTABLE_ERC20_SELECTOR || tokenSelector == MINTABLE_ERC721_SELECTOR */\n      dup1\n      tag_285\n      jumpi\n      pop\n        /* \"scalable-dex/contracts/src/interactions/TokenAssetData.sol\":739:788  keccak256(\"MintableERC721Token(address,uint256)\") */\n      0xb8b8667215cc18ca3047444f1c3b3ef050771709648754dd8df105a66f7cc806\n        /* \"scalable-dex/contracts/src/interactions/TokenAssetData.sol\":3188:3229  tokenSelector == MINTABLE_ERC721_SELECTOR */\n      not(0xffffffffffffffffffffffffffffffffffffffffffffffffffffffff)\n      and\n        /* \"scalable-dex/contracts/src/interactions/TokenAssetData.sol\":3188:3201  tokenSelector */\n      dup2\n        /* \"scalable-dex/contracts/src/interactions/TokenAssetData.sol\":3188:3229  tokenSelector == MINTABLE_ERC721_SELECTOR */\n      not(0xffffffffffffffffffffffffffffffffffffffffffffffffffffffff)\n      and\n      eq\n        /* \"scalable-dex/contracts/src/interactions/TokenAssetData.sol\":3144:3229  tokenSelector == MINTABLE_ERC20_SELECTOR || tokenSelector == MINTABLE_ERC721_SELECTOR */\n    tag_285:\n        /* \"scalable-dex/contracts/src/interactions/TokenAssetData.sol\":3125:3229  return... */\n      swap2\n      pop\n      pop\n        /* \"scalable-dex/contracts/src/interactions/TokenAssetData.sol\":2951:3236  function isMintableAssetType(uint256 assetType) internal view override returns (bool) {... */\n      swap2\n      swap1\n      pop\n      jump\t// out\n        /* \"scalable-dex/contracts/src/components/TokenTransfers.sol\":2336:3674  function transferOut(... */\n    tag_207:\n        /* \"scalable-dex/contracts/src/components/TokenTransfers.sol\":2570:2573  0x0 */\n      0x00\n        /* \"scalable-dex/contracts/src/components/TokenTransfers.sol\":2549:2574  recipient != address(0x0) */\n      0xffffffffffffffffffffffffffffffffffffffff\n      and\n        /* \"scalable-dex/contracts/src/components/TokenTransfers.sol\":2549:2558  recipient */\n      dup4\n        /* \"scalable-dex/contracts/src/components/TokenTransfers.sol\":2549:2574  recipient != address(0x0) */\n      0xffffffffffffffffffffffffffffffffffffffff\n      and\n      eq\n      iszero\n        /* \"scalable-dex/contracts/src/components/TokenTransfers.sol\":2541:2596  require(recipient != address(0x0), \"INVALID_RECIPIENT\") */\n      tag_287\n      jumpi\n      mload(0x40)\n      0x08c379a000000000000000000000000000000000000000000000000000000000\n      dup2\n      mstore\n      0x04\n      add\n      dup1\n      dup1\n      0x20\n      add\n      dup3\n      dup2\n      sub\n      dup3\n      mstore\n      0x11\n      dup2\n      mstore\n      0x20\n      add\n      dup1\n      0x494e56414c49445f524543495049454e54000000000000000000000000000000\n      dup2\n      mstore\n      pop\n      0x20\n      add\n      swap2\n      pop\n      pop\n      mload(0x40)\n      dup1\n      swap2\n      sub\n      swap1\n      revert\n    tag_287:\n        /* \"scalable-dex/contracts/src/components/TokenTransfers.sol\":2606:2620  uint256 amount */\n      0x00\n        /* \"scalable-dex/contracts/src/components/TokenTransfers.sol\":2623:2664  fromQuantized(assetType, quantizedAmount) */\n      tag_288\n        /* \"scalable-dex/contracts/src/components/TokenTransfers.sol\":2637:2646  assetType */\n      dup4\n        /* \"scalable-dex/contracts/src/components/TokenTransfers.sol\":2648:2663  quantizedAmount */\n      dup4\n        /* \"scalable-dex/contracts/src/components/TokenTransfers.sol\":2623:2636  fromQuantized */\n      tag_161\n        /* \"scalable-dex/contracts/src/components/TokenTransfers.sol\":2623:2664  fromQuantized(assetType, quantizedAmount) */\n      jump\t// in\n    tag_288:\n        /* \"scalable-dex/contracts/src/components/TokenTransfers.sol\":2606:2664  uint256 amount = fromQuantized(assetType, quantizedAmount) */\n      swap1\n      pop\n        /* \"scalable-dex/contracts/src/components/TokenTransfers.sol\":2678:2696  isERC20(assetType) */\n      tag_289\n        /* \"scalable-dex/contracts/src/components/TokenTransfers.sol\":2686:2695  assetType */\n      dup4\n        /* \"scalable-dex/contracts/src/components/TokenTransfers.sol\":2678:2685  isERC20 */\n      tag_290\n        /* \"scalable-dex/contracts/src/components/TokenTransfers.sol\":2678:2696  isERC20(assetType) */\n      jump\t// in\n    tag_289:\n        /* \"scalable-dex/contracts/src/components/TokenTransfers.sol\":2674:3668  if (isERC20(assetType)) {... */\n      iszero\n      tag_291\n      jumpi\n        /* \"scalable-dex/contracts/src/components/TokenTransfers.sol\":2712:2732  address tokenAddress */\n      0x00\n        /* \"scalable-dex/contracts/src/components/TokenTransfers.sol\":2735:2768  extractContractAddress(assetType) */\n      tag_292\n        /* \"scalable-dex/contracts/src/components/TokenTransfers.sol\":2758:2767  assetType */\n      dup5\n        /* \"scalable-dex/contracts/src/components/TokenTransfers.sol\":2735:2757  extractContractAddress */\n      tag_293\n        /* \"scalable-dex/contracts/src/components/TokenTransfers.sol\":2735:2768  extractContractAddress(assetType) */\n      jump\t// in\n    tag_292:\n        /* \"scalable-dex/contracts/src/components/TokenTransfers.sol\":2712:2768  address tokenAddress = extractContractAddress(assetType) */\n      swap1\n      pop\n        /* \"scalable-dex/contracts/src/components/TokenTransfers.sol\":2782:2794  IERC20 token */\n      0x00\n        /* \"scalable-dex/contracts/src/components/TokenTransfers.sol\":2804:2816  tokenAddress */\n      dup2\n        /* \"scalable-dex/contracts/src/components/TokenTransfers.sol\":2782:2817  IERC20 token = IERC20(tokenAddress) */\n      swap1\n      pop\n        /* \"scalable-dex/contracts/src/components/TokenTransfers.sol\":2831:2860  uint256 exchangeBalanceBefore */\n      0x00\n        /* \"scalable-dex/contracts/src/components/TokenTransfers.sol\":2863:2868  token */\n      dup2\n        /* \"scalable-dex/contracts/src/components/TokenTransfers.sol\":2863:2878  token.balanceOf */\n      0xffffffffffffffffffffffffffffffffffffffff\n      and\n      0x70a08231\n        /* \"scalable-dex/contracts/src/components/TokenTransfers.sol\":2887:2891  this */\n      address\n        /* \"scalable-dex/contracts/src/components/TokenTransfers.sol\":2863:2893  token.balanceOf(address(this)) */\n      mload(0x40)\n      dup3\n      0xffffffff\n      and\n      0xe0\n      shl\n      dup2\n      mstore\n      0x04\n      add\n      dup1\n      dup3\n      0xffffffffffffffffffffffffffffffffffffffff\n      and\n      dup2\n      mstore\n      0x20\n      add\n      swap2\n      pop\n      pop\n      0x20\n      mload(0x40)\n      dup1\n      dup4\n      sub\n      dup2\n      dup7\n      dup1\n      extcodesize\n      iszero\n      dup1\n      iszero\n      tag_294\n      jumpi\n      0x00\n      dup1\n      revert\n    tag_294:\n      pop\n      gas\n      staticcall\n      iszero\n      dup1\n      iszero\n      tag_296\n      jumpi\n      returndatasize\n      0x00\n      dup1\n      returndatacopy\n      revert(0x00, returndatasize)\n    tag_296:\n      pop\n      pop\n      pop\n      pop\n      mload(0x40)\n      returndatasize\n      0x20\n      dup2\n      lt\n      iszero\n      tag_297\n      jumpi\n      0x00\n      dup1\n      revert\n    tag_297:\n      dup2\n      add\n      swap1\n      dup1\n      dup1\n      mload\n      swap1\n      0x20\n      add\n      swap1\n      swap3\n      swap2\n      swap1\n      pop\n      pop\n      pop\n        /* \"scalable-dex/contracts/src/components/TokenTransfers.sol\":2831:2893  uint256 exchangeBalanceBefore = token.balanceOf(address(this)) */\n      swap1\n      pop\n        /* \"scalable-dex/contracts/src/components/TokenTransfers.sol\":2907:2928  bytes memory callData */\n      0x60\n        /* \"scalable-dex/contracts/src/components/TokenTransfers.sol\":2971:2994  token.transfer.selector */\n      shl(0xe0, 0xa9059cbb)\n        /* \"scalable-dex/contracts/src/components/TokenTransfers.sol\":3012:3021  recipient */\n      dup9\n        /* \"scalable-dex/contracts/src/components/TokenTransfers.sol\":3039:3045  amount */\n      dup7\n        /* \"scalable-dex/contracts/src/components/TokenTransfers.sol\":2931:3059  abi.encodeWithSelector(... */\n      add(0x24, mload(0x40))\n      dup1\n      dup4\n      0xffffffffffffffffffffffffffffffffffffffff\n      and\n      dup2\n      mstore\n      0x20\n      add\n      dup3\n      dup2\n      mstore\n      0x20\n      add\n      swap3\n      pop\n      pop\n      pop\n      mload(0x40)\n      0x20\n      dup2\n      dup4\n      sub\n      sub\n      dup2\n      mstore\n      swap1\n      0x40\n      mstore\n      swap1\n      not(0xffffffffffffffffffffffffffffffffffffffffffffffffffffffff)\n      and\n      0x20\n      dup3\n      add\n      dup1\n      mload\n      0xffffffffffffffffffffffffffffffffffffffffffffffffffffffff\n      dup4\n      dup2\n      dup4\n      and\n      or\n      dup4\n      mstore\n      pop\n      pop\n      pop\n      pop\n        /* \"scalable-dex/contracts/src/components/TokenTransfers.sol\":2907:3059  bytes memory callData = abi.encodeWithSelector(... */\n      swap1\n      pop\n        /* \"scalable-dex/contracts/src/components/TokenTransfers.sol\":3073:3117  tokenAddress.safeTokenContractCall(callData) */\n      tag_298\n        /* \"scalable-dex/contracts/src/components/TokenTransfers.sol\":3108:3116  callData */\n      dup2\n        /* \"scalable-dex/contracts/src/components/TokenTransfers.sol\":3073:3085  tokenAddress */\n      dup6\n        /* \"scalable-dex/contracts/src/components/TokenTransfers.sol\":3073:3107  tokenAddress.safeTokenContractCall */\n      0xffffffffffffffffffffffffffffffffffffffff\n      and\n      tag_299\n      swap1\n        /* \"scalable-dex/contracts/src/components/TokenTransfers.sol\":3073:3117  tokenAddress.safeTokenContractCall(callData) */\n      swap2\n      swap1\n      0xffffffff\n      and\n      jump\t// in\n    tag_298:\n        /* \"scalable-dex/contracts/src/components/TokenTransfers.sol\":3131:3159  uint256 exchangeBalanceAfter */\n      0x00\n        /* \"scalable-dex/contracts/src/components/TokenTransfers.sol\":3162:3167  token */\n      dup4\n        /* \"scalable-dex/contracts/src/components/TokenTransfers.sol\":3162:3177  token.balanceOf */\n      0xffffffffffffffffffffffffffffffffffffffff\n      and\n      0x70a08231\n        /* \"scalable-dex/contracts/src/components/TokenTransfers.sol\":3186:3190  this */\n      address\n        /* \"scalable-dex/contracts/src/components/TokenTransfers.sol\":3162:3192  token.balanceOf(address(this)) */\n      mload(0x40)\n      dup3\n      0xffffffff\n      and\n      0xe0\n      shl\n      dup2\n      mstore\n      0x04\n      add\n      dup1\n      dup3\n      0xffffffffffffffffffffffffffffffffffffffff\n      and\n      dup2\n      mstore\n      0x20\n      add\n      swap2\n      pop\n      pop\n      0x20\n      mload(0x40)\n      dup1\n      dup4\n      sub\n      dup2\n      dup7\n      dup1\n      extcodesize\n      iszero\n      dup1\n      iszero\n      tag_300\n      jumpi\n      0x00\n      dup1\n      revert\n    tag_300:\n      pop\n      gas\n      staticcall\n      iszero\n      dup1\n      iszero\n      tag_302\n      jumpi\n      returndatasize\n      0x00\n      dup1\n      returndatacopy\n      revert(0x00, returndatasize)\n    tag_302:\n      pop\n      pop\n      pop\n      pop\n      mload(0x40)\n      returndatasize\n      0x20\n      dup2\n      lt\n      iszero\n      tag_303\n      jumpi\n      0x00\n      dup1\n      revert\n    tag_303:\n      dup2\n      add\n      swap1\n      dup1\n      dup1\n      mload\n      swap1\n      0x20\n      add\n      swap1\n      swap3\n      swap2\n      swap1\n      pop\n      pop\n      pop\n        /* \"scalable-dex/contracts/src/components/TokenTransfers.sol\":3131:3192  uint256 exchangeBalanceAfter = token.balanceOf(address(this)) */\n      swap1\n      pop\n        /* \"scalable-dex/contracts/src/components/TokenTransfers.sol\":3238:3259  exchangeBalanceBefore */\n      dup3\n        /* \"scalable-dex/contracts/src/components/TokenTransfers.sol\":3214:3234  exchangeBalanceAfter */\n      dup2\n        /* \"scalable-dex/contracts/src/components/TokenTransfers.sol\":3214:3259  exchangeBalanceAfter <= exchangeBalanceBefore */\n      gt\n      iszero\n        /* \"scalable-dex/contracts/src/components/TokenTransfers.sol\":3206:3273  require(exchangeBalanceAfter <= exchangeBalanceBefore, \"UNDERFLOW\") */\n      tag_304\n      jumpi\n      mload(0x40)\n      0x08c379a000000000000000000000000000000000000000000000000000000000\n      dup2\n      mstore\n      0x04\n      add\n      dup1\n      dup1\n      0x20\n      add\n      dup3\n      dup2\n      sub\n      dup3\n      mstore\n      0x09\n      dup2\n      mstore\n      0x20\n      add\n      dup1\n      0x554e444552464c4f570000000000000000000000000000000000000000000000\n      dup2\n      mstore\n      pop\n      0x20\n      add\n      swap2\n      pop\n      pop\n      mload(0x40)\n      dup1\n      swap2\n      sub\n      swap1\n      revert\n    tag_304:\n        /* \"scalable-dex/contracts/src/components/TokenTransfers.sol\":3435:3441  amount */\n      dup6\n        /* \"scalable-dex/contracts/src/components/TokenTransfers.sol\":3411:3432  exchangeBalanceBefore */\n      dup4\n        /* \"scalable-dex/contracts/src/components/TokenTransfers.sol\":3411:3441  exchangeBalanceBefore - amount */\n      sub\n        /* \"scalable-dex/contracts/src/components/TokenTransfers.sol\":3387:3407  exchangeBalanceAfter */\n      dup2\n        /* \"scalable-dex/contracts/src/components/TokenTransfers.sol\":3387:3441  exchangeBalanceAfter == exchangeBalanceBefore - amount */\n      eq\n        /* \"scalable-dex/contracts/src/components/TokenTransfers.sol\":3362:3503  require(... */\n      tag_305\n      jumpi\n      mload(0x40)\n      0x08c379a000000000000000000000000000000000000000000000000000000000\n      dup2\n      mstore\n      0x04\n      add\n      dup1\n      dup1\n      0x20\n      add\n      dup3\n      dup2\n      sub\n      dup3\n      mstore\n      0x1c\n      dup2\n      mstore\n      0x20\n      add\n      dup1\n      0x494e434f52524543545f414d4f554e545f5452414e5346455252454400000000\n      dup2\n      mstore\n      pop\n      0x20\n      add\n      swap2\n      pop\n      pop\n      mload(0x40)\n      dup1\n      swap2\n      sub\n      swap1\n      revert\n    tag_305:\n        /* \"scalable-dex/contracts/src/components/TokenTransfers.sol\":2674:3668  if (isERC20(assetType)) {... */\n      pop\n      pop\n      pop\n      pop\n      pop\n      jump(tag_306)\n    tag_291:\n        /* \"scalable-dex/contracts/src/components/TokenTransfers.sol\":3524:3542  isEther(assetType) */\n      tag_307\n        /* \"scalable-dex/contracts/src/components/TokenTransfers.sol\":3532:3541  assetType */\n      dup4\n        /* \"scalable-dex/contracts/src/components/TokenTransfers.sol\":3524:3531  isEther */\n      tag_191\n        /* \"scalable-dex/contracts/src/components/TokenTransfers.sol\":3524:3542  isEther(assetType) */\n      jump\t// in\n    tag_307:\n        /* \"scalable-dex/contracts/src/components/TokenTransfers.sol\":3520:3668  if (isEther(assetType)) {... */\n      iszero\n      tag_308\n      jumpi\n        /* \"scalable-dex/contracts/src/components/TokenTransfers.sol\":3558:3594  recipient.performEthTransfer(amount) */\n      tag_309\n        /* \"scalable-dex/contracts/src/components/TokenTransfers.sol\":3587:3593  amount */\n      dup2\n        /* \"scalable-dex/contracts/src/components/TokenTransfers.sol\":3558:3567  recipient */\n      dup6\n        /* \"scalable-dex/contracts/src/components/TokenTransfers.sol\":3558:3586  recipient.performEthTransfer */\n      0xffffffffffffffffffffffffffffffffffffffff\n      and\n      tag_310\n      swap1\n        /* \"scalable-dex/contracts/src/components/TokenTransfers.sol\":3558:3594  recipient.performEthTransfer(amount) */\n      swap2\n      swap1\n      0xffffffff\n      and\n      jump\t// in\n    tag_309:\n        /* \"scalable-dex/contracts/src/components/TokenTransfers.sol\":3520:3668  if (isEther(assetType)) {... */\n      jump(tag_311)\n    tag_308:\n        /* \"scalable-dex/contracts/src/components/TokenTransfers.sol\":3625:3657  revert(\"UNSUPPORTED_TOKEN_TYPE\") */\n      mload(0x40)\n      0x08c379a000000000000000000000000000000000000000000000000000000000\n      dup2\n      mstore\n      0x04\n      add\n      dup1\n      dup1\n      0x20\n      add\n      dup3\n      dup2\n      sub\n      dup3\n      mstore\n      0x16\n      dup2\n      mstore\n      0x20\n      add\n      dup1\n      0x554e535550504f525445445f544f4b454e5f5459504500000000000000000000\n      dup2\n      mstore\n      pop\n      0x20\n      add\n      swap2\n      pop\n      pop\n      mload(0x40)\n      dup1\n      swap2\n      sub\n      swap1\n      revert\n        /* \"scalable-dex/contracts/src/components/TokenTransfers.sol\":3520:3668  if (isEther(assetType)) {... */\n    tag_311:\n        /* \"scalable-dex/contracts/src/components/TokenTransfers.sol\":2674:3668  if (isERC20(assetType)) {... */\n    tag_306:\n        /* \"scalable-dex/contracts/src/components/TokenTransfers.sol\":2336:3674  function transferOut(... */\n      pop\n      pop\n      pop\n      pop\n      jump\t// out\n        /* \"scalable-dex/contracts/src/interactions/TokenAssetData.sol\":1417:1774  function extractTokenSelector(bytes memory assetInfo)... */\n    tag_234:\n        /* \"scalable-dex/contracts/src/interactions/TokenAssetData.sol\":1535:1550  bytes4 selector */\n      0x00\n        /* \"scalable-dex/contracts/src/interactions/TokenAssetData.sol\":1727:1742  SELECTOR_OFFSET */\n      0x20\n        /* \"scalable-dex/contracts/src/interactions/TokenAssetData.sol\":1716:1725  assetInfo */\n      dup3\n        /* \"scalable-dex/contracts/src/interactions/TokenAssetData.sol\":1712:1743  add(assetInfo, SELECTOR_OFFSET) */\n      add\n        /* \"scalable-dex/contracts/src/interactions/TokenAssetData.sol\":1706:1744  mload(add(assetInfo, SELECTOR_OFFSET)) */\n      mload\n        /* \"scalable-dex/contracts/src/interactions/TokenAssetData.sol\":1622:1688  0xffffffff00000000000000000000000000000000000000000000000000000000 */\n      0xffffffff00000000000000000000000000000000000000000000000000000000\n        /* \"scalable-dex/contracts/src/interactions/TokenAssetData.sol\":1601:1758  and(... */\n      and\n        /* \"scalable-dex/contracts/src/interactions/TokenAssetData.sol\":1589:1758  selector := and(... */\n      swap1\n      pop\n        /* \"scalable-dex/contracts/src/interactions/TokenAssetData.sol\":1575:1768  {... */\n      swap2\n      swap1\n      pop\n      jump\t// out\n        /* \"scalable-dex/contracts/src/starkex/components/VaultLocks.sol\":1730:2066  function applyDefaultLock(uint256 assetId, uint256 vaultId) internal override {... */\n    tag_241:\n        /* \"scalable-dex/contracts/src/starkex/components/VaultLocks.sol\":1818:1844  uint256 currentLockRelease */\n      0x00\n        /* \"scalable-dex/contracts/src/starkex/components/VaultLocks.sol\":1847:1899  getVaultWithdrawalLock(msg.sender, assetId, vaultId) */\n      tag_314\n        /* \"scalable-dex/contracts/src/starkex/components/VaultLocks.sol\":1870:1880  msg.sender */\n      caller\n        /* \"scalable-dex/contracts/src/starkex/components/VaultLocks.sol\":1882:1889  assetId */\n      dup5\n        /* \"scalable-dex/contracts/src/starkex/components/VaultLocks.sol\":1891:1898  vaultId */\n      dup5\n        /* \"scalable-dex/contracts/src/starkex/components/VaultLocks.sol\":1847:1869  getVaultWithdrawalLock */\n      tag_96\n        /* \"scalable-dex/contracts/src/starkex/components/VaultLocks.sol\":1847:1899  getVaultWithdrawalLock(msg.sender, assetId, vaultId) */\n      jump\t// in\n    tag_314:\n        /* \"scalable-dex/contracts/src/starkex/components/VaultLocks.sol\":1818:1899  uint256 currentLockRelease = getVaultWithdrawalLock(msg.sender, assetId, vaultId) */\n      swap1\n      pop\n        /* \"scalable-dex/contracts/src/starkex/components/VaultLocks.sol\":1952:1978  defaultVaultWithdrawalLock */\n      sload(0x010000000000000003)\n        /* \"scalable-dex/contracts/src/starkex/components/VaultLocks.sol\":1934:1949  block.timestamp */\n      timestamp\n        /* \"scalable-dex/contracts/src/starkex/components/VaultLocks.sol\":1934:1978  block.timestamp + defaultVaultWithdrawalLock */\n      add\n        /* \"scalable-dex/contracts/src/starkex/components/VaultLocks.sol\":1913:1931  currentLockRelease */\n      dup2\n        /* \"scalable-dex/contracts/src/starkex/components/VaultLocks.sol\":1913:1978  currentLockRelease < block.timestamp + defaultVaultWithdrawalLock */\n      lt\n        /* \"scalable-dex/contracts/src/starkex/components/VaultLocks.sol\":1909:2060  if (currentLockRelease < block.timestamp + defaultVaultWithdrawalLock) {... */\n      iszero\n      tag_315\n      jumpi\n        /* \"scalable-dex/contracts/src/starkex/components/VaultLocks.sol\":1994:2049  lockVault(assetId, vaultId, defaultVaultWithdrawalLock) */\n      tag_316\n        /* \"scalable-dex/contracts/src/starkex/components/VaultLocks.sol\":2004:2011  assetId */\n      dup4\n        /* \"scalable-dex/contracts/src/starkex/components/VaultLocks.sol\":2013:2020  vaultId */\n      dup4\n        /* \"scalable-dex/contracts/src/starkex/components/VaultLocks.sol\":2022:2048  defaultVaultWithdrawalLock */\n      sload(0x010000000000000003)\n        /* \"scalable-dex/contracts/src/starkex/components/VaultLocks.sol\":1994:2003  lockVault */\n      tag_142\n        /* \"scalable-dex/contracts/src/starkex/components/VaultLocks.sol\":1994:2049  lockVault(assetId, vaultId, defaultVaultWithdrawalLock) */\n      jump\t// in\n    tag_316:\n        /* \"scalable-dex/contracts/src/starkex/components/VaultLocks.sol\":1909:2060  if (currentLockRelease < block.timestamp + defaultVaultWithdrawalLock) {... */\n    tag_315:\n        /* \"scalable-dex/contracts/src/starkex/components/VaultLocks.sol\":1730:2066  function applyDefaultLock(uint256 assetId, uint256 vaultId) internal override {... */\n      pop\n      pop\n      pop\n      jump\t// out\n        /* \"scalable-dex/contracts/src/components/TokenTransfers.sol\":583:1798  function transferIn(uint256 assetType, uint256 quantizedAmount) internal override {... */\n    tag_244:\n        /* \"scalable-dex/contracts/src/components/TokenTransfers.sol\":675:689  uint256 amount */\n      0x00\n        /* \"scalable-dex/contracts/src/components/TokenTransfers.sol\":692:733  fromQuantized(assetType, quantizedAmount) */\n      tag_318\n        /* \"scalable-dex/contracts/src/components/TokenTransfers.sol\":706:715  assetType */\n      dup4\n        /* \"scalable-dex/contracts/src/components/TokenTransfers.sol\":717:732  quantizedAmount */\n      dup4\n        /* \"scalable-dex/contracts/src/components/TokenTransfers.sol\":692:705  fromQuantized */\n      tag_161\n        /* \"scalable-dex/contracts/src/components/TokenTransfers.sol\":692:733  fromQuantized(assetType, quantizedAmount) */\n      jump\t// in\n    tag_318:\n        /* \"scalable-dex/contracts/src/components/TokenTransfers.sol\":675:733  uint256 amount = fromQuantized(assetType, quantizedAmount) */\n      swap1\n      pop\n        /* \"scalable-dex/contracts/src/components/TokenTransfers.sol\":747:765  isERC20(assetType) */\n      tag_319\n        /* \"scalable-dex/contracts/src/components/TokenTransfers.sol\":755:764  assetType */\n      dup4\n        /* \"scalable-dex/contracts/src/components/TokenTransfers.sol\":747:754  isERC20 */\n      tag_290\n        /* \"scalable-dex/contracts/src/components/TokenTransfers.sol\":747:765  isERC20(assetType) */\n      jump\t// in\n    tag_319:\n        /* \"scalable-dex/contracts/src/components/TokenTransfers.sol\":743:1792  if (isERC20(assetType)) {... */\n      iszero\n      tag_320\n      jumpi\n        /* \"scalable-dex/contracts/src/components/TokenTransfers.sol\":781:801  address tokenAddress */\n      0x00\n        /* \"scalable-dex/contracts/src/components/TokenTransfers.sol\":804:837  extractContractAddress(assetType) */\n      tag_321\n        /* \"scalable-dex/contracts/src/components/TokenTransfers.sol\":827:836  assetType */\n      dup5\n        /* \"scalable-dex/contracts/src/components/TokenTransfers.sol\":804:826  extractContractAddress */\n      tag_293\n        /* \"scalable-dex/contracts/src/components/TokenTransfers.sol\":804:837  extractContractAddress(assetType) */\n      jump\t// in\n    tag_321:\n        /* \"scalable-dex/contracts/src/components/TokenTransfers.sol\":781:837  address tokenAddress = extractContractAddress(assetType) */\n      swap1\n      pop\n        /* \"scalable-dex/contracts/src/components/TokenTransfers.sol\":851:863  IERC20 token */\n      0x00\n        /* \"scalable-dex/contracts/src/components/TokenTransfers.sol\":873:885  tokenAddress */\n      dup2\n        /* \"scalable-dex/contracts/src/components/TokenTransfers.sol\":851:886  IERC20 token = IERC20(tokenAddress) */\n      swap1\n      pop\n        /* \"scalable-dex/contracts/src/components/TokenTransfers.sol\":900:929  uint256 exchangeBalanceBefore */\n      0x00\n        /* \"scalable-dex/contracts/src/components/TokenTransfers.sol\":932:937  token */\n      dup2\n        /* \"scalable-dex/contracts/src/components/TokenTransfers.sol\":932:947  token.balanceOf */\n      0xffffffffffffffffffffffffffffffffffffffff\n      and\n      0x70a08231\n        /* \"scalable-dex/contracts/src/components/TokenTransfers.sol\":956:960  this */\n      address\n        /* \"scalable-dex/contracts/src/components/TokenTransfers.sol\":932:962  token.balanceOf(address(this)) */\n      mload(0x40)\n      dup3\n      0xffffffff\n      and\n      0xe0\n      shl\n      dup2\n      mstore\n      0x04\n      add\n      dup1\n      dup3\n      0xffffffffffffffffffffffffffffffffffffffff\n      and\n      dup2\n      mstore\n      0x20\n      add\n      swap2\n      pop\n      pop\n      0x20\n      mload(0x40)\n      dup1\n      dup4\n      sub\n      dup2\n      dup7\n      dup1\n      extcodesize\n      iszero\n      dup1\n      iszero\n      tag_322\n      jumpi\n      0x00\n      dup1\n      revert\n    tag_322:\n      pop\n      gas\n      staticcall\n      iszero\n      dup1\n      iszero\n      tag_324\n      jumpi\n      returndatasize\n      0x00\n      dup1\n      returndatacopy\n      revert(0x00, returndatasize)\n    tag_324:\n      pop\n      pop\n      pop\n      pop\n      mload(0x40)\n      returndatasize\n      0x20\n      dup2\n      lt\n      iszero\n      tag_325\n      jumpi\n      0x00\n      dup1\n      revert\n    tag_325:\n      dup2\n      add\n      swap1\n      dup1\n      dup1\n      mload\n      swap1\n      0x20\n      add\n      swap1\n      swap3\n      swap2\n      swap1\n      pop\n      pop\n      pop\n        /* \"scalable-dex/contracts/src/components/TokenTransfers.sol\":900:962  uint256 exchangeBalanceBefore = token.balanceOf(address(this)) */\n      swap1\n      pop\n        /* \"scalable-dex/contracts/src/components/TokenTransfers.sol\":976:997  bytes memory callData */\n      0x60\n        /* \"scalable-dex/contracts/src/components/TokenTransfers.sol\":1040:1067  token.transferFrom.selector */\n      shl(0xe0, 0x23b872dd)\n        /* \"scalable-dex/contracts/src/components/TokenTransfers.sol\":1085:1095  msg.sender */\n      caller\n        /* \"scalable-dex/contracts/src/components/TokenTransfers.sol\":1121:1125  this */\n      address\n        /* \"scalable-dex/contracts/src/components/TokenTransfers.sol\":1144:1150  amount */\n      dup8\n        /* \"scalable-dex/contracts/src/components/TokenTransfers.sol\":1000:1164  abi.encodeWithSelector(... */\n      add(0x24, mload(0x40))\n      dup1\n      dup5\n      0xffffffffffffffffffffffffffffffffffffffff\n      and\n      dup2\n      mstore\n      0x20\n      add\n      dup4\n      0xffffffffffffffffffffffffffffffffffffffff\n      and\n      dup2\n      mstore\n      0x20\n      add\n      dup3\n      dup2\n      mstore\n      0x20\n      add\n      swap4\n      pop\n      pop\n      pop\n      pop\n      mload(0x40)\n      0x20\n      dup2\n      dup4\n      sub\n      sub\n      dup2\n      mstore\n      swap1\n      0x40\n      mstore\n      swap1\n      not(0xffffffffffffffffffffffffffffffffffffffffffffffffffffffff)\n      and\n      0x20\n      dup3\n      add\n      dup1\n      mload\n      0xffffffffffffffffffffffffffffffffffffffffffffffffffffffff\n      dup4\n      dup2\n      dup4\n      and\n      or\n      dup4\n      mstore\n      pop\n      pop\n      pop\n      pop\n        /* \"scalable-dex/contracts/src/components/TokenTransfers.sol\":976:1164  bytes memory callData = abi.encodeWithSelector(... */\n      swap1\n      pop\n        /* \"scalable-dex/contracts/src/components/TokenTransfers.sol\":1178:1222  tokenAddress.safeTokenContractCall(callData) */\n      tag_326\n        /* \"scalable-dex/contracts/src/components/TokenTransfers.sol\":1213:1221  callData */\n      dup2\n        /* \"scalable-dex/contracts/src/components/TokenTransfers.sol\":1178:1190  tokenAddress */\n      dup6\n        /* \"scalable-dex/contracts/src/components/TokenTransfers.sol\":1178:1212  tokenAddress.safeTokenContractCall */\n      0xffffffffffffffffffffffffffffffffffffffff\n      and\n      tag_299\n      swap1\n        /* \"scalable-dex/contracts/src/components/TokenTransfers.sol\":1178:1222  tokenAddress.safeTokenContractCall(callData) */\n      swap2\n      swap1\n      0xffffffff\n      and\n      jump\t// in\n    tag_326:\n        /* \"scalable-dex/contracts/src/components/TokenTransfers.sol\":1236:1264  uint256 exchangeBalanceAfter */\n      0x00\n        /* \"scalable-dex/contracts/src/components/TokenTransfers.sol\":1267:1272  token */\n      dup4\n        /* \"scalable-dex/contracts/src/components/TokenTransfers.sol\":1267:1282  token.balanceOf */\n      0xffffffffffffffffffffffffffffffffffffffff\n      and\n      0x70a08231\n        /* \"scalable-dex/contracts/src/components/TokenTransfers.sol\":1291:1295  this */\n      address\n        /* \"scalable-dex/contracts/src/components/TokenTransfers.sol\":1267:1297  token.balanceOf(address(this)) */\n      mload(0x40)\n      dup3\n      0xffffffff\n      and\n      0xe0\n      shl\n      dup2\n      mstore\n      0x04\n      add\n      dup1\n      dup3\n      0xffffffffffffffffffffffffffffffffffffffff\n      and\n      dup2\n      mstore\n      0x20\n      add\n      swap2\n      pop\n      pop\n      0x20\n      mload(0x40)\n      dup1\n      dup4\n      sub\n      dup2\n      dup7\n      dup1\n      extcodesize\n      iszero\n      dup1\n      iszero\n      tag_327\n      jumpi\n      0x00\n      dup1\n      revert\n    tag_327:\n      pop\n      gas\n      staticcall\n      iszero\n      dup1\n      iszero\n      tag_329\n      jumpi\n      returndatasize\n      0x00\n      dup1\n      returndatacopy\n      revert(0x00, returndatasize)\n    tag_329:\n      pop\n      pop\n      pop\n      pop\n      mload(0x40)\n      returndatasize\n      0x20\n      dup2\n      lt\n      iszero\n      tag_330\n      jumpi\n      0x00\n      dup1\n      revert\n    tag_330:\n      dup2\n      add\n      swap1\n      dup1\n      dup1\n      mload\n      swap1\n      0x20\n      add\n      swap1\n      swap3\n      swap2\n      swap1\n      pop\n      pop\n      pop\n        /* \"scalable-dex/contracts/src/components/TokenTransfers.sol\":1236:1297  uint256 exchangeBalanceAfter = token.balanceOf(address(this)) */\n      swap1\n      pop\n        /* \"scalable-dex/contracts/src/components/TokenTransfers.sol\":1343:1364  exchangeBalanceBefore */\n      dup3\n        /* \"scalable-dex/contracts/src/components/TokenTransfers.sol\":1319:1339  exchangeBalanceAfter */\n      dup2\n        /* \"scalable-dex/contracts/src/components/TokenTransfers.sol\":1319:1364  exchangeBalanceAfter >= exchangeBalanceBefore */\n      lt\n      iszero\n        /* \"scalable-dex/contracts/src/components/TokenTransfers.sol\":1311:1377  require(exchangeBalanceAfter >= exchangeBalanceBefore, \"OVERFLOW\") */\n      tag_331\n      jumpi\n      mload(0x40)\n      0x08c379a000000000000000000000000000000000000000000000000000000000\n      dup2\n      mstore\n      0x04\n      add\n      dup1\n      dup1\n      0x20\n      add\n      dup3\n      dup2\n      sub\n      dup3\n      mstore\n      0x08\n      dup2\n      mstore\n      0x20\n      add\n      dup1\n      0x4f564552464c4f57000000000000000000000000000000000000000000000000\n      dup2\n      mstore\n      pop\n      0x20\n      add\n      swap2\n      pop\n      pop\n      mload(0x40)\n      dup1\n      swap2\n      sub\n      swap1\n      revert\n    tag_331:\n        /* \"scalable-dex/contracts/src/components/TokenTransfers.sol\":1539:1545  amount */\n      dup6\n        /* \"scalable-dex/contracts/src/components/TokenTransfers.sol\":1515:1536  exchangeBalanceBefore */\n      dup4\n        /* \"scalable-dex/contracts/src/components/TokenTransfers.sol\":1515:1545  exchangeBalanceBefore + amount */\n      add\n        /* \"scalable-dex/contracts/src/components/TokenTransfers.sol\":1491:1511  exchangeBalanceAfter */\n      dup2\n        /* \"scalable-dex/contracts/src/components/TokenTransfers.sol\":1491:1545  exchangeBalanceAfter == exchangeBalanceBefore + amount */\n      eq\n        /* \"scalable-dex/contracts/src/components/TokenTransfers.sol\":1466:1607  require(... */\n      tag_332\n      jumpi\n      mload(0x40)\n      0x08c379a000000000000000000000000000000000000000000000000000000000\n      dup2\n      mstore\n      0x04\n      add\n      dup1\n      dup1\n      0x20\n      add\n      dup3\n      dup2\n      sub\n      dup3\n      mstore\n      0x1c\n      dup2\n      mstore\n      0x20\n      add\n      dup1\n      0x494e434f52524543545f414d4f554e545f5452414e5346455252454400000000\n      dup2\n      mstore\n      pop\n      0x20\n      add\n      swap2\n      pop\n      pop\n      mload(0x40)\n      dup1\n      swap2\n      sub\n      swap1\n      revert\n    tag_332:\n        /* \"scalable-dex/contracts/src/components/TokenTransfers.sol\":743:1792  if (isERC20(assetType)) {... */\n      pop\n      pop\n      pop\n      pop\n      pop\n      jump(tag_333)\n    tag_320:\n        /* \"scalable-dex/contracts/src/components/TokenTransfers.sol\":1628:1646  isEther(assetType) */\n      tag_334\n        /* \"scalable-dex/contracts/src/components/TokenTransfers.sol\":1636:1645  assetType */\n      dup4\n        /* \"scalable-dex/contracts/src/components/TokenTransfers.sol\":1628:1635  isEther */\n      tag_191\n        /* \"scalable-dex/contracts/src/components/TokenTransfers.sol\":1628:1646  isEther(assetType) */\n      jump\t// in\n    tag_334:\n        /* \"scalable-dex/contracts/src/components/TokenTransfers.sol\":1624:1792  if (isEther(assetType)) {... */\n      iszero\n      tag_335\n      jumpi\n        /* \"scalable-dex/contracts/src/components/TokenTransfers.sol\":1683:1689  amount */\n      dup1\n        /* \"scalable-dex/contracts/src/components/TokenTransfers.sol\":1670:1679  msg.value */\n      callvalue\n        /* \"scalable-dex/contracts/src/components/TokenTransfers.sol\":1670:1689  msg.value == amount */\n      eq\n        /* \"scalable-dex/contracts/src/components/TokenTransfers.sol\":1662:1718  require(msg.value == amount, \"INCORRECT_DEPOSIT_AMOUNT\") */\n      tag_336\n      jumpi\n      mload(0x40)\n      0x08c379a000000000000000000000000000000000000000000000000000000000\n      dup2\n      mstore\n      0x04\n      add\n      dup1\n      dup1\n      0x20\n      add\n      dup3\n      dup2\n      sub\n      dup3\n      mstore\n      0x18\n      dup2\n      mstore\n      0x20\n      add\n      dup1\n      0x494e434f52524543545f4445504f5349545f414d4f554e540000000000000000\n      dup2\n      mstore\n      pop\n      0x20\n      add\n      swap2\n      pop\n      pop\n      mload(0x40)\n      dup1\n      swap2\n      sub\n      swap1\n      revert\n    tag_336:\n        /* \"scalable-dex/contracts/src/components/TokenTransfers.sol\":1624:1792  if (isEther(assetType)) {... */\n      jump(tag_337)\n    tag_335:\n        /* \"scalable-dex/contracts/src/components/TokenTransfers.sol\":1749:1781  revert(\"UNSUPPORTED_TOKEN_TYPE\") */\n      mload(0x40)\n      0x08c379a000000000000000000000000000000000000000000000000000000000\n      dup2\n      mstore\n      0x04\n      add\n      dup1\n      dup1\n      0x20\n      add\n      dup3\n      dup2\n      sub\n      dup3\n      mstore\n      0x16\n      dup2\n      mstore\n      0x20\n      add\n      dup1\n      0x554e535550504f525445445f544f4b454e5f5459504500000000000000000000\n      dup2\n      mstore\n      pop\n      0x20\n      add\n      swap2\n      pop\n      pop\n      mload(0x40)\n      dup1\n      swap2\n      sub\n      swap1\n      revert\n        /* \"scalable-dex/contracts/src/components/TokenTransfers.sol\":1624:1792  if (isEther(assetType)) {... */\n    tag_337:\n        /* \"scalable-dex/contracts/src/components/TokenTransfers.sol\":743:1792  if (isERC20(assetType)) {... */\n    tag_333:\n        /* \"scalable-dex/contracts/src/components/TokenTransfers.sol\":583:1798  function transferIn(uint256 assetType, uint256 quantizedAmount) internal override {... */\n      pop\n      pop\n      pop\n      jump\t// out\n        /* \"scalable-dex/contracts/src/components/Governance.sol\":1231:1510  function contractGovernanceInfo() internal view returns (GovernanceInfoStruct storage) {... */\n    tag_248:\n        /* \"scalable-dex/contracts/src/components/Governance.sol\":1288:1316  GovernanceInfoStruct storage */\n      0x00\n        /* \"scalable-dex/contracts/src/components/Governance.sol\":1328:1345  string memory tag */\n      0x60\n        /* \"scalable-dex/contracts/src/components/Governance.sol\":1348:1366  getGovernanceTag() */\n      tag_339\n        /* \"scalable-dex/contracts/src/components/Governance.sol\":1348:1364  getGovernanceTag */\n      tag_340\n        /* \"scalable-dex/contracts/src/components/Governance.sol\":1348:1366  getGovernanceTag() */\n      jump\t// in\n    tag_339:\n        /* \"scalable-dex/contracts/src/components/Governance.sol\":1328:1366  string memory tag = getGovernanceTag() */\n      swap1\n      pop\n        /* \"scalable-dex/contracts/src/components/Governance.sol\":1376:1408  GovernanceInfoStruct storage gub */\n      0x00\n        /* \"scalable-dex/contracts/src/components/Governance.sol\":1411:1425  governanceInfo */\n      dup1\n        /* \"scalable-dex/contracts/src/components/Governance.sol\":1426:1429  tag */\n      dup3\n        /* \"scalable-dex/contracts/src/components/Governance.sol\":1411:1430  governanceInfo[tag] */\n      mload(0x40)\n      dup1\n      dup3\n      dup1\n      mload\n      swap1\n      0x20\n      add\n      swap1\n      dup1\n      dup4\n      dup4\n    tag_341:\n      0x20\n      dup4\n      lt\n      tag_343\n      jumpi\n      dup1\n      mload\n      dup3\n      mstore\n      0x20\n      dup3\n      add\n      swap2\n      pop\n      0x20\n      dup2\n      add\n      swap1\n      pop\n      0x20\n      dup4\n      sub\n      swap3\n      pop\n      jump(tag_341)\n    tag_343:\n      0x01\n      dup4\n      0x20\n      sub\n      0x0100\n      exp\n      sub\n      dup1\n      not\n      dup3\n      mload\n      and\n      dup2\n      dup5\n      mload\n      and\n      dup1\n      dup3\n      or\n      dup6\n      mstore\n      pop\n      pop\n      pop\n      pop\n      pop\n      pop\n      swap1\n      pop\n      add\n      swap2\n      pop\n      pop\n      swap1\n      dup2\n      mstore\n      0x20\n      add\n      mload(0x40)\n      dup1\n      swap2\n      sub\n      swap1\n      keccak256\n        /* \"scalable-dex/contracts/src/components/Governance.sol\":1376:1430  GovernanceInfoStruct storage gub = governanceInfo[tag] */\n      swap1\n      pop\n        /* \"scalable-dex/contracts/src/components/Governance.sol\":1448:1451  gub */\n      dup1\n        /* \"scalable-dex/contracts/src/components/Governance.sol\":1448:1463  gub.initialized */\n      0x01\n      add\n      0x14\n      swap1\n      sload\n      swap1\n      0x0100\n      exp\n      swap1\n      div\n      0xff\n      and\n        /* \"scalable-dex/contracts/src/components/Governance.sol\":1440:1483  require(gub.initialized, \"NOT_INITIALIZED\") */\n      tag_344\n      jumpi\n      mload(0x40)\n      0x08c379a000000000000000000000000000000000000000000000000000000000\n      dup2\n      mstore\n      0x04\n      add\n      dup1\n      dup1\n      0x20\n      add\n      dup3\n      dup2\n      sub\n      dup3\n      mstore\n      0x0f\n      dup2\n      mstore\n      0x20\n      add\n      dup1\n      0x4e4f545f494e495449414c495a45440000000000000000000000000000000000\n      dup2\n      mstore\n      pop\n      0x20\n      add\n      swap2\n      pop\n      pop\n      mload(0x40)\n      dup1\n      swap2\n      sub\n      swap1\n      revert\n    tag_344:\n        /* \"scalable-dex/contracts/src/components/Governance.sol\":1500:1503  gub */\n      dup1\n        /* \"scalable-dex/contracts/src/components/Governance.sol\":1493:1503  return gub */\n      swap3\n      pop\n      pop\n      pop\n        /* \"scalable-dex/contracts/src/components/Governance.sol\":1231:1510  function contractGovernanceInfo() internal view returns (GovernanceInfoStruct storage) {... */\n      swap1\n      jump\t// out\n        /* \"scalable-dex/contracts/src/components/Governance.sol\":3600:3841  function addGovernor(address newGovernor) private {... */\n    tag_251:\n        /* \"scalable-dex/contracts/src/components/Governance.sol\":3669:3692  isGovernor(newGovernor) */\n      tag_346\n        /* \"scalable-dex/contracts/src/components/Governance.sol\":3680:3691  newGovernor */\n      dup2\n        /* \"scalable-dex/contracts/src/components/Governance.sol\":3669:3679  isGovernor */\n      tag_177\n        /* \"scalable-dex/contracts/src/components/Governance.sol\":3669:3692  isGovernor(newGovernor) */\n      jump\t// in\n    tag_346:\n        /* \"scalable-dex/contracts/src/components/Governance.sol\":3668:3692  !isGovernor(newGovernor) */\n      iszero\n        /* \"scalable-dex/contracts/src/components/Governance.sol\":3660:3713  require(!isGovernor(newGovernor), \"ALREADY_GOVERNOR\") */\n      tag_347\n      jumpi\n      mload(0x40)\n      0x08c379a000000000000000000000000000000000000000000000000000000000\n      dup2\n      mstore\n      0x04\n      add\n      dup1\n      dup1\n      0x20\n      add\n      dup3\n      dup2\n      sub\n      dup3\n      mstore\n      0x10\n      dup2\n      mstore\n      0x20\n      add\n      dup1\n      0x414c52454144595f474f5645524e4f5200000000000000000000000000000000\n      dup2\n      mstore\n      pop\n      0x20\n      add\n      swap2\n      pop\n      pop\n      mload(0x40)\n      dup1\n      swap2\n      sub\n      swap1\n      revert\n    tag_347:\n        /* \"scalable-dex/contracts/src/components/Governance.sol\":3723:3755  GovernanceInfoStruct storage gub */\n      0x00\n        /* \"scalable-dex/contracts/src/components/Governance.sol\":3758:3782  contractGovernanceInfo() */\n      tag_348\n        /* \"scalable-dex/contracts/src/components/Governance.sol\":3758:3780  contractGovernanceInfo */\n      tag_248\n        /* \"scalable-dex/contracts/src/components/Governance.sol\":3758:3782  contractGovernanceInfo() */\n      jump\t// in\n    tag_348:\n        /* \"scalable-dex/contracts/src/components/Governance.sol\":3723:3782  GovernanceInfoStruct storage gub = contractGovernanceInfo() */\n      swap1\n      pop\n        /* \"scalable-dex/contracts/src/components/Governance.sol\":3830:3834  true */\n      0x01\n        /* \"scalable-dex/contracts/src/components/Governance.sol\":3792:3795  gub */\n      dup2\n        /* \"scalable-dex/contracts/src/components/Governance.sol\":3792:3814  gub.effectiveGovernors */\n      0x00\n      add\n        /* \"scalable-dex/contracts/src/components/Governance.sol\":3792:3827  gub.effectiveGovernors[newGovernor] */\n      0x00\n        /* \"scalable-dex/contracts/src/components/Governance.sol\":3815:3826  newGovernor */\n      dup5\n        /* \"scalable-dex/contracts/src/components/Governance.sol\":3792:3827  gub.effectiveGovernors[newGovernor] */\n      0xffffffffffffffffffffffffffffffffffffffff\n      and\n      0xffffffffffffffffffffffffffffffffffffffff\n      and\n      dup2\n      mstore\n      0x20\n      add\n      swap1\n      dup2\n      mstore\n      0x20\n      add\n      0x00\n      keccak256\n      0x00\n        /* \"scalable-dex/contracts/src/components/Governance.sol\":3792:3834  gub.effectiveGovernors[newGovernor] = true */\n      0x0100\n      exp\n      dup2\n      sload\n      dup2\n      0xff\n      mul\n      not\n      and\n      swap1\n      dup4\n      iszero\n      iszero\n      mul\n      or\n      swap1\n      sstore\n      pop\n        /* \"scalable-dex/contracts/src/components/Governance.sol\":3600:3841  function addGovernor(address newGovernor) private {... */\n      pop\n      pop\n      jump\t// out\n        /* \"scalable-dex/contracts/src/interactions/TokenAssetData.sol\":2277:2438  function isERC20(uint256 assetType) internal view override returns (bool) {... */\n    tag_290:\n        /* \"scalable-dex/contracts/src/interactions/TokenAssetData.sol\":2345:2349  bool */\n      0x00\n        /* \"scalable-dex/contracts/src/interactions/TokenAssetData.sol\":350:382  keccak256(\"ERC20Token(address)\") */\n      0xf47261b06eedbfce68afd46d0f3c27c60b03faad319eaf33103611cf8f6456ad\n        /* \"scalable-dex/contracts/src/interactions/TokenAssetData.sol\":2368:2431  extractTokenSelector(getAssetInfo(assetType)) == ERC20_SELECTOR */\n      not(0xffffffffffffffffffffffffffffffffffffffffffffffffffffffff)\n      and\n        /* \"scalable-dex/contracts/src/interactions/TokenAssetData.sol\":2368:2413  extractTokenSelector(getAssetInfo(assetType)) */\n      tag_350\n        /* \"scalable-dex/contracts/src/interactions/TokenAssetData.sol\":2389:2412  getAssetInfo(assetType) */\n      tag_351\n        /* \"scalable-dex/contracts/src/interactions/TokenAssetData.sol\":2402:2411  assetType */\n      dup5\n        /* \"scalable-dex/contracts/src/interactions/TokenAssetData.sol\":2389:2401  getAssetInfo */\n      tag_153\n        /* \"scalable-dex/contracts/src/interactions/TokenAssetData.sol\":2389:2412  getAssetInfo(assetType) */\n      jump\t// in\n    tag_351:\n        /* \"scalable-dex/contracts/src/interactions/TokenAssetData.sol\":2368:2388  extractTokenSelector */\n      tag_234\n        /* \"scalable-dex/contracts/src/interactions/TokenAssetData.sol\":2368:2413  extractTokenSelector(getAssetInfo(assetType)) */\n      jump\t// in\n    tag_350:\n        /* \"scalable-dex/contracts/src/interactions/TokenAssetData.sol\":2368:2431  extractTokenSelector(getAssetInfo(assetType)) == ERC20_SELECTOR */\n      not(0xffffffffffffffffffffffffffffffffffffffffffffffffffffffff)\n      and\n      eq\n        /* \"scalable-dex/contracts/src/interactions/TokenAssetData.sol\":2361:2431  return extractTokenSelector(getAssetInfo(assetType)) == ERC20_SELECTOR */\n      swap1\n      pop\n        /* \"scalable-dex/contracts/src/interactions/TokenAssetData.sol\":2277:2438  function isERC20(uint256 assetType) internal view override returns (bool) {... */\n      swap2\n      swap1\n      pop\n      jump\t// out\n        /* \"scalable-dex/contracts/src/interactions/TokenAssetData.sol\":3922:4098  function extractContractAddress(uint256 assetType) internal view override returns (address) {... */\n    tag_293:\n        /* \"scalable-dex/contracts/src/interactions/TokenAssetData.sol\":4005:4012  address */\n      0x00\n        /* \"scalable-dex/contracts/src/interactions/TokenAssetData.sol\":4031:4091  extractContractAddressFromAssetInfo(getAssetInfo(assetType)) */\n      tag_353\n        /* \"scalable-dex/contracts/src/interactions/TokenAssetData.sol\":4067:4090  getAssetInfo(assetType) */\n      tag_354\n        /* \"scalable-dex/contracts/src/interactions/TokenAssetData.sol\":4080:4089  assetType */\n      dup4\n        /* \"scalable-dex/contracts/src/interactions/TokenAssetData.sol\":4067:4079  getAssetInfo */\n      tag_153\n        /* \"scalable-dex/contracts/src/interactions/TokenAssetData.sol\":4067:4090  getAssetInfo(assetType) */\n      jump\t// in\n    tag_354:\n        /* \"scalable-dex/contracts/src/interactions/TokenAssetData.sol\":4031:4066  extractContractAddressFromAssetInfo */\n      tag_355\n        /* \"scalable-dex/contracts/src/interactions/TokenAssetData.sol\":4031:4091  extractContractAddressFromAssetInfo(getAssetInfo(assetType)) */\n      jump\t// in\n    tag_353:\n        /* \"scalable-dex/contracts/src/interactions/TokenAssetData.sol\":4024:4091  return extractContractAddressFromAssetInfo(getAssetInfo(assetType)) */\n      swap1\n      pop\n        /* \"scalable-dex/contracts/src/interactions/TokenAssetData.sol\":3922:4098  function extractContractAddress(uint256 assetType) internal view override returns (address) {... */\n      swap2\n      swap1\n      pop\n      jump\t// out\n        /* \"scalable-dex/contracts/src/libraries/Common.sol\":784:1236  function safeTokenContractCall(address tokenAddress, bytes memory callData) internal {... */\n    tag_299:\n        /* \"scalable-dex/contracts/src/libraries/Common.sol\":887:911  isContract(tokenAddress) */\n      tag_357\n        /* \"scalable-dex/contracts/src/libraries/Common.sol\":898:910  tokenAddress */\n      dup3\n        /* \"scalable-dex/contracts/src/libraries/Common.sol\":887:897  isContract */\n      tag_358\n        /* \"scalable-dex/contracts/src/libraries/Common.sol\":887:911  isContract(tokenAddress) */\n      jump\t// in\n    tag_357:\n        /* \"scalable-dex/contracts/src/libraries/Common.sol\":879:933  require(isContract(tokenAddress), \"BAD_TOKEN_ADDRESS\") */\n      tag_359\n      jumpi\n      mload(0x40)\n      0x08c379a000000000000000000000000000000000000000000000000000000000\n      dup2\n      mstore\n      0x04\n      add\n      dup1\n      dup1\n      0x20\n      add\n      dup3\n      dup2\n      sub\n      dup3\n      mstore\n      0x11\n      dup2\n      mstore\n      0x20\n      add\n      dup1\n      0x4241445f544f4b454e5f41444452455353000000000000000000000000000000\n      dup2\n      mstore\n      pop\n      0x20\n      add\n      swap2\n      pop\n      pop\n      mload(0x40)\n      dup1\n      swap2\n      sub\n      swap1\n      revert\n    tag_359:\n        /* \"scalable-dex/contracts/src/libraries/Common.sol\":988:1000  bool success */\n      0x00\n        /* \"scalable-dex/contracts/src/libraries/Common.sol\":1002:1025  bytes memory returndata */\n      0x60\n        /* \"scalable-dex/contracts/src/libraries/Common.sol\":1029:1041  tokenAddress */\n      dup4\n        /* \"scalable-dex/contracts/src/libraries/Common.sol\":1029:1046  tokenAddress.call */\n      0xffffffffffffffffffffffffffffffffffffffff\n      and\n        /* \"scalable-dex/contracts/src/libraries/Common.sol\":1047:1055  callData */\n      dup4\n        /* \"scalable-dex/contracts/src/libraries/Common.sol\":1029:1056  tokenAddress.call(callData) */\n      mload(0x40)\n      dup1\n      dup3\n      dup1\n      mload\n      swap1\n      0x20\n      add\n      swap1\n      dup1\n      dup4\n      dup4\n    tag_360:\n      0x20\n      dup4\n      lt\n      tag_362\n      jumpi\n      dup1\n      mload\n      dup3\n      mstore\n      0x20\n      dup3\n      add\n      swap2\n      pop\n      0x20\n      dup2\n      add\n      swap1\n      pop\n      0x20\n      dup4\n      sub\n      swap3\n      pop\n      jump(tag_360)\n    tag_362:\n      0x01\n      dup4\n      0x20\n      sub\n      0x0100\n      exp\n      sub\n      dup1\n      not\n      dup3\n      mload\n      and\n      dup2\n      dup5\n      mload\n      and\n      dup1\n      dup3\n      or\n      dup6\n      mstore\n      pop\n      pop\n      pop\n      pop\n      pop\n      pop\n      swap1\n      pop\n      add\n      swap2\n      pop\n      pop\n      0x00\n      mload(0x40)\n      dup1\n      dup4\n      sub\n      dup2\n      0x00\n      dup7\n      gas\n      call\n      swap2\n      pop\n      pop\n      returndatasize\n      dup1\n      0x00\n      dup2\n      eq\n      tag_365\n      jumpi\n      mload(0x40)\n      swap2\n      pop\n      and(add(returndatasize, 0x3f), not(0x1f))\n      dup3\n      add\n      0x40\n      mstore\n      returndatasize\n      dup3\n      mstore\n      returndatasize\n      0x00\n      0x20\n      dup5\n      add\n      returndatacopy\n      jump(tag_364)\n    tag_365:\n      0x60\n      swap2\n      pop\n    tag_364:\n      pop\n        /* \"scalable-dex/contracts/src/libraries/Common.sol\":987:1056  (bool success, bytes memory returndata) = tokenAddress.call(callData) */\n      swap2\n      pop\n      swap2\n      pop\n        /* \"scalable-dex/contracts/src/libraries/Common.sol\":1074:1081  success */\n      dup2\n        /* \"scalable-dex/contracts/src/libraries/Common.sol\":1090:1100  returndata */\n      dup2\n        /* \"scalable-dex/contracts/src/libraries/Common.sol\":1066:1102  require(success, string(returndata)) */\n      swap1\n      tag_366\n      jumpi\n      mload(0x40)\n      0x08c379a000000000000000000000000000000000000000000000000000000000\n      dup2\n      mstore\n      0x04\n      add\n      dup1\n      dup1\n      0x20\n      add\n      dup3\n      dup2\n      sub\n      dup3\n      mstore\n      dup4\n      dup2\n      dup2\n      mload\n      dup2\n      mstore\n      0x20\n      add\n      swap2\n      pop\n      dup1\n      mload\n      swap1\n      0x20\n      add\n      swap1\n      dup1\n      dup4\n      dup4\n      0x00\n    tag_367:\n      dup4\n      dup2\n      lt\n      iszero\n      tag_369\n      jumpi\n      dup1\n      dup3\n      add\n      mload\n      dup2\n      dup5\n      add\n      mstore\n      0x20\n      dup2\n      add\n      swap1\n      pop\n      jump(tag_367)\n    tag_369:\n      pop\n      pop\n      pop\n      pop\n      swap1\n      pop\n      swap1\n      dup2\n      add\n      swap1\n      0x1f\n      and\n      dup1\n      iszero\n      tag_370\n      jumpi\n      dup1\n      dup3\n      sub\n      dup1\n      mload\n      0x01\n      dup4\n      0x20\n      sub\n      0x0100\n      exp\n      sub\n      not\n      and\n      dup2\n      mstore\n      0x20\n      add\n      swap2\n      pop\n    tag_370:\n      pop\n      swap3\n      pop\n      pop\n      pop\n      mload(0x40)\n      dup1\n      swap2\n      sub\n      swap1\n      revert\n    tag_366:\n      pop\n        /* \"scalable-dex/contracts/src/libraries/Common.sol\":1137:1138  0 */\n      0x00\n        /* \"scalable-dex/contracts/src/libraries/Common.sol\":1117:1127  returndata */\n      dup2\n        /* \"scalable-dex/contracts/src/libraries/Common.sol\":1117:1134  returndata.length */\n      mload\n        /* \"scalable-dex/contracts/src/libraries/Common.sol\":1117:1138  returndata.length > 0 */\n      gt\n        /* \"scalable-dex/contracts/src/libraries/Common.sol\":1113:1230  if (returndata.length > 0) {... */\n      iszero\n      tag_371\n      jumpi\n        /* \"scalable-dex/contracts/src/libraries/Common.sol\":1173:1183  returndata */\n      dup1\n        /* \"scalable-dex/contracts/src/libraries/Common.sol\":1162:1192  abi.decode(returndata, (bool)) */\n      dup1\n      0x20\n      add\n      swap1\n      mload\n      0x20\n      dup2\n      lt\n      iszero\n      tag_372\n      jumpi\n      0x00\n      dup1\n      revert\n    tag_372:\n      dup2\n      add\n      swap1\n      dup1\n      dup1\n      mload\n      swap1\n      0x20\n      add\n      swap1\n      swap3\n      swap2\n      swap1\n      pop\n      pop\n      pop\n        /* \"scalable-dex/contracts/src/libraries/Common.sol\":1154:1219  require(abi.decode(returndata, (bool)), \"TOKEN_OPERATION_FAILED\") */\n      tag_373\n      jumpi\n      mload(0x40)\n      0x08c379a000000000000000000000000000000000000000000000000000000000\n      dup2\n      mstore\n      0x04\n      add\n      dup1\n      dup1\n      0x20\n      add\n      dup3\n      dup2\n      sub\n      dup3\n      mstore\n      0x16\n      dup2\n      mstore\n      0x20\n      add\n      dup1\n      0x544f4b454e5f4f5045524154494f4e5f4641494c454400000000000000000000\n      dup2\n      mstore\n      pop\n      0x20\n      add\n      swap2\n      pop\n      pop\n      mload(0x40)\n      dup1\n      swap2\n      sub\n      swap1\n      revert\n    tag_373:\n        /* \"scalable-dex/contracts/src/libraries/Common.sol\":1113:1230  if (returndata.length > 0) {... */\n    tag_371:\n        /* \"scalable-dex/contracts/src/libraries/Common.sol\":784:1236  function safeTokenContractCall(address tokenAddress, bytes memory callData) internal {... */\n      pop\n      pop\n      pop\n      pop\n      jump\t// out\n        /* \"scalable-dex/contracts/src/libraries/Common.sol\":357:575  function performEthTransfer(address recipient, uint256 amount) internal {... */\n    tag_310:\n        /* \"scalable-dex/contracts/src/libraries/Common.sol\":440:452  bool success */\n      0x00\n        /* \"scalable-dex/contracts/src/libraries/Common.sol\":458:467  recipient */\n      dup3\n        /* \"scalable-dex/contracts/src/libraries/Common.sol\":458:472  recipient.call */\n      0xffffffffffffffffffffffffffffffffffffffff\n      and\n        /* \"scalable-dex/contracts/src/libraries/Common.sol\":480:486  amount */\n      dup3\n        /* \"scalable-dex/contracts/src/libraries/Common.sol\":458:491  recipient.call{value: amount}(\"\") */\n      mload(0x40)\n      dup1\n      0x00\n      add\n      swap1\n      pop\n      0x00\n      mload(0x40)\n      dup1\n      dup4\n      sub\n      dup2\n      dup6\n      dup8\n      gas\n      call\n      swap3\n      pop\n      pop\n      pop\n      returndatasize\n      dup1\n      0x00\n      dup2\n      eq\n      tag_377\n      jumpi\n      mload(0x40)\n      swap2\n      pop\n      and(add(returndatasize, 0x3f), not(0x1f))\n      dup3\n      add\n      0x40\n      mstore\n      returndatasize\n      dup3\n      mstore\n      returndatasize\n      0x00\n      0x20\n      dup5\n      add\n      returndatacopy\n      jump(tag_376)\n    tag_377:\n      0x60\n      swap2\n      pop\n    tag_376:\n      pop\n        /* \"scalable-dex/contracts/src/libraries/Common.sol\":439:491  (bool success, ) = recipient.call{value: amount}(\"\") */\n      pop\n      swap1\n      pop\n        /* \"scalable-dex/contracts/src/libraries/Common.sol\":537:544  success */\n      dup1\n        /* \"scalable-dex/contracts/src/libraries/Common.sol\":529:568  require(success, \"ETH_TRANSFER_FAILED\") */\n      tag_378\n      jumpi\n      mload(0x40)\n      0x08c379a000000000000000000000000000000000000000000000000000000000\n      dup2\n      mstore\n      0x04\n      add\n      dup1\n      dup1\n      0x20\n      add\n      dup3\n      dup2\n      sub\n      dup3\n      mstore\n      0x13\n      dup2\n      mstore\n      0x20\n      add\n      dup1\n      0x4554485f5452414e534645525f4641494c454400000000000000000000000000\n      dup2\n      mstore\n      pop\n      0x20\n      add\n      swap2\n      pop\n      pop\n      mload(0x40)\n      dup1\n      swap2\n      sub\n      swap1\n      revert\n    tag_378:\n        /* \"scalable-dex/contracts/src/libraries/Common.sol\":357:575  function performEthTransfer(address recipient, uint256 amount) internal {... */\n      pop\n      pop\n      pop\n      jump\t// out\n        /* \"scalable-dex/contracts/src/components/MainGovernance.sol\":1827:1953  function getGovernanceTag() internal pure override returns (string memory tag) {... */\n    tag_340:\n        /* \"scalable-dex/contracts/src/components/MainGovernance.sol\":1887:1904  string memory tag */\n      0x60\n        /* \"scalable-dex/contracts/src/components/MainGovernance.sol\":1922:1946  MAIN_GOVERNANCE_INFO_TAG */\n      mload(0x40)\n      dup1\n      0x60\n      add\n      0x40\n      mstore\n      dup1\n      0x26\n      dup2\n      mstore\n      0x20\n      add\n      data_ba6723cd96f04722dd5b39f1fec1d379925779afeea0248c94e7ccb35c720bcb\n      0x26\n      swap2\n      codecopy\n        /* \"scalable-dex/contracts/src/components/MainGovernance.sol\":1916:1946  tag = MAIN_GOVERNANCE_INFO_TAG */\n      swap1\n      pop\n        /* \"scalable-dex/contracts/src/components/MainGovernance.sol\":1827:1953  function getGovernanceTag() internal pure override returns (string memory tag) {... */\n      swap1\n      jump\t// out\n        /* \"scalable-dex/contracts/src/interactions/TokenAssetData.sol\":3597:3916  function extractContractAddressFromAssetInfo(bytes memory assetInfo)... */\n    tag_355:\n        /* \"scalable-dex/contracts/src/interactions/TokenAssetData.sol\":3712:3719  address */\n      0x00\n        /* \"scalable-dex/contracts/src/interactions/TokenAssetData.sol\":3735:3749  uint256 offset */\n      dup1\n        /* \"scalable-dex/contracts/src/interactions/TokenAssetData.sol\":959:960  4 */\n      0x04\n        /* \"scalable-dex/contracts/src/interactions/TokenAssetData.sol\":907:911  0x20 */\n      0x20\n        /* \"scalable-dex/contracts/src/interactions/TokenAssetData.sol\":1024:1055  SELECTOR_OFFSET + SELECTOR_SIZE */\n      add\n        /* \"scalable-dex/contracts/src/interactions/TokenAssetData.sol\":3735:3781  uint256 offset = TOKEN_CONTRACT_ADDRESS_OFFSET */\n      swap1\n      pop\n        /* \"scalable-dex/contracts/src/interactions/TokenAssetData.sol\":3791:3802  uint256 res */\n      0x00\n        /* \"scalable-dex/contracts/src/interactions/TokenAssetData.sol\":3863:3869  offset */\n      dup2\n        /* \"scalable-dex/contracts/src/interactions/TokenAssetData.sol\":3852:3861  assetInfo */\n      dup5\n        /* \"scalable-dex/contracts/src/interactions/TokenAssetData.sol\":3848:3870  add(assetInfo, offset) */\n      add\n        /* \"scalable-dex/contracts/src/interactions/TokenAssetData.sol\":3842:3871  mload(add(assetInfo, offset)) */\n      mload\n        /* \"scalable-dex/contracts/src/interactions/TokenAssetData.sol\":3835:3871  res := mload(add(assetInfo, offset)) */\n      swap1\n      pop\n        /* \"scalable-dex/contracts/src/interactions/TokenAssetData.sol\":3905:3908  res */\n      dup1\n        /* \"scalable-dex/contracts/src/interactions/TokenAssetData.sol\":3890:3909  return address(res) */\n      swap3\n      pop\n      pop\n      pop\n        /* \"scalable-dex/contracts/src/interactions/TokenAssetData.sol\":3597:3916  function extractContractAddressFromAssetInfo(bytes memory assetInfo)... */\n      swap2\n      swap1\n      pop\n      jump\t// out\n        /* \"scalable-dex/contracts/src/libraries/Common.sol\":161:351  function isContract(address account) internal view returns (bool) {... */\n    tag_358:\n        /* \"scalable-dex/contracts/src/libraries/Common.sol\":221:225  bool */\n      0x00\n        /* \"scalable-dex/contracts/src/libraries/Common.sol\":237:249  uint256 size */\n      dup1\n        /* \"scalable-dex/contracts/src/libraries/Common.sol\":302:309  account */\n      dup3\n        /* \"scalable-dex/contracts/src/libraries/Common.sol\":290:310  extcodesize(account) */\n      extcodesize\n        /* \"scalable-dex/contracts/src/libraries/Common.sol\":282:310  size := extcodesize(account) */\n      swap1\n      pop\n        /* \"scalable-dex/contracts/src/libraries/Common.sol\":343:344  0 */\n      0x00\n        /* \"scalable-dex/contracts/src/libraries/Common.sol\":336:340  size */\n      dup2\n        /* \"scalable-dex/contracts/src/libraries/Common.sol\":336:344  size > 0 */\n      gt\n        /* \"scalable-dex/contracts/src/libraries/Common.sol\":329:344  return size > 0 */\n      swap2\n      pop\n      pop\n        /* \"scalable-dex/contracts/src/libraries/Common.sol\":161:351  function isContract(address account) internal view returns (bool) {... */\n      swap2\n      swap1\n      pop\n      jump\t// out\n    stop\n    data_ba6723cd96f04722dd5b39f1fec1d379925779afeea0248c94e7ccb35c720bcb 537461726b45782e4d61696e2e323031392e476f7665726e6f7273496e666f726d6174696f6e\n\n    auxdata: 0xa26469706673582212203f859c068e4e9c5b0d0adf5cde8227de4d85c73b2665deb67ee61823456dec5764736f6c634300060c0033\n}\n",
				"bytecode": {
					"linkReferences": {},
					"object": "608060405234801561001057600080fd5b506133ba806100206000396000f3fe6080604052600436106101cc5760003560e01c80639de5c4e5116100f7578063d4181dea11610095578063e6de628211610064578063e6de62821461092a578063e8d28a9d14610955578063eeb72866146109a4578063f637d95014610a34576101cc565b8063d4181dea146107fc578063dd7202d814610837578063e30a5cff14610886578063e69a9de7146108b1576101cc565b8063a45d7841116100d1578063a45d7841146106c7578063b7663112146106f2578063bf422b2e1461071d578063c23b60ef1461076c576101cc565b80639de5c4e5146105c5578063a1cc921e1461063e578063a3c71fde1461068f576101cc565b806345f5cd971161016f578063835a71c31161013e578063835a71c3146104dd5780638c4bce1c14610508578063993f3639146105595780639c6a283714610584576101cc565b806345f5cd97146104075780635adf16391461046e57806372eb36881461049b57806377e84e0d146104b2576101cc565b806327c2b36d116101ab57806327c2b36d146102c457806328700a151461033f5780633cc660ad14610356578063439fab9114610381576101cc565b8062717542146101d15780631c6bd544146101fc5780631d13300214610275575b600080fd5b3480156101dd57600080fd5b506101e6610ae8565b6040518082815260200191505060405180910390f35b34801561020857600080fd5b5061025f6004803603606081101561021f57600080fd5b81019080803573ffffffffffffffffffffffffffffffffffffffff1690602001909291908035906020019092919080359060200190929190505050610aef565b6040518082815260200191505060405180910390f35b34801561028157600080fd5b506102c26004803603606081101561029857600080fd5b81019080803590602001909291908035906020019092919080359060200190929190505050610b0e565b005b3480156102d057600080fd5b50610327600480360360608110156102e757600080fd5b81019080803573ffffffffffffffffffffffffffffffffffffffff1690602001909291908035906020019092919080359060200190929190505050610b99565b60405180821515815260200191505060405180910390f35b34801561034b57600080fd5b50610354610bb6565b005b34801561036257600080fd5b5061036b610bc0565b6040518082815260200191505060405180910390f35b34801561038d57600080fd5b50610405600480360360208110156103a457600080fd5b81019080803590602001906401000000008111156103c157600080fd5b8201836020820111156103d357600080fd5b803590602001918460018302840111640100000000831117156103f557600080fd5b9091929391929390505050610bc5565b005b34801561041357600080fd5b506104566004803603602081101561042a57600080fd5b81019080803573ffffffffffffffffffffffffffffffffffffffff169060200190929190505050610c33565b60405180821515815260200191505060405180910390f35b34801561047a57600080fd5b50610483610c45565b60405180821515815260200191505060405180910390f35b3480156104a757600080fd5b506104b0610c64565b005b3480156104be57600080fd5b506104c7610c6e565b6040518082815260200191505060405180910390f35b3480156104e957600080fd5b506104f2610c75565b6040518082815260200191505060405180910390f35b34801561051457600080fd5b506105576004803603602081101561052b57600080fd5b81019080803573ffffffffffffffffffffffffffffffffffffffff169060200190929190505050610c7c565b005b34801561056557600080fd5b5061056e610c88565b6040518082815260200191505060405180910390f35b34801561059057600080fd5b50610599610c90565b604051808273ffffffffffffffffffffffffffffffffffffffff16815260200191505060405180910390f35b3480156105d157600080fd5b50610628600480360360608110156105e857600080fd5b81019080803573ffffffffffffffffffffffffffffffffffffffff1690602001909291908035906020019092919080359060200190929190505050610cbe565b6040518082815260200191505060405180910390f35b34801561064a57600080fd5b5061068d6004803603602081101561066157600080fd5b81019080803573ffffffffffffffffffffffffffffffffffffffff169060200190929190505050610d33565b005b6106c5600480360360408110156106a557600080fd5b810190808035906020019092919080359060200190929190505050610d3f565b005b3480156106d357600080fd5b506106dc610dd8565b6040518082815260200191505060405180910390f35b3480156106fe57600080fd5b50610707610de6565b6040518082815260200191505060405180910390f35b34801561072957600080fd5b5061076a6004803603606081101561074057600080fd5b81019080803590602001909291908035906020019092919080359060200190929190505050610df2565b005b34801561077857600080fd5b506107816111b8565b6040518080602001828103825283818151815260200191508051906020019080838360005b838110156107c15780820151818401526020810190506107a6565b50505050905090810190601f1680156107ee5780820380516001836020036101000a031916815260200191505b509250505060405180910390f35b34801561080857600080fd5b506108356004803603602081101561081f57600080fd5b81019080803590602001909291905050506111d4565b005b34801561084357600080fd5b506108706004803603602081101561085a57600080fd5b8101908080359060200190929190505050611311565b6040518082815260200191505060405180910390f35b34801561089257600080fd5b5061089b61135d565b6040518082815260200191505060405180910390f35b3480156108bd57600080fd5b50610914600480360360608110156108d457600080fd5b81019080803573ffffffffffffffffffffffffffffffffffffffff1690602001909291908035906020019092919080359060200190929190505050611362565b6040518082815260200191505060405180910390f35b34801561093657600080fd5b5061093f6113d7565b6040518082815260200191505060405180910390f35b34801561096157600080fd5b506109a26004803603606081101561097857600080fd5b810190808035906020019092919080359060200190929190803590602001909291905050506113dc565b005b3480156109b057600080fd5b506109b9611542565b6040518080602001828103825283818151815260200191508051906020019080838360005b838110156109f95780820151818401526020810190506109de565b50505050905090810190601f168015610a265780820380516001836020036101000a031916815260200191505b509250505060405180910390f35b348015610a4057600080fd5b50610a6d60048036036020811015610a5757600080fd5b810190808035906020019092919050505061157f565b6040518080602001828103825283818151815260200191508051906020019080838360005b83811015610aad578082015181840152602081019050610a92565b50505050905090810190601f168015610ada5780820380516001836020036101000a031916815260200191505b509250505060405180910390f35b62093a8081565b6000610b0583610b00868686611362565b6116c7565b90509392505050565b610b178361175f565b610b89576040517f08c379a00000000000000000000000000000000000000000000000000000000081526004018080602001828103825260178152602001807f4e4f4e5f46554e4749424c455f41535345545f5459504500000000000000000081525060200191505060405180910390fd5b610b948383836118ae565b505050565b600080610ba7858585610cbe565b90508042109150509392505050565b610bbe611b0f565b565b600090565b6040517f08c379a000000000000000000000000000000000000000000000000000000000815260040180806020018281038252600f8152602001807f4e4f545f494d504c454d454e544544000000000000000000000000000000000081525060200191505060405180910390fd5b6000610c3e82611ca1565b9050919050565b60006801000000000000000260009054906101000a900460ff16905090565b610c6c611d05565b565b6202a30081565b62093a8081565b610c8581611dff565b50565b6301e1338081565b6801000000000000000460009054906101000a900473ffffffffffffffffffffffffffffffffffffffff1681565b60006801000000000000000160008573ffffffffffffffffffffffffffffffffffffffff1673ffffffffffffffffffffffffffffffffffffffff168152602001908152602001600020600084815260200190815260200160002060008381526020019081526020016000205490509392505050565b610d3c81611f96565b50565b610d48826121e5565b610dba576040517f08c379a00000000000000000000000000000000000000000000000000000000081526004018080602001828103825260128152602001807f494e56414c49445f41535345545f54595045000000000000000000000000000081525060200191505060405180910390fd5b6000610dc6833461225f565b9050610dd38383836118ae565b505050565b680100000000000000035481565b621baf8062093a800181565b60008111610e68576040517f08c379a000000000000000000000000000000000000000000000000000000000815260040180806020018281038252600f8152602001807f5a45524f5f5749544844524157414c000000000000000000000000000000000081525060200191505060405180910390fd5b610e73338484610b99565b15610ee6576040517f08c379a000000000000000000000000000000000000000000000000000000000815260040180806020018281038252600f8152602001807f5641554c545f49535f4c4f434b4544000000000000000000000000000000000081525060200191505060405180910390fd5b610eef836122ff565b15610f62576040517f08c379a00000000000000000000000000000000000000000000000000000000081526004018080602001828103825260138152602001807f4d494e5441424c455f41535345545f545950450000000000000000000000000081525060200191505060405180910390fd5b610f6b8361175f565b610fdd576040517f08c379a00000000000000000000000000000000000000000000000000000000081526004018080602001828103825260178152602001807f4e4f4e5f46554e4749424c455f41535345545f5459504500000000000000000081525060200191505060405180910390fd5b60006801000000000000000060003373ffffffffffffffffffffffffffffffffffffffff1673ffffffffffffffffffffffffffffffffffffffff16815260200190815260200160002060008581526020019081526020016000206000848152602001908152602001600020549050818110156110c1576040517f08c379a00000000000000000000000000000000000000000000000000000000081526004018080602001828103825260148152602001807f494e53554646494349454e545f42414c414e434500000000000000000000000081525060200191505060405180910390fd5b8181036801000000000000000060003373ffffffffffffffffffffffffffffffffffffffff1673ffffffffffffffffffffffffffffffffffffffff168152602001908152602001600020600086815260200190815260200160002060008581526020019081526020016000208190555061113c3385846123e6565b7fa866e320a5fe47b394ae4f8cd2c180329ac2a143cc50f61d7b26a7af1f1c05fc33858561116a88876116c7565b86604051808673ffffffffffffffffffffffffffffffffffffffff1681526020018581526020018481526020018381526020018281526020019550505050505060405180910390a150505050565b60405180606001604052806026815260200161335f6026913981565b6111dd33611ca1565b61124f576040517f08c379a000000000000000000000000000000000000000000000000000000000815260040180806020018281038252600f8152602001807f4f4e4c595f474f5645524e414e4345000000000000000000000000000000000081525060200191505060405180910390fd5b62093a808111156112c8576040517f08c379a000000000000000000000000000000000000000000000000000000000815260040180806020018281038252601a8152602001807f44454641554c545f4c4f434b5f54494d455f544f4f5f4c4f4e4700000000000081525060200191505060405180910390fd5b8068010000000000000003819055507f832169a4c3cea413f0041437fd118afbc4b33edbf6783da382128bca1e56b2d2816040518082815260200191505060405180910390a150565b60006015600083815260200190815260200160002060009054906101000a900460ff166113415760019050611358565b601660008381526020019081526020016000205490505b919050565b600a81565b60006801000000000000000060008573ffffffffffffffffffffffffffffffffffffffff1673ffffffffffffffffffffffffffffffffffffffff168152602001908152602001600020600084815260200190815260200160002060008381526020019081526020016000205490509392505050565b604081565b60006113e9338585610cbe565b90506000824201905081811015611468576040517f08c379a00000000000000000000000000000000000000000000000000000000081526004018080602001828103825260118152602001807f494e56414c49445f4c4f434b5f54494d4500000000000000000000000000000081525060200191505060405180910390fd5b806801000000000000000160003373ffffffffffffffffffffffffffffffffffffffff1673ffffffffffffffffffffffffffffffffffffffff16815260200190815260200160002060008781526020019081526020016000206000868152602001908152602001600020819055507fcd08744f6e50d6b64d69f8a5eddc7f66e34db287f51c1da789ff770ebc7cf73e33868684604051808573ffffffffffffffffffffffffffffffffffffffff16815260200184815260200183815260200182815260200194505050505060405180910390a15050505050565b60606040518060400160405280601e81526020017f537461726b576172655f4f6e636861696e5661756c74735f323032315f310000815250905090565b60606015600083815260200190815260200160002060009054906101000a900460ff16611614576040517f08c379a00000000000000000000000000000000000000000000000000000000081526004018080602001828103825260198152602001807f41535345545f545950455f4e4f545f524547495354455245440000000000000081525060200191505060405180910390fd5b601460008381526020019081526020016000208054600181600116156101000203166002900480601f0160208091040260200160405190810160405280929190818152602001828054600181600116156101000203166002900480156116bb5780601f10611690576101008083540402835291602001916116bb565b820191906000526020600020905b81548152906001019060200180831161169e57829003601f168201915b50505050509050919050565b6000806116d384611311565b90508083029150828183816116e457fe5b0414611758576040517f08c379a00000000000000000000000000000000000000000000000000000000081526004018080602001828103825260178152602001807f44455155414e54495a4154494f4e5f4f564552464c4f5700000000000000000081525060200191505060405180910390fd5b5092915050565b60008061177361176e8461157f565b61286c565b90507f8322fff276cdf3f5716784c2e78b276d0d5cf1781fe7a7984e8bff96f75632c67bffffffffffffffffffffffffffffffffffffffffffffffffffffffff1916817bffffffffffffffffffffffffffffffffffffffffffffffffffffffff1916148061183e57507ff47261b06eedbfce68afd46d0f3c27c60b03faad319eaf33103611cf8f6456ad7bffffffffffffffffffffffffffffffffffffffffffffffffffffffff1916817bffffffffffffffffffffffffffffffffffffffffffffffffffffffff1916145b806118a657507f68646e2d4d60fd63368774f59858335cc28e4c682fa6cfbd77d48c508e7a1c417bffffffffffffffffffffffffffffffffffffffffffffffffffffffff1916817bffffffffffffffffffffffffffffffffffffffffffffffffffffffff1916145b915050919050565b6118b7836122ff565b1561192a576040517f08c379a00000000000000000000000000000000000000000000000000000000081526004018080602001828103825260138152602001807f4d494e5441424c455f41535345545f545950450000000000000000000000000081525060200191505060405180910390fd5b611934838361289c565b806801000000000000000060003373ffffffffffffffffffffffffffffffffffffffff1673ffffffffffffffffffffffffffffffffffffffff1681526020019081526020016000206000858152602001908152602001600020600084815260200190815260200160002060008282540192505081905550806801000000000000000060003373ffffffffffffffffffffffffffffffffffffffff1673ffffffffffffffffffffffffffffffffffffffff16815260200190815260200160002060008581526020019081526020016000206000848152602001908152602001600020541015611a8a576040517f08c379a000000000000000000000000000000000000000000000000000000000815260040180806020018281038252600e8152602001807f5641554c545f4f564552464c4f5700000000000000000000000000000000000081525060200191505060405180910390fd5b611a9483826128da565b7f31f9107e2d3910ab3e05f1950b34a1983eceaed380fbcdc68ae159c4cf8cee75338484611ac287866116c7565b85604051808673ffffffffffffffffffffffffffffffffffffffff1681526020018581526020018481526020018381526020018281526020019550505050505060405180910390a1505050565b6000611b19612d26565b90508060010160009054906101000a900473ffffffffffffffffffffffffffffffffffffffff1673ffffffffffffffffffffffffffffffffffffffff163373ffffffffffffffffffffffffffffffffffffffff1614611be0576040517f08c379a00000000000000000000000000000000000000000000000000000000081526004018080602001828103825260178152602001807f4f4e4c595f43414e4449444154455f474f5645524e4f5200000000000000000081525060200191505060405180910390fd5b611c0d8160010160009054906101000a900473ffffffffffffffffffffffffffffffffffffffff16612e2c565b60008160010160006101000a81548173ffffffffffffffffffffffffffffffffffffffff021916908373ffffffffffffffffffffffffffffffffffffffff1602179055507fcfb473e6c03f9a29ddaf990e736fa3de5188a0bd85d684f5b6e164ebfbfff5d233604051808273ffffffffffffffffffffffffffffffffffffffff16815260200191505060405180910390a150565b600080611cac612d26565b90508060000160008473ffffffffffffffffffffffffffffffffffffffff1673ffffffffffffffffffffffffffffffffffffffff16815260200190815260200160002060009054906101000a900460ff16915050919050565b611d0e33611ca1565b611d80576040517f08c379a000000000000000000000000000000000000000000000000000000000815260040180806020018281038252600f8152602001807f4f4e4c595f474f5645524e414e4345000000000000000000000000000000000081525060200191505060405180910390fd5b6000611d8a612d26565b905060008160010160006101000a81548173ffffffffffffffffffffffffffffffffffffffff021916908373ffffffffffffffffffffffffffffffffffffffff1602179055507f7a8dc7dd7fffb43c4807438fa62729225156941e641fd877938f4edade3429f560405160405180910390a150565b611e0833611ca1565b611e7a576040517f08c379a000000000000000000000000000000000000000000000000000000000815260040180806020018281038252600f8152602001807f4f4e4c595f474f5645524e414e4345000000000000000000000000000000000081525060200191505060405180910390fd5b6000611e84612d26565b9050611e8f82611ca1565b15611f02576040517f08c379a00000000000000000000000000000000000000000000000000000000081526004018080602001828103825260108152602001807f414c52454144595f474f5645524e4f520000000000000000000000000000000081525060200191505060405180910390fd5b818160010160006101000a81548173ffffffffffffffffffffffffffffffffffffffff021916908373ffffffffffffffffffffffffffffffffffffffff1602179055507f6166272c8d3f5f579082f2827532732f97195007983bb5b83ac12c56700b01a682604051808273ffffffffffffffffffffffffffffffffffffffff16815260200191505060405180910390a15050565b611f9f33611ca1565b612011576040517f08c379a000000000000000000000000000000000000000000000000000000000815260040180806020018281038252600f8152602001807f4f4e4c595f474f5645524e414e4345000000000000000000000000000000000081525060200191505060405180910390fd5b8073ffffffffffffffffffffffffffffffffffffffff163373ffffffffffffffffffffffffffffffffffffffff1614156120b3576040517f08c379a00000000000000000000000000000000000000000000000000000000081526004018080602001828103825260148152602001807f474f5645524e4f525f53454c465f52454d4f564500000000000000000000000081525060200191505060405180910390fd5b60006120bd612d26565b90506120c882611ca1565b61213a576040517f08c379a000000000000000000000000000000000000000000000000000000000815260040180806020018281038252600c8152602001807f4e4f545f474f5645524e4f52000000000000000000000000000000000000000081525060200191505060405180910390fd5b60008160000160008473ffffffffffffffffffffffffffffffffffffffff1673ffffffffffffffffffffffffffffffffffffffff16815260200190815260200160002060006101000a81548160ff0219169083151502179055507fd75f94825e770b8b512be8e74759e252ad00e102e38f50cce2f7c6f868a2959982604051808273ffffffffffffffffffffffffffffffffffffffff16815260200191505060405180910390a15050565b60007f8322fff276cdf3f5716784c2e78b276d0d5cf1781fe7a7984e8bff96f75632c67bffffffffffffffffffffffffffffffffffffffffffffffffffffffff19166122386122338461157f565b61286c565b7bffffffffffffffffffffffffffffffffffffffffffffffffffffffff1916149050919050565b60008061226b84611311565b9050600081848161227857fe5b06146122ec576040517f08c379a000000000000000000000000000000000000000000000000000000000815260040180806020018281038252600e8152602001807f494e56414c49445f414d4f554e5400000000000000000000000000000000000081525060200191505060405180910390fd5b8083816122f557fe5b0491505092915050565b60008061231361230e8461157f565b61286c565b90507f68646e2d4d60fd63368774f59858335cc28e4c682fa6cfbd77d48c508e7a1c417bffffffffffffffffffffffffffffffffffffffffffffffffffffffff1916817bffffffffffffffffffffffffffffffffffffffffffffffffffffffff191614806123de57507fb8b8667215cc18ca3047444f1c3b3ef050771709648754dd8df105a66f7cc8067bffffffffffffffffffffffffffffffffffffffffffffffffffffffff1916817bffffffffffffffffffffffffffffffffffffffffffffffffffffffff1916145b915050919050565b600073ffffffffffffffffffffffffffffffffffffffff168373ffffffffffffffffffffffffffffffffffffffff161415612489576040517f08c379a00000000000000000000000000000000000000000000000000000000081526004018080602001828103825260118152602001807f494e56414c49445f524543495049454e5400000000000000000000000000000081525060200191505060405180910390fd5b600061249583836116c7565b90506124a083612f12565b156127bb5760006124b084612f8c565b9050600081905060008173ffffffffffffffffffffffffffffffffffffffff166370a08231306040518263ffffffff1660e01b8152600401808273ffffffffffffffffffffffffffffffffffffffff16815260200191505060206040518083038186803b15801561252057600080fd5b505afa158015612534573d6000803e3d6000fd5b505050506040513d602081101561254a57600080fd5b81019080805190602001909291905050509050606063a9059cbb60e01b8886604051602401808373ffffffffffffffffffffffffffffffffffffffff16815260200182815260200192505050604051602081830303815290604052907bffffffffffffffffffffffffffffffffffffffffffffffffffffffff19166020820180517bffffffffffffffffffffffffffffffffffffffffffffffffffffffff8381831617835250505050905061261e818573ffffffffffffffffffffffffffffffffffffffff16612fa690919063ffffffff16565b60008373ffffffffffffffffffffffffffffffffffffffff166370a08231306040518263ffffffff1660e01b8152600401808273ffffffffffffffffffffffffffffffffffffffff16815260200191505060206040518083038186803b15801561268757600080fd5b505afa15801561269b573d6000803e3d6000fd5b505050506040513d60208110156126b157600080fd5b810190808051906020019092919050505090508281111561273a576040517f08c379a00000000000000000000000000000000000000000000000000000000081526004018080602001828103825260098152602001807f554e444552464c4f57000000000000000000000000000000000000000000000081525060200191505060405180910390fd5b85830381146127b1576040517f08c379a000000000000000000000000000000000000000000000000000000000815260040180806020018281038252601c8152602001807f494e434f52524543545f414d4f554e545f5452414e534645525245440000000081525060200191505060405180910390fd5b5050505050612866565b6127c4836121e5565b156127f7576127f2818573ffffffffffffffffffffffffffffffffffffffff1661322e90919063ffffffff16565b612865565b6040517f08c379a00000000000000000000000000000000000000000000000000000000081526004018080602001828103825260168152602001807f554e535550504f525445445f544f4b454e5f545950450000000000000000000081525060200191505060405180910390fd5b5b50505050565b600060208201517fffffffff00000000000000000000000000000000000000000000000000000000169050919050565b60006128a9338484610cbe565b9050680100000000000000035442018110156128d5576128d4838368010000000000000003546113dc565b5b505050565b60006128e683836116c7565b90506128f183612f12565b15612c2a57600061290184612f8c565b9050600081905060008173ffffffffffffffffffffffffffffffffffffffff166370a08231306040518263ffffffff1660e01b8152600401808273ffffffffffffffffffffffffffffffffffffffff16815260200191505060206040518083038186803b15801561297157600080fd5b505afa158015612985573d6000803e3d6000fd5b505050506040513d602081101561299b57600080fd5b8101908080519060200190929190505050905060606323b872dd60e01b333087604051602401808473ffffffffffffffffffffffffffffffffffffffff1681526020018373ffffffffffffffffffffffffffffffffffffffff1681526020018281526020019350505050604051602081830303815290604052907bffffffffffffffffffffffffffffffffffffffffffffffffffffffff19166020820180517bffffffffffffffffffffffffffffffffffffffffffffffffffffffff83818316178352505050509050612a8d818573ffffffffffffffffffffffffffffffffffffffff16612fa690919063ffffffff16565b60008373ffffffffffffffffffffffffffffffffffffffff166370a08231306040518263ffffffff1660e01b8152600401808273ffffffffffffffffffffffffffffffffffffffff16815260200191505060206040518083038186803b158015612af657600080fd5b505afa158015612b0a573d6000803e3d6000fd5b505050506040513d6020811015612b2057600080fd5b8101908080519060200190929190505050905082811015612ba9576040517f08c379a00000000000000000000000000000000000000000000000000000000081526004018080602001828103825260088152602001807f4f564552464c4f5700000000000000000000000000000000000000000000000081525060200191505060405180910390fd5b8583018114612c20576040517f08c379a000000000000000000000000000000000000000000000000000000000815260040180806020018281038252601c8152602001807f494e434f52524543545f414d4f554e545f5452414e534645525245440000000081525060200191505060405180910390fd5b5050505050612d21565b612c33836121e5565b15612cb257803414612cad576040517f08c379a00000000000000000000000000000000000000000000000000000000081526004018080602001828103825260188152602001807f494e434f52524543545f4445504f5349545f414d4f554e54000000000000000081525060200191505060405180910390fd5b612d20565b6040517f08c379a00000000000000000000000000000000000000000000000000000000081526004018080602001828103825260168152602001807f554e535550504f525445445f544f4b454e5f545950450000000000000000000081525060200191505060405180910390fd5b5b505050565b60006060612d3261330f565b9050600080826040518082805190602001908083835b60208310612d6b5780518252602082019150602081019050602083039250612d48565b6001836020036101000a038019825116818451168082178552505050505050905001915050908152602001604051809103902090508060010160149054906101000a900460ff16612e24576040517f08c379a000000000000000000000000000000000000000000000000000000000815260040180806020018281038252600f8152602001807f4e4f545f494e495449414c495a4544000000000000000000000000000000000081525060200191505060405180910390fd5b809250505090565b612e3581611ca1565b15612ea8576040517f08c379a00000000000000000000000000000000000000000000000000000000081526004018080602001828103825260108152602001807f414c52454144595f474f5645524e4f520000000000000000000000000000000081525060200191505060405180910390fd5b6000612eb2612d26565b905060018160000160008473ffffffffffffffffffffffffffffffffffffffff1673ffffffffffffffffffffffffffffffffffffffff16815260200190815260200160002060006101000a81548160ff0219169083151502179055505050565b60007ff47261b06eedbfce68afd46d0f3c27c60b03faad319eaf33103611cf8f6456ad7bffffffffffffffffffffffffffffffffffffffffffffffffffffffff1916612f65612f608461157f565b61286c565b7bffffffffffffffffffffffffffffffffffffffffffffffffffffffff1916149050919050565b6000612f9f612f9a8361157f565b61332f565b9050919050565b612faf8261334b565b613021576040517f08c379a00000000000000000000000000000000000000000000000000000000081526004018080602001828103825260118152602001807f4241445f544f4b454e5f4144445245535300000000000000000000000000000081525060200191505060405180910390fd5b600060608373ffffffffffffffffffffffffffffffffffffffff16836040518082805190602001908083835b60208310613070578051825260208201915060208101905060208303925061304d565b6001836020036101000a0380198251168184511680821785525050505050509050019150506000604051808303816000865af19150503d80600081146130d2576040519150601f19603f3d011682016040523d82523d6000602084013e6130d7565b606091505b5091509150818190613184576040517f08c379a00000000000000000000000000000000000000000000000000000000081526004018080602001828103825283818151815260200191508051906020019080838360005b8381101561314957808201518184015260208101905061312e565b50505050905090810190601f1680156131765780820380516001836020036101000a031916815260200191505b509250505060405180910390fd5b50600081511115613228578080602001905160208110156131a457600080fd5b8101908080519060200190929190505050613227576040517f08c379a00000000000000000000000000000000000000000000000000000000081526004018080602001828103825260168152602001807f544f4b454e5f4f5045524154494f4e5f4641494c45440000000000000000000081525060200191505060405180910390fd5b5b50505050565b60008273ffffffffffffffffffffffffffffffffffffffff168260405180600001905060006040518083038185875af1925050503d806000811461328e576040519150601f19603f3d011682016040523d82523d6000602084013e613293565b606091505b505090508061330a576040517f08c379a00000000000000000000000000000000000000000000000000000000081526004018080602001828103825260138152602001807f4554485f5452414e534645525f4641494c45440000000000000000000000000081525060200191505060405180910390fd5b505050565b606060405180606001604052806026815260200161335f60269139905090565b6000806004602001905060008184015190508092505050919050565b600080823b90506000811191505091905056fe537461726b45782e4d61696e2e323031392e476f7665726e6f7273496e666f726d6174696f6ea26469706673582212203f859c068e4e9c5b0d0adf5cde8227de4d85c73b2665deb67ee61823456dec5764736f6c634300060c0033",
					"opcodes": "PUSH1 0x80 PUSH1 0x40 MSTORE CALLVALUE DUP1 ISZERO PUSH2 0x10 JUMPI PUSH1 0x0 DUP1 REVERT JUMPDEST POP PUSH2 0x33BA DUP1 PUSH2 0x20 PUSH1 0x0 CODECOPY PUSH1 0x0 RETURN INVALID PUSH1 0x80 PUSH1 0x40 MSTORE PUSH1 0x4 CALLDATASIZE LT PUSH2 0x1CC JUMPI PUSH1 0x0 CALLDATALOAD PUSH1 0xE0 SHR DUP1 PUSH4 0x9DE5C4E5 GT PUSH2 0xF7 JUMPI DUP1 PUSH4 0xD4181DEA GT PUSH2 0x95 JUMPI DUP1 PUSH4 0xE6DE6282 GT PUSH2 0x64 JUMPI DUP1 PUSH4 0xE6DE6282 EQ PUSH2 0x92A JUMPI DUP1 PUSH4 0xE8D28A9D EQ PUSH2 0x955 JUMPI DUP1 PUSH4 0xEEB72866 EQ PUSH2 0x9A4 JUMPI DUP1 PUSH4 0xF637D950 EQ PUSH2 0xA34 JUMPI PUSH2 0x1CC JUMP JUMPDEST DUP1 PUSH4 0xD4181DEA EQ PUSH2 0x7FC JUMPI DUP1 PUSH4 0xDD7202D8 EQ PUSH2 0x837 JUMPI DUP1 PUSH4 0xE30A5CFF EQ PUSH2 0x886 JUMPI DUP1 PUSH4 0xE69A9DE7 EQ PUSH2 0x8B1 JUMPI PUSH2 0x1CC JUMP JUMPDEST DUP1 PUSH4 0xA45D7841 GT PUSH2 0xD1 JUMPI DUP1 PUSH4 0xA45D7841 EQ PUSH2 0x6C7 JUMPI DUP1 PUSH4 0xB7663112 EQ PUSH2 0x6F2 JUMPI DUP1 PUSH4 0xBF422B2E EQ PUSH2 0x71D JUMPI DUP1 PUSH4 0xC23B60EF EQ PUSH2 0x76C JUMPI PUSH2 0x1CC JUMP JUMPDEST DUP1 PUSH4 0x9DE5C4E5 EQ PUSH2 0x5C5 JUMPI DUP1 PUSH4 0xA1CC921E EQ PUSH2 0x63E JUMPI DUP1 PUSH4 0xA3C71FDE EQ PUSH2 0x68F JUMPI PUSH2 0x1CC JUMP JUMPDEST DUP1 PUSH4 0x45F5CD97 GT PUSH2 0x16F JUMPI DUP1 PUSH4 0x835A71C3 GT PUSH2 0x13E JUMPI DUP1 PUSH4 0x835A71C3 EQ PUSH2 0x4DD JUMPI DUP1 PUSH4 0x8C4BCE1C EQ PUSH2 0x508 JUMPI DUP1 PUSH4 0x993F3639 EQ PUSH2 0x559 JUMPI DUP1 PUSH4 0x9C6A2837 EQ PUSH2 0x584 JUMPI PUSH2 0x1CC JUMP JUMPDEST DUP1 PUSH4 0x45F5CD97 EQ PUSH2 0x407 JUMPI DUP1 PUSH4 0x5ADF1639 EQ PUSH2 0x46E JUMPI DUP1 PUSH4 0x72EB3688 EQ PUSH2 0x49B JUMPI DUP1 PUSH4 0x77E84E0D EQ PUSH2 0x4B2 JUMPI PUSH2 0x1CC JUMP JUMPDEST DUP1 PUSH4 0x27C2B36D GT PUSH2 0x1AB JUMPI DUP1 PUSH4 0x27C2B36D EQ PUSH2 0x2C4 JUMPI DUP1 PUSH4 0x28700A15 EQ PUSH2 0x33F JUMPI DUP1 PUSH4 0x3CC660AD EQ PUSH2 0x356 JUMPI DUP1 PUSH4 0x439FAB91 EQ PUSH2 0x381 JUMPI PUSH2 0x1CC JUMP JUMPDEST DUP1 PUSH3 0x717542 EQ PUSH2 0x1D1 JUMPI DUP1 PUSH4 0x1C6BD544 EQ PUSH2 0x1FC JUMPI DUP1 PUSH4 0x1D133002 EQ PUSH2 0x275 JUMPI JUMPDEST PUSH1 0x0 DUP1 REVERT JUMPDEST CALLVALUE DUP1 ISZERO PUSH2 0x1DD JUMPI PUSH1 0x0 DUP1 REVERT JUMPDEST POP PUSH2 0x1E6 PUSH2 0xAE8 JUMP JUMPDEST PUSH1 0x40 MLOAD DUP1 DUP3 DUP2 MSTORE PUSH1 0x20 ADD SWAP2 POP POP PUSH1 0x40 MLOAD DUP1 SWAP2 SUB SWAP1 RETURN JUMPDEST CALLVALUE DUP1 ISZERO PUSH2 0x208 JUMPI PUSH1 0x0 DUP1 REVERT JUMPDEST POP PUSH2 0x25F PUSH1 0x4 DUP1 CALLDATASIZE SUB PUSH1 0x60 DUP2 LT ISZERO PUSH2 0x21F JUMPI PUSH1 0x0 DUP1 REVERT JUMPDEST DUP2 ADD SWAP1 DUP1 DUP1 CALLDATALOAD PUSH20 0xFFFFFFFFFFFFFFFFFFFFFFFFFFFFFFFFFFFFFFFF AND SWAP1 PUSH1 0x20 ADD SWAP1 SWAP3 SWAP2 SWAP1 DUP1 CALLDATALOAD SWAP1 PUSH1 0x20 ADD SWAP1 SWAP3 SWAP2 SWAP1 DUP1 CALLDATALOAD SWAP1 PUSH1 0x20 ADD SWAP1 SWAP3 SWAP2 SWAP1 POP POP POP PUSH2 0xAEF JUMP JUMPDEST PUSH1 0x40 MLOAD DUP1 DUP3 DUP2 MSTORE PUSH1 0x20 ADD SWAP2 POP POP PUSH1 0x40 MLOAD DUP1 SWAP2 SUB SWAP1 RETURN JUMPDEST CALLVALUE DUP1 ISZERO PUSH2 0x281 JUMPI PUSH1 0x0 DUP1 REVERT JUMPDEST POP PUSH2 0x2C2 PUSH1 0x4 DUP1 CALLDATASIZE SUB PUSH1 0x60 DUP2 LT ISZERO PUSH2 0x298 JUMPI PUSH1 0x0 DUP1 REVERT JUMPDEST DUP2 ADD SWAP1 DUP1 DUP1 CALLDATALOAD SWAP1 PUSH1 0x20 ADD SWAP1 SWAP3 SWAP2 SWAP1 DUP1 CALLDATALOAD SWAP1 PUSH1 0x20 ADD SWAP1 SWAP3 SWAP2 SWAP1 DUP1 CALLDATALOAD SWAP1 PUSH1 0x20 ADD SWAP1 SWAP3 SWAP2 SWAP1 POP POP POP PUSH2 0xB0E JUMP JUMPDEST STOP JUMPDEST CALLVALUE DUP1 ISZERO PUSH2 0x2D0 JUMPI PUSH1 0x0 DUP1 REVERT JUMPDEST POP PUSH2 0x327 PUSH1 0x4 DUP1 CALLDATASIZE SUB PUSH1 0x60 DUP2 LT ISZERO PUSH2 0x2E7 JUMPI PUSH1 0x0 DUP1 REVERT JUMPDEST DUP2 ADD SWAP1 DUP1 DUP1 CALLDATALOAD PUSH20 0xFFFFFFFFFFFFFFFFFFFFFFFFFFFFFFFFFFFFFFFF AND SWAP1 PUSH1 0x20 ADD SWAP1 SWAP3 SWAP2 SWAP1 DUP1 CALLDATALOAD SWAP1 PUSH1 0x20 ADD SWAP1 SWAP3 SWAP2 SWAP1 DUP1 CALLDATALOAD SWAP1 PUSH1 0x20 ADD SWAP1 SWAP3 SWAP2 SWAP1 POP POP POP PUSH2 0xB99 JUMP JUMPDEST PUSH1 0x40 MLOAD DUP1 DUP3 ISZERO ISZERO DUP2 MSTORE PUSH1 0x20 ADD SWAP2 POP POP PUSH1 0x40 MLOAD DUP1 SWAP2 SUB SWAP1 RETURN JUMPDEST CALLVALUE DUP1 ISZERO PUSH2 0x34B JUMPI PUSH1 0x0 DUP1 REVERT JUMPDEST POP PUSH2 0x354 PUSH2 0xBB6 JUMP JUMPDEST STOP JUMPDEST CALLVALUE DUP1 ISZERO PUSH2 0x362 JUMPI PUSH1 0x0 DUP1 REVERT JUMPDEST POP PUSH2 0x36B PUSH2 0xBC0 JUMP JUMPDEST PUSH1 0x40 MLOAD DUP1 DUP3 DUP2 MSTORE PUSH1 0x20 ADD SWAP2 POP POP PUSH1 0x40 MLOAD DUP1 SWAP2 SUB SWAP1 RETURN JUMPDEST CALLVALUE DUP1 ISZERO PUSH2 0x38D JUMPI PUSH1 0x0 DUP1 REVERT JUMPDEST POP PUSH2 0x405 PUSH1 0x4 DUP1 CALLDATASIZE SUB PUSH1 0x20 DUP2 LT ISZERO PUSH2 0x3A4 JUMPI PUSH1 0x0 DUP1 REVERT JUMPDEST DUP2 ADD SWAP1 DUP1 DUP1 CALLDATALOAD SWAP1 PUSH1 0x20 ADD SWAP1 PUSH5 0x100000000 DUP2 GT ISZERO PUSH2 0x3C1 JUMPI PUSH1 0x0 DUP1 REVERT JUMPDEST DUP3 ADD DUP4 PUSH1 0x20 DUP3 ADD GT ISZERO PUSH2 0x3D3 JUMPI PUSH1 0x0 DUP1 REVERT JUMPDEST DUP1 CALLDATALOAD SWAP1 PUSH1 0x20 ADD SWAP2 DUP5 PUSH1 0x1 DUP4 MUL DUP5 ADD GT PUSH5 0x100000000 DUP4 GT OR ISZERO PUSH2 0x3F5 JUMPI PUSH1 0x0 DUP1 REVERT JUMPDEST SWAP1 SWAP2 SWAP3 SWAP4 SWAP2 SWAP3 SWAP4 SWAP1 POP POP POP PUSH2 0xBC5 JUMP JUMPDEST STOP JUMPDEST CALLVALUE DUP1 ISZERO PUSH2 0x413 JUMPI PUSH1 0x0 DUP1 REVERT JUMPDEST POP PUSH2 0x456 PUSH1 0x4 DUP1 CALLDATASIZE SUB PUSH1 0x20 DUP2 LT ISZERO PUSH2 0x42A JUMPI PUSH1 0x0 DUP1 REVERT JUMPDEST DUP2 ADD SWAP1 DUP1 DUP1 CALLDATALOAD PUSH20 0xFFFFFFFFFFFFFFFFFFFFFFFFFFFFFFFFFFFFFFFF AND SWAP1 PUSH1 0x20 ADD SWAP1 SWAP3 SWAP2 SWAP1 POP POP POP PUSH2 0xC33 JUMP JUMPDEST PUSH1 0x40 MLOAD DUP1 DUP3 ISZERO ISZERO DUP2 MSTORE PUSH1 0x20 ADD SWAP2 POP POP PUSH1 0x40 MLOAD DUP1 SWAP2 SUB SWAP1 RETURN JUMPDEST CALLVALUE DUP1 ISZERO PUSH2 0x47A JUMPI PUSH1 0x0 DUP1 REVERT JUMPDEST POP PUSH2 0x483 PUSH2 0xC45 JUMP JUMPDEST PUSH1 0x40 MLOAD DUP1 DUP3 ISZERO ISZERO DUP2 MSTORE PUSH1 0x20 ADD SWAP2 POP POP PUSH1 0x40 MLOAD DUP1 SWAP2 SUB SWAP1 RETURN JUMPDEST CALLVALUE DUP1 ISZERO PUSH2 0x4A7 JUMPI PUSH1 0x0 DUP1 REVERT JUMPDEST POP PUSH2 0x4B0 PUSH2 0xC64 JUMP JUMPDEST STOP JUMPDEST CALLVALUE DUP1 ISZERO PUSH2 0x4BE JUMPI PUSH1 0x0 DUP1 REVERT JUMPDEST POP PUSH2 0x4C7 PUSH2 0xC6E JUMP JUMPDEST PUSH1 0x40 MLOAD DUP1 DUP3 DUP2 MSTORE PUSH1 0x20 ADD SWAP2 POP POP PUSH1 0x40 MLOAD DUP1 SWAP2 SUB SWAP1 RETURN JUMPDEST CALLVALUE DUP1 ISZERO PUSH2 0x4E9 JUMPI PUSH1 0x0 DUP1 REVERT JUMPDEST POP PUSH2 0x4F2 PUSH2 0xC75 JUMP JUMPDEST PUSH1 0x40 MLOAD DUP1 DUP3 DUP2 MSTORE PUSH1 0x20 ADD SWAP2 POP POP PUSH1 0x40 MLOAD DUP1 SWAP2 SUB SWAP1 RETURN JUMPDEST CALLVALUE DUP1 ISZERO PUSH2 0x514 JUMPI PUSH1 0x0 DUP1 REVERT JUMPDEST POP PUSH2 0x557 PUSH1 0x4 DUP1 CALLDATASIZE SUB PUSH1 0x20 DUP2 LT ISZERO PUSH2 0x52B JUMPI PUSH1 0x0 DUP1 REVERT JUMPDEST DUP2 ADD SWAP1 DUP1 DUP1 CALLDATALOAD PUSH20 0xFFFFFFFFFFFFFFFFFFFFFFFFFFFFFFFFFFFFFFFF AND SWAP1 PUSH1 0x20 ADD SWAP1 SWAP3 SWAP2 SWAP1 POP POP POP PUSH2 0xC7C JUMP JUMPDEST STOP JUMPDEST CALLVALUE DUP1 ISZERO PUSH2 0x565 JUMPI PUSH1 0x0 DUP1 REVERT JUMPDEST POP PUSH2 0x56E PUSH2 0xC88 JUMP JUMPDEST PUSH1 0x40 MLOAD DUP1 DUP3 DUP2 MSTORE PUSH1 0x20 ADD SWAP2 POP POP PUSH1 0x40 MLOAD DUP1 SWAP2 SUB SWAP1 RETURN JUMPDEST CALLVALUE DUP1 ISZERO PUSH2 0x590 JUMPI PUSH1 0x0 DUP1 REVERT JUMPDEST POP PUSH2 0x599 PUSH2 0xC90 JUMP JUMPDEST PUSH1 0x40 MLOAD DUP1 DUP3 PUSH20 0xFFFFFFFFFFFFFFFFFFFFFFFFFFFFFFFFFFFFFFFF AND DUP2 MSTORE PUSH1 0x20 ADD SWAP2 POP POP PUSH1 0x40 MLOAD DUP1 SWAP2 SUB SWAP1 RETURN JUMPDEST CALLVALUE DUP1 ISZERO PUSH2 0x5D1 JUMPI PUSH1 0x0 DUP1 REVERT JUMPDEST POP PUSH2 0x628 PUSH1 0x4 DUP1 CALLDATASIZE SUB PUSH1 0x60 DUP2 LT ISZERO PUSH2 0x5E8 JUMPI PUSH1 0x0 DUP1 REVERT JUMPDEST DUP2 ADD SWAP1 DUP1 DUP1 CALLDATALOAD PUSH20 0xFFFFFFFFFFFFFFFFFFFFFFFFFFFFFFFFFFFFFFFF AND SWAP1 PUSH1 0x20 ADD SWAP1 SWAP3 SWAP2 SWAP1 DUP1 CALLDATALOAD SWAP1 PUSH1 0x20 ADD SWAP1 SWAP3 SWAP2 SWAP1 DUP1 CALLDATALOAD SWAP1 PUSH1 0x20 ADD SWAP1 SWAP3 SWAP2 SWAP1 POP POP POP PUSH2 0xCBE JUMP JUMPDEST PUSH1 0x40 MLOAD DUP1 DUP3 DUP2 MSTORE PUSH1 0x20 ADD SWAP2 POP POP PUSH1 0x40 MLOAD DUP1 SWAP2 SUB SWAP1 RETURN JUMPDEST CALLVALUE DUP1 ISZERO PUSH2 0x64A JUMPI PUSH1 0x0 DUP1 REVERT JUMPDEST POP PUSH2 0x68D PUSH1 0x4 DUP1 CALLDATASIZE SUB PUSH1 0x20 DUP2 LT ISZERO PUSH2 0x661 JUMPI PUSH1 0x0 DUP1 REVERT JUMPDEST DUP2 ADD SWAP1 DUP1 DUP1 CALLDATALOAD PUSH20 0xFFFFFFFFFFFFFFFFFFFFFFFFFFFFFFFFFFFFFFFF AND SWAP1 PUSH1 0x20 ADD SWAP1 SWAP3 SWAP2 SWAP1 POP POP POP PUSH2 0xD33 JUMP JUMPDEST STOP JUMPDEST PUSH2 0x6C5 PUSH1 0x4 DUP1 CALLDATASIZE SUB PUSH1 0x40 DUP2 LT ISZERO PUSH2 0x6A5 JUMPI PUSH1 0x0 DUP1 REVERT JUMPDEST DUP2 ADD SWAP1 DUP1 DUP1 CALLDATALOAD SWAP1 PUSH1 0x20 ADD SWAP1 SWAP3 SWAP2 SWAP1 DUP1 CALLDATALOAD SWAP1 PUSH1 0x20 ADD SWAP1 SWAP3 SWAP2 SWAP1 POP POP POP PUSH2 0xD3F JUMP JUMPDEST STOP JUMPDEST CALLVALUE DUP1 ISZERO PUSH2 0x6D3 JUMPI PUSH1 0x0 DUP1 REVERT JUMPDEST POP PUSH2 0x6DC PUSH2 0xDD8 JUMP JUMPDEST PUSH1 0x40 MLOAD DUP1 DUP3 DUP2 MSTORE PUSH1 0x20 ADD SWAP2 POP POP PUSH1 0x40 MLOAD DUP1 SWAP2 SUB SWAP1 RETURN JUMPDEST CALLVALUE DUP1 ISZERO PUSH2 0x6FE JUMPI PUSH1 0x0 DUP1 REVERT JUMPDEST POP PUSH2 0x707 PUSH2 0xDE6 JUMP JUMPDEST PUSH1 0x40 MLOAD DUP1 DUP3 DUP2 MSTORE PUSH1 0x20 ADD SWAP2 POP POP PUSH1 0x40 MLOAD DUP1 SWAP2 SUB SWAP1 RETURN JUMPDEST CALLVALUE DUP1 ISZERO PUSH2 0x729 JUMPI PUSH1 0x0 DUP1 REVERT JUMPDEST POP PUSH2 0x76A PUSH1 0x4 DUP1 CALLDATASIZE SUB PUSH1 0x60 DUP2 LT ISZERO PUSH2 0x740 JUMPI PUSH1 0x0 DUP1 REVERT JUMPDEST DUP2 ADD SWAP1 DUP1 DUP1 CALLDATALOAD SWAP1 PUSH1 0x20 ADD SWAP1 SWAP3 SWAP2 SWAP1 DUP1 CALLDATALOAD SWAP1 PUSH1 0x20 ADD SWAP1 SWAP3 SWAP2 SWAP1 DUP1 CALLDATALOAD SWAP1 PUSH1 0x20 ADD SWAP1 SWAP3 SWAP2 SWAP1 POP POP POP PUSH2 0xDF2 JUMP JUMPDEST STOP JUMPDEST CALLVALUE DUP1 ISZERO PUSH2 0x778 JUMPI PUSH1 0x0 DUP1 REVERT JUMPDEST POP PUSH2 0x781 PUSH2 0x11B8 JUMP JUMPDEST PUSH1 0x40 MLOAD DUP1 DUP1 PUSH1 0x20 ADD DUP3 DUP2 SUB DUP3 MSTORE DUP4 DUP2 DUP2 MLOAD DUP2 MSTORE PUSH1 0x20 ADD SWAP2 POP DUP1 MLOAD SWAP1 PUSH1 0x20 ADD SWAP1 DUP1 DUP4 DUP4 PUSH1 0x0 JUMPDEST DUP4 DUP2 LT ISZERO PUSH2 0x7C1 JUMPI DUP1 DUP3 ADD MLOAD DUP2 DUP5 ADD MSTORE PUSH1 0x20 DUP2 ADD SWAP1 POP PUSH2 0x7A6 JUMP JUMPDEST POP POP POP POP SWAP1 POP SWAP1 DUP2 ADD SWAP1 PUSH1 0x1F AND DUP1 ISZERO PUSH2 0x7EE JUMPI DUP1 DUP3 SUB DUP1 MLOAD PUSH1 0x1 DUP4 PUSH1 0x20 SUB PUSH2 0x100 EXP SUB NOT AND DUP2 MSTORE PUSH1 0x20 ADD SWAP2 POP JUMPDEST POP SWAP3 POP POP POP PUSH1 0x40 MLOAD DUP1 SWAP2 SUB SWAP1 RETURN JUMPDEST CALLVALUE DUP1 ISZERO PUSH2 0x808 JUMPI PUSH1 0x0 DUP1 REVERT JUMPDEST POP PUSH2 0x835 PUSH1 0x4 DUP1 CALLDATASIZE SUB PUSH1 0x20 DUP2 LT ISZERO PUSH2 0x81F JUMPI PUSH1 0x0 DUP1 REVERT JUMPDEST DUP2 ADD SWAP1 DUP1 DUP1 CALLDATALOAD SWAP1 PUSH1 0x20 ADD SWAP1 SWAP3 SWAP2 SWAP1 POP POP POP PUSH2 0x11D4 JUMP JUMPDEST STOP JUMPDEST CALLVALUE DUP1 ISZERO PUSH2 0x843 JUMPI PUSH1 0x0 DUP1 REVERT JUMPDEST POP PUSH2 0x870 PUSH1 0x4 DUP1 CALLDATASIZE SUB PUSH1 0x20 DUP2 LT ISZERO PUSH2 0x85A JUMPI PUSH1 0x0 DUP1 REVERT JUMPDEST DUP2 ADD SWAP1 DUP1 DUP1 CALLDATALOAD SWAP1 PUSH1 0x20 ADD SWAP1 SWAP3 SWAP2 SWAP1 POP POP POP PUSH2 0x1311 JUMP JUMPDEST PUSH1 0x40 MLOAD DUP1 DUP3 DUP2 MSTORE PUSH1 0x20 ADD SWAP2 POP POP PUSH1 0x40 MLOAD DUP1 SWAP2 SUB SWAP1 RETURN JUMPDEST CALLVALUE DUP1 ISZERO PUSH2 0x892 JUMPI PUSH1 0x0 DUP1 REVERT JUMPDEST POP PUSH2 0x89B PUSH2 0x135D JUMP JUMPDEST PUSH1 0x40 MLOAD DUP1 DUP3 DUP2 MSTORE PUSH1 0x20 ADD SWAP2 POP POP PUSH1 0x40 MLOAD DUP1 SWAP2 SUB SWAP1 RETURN JUMPDEST CALLVALUE DUP1 ISZERO PUSH2 0x8BD JUMPI PUSH1 0x0 DUP1 REVERT JUMPDEST POP PUSH2 0x914 PUSH1 0x4 DUP1 CALLDATASIZE SUB PUSH1 0x60 DUP2 LT ISZERO PUSH2 0x8D4 JUMPI PUSH1 0x0 DUP1 REVERT JUMPDEST DUP2 ADD SWAP1 DUP1 DUP1 CALLDATALOAD PUSH20 0xFFFFFFFFFFFFFFFFFFFFFFFFFFFFFFFFFFFFFFFF AND SWAP1 PUSH1 0x20 ADD SWAP1 SWAP3 SWAP2 SWAP1 DUP1 CALLDATALOAD SWAP1 PUSH1 0x20 ADD SWAP1 SWAP3 SWAP2 SWAP1 DUP1 CALLDATALOAD SWAP1 PUSH1 0x20 ADD SWAP1 SWAP3 SWAP2 SWAP1 POP POP POP PUSH2 0x1362 JUMP JUMPDEST PUSH1 0x40 MLOAD DUP1 DUP3 DUP2 MSTORE PUSH1 0x20 ADD SWAP2 POP POP PUSH1 0x40 MLOAD DUP1 SWAP2 SUB SWAP1 RETURN JUMPDEST CALLVALUE DUP1 ISZERO PUSH2 0x936 JUMPI PUSH1 0x0 DUP1 REVERT JUMPDEST POP PUSH2 0x93F PUSH2 0x13D7 JUMP JUMPDEST PUSH1 0x40 MLOAD DUP1 DUP3 DUP2 MSTORE PUSH1 0x20 ADD SWAP2 POP POP PUSH1 0x40 MLOAD DUP1 SWAP2 SUB SWAP1 RETURN JUMPDEST CALLVALUE DUP1 ISZERO PUSH2 0x961 JUMPI PUSH1 0x0 DUP1 REVERT JUMPDEST POP PUSH2 0x9A2 PUSH1 0x4 DUP1 CALLDATASIZE SUB PUSH1 0x60 DUP2 LT ISZERO PUSH2 0x978 JUMPI PUSH1 0x0 DUP1 REVERT JUMPDEST DUP2 ADD SWAP1 DUP1 DUP1 CALLDATALOAD SWAP1 PUSH1 0x20 ADD SWAP1 SWAP3 SWAP2 SWAP1 DUP1 CALLDATALOAD SWAP1 PUSH1 0x20 ADD SWAP1 SWAP3 SWAP2 SWAP1 DUP1 CALLDATALOAD SWAP1 PUSH1 0x20 ADD SWAP1 SWAP3 SWAP2 SWAP1 POP POP POP PUSH2 0x13DC JUMP JUMPDEST STOP JUMPDEST CALLVALUE DUP1 ISZERO PUSH2 0x9B0 JUMPI PUSH1 0x0 DUP1 REVERT JUMPDEST POP PUSH2 0x9B9 PUSH2 0x1542 JUMP JUMPDEST PUSH1 0x40 MLOAD DUP1 DUP1 PUSH1 0x20 ADD DUP3 DUP2 SUB DUP3 MSTORE DUP4 DUP2 DUP2 MLOAD DUP2 MSTORE PUSH1 0x20 ADD SWAP2 POP DUP1 MLOAD SWAP1 PUSH1 0x20 ADD SWAP1 DUP1 DUP4 DUP4 PUSH1 0x0 JUMPDEST DUP4 DUP2 LT ISZERO PUSH2 0x9F9 JUMPI DUP1 DUP3 ADD MLOAD DUP2 DUP5 ADD MSTORE PUSH1 0x20 DUP2 ADD SWAP1 POP PUSH2 0x9DE JUMP JUMPDEST POP POP POP POP SWAP1 POP SWAP1 DUP2 ADD SWAP1 PUSH1 0x1F AND DUP1 ISZERO PUSH2 0xA26 JUMPI DUP1 DUP3 SUB DUP1 MLOAD PUSH1 0x1 DUP4 PUSH1 0x20 SUB PUSH2 0x100 EXP SUB NOT AND DUP2 MSTORE PUSH1 0x20 ADD SWAP2 POP JUMPDEST POP SWAP3 POP POP POP PUSH1 0x40 MLOAD DUP1 SWAP2 SUB SWAP1 RETURN JUMPDEST CALLVALUE DUP1 ISZERO PUSH2 0xA40 JUMPI PUSH1 0x0 DUP1 REVERT JUMPDEST POP PUSH2 0xA6D PUSH1 0x4 DUP1 CALLDATASIZE SUB PUSH1 0x20 DUP2 LT ISZERO PUSH2 0xA57 JUMPI PUSH1 0x0 DUP1 REVERT JUMPDEST DUP2 ADD SWAP1 DUP1 DUP1 CALLDATALOAD SWAP1 PUSH1 0x20 ADD SWAP1 SWAP3 SWAP2 SWAP1 POP POP POP PUSH2 0x157F JUMP JUMPDEST PUSH1 0x40 MLOAD DUP1 DUP1 PUSH1 0x20 ADD DUP3 DUP2 SUB DUP3 MSTORE DUP4 DUP2 DUP2 MLOAD DUP2 MSTORE PUSH1 0x20 ADD SWAP2 POP DUP1 MLOAD SWAP1 PUSH1 0x20 ADD SWAP1 DUP1 DUP4 DUP4 PUSH1 0x0 JUMPDEST DUP4 DUP2 LT ISZERO PUSH2 0xAAD JUMPI DUP1 DUP3 ADD MLOAD DUP2 DUP5 ADD MSTORE PUSH1 0x20 DUP2 ADD SWAP1 POP PUSH2 0xA92 JUMP JUMPDEST POP POP POP POP SWAP1 POP SWAP1 DUP2 ADD SWAP1 PUSH1 0x1F AND DUP1 ISZERO PUSH2 0xADA JUMPI DUP1 DUP3 SUB DUP1 MLOAD PUSH1 0x1 DUP4 PUSH1 0x20 SUB PUSH2 0x100 EXP SUB NOT AND DUP2 MSTORE PUSH1 0x20 ADD SWAP2 POP JUMPDEST POP SWAP3 POP POP POP PUSH1 0x40 MLOAD DUP1 SWAP2 SUB SWAP1 RETURN JUMPDEST PUSH3 0x93A80 DUP2 JUMP JUMPDEST PUSH1 0x0 PUSH2 0xB05 DUP4 PUSH2 0xB00 DUP7 DUP7 DUP7 PUSH2 0x1362 JUMP JUMPDEST PUSH2 0x16C7 JUMP JUMPDEST SWAP1 POP SWAP4 SWAP3 POP POP POP JUMP JUMPDEST PUSH2 0xB17 DUP4 PUSH2 0x175F JUMP JUMPDEST PUSH2 0xB89 JUMPI PUSH1 0x40 MLOAD PUSH32 0x8C379A000000000000000000000000000000000000000000000000000000000 DUP2 MSTORE PUSH1 0x4 ADD DUP1 DUP1 PUSH1 0x20 ADD DUP3 DUP2 SUB DUP3 MSTORE PUSH1 0x17 DUP2 MSTORE PUSH1 0x20 ADD DUP1 PUSH32 0x4E4F4E5F46554E4749424C455F41535345545F54595045000000000000000000 DUP2 MSTORE POP PUSH1 0x20 ADD SWAP2 POP POP PUSH1 0x40 MLOAD DUP1 SWAP2 SUB SWAP1 REVERT JUMPDEST PUSH2 0xB94 DUP4 DUP4 DUP4 PUSH2 0x18AE JUMP JUMPDEST POP POP POP JUMP JUMPDEST PUSH1 0x0 DUP1 PUSH2 0xBA7 DUP6 DUP6 DUP6 PUSH2 0xCBE JUMP JUMPDEST SWAP1 POP DUP1 TIMESTAMP LT SWAP2 POP POP SWAP4 SWAP3 POP POP POP JUMP JUMPDEST PUSH2 0xBBE PUSH2 0x1B0F JUMP JUMPDEST JUMP JUMPDEST PUSH1 0x0 SWAP1 JUMP JUMPDEST PUSH1 0x40 MLOAD PUSH32 0x8C379A000000000000000000000000000000000000000000000000000000000 DUP2 MSTORE PUSH1 0x4 ADD DUP1 DUP1 PUSH1 0x20 ADD DUP3 DUP2 SUB DUP3 MSTORE PUSH1 0xF DUP2 MSTORE PUSH1 0x20 ADD DUP1 PUSH32 0x4E4F545F494D504C454D454E5445440000000000000000000000000000000000 DUP2 MSTORE POP PUSH1 0x20 ADD SWAP2 POP POP PUSH1 0x40 MLOAD DUP1 SWAP2 SUB SWAP1 REVERT JUMPDEST PUSH1 0x0 PUSH2 0xC3E DUP3 PUSH2 0x1CA1 JUMP JUMPDEST SWAP1 POP SWAP2 SWAP1 POP JUMP JUMPDEST PUSH1 0x0 PUSH9 0x10000000000000002 PUSH1 0x0 SWAP1 SLOAD SWAP1 PUSH2 0x100 EXP SWAP1 DIV PUSH1 0xFF AND SWAP1 POP SWAP1 JUMP JUMPDEST PUSH2 0xC6C PUSH2 0x1D05 JUMP JUMPDEST JUMP JUMPDEST PUSH3 0x2A300 DUP2 JUMP JUMPDEST PUSH3 0x93A80 DUP2 JUMP JUMPDEST PUSH2 0xC85 DUP2 PUSH2 0x1DFF JUMP JUMPDEST POP JUMP JUMPDEST PUSH4 0x1E13380 DUP2 JUMP JUMPDEST PUSH9 0x10000000000000004 PUSH1 0x0 SWAP1 SLOAD SWAP1 PUSH2 0x100 EXP SWAP1 DIV PUSH20 0xFFFFFFFFFFFFFFFFFFFFFFFFFFFFFFFFFFFFFFFF AND DUP2 JUMP JUMPDEST PUSH1 0x0 PUSH9 0x10000000000000001 PUSH1 0x0 DUP6 PUSH20 0xFFFFFFFFFFFFFFFFFFFFFFFFFFFFFFFFFFFFFFFF AND PUSH20 0xFFFFFFFFFFFFFFFFFFFFFFFFFFFFFFFFFFFFFFFF AND DUP2 MSTORE PUSH1 0x20 ADD SWAP1 DUP2 MSTORE PUSH1 0x20 ADD PUSH1 0x0 KECCAK256 PUSH1 0x0 DUP5 DUP2 MSTORE PUSH1 0x20 ADD SWAP1 DUP2 MSTORE PUSH1 0x20 ADD PUSH1 0x0 KECCAK256 PUSH1 0x0 DUP4 DUP2 MSTORE PUSH1 0x20 ADD SWAP1 DUP2 MSTORE PUSH1 0x20 ADD PUSH1 0x0 KECCAK256 SLOAD SWAP1 POP SWAP4 SWAP3 POP POP POP JUMP JUMPDEST PUSH2 0xD3C DUP2 PUSH2 0x1F96 JUMP JUMPDEST POP JUMP JUMPDEST PUSH2 0xD48 DUP3 PUSH2 0x21E5 JUMP JUMPDEST PUSH2 0xDBA JUMPI PUSH1 0x40 MLOAD PUSH32 0x8C379A000000000000000000000000000000000000000000000000000000000 DUP2 MSTORE PUSH1 0x4 ADD DUP1 DUP1 PUSH1 0x20 ADD DUP3 DUP2 SUB DUP3 MSTORE PUSH1 0x12 DUP2 MSTORE PUSH1 0x20 ADD DUP1 PUSH32 0x494E56414C49445F41535345545F545950450000000000000000000000000000 DUP2 MSTORE POP PUSH1 0x20 ADD SWAP2 POP POP PUSH1 0x40 MLOAD DUP1 SWAP2 SUB SWAP1 REVERT JUMPDEST PUSH1 0x0 PUSH2 0xDC6 DUP4 CALLVALUE PUSH2 0x225F JUMP JUMPDEST SWAP1 POP PUSH2 0xDD3 DUP4 DUP4 DUP4 PUSH2 0x18AE JUMP JUMPDEST POP POP POP JUMP JUMPDEST PUSH9 0x10000000000000003 SLOAD DUP2 JUMP JUMPDEST PUSH3 0x1BAF80 PUSH3 0x93A80 ADD DUP2 JUMP JUMPDEST PUSH1 0x0 DUP2 GT PUSH2 0xE68 JUMPI PUSH1 0x40 MLOAD PUSH32 0x8C379A000000000000000000000000000000000000000000000000000000000 DUP2 MSTORE PUSH1 0x4 ADD DUP1 DUP1 PUSH1 0x20 ADD DUP3 DUP2 SUB DUP3 MSTORE PUSH1 0xF DUP2 MSTORE PUSH1 0x20 ADD DUP1 PUSH32 0x5A45524F5F5749544844524157414C0000000000000000000000000000000000 DUP2 MSTORE POP PUSH1 0x20 ADD SWAP2 POP POP PUSH1 0x40 MLOAD DUP1 SWAP2 SUB SWAP1 REVERT JUMPDEST PUSH2 0xE73 CALLER DUP5 DUP5 PUSH2 0xB99 JUMP JUMPDEST ISZERO PUSH2 0xEE6 JUMPI PUSH1 0x40 MLOAD PUSH32 0x8C379A000000000000000000000000000000000000000000000000000000000 DUP2 MSTORE PUSH1 0x4 ADD DUP1 DUP1 PUSH1 0x20 ADD DUP3 DUP2 SUB DUP3 MSTORE PUSH1 0xF DUP2 MSTORE PUSH1 0x20 ADD DUP1 PUSH32 0x5641554C545F49535F4C4F434B45440000000000000000000000000000000000 DUP2 MSTORE POP PUSH1 0x20 ADD SWAP2 POP POP PUSH1 0x40 MLOAD DUP1 SWAP2 SUB SWAP1 REVERT JUMPDEST PUSH2 0xEEF DUP4 PUSH2 0x22FF JUMP JUMPDEST ISZERO PUSH2 0xF62 JUMPI PUSH1 0x40 MLOAD PUSH32 0x8C379A000000000000000000000000000000000000000000000000000000000 DUP2 MSTORE PUSH1 0x4 ADD DUP1 DUP1 PUSH1 0x20 ADD DUP3 DUP2 SUB DUP3 MSTORE PUSH1 0x13 DUP2 MSTORE PUSH1 0x20 ADD DUP1 PUSH32 0x4D494E5441424C455F41535345545F5459504500000000000000000000000000 DUP2 MSTORE POP PUSH1 0x20 ADD SWAP2 POP POP PUSH1 0x40 MLOAD DUP1 SWAP2 SUB SWAP1 REVERT JUMPDEST PUSH2 0xF6B DUP4 PUSH2 0x175F JUMP JUMPDEST PUSH2 0xFDD JUMPI PUSH1 0x40 MLOAD PUSH32 0x8C379A000000000000000000000000000000000000000000000000000000000 DUP2 MSTORE PUSH1 0x4 ADD DUP1 DUP1 PUSH1 0x20 ADD DUP3 DUP2 SUB DUP3 MSTORE PUSH1 0x17 DUP2 MSTORE PUSH1 0x20 ADD DUP1 PUSH32 0x4E4F4E5F46554E4749424C455F41535345545F54595045000000000000000000 DUP2 MSTORE POP PUSH1 0x20 ADD SWAP2 POP POP PUSH1 0x40 MLOAD DUP1 SWAP2 SUB SWAP1 REVERT JUMPDEST PUSH1 0x0 PUSH9 0x10000000000000000 PUSH1 0x0 CALLER PUSH20 0xFFFFFFFFFFFFFFFFFFFFFFFFFFFFFFFFFFFFFFFF AND PUSH20 0xFFFFFFFFFFFFFFFFFFFFFFFFFFFFFFFFFFFFFFFF AND DUP2 MSTORE PUSH1 0x20 ADD SWAP1 DUP2 MSTORE PUSH1 0x20 ADD PUSH1 0x0 KECCAK256 PUSH1 0x0 DUP6 DUP2 MSTORE PUSH1 0x20 ADD SWAP1 DUP2 MSTORE PUSH1 0x20 ADD PUSH1 0x0 KECCAK256 PUSH1 0x0 DUP5 DUP2 MSTORE PUSH1 0x20 ADD SWAP1 DUP2 MSTORE PUSH1 0x20 ADD PUSH1 0x0 KECCAK256 SLOAD SWAP1 POP DUP2 DUP2 LT ISZERO PUSH2 0x10C1 JUMPI PUSH1 0x40 MLOAD PUSH32 0x8C379A000000000000000000000000000000000000000000000000000000000 DUP2 MSTORE PUSH1 0x4 ADD DUP1 DUP1 PUSH1 0x20 ADD DUP3 DUP2 SUB DUP3 MSTORE PUSH1 0x14 DUP2 MSTORE PUSH1 0x20 ADD DUP1 PUSH32 0x494E53554646494349454E545F42414C414E4345000000000000000000000000 DUP2 MSTORE POP PUSH1 0x20 ADD SWAP2 POP POP PUSH1 0x40 MLOAD DUP1 SWAP2 SUB SWAP1 REVERT JUMPDEST DUP2 DUP2 SUB PUSH9 0x10000000000000000 PUSH1 0x0 CALLER PUSH20 0xFFFFFFFFFFFFFFFFFFFFFFFFFFFFFFFFFFFFFFFF AND PUSH20 0xFFFFFFFFFFFFFFFFFFFFFFFFFFFFFFFFFFFFFFFF AND DUP2 MSTORE PUSH1 0x20 ADD SWAP1 DUP2 MSTORE PUSH1 0x20 ADD PUSH1 0x0 KECCAK256 PUSH1 0x0 DUP7 DUP2 MSTORE PUSH1 0x20 ADD SWAP1 DUP2 MSTORE PUSH1 0x20 ADD PUSH1 0x0 KECCAK256 PUSH1 0x0 DUP6 DUP2 MSTORE PUSH1 0x20 ADD SWAP1 DUP2 MSTORE PUSH1 0x20 ADD PUSH1 0x0 KECCAK256 DUP2 SWAP1 SSTORE POP PUSH2 0x113C CALLER DUP6 DUP5 PUSH2 0x23E6 JUMP JUMPDEST PUSH32 0xA866E320A5FE47B394AE4F8CD2C180329AC2A143CC50F61D7B26A7AF1F1C05FC CALLER DUP6 DUP6 PUSH2 0x116A DUP9 DUP8 PUSH2 0x16C7 JUMP JUMPDEST DUP7 PUSH1 0x40 MLOAD DUP1 DUP7 PUSH20 0xFFFFFFFFFFFFFFFFFFFFFFFFFFFFFFFFFFFFFFFF AND DUP2 MSTORE PUSH1 0x20 ADD DUP6 DUP2 MSTORE PUSH1 0x20 ADD DUP5 DUP2 MSTORE PUSH1 0x20 ADD DUP4 DUP2 MSTORE PUSH1 0x20 ADD DUP3 DUP2 MSTORE PUSH1 0x20 ADD SWAP6 POP POP POP POP POP POP PUSH1 0x40 MLOAD DUP1 SWAP2 SUB SWAP1 LOG1 POP POP POP POP JUMP JUMPDEST PUSH1 0x40 MLOAD DUP1 PUSH1 0x60 ADD PUSH1 0x40 MSTORE DUP1 PUSH1 0x26 DUP2 MSTORE PUSH1 0x20 ADD PUSH2 0x335F PUSH1 0x26 SWAP2 CODECOPY DUP2 JUMP JUMPDEST PUSH2 0x11DD CALLER PUSH2 0x1CA1 JUMP JUMPDEST PUSH2 0x124F JUMPI PUSH1 0x40 MLOAD PUSH32 0x8C379A000000000000000000000000000000000000000000000000000000000 DUP2 MSTORE PUSH1 0x4 ADD DUP1 DUP1 PUSH1 0x20 ADD DUP3 DUP2 SUB DUP3 MSTORE PUSH1 0xF DUP2 MSTORE PUSH1 0x20 ADD DUP1 PUSH32 0x4F4E4C595F474F5645524E414E43450000000000000000000000000000000000 DUP2 MSTORE POP PUSH1 0x20 ADD SWAP2 POP POP PUSH1 0x40 MLOAD DUP1 SWAP2 SUB SWAP1 REVERT JUMPDEST PUSH3 0x93A80 DUP2 GT ISZERO PUSH2 0x12C8 JUMPI PUSH1 0x40 MLOAD PUSH32 0x8C379A000000000000000000000000000000000000000000000000000000000 DUP2 MSTORE PUSH1 0x4 ADD DUP1 DUP1 PUSH1 0x20 ADD DUP3 DUP2 SUB DUP3 MSTORE PUSH1 0x1A DUP2 MSTORE PUSH1 0x20 ADD DUP1 PUSH32 0x44454641554C545F4C4F434B5F54494D455F544F4F5F4C4F4E47000000000000 DUP2 MSTORE POP PUSH1 0x20 ADD SWAP2 POP POP PUSH1 0x40 MLOAD DUP1 SWAP2 SUB SWAP1 REVERT JUMPDEST DUP1 PUSH9 0x10000000000000003 DUP2 SWAP1 SSTORE POP PUSH32 0x832169A4C3CEA413F0041437FD118AFBC4B33EDBF6783DA382128BCA1E56B2D2 DUP2 PUSH1 0x40 MLOAD DUP1 DUP3 DUP2 MSTORE PUSH1 0x20 ADD SWAP2 POP POP PUSH1 0x40 MLOAD DUP1 SWAP2 SUB SWAP1 LOG1 POP JUMP JUMPDEST PUSH1 0x0 PUSH1 0x15 PUSH1 0x0 DUP4 DUP2 MSTORE PUSH1 0x20 ADD SWAP1 DUP2 MSTORE PUSH1 0x20 ADD PUSH1 0x0 KECCAK256 PUSH1 0x0 SWAP1 SLOAD SWAP1 PUSH2 0x100 EXP SWAP1 DIV PUSH1 0xFF AND PUSH2 0x1341 JUMPI PUSH1 0x1 SWAP1 POP PUSH2 0x1358 JUMP JUMPDEST PUSH1 0x16 PUSH1 0x0 DUP4 DUP2 MSTORE PUSH1 0x20 ADD SWAP1 DUP2 MSTORE PUSH1 0x20 ADD PUSH1 0x0 KECCAK256 SLOAD SWAP1 POP JUMPDEST SWAP2 SWAP1 POP JUMP JUMPDEST PUSH1 0xA DUP2 JUMP JUMPDEST PUSH1 0x0 PUSH9 0x10000000000000000 PUSH1 0x0 DUP6 PUSH20 0xFFFFFFFFFFFFFFFFFFFFFFFFFFFFFFFFFFFFFFFF AND PUSH20 0xFFFFFFFFFFFFFFFFFFFFFFFFFFFFFFFFFFFFFFFF AND DUP2 MSTORE PUSH1 0x20 ADD SWAP1 DUP2 MSTORE PUSH1 0x20 ADD PUSH1 0x0 KECCAK256 PUSH1 0x0 DUP5 DUP2 MSTORE PUSH1 0x20 ADD SWAP1 DUP2 MSTORE PUSH1 0x20 ADD PUSH1 0x0 KECCAK256 PUSH1 0x0 DUP4 DUP2 MSTORE PUSH1 0x20 ADD SWAP1 DUP2 MSTORE PUSH1 0x20 ADD PUSH1 0x0 KECCAK256 SLOAD SWAP1 POP SWAP4 SWAP3 POP POP POP JUMP JUMPDEST PUSH1 0x40 DUP2 JUMP JUMPDEST PUSH1 0x0 PUSH2 0x13E9 CALLER DUP6 DUP6 PUSH2 0xCBE JUMP JUMPDEST SWAP1 POP PUSH1 0x0 DUP3 TIMESTAMP ADD SWAP1 POP DUP2 DUP2 LT ISZERO PUSH2 0x1468 JUMPI PUSH1 0x40 MLOAD PUSH32 0x8C379A000000000000000000000000000000000000000000000000000000000 DUP2 MSTORE PUSH1 0x4 ADD DUP1 DUP1 PUSH1 0x20 ADD DUP3 DUP2 SUB DUP3 MSTORE PUSH1 0x11 DUP2 MSTORE PUSH1 0x20 ADD DUP1 PUSH32 0x494E56414C49445F4C4F434B5F54494D45000000000000000000000000000000 DUP2 MSTORE POP PUSH1 0x20 ADD SWAP2 POP POP PUSH1 0x40 MLOAD DUP1 SWAP2 SUB SWAP1 REVERT JUMPDEST DUP1 PUSH9 0x10000000000000001 PUSH1 0x0 CALLER PUSH20 0xFFFFFFFFFFFFFFFFFFFFFFFFFFFFFFFFFFFFFFFF AND PUSH20 0xFFFFFFFFFFFFFFFFFFFFFFFFFFFFFFFFFFFFFFFF AND DUP2 MSTORE PUSH1 0x20 ADD SWAP1 DUP2 MSTORE PUSH1 0x20 ADD PUSH1 0x0 KECCAK256 PUSH1 0x0 DUP8 DUP2 MSTORE PUSH1 0x20 ADD SWAP1 DUP2 MSTORE PUSH1 0x20 ADD PUSH1 0x0 KECCAK256 PUSH1 0x0 DUP7 DUP2 MSTORE PUSH1 0x20 ADD SWAP1 DUP2 MSTORE PUSH1 0x20 ADD PUSH1 0x0 KECCAK256 DUP2 SWAP1 SSTORE POP PUSH32 0xCD08744F6E50D6B64D69F8A5EDDC7F66E34DB287F51C1DA789FF770EBC7CF73E CALLER DUP7 DUP7 DUP5 PUSH1 0x40 MLOAD DUP1 DUP6 PUSH20 0xFFFFFFFFFFFFFFFFFFFFFFFFFFFFFFFFFFFFFFFF AND DUP2 MSTORE PUSH1 0x20 ADD DUP5 DUP2 MSTORE PUSH1 0x20 ADD DUP4 DUP2 MSTORE PUSH1 0x20 ADD DUP3 DUP2 MSTORE PUSH1 0x20 ADD SWAP5 POP POP POP POP POP PUSH1 0x40 MLOAD DUP1 SWAP2 SUB SWAP1 LOG1 POP POP POP POP POP JUMP JUMPDEST PUSH1 0x60 PUSH1 0x40 MLOAD DUP1 PUSH1 0x40 ADD PUSH1 0x40 MSTORE DUP1 PUSH1 0x1E DUP2 MSTORE PUSH1 0x20 ADD PUSH32 0x537461726B576172655F4F6E636861696E5661756C74735F323032315F310000 DUP2 MSTORE POP SWAP1 POP SWAP1 JUMP JUMPDEST PUSH1 0x60 PUSH1 0x15 PUSH1 0x0 DUP4 DUP2 MSTORE PUSH1 0x20 ADD SWAP1 DUP2 MSTORE PUSH1 0x20 ADD PUSH1 0x0 KECCAK256 PUSH1 0x0 SWAP1 SLOAD SWAP1 PUSH2 0x100 EXP SWAP1 DIV PUSH1 0xFF AND PUSH2 0x1614 JUMPI PUSH1 0x40 MLOAD PUSH32 0x8C379A000000000000000000000000000000000000000000000000000000000 DUP2 MSTORE PUSH1 0x4 ADD DUP1 DUP1 PUSH1 0x20 ADD DUP3 DUP2 SUB DUP3 MSTORE PUSH1 0x19 DUP2 MSTORE PUSH1 0x20 ADD DUP1 PUSH32 0x41535345545F545950455F4E4F545F5245474953544552454400000000000000 DUP2 MSTORE POP PUSH1 0x20 ADD SWAP2 POP POP PUSH1 0x40 MLOAD DUP1 SWAP2 SUB SWAP1 REVERT JUMPDEST PUSH1 0x14 PUSH1 0x0 DUP4 DUP2 MSTORE PUSH1 0x20 ADD SWAP1 DUP2 MSTORE PUSH1 0x20 ADD PUSH1 0x0 KECCAK256 DUP1 SLOAD PUSH1 0x1 DUP2 PUSH1 0x1 AND ISZERO PUSH2 0x100 MUL SUB AND PUSH1 0x2 SWAP1 DIV DUP1 PUSH1 0x1F ADD PUSH1 0x20 DUP1 SWAP2 DIV MUL PUSH1 0x20 ADD PUSH1 0x40 MLOAD SWAP1 DUP2 ADD PUSH1 0x40 MSTORE DUP1 SWAP3 SWAP2 SWAP1 DUP2 DUP2 MSTORE PUSH1 0x20 ADD DUP3 DUP1 SLOAD PUSH1 0x1 DUP2 PUSH1 0x1 AND ISZERO PUSH2 0x100 MUL SUB AND PUSH1 0x2 SWAP1 DIV DUP1 ISZERO PUSH2 0x16BB JUMPI DUP1 PUSH1 0x1F LT PUSH2 0x1690 JUMPI PUSH2 0x100 DUP1 DUP4 SLOAD DIV MUL DUP4 MSTORE SWAP2 PUSH1 0x20 ADD SWAP2 PUSH2 0x16BB JUMP JUMPDEST DUP3 ADD SWAP2 SWAP1 PUSH1 0x0 MSTORE PUSH1 0x20 PUSH1 0x0 KECCAK256 SWAP1 JUMPDEST DUP2 SLOAD DUP2 MSTORE SWAP1 PUSH1 0x1 ADD SWAP1 PUSH1 0x20 ADD DUP1 DUP4 GT PUSH2 0x169E JUMPI DUP3 SWAP1 SUB PUSH1 0x1F AND DUP3 ADD SWAP2 JUMPDEST POP POP POP POP POP SWAP1 POP SWAP2 SWAP1 POP JUMP JUMPDEST PUSH1 0x0 DUP1 PUSH2 0x16D3 DUP5 PUSH2 0x1311 JUMP JUMPDEST SWAP1 POP DUP1 DUP4 MUL SWAP2 POP DUP3 DUP2 DUP4 DUP2 PUSH2 0x16E4 JUMPI INVALID JUMPDEST DIV EQ PUSH2 0x1758 JUMPI PUSH1 0x40 MLOAD PUSH32 0x8C379A000000000000000000000000000000000000000000000000000000000 DUP2 MSTORE PUSH1 0x4 ADD DUP1 DUP1 PUSH1 0x20 ADD DUP3 DUP2 SUB DUP3 MSTORE PUSH1 0x17 DUP2 MSTORE PUSH1 0x20 ADD DUP1 PUSH32 0x44455155414E54495A4154494F4E5F4F564552464C4F57000000000000000000 DUP2 MSTORE POP PUSH1 0x20 ADD SWAP2 POP POP PUSH1 0x40 MLOAD DUP1 SWAP2 SUB SWAP1 REVERT JUMPDEST POP SWAP3 SWAP2 POP POP JUMP JUMPDEST PUSH1 0x0 DUP1 PUSH2 0x1773 PUSH2 0x176E DUP5 PUSH2 0x157F JUMP JUMPDEST PUSH2 0x286C JUMP JUMPDEST SWAP1 POP PUSH32 0x8322FFF276CDF3F5716784C2E78B276D0D5CF1781FE7A7984E8BFF96F75632C6 PUSH28 0xFFFFFFFFFFFFFFFFFFFFFFFFFFFFFFFFFFFFFFFFFFFFFFFFFFFFFFFF NOT AND DUP2 PUSH28 0xFFFFFFFFFFFFFFFFFFFFFFFFFFFFFFFFFFFFFFFFFFFFFFFFFFFFFFFF NOT AND EQ DUP1 PUSH2 0x183E JUMPI POP PUSH32 0xF47261B06EEDBFCE68AFD46D0F3C27C60B03FAAD319EAF33103611CF8F6456AD PUSH28 0xFFFFFFFFFFFFFFFFFFFFFFFFFFFFFFFFFFFFFFFFFFFFFFFFFFFFFFFF NOT AND DUP2 PUSH28 0xFFFFFFFFFFFFFFFFFFFFFFFFFFFFFFFFFFFFFFFFFFFFFFFFFFFFFFFF NOT AND EQ JUMPDEST DUP1 PUSH2 0x18A6 JUMPI POP PUSH32 0x68646E2D4D60FD63368774F59858335CC28E4C682FA6CFBD77D48C508E7A1C41 PUSH28 0xFFFFFFFFFFFFFFFFFFFFFFFFFFFFFFFFFFFFFFFFFFFFFFFFFFFFFFFF NOT AND DUP2 PUSH28 0xFFFFFFFFFFFFFFFFFFFFFFFFFFFFFFFFFFFFFFFFFFFFFFFFFFFFFFFF NOT AND EQ JUMPDEST SWAP2 POP POP SWAP2 SWAP1 POP JUMP JUMPDEST PUSH2 0x18B7 DUP4 PUSH2 0x22FF JUMP JUMPDEST ISZERO PUSH2 0x192A JUMPI PUSH1 0x40 MLOAD PUSH32 0x8C379A000000000000000000000000000000000000000000000000000000000 DUP2 MSTORE PUSH1 0x4 ADD DUP1 DUP1 PUSH1 0x20 ADD DUP3 DUP2 SUB DUP3 MSTORE PUSH1 0x13 DUP2 MSTORE PUSH1 0x20 ADD DUP1 PUSH32 0x4D494E5441424C455F41535345545F5459504500000000000000000000000000 DUP2 MSTORE POP PUSH1 0x20 ADD SWAP2 POP POP PUSH1 0x40 MLOAD DUP1 SWAP2 SUB SWAP1 REVERT JUMPDEST PUSH2 0x1934 DUP4 DUP4 PUSH2 0x289C JUMP JUMPDEST DUP1 PUSH9 0x10000000000000000 PUSH1 0x0 CALLER PUSH20 0xFFFFFFFFFFFFFFFFFFFFFFFFFFFFFFFFFFFFFFFF AND PUSH20 0xFFFFFFFFFFFFFFFFFFFFFFFFFFFFFFFFFFFFFFFF AND DUP2 MSTORE PUSH1 0x20 ADD SWAP1 DUP2 MSTORE PUSH1 0x20 ADD PUSH1 0x0 KECCAK256 PUSH1 0x0 DUP6 DUP2 MSTORE PUSH1 0x20 ADD SWAP1 DUP2 MSTORE PUSH1 0x20 ADD PUSH1 0x0 KECCAK256 PUSH1 0x0 DUP5 DUP2 MSTORE PUSH1 0x20 ADD SWAP1 DUP2 MSTORE PUSH1 0x20 ADD PUSH1 0x0 KECCAK256 PUSH1 0x0 DUP3 DUP3 SLOAD ADD SWAP3 POP POP DUP2 SWAP1 SSTORE POP DUP1 PUSH9 0x10000000000000000 PUSH1 0x0 CALLER PUSH20 0xFFFFFFFFFFFFFFFFFFFFFFFFFFFFFFFFFFFFFFFF AND PUSH20 0xFFFFFFFFFFFFFFFFFFFFFFFFFFFFFFFFFFFFFFFF AND DUP2 MSTORE PUSH1 0x20 ADD SWAP1 DUP2 MSTORE PUSH1 0x20 ADD PUSH1 0x0 KECCAK256 PUSH1 0x0 DUP6 DUP2 MSTORE PUSH1 0x20 ADD SWAP1 DUP2 MSTORE PUSH1 0x20 ADD PUSH1 0x0 KECCAK256 PUSH1 0x0 DUP5 DUP2 MSTORE PUSH1 0x20 ADD SWAP1 DUP2 MSTORE PUSH1 0x20 ADD PUSH1 0x0 KECCAK256 SLOAD LT ISZERO PUSH2 0x1A8A JUMPI PUSH1 0x40 MLOAD PUSH32 0x8C379A000000000000000000000000000000000000000000000000000000000 DUP2 MSTORE PUSH1 0x4 ADD DUP1 DUP1 PUSH1 0x20 ADD DUP3 DUP2 SUB DUP3 MSTORE PUSH1 0xE DUP2 MSTORE PUSH1 0x20 ADD DUP1 PUSH32 0x5641554C545F4F564552464C4F57000000000000000000000000000000000000 DUP2 MSTORE POP PUSH1 0x20 ADD SWAP2 POP POP PUSH1 0x40 MLOAD DUP1 SWAP2 SUB SWAP1 REVERT JUMPDEST PUSH2 0x1A94 DUP4 DUP3 PUSH2 0x28DA JUMP JUMPDEST PUSH32 0x31F9107E2D3910AB3E05F1950B34A1983ECEAED380FBCDC68AE159C4CF8CEE75 CALLER DUP5 DUP5 PUSH2 0x1AC2 DUP8 DUP7 PUSH2 0x16C7 JUMP JUMPDEST DUP6 PUSH1 0x40 MLOAD DUP1 DUP7 PUSH20 0xFFFFFFFFFFFFFFFFFFFFFFFFFFFFFFFFFFFFFFFF AND DUP2 MSTORE PUSH1 0x20 ADD DUP6 DUP2 MSTORE PUSH1 0x20 ADD DUP5 DUP2 MSTORE PUSH1 0x20 ADD DUP4 DUP2 MSTORE PUSH1 0x20 ADD DUP3 DUP2 MSTORE PUSH1 0x20 ADD SWAP6 POP POP POP POP POP POP PUSH1 0x40 MLOAD DUP1 SWAP2 SUB SWAP1 LOG1 POP POP POP JUMP JUMPDEST PUSH1 0x0 PUSH2 0x1B19 PUSH2 0x2D26 JUMP JUMPDEST SWAP1 POP DUP1 PUSH1 0x1 ADD PUSH1 0x0 SWAP1 SLOAD SWAP1 PUSH2 0x100 EXP SWAP1 DIV PUSH20 0xFFFFFFFFFFFFFFFFFFFFFFFFFFFFFFFFFFFFFFFF AND PUSH20 0xFFFFFFFFFFFFFFFFFFFFFFFFFFFFFFFFFFFFFFFF AND CALLER PUSH20 0xFFFFFFFFFFFFFFFFFFFFFFFFFFFFFFFFFFFFFFFF AND EQ PUSH2 0x1BE0 JUMPI PUSH1 0x40 MLOAD PUSH32 0x8C379A000000000000000000000000000000000000000000000000000000000 DUP2 MSTORE PUSH1 0x4 ADD DUP1 DUP1 PUSH1 0x20 ADD DUP3 DUP2 SUB DUP3 MSTORE PUSH1 0x17 DUP2 MSTORE PUSH1 0x20 ADD DUP1 PUSH32 0x4F4E4C595F43414E4449444154455F474F5645524E4F52000000000000000000 DUP2 MSTORE POP PUSH1 0x20 ADD SWAP2 POP POP PUSH1 0x40 MLOAD DUP1 SWAP2 SUB SWAP1 REVERT JUMPDEST PUSH2 0x1C0D DUP2 PUSH1 0x1 ADD PUSH1 0x0 SWAP1 SLOAD SWAP1 PUSH2 0x100 EXP SWAP1 DIV PUSH20 0xFFFFFFFFFFFFFFFFFFFFFFFFFFFFFFFFFFFFFFFF AND PUSH2 0x2E2C JUMP JUMPDEST PUSH1 0x0 DUP2 PUSH1 0x1 ADD PUSH1 0x0 PUSH2 0x100 EXP DUP2 SLOAD DUP2 PUSH20 0xFFFFFFFFFFFFFFFFFFFFFFFFFFFFFFFFFFFFFFFF MUL NOT AND SWAP1 DUP4 PUSH20 0xFFFFFFFFFFFFFFFFFFFFFFFFFFFFFFFFFFFFFFFF AND MUL OR SWAP1 SSTORE POP PUSH32 0xCFB473E6C03F9A29DDAF990E736FA3DE5188A0BD85D684F5B6E164EBFBFFF5D2 CALLER PUSH1 0x40 MLOAD DUP1 DUP3 PUSH20 0xFFFFFFFFFFFFFFFFFFFFFFFFFFFFFFFFFFFFFFFF AND DUP2 MSTORE PUSH1 0x20 ADD SWAP2 POP POP PUSH1 0x40 MLOAD DUP1 SWAP2 SUB SWAP1 LOG1 POP JUMP JUMPDEST PUSH1 0x0 DUP1 PUSH2 0x1CAC PUSH2 0x2D26 JUMP JUMPDEST SWAP1 POP DUP1 PUSH1 0x0 ADD PUSH1 0x0 DUP5 PUSH20 0xFFFFFFFFFFFFFFFFFFFFFFFFFFFFFFFFFFFFFFFF AND PUSH20 0xFFFFFFFFFFFFFFFFFFFFFFFFFFFFFFFFFFFFFFFF AND DUP2 MSTORE PUSH1 0x20 ADD SWAP1 DUP2 MSTORE PUSH1 0x20 ADD PUSH1 0x0 KECCAK256 PUSH1 0x0 SWAP1 SLOAD SWAP1 PUSH2 0x100 EXP SWAP1 DIV PUSH1 0xFF AND SWAP2 POP POP SWAP2 SWAP1 POP JUMP JUMPDEST PUSH2 0x1D0E CALLER PUSH2 0x1CA1 JUMP JUMPDEST PUSH2 0x1D80 JUMPI PUSH1 0x40 MLOAD PUSH32 0x8C379A000000000000000000000000000000000000000000000000000000000 DUP2 MSTORE PUSH1 0x4 ADD DUP1 DUP1 PUSH1 0x20 ADD DUP3 DUP2 SUB DUP3 MSTORE PUSH1 0xF DUP2 MSTORE PUSH1 0x20 ADD DUP1 PUSH32 0x4F4E4C595F474F5645524E414E43450000000000000000000000000000000000 DUP2 MSTORE POP PUSH1 0x20 ADD SWAP2 POP POP PUSH1 0x40 MLOAD DUP1 SWAP2 SUB SWAP1 REVERT JUMPDEST PUSH1 0x0 PUSH2 0x1D8A PUSH2 0x2D26 JUMP JUMPDEST SWAP1 POP PUSH1 0x0 DUP2 PUSH1 0x1 ADD PUSH1 0x0 PUSH2 0x100 EXP DUP2 SLOAD DUP2 PUSH20 0xFFFFFFFFFFFFFFFFFFFFFFFFFFFFFFFFFFFFFFFF MUL NOT AND SWAP1 DUP4 PUSH20 0xFFFFFFFFFFFFFFFFFFFFFFFFFFFFFFFFFFFFFFFF AND MUL OR SWAP1 SSTORE POP PUSH32 0x7A8DC7DD7FFFB43C4807438FA62729225156941E641FD877938F4EDADE3429F5 PUSH1 0x40 MLOAD PUSH1 0x40 MLOAD DUP1 SWAP2 SUB SWAP1 LOG1 POP JUMP JUMPDEST PUSH2 0x1E08 CALLER PUSH2 0x1CA1 JUMP JUMPDEST PUSH2 0x1E7A JUMPI PUSH1 0x40 MLOAD PUSH32 0x8C379A000000000000000000000000000000000000000000000000000000000 DUP2 MSTORE PUSH1 0x4 ADD DUP1 DUP1 PUSH1 0x20 ADD DUP3 DUP2 SUB DUP3 MSTORE PUSH1 0xF DUP2 MSTORE PUSH1 0x20 ADD DUP1 PUSH32 0x4F4E4C595F474F5645524E414E43450000000000000000000000000000000000 DUP2 MSTORE POP PUSH1 0x20 ADD SWAP2 POP POP PUSH1 0x40 MLOAD DUP1 SWAP2 SUB SWAP1 REVERT JUMPDEST PUSH1 0x0 PUSH2 0x1E84 PUSH2 0x2D26 JUMP JUMPDEST SWAP1 POP PUSH2 0x1E8F DUP3 PUSH2 0x1CA1 JUMP JUMPDEST ISZERO PUSH2 0x1F02 JUMPI PUSH1 0x40 MLOAD PUSH32 0x8C379A000000000000000000000000000000000000000000000000000000000 DUP2 MSTORE PUSH1 0x4 ADD DUP1 DUP1 PUSH1 0x20 ADD DUP3 DUP2 SUB DUP3 MSTORE PUSH1 0x10 DUP2 MSTORE PUSH1 0x20 ADD DUP1 PUSH32 0x414C52454144595F474F5645524E4F5200000000000000000000000000000000 DUP2 MSTORE POP PUSH1 0x20 ADD SWAP2 POP POP PUSH1 0x40 MLOAD DUP1 SWAP2 SUB SWAP1 REVERT JUMPDEST DUP2 DUP2 PUSH1 0x1 ADD PUSH1 0x0 PUSH2 0x100 EXP DUP2 SLOAD DUP2 PUSH20 0xFFFFFFFFFFFFFFFFFFFFFFFFFFFFFFFFFFFFFFFF MUL NOT AND SWAP1 DUP4 PUSH20 0xFFFFFFFFFFFFFFFFFFFFFFFFFFFFFFFFFFFFFFFF AND MUL OR SWAP1 SSTORE POP PUSH32 0x6166272C8D3F5F579082F2827532732F97195007983BB5B83AC12C56700B01A6 DUP3 PUSH1 0x40 MLOAD DUP1 DUP3 PUSH20 0xFFFFFFFFFFFFFFFFFFFFFFFFFFFFFFFFFFFFFFFF AND DUP2 MSTORE PUSH1 0x20 ADD SWAP2 POP POP PUSH1 0x40 MLOAD DUP1 SWAP2 SUB SWAP1 LOG1 POP POP JUMP JUMPDEST PUSH2 0x1F9F CALLER PUSH2 0x1CA1 JUMP JUMPDEST PUSH2 0x2011 JUMPI PUSH1 0x40 MLOAD PUSH32 0x8C379A000000000000000000000000000000000000000000000000000000000 DUP2 MSTORE PUSH1 0x4 ADD DUP1 DUP1 PUSH1 0x20 ADD DUP3 DUP2 SUB DUP3 MSTORE PUSH1 0xF DUP2 MSTORE PUSH1 0x20 ADD DUP1 PUSH32 0x4F4E4C595F474F5645524E414E43450000000000000000000000000000000000 DUP2 MSTORE POP PUSH1 0x20 ADD SWAP2 POP POP PUSH1 0x40 MLOAD DUP1 SWAP2 SUB SWAP1 REVERT JUMPDEST DUP1 PUSH20 0xFFFFFFFFFFFFFFFFFFFFFFFFFFFFFFFFFFFFFFFF AND CALLER PUSH20 0xFFFFFFFFFFFFFFFFFFFFFFFFFFFFFFFFFFFFFFFF AND EQ ISZERO PUSH2 0x20B3 JUMPI PUSH1 0x40 MLOAD PUSH32 0x8C379A000000000000000000000000000000000000000000000000000000000 DUP2 MSTORE PUSH1 0x4 ADD DUP1 DUP1 PUSH1 0x20 ADD DUP3 DUP2 SUB DUP3 MSTORE PUSH1 0x14 DUP2 MSTORE PUSH1 0x20 ADD DUP1 PUSH32 0x474F5645524E4F525F53454C465F52454D4F5645000000000000000000000000 DUP2 MSTORE POP PUSH1 0x20 ADD SWAP2 POP POP PUSH1 0x40 MLOAD DUP1 SWAP2 SUB SWAP1 REVERT JUMPDEST PUSH1 0x0 PUSH2 0x20BD PUSH2 0x2D26 JUMP JUMPDEST SWAP1 POP PUSH2 0x20C8 DUP3 PUSH2 0x1CA1 JUMP JUMPDEST PUSH2 0x213A JUMPI PUSH1 0x40 MLOAD PUSH32 0x8C379A000000000000000000000000000000000000000000000000000000000 DUP2 MSTORE PUSH1 0x4 ADD DUP1 DUP1 PUSH1 0x20 ADD DUP3 DUP2 SUB DUP3 MSTORE PUSH1 0xC DUP2 MSTORE PUSH1 0x20 ADD DUP1 PUSH32 0x4E4F545F474F5645524E4F520000000000000000000000000000000000000000 DUP2 MSTORE POP PUSH1 0x20 ADD SWAP2 POP POP PUSH1 0x40 MLOAD DUP1 SWAP2 SUB SWAP1 REVERT JUMPDEST PUSH1 0x0 DUP2 PUSH1 0x0 ADD PUSH1 0x0 DUP5 PUSH20 0xFFFFFFFFFFFFFFFFFFFFFFFFFFFFFFFFFFFFFFFF AND PUSH20 0xFFFFFFFFFFFFFFFFFFFFFFFFFFFFFFFFFFFFFFFF AND DUP2 MSTORE PUSH1 0x20 ADD SWAP1 DUP2 MSTORE PUSH1 0x20 ADD PUSH1 0x0 KECCAK256 PUSH1 0x0 PUSH2 0x100 EXP DUP2 SLOAD DUP2 PUSH1 0xFF MUL NOT AND SWAP1 DUP4 ISZERO ISZERO MUL OR SWAP1 SSTORE POP PUSH32 0xD75F94825E770B8B512BE8E74759E252AD00E102E38F50CCE2F7C6F868A29599 DUP3 PUSH1 0x40 MLOAD DUP1 DUP3 PUSH20 0xFFFFFFFFFFFFFFFFFFFFFFFFFFFFFFFFFFFFFFFF AND DUP2 MSTORE PUSH1 0x20 ADD SWAP2 POP POP PUSH1 0x40 MLOAD DUP1 SWAP2 SUB SWAP1 LOG1 POP POP JUMP JUMPDEST PUSH1 0x0 PUSH32 0x8322FFF276CDF3F5716784C2E78B276D0D5CF1781FE7A7984E8BFF96F75632C6 PUSH28 0xFFFFFFFFFFFFFFFFFFFFFFFFFFFFFFFFFFFFFFFFFFFFFFFFFFFFFFFF NOT AND PUSH2 0x2238 PUSH2 0x2233 DUP5 PUSH2 0x157F JUMP JUMPDEST PUSH2 0x286C JUMP JUMPDEST PUSH28 0xFFFFFFFFFFFFFFFFFFFFFFFFFFFFFFFFFFFFFFFFFFFFFFFFFFFFFFFF NOT AND EQ SWAP1 POP SWAP2 SWAP1 POP JUMP JUMPDEST PUSH1 0x0 DUP1 PUSH2 0x226B DUP5 PUSH2 0x1311 JUMP JUMPDEST SWAP1 POP PUSH1 0x0 DUP2 DUP5 DUP2 PUSH2 0x2278 JUMPI INVALID JUMPDEST MOD EQ PUSH2 0x22EC JUMPI PUSH1 0x40 MLOAD PUSH32 0x8C379A000000000000000000000000000000000000000000000000000000000 DUP2 MSTORE PUSH1 0x4 ADD DUP1 DUP1 PUSH1 0x20 ADD DUP3 DUP2 SUB DUP3 MSTORE PUSH1 0xE DUP2 MSTORE PUSH1 0x20 ADD DUP1 PUSH32 0x494E56414C49445F414D4F554E54000000000000000000000000000000000000 DUP2 MSTORE POP PUSH1 0x20 ADD SWAP2 POP POP PUSH1 0x40 MLOAD DUP1 SWAP2 SUB SWAP1 REVERT JUMPDEST DUP1 DUP4 DUP2 PUSH2 0x22F5 JUMPI INVALID JUMPDEST DIV SWAP2 POP POP SWAP3 SWAP2 POP POP JUMP JUMPDEST PUSH1 0x0 DUP1 PUSH2 0x2313 PUSH2 0x230E DUP5 PUSH2 0x157F JUMP JUMPDEST PUSH2 0x286C JUMP JUMPDEST SWAP1 POP PUSH32 0x68646E2D4D60FD63368774F59858335CC28E4C682FA6CFBD77D48C508E7A1C41 PUSH28 0xFFFFFFFFFFFFFFFFFFFFFFFFFFFFFFFFFFFFFFFFFFFFFFFFFFFFFFFF NOT AND DUP2 PUSH28 0xFFFFFFFFFFFFFFFFFFFFFFFFFFFFFFFFFFFFFFFFFFFFFFFFFFFFFFFF NOT AND EQ DUP1 PUSH2 0x23DE JUMPI POP PUSH32 0xB8B8667215CC18CA3047444F1C3B3EF050771709648754DD8DF105A66F7CC806 PUSH28 0xFFFFFFFFFFFFFFFFFFFFFFFFFFFFFFFFFFFFFFFFFFFFFFFFFFFFFFFF NOT AND DUP2 PUSH28 0xFFFFFFFFFFFFFFFFFFFFFFFFFFFFFFFFFFFFFFFFFFFFFFFFFFFFFFFF NOT AND EQ JUMPDEST SWAP2 POP POP SWAP2 SWAP1 POP JUMP JUMPDEST PUSH1 0x0 PUSH20 0xFFFFFFFFFFFFFFFFFFFFFFFFFFFFFFFFFFFFFFFF AND DUP4 PUSH20 0xFFFFFFFFFFFFFFFFFFFFFFFFFFFFFFFFFFFFFFFF AND EQ ISZERO PUSH2 0x2489 JUMPI PUSH1 0x40 MLOAD PUSH32 0x8C379A000000000000000000000000000000000000000000000000000000000 DUP2 MSTORE PUSH1 0x4 ADD DUP1 DUP1 PUSH1 0x20 ADD DUP3 DUP2 SUB DUP3 MSTORE PUSH1 0x11 DUP2 MSTORE PUSH1 0x20 ADD DUP1 PUSH32 0x494E56414C49445F524543495049454E54000000000000000000000000000000 DUP2 MSTORE POP PUSH1 0x20 ADD SWAP2 POP POP PUSH1 0x40 MLOAD DUP1 SWAP2 SUB SWAP1 REVERT JUMPDEST PUSH1 0x0 PUSH2 0x2495 DUP4 DUP4 PUSH2 0x16C7 JUMP JUMPDEST SWAP1 POP PUSH2 0x24A0 DUP4 PUSH2 0x2F12 JUMP JUMPDEST ISZERO PUSH2 0x27BB JUMPI PUSH1 0x0 PUSH2 0x24B0 DUP5 PUSH2 0x2F8C JUMP JUMPDEST SWAP1 POP PUSH1 0x0 DUP2 SWAP1 POP PUSH1 0x0 DUP2 PUSH20 0xFFFFFFFFFFFFFFFFFFFFFFFFFFFFFFFFFFFFFFFF AND PUSH4 0x70A08231 ADDRESS PUSH1 0x40 MLOAD DUP3 PUSH4 0xFFFFFFFF AND PUSH1 0xE0 SHL DUP2 MSTORE PUSH1 0x4 ADD DUP1 DUP3 PUSH20 0xFFFFFFFFFFFFFFFFFFFFFFFFFFFFFFFFFFFFFFFF AND DUP2 MSTORE PUSH1 0x20 ADD SWAP2 POP POP PUSH1 0x20 PUSH1 0x40 MLOAD DUP1 DUP4 SUB DUP2 DUP7 DUP1 EXTCODESIZE ISZERO DUP1 ISZERO PUSH2 0x2520 JUMPI PUSH1 0x0 DUP1 REVERT JUMPDEST POP GAS STATICCALL ISZERO DUP1 ISZERO PUSH2 0x2534 JUMPI RETURNDATASIZE PUSH1 0x0 DUP1 RETURNDATACOPY RETURNDATASIZE PUSH1 0x0 REVERT JUMPDEST POP POP POP POP PUSH1 0x40 MLOAD RETURNDATASIZE PUSH1 0x20 DUP2 LT ISZERO PUSH2 0x254A JUMPI PUSH1 0x0 DUP1 REVERT JUMPDEST DUP2 ADD SWAP1 DUP1 DUP1 MLOAD SWAP1 PUSH1 0x20 ADD SWAP1 SWAP3 SWAP2 SWAP1 POP POP POP SWAP1 POP PUSH1 0x60 PUSH4 0xA9059CBB PUSH1 0xE0 SHL DUP9 DUP7 PUSH1 0x40 MLOAD PUSH1 0x24 ADD DUP1 DUP4 PUSH20 0xFFFFFFFFFFFFFFFFFFFFFFFFFFFFFFFFFFFFFFFF AND DUP2 MSTORE PUSH1 0x20 ADD DUP3 DUP2 MSTORE PUSH1 0x20 ADD SWAP3 POP POP POP PUSH1 0x40 MLOAD PUSH1 0x20 DUP2 DUP4 SUB SUB DUP2 MSTORE SWAP1 PUSH1 0x40 MSTORE SWAP1 PUSH28 0xFFFFFFFFFFFFFFFFFFFFFFFFFFFFFFFFFFFFFFFFFFFFFFFFFFFFFFFF NOT AND PUSH1 0x20 DUP3 ADD DUP1 MLOAD PUSH28 0xFFFFFFFFFFFFFFFFFFFFFFFFFFFFFFFFFFFFFFFFFFFFFFFFFFFFFFFF DUP4 DUP2 DUP4 AND OR DUP4 MSTORE POP POP POP POP SWAP1 POP PUSH2 0x261E DUP2 DUP6 PUSH20 0xFFFFFFFFFFFFFFFFFFFFFFFFFFFFFFFFFFFFFFFF AND PUSH2 0x2FA6 SWAP1 SWAP2 SWAP1 PUSH4 0xFFFFFFFF AND JUMP JUMPDEST PUSH1 0x0 DUP4 PUSH20 0xFFFFFFFFFFFFFFFFFFFFFFFFFFFFFFFFFFFFFFFF AND PUSH4 0x70A08231 ADDRESS PUSH1 0x40 MLOAD DUP3 PUSH4 0xFFFFFFFF AND PUSH1 0xE0 SHL DUP2 MSTORE PUSH1 0x4 ADD DUP1 DUP3 PUSH20 0xFFFFFFFFFFFFFFFFFFFFFFFFFFFFFFFFFFFFFFFF AND DUP2 MSTORE PUSH1 0x20 ADD SWAP2 POP POP PUSH1 0x20 PUSH1 0x40 MLOAD DUP1 DUP4 SUB DUP2 DUP7 DUP1 EXTCODESIZE ISZERO DUP1 ISZERO PUSH2 0x2687 JUMPI PUSH1 0x0 DUP1 REVERT JUMPDEST POP GAS STATICCALL ISZERO DUP1 ISZERO PUSH2 0x269B JUMPI RETURNDATASIZE PUSH1 0x0 DUP1 RETURNDATACOPY RETURNDATASIZE PUSH1 0x0 REVERT JUMPDEST POP POP POP POP PUSH1 0x40 MLOAD RETURNDATASIZE PUSH1 0x20 DUP2 LT ISZERO PUSH2 0x26B1 JUMPI PUSH1 0x0 DUP1 REVERT JUMPDEST DUP2 ADD SWAP1 DUP1 DUP1 MLOAD SWAP1 PUSH1 0x20 ADD SWAP1 SWAP3 SWAP2 SWAP1 POP POP POP SWAP1 POP DUP3 DUP2 GT ISZERO PUSH2 0x273A JUMPI PUSH1 0x40 MLOAD PUSH32 0x8C379A000000000000000000000000000000000000000000000000000000000 DUP2 MSTORE PUSH1 0x4 ADD DUP1 DUP1 PUSH1 0x20 ADD DUP3 DUP2 SUB DUP3 MSTORE PUSH1 0x9 DUP2 MSTORE PUSH1 0x20 ADD DUP1 PUSH32 0x554E444552464C4F570000000000000000000000000000000000000000000000 DUP2 MSTORE POP PUSH1 0x20 ADD SWAP2 POP POP PUSH1 0x40 MLOAD DUP1 SWAP2 SUB SWAP1 REVERT JUMPDEST DUP6 DUP4 SUB DUP2 EQ PUSH2 0x27B1 JUMPI PUSH1 0x40 MLOAD PUSH32 0x8C379A000000000000000000000000000000000000000000000000000000000 DUP2 MSTORE PUSH1 0x4 ADD DUP1 DUP1 PUSH1 0x20 ADD DUP3 DUP2 SUB DUP3 MSTORE PUSH1 0x1C DUP2 MSTORE PUSH1 0x20 ADD DUP1 PUSH32 0x494E434F52524543545F414D4F554E545F5452414E5346455252454400000000 DUP2 MSTORE POP PUSH1 0x20 ADD SWAP2 POP POP PUSH1 0x40 MLOAD DUP1 SWAP2 SUB SWAP1 REVERT JUMPDEST POP POP POP POP POP PUSH2 0x2866 JUMP JUMPDEST PUSH2 0x27C4 DUP4 PUSH2 0x21E5 JUMP JUMPDEST ISZERO PUSH2 0x27F7 JUMPI PUSH2 0x27F2 DUP2 DUP6 PUSH20 0xFFFFFFFFFFFFFFFFFFFFFFFFFFFFFFFFFFFFFFFF AND PUSH2 0x322E SWAP1 SWAP2 SWAP1 PUSH4 0xFFFFFFFF AND JUMP JUMPDEST PUSH2 0x2865 JUMP JUMPDEST PUSH1 0x40 MLOAD PUSH32 0x8C379A000000000000000000000000000000000000000000000000000000000 DUP2 MSTORE PUSH1 0x4 ADD DUP1 DUP1 PUSH1 0x20 ADD DUP3 DUP2 SUB DUP3 MSTORE PUSH1 0x16 DUP2 MSTORE PUSH1 0x20 ADD DUP1 PUSH32 0x554E535550504F525445445F544F4B454E5F5459504500000000000000000000 DUP2 MSTORE POP PUSH1 0x20 ADD SWAP2 POP POP PUSH1 0x40 MLOAD DUP1 SWAP2 SUB SWAP1 REVERT JUMPDEST JUMPDEST POP POP POP POP JUMP JUMPDEST PUSH1 0x0 PUSH1 0x20 DUP3 ADD MLOAD PUSH32 0xFFFFFFFF00000000000000000000000000000000000000000000000000000000 AND SWAP1 POP SWAP2 SWAP1 POP JUMP JUMPDEST PUSH1 0x0 PUSH2 0x28A9 CALLER DUP5 DUP5 PUSH2 0xCBE JUMP JUMPDEST SWAP1 POP PUSH9 0x10000000000000003 SLOAD TIMESTAMP ADD DUP2 LT ISZERO PUSH2 0x28D5 JUMPI PUSH2 0x28D4 DUP4 DUP4 PUSH9 0x10000000000000003 SLOAD PUSH2 0x13DC JUMP JUMPDEST JUMPDEST POP POP POP JUMP JUMPDEST PUSH1 0x0 PUSH2 0x28E6 DUP4 DUP4 PUSH2 0x16C7 JUMP JUMPDEST SWAP1 POP PUSH2 0x28F1 DUP4 PUSH2 0x2F12 JUMP JUMPDEST ISZERO PUSH2 0x2C2A JUMPI PUSH1 0x0 PUSH2 0x2901 DUP5 PUSH2 0x2F8C JUMP JUMPDEST SWAP1 POP PUSH1 0x0 DUP2 SWAP1 POP PUSH1 0x0 DUP2 PUSH20 0xFFFFFFFFFFFFFFFFFFFFFFFFFFFFFFFFFFFFFFFF AND PUSH4 0x70A08231 ADDRESS PUSH1 0x40 MLOAD DUP3 PUSH4 0xFFFFFFFF AND PUSH1 0xE0 SHL DUP2 MSTORE PUSH1 0x4 ADD DUP1 DUP3 PUSH20 0xFFFFFFFFFFFFFFFFFFFFFFFFFFFFFFFFFFFFFFFF AND DUP2 MSTORE PUSH1 0x20 ADD SWAP2 POP POP PUSH1 0x20 PUSH1 0x40 MLOAD DUP1 DUP4 SUB DUP2 DUP7 DUP1 EXTCODESIZE ISZERO DUP1 ISZERO PUSH2 0x2971 JUMPI PUSH1 0x0 DUP1 REVERT JUMPDEST POP GAS STATICCALL ISZERO DUP1 ISZERO PUSH2 0x2985 JUMPI RETURNDATASIZE PUSH1 0x0 DUP1 RETURNDATACOPY RETURNDATASIZE PUSH1 0x0 REVERT JUMPDEST POP POP POP POP PUSH1 0x40 MLOAD RETURNDATASIZE PUSH1 0x20 DUP2 LT ISZERO PUSH2 0x299B JUMPI PUSH1 0x0 DUP1 REVERT JUMPDEST DUP2 ADD SWAP1 DUP1 DUP1 MLOAD SWAP1 PUSH1 0x20 ADD SWAP1 SWAP3 SWAP2 SWAP1 POP POP POP SWAP1 POP PUSH1 0x60 PUSH4 0x23B872DD PUSH1 0xE0 SHL CALLER ADDRESS DUP8 PUSH1 0x40 MLOAD PUSH1 0x24 ADD DUP1 DUP5 PUSH20 0xFFFFFFFFFFFFFFFFFFFFFFFFFFFFFFFFFFFFFFFF AND DUP2 MSTORE PUSH1 0x20 ADD DUP4 PUSH20 0xFFFFFFFFFFFFFFFFFFFFFFFFFFFFFFFFFFFFFFFF AND DUP2 MSTORE PUSH1 0x20 ADD DUP3 DUP2 MSTORE PUSH1 0x20 ADD SWAP4 POP POP POP POP PUSH1 0x40 MLOAD PUSH1 0x20 DUP2 DUP4 SUB SUB DUP2 MSTORE SWAP1 PUSH1 0x40 MSTORE SWAP1 PUSH28 0xFFFFFFFFFFFFFFFFFFFFFFFFFFFFFFFFFFFFFFFFFFFFFFFFFFFFFFFF NOT AND PUSH1 0x20 DUP3 ADD DUP1 MLOAD PUSH28 0xFFFFFFFFFFFFFFFFFFFFFFFFFFFFFFFFFFFFFFFFFFFFFFFFFFFFFFFF DUP4 DUP2 DUP4 AND OR DUP4 MSTORE POP POP POP POP SWAP1 POP PUSH2 0x2A8D DUP2 DUP6 PUSH20 0xFFFFFFFFFFFFFFFFFFFFFFFFFFFFFFFFFFFFFFFF AND PUSH2 0x2FA6 SWAP1 SWAP2 SWAP1 PUSH4 0xFFFFFFFF AND JUMP JUMPDEST PUSH1 0x0 DUP4 PUSH20 0xFFFFFFFFFFFFFFFFFFFFFFFFFFFFFFFFFFFFFFFF AND PUSH4 0x70A08231 ADDRESS PUSH1 0x40 MLOAD DUP3 PUSH4 0xFFFFFFFF AND PUSH1 0xE0 SHL DUP2 MSTORE PUSH1 0x4 ADD DUP1 DUP3 PUSH20 0xFFFFFFFFFFFFFFFFFFFFFFFFFFFFFFFFFFFFFFFF AND DUP2 MSTORE PUSH1 0x20 ADD SWAP2 POP POP PUSH1 0x20 PUSH1 0x40 MLOAD DUP1 DUP4 SUB DUP2 DUP7 DUP1 EXTCODESIZE ISZERO DUP1 ISZERO PUSH2 0x2AF6 JUMPI PUSH1 0x0 DUP1 REVERT JUMPDEST POP GAS STATICCALL ISZERO DUP1 ISZERO PUSH2 0x2B0A JUMPI RETURNDATASIZE PUSH1 0x0 DUP1 RETURNDATACOPY RETURNDATASIZE PUSH1 0x0 REVERT JUMPDEST POP POP POP POP PUSH1 0x40 MLOAD RETURNDATASIZE PUSH1 0x20 DUP2 LT ISZERO PUSH2 0x2B20 JUMPI PUSH1 0x0 DUP1 REVERT JUMPDEST DUP2 ADD SWAP1 DUP1 DUP1 MLOAD SWAP1 PUSH1 0x20 ADD SWAP1 SWAP3 SWAP2 SWAP1 POP POP POP SWAP1 POP DUP3 DUP2 LT ISZERO PUSH2 0x2BA9 JUMPI PUSH1 0x40 MLOAD PUSH32 0x8C379A000000000000000000000000000000000000000000000000000000000 DUP2 MSTORE PUSH1 0x4 ADD DUP1 DUP1 PUSH1 0x20 ADD DUP3 DUP2 SUB DUP3 MSTORE PUSH1 0x8 DUP2 MSTORE PUSH1 0x20 ADD DUP1 PUSH32 0x4F564552464C4F57000000000000000000000000000000000000000000000000 DUP2 MSTORE POP PUSH1 0x20 ADD SWAP2 POP POP PUSH1 0x40 MLOAD DUP1 SWAP2 SUB SWAP1 REVERT JUMPDEST DUP6 DUP4 ADD DUP2 EQ PUSH2 0x2C20 JUMPI PUSH1 0x40 MLOAD PUSH32 0x8C379A000000000000000000000000000000000000000000000000000000000 DUP2 MSTORE PUSH1 0x4 ADD DUP1 DUP1 PUSH1 0x20 ADD DUP3 DUP2 SUB DUP3 MSTORE PUSH1 0x1C DUP2 MSTORE PUSH1 0x20 ADD DUP1 PUSH32 0x494E434F52524543545F414D4F554E545F5452414E5346455252454400000000 DUP2 MSTORE POP PUSH1 0x20 ADD SWAP2 POP POP PUSH1 0x40 MLOAD DUP1 SWAP2 SUB SWAP1 REVERT JUMPDEST POP POP POP POP POP PUSH2 0x2D21 JUMP JUMPDEST PUSH2 0x2C33 DUP4 PUSH2 0x21E5 JUMP JUMPDEST ISZERO PUSH2 0x2CB2 JUMPI DUP1 CALLVALUE EQ PUSH2 0x2CAD JUMPI PUSH1 0x40 MLOAD PUSH32 0x8C379A000000000000000000000000000000000000000000000000000000000 DUP2 MSTORE PUSH1 0x4 ADD DUP1 DUP1 PUSH1 0x20 ADD DUP3 DUP2 SUB DUP3 MSTORE PUSH1 0x18 DUP2 MSTORE PUSH1 0x20 ADD DUP1 PUSH32 0x494E434F52524543545F4445504F5349545F414D4F554E540000000000000000 DUP2 MSTORE POP PUSH1 0x20 ADD SWAP2 POP POP PUSH1 0x40 MLOAD DUP1 SWAP2 SUB SWAP1 REVERT JUMPDEST PUSH2 0x2D20 JUMP JUMPDEST PUSH1 0x40 MLOAD PUSH32 0x8C379A000000000000000000000000000000000000000000000000000000000 DUP2 MSTORE PUSH1 0x4 ADD DUP1 DUP1 PUSH1 0x20 ADD DUP3 DUP2 SUB DUP3 MSTORE PUSH1 0x16 DUP2 MSTORE PUSH1 0x20 ADD DUP1 PUSH32 0x554E535550504F525445445F544F4B454E5F5459504500000000000000000000 DUP2 MSTORE POP PUSH1 0x20 ADD SWAP2 POP POP PUSH1 0x40 MLOAD DUP1 SWAP2 SUB SWAP1 REVERT JUMPDEST JUMPDEST POP POP POP JUMP JUMPDEST PUSH1 0x0 PUSH1 0x60 PUSH2 0x2D32 PUSH2 0x330F JUMP JUMPDEST SWAP1 POP PUSH1 0x0 DUP1 DUP3 PUSH1 0x40 MLOAD DUP1 DUP3 DUP1 MLOAD SWAP1 PUSH1 0x20 ADD SWAP1 DUP1 DUP4 DUP4 JUMPDEST PUSH1 0x20 DUP4 LT PUSH2 0x2D6B JUMPI DUP1 MLOAD DUP3 MSTORE PUSH1 0x20 DUP3 ADD SWAP2 POP PUSH1 0x20 DUP2 ADD SWAP1 POP PUSH1 0x20 DUP4 SUB SWAP3 POP PUSH2 0x2D48 JUMP JUMPDEST PUSH1 0x1 DUP4 PUSH1 0x20 SUB PUSH2 0x100 EXP SUB DUP1 NOT DUP3 MLOAD AND DUP2 DUP5 MLOAD AND DUP1 DUP3 OR DUP6 MSTORE POP POP POP POP POP POP SWAP1 POP ADD SWAP2 POP POP SWAP1 DUP2 MSTORE PUSH1 0x20 ADD PUSH1 0x40 MLOAD DUP1 SWAP2 SUB SWAP1 KECCAK256 SWAP1 POP DUP1 PUSH1 0x1 ADD PUSH1 0x14 SWAP1 SLOAD SWAP1 PUSH2 0x100 EXP SWAP1 DIV PUSH1 0xFF AND PUSH2 0x2E24 JUMPI PUSH1 0x40 MLOAD PUSH32 0x8C379A000000000000000000000000000000000000000000000000000000000 DUP2 MSTORE PUSH1 0x4 ADD DUP1 DUP1 PUSH1 0x20 ADD DUP3 DUP2 SUB DUP3 MSTORE PUSH1 0xF DUP2 MSTORE PUSH1 0x20 ADD DUP1 PUSH32 0x4E4F545F494E495449414C495A45440000000000000000000000000000000000 DUP2 MSTORE POP PUSH1 0x20 ADD SWAP2 POP POP PUSH1 0x40 MLOAD DUP1 SWAP2 SUB SWAP1 REVERT JUMPDEST DUP1 SWAP3 POP POP POP SWAP1 JUMP JUMPDEST PUSH2 0x2E35 DUP2 PUSH2 0x1CA1 JUMP JUMPDEST ISZERO PUSH2 0x2EA8 JUMPI PUSH1 0x40 MLOAD PUSH32 0x8C379A000000000000000000000000000000000000000000000000000000000 DUP2 MSTORE PUSH1 0x4 ADD DUP1 DUP1 PUSH1 0x20 ADD DUP3 DUP2 SUB DUP3 MSTORE PUSH1 0x10 DUP2 MSTORE PUSH1 0x20 ADD DUP1 PUSH32 0x414C52454144595F474F5645524E4F5200000000000000000000000000000000 DUP2 MSTORE POP PUSH1 0x20 ADD SWAP2 POP POP PUSH1 0x40 MLOAD DUP1 SWAP2 SUB SWAP1 REVERT JUMPDEST PUSH1 0x0 PUSH2 0x2EB2 PUSH2 0x2D26 JUMP JUMPDEST SWAP1 POP PUSH1 0x1 DUP2 PUSH1 0x0 ADD PUSH1 0x0 DUP5 PUSH20 0xFFFFFFFFFFFFFFFFFFFFFFFFFFFFFFFFFFFFFFFF AND PUSH20 0xFFFFFFFFFFFFFFFFFFFFFFFFFFFFFFFFFFFFFFFF AND DUP2 MSTORE PUSH1 0x20 ADD SWAP1 DUP2 MSTORE PUSH1 0x20 ADD PUSH1 0x0 KECCAK256 PUSH1 0x0 PUSH2 0x100 EXP DUP2 SLOAD DUP2 PUSH1 0xFF MUL NOT AND SWAP1 DUP4 ISZERO ISZERO MUL OR SWAP1 SSTORE POP POP POP JUMP JUMPDEST PUSH1 0x0 PUSH32 0xF47261B06EEDBFCE68AFD46D0F3C27C60B03FAAD319EAF33103611CF8F6456AD PUSH28 0xFFFFFFFFFFFFFFFFFFFFFFFFFFFFFFFFFFFFFFFFFFFFFFFFFFFFFFFF NOT AND PUSH2 0x2F65 PUSH2 0x2F60 DUP5 PUSH2 0x157F JUMP JUMPDEST PUSH2 0x286C JUMP JUMPDEST PUSH28 0xFFFFFFFFFFFFFFFFFFFFFFFFFFFFFFFFFFFFFFFFFFFFFFFFFFFFFFFF NOT AND EQ SWAP1 POP SWAP2 SWAP1 POP JUMP JUMPDEST PUSH1 0x0 PUSH2 0x2F9F PUSH2 0x2F9A DUP4 PUSH2 0x157F JUMP JUMPDEST PUSH2 0x332F JUMP JUMPDEST SWAP1 POP SWAP2 SWAP1 POP JUMP JUMPDEST PUSH2 0x2FAF DUP3 PUSH2 0x334B JUMP JUMPDEST PUSH2 0x3021 JUMPI PUSH1 0x40 MLOAD PUSH32 0x8C379A000000000000000000000000000000000000000000000000000000000 DUP2 MSTORE PUSH1 0x4 ADD DUP1 DUP1 PUSH1 0x20 ADD DUP3 DUP2 SUB DUP3 MSTORE PUSH1 0x11 DUP2 MSTORE PUSH1 0x20 ADD DUP1 PUSH32 0x4241445F544F4B454E5F41444452455353000000000000000000000000000000 DUP2 MSTORE POP PUSH1 0x20 ADD SWAP2 POP POP PUSH1 0x40 MLOAD DUP1 SWAP2 SUB SWAP1 REVERT JUMPDEST PUSH1 0x0 PUSH1 0x60 DUP4 PUSH20 0xFFFFFFFFFFFFFFFFFFFFFFFFFFFFFFFFFFFFFFFF AND DUP4 PUSH1 0x40 MLOAD DUP1 DUP3 DUP1 MLOAD SWAP1 PUSH1 0x20 ADD SWAP1 DUP1 DUP4 DUP4 JUMPDEST PUSH1 0x20 DUP4 LT PUSH2 0x3070 JUMPI DUP1 MLOAD DUP3 MSTORE PUSH1 0x20 DUP3 ADD SWAP2 POP PUSH1 0x20 DUP2 ADD SWAP1 POP PUSH1 0x20 DUP4 SUB SWAP3 POP PUSH2 0x304D JUMP JUMPDEST PUSH1 0x1 DUP4 PUSH1 0x20 SUB PUSH2 0x100 EXP SUB DUP1 NOT DUP3 MLOAD AND DUP2 DUP5 MLOAD AND DUP1 DUP3 OR DUP6 MSTORE POP POP POP POP POP POP SWAP1 POP ADD SWAP2 POP POP PUSH1 0x0 PUSH1 0x40 MLOAD DUP1 DUP4 SUB DUP2 PUSH1 0x0 DUP7 GAS CALL SWAP2 POP POP RETURNDATASIZE DUP1 PUSH1 0x0 DUP2 EQ PUSH2 0x30D2 JUMPI PUSH1 0x40 MLOAD SWAP2 POP PUSH1 0x1F NOT PUSH1 0x3F RETURNDATASIZE ADD AND DUP3 ADD PUSH1 0x40 MSTORE RETURNDATASIZE DUP3 MSTORE RETURNDATASIZE PUSH1 0x0 PUSH1 0x20 DUP5 ADD RETURNDATACOPY PUSH2 0x30D7 JUMP JUMPDEST PUSH1 0x60 SWAP2 POP JUMPDEST POP SWAP2 POP SWAP2 POP DUP2 DUP2 SWAP1 PUSH2 0x3184 JUMPI PUSH1 0x40 MLOAD PUSH32 0x8C379A000000000000000000000000000000000000000000000000000000000 DUP2 MSTORE PUSH1 0x4 ADD DUP1 DUP1 PUSH1 0x20 ADD DUP3 DUP2 SUB DUP3 MSTORE DUP4 DUP2 DUP2 MLOAD DUP2 MSTORE PUSH1 0x20 ADD SWAP2 POP DUP1 MLOAD SWAP1 PUSH1 0x20 ADD SWAP1 DUP1 DUP4 DUP4 PUSH1 0x0 JUMPDEST DUP4 DUP2 LT ISZERO PUSH2 0x3149 JUMPI DUP1 DUP3 ADD MLOAD DUP2 DUP5 ADD MSTORE PUSH1 0x20 DUP2 ADD SWAP1 POP PUSH2 0x312E JUMP JUMPDEST POP POP POP POP SWAP1 POP SWAP1 DUP2 ADD SWAP1 PUSH1 0x1F AND DUP1 ISZERO PUSH2 0x3176 JUMPI DUP1 DUP3 SUB DUP1 MLOAD PUSH1 0x1 DUP4 PUSH1 0x20 SUB PUSH2 0x100 EXP SUB NOT AND DUP2 MSTORE PUSH1 0x20 ADD SWAP2 POP JUMPDEST POP SWAP3 POP POP POP PUSH1 0x40 MLOAD DUP1 SWAP2 SUB SWAP1 REVERT JUMPDEST POP PUSH1 0x0 DUP2 MLOAD GT ISZERO PUSH2 0x3228 JUMPI DUP1 DUP1 PUSH1 0x20 ADD SWAP1 MLOAD PUSH1 0x20 DUP2 LT ISZERO PUSH2 0x31A4 JUMPI PUSH1 0x0 DUP1 REVERT JUMPDEST DUP2 ADD SWAP1 DUP1 DUP1 MLOAD SWAP1 PUSH1 0x20 ADD SWAP1 SWAP3 SWAP2 SWAP1 POP POP POP PUSH2 0x3227 JUMPI PUSH1 0x40 MLOAD PUSH32 0x8C379A000000000000000000000000000000000000000000000000000000000 DUP2 MSTORE PUSH1 0x4 ADD DUP1 DUP1 PUSH1 0x20 ADD DUP3 DUP2 SUB DUP3 MSTORE PUSH1 0x16 DUP2 MSTORE PUSH1 0x20 ADD DUP1 PUSH32 0x544F4B454E5F4F5045524154494F4E5F4641494C454400000000000000000000 DUP2 MSTORE POP PUSH1 0x20 ADD SWAP2 POP POP PUSH1 0x40 MLOAD DUP1 SWAP2 SUB SWAP1 REVERT JUMPDEST JUMPDEST POP POP POP POP JUMP JUMPDEST PUSH1 0x0 DUP3 PUSH20 0xFFFFFFFFFFFFFFFFFFFFFFFFFFFFFFFFFFFFFFFF AND DUP3 PUSH1 0x40 MLOAD DUP1 PUSH1 0x0 ADD SWAP1 POP PUSH1 0x0 PUSH1 0x40 MLOAD DUP1 DUP4 SUB DUP2 DUP6 DUP8 GAS CALL SWAP3 POP POP POP RETURNDATASIZE DUP1 PUSH1 0x0 DUP2 EQ PUSH2 0x328E JUMPI PUSH1 0x40 MLOAD SWAP2 POP PUSH1 0x1F NOT PUSH1 0x3F RETURNDATASIZE ADD AND DUP3 ADD PUSH1 0x40 MSTORE RETURNDATASIZE DUP3 MSTORE RETURNDATASIZE PUSH1 0x0 PUSH1 0x20 DUP5 ADD RETURNDATACOPY PUSH2 0x3293 JUMP JUMPDEST PUSH1 0x60 SWAP2 POP JUMPDEST POP POP SWAP1 POP DUP1 PUSH2 0x330A JUMPI PUSH1 0x40 MLOAD PUSH32 0x8C379A000000000000000000000000000000000000000000000000000000000 DUP2 MSTORE PUSH1 0x4 ADD DUP1 DUP1 PUSH1 0x20 ADD DUP3 DUP2 SUB DUP3 MSTORE PUSH1 0x13 DUP2 MSTORE PUSH1 0x20 ADD DUP1 PUSH32 0x4554485F5452414E534645525F4641494C454400000000000000000000000000 DUP2 MSTORE POP PUSH1 0x20 ADD SWAP2 POP POP PUSH1 0x40 MLOAD DUP1 SWAP2 SUB SWAP1 REVERT JUMPDEST POP POP POP JUMP JUMPDEST PUSH1 0x60 PUSH1 0x40 MLOAD DUP1 PUSH1 0x60 ADD PUSH1 0x40 MSTORE DUP1 PUSH1 0x26 DUP2 MSTORE PUSH1 0x20 ADD PUSH2 0x335F PUSH1 0x26 SWAP2 CODECOPY SWAP1 POP SWAP1 JUMP JUMPDEST PUSH1 0x0 DUP1 PUSH1 0x4 PUSH1 0x20 ADD SWAP1 POP PUSH1 0x0 DUP2 DUP5 ADD MLOAD SWAP1 POP DUP1 SWAP3 POP POP POP SWAP2 SWAP1 POP JUMP JUMPDEST PUSH1 0x0 DUP1 DUP3 EXTCODESIZE SWAP1 POP PUSH1 0x0 DUP2 GT SWAP2 POP POP SWAP2 SWAP1 POP JUMP INVALID MSTORE8 PUSH21 0x61726B45782E4D61696E2E323031392E476F766572 PUSH15 0x6F7273496E666F726D6174696F6EA2 PUSH5 0x6970667358 0x22 SLT KECCAK256 EXTCODEHASH DUP6 SWAP13 MOD DUP15 0x4E SWAP13 JUMPDEST 0xD EXP 0xDF 0x5C 0xDE DUP3 0x27 0xDE 0x4D DUP6 0xC7 EXTCODESIZE 0x26 PUSH6 0xDEB67EE61823 GASLIMIT PUSH14 0xEC5764736F6C634300060C003300 "
				},
				"gasEstimates": {
					"creation": {
						"codeDepositCost": "2648400",
						"executionCost": "2869",
						"totalCost": "2651269"
					},
					"external": {
						"DEPOSIT_CANCEL_DELAY()": "317",
						"FREEZE_GRACE_PERIOD()": "252",
						"MAIN_GOVERNANCE_INFO_TAG()": "infinite",
						"MAX_FORCED_ACTIONS_REQS_PER_BLOCK()": "294",
						"MAX_VERIFIER_COUNT()": "249",
						"STARKEX_MAX_DEFAULT_VAULT_LOCK()": "250",
						"UNFREEZE_DELAY()": "294",
						"VERIFIER_REMOVAL_DELAY()": "278",
						"defaultVaultWithdrawalLock()": "1050",
						"depositERC20ToVault(uint256,uint256,uint256)": "infinite",
						"depositEthToVault(uint256,uint256)": "infinite",
						"getAssetInfo(uint256)": "infinite",
						"getQuantizedVaultBalance(address,uint256,uint256)": "1521",
						"getQuantum(uint256)": "2177",
						"getVaultBalance(address,uint256,uint256)": "3522",
						"getVaultWithdrawalLock(address,uint256,uint256)": "1456",
						"identify()": "infinite",
						"initialize(bytes)": "601",
						"initializerSize()": "295",
						"isStrictVaultBalancePolicy()": "1123",
						"isVaultLocked(address,uint256,uint256)": "1533",
						"lockVault(uint256,uint256,uint256)": "23675",
						"mainAcceptGovernance()": "infinite",
						"mainCancelNomination()": "infinite",
						"mainIsGovernor(address)": "infinite",
						"mainNominateNewGovernor(address)": "infinite",
						"mainRemoveGovernor(address)": "infinite",
						"orderRegistryAddress()": "1158",
						"setDefaultVaultWithdrawalLock(uint256)": "infinite",
						"withdrawFromVault(uint256,uint256,uint256)": "infinite"
					}
				},
				"methodIdentifiers": {
					"DEPOSIT_CANCEL_DELAY()": "77e84e0d",
					"FREEZE_GRACE_PERIOD()": "00717542",
					"MAIN_GOVERNANCE_INFO_TAG()": "c23b60ef",
					"MAX_FORCED_ACTIONS_REQS_PER_BLOCK()": "e30a5cff",
					"MAX_VERIFIER_COUNT()": "e6de6282",
					"STARKEX_MAX_DEFAULT_VAULT_LOCK()": "835a71c3",
					"UNFREEZE_DELAY()": "993f3639",
					"VERIFIER_REMOVAL_DELAY()": "b7663112",
					"defaultVaultWithdrawalLock()": "a45d7841",
					"depositERC20ToVault(uint256,uint256,uint256)": "1d133002",
					"depositEthToVault(uint256,uint256)": "a3c71fde",
					"getAssetInfo(uint256)": "f637d950",
					"getQuantizedVaultBalance(address,uint256,uint256)": "e69a9de7",
					"getQuantum(uint256)": "dd7202d8",
					"getVaultBalance(address,uint256,uint256)": "1c6bd544",
					"getVaultWithdrawalLock(address,uint256,uint256)": "9de5c4e5",
					"identify()": "eeb72866",
					"initialize(bytes)": "439fab91",
					"initializerSize()": "3cc660ad",
					"isStrictVaultBalancePolicy()": "5adf1639",
					"isVaultLocked(address,uint256,uint256)": "27c2b36d",
					"lockVault(uint256,uint256,uint256)": "e8d28a9d",
					"mainAcceptGovernance()": "28700a15",
					"mainCancelNomination()": "72eb3688",
					"mainIsGovernor(address)": "45f5cd97",
					"mainNominateNewGovernor(address)": "8c4bce1c",
					"mainRemoveGovernor(address)": "a1cc921e",
					"orderRegistryAddress()": "9c6a2837",
					"setDefaultVaultWithdrawalLock(uint256)": "d4181dea",
					"withdrawFromVault(uint256,uint256,uint256)": "bf422b2e"
				}
			},
			"userdoc": {
				"kind": "user",
				"methods": {},
				"version": 1
			}
		}
	}
}