{
	"scalable-dex/contracts/src/interactions/TokenAssetData.sol": {
		"TokenAssetData": {
			"abi": [
				{
					"inputs": [],
					"name": "DEPOSIT_CANCEL_DELAY",
					"outputs": [
						{
							"internalType": "uint256",
							"name": "",
							"type": "uint256"
						}
					],
					"stateMutability": "view",
					"type": "function"
				},
				{
					"inputs": [],
					"name": "FREEZE_GRACE_PERIOD",
					"outputs": [
						{
							"internalType": "uint256",
							"name": "",
							"type": "uint256"
						}
					],
					"stateMutability": "view",
					"type": "function"
				},
				{
					"inputs": [],
					"name": "MAX_FORCED_ACTIONS_REQS_PER_BLOCK",
					"outputs": [
						{
							"internalType": "uint256",
							"name": "",
							"type": "uint256"
						}
					],
					"stateMutability": "view",
					"type": "function"
				},
				{
					"inputs": [],
					"name": "MAX_VERIFIER_COUNT",
					"outputs": [
						{
							"internalType": "uint256",
							"name": "",
							"type": "uint256"
						}
					],
					"stateMutability": "view",
					"type": "function"
				},
				{
					"inputs": [],
					"name": "UNFREEZE_DELAY",
					"outputs": [
						{
							"internalType": "uint256",
							"name": "",
							"type": "uint256"
						}
					],
					"stateMutability": "view",
					"type": "function"
				},
				{
					"inputs": [],
					"name": "VERIFIER_REMOVAL_DELAY",
					"outputs": [
						{
							"internalType": "uint256",
							"name": "",
							"type": "uint256"
						}
					],
					"stateMutability": "view",
					"type": "function"
				},
				{
					"inputs": [
						{
							"internalType": "uint256",
							"name": "assetType",
							"type": "uint256"
						}
					],
					"name": "getAssetInfo",
					"outputs": [
						{
							"internalType": "bytes",
							"name": "assetInfo",
							"type": "bytes"
						}
					],
					"stateMutability": "view",
					"type": "function"
				}
			],
			"devdoc": {
				"kind": "dev",
				"methods": {},
				"version": 1
			},
			"evm": {
				"assembly": "    /* \"scalable-dex/contracts/src/interactions/TokenAssetData.sol\":225:6011  contract TokenAssetData is MainStorage, LibConstants, MTokenAssetData {... */\n  mstore(0x40, 0x80)\n  callvalue\n  dup1\n  iszero\n  tag_1\n  jumpi\n  0x00\n  dup1\n  revert\ntag_1:\n  pop\n  dataSize(sub_0)\n  dup1\n  dataOffset(sub_0)\n  0x00\n  codecopy\n  0x00\n  return\nstop\n\nsub_0: assembly {\n        /* \"scalable-dex/contracts/src/interactions/TokenAssetData.sol\":225:6011  contract TokenAssetData is MainStorage, LibConstants, MTokenAssetData {... */\n      mstore(0x40, 0x80)\n      callvalue\n      dup1\n      iszero\n      tag_1\n      jumpi\n      0x00\n      dup1\n      revert\n    tag_1:\n      pop\n      jumpi(tag_2, lt(calldatasize, 0x04))\n      shr(0xe0, calldataload(0x00))\n      dup1\n      0xb7663112\n      gt\n      tag_10\n      jumpi\n      dup1\n      0xb7663112\n      eq\n      tag_6\n      jumpi\n      dup1\n      0xe30a5cff\n      eq\n      tag_7\n      jumpi\n      dup1\n      0xe6de6282\n      eq\n      tag_8\n      jumpi\n      dup1\n      0xf637d950\n      eq\n      tag_9\n      jumpi\n      jump(tag_2)\n    tag_10:\n      dup1\n      0x717542\n      eq\n      tag_3\n      jumpi\n      dup1\n      0x77e84e0d\n      eq\n      tag_4\n      jumpi\n      dup1\n      0x993f3639\n      eq\n      tag_5\n      jumpi\n    tag_2:\n      0x00\n      dup1\n      revert\n        /* \"scalable-dex/contracts/src/libraries/LibConstants.sol\":650:702  uint256 public constant FREEZE_GRACE_PERIOD = 7 days */\n    tag_3:\n      tag_11\n      tag_12\n      jump\t// in\n    tag_11:\n      mload(0x40)\n      dup1\n      dup3\n      dup2\n      mstore\n      0x20\n      add\n      swap2\n      pop\n      pop\n      mload(0x40)\n      dup1\n      swap2\n      sub\n      swap1\n      return\n        /* \"scalable-dex/contracts/src/libraries/LibConstants.sol\":463:516  uint256 public constant DEPOSIT_CANCEL_DELAY = 2 days */\n    tag_4:\n      tag_13\n      tag_14\n      jump\t// in\n    tag_13:\n      mload(0x40)\n      dup1\n      dup3\n      dup2\n      mstore\n      0x20\n      add\n      swap2\n      pop\n      pop\n      mload(0x40)\n      dup1\n      swap2\n      sub\n      swap1\n      return\n        /* \"scalable-dex/contracts/src/libraries/LibConstants.sol\":877:926  uint256 public constant UNFREEZE_DELAY = 365 days */\n    tag_5:\n      tag_15\n      tag_16\n      jump\t// in\n    tag_15:\n      mload(0x40)\n      dup1\n      dup3\n      dup2\n      mstore\n      0x20\n      add\n      swap2\n      pop\n      pop\n      mload(0x40)\n      dup1\n      swap2\n      sub\n      swap1\n      return\n        /* \"scalable-dex/contracts/src/libraries/LibConstants.sol\":1128:1208  uint256 public constant VERIFIER_REMOVAL_DELAY = FREEZE_GRACE_PERIOD + (21 days) */\n    tag_6:\n      tag_17\n      tag_18\n      jump\t// in\n    tag_17:\n      mload(0x40)\n      dup1\n      dup3\n      dup2\n      mstore\n      0x20\n      add\n      swap2\n      pop\n      pop\n      mload(0x40)\n      dup1\n      swap2\n      sub\n      swap1\n      return\n        /* \"scalable-dex/contracts/src/libraries/LibConstants.sol\":1696:1758  uint256 public constant MAX_FORCED_ACTIONS_REQS_PER_BLOCK = 10 */\n    tag_7:\n      tag_19\n      tag_20\n      jump\t// in\n    tag_19:\n      mload(0x40)\n      dup1\n      dup3\n      dup2\n      mstore\n      0x20\n      add\n      swap2\n      pop\n      pop\n      mload(0x40)\n      dup1\n      swap2\n      sub\n      swap1\n      return\n        /* \"scalable-dex/contracts/src/libraries/LibConstants.sol\":988:1044  uint256 public constant MAX_VERIFIER_COUNT = uint256(64) */\n    tag_8:\n      tag_21\n      tag_22\n      jump\t// in\n    tag_21:\n      mload(0x40)\n      dup1\n      dup3\n      dup2\n      mstore\n      0x20\n      add\n      swap2\n      pop\n      pop\n      mload(0x40)\n      dup1\n      swap2\n      sub\n      swap1\n      return\n        /* \"scalable-dex/contracts/src/interactions/TokenAssetData.sol\":1780:2106  function getAssetInfo(uint256 assetType) public view override returns (bytes memory assetInfo) {... */\n    tag_9:\n      tag_23\n      0x04\n      dup1\n      calldatasize\n      sub\n      0x20\n      dup2\n      lt\n      iszero\n      tag_24\n      jumpi\n      0x00\n      dup1\n      revert\n    tag_24:\n      dup2\n      add\n      swap1\n      dup1\n      dup1\n      calldataload\n      swap1\n      0x20\n      add\n      swap1\n      swap3\n      swap2\n      swap1\n      pop\n      pop\n      pop\n      tag_25\n      jump\t// in\n    tag_23:\n      mload(0x40)\n      dup1\n      dup1\n      0x20\n      add\n      dup3\n      dup2\n      sub\n      dup3\n      mstore\n      dup4\n      dup2\n      dup2\n      mload\n      dup2\n      mstore\n      0x20\n      add\n      swap2\n      pop\n      dup1\n      mload\n      swap1\n      0x20\n      add\n      swap1\n      dup1\n      dup4\n      dup4\n      0x00\n    tag_26:\n      dup4\n      dup2\n      lt\n      iszero\n      tag_28\n      jumpi\n      dup1\n      dup3\n      add\n      mload\n      dup2\n      dup5\n      add\n      mstore\n      0x20\n      dup2\n      add\n      swap1\n      pop\n      jump(tag_26)\n    tag_28:\n      pop\n      pop\n      pop\n      pop\n      swap1\n      pop\n      swap1\n      dup2\n      add\n      swap1\n      0x1f\n      and\n      dup1\n      iszero\n      tag_29\n      jumpi\n      dup1\n      dup3\n      sub\n      dup1\n      mload\n      0x01\n      dup4\n      0x20\n      sub\n      0x0100\n      exp\n      sub\n      not\n      and\n      dup2\n      mstore\n      0x20\n      add\n      swap2\n      pop\n    tag_29:\n      pop\n      swap3\n      pop\n      pop\n      pop\n      mload(0x40)\n      dup1\n      swap2\n      sub\n      swap1\n      return\n        /* \"scalable-dex/contracts/src/libraries/LibConstants.sol\":650:702  uint256 public constant FREEZE_GRACE_PERIOD = 7 days */\n    tag_12:\n        /* \"scalable-dex/contracts/src/libraries/LibConstants.sol\":696:702  7 days */\n      0x093a80\n        /* \"scalable-dex/contracts/src/libraries/LibConstants.sol\":650:702  uint256 public constant FREEZE_GRACE_PERIOD = 7 days */\n      dup2\n      jump\t// out\n        /* \"scalable-dex/contracts/src/libraries/LibConstants.sol\":463:516  uint256 public constant DEPOSIT_CANCEL_DELAY = 2 days */\n    tag_14:\n        /* \"scalable-dex/contracts/src/libraries/LibConstants.sol\":510:516  2 days */\n      0x02a300\n        /* \"scalable-dex/contracts/src/libraries/LibConstants.sol\":463:516  uint256 public constant DEPOSIT_CANCEL_DELAY = 2 days */\n      dup2\n      jump\t// out\n        /* \"scalable-dex/contracts/src/libraries/LibConstants.sol\":877:926  uint256 public constant UNFREEZE_DELAY = 365 days */\n    tag_16:\n        /* \"scalable-dex/contracts/src/libraries/LibConstants.sol\":918:926  365 days */\n      0x01e13380\n        /* \"scalable-dex/contracts/src/libraries/LibConstants.sol\":877:926  uint256 public constant UNFREEZE_DELAY = 365 days */\n      dup2\n      jump\t// out\n        /* \"scalable-dex/contracts/src/libraries/LibConstants.sol\":1128:1208  uint256 public constant VERIFIER_REMOVAL_DELAY = FREEZE_GRACE_PERIOD + (21 days) */\n    tag_18:\n        /* \"scalable-dex/contracts/src/libraries/LibConstants.sol\":1200:1207  21 days */\n      0x1baf80\n        /* \"scalable-dex/contracts/src/libraries/LibConstants.sol\":696:702  7 days */\n      0x093a80\n        /* \"scalable-dex/contracts/src/libraries/LibConstants.sol\":1177:1208  FREEZE_GRACE_PERIOD + (21 days) */\n      add\n        /* \"scalable-dex/contracts/src/libraries/LibConstants.sol\":1128:1208  uint256 public constant VERIFIER_REMOVAL_DELAY = FREEZE_GRACE_PERIOD + (21 days) */\n      dup2\n      jump\t// out\n        /* \"scalable-dex/contracts/src/libraries/LibConstants.sol\":1696:1758  uint256 public constant MAX_FORCED_ACTIONS_REQS_PER_BLOCK = 10 */\n    tag_20:\n        /* \"scalable-dex/contracts/src/libraries/LibConstants.sol\":1756:1758  10 */\n      0x0a\n        /* \"scalable-dex/contracts/src/libraries/LibConstants.sol\":1696:1758  uint256 public constant MAX_FORCED_ACTIONS_REQS_PER_BLOCK = 10 */\n      dup2\n      jump\t// out\n        /* \"scalable-dex/contracts/src/libraries/LibConstants.sol\":988:1044  uint256 public constant MAX_VERIFIER_COUNT = uint256(64) */\n    tag_22:\n        /* \"scalable-dex/contracts/src/libraries/LibConstants.sol\":1041:1043  64 */\n      0x40\n        /* \"scalable-dex/contracts/src/libraries/LibConstants.sol\":988:1044  uint256 public constant MAX_VERIFIER_COUNT = uint256(64) */\n      dup2\n      jump\t// out\n        /* \"scalable-dex/contracts/src/interactions/TokenAssetData.sol\":1780:2106  function getAssetInfo(uint256 assetType) public view override returns (bytes memory assetInfo) {... */\n    tag_25:\n        /* \"scalable-dex/contracts/src/interactions/TokenAssetData.sol\":1851:1873  bytes memory assetInfo */\n      0x60\n        /* \"scalable-dex/contracts/src/interactions/TokenAssetData.sol\":1951:1970  registeredAssetType */\n      0x15\n        /* \"scalable-dex/contracts/src/interactions/TokenAssetData.sol\":1951:1981  registeredAssetType[assetType] */\n      0x00\n        /* \"scalable-dex/contracts/src/interactions/TokenAssetData.sol\":1971:1980  assetType */\n      dup4\n        /* \"scalable-dex/contracts/src/interactions/TokenAssetData.sol\":1951:1981  registeredAssetType[assetType] */\n      dup2\n      mstore\n      0x20\n      add\n      swap1\n      dup2\n      mstore\n      0x20\n      add\n      0x00\n      keccak256\n      0x00\n      swap1\n      sload\n      swap1\n      0x0100\n      exp\n      swap1\n      div\n      0xff\n      and\n        /* \"scalable-dex/contracts/src/interactions/TokenAssetData.sol\":1943:2011  require(registeredAssetType[assetType], \"ASSET_TYPE_NOT_REGISTERED\") */\n      tag_31\n      jumpi\n      mload(0x40)\n      0x08c379a000000000000000000000000000000000000000000000000000000000\n      dup2\n      mstore\n      0x04\n      add\n      dup1\n      dup1\n      0x20\n      add\n      dup3\n      dup2\n      sub\n      dup3\n      mstore\n      0x19\n      dup2\n      mstore\n      0x20\n      add\n      dup1\n      0x41535345545f545950455f4e4f545f5245474953544552454400000000000000\n      dup2\n      mstore\n      pop\n      0x20\n      add\n      swap2\n      pop\n      pop\n      mload(0x40)\n      dup1\n      swap2\n      sub\n      swap1\n      revert\n    tag_31:\n        /* \"scalable-dex/contracts/src/interactions/TokenAssetData.sol\":2068:2088  assetTypeToAssetInfo */\n      0x14\n        /* \"scalable-dex/contracts/src/interactions/TokenAssetData.sol\":2068:2099  assetTypeToAssetInfo[assetType] */\n      0x00\n        /* \"scalable-dex/contracts/src/interactions/TokenAssetData.sol\":2089:2098  assetType */\n      dup4\n        /* \"scalable-dex/contracts/src/interactions/TokenAssetData.sol\":2068:2099  assetTypeToAssetInfo[assetType] */\n      dup2\n      mstore\n      0x20\n      add\n      swap1\n      dup2\n      mstore\n      0x20\n      add\n      0x00\n      keccak256\n        /* \"scalable-dex/contracts/src/interactions/TokenAssetData.sol\":2056:2099  assetInfo = assetTypeToAssetInfo[assetType] */\n      dup1\n      sload\n      0x01\n      dup2\n      0x01\n      and\n      iszero\n      0x0100\n      mul\n      sub\n      and\n      0x02\n      swap1\n      div\n      dup1\n      0x1f\n      add\n      0x20\n      dup1\n      swap2\n      div\n      mul\n      0x20\n      add\n      mload(0x40)\n      swap1\n      dup2\n      add\n      0x40\n      mstore\n      dup1\n      swap3\n      swap2\n      swap1\n      dup2\n      dup2\n      mstore\n      0x20\n      add\n      dup3\n      dup1\n      sload\n      0x01\n      dup2\n      0x01\n      and\n      iszero\n      0x0100\n      mul\n      sub\n      and\n      0x02\n      swap1\n      div\n      dup1\n      iszero\n      tag_32\n      jumpi\n      dup1\n      0x1f\n      lt\n      tag_33\n      jumpi\n      0x0100\n      dup1\n      dup4\n      sload\n      div\n      mul\n      dup4\n      mstore\n      swap2\n      0x20\n      add\n      swap2\n      jump(tag_32)\n    tag_33:\n      dup3\n      add\n      swap2\n      swap1\n      0x00\n      mstore\n      keccak256(0x00, 0x20)\n      swap1\n    tag_34:\n      dup2\n      sload\n      dup2\n      mstore\n      swap1\n      0x01\n      add\n      swap1\n      0x20\n      add\n      dup1\n      dup4\n      gt\n      tag_34\n      jumpi\n      dup3\n      swap1\n      sub\n      0x1f\n      and\n      dup3\n      add\n      swap2\n    tag_32:\n      pop\n      pop\n      pop\n      pop\n      pop\n      swap1\n      pop\n        /* \"scalable-dex/contracts/src/interactions/TokenAssetData.sol\":1780:2106  function getAssetInfo(uint256 assetType) public view override returns (bytes memory assetInfo) {... */\n      swap2\n      swap1\n      pop\n      jump\t// out\n\n    auxdata: 0xa2646970667358221220325e4616eecc2f020518ecff5174195319717e3f760e9187018e21a3d1424b4764736f6c634300060c0033\n}\n",
				"bytecode": {
					"linkReferences": {},
					"object": "608060405234801561001057600080fd5b50610386806100206000396000f3fe608060405234801561001057600080fd5b506004361061007c5760003560e01c8063b76631121161005b578063b7663112146100db578063e30a5cff146100f9578063e6de628214610117578063f637d950146101355761007c565b80627175421461008157806377e84e0d1461009f578063993f3639146100bd575b600080fd5b6100896101dc565b6040518082815260200191505060405180910390f35b6100a76101e3565b6040518082815260200191505060405180910390f35b6100c56101ea565b6040518082815260200191505060405180910390f35b6100e36101f2565b6040518082815260200191505060405180910390f35b6101016101fe565b6040518082815260200191505060405180910390f35b61011f610203565b6040518082815260200191505060405180910390f35b6101616004803603602081101561014b57600080fd5b8101908080359060200190929190505050610208565b6040518080602001828103825283818151815260200191508051906020019080838360005b838110156101a1578082015181840152602081019050610186565b50505050905090810190601f1680156101ce5780820380516001836020036101000a031916815260200191505b509250505060405180910390f35b62093a8081565b6202a30081565b6301e1338081565b621baf8062093a800181565b600a81565b604081565b60606015600083815260200190815260200160002060009054906101000a900460ff1661029d576040517f08c379a00000000000000000000000000000000000000000000000000000000081526004018080602001828103825260198152602001807f41535345545f545950455f4e4f545f524547495354455245440000000000000081525060200191505060405180910390fd5b601460008381526020019081526020016000208054600181600116156101000203166002900480601f0160208091040260200160405190810160405280929190818152602001828054600181600116156101000203166002900480156103445780601f1061031957610100808354040283529160200191610344565b820191906000526020600020905b81548152906001019060200180831161032757829003601f168201915b5050505050905091905056fea2646970667358221220325e4616eecc2f020518ecff5174195319717e3f760e9187018e21a3d1424b4764736f6c634300060c0033",
					"opcodes": "PUSH1 0x80 PUSH1 0x40 MSTORE CALLVALUE DUP1 ISZERO PUSH2 0x10 JUMPI PUSH1 0x0 DUP1 REVERT JUMPDEST POP PUSH2 0x386 DUP1 PUSH2 0x20 PUSH1 0x0 CODECOPY PUSH1 0x0 RETURN INVALID PUSH1 0x80 PUSH1 0x40 MSTORE CALLVALUE DUP1 ISZERO PUSH2 0x10 JUMPI PUSH1 0x0 DUP1 REVERT JUMPDEST POP PUSH1 0x4 CALLDATASIZE LT PUSH2 0x7C JUMPI PUSH1 0x0 CALLDATALOAD PUSH1 0xE0 SHR DUP1 PUSH4 0xB7663112 GT PUSH2 0x5B JUMPI DUP1 PUSH4 0xB7663112 EQ PUSH2 0xDB JUMPI DUP1 PUSH4 0xE30A5CFF EQ PUSH2 0xF9 JUMPI DUP1 PUSH4 0xE6DE6282 EQ PUSH2 0x117 JUMPI DUP1 PUSH4 0xF637D950 EQ PUSH2 0x135 JUMPI PUSH2 0x7C JUMP JUMPDEST DUP1 PUSH3 0x717542 EQ PUSH2 0x81 JUMPI DUP1 PUSH4 0x77E84E0D EQ PUSH2 0x9F JUMPI DUP1 PUSH4 0x993F3639 EQ PUSH2 0xBD JUMPI JUMPDEST PUSH1 0x0 DUP1 REVERT JUMPDEST PUSH2 0x89 PUSH2 0x1DC JUMP JUMPDEST PUSH1 0x40 MLOAD DUP1 DUP3 DUP2 MSTORE PUSH1 0x20 ADD SWAP2 POP POP PUSH1 0x40 MLOAD DUP1 SWAP2 SUB SWAP1 RETURN JUMPDEST PUSH2 0xA7 PUSH2 0x1E3 JUMP JUMPDEST PUSH1 0x40 MLOAD DUP1 DUP3 DUP2 MSTORE PUSH1 0x20 ADD SWAP2 POP POP PUSH1 0x40 MLOAD DUP1 SWAP2 SUB SWAP1 RETURN JUMPDEST PUSH2 0xC5 PUSH2 0x1EA JUMP JUMPDEST PUSH1 0x40 MLOAD DUP1 DUP3 DUP2 MSTORE PUSH1 0x20 ADD SWAP2 POP POP PUSH1 0x40 MLOAD DUP1 SWAP2 SUB SWAP1 RETURN JUMPDEST PUSH2 0xE3 PUSH2 0x1F2 JUMP JUMPDEST PUSH1 0x40 MLOAD DUP1 DUP3 DUP2 MSTORE PUSH1 0x20 ADD SWAP2 POP POP PUSH1 0x40 MLOAD DUP1 SWAP2 SUB SWAP1 RETURN JUMPDEST PUSH2 0x101 PUSH2 0x1FE JUMP JUMPDEST PUSH1 0x40 MLOAD DUP1 DUP3 DUP2 MSTORE PUSH1 0x20 ADD SWAP2 POP POP PUSH1 0x40 MLOAD DUP1 SWAP2 SUB SWAP1 RETURN JUMPDEST PUSH2 0x11F PUSH2 0x203 JUMP JUMPDEST PUSH1 0x40 MLOAD DUP1 DUP3 DUP2 MSTORE PUSH1 0x20 ADD SWAP2 POP POP PUSH1 0x40 MLOAD DUP1 SWAP2 SUB SWAP1 RETURN JUMPDEST PUSH2 0x161 PUSH1 0x4 DUP1 CALLDATASIZE SUB PUSH1 0x20 DUP2 LT ISZERO PUSH2 0x14B JUMPI PUSH1 0x0 DUP1 REVERT JUMPDEST DUP2 ADD SWAP1 DUP1 DUP1 CALLDATALOAD SWAP1 PUSH1 0x20 ADD SWAP1 SWAP3 SWAP2 SWAP1 POP POP POP PUSH2 0x208 JUMP JUMPDEST PUSH1 0x40 MLOAD DUP1 DUP1 PUSH1 0x20 ADD DUP3 DUP2 SUB DUP3 MSTORE DUP4 DUP2 DUP2 MLOAD DUP2 MSTORE PUSH1 0x20 ADD SWAP2 POP DUP1 MLOAD SWAP1 PUSH1 0x20 ADD SWAP1 DUP1 DUP4 DUP4 PUSH1 0x0 JUMPDEST DUP4 DUP2 LT ISZERO PUSH2 0x1A1 JUMPI DUP1 DUP3 ADD MLOAD DUP2 DUP5 ADD MSTORE PUSH1 0x20 DUP2 ADD SWAP1 POP PUSH2 0x186 JUMP JUMPDEST POP POP POP POP SWAP1 POP SWAP1 DUP2 ADD SWAP1 PUSH1 0x1F AND DUP1 ISZERO PUSH2 0x1CE JUMPI DUP1 DUP3 SUB DUP1 MLOAD PUSH1 0x1 DUP4 PUSH1 0x20 SUB PUSH2 0x100 EXP SUB NOT AND DUP2 MSTORE PUSH1 0x20 ADD SWAP2 POP JUMPDEST POP SWAP3 POP POP POP PUSH1 0x40 MLOAD DUP1 SWAP2 SUB SWAP1 RETURN JUMPDEST PUSH3 0x93A80 DUP2 JUMP JUMPDEST PUSH3 0x2A300 DUP2 JUMP JUMPDEST PUSH4 0x1E13380 DUP2 JUMP JUMPDEST PUSH3 0x1BAF80 PUSH3 0x93A80 ADD DUP2 JUMP JUMPDEST PUSH1 0xA DUP2 JUMP JUMPDEST PUSH1 0x40 DUP2 JUMP JUMPDEST PUSH1 0x60 PUSH1 0x15 PUSH1 0x0 DUP4 DUP2 MSTORE PUSH1 0x20 ADD SWAP1 DUP2 MSTORE PUSH1 0x20 ADD PUSH1 0x0 KECCAK256 PUSH1 0x0 SWAP1 SLOAD SWAP1 PUSH2 0x100 EXP SWAP1 DIV PUSH1 0xFF AND PUSH2 0x29D JUMPI PUSH1 0x40 MLOAD PUSH32 0x8C379A000000000000000000000000000000000000000000000000000000000 DUP2 MSTORE PUSH1 0x4 ADD DUP1 DUP1 PUSH1 0x20 ADD DUP3 DUP2 SUB DUP3 MSTORE PUSH1 0x19 DUP2 MSTORE PUSH1 0x20 ADD DUP1 PUSH32 0x41535345545F545950455F4E4F545F5245474953544552454400000000000000 DUP2 MSTORE POP PUSH1 0x20 ADD SWAP2 POP POP PUSH1 0x40 MLOAD DUP1 SWAP2 SUB SWAP1 REVERT JUMPDEST PUSH1 0x14 PUSH1 0x0 DUP4 DUP2 MSTORE PUSH1 0x20 ADD SWAP1 DUP2 MSTORE PUSH1 0x20 ADD PUSH1 0x0 KECCAK256 DUP1 SLOAD PUSH1 0x1 DUP2 PUSH1 0x1 AND ISZERO PUSH2 0x100 MUL SUB AND PUSH1 0x2 SWAP1 DIV DUP1 PUSH1 0x1F ADD PUSH1 0x20 DUP1 SWAP2 DIV MUL PUSH1 0x20 ADD PUSH1 0x40 MLOAD SWAP1 DUP2 ADD PUSH1 0x40 MSTORE DUP1 SWAP3 SWAP2 SWAP1 DUP2 DUP2 MSTORE PUSH1 0x20 ADD DUP3 DUP1 SLOAD PUSH1 0x1 DUP2 PUSH1 0x1 AND ISZERO PUSH2 0x100 MUL SUB AND PUSH1 0x2 SWAP1 DIV DUP1 ISZERO PUSH2 0x344 JUMPI DUP1 PUSH1 0x1F LT PUSH2 0x319 JUMPI PUSH2 0x100 DUP1 DUP4 SLOAD DIV MUL DUP4 MSTORE SWAP2 PUSH1 0x20 ADD SWAP2 PUSH2 0x344 JUMP JUMPDEST DUP3 ADD SWAP2 SWAP1 PUSH1 0x0 MSTORE PUSH1 0x20 PUSH1 0x0 KECCAK256 SWAP1 JUMPDEST DUP2 SLOAD DUP2 MSTORE SWAP1 PUSH1 0x1 ADD SWAP1 PUSH1 0x20 ADD DUP1 DUP4 GT PUSH2 0x327 JUMPI DUP3 SWAP1 SUB PUSH1 0x1F AND DUP3 ADD SWAP2 JUMPDEST POP POP POP POP POP SWAP1 POP SWAP2 SWAP1 POP JUMP INVALID LOG2 PUSH5 0x6970667358 0x22 SLT KECCAK256 ORIGIN 0x5E CHAINID AND 0xEE 0xCC 0x2F MUL SDIV XOR 0xEC SELFDESTRUCT MLOAD PUSH21 0x195319717E3F760E9187018E21A3D1424B4764736F PUSH13 0x634300060C0033000000000000 "
				},
				"gasEstimates": {
					"creation": {
						"codeDepositCost": "180400",
						"executionCost": "226",
						"totalCost": "180626"
					},
					"external": {
						"DEPOSIT_CANCEL_DELAY()": "228",
						"FREEZE_GRACE_PERIOD()": "206",
						"MAX_FORCED_ACTIONS_REQS_PER_BLOCK()": "227",
						"MAX_VERIFIER_COUNT()": "249",
						"UNFREEZE_DELAY()": "250",
						"VERIFIER_REMOVAL_DELAY()": "211",
						"getAssetInfo(uint256)": "infinite"
					},
					"internal": {
						"calculateMintableAssetId(uint256,bytes memory)": "infinite",
						"calculateNftAssetId(uint256,uint256)": "infinite",
						"extractContractAddress(uint256)": "infinite",
						"extractContractAddressFromAssetInfo(bytes memory)": "infinite",
						"extractTokenSelector(bytes memory)": "infinite",
						"isERC20(uint256)": "infinite",
						"isERC721(uint256)": "infinite",
						"isEther(uint256)": "infinite",
						"isFungibleAssetType(uint256)": "infinite",
						"isMintableAssetType(uint256)": "infinite",
						"isNonFungibleAssetInfo(bytes memory)": "infinite",
						"isTokenSupported(bytes4)": "infinite",
						"verifyAssetInfo(bytes memory)": "infinite"
					}
				},
				"methodIdentifiers": {
					"DEPOSIT_CANCEL_DELAY()": "77e84e0d",
					"FREEZE_GRACE_PERIOD()": "00717542",
					"MAX_FORCED_ACTIONS_REQS_PER_BLOCK()": "e30a5cff",
					"MAX_VERIFIER_COUNT()": "e6de6282",
					"UNFREEZE_DELAY()": "993f3639",
					"VERIFIER_REMOVAL_DELAY()": "b7663112",
					"getAssetInfo(uint256)": "f637d950"
				}
			},
			"userdoc": {
				"kind": "user",
				"methods": {},
				"version": 1
			}
		}
	}
}