{
	"scalable-dex/contracts/src/interactions/TokenQuantization.sol": {
		"TokenQuantization": {
			"abi": [
				{
					"inputs": [
						{
							"internalType": "uint256",
							"name": "presumedAssetType",
							"type": "uint256"
						}
					],
					"name": "getQuantum",
					"outputs": [
						{
							"internalType": "uint256",
							"name": "quantum",
							"type": "uint256"
						}
					],
					"stateMutability": "view",
					"type": "function"
				}
			],
			"devdoc": {
				"kind": "dev",
				"methods": {},
				"version": 1
			},
			"evm": {
				"assembly": "    /* \"scalable-dex/contracts/src/interactions/TokenQuantization.sol\":154:1265  contract TokenQuantization is MainStorage, MTokenQuantization {... */\n  mstore(0x40, 0x80)\n  callvalue\n  dup1\n  iszero\n  tag_1\n  jumpi\n  0x00\n  dup1\n  revert\ntag_1:\n  pop\n  dataSize(sub_0)\n  dup1\n  dataOffset(sub_0)\n  0x00\n  codecopy\n  0x00\n  return\nstop\n\nsub_0: assembly {\n        /* \"scalable-dex/contracts/src/interactions/TokenQuantization.sol\":154:1265  contract TokenQuantization is MainStorage, MTokenQuantization {... */\n      mstore(0x40, 0x80)\n      callvalue\n      dup1\n      iszero\n      tag_1\n      jumpi\n      0x00\n      dup1\n      revert\n    tag_1:\n      pop\n      jumpi(tag_2, lt(calldatasize, 0x04))\n      shr(0xe0, calldataload(0x00))\n      dup1\n      0xdd7202d8\n      eq\n      tag_3\n      jumpi\n    tag_2:\n      0x00\n      dup1\n      revert\n        /* \"scalable-dex/contracts/src/interactions/TokenQuantization.sol\":576:934  function getQuantum(uint256 presumedAssetType) public view override returns (uint256 quantum) {... */\n    tag_3:\n      tag_4\n      0x04\n      dup1\n      calldatasize\n      sub\n      0x20\n      dup2\n      lt\n      iszero\n      tag_5\n      jumpi\n      0x00\n      dup1\n      revert\n    tag_5:\n      dup2\n      add\n      swap1\n      dup1\n      dup1\n      calldataload\n      swap1\n      0x20\n      add\n      swap1\n      swap3\n      swap2\n      swap1\n      pop\n      pop\n      pop\n      tag_6\n      jump\t// in\n    tag_4:\n      mload(0x40)\n      dup1\n      dup3\n      dup2\n      mstore\n      0x20\n      add\n      swap2\n      pop\n      pop\n      mload(0x40)\n      dup1\n      swap2\n      sub\n      swap1\n      return\n    tag_6:\n        /* \"scalable-dex/contracts/src/interactions/TokenQuantization.sol\":653:668  uint256 quantum */\n      0x00\n        /* \"scalable-dex/contracts/src/interactions/TokenQuantization.sol\":685:704  registeredAssetType */\n      0x15\n        /* \"scalable-dex/contracts/src/interactions/TokenQuantization.sol\":685:723  registeredAssetType[presumedAssetType] */\n      0x00\n        /* \"scalable-dex/contracts/src/interactions/TokenQuantization.sol\":705:722  presumedAssetType */\n      dup4\n        /* \"scalable-dex/contracts/src/interactions/TokenQuantization.sol\":685:723  registeredAssetType[presumedAssetType] */\n      dup2\n      mstore\n      0x20\n      add\n      swap1\n      dup2\n      mstore\n      0x20\n      add\n      0x00\n      keccak256\n      0x00\n      swap1\n      sload\n      swap1\n      0x0100\n      exp\n      swap1\n      div\n      0xff\n      and\n        /* \"scalable-dex/contracts/src/interactions/TokenQuantization.sol\":680:928  if (!registeredAssetType[presumedAssetType]) {... */\n      tag_8\n      jumpi\n        /* \"scalable-dex/contracts/src/interactions/TokenQuantization.sol\":800:801  1 */\n      0x01\n        /* \"scalable-dex/contracts/src/interactions/TokenQuantization.sol\":790:801  quantum = 1 */\n      swap1\n      pop\n        /* \"scalable-dex/contracts/src/interactions/TokenQuantization.sol\":680:928  if (!registeredAssetType[presumedAssetType]) {... */\n      jump(tag_9)\n    tag_8:\n        /* \"scalable-dex/contracts/src/interactions/TokenQuantization.sol\":880:898  assetTypeToQuantum */\n      0x16\n        /* \"scalable-dex/contracts/src/interactions/TokenQuantization.sol\":880:917  assetTypeToQuantum[presumedAssetType] */\n      0x00\n        /* \"scalable-dex/contracts/src/interactions/TokenQuantization.sol\":899:916  presumedAssetType */\n      dup4\n        /* \"scalable-dex/contracts/src/interactions/TokenQuantization.sol\":880:917  assetTypeToQuantum[presumedAssetType] */\n      dup2\n      mstore\n      0x20\n      add\n      swap1\n      dup2\n      mstore\n      0x20\n      add\n      0x00\n      keccak256\n      sload\n        /* \"scalable-dex/contracts/src/interactions/TokenQuantization.sol\":870:917  quantum = assetTypeToQuantum[presumedAssetType] */\n      swap1\n      pop\n        /* \"scalable-dex/contracts/src/interactions/TokenQuantization.sol\":680:928  if (!registeredAssetType[presumedAssetType]) {... */\n    tag_9:\n        /* \"scalable-dex/contracts/src/interactions/TokenQuantization.sol\":576:934  function getQuantum(uint256 presumedAssetType) public view override returns (uint256 quantum) {... */\n      swap2\n      swap1\n      pop\n      jump\t// out\n\n    auxdata: 0xa26469706673582212205e558cb37ac852742cd31330873d963570ef35dc631d42d915b808abfa6d9b6364736f6c634300060c0033\n}\n",
				"bytecode": {
					"linkReferences": {},
					"object": "608060405234801561001057600080fd5b5060ec8061001f6000396000f3fe6080604052348015600f57600080fd5b506004361060285760003560e01c8063dd7202d814602d575b600080fd5b605660048036036020811015604157600080fd5b8101908080359060200190929190505050606c565b6040518082815260200191505060405180910390f35b60006015600083815260200190815260200160002060009054906101000a900460ff16609a576001905060b1565b601660008381526020019081526020016000205490505b91905056fea26469706673582212205e558cb37ac852742cd31330873d963570ef35dc631d42d915b808abfa6d9b6364736f6c634300060c0033",
					"opcodes": "PUSH1 0x80 PUSH1 0x40 MSTORE CALLVALUE DUP1 ISZERO PUSH2 0x10 JUMPI PUSH1 0x0 DUP1 REVERT JUMPDEST POP PUSH1 0xEC DUP1 PUSH2 0x1F PUSH1 0x0 CODECOPY PUSH1 0x0 RETURN INVALID PUSH1 0x80 PUSH1 0x40 MSTORE CALLVALUE DUP1 ISZERO PUSH1 0xF JUMPI PUSH1 0x0 DUP1 REVERT JUMPDEST POP PUSH1 0x4 CALLDATASIZE LT PUSH1 0x28 JUMPI PUSH1 0x0 CALLDATALOAD PUSH1 0xE0 SHR DUP1 PUSH4 0xDD7202D8 EQ PUSH1 0x2D JUMPI JUMPDEST PUSH1 0x0 DUP1 REVERT JUMPDEST PUSH1 0x56 PUSH1 0x4 DUP1 CALLDATASIZE SUB PUSH1 0x20 DUP2 LT ISZERO PUSH1 0x41 JUMPI PUSH1 0x0 DUP1 REVERT JUMPDEST DUP2 ADD SWAP1 DUP1 DUP1 CALLDATALOAD SWAP1 PUSH1 0x20 ADD SWAP1 SWAP3 SWAP2 SWAP1 POP POP POP PUSH1 0x6C JUMP JUMPDEST PUSH1 0x40 MLOAD DUP1 DUP3 DUP2 MSTORE PUSH1 0x20 ADD SWAP2 POP POP PUSH1 0x40 MLOAD DUP1 SWAP2 SUB SWAP1 RETURN JUMPDEST PUSH1 0x0 PUSH1 0x15 PUSH1 0x0 DUP4 DUP2 MSTORE PUSH1 0x20 ADD SWAP1 DUP2 MSTORE PUSH1 0x20 ADD PUSH1 0x0 KECCAK256 PUSH1 0x0 SWAP1 SLOAD SWAP1 PUSH2 0x100 EXP SWAP1 DIV PUSH1 0xFF AND PUSH1 0x9A JUMPI PUSH1 0x1 SWAP1 POP PUSH1 0xB1 JUMP JUMPDEST PUSH1 0x16 PUSH1 0x0 DUP4 DUP2 MSTORE PUSH1 0x20 ADD SWAP1 DUP2 MSTORE PUSH1 0x20 ADD PUSH1 0x0 KECCAK256 SLOAD SWAP1 POP JUMPDEST SWAP2 SWAP1 POP JUMP INVALID LOG2 PUSH5 0x6970667358 0x22 SLT KECCAK256 0x5E SSTORE DUP13 0xB3 PUSH27 0xC852742CD31330873D963570EF35DC631D42D915B808ABFA6D9B63 PUSH5 0x736F6C6343 STOP MOD 0xC STOP CALLER "
				},
				"gasEstimates": {
					"creation": {
						"codeDepositCost": "47200",
						"executionCost": "99",
						"totalCost": "47299"
					},
					"external": {
						"getQuantum(uint256)": "2088"
					},
					"internal": {
						"fromQuantized(uint256,uint256)": "infinite",
						"toQuantized(uint256,uint256)": "infinite"
					}
				},
				"methodIdentifiers": {
					"getQuantum(uint256)": "dd7202d8"
				}
			},
			"userdoc": {
				"kind": "user",
				"methods": {},
				"version": 1
			}
		}
	}
}