{
	"scalable-dex/contracts/src/starkex/components/StarkExStorage.sol": {
		"StarkExStorage": {
			"abi": [
				{
					"inputs": [],
					"name": "defaultVaultWithdrawalLock",
					"outputs": [
						{
							"internalType": "uint256",
							"name": "",
							"type": "uint256"
						}
					],
					"stateMutability": "view",
					"type": "function"
				},
				{
					"inputs": [],
					"name": "orderRegistryAddress",
					"outputs": [
						{
							"internalType": "address",
							"name": "",
							"type": "address"
						}
					],
					"stateMutability": "view",
					"type": "function"
				}
			],
			"devdoc": {
				"kind": "dev",
				"methods": {},
				"version": 1
			},
			"evm": {
				"assembly": "    /* \"scalable-dex/contracts/src/starkex/components/StarkExStorage.sol\":333:1671  contract StarkExStorage is MainStorage {... */\n  mstore(0x40, 0x80)\n  callvalue\n  dup1\n  iszero\n  tag_1\n  jumpi\n  0x00\n  dup1\n  revert\ntag_1:\n  pop\n  dataSize(sub_0)\n  dup1\n  dataOffset(sub_0)\n  0x00\n  codecopy\n  0x00\n  return\nstop\n\nsub_0: assembly {\n        /* \"scalable-dex/contracts/src/starkex/components/StarkExStorage.sol\":333:1671  contract StarkExStorage is MainStorage {... */\n      mstore(0x40, 0x80)\n      callvalue\n      dup1\n      iszero\n      tag_1\n      jumpi\n      0x00\n      dup1\n      revert\n    tag_1:\n      pop\n      jumpi(tag_2, lt(calldatasize, 0x04))\n      shr(0xe0, calldataload(0x00))\n      dup1\n      0x9c6a2837\n      eq\n      tag_3\n      jumpi\n      dup1\n      0xa45d7841\n      eq\n      tag_4\n      jumpi\n    tag_2:\n      0x00\n      dup1\n      revert\n        /* \"scalable-dex/contracts/src/starkex/components/StarkExStorage.sol\":1285:1320  address public orderRegistryAddress */\n    tag_3:\n      tag_5\n      tag_6\n      jump\t// in\n    tag_5:\n      mload(0x40)\n      dup1\n      dup3\n      0xffffffffffffffffffffffffffffffffffffffff\n      and\n      dup2\n      mstore\n      0x20\n      add\n      swap2\n      pop\n      pop\n      mload(0x40)\n      dup1\n      swap2\n      sub\n      swap1\n      return\n        /* \"scalable-dex/contracts/src/starkex/components/StarkExStorage.sol\":1117:1158  uint256 public defaultVaultWithdrawalLock */\n    tag_4:\n      tag_7\n      tag_8\n      jump\t// in\n    tag_7:\n      mload(0x40)\n      dup1\n      dup3\n      dup2\n      mstore\n      0x20\n      add\n      swap2\n      pop\n      pop\n      mload(0x40)\n      dup1\n      swap2\n      sub\n      swap1\n      return\n        /* \"scalable-dex/contracts/src/starkex/components/StarkExStorage.sol\":1285:1320  address public orderRegistryAddress */\n    tag_6:\n      0x010000000000000004\n      0x00\n      swap1\n      sload\n      swap1\n      0x0100\n      exp\n      swap1\n      div\n      0xffffffffffffffffffffffffffffffffffffffff\n      and\n      dup2\n      jump\t// out\n        /* \"scalable-dex/contracts/src/starkex/components/StarkExStorage.sol\":1117:1158  uint256 public defaultVaultWithdrawalLock */\n    tag_8:\n      sload(0x010000000000000003)\n      dup2\n      jump\t// out\n\n    auxdata: 0xa26469706673582212203738fb2d350b33ab895ae732f420e32b3f507c96e5239de93efad35673d575da64736f6c634300060c0033\n}\n",
				"bytecode": {
					"linkReferences": {},
					"object": "608060405234801561001057600080fd5b5060f78061001f6000396000f3fe6080604052348015600f57600080fd5b506004361060325760003560e01c80639c6a2837146037578063a45d7841146069575b600080fd5b603d6085565b604051808273ffffffffffffffffffffffffffffffffffffffff16815260200191505060405180910390f35b606f60b3565b6040518082815260200191505060405180910390f35b6801000000000000000460009054906101000a900473ffffffffffffffffffffffffffffffffffffffff1681565b68010000000000000003548156fea26469706673582212203738fb2d350b33ab895ae732f420e32b3f507c96e5239de93efad35673d575da64736f6c634300060c0033",
					"opcodes": "PUSH1 0x80 PUSH1 0x40 MSTORE CALLVALUE DUP1 ISZERO PUSH2 0x10 JUMPI PUSH1 0x0 DUP1 REVERT JUMPDEST POP PUSH1 0xF7 DUP1 PUSH2 0x1F PUSH1 0x0 CODECOPY PUSH1 0x0 RETURN INVALID PUSH1 0x80 PUSH1 0x40 MSTORE CALLVALUE DUP1 ISZERO PUSH1 0xF JUMPI PUSH1 0x0 DUP1 REVERT JUMPDEST POP PUSH1 0x4 CALLDATASIZE LT PUSH1 0x32 JUMPI PUSH1 0x0 CALLDATALOAD PUSH1 0xE0 SHR DUP1 PUSH4 0x9C6A2837 EQ PUSH1 0x37 JUMPI DUP1 PUSH4 0xA45D7841 EQ PUSH1 0x69 JUMPI JUMPDEST PUSH1 0x0 DUP1 REVERT JUMPDEST PUSH1 0x3D PUSH1 0x85 JUMP JUMPDEST PUSH1 0x40 MLOAD DUP1 DUP3 PUSH20 0xFFFFFFFFFFFFFFFFFFFFFFFFFFFFFFFFFFFFFFFF AND DUP2 MSTORE PUSH1 0x20 ADD SWAP2 POP POP PUSH1 0x40 MLOAD DUP1 SWAP2 SUB SWAP1 RETURN JUMPDEST PUSH1 0x6F PUSH1 0xB3 JUMP JUMPDEST PUSH1 0x40 MLOAD DUP1 DUP3 DUP2 MSTORE PUSH1 0x20 ADD SWAP2 POP POP PUSH1 0x40 MLOAD DUP1 SWAP2 SUB SWAP1 RETURN JUMPDEST PUSH9 0x10000000000000004 PUSH1 0x0 SWAP1 SLOAD SWAP1 PUSH2 0x100 EXP SWAP1 DIV PUSH20 0xFFFFFFFFFFFFFFFFFFFFFFFFFFFFFFFFFFFFFFFF AND DUP2 JUMP JUMPDEST PUSH9 0x10000000000000003 SLOAD DUP2 JUMP INVALID LOG2 PUSH5 0x6970667358 0x22 SLT KECCAK256 CALLDATACOPY CODESIZE 0xFB 0x2D CALLDATALOAD SIGNEXTEND CALLER 0xAB DUP10 GAS 0xE7 ORIGIN DELEGATECALL KECCAK256 0xE3 0x2B EXTCODEHASH POP PUSH29 0x96E5239DE93EFAD35673D575DA64736F6C634300060C00330000000000 "
				},
				"gasEstimates": {
					"creation": {
						"codeDepositCost": "49400",
						"executionCost": "99",
						"totalCost": "49499"
					},
					"external": {
						"defaultVaultWithdrawalLock()": "1005",
						"orderRegistryAddress()": "1025"
					}
				},
				"methodIdentifiers": {
					"defaultVaultWithdrawalLock()": "a45d7841",
					"orderRegistryAddress()": "9c6a2837"
				}
			},
			"userdoc": {
				"kind": "user",
				"methods": {},
				"version": 1
			}
		}
	}
}