{
	"scalable-dex/contracts/src/components/ActionHash.sol": {
		"ActionHash": {
			"abi": [
				{
					"inputs": [],
					"name": "DEPOSIT_CANCEL_DELAY",
					"outputs": [
						{
							"internalType": "uint256",
							"name": "",
							"type": "uint256"
						}
					],
					"stateMutability": "view",
					"type": "function"
				},
				{
					"inputs": [],
					"name": "FREEZE_GRACE_PERIOD",
					"outputs": [
						{
							"internalType": "uint256",
							"name": "",
							"type": "uint256"
						}
					],
					"stateMutability": "view",
					"type": "function"
				},
				{
					"inputs": [],
					"name": "MAX_FORCED_ACTIONS_REQS_PER_BLOCK",
					"outputs": [
						{
							"internalType": "uint256",
							"name": "",
							"type": "uint256"
						}
					],
					"stateMutability": "view",
					"type": "function"
				},
				{
					"inputs": [],
					"name": "MAX_VERIFIER_COUNT",
					"outputs": [
						{
							"internalType": "uint256",
							"name": "",
							"type": "uint256"
						}
					],
					"stateMutability": "view",
					"type": "function"
				},
				{
					"inputs": [],
					"name": "UNFREEZE_DELAY",
					"outputs": [
						{
							"internalType": "uint256",
							"name": "",
							"type": "uint256"
						}
					],
					"stateMutability": "view",
					"type": "function"
				},
				{
					"inputs": [],
					"name": "VERIFIER_REMOVAL_DELAY",
					"outputs": [
						{
							"internalType": "uint256",
							"name": "",
							"type": "uint256"
						}
					],
					"stateMutability": "view",
					"type": "function"
				},
				{
					"inputs": [],
					"name": "getActionCount",
					"outputs": [
						{
							"internalType": "uint256",
							"name": "",
							"type": "uint256"
						}
					],
					"stateMutability": "view",
					"type": "function"
				},
				{
					"inputs": [
						{
							"internalType": "uint256",
							"name": "actionIndex",
							"type": "uint256"
						}
					],
					"name": "getActionHashByIndex",
					"outputs": [
						{
							"internalType": "bytes32",
							"name": "",
							"type": "bytes32"
						}
					],
					"stateMutability": "view",
					"type": "function"
				}
			],
			"devdoc": {
				"kind": "dev",
				"methods": {},
				"version": 1
			},
			"evm": {
				"assembly": "    /* \"scalable-dex/contracts/src/components/ActionHash.sol\":231:1779  contract ActionHash is MainStorage, LibConstants {... */\n  mstore(0x40, 0x80)\n  callvalue\n  dup1\n  iszero\n  tag_1\n  jumpi\n  0x00\n  dup1\n  revert\ntag_1:\n  pop\n  dataSize(sub_0)\n  dup1\n  dataOffset(sub_0)\n  0x00\n  codecopy\n  0x00\n  return\nstop\n\nsub_0: assembly {\n        /* \"scalable-dex/contracts/src/components/ActionHash.sol\":231:1779  contract ActionHash is MainStorage, LibConstants {... */\n      mstore(0x40, 0x80)\n      callvalue\n      dup1\n      iszero\n      tag_1\n      jumpi\n      0x00\n      dup1\n      revert\n    tag_1:\n      pop\n      jumpi(tag_2, lt(calldatasize, 0x04))\n      shr(0xe0, calldataload(0x00))\n      dup1\n      0x993f3639\n      gt\n      tag_11\n      jumpi\n      dup1\n      0x993f3639\n      eq\n      tag_7\n      jumpi\n      dup1\n      0xb7663112\n      eq\n      tag_8\n      jumpi\n      dup1\n      0xe30a5cff\n      eq\n      tag_9\n      jumpi\n      dup1\n      0xe6de6282\n      eq\n      tag_10\n      jumpi\n      jump(tag_2)\n    tag_11:\n      dup1\n      0x717542\n      eq\n      tag_3\n      jumpi\n      dup1\n      0x5e586cd1\n      eq\n      tag_4\n      jumpi\n      dup1\n      0x5eecd218\n      eq\n      tag_5\n      jumpi\n      dup1\n      0x77e84e0d\n      eq\n      tag_6\n      jumpi\n    tag_2:\n      0x00\n      dup1\n      revert\n        /* \"scalable-dex/contracts/src/libraries/LibConstants.sol\":650:702  uint256 public constant FREEZE_GRACE_PERIOD = 7 days */\n    tag_3:\n      tag_12\n      tag_13\n      jump\t// in\n    tag_12:\n      mload(0x40)\n      dup1\n      dup3\n      dup2\n      mstore\n      0x20\n      add\n      swap2\n      pop\n      pop\n      mload(0x40)\n      dup1\n      swap2\n      sub\n      swap1\n      return\n        /* \"scalable-dex/contracts/src/components/ActionHash.sol\":1564:1777  function getActionHashByIndex(uint256 actionIndex) external view returns (bytes32) {... */\n    tag_4:\n      tag_14\n      0x04\n      dup1\n      calldatasize\n      sub\n      0x20\n      dup2\n      lt\n      iszero\n      tag_15\n      jumpi\n      0x00\n      dup1\n      revert\n    tag_15:\n      dup2\n      add\n      swap1\n      dup1\n      dup1\n      calldataload\n      swap1\n      0x20\n      add\n      swap1\n      swap3\n      swap2\n      swap1\n      pop\n      pop\n      pop\n      tag_16\n      jump\t// in\n    tag_14:\n      mload(0x40)\n      dup1\n      dup3\n      dup2\n      mstore\n      0x20\n      add\n      swap2\n      pop\n      pop\n      mload(0x40)\n      dup1\n      swap2\n      sub\n      swap1\n      return\n        /* \"scalable-dex/contracts/src/components/ActionHash.sol\":1455:1558  function getActionCount() external view returns (uint256) {... */\n    tag_5:\n      tag_17\n      tag_18\n      jump\t// in\n    tag_17:\n      mload(0x40)\n      dup1\n      dup3\n      dup2\n      mstore\n      0x20\n      add\n      swap2\n      pop\n      pop\n      mload(0x40)\n      dup1\n      swap2\n      sub\n      swap1\n      return\n        /* \"scalable-dex/contracts/src/libraries/LibConstants.sol\":463:516  uint256 public constant DEPOSIT_CANCEL_DELAY = 2 days */\n    tag_6:\n      tag_19\n      tag_20\n      jump\t// in\n    tag_19:\n      mload(0x40)\n      dup1\n      dup3\n      dup2\n      mstore\n      0x20\n      add\n      swap2\n      pop\n      pop\n      mload(0x40)\n      dup1\n      swap2\n      sub\n      swap1\n      return\n        /* \"scalable-dex/contracts/src/libraries/LibConstants.sol\":877:926  uint256 public constant UNFREEZE_DELAY = 365 days */\n    tag_7:\n      tag_21\n      tag_22\n      jump\t// in\n    tag_21:\n      mload(0x40)\n      dup1\n      dup3\n      dup2\n      mstore\n      0x20\n      add\n      swap2\n      pop\n      pop\n      mload(0x40)\n      dup1\n      swap2\n      sub\n      swap1\n      return\n        /* \"scalable-dex/contracts/src/libraries/LibConstants.sol\":1128:1208  uint256 public constant VERIFIER_REMOVAL_DELAY = FREEZE_GRACE_PERIOD + (21 days) */\n    tag_8:\n      tag_23\n      tag_24\n      jump\t// in\n    tag_23:\n      mload(0x40)\n      dup1\n      dup3\n      dup2\n      mstore\n      0x20\n      add\n      swap2\n      pop\n      pop\n      mload(0x40)\n      dup1\n      swap2\n      sub\n      swap1\n      return\n        /* \"scalable-dex/contracts/src/libraries/LibConstants.sol\":1696:1758  uint256 public constant MAX_FORCED_ACTIONS_REQS_PER_BLOCK = 10 */\n    tag_9:\n      tag_25\n      tag_26\n      jump\t// in\n    tag_25:\n      mload(0x40)\n      dup1\n      dup3\n      dup2\n      mstore\n      0x20\n      add\n      swap2\n      pop\n      pop\n      mload(0x40)\n      dup1\n      swap2\n      sub\n      swap1\n      return\n        /* \"scalable-dex/contracts/src/libraries/LibConstants.sol\":988:1044  uint256 public constant MAX_VERIFIER_COUNT = uint256(64) */\n    tag_10:\n      tag_27\n      tag_28\n      jump\t// in\n    tag_27:\n      mload(0x40)\n      dup1\n      dup3\n      dup2\n      mstore\n      0x20\n      add\n      swap2\n      pop\n      pop\n      mload(0x40)\n      dup1\n      swap2\n      sub\n      swap1\n      return\n        /* \"scalable-dex/contracts/src/libraries/LibConstants.sol\":650:702  uint256 public constant FREEZE_GRACE_PERIOD = 7 days */\n    tag_13:\n        /* \"scalable-dex/contracts/src/libraries/LibConstants.sol\":696:702  7 days */\n      0x093a80\n        /* \"scalable-dex/contracts/src/libraries/LibConstants.sol\":650:702  uint256 public constant FREEZE_GRACE_PERIOD = 7 days */\n      dup2\n      jump\t// out\n        /* \"scalable-dex/contracts/src/components/ActionHash.sol\":1564:1777  function getActionHashByIndex(uint256 actionIndex) external view returns (bytes32) {... */\n    tag_16:\n        /* \"scalable-dex/contracts/src/components/ActionHash.sol\":1638:1645  bytes32 */\n      0x00\n        /* \"scalable-dex/contracts/src/components/ActionHash.sol\":1679:1693  actionHashList */\n      0x24\n        /* \"scalable-dex/contracts/src/components/ActionHash.sol\":1679:1700  actionHashList.length */\n      dup1\n      sload\n      swap1\n      pop\n        /* \"scalable-dex/contracts/src/components/ActionHash.sol\":1665:1676  actionIndex */\n      dup3\n        /* \"scalable-dex/contracts/src/components/ActionHash.sol\":1665:1700  actionIndex < actionHashList.length */\n      lt\n        /* \"scalable-dex/contracts/src/components/ActionHash.sol\":1657:1726  require(actionIndex < actionHashList.length, \"ACTION_INDEX_TOO_HIGH\") */\n      tag_30\n      jumpi\n      mload(0x40)\n      0x08c379a000000000000000000000000000000000000000000000000000000000\n      dup2\n      mstore\n      0x04\n      add\n      dup1\n      dup1\n      0x20\n      add\n      dup3\n      dup2\n      sub\n      dup3\n      mstore\n      0x15\n      dup2\n      mstore\n      0x20\n      add\n      dup1\n      0x414354494f4e5f494e4445585f544f4f5f484947480000000000000000000000\n      dup2\n      mstore\n      pop\n      0x20\n      add\n      swap2\n      pop\n      pop\n      mload(0x40)\n      dup1\n      swap2\n      sub\n      swap1\n      revert\n    tag_30:\n        /* \"scalable-dex/contracts/src/components/ActionHash.sol\":1743:1757  actionHashList */\n      0x24\n        /* \"scalable-dex/contracts/src/components/ActionHash.sol\":1758:1769  actionIndex */\n      dup3\n        /* \"scalable-dex/contracts/src/components/ActionHash.sol\":1743:1770  actionHashList[actionIndex] */\n      dup2\n      sload\n      dup2\n      lt\n      tag_31\n      jumpi\n      invalid\n    tag_31:\n      swap1\n      0x00\n      mstore\n      keccak256(0x00, 0x20)\n      add\n      sload\n        /* \"scalable-dex/contracts/src/components/ActionHash.sol\":1736:1770  return actionHashList[actionIndex] */\n      swap1\n      pop\n        /* \"scalable-dex/contracts/src/components/ActionHash.sol\":1564:1777  function getActionHashByIndex(uint256 actionIndex) external view returns (bytes32) {... */\n      swap2\n      swap1\n      pop\n      jump\t// out\n        /* \"scalable-dex/contracts/src/components/ActionHash.sol\":1455:1558  function getActionCount() external view returns (uint256) {... */\n    tag_18:\n        /* \"scalable-dex/contracts/src/components/ActionHash.sol\":1504:1511  uint256 */\n      0x00\n        /* \"scalable-dex/contracts/src/components/ActionHash.sol\":1530:1544  actionHashList */\n      0x24\n        /* \"scalable-dex/contracts/src/components/ActionHash.sol\":1530:1551  actionHashList.length */\n      dup1\n      sload\n      swap1\n      pop\n        /* \"scalable-dex/contracts/src/components/ActionHash.sol\":1523:1551  return actionHashList.length */\n      swap1\n      pop\n        /* \"scalable-dex/contracts/src/components/ActionHash.sol\":1455:1558  function getActionCount() external view returns (uint256) {... */\n      swap1\n      jump\t// out\n        /* \"scalable-dex/contracts/src/libraries/LibConstants.sol\":463:516  uint256 public constant DEPOSIT_CANCEL_DELAY = 2 days */\n    tag_20:\n        /* \"scalable-dex/contracts/src/libraries/LibConstants.sol\":510:516  2 days */\n      0x02a300\n        /* \"scalable-dex/contracts/src/libraries/LibConstants.sol\":463:516  uint256 public constant DEPOSIT_CANCEL_DELAY = 2 days */\n      dup2\n      jump\t// out\n        /* \"scalable-dex/contracts/src/libraries/LibConstants.sol\":877:926  uint256 public constant UNFREEZE_DELAY = 365 days */\n    tag_22:\n        /* \"scalable-dex/contracts/src/libraries/LibConstants.sol\":918:926  365 days */\n      0x01e13380\n        /* \"scalable-dex/contracts/src/libraries/LibConstants.sol\":877:926  uint256 public constant UNFREEZE_DELAY = 365 days */\n      dup2\n      jump\t// out\n        /* \"scalable-dex/contracts/src/libraries/LibConstants.sol\":1128:1208  uint256 public constant VERIFIER_REMOVAL_DELAY = FREEZE_GRACE_PERIOD + (21 days) */\n    tag_24:\n        /* \"scalable-dex/contracts/src/libraries/LibConstants.sol\":1200:1207  21 days */\n      0x1baf80\n        /* \"scalable-dex/contracts/src/libraries/LibConstants.sol\":696:702  7 days */\n      0x093a80\n        /* \"scalable-dex/contracts/src/libraries/LibConstants.sol\":1177:1208  FREEZE_GRACE_PERIOD + (21 days) */\n      add\n        /* \"scalable-dex/contracts/src/libraries/LibConstants.sol\":1128:1208  uint256 public constant VERIFIER_REMOVAL_DELAY = FREEZE_GRACE_PERIOD + (21 days) */\n      dup2\n      jump\t// out\n        /* \"scalable-dex/contracts/src/libraries/LibConstants.sol\":1696:1758  uint256 public constant MAX_FORCED_ACTIONS_REQS_PER_BLOCK = 10 */\n    tag_26:\n        /* \"scalable-dex/contracts/src/libraries/LibConstants.sol\":1756:1758  10 */\n      0x0a\n        /* \"scalable-dex/contracts/src/libraries/LibConstants.sol\":1696:1758  uint256 public constant MAX_FORCED_ACTIONS_REQS_PER_BLOCK = 10 */\n      dup2\n      jump\t// out\n        /* \"scalable-dex/contracts/src/libraries/LibConstants.sol\":988:1044  uint256 public constant MAX_VERIFIER_COUNT = uint256(64) */\n    tag_28:\n        /* \"scalable-dex/contracts/src/libraries/LibConstants.sol\":1041:1043  64 */\n      0x40\n        /* \"scalable-dex/contracts/src/libraries/LibConstants.sol\":988:1044  uint256 public constant MAX_VERIFIER_COUNT = uint256(64) */\n      dup2\n      jump\t// out\n\n    auxdata: 0xa2646970667358221220a28eb1b95ad325b93be9f43a619b4dbf6f14de7c2caa6a3b1b05d3a287cbf64d64736f6c634300060c0033\n}\n",
				"bytecode": {
					"linkReferences": {},
					"object": "608060405234801561001057600080fd5b506102aa806100206000396000f3fe608060405234801561001057600080fd5b50600436106100875760003560e01c8063993f36391161005b578063993f363914610128578063b766311214610146578063e30a5cff14610164578063e6de62821461018257610087565b80627175421461008c5780635e586cd1146100aa5780635eecd218146100ec57806377e84e0d1461010a575b600080fd5b6100946101a0565b6040518082815260200191505060405180910390f35b6100d6600480360360208110156100c057600080fd5b81019080803590602001909291905050506101a7565b6040518082815260200191505060405180910390f35b6100f4610242565b6040518082815260200191505060405180910390f35b61011261024f565b6040518082815260200191505060405180910390f35b610130610256565b6040518082815260200191505060405180910390f35b61014e61025e565b6040518082815260200191505060405180910390f35b61016c61026a565b6040518082815260200191505060405180910390f35b61018a61026f565b6040518082815260200191505060405180910390f35b62093a8081565b60006024805490508210610223576040517f08c379a00000000000000000000000000000000000000000000000000000000081526004018080602001828103825260158152602001807f414354494f4e5f494e4445585f544f4f5f48494748000000000000000000000081525060200191505060405180910390fd5b6024828154811061023057fe5b90600052602060002001549050919050565b6000602480549050905090565b6202a30081565b6301e1338081565b621baf8062093a800181565b600a81565b60408156fea2646970667358221220a28eb1b95ad325b93be9f43a619b4dbf6f14de7c2caa6a3b1b05d3a287cbf64d64736f6c634300060c0033",
					"opcodes": "PUSH1 0x80 PUSH1 0x40 MSTORE CALLVALUE DUP1 ISZERO PUSH2 0x10 JUMPI PUSH1 0x0 DUP1 REVERT JUMPDEST POP PUSH2 0x2AA DUP1 PUSH2 0x20 PUSH1 0x0 CODECOPY PUSH1 0x0 RETURN INVALID PUSH1 0x80 PUSH1 0x40 MSTORE CALLVALUE DUP1 ISZERO PUSH2 0x10 JUMPI PUSH1 0x0 DUP1 REVERT JUMPDEST POP PUSH1 0x4 CALLDATASIZE LT PUSH2 0x87 JUMPI PUSH1 0x0 CALLDATALOAD PUSH1 0xE0 SHR DUP1 PUSH4 0x993F3639 GT PUSH2 0x5B JUMPI DUP1 PUSH4 0x993F3639 EQ PUSH2 0x128 JUMPI DUP1 PUSH4 0xB7663112 EQ PUSH2 0x146 JUMPI DUP1 PUSH4 0xE30A5CFF EQ PUSH2 0x164 JUMPI DUP1 PUSH4 0xE6DE6282 EQ PUSH2 0x182 JUMPI PUSH2 0x87 JUMP JUMPDEST DUP1 PUSH3 0x717542 EQ PUSH2 0x8C JUMPI DUP1 PUSH4 0x5E586CD1 EQ PUSH2 0xAA JUMPI DUP1 PUSH4 0x5EECD218 EQ PUSH2 0xEC JUMPI DUP1 PUSH4 0x77E84E0D EQ PUSH2 0x10A JUMPI JUMPDEST PUSH1 0x0 DUP1 REVERT JUMPDEST PUSH2 0x94 PUSH2 0x1A0 JUMP JUMPDEST PUSH1 0x40 MLOAD DUP1 DUP3 DUP2 MSTORE PUSH1 0x20 ADD SWAP2 POP POP PUSH1 0x40 MLOAD DUP1 SWAP2 SUB SWAP1 RETURN JUMPDEST PUSH2 0xD6 PUSH1 0x4 DUP1 CALLDATASIZE SUB PUSH1 0x20 DUP2 LT ISZERO PUSH2 0xC0 JUMPI PUSH1 0x0 DUP1 REVERT JUMPDEST DUP2 ADD SWAP1 DUP1 DUP1 CALLDATALOAD SWAP1 PUSH1 0x20 ADD SWAP1 SWAP3 SWAP2 SWAP1 POP POP POP PUSH2 0x1A7 JUMP JUMPDEST PUSH1 0x40 MLOAD DUP1 DUP3 DUP2 MSTORE PUSH1 0x20 ADD SWAP2 POP POP PUSH1 0x40 MLOAD DUP1 SWAP2 SUB SWAP1 RETURN JUMPDEST PUSH2 0xF4 PUSH2 0x242 JUMP JUMPDEST PUSH1 0x40 MLOAD DUP1 DUP3 DUP2 MSTORE PUSH1 0x20 ADD SWAP2 POP POP PUSH1 0x40 MLOAD DUP1 SWAP2 SUB SWAP1 RETURN JUMPDEST PUSH2 0x112 PUSH2 0x24F JUMP JUMPDEST PUSH1 0x40 MLOAD DUP1 DUP3 DUP2 MSTORE PUSH1 0x20 ADD SWAP2 POP POP PUSH1 0x40 MLOAD DUP1 SWAP2 SUB SWAP1 RETURN JUMPDEST PUSH2 0x130 PUSH2 0x256 JUMP JUMPDEST PUSH1 0x40 MLOAD DUP1 DUP3 DUP2 MSTORE PUSH1 0x20 ADD SWAP2 POP POP PUSH1 0x40 MLOAD DUP1 SWAP2 SUB SWAP1 RETURN JUMPDEST PUSH2 0x14E PUSH2 0x25E JUMP JUMPDEST PUSH1 0x40 MLOAD DUP1 DUP3 DUP2 MSTORE PUSH1 0x20 ADD SWAP2 POP POP PUSH1 0x40 MLOAD DUP1 SWAP2 SUB SWAP1 RETURN JUMPDEST PUSH2 0x16C PUSH2 0x26A JUMP JUMPDEST PUSH1 0x40 MLOAD DUP1 DUP3 DUP2 MSTORE PUSH1 0x20 ADD SWAP2 POP POP PUSH1 0x40 MLOAD DUP1 SWAP2 SUB SWAP1 RETURN JUMPDEST PUSH2 0x18A PUSH2 0x26F JUMP JUMPDEST PUSH1 0x40 MLOAD DUP1 DUP3 DUP2 MSTORE PUSH1 0x20 ADD SWAP2 POP POP PUSH1 0x40 MLOAD DUP1 SWAP2 SUB SWAP1 RETURN JUMPDEST PUSH3 0x93A80 DUP2 JUMP JUMPDEST PUSH1 0x0 PUSH1 0x24 DUP1 SLOAD SWAP1 POP DUP3 LT PUSH2 0x223 JUMPI PUSH1 0x40 MLOAD PUSH32 0x8C379A000000000000000000000000000000000000000000000000000000000 DUP2 MSTORE PUSH1 0x4 ADD DUP1 DUP1 PUSH1 0x20 ADD DUP3 DUP2 SUB DUP3 MSTORE PUSH1 0x15 DUP2 MSTORE PUSH1 0x20 ADD DUP1 PUSH32 0x414354494F4E5F494E4445585F544F4F5F484947480000000000000000000000 DUP2 MSTORE POP PUSH1 0x20 ADD SWAP2 POP POP PUSH1 0x40 MLOAD DUP1 SWAP2 SUB SWAP1 REVERT JUMPDEST PUSH1 0x24 DUP3 DUP2 SLOAD DUP2 LT PUSH2 0x230 JUMPI INVALID JUMPDEST SWAP1 PUSH1 0x0 MSTORE PUSH1 0x20 PUSH1 0x0 KECCAK256 ADD SLOAD SWAP1 POP SWAP2 SWAP1 POP JUMP JUMPDEST PUSH1 0x0 PUSH1 0x24 DUP1 SLOAD SWAP1 POP SWAP1 POP SWAP1 JUMP JUMPDEST PUSH3 0x2A300 DUP2 JUMP JUMPDEST PUSH4 0x1E13380 DUP2 JUMP JUMPDEST PUSH3 0x1BAF80 PUSH3 0x93A80 ADD DUP2 JUMP JUMPDEST PUSH1 0xA DUP2 JUMP JUMPDEST PUSH1 0x40 DUP2 JUMP INVALID LOG2 PUSH5 0x6970667358 0x22 SLT KECCAK256 LOG2 DUP15 0xB1 0xB9 GAS 0xD3 0x25 0xB9 EXTCODESIZE 0xE9 DELEGATECALL GASPRICE PUSH2 0x9B4D 0xBF PUSH16 0x14DE7C2CAA6A3B1B05D3A287CBF64D64 PUSH20 0x6F6C634300060C00330000000000000000000000 "
				},
				"gasEstimates": {
					"creation": {
						"codeDepositCost": "136400",
						"executionCost": "183",
						"totalCost": "136583"
					},
					"external": {
						"DEPOSIT_CANCEL_DELAY()": "272",
						"FREEZE_GRACE_PERIOD()": "206",
						"MAX_FORCED_ACTIONS_REQS_PER_BLOCK()": "249",
						"MAX_VERIFIER_COUNT()": "271",
						"UNFREEZE_DELAY()": "205",
						"VERIFIER_REMOVAL_DELAY()": "233",
						"getActionCount()": "1066",
						"getActionHashByIndex(uint256)": "2834"
					},
					"internal": {
						"getActionHash(string memory,bytes memory)": "infinite",
						"setActionHash(bytes32,bool)": "infinite"
					}
				},
				"methodIdentifiers": {
					"DEPOSIT_CANCEL_DELAY()": "77e84e0d",
					"FREEZE_GRACE_PERIOD()": "00717542",
					"MAX_FORCED_ACTIONS_REQS_PER_BLOCK()": "e30a5cff",
					"MAX_VERIFIER_COUNT()": "e6de6282",
					"UNFREEZE_DELAY()": "993f3639",
					"VERIFIER_REMOVAL_DELAY()": "b7663112",
					"getActionCount()": "5eecd218",
					"getActionHashByIndex(uint256)": "5e586cd1"
				}
			},
			"userdoc": {
				"kind": "user",
				"methods": {},
				"version": 1
			}
		}
	}
}