{
	"scalable-dex/contracts/src/components/KeyGetters.sol": {
		"KeyGetters": {
			"abi": [
				{
					"inputs": [
						{
							"internalType": "uint256",
							"name": "ownerKey",
							"type": "uint256"
						}
					],
					"name": "getEthKey",
					"outputs": [
						{
							"internalType": "address",
							"name": "",
							"type": "address"
						}
					],
					"stateMutability": "view",
					"type": "function"
				}
			],
			"devdoc": {
				"kind": "dev",
				"methods": {},
				"version": 1
			},
			"evm": {
				"assembly": "    /* \"scalable-dex/contracts/src/components/KeyGetters.sol\":179:1629  contract KeyGetters is MainStorage, MKeyGetters {... */\n  mstore(0x40, 0x80)\n  callvalue\n  dup1\n  iszero\n  tag_1\n  jumpi\n  0x00\n  dup1\n  revert\ntag_1:\n  pop\n  dataSize(sub_0)\n  dup1\n  dataOffset(sub_0)\n  0x00\n  codecopy\n  0x00\n  return\nstop\n\nsub_0: assembly {\n        /* \"scalable-dex/contracts/src/components/KeyGetters.sol\":179:1629  contract KeyGetters is MainStorage, MKeyGetters {... */\n      mstore(0x40, 0x80)\n      callvalue\n      dup1\n      iszero\n      tag_1\n      jumpi\n      0x00\n      dup1\n      revert\n    tag_1:\n      pop\n      jumpi(tag_2, lt(calldatasize, 0x04))\n      shr(0xe0, calldataload(0x00))\n      dup1\n      0x1dbd1da7\n      eq\n      tag_3\n      jumpi\n    tag_2:\n      0x00\n      dup1\n      revert\n        /* \"scalable-dex/contracts/src/components/KeyGetters.sol\":876:1190  function getEthKey(uint256 ownerKey) public view override returns (address) {... */\n    tag_3:\n      tag_4\n      0x04\n      dup1\n      calldatasize\n      sub\n      0x20\n      dup2\n      lt\n      iszero\n      tag_5\n      jumpi\n      0x00\n      dup1\n      revert\n    tag_5:\n      dup2\n      add\n      swap1\n      dup1\n      dup1\n      calldataload\n      swap1\n      0x20\n      add\n      swap1\n      swap3\n      swap2\n      swap1\n      pop\n      pop\n      pop\n      tag_6\n      jump\t// in\n    tag_4:\n      mload(0x40)\n      dup1\n      dup3\n      0xffffffffffffffffffffffffffffffffffffffff\n      and\n      dup2\n      mstore\n      0x20\n      add\n      swap2\n      pop\n      pop\n      mload(0x40)\n      dup1\n      swap2\n      sub\n      swap1\n      return\n    tag_6:\n        /* \"scalable-dex/contracts/src/components/KeyGetters.sol\":943:950  address */\n      0x00\n        /* \"scalable-dex/contracts/src/components/KeyGetters.sol\":962:983  address registeredEth */\n      dup1\n        /* \"scalable-dex/contracts/src/components/KeyGetters.sol\":986:993  ethKeys */\n      0x18\n        /* \"scalable-dex/contracts/src/components/KeyGetters.sol\":986:1003  ethKeys[ownerKey] */\n      0x00\n        /* \"scalable-dex/contracts/src/components/KeyGetters.sol\":994:1002  ownerKey */\n      dup5\n        /* \"scalable-dex/contracts/src/components/KeyGetters.sol\":986:1003  ethKeys[ownerKey] */\n      dup2\n      mstore\n      0x20\n      add\n      swap1\n      dup2\n      mstore\n      0x20\n      add\n      0x00\n      keccak256\n      0x00\n      swap1\n      sload\n      swap1\n      0x0100\n      exp\n      swap1\n      div\n      0xffffffffffffffffffffffffffffffffffffffff\n      and\n        /* \"scalable-dex/contracts/src/components/KeyGetters.sol\":962:1003  address registeredEth = ethKeys[ownerKey] */\n      swap1\n      pop\n        /* \"scalable-dex/contracts/src/components/KeyGetters.sol\":1043:1046  0x0 */\n      0x00\n        /* \"scalable-dex/contracts/src/components/KeyGetters.sol\":1018:1047  registeredEth != address(0x0) */\n      0xffffffffffffffffffffffffffffffffffffffff\n      and\n        /* \"scalable-dex/contracts/src/components/KeyGetters.sol\":1018:1031  registeredEth */\n      dup2\n        /* \"scalable-dex/contracts/src/components/KeyGetters.sol\":1018:1047  registeredEth != address(0x0) */\n      0xffffffffffffffffffffffffffffffffffffffff\n      and\n      eq\n        /* \"scalable-dex/contracts/src/components/KeyGetters.sol\":1014:1094  if (registeredEth != address(0x0)) {... */\n      tag_8\n      jumpi\n        /* \"scalable-dex/contracts/src/components/KeyGetters.sol\":1070:1083  registeredEth */\n      dup1\n        /* \"scalable-dex/contracts/src/components/KeyGetters.sol\":1063:1083  return registeredEth */\n      swap2\n      pop\n      pop\n      jump(tag_7)\n        /* \"scalable-dex/contracts/src/components/KeyGetters.sol\":1014:1094  if (registeredEth != address(0x0)) {... */\n    tag_8:\n        /* \"scalable-dex/contracts/src/components/KeyGetters.sol\":274:288  (1 << 160) - 1 */\n      0xffffffffffffffffffffffffffffffffffffffff\n        /* \"scalable-dex/contracts/src/components/KeyGetters.sol\":1124:1132  ownerKey */\n      dup4\n        /* \"scalable-dex/contracts/src/components/KeyGetters.sol\":1124:1147  ownerKey & MASK_ADDRESS */\n      and\n        /* \"scalable-dex/contracts/src/components/KeyGetters.sol\":1111:1119  ownerKey */\n      dup4\n        /* \"scalable-dex/contracts/src/components/KeyGetters.sol\":1111:1148  ownerKey == (ownerKey & MASK_ADDRESS) */\n      eq\n        /* \"scalable-dex/contracts/src/components/KeyGetters.sol\":1111:1183  ownerKey == (ownerKey & MASK_ADDRESS) ? address(ownerKey) : address(0x0) */\n      tag_9\n      jumpi\n        /* \"scalable-dex/contracts/src/components/KeyGetters.sol\":1179:1182  0x0 */\n      0x00\n        /* \"scalable-dex/contracts/src/components/KeyGetters.sol\":1111:1183  ownerKey == (ownerKey & MASK_ADDRESS) ? address(ownerKey) : address(0x0) */\n      jump(tag_10)\n    tag_9:\n        /* \"scalable-dex/contracts/src/components/KeyGetters.sol\":1159:1167  ownerKey */\n      dup3\n        /* \"scalable-dex/contracts/src/components/KeyGetters.sol\":1111:1183  ownerKey == (ownerKey & MASK_ADDRESS) ? address(ownerKey) : address(0x0) */\n    tag_10:\n        /* \"scalable-dex/contracts/src/components/KeyGetters.sol\":1104:1183  return ownerKey == (ownerKey & MASK_ADDRESS) ? address(ownerKey) : address(0x0) */\n      swap2\n      pop\n      pop\n        /* \"scalable-dex/contracts/src/components/KeyGetters.sol\":876:1190  function getEthKey(uint256 ownerKey) public view override returns (address) {... */\n    tag_7:\n      swap2\n      swap1\n      pop\n      jump\t// out\n\n    auxdata: 0xa26469706673582212209b2a379520c817c825c63045f6bc2b6d0fa565e655c4f9276be3b9cf62a2dd4864736f6c634300060c0033\n}\n",
				"bytecode": {
					"linkReferences": {},
					"object": "608060405234801561001057600080fd5b50610163806100206000396000f3fe608060405234801561001057600080fd5b506004361061002b5760003560e01c80631dbd1da714610030575b600080fd5b61005c6004803603602081101561004657600080fd5b8101908080359060200190929190505050610088565b604051808273ffffffffffffffffffffffffffffffffffffffff16815260200191505060405180910390f35b6000806018600084815260200190815260200160002060009054906101000a900473ffffffffffffffffffffffffffffffffffffffff169050600073ffffffffffffffffffffffffffffffffffffffff168173ffffffffffffffffffffffffffffffffffffffff16146100fe5780915050610128565b73ffffffffffffffffffffffffffffffffffffffff83168314610122576000610124565b825b9150505b91905056fea26469706673582212209b2a379520c817c825c63045f6bc2b6d0fa565e655c4f9276be3b9cf62a2dd4864736f6c634300060c0033",
					"opcodes": "PUSH1 0x80 PUSH1 0x40 MSTORE CALLVALUE DUP1 ISZERO PUSH2 0x10 JUMPI PUSH1 0x0 DUP1 REVERT JUMPDEST POP PUSH2 0x163 DUP1 PUSH2 0x20 PUSH1 0x0 CODECOPY PUSH1 0x0 RETURN INVALID PUSH1 0x80 PUSH1 0x40 MSTORE CALLVALUE DUP1 ISZERO PUSH2 0x10 JUMPI PUSH1 0x0 DUP1 REVERT JUMPDEST POP PUSH1 0x4 CALLDATASIZE LT PUSH2 0x2B JUMPI PUSH1 0x0 CALLDATALOAD PUSH1 0xE0 SHR DUP1 PUSH4 0x1DBD1DA7 EQ PUSH2 0x30 JUMPI JUMPDEST PUSH1 0x0 DUP1 REVERT JUMPDEST PUSH2 0x5C PUSH1 0x4 DUP1 CALLDATASIZE SUB PUSH1 0x20 DUP2 LT ISZERO PUSH2 0x46 JUMPI PUSH1 0x0 DUP1 REVERT JUMPDEST DUP2 ADD SWAP1 DUP1 DUP1 CALLDATALOAD SWAP1 PUSH1 0x20 ADD SWAP1 SWAP3 SWAP2 SWAP1 POP POP POP PUSH2 0x88 JUMP JUMPDEST PUSH1 0x40 MLOAD DUP1 DUP3 PUSH20 0xFFFFFFFFFFFFFFFFFFFFFFFFFFFFFFFFFFFFFFFF AND DUP2 MSTORE PUSH1 0x20 ADD SWAP2 POP POP PUSH1 0x40 MLOAD DUP1 SWAP2 SUB SWAP1 RETURN JUMPDEST PUSH1 0x0 DUP1 PUSH1 0x18 PUSH1 0x0 DUP5 DUP2 MSTORE PUSH1 0x20 ADD SWAP1 DUP2 MSTORE PUSH1 0x20 ADD PUSH1 0x0 KECCAK256 PUSH1 0x0 SWAP1 SLOAD SWAP1 PUSH2 0x100 EXP SWAP1 DIV PUSH20 0xFFFFFFFFFFFFFFFFFFFFFFFFFFFFFFFFFFFFFFFF AND SWAP1 POP PUSH1 0x0 PUSH20 0xFFFFFFFFFFFFFFFFFFFFFFFFFFFFFFFFFFFFFFFF AND DUP2 PUSH20 0xFFFFFFFFFFFFFFFFFFFFFFFFFFFFFFFFFFFFFFFF AND EQ PUSH2 0xFE JUMPI DUP1 SWAP2 POP POP PUSH2 0x128 JUMP JUMPDEST PUSH20 0xFFFFFFFFFFFFFFFFFFFFFFFFFFFFFFFFFFFFFFFF DUP4 AND DUP4 EQ PUSH2 0x122 JUMPI PUSH1 0x0 PUSH2 0x124 JUMP JUMPDEST DUP3 JUMPDEST SWAP2 POP POP JUMPDEST SWAP2 SWAP1 POP JUMP INVALID LOG2 PUSH5 0x6970667358 0x22 SLT KECCAK256 SWAP12 0x2A CALLDATACOPY SWAP6 KECCAK256 0xC8 OR 0xC8 0x25 0xC6 ADDRESS GASLIMIT 0xF6 0xBC 0x2B PUSH14 0xFA565E655C4F9276BE3B9CF62A2 0xDD 0x48 PUSH5 0x736F6C6343 STOP MOD 0xC STOP CALLER "
				},
				"gasEstimates": {
					"creation": {
						"codeDepositCost": "71000",
						"executionCost": "123",
						"totalCost": "71123"
					},
					"external": {
						"getEthKey(uint256)": "1287"
					},
					"internal": {
						"isMsgSenderKeyOwner(uint256)": "infinite",
						"strictGetEthKey(uint256)": "infinite"
					}
				},
				"methodIdentifiers": {
					"getEthKey(uint256)": "1dbd1da7"
				}
			},
			"userdoc": {
				"kind": "user",
				"methods": {},
				"version": 1
			}
		}
	}
}