{
	"scalable-dex/contracts/src/components/MainGovernance.sol": {
		"MainGovernance": {
			"abi": [
				{
					"anonymous": false,
					"inputs": [
						{
							"indexed": false,
							"internalType": "address",
							"name": "acceptedGovernor",
							"type": "address"
						}
					],
					"name": "LogNewGovernorAccepted",
					"type": "event"
				},
				{
					"anonymous": false,
					"inputs": [
						{
							"indexed": false,
							"internalType": "address",
							"name": "nominatedGovernor",
							"type": "address"
						}
					],
					"name": "LogNominatedGovernor",
					"type": "event"
				},
				{
					"anonymous": false,
					"inputs": [],
					"name": "LogNominationCancelled",
					"type": "event"
				},
				{
					"anonymous": false,
					"inputs": [
						{
							"indexed": false,
							"internalType": "address",
							"name": "removedGovernor",
							"type": "address"
						}
					],
					"name": "LogRemovedGovernor",
					"type": "event"
				},
				{
					"inputs": [],
					"name": "MAIN_GOVERNANCE_INFO_TAG",
					"outputs": [
						{
							"internalType": "string",
							"name": "",
							"type": "string"
						}
					],
					"stateMutability": "view",
					"type": "function"
				},
				{
					"inputs": [],
					"name": "mainAcceptGovernance",
					"outputs": [],
					"stateMutability": "nonpayable",
					"type": "function"
				},
				{
					"inputs": [],
					"name": "mainCancelNomination",
					"outputs": [],
					"stateMutability": "nonpayable",
					"type": "function"
				},
				{
					"inputs": [
						{
							"internalType": "address",
							"name": "testGovernor",
							"type": "address"
						}
					],
					"name": "mainIsGovernor",
					"outputs": [
						{
							"internalType": "bool",
							"name": "",
							"type": "bool"
						}
					],
					"stateMutability": "view",
					"type": "function"
				},
				{
					"inputs": [
						{
							"internalType": "address",
							"name": "newGovernor",
							"type": "address"
						}
					],
					"name": "mainNominateNewGovernor",
					"outputs": [],
					"stateMutability": "nonpayable",
					"type": "function"
				},
				{
					"inputs": [
						{
							"internalType": "address",
							"name": "governorForRemoval",
							"type": "address"
						}
					],
					"name": "mainRemoveGovernor",
					"outputs": [],
					"stateMutability": "nonpayable",
					"type": "function"
				}
			],
			"devdoc": {
				"kind": "dev",
				"methods": {},
				"version": 1
			},
			"evm": {
				"assembly": "    /* \"scalable-dex/contracts/src/components/MainGovernance.sol\":1606:2488  contract MainGovernance is Governance {... */\n  mstore(0x40, 0x80)\n  callvalue\n  dup1\n  iszero\n  tag_1\n  jumpi\n  0x00\n  dup1\n  revert\ntag_1:\n  pop\n  dataSize(sub_0)\n  dup1\n  dataOffset(sub_0)\n  0x00\n  codecopy\n  0x00\n  return\nstop\n\nsub_0: assembly {\n        /* \"scalable-dex/contracts/src/components/MainGovernance.sol\":1606:2488  contract MainGovernance is Governance {... */\n      mstore(0x40, 0x80)\n      callvalue\n      dup1\n      iszero\n      tag_1\n      jumpi\n      0x00\n      dup1\n      revert\n    tag_1:\n      pop\n      jumpi(tag_2, lt(calldatasize, 0x04))\n      shr(0xe0, calldataload(0x00))\n      dup1\n      0x28700a15\n      eq\n      tag_3\n      jumpi\n      dup1\n      0x45f5cd97\n      eq\n      tag_4\n      jumpi\n      dup1\n      0x72eb3688\n      eq\n      tag_5\n      jumpi\n      dup1\n      0x8c4bce1c\n      eq\n      tag_6\n      jumpi\n      dup1\n      0xa1cc921e\n      eq\n      tag_7\n      jumpi\n      dup1\n      0xc23b60ef\n      eq\n      tag_8\n      jumpi\n    tag_2:\n      0x00\n      dup1\n      revert\n        /* \"scalable-dex/contracts/src/components/MainGovernance.sol\":2328:2404  function mainAcceptGovernance() external {... */\n    tag_3:\n      tag_9\n      tag_10\n      jump\t// in\n    tag_9:\n      stop\n        /* \"scalable-dex/contracts/src/components/MainGovernance.sol\":1959:2082  function mainIsGovernor(address testGovernor) external view returns (bool) {... */\n    tag_4:\n      tag_11\n      0x04\n      dup1\n      calldatasize\n      sub\n      0x20\n      dup2\n      lt\n      iszero\n      tag_12\n      jumpi\n      0x00\n      dup1\n      revert\n    tag_12:\n      dup2\n      add\n      swap1\n      dup1\n      dup1\n      calldataload\n      0xffffffffffffffffffffffffffffffffffffffff\n      and\n      swap1\n      0x20\n      add\n      swap1\n      swap3\n      swap2\n      swap1\n      pop\n      pop\n      pop\n      tag_13\n      jump\t// in\n    tag_11:\n      mload(0x40)\n      dup1\n      dup3\n      iszero\n      iszero\n      dup2\n      mstore\n      0x20\n      add\n      swap2\n      pop\n      pop\n      mload(0x40)\n      dup1\n      swap2\n      sub\n      swap1\n      return\n        /* \"scalable-dex/contracts/src/components/MainGovernance.sol\":2410:2486  function mainCancelNomination() external {... */\n    tag_5:\n      tag_14\n      tag_15\n      jump\t// in\n    tag_14:\n      stop\n        /* \"scalable-dex/contracts/src/components/MainGovernance.sol\":2088:2200  function mainNominateNewGovernor(address newGovernor) external {... */\n    tag_6:\n      tag_16\n      0x04\n      dup1\n      calldatasize\n      sub\n      0x20\n      dup2\n      lt\n      iszero\n      tag_17\n      jumpi\n      0x00\n      dup1\n      revert\n    tag_17:\n      dup2\n      add\n      swap1\n      dup1\n      dup1\n      calldataload\n      0xffffffffffffffffffffffffffffffffffffffff\n      and\n      swap1\n      0x20\n      add\n      swap1\n      swap3\n      swap2\n      swap1\n      pop\n      pop\n      pop\n      tag_18\n      jump\t// in\n    tag_16:\n      stop\n        /* \"scalable-dex/contracts/src/components/MainGovernance.sol\":2206:2322  function mainRemoveGovernor(address governorForRemoval) external {... */\n    tag_7:\n      tag_19\n      0x04\n      dup1\n      calldatasize\n      sub\n      0x20\n      dup2\n      lt\n      iszero\n      tag_20\n      jumpi\n      0x00\n      dup1\n      revert\n    tag_20:\n      dup2\n      add\n      swap1\n      dup1\n      dup1\n      calldataload\n      0xffffffffffffffffffffffffffffffffffffffff\n      and\n      swap1\n      0x20\n      add\n      swap1\n      swap3\n      swap2\n      swap1\n      pop\n      pop\n      pop\n      tag_21\n      jump\t// in\n    tag_19:\n      stop\n        /* \"scalable-dex/contracts/src/components/MainGovernance.sol\":1730:1820  string public constant MAIN_GOVERNANCE_INFO_TAG = \"StarkEx.Main.2019.GovernorsInformation\" */\n    tag_8:\n      tag_22\n      tag_23\n      jump\t// in\n    tag_22:\n      mload(0x40)\n      dup1\n      dup1\n      0x20\n      add\n      dup3\n      dup2\n      sub\n      dup3\n      mstore\n      dup4\n      dup2\n      dup2\n      mload\n      dup2\n      mstore\n      0x20\n      add\n      swap2\n      pop\n      dup1\n      mload\n      swap1\n      0x20\n      add\n      swap1\n      dup1\n      dup4\n      dup4\n      0x00\n    tag_24:\n      dup4\n      dup2\n      lt\n      iszero\n      tag_26\n      jumpi\n      dup1\n      dup3\n      add\n      mload\n      dup2\n      dup5\n      add\n      mstore\n      0x20\n      dup2\n      add\n      swap1\n      pop\n      jump(tag_24)\n    tag_26:\n      pop\n      pop\n      pop\n      pop\n      swap1\n      pop\n      swap1\n      dup2\n      add\n      swap1\n      0x1f\n      and\n      dup1\n      iszero\n      tag_27\n      jumpi\n      dup1\n      dup3\n      sub\n      dup1\n      mload\n      0x01\n      dup4\n      0x20\n      sub\n      0x0100\n      exp\n      sub\n      not\n      and\n      dup2\n      mstore\n      0x20\n      add\n      swap2\n      pop\n    tag_27:\n      pop\n      swap3\n      pop\n      pop\n      pop\n      mload(0x40)\n      dup1\n      swap2\n      sub\n      swap1\n      return\n        /* \"scalable-dex/contracts/src/components/MainGovernance.sol\":2328:2404  function mainAcceptGovernance() external {... */\n    tag_10:\n        /* \"scalable-dex/contracts/src/components/MainGovernance.sol\":2379:2397  acceptGovernance() */\n      tag_29\n        /* \"scalable-dex/contracts/src/components/MainGovernance.sol\":2379:2395  acceptGovernance */\n      tag_30\n        /* \"scalable-dex/contracts/src/components/MainGovernance.sol\":2379:2397  acceptGovernance() */\n      jump\t// in\n    tag_29:\n        /* \"scalable-dex/contracts/src/components/MainGovernance.sol\":2328:2404  function mainAcceptGovernance() external {... */\n      jump\t// out\n        /* \"scalable-dex/contracts/src/components/MainGovernance.sol\":1959:2082  function mainIsGovernor(address testGovernor) external view returns (bool) {... */\n    tag_13:\n        /* \"scalable-dex/contracts/src/components/MainGovernance.sol\":2028:2032  bool */\n      0x00\n        /* \"scalable-dex/contracts/src/components/MainGovernance.sol\":2051:2075  isGovernor(testGovernor) */\n      tag_32\n        /* \"scalable-dex/contracts/src/components/MainGovernance.sol\":2062:2074  testGovernor */\n      dup3\n        /* \"scalable-dex/contracts/src/components/MainGovernance.sol\":2051:2061  isGovernor */\n      tag_33\n        /* \"scalable-dex/contracts/src/components/MainGovernance.sol\":2051:2075  isGovernor(testGovernor) */\n      jump\t// in\n    tag_32:\n        /* \"scalable-dex/contracts/src/components/MainGovernance.sol\":2044:2075  return isGovernor(testGovernor) */\n      swap1\n      pop\n        /* \"scalable-dex/contracts/src/components/MainGovernance.sol\":1959:2082  function mainIsGovernor(address testGovernor) external view returns (bool) {... */\n      swap2\n      swap1\n      pop\n      jump\t// out\n        /* \"scalable-dex/contracts/src/components/MainGovernance.sol\":2410:2486  function mainCancelNomination() external {... */\n    tag_15:\n        /* \"scalable-dex/contracts/src/components/MainGovernance.sol\":2461:2479  cancelNomination() */\n      tag_35\n        /* \"scalable-dex/contracts/src/components/MainGovernance.sol\":2461:2477  cancelNomination */\n      tag_36\n        /* \"scalable-dex/contracts/src/components/MainGovernance.sol\":2461:2479  cancelNomination() */\n      jump\t// in\n    tag_35:\n        /* \"scalable-dex/contracts/src/components/MainGovernance.sol\":2410:2486  function mainCancelNomination() external {... */\n      jump\t// out\n        /* \"scalable-dex/contracts/src/components/MainGovernance.sol\":2088:2200  function mainNominateNewGovernor(address newGovernor) external {... */\n    tag_18:\n        /* \"scalable-dex/contracts/src/components/MainGovernance.sol\":2161:2193  nominateNewGovernor(newGovernor) */\n      tag_38\n        /* \"scalable-dex/contracts/src/components/MainGovernance.sol\":2181:2192  newGovernor */\n      dup2\n        /* \"scalable-dex/contracts/src/components/MainGovernance.sol\":2161:2180  nominateNewGovernor */\n      tag_39\n        /* \"scalable-dex/contracts/src/components/MainGovernance.sol\":2161:2193  nominateNewGovernor(newGovernor) */\n      jump\t// in\n    tag_38:\n        /* \"scalable-dex/contracts/src/components/MainGovernance.sol\":2088:2200  function mainNominateNewGovernor(address newGovernor) external {... */\n      pop\n      jump\t// out\n        /* \"scalable-dex/contracts/src/components/MainGovernance.sol\":2206:2322  function mainRemoveGovernor(address governorForRemoval) external {... */\n    tag_21:\n        /* \"scalable-dex/contracts/src/components/MainGovernance.sol\":2281:2315  removeGovernor(governorForRemoval) */\n      tag_41\n        /* \"scalable-dex/contracts/src/components/MainGovernance.sol\":2296:2314  governorForRemoval */\n      dup2\n        /* \"scalable-dex/contracts/src/components/MainGovernance.sol\":2281:2295  removeGovernor */\n      tag_42\n        /* \"scalable-dex/contracts/src/components/MainGovernance.sol\":2281:2315  removeGovernor(governorForRemoval) */\n      jump\t// in\n    tag_41:\n        /* \"scalable-dex/contracts/src/components/MainGovernance.sol\":2206:2322  function mainRemoveGovernor(address governorForRemoval) external {... */\n      pop\n      jump\t// out\n        /* \"scalable-dex/contracts/src/components/MainGovernance.sol\":1730:1820  string public constant MAIN_GOVERNANCE_INFO_TAG = \"StarkEx.Main.2019.GovernorsInformation\" */\n    tag_23:\n      mload(0x40)\n      dup1\n      0x60\n      add\n      0x40\n      mstore\n      dup1\n      0x26\n      dup2\n      mstore\n      0x20\n      add\n      data_ba6723cd96f04722dd5b39f1fec1d379925779afeea0248c94e7ccb35c720bcb\n      0x26\n      swap2\n      codecopy\n      dup2\n      jump\t// out\n        /* \"scalable-dex/contracts/src/components/Governance.sol\":3847:4349  function acceptGovernance() internal {... */\n    tag_30:\n        /* \"scalable-dex/contracts/src/components/Governance.sol\":3975:4007  GovernanceInfoStruct storage gub */\n      0x00\n        /* \"scalable-dex/contracts/src/components/Governance.sol\":4010:4034  contractGovernanceInfo() */\n      tag_44\n        /* \"scalable-dex/contracts/src/components/Governance.sol\":4010:4032  contractGovernanceInfo */\n      tag_45\n        /* \"scalable-dex/contracts/src/components/Governance.sol\":4010:4034  contractGovernanceInfo() */\n      jump\t// in\n    tag_44:\n        /* \"scalable-dex/contracts/src/components/Governance.sol\":3975:4034  GovernanceInfoStruct storage gub = contractGovernanceInfo() */\n      swap1\n      pop\n        /* \"scalable-dex/contracts/src/components/Governance.sol\":4066:4069  gub */\n      dup1\n        /* \"scalable-dex/contracts/src/components/Governance.sol\":4066:4087  gub.candidateGovernor */\n      0x01\n      add\n      0x00\n      swap1\n      sload\n      swap1\n      0x0100\n      exp\n      swap1\n      div\n      0xffffffffffffffffffffffffffffffffffffffff\n      and\n        /* \"scalable-dex/contracts/src/components/Governance.sol\":4052:4087  msg.sender == gub.candidateGovernor */\n      0xffffffffffffffffffffffffffffffffffffffff\n      and\n        /* \"scalable-dex/contracts/src/components/Governance.sol\":4052:4062  msg.sender */\n      caller\n        /* \"scalable-dex/contracts/src/components/Governance.sol\":4052:4087  msg.sender == gub.candidateGovernor */\n      0xffffffffffffffffffffffffffffffffffffffff\n      and\n      eq\n        /* \"scalable-dex/contracts/src/components/Governance.sol\":4044:4115  require(msg.sender == gub.candidateGovernor, \"ONLY_CANDIDATE_GOVERNOR\") */\n      tag_46\n      jumpi\n      mload(0x40)\n      0x08c379a000000000000000000000000000000000000000000000000000000000\n      dup2\n      mstore\n      0x04\n      add\n      dup1\n      dup1\n      0x20\n      add\n      dup3\n      dup2\n      sub\n      dup3\n      mstore\n      0x17\n      dup2\n      mstore\n      0x20\n      add\n      dup1\n      0x4f4e4c595f43414e4449444154455f474f5645524e4f52000000000000000000\n      dup2\n      mstore\n      pop\n      0x20\n      add\n      swap2\n      pop\n      pop\n      mload(0x40)\n      dup1\n      swap2\n      sub\n      swap1\n      revert\n    tag_46:\n        /* \"scalable-dex/contracts/src/components/Governance.sol\":4151:4185  addGovernor(gub.candidateGovernor) */\n      tag_47\n        /* \"scalable-dex/contracts/src/components/Governance.sol\":4163:4166  gub */\n      dup2\n        /* \"scalable-dex/contracts/src/components/Governance.sol\":4163:4184  gub.candidateGovernor */\n      0x01\n      add\n      0x00\n      swap1\n      sload\n      swap1\n      0x0100\n      exp\n      swap1\n      div\n      0xffffffffffffffffffffffffffffffffffffffff\n      and\n        /* \"scalable-dex/contracts/src/components/Governance.sol\":4151:4162  addGovernor */\n      tag_48\n        /* \"scalable-dex/contracts/src/components/Governance.sol\":4151:4185  addGovernor(gub.candidateGovernor) */\n      jump\t// in\n    tag_47:\n        /* \"scalable-dex/contracts/src/components/Governance.sol\":4227:4230  0x0 */\n      0x00\n        /* \"scalable-dex/contracts/src/components/Governance.sol\":4195:4198  gub */\n      dup2\n        /* \"scalable-dex/contracts/src/components/Governance.sol\":4195:4216  gub.candidateGovernor */\n      0x01\n      add\n      0x00\n        /* \"scalable-dex/contracts/src/components/Governance.sol\":4195:4231  gub.candidateGovernor = address(0x0) */\n      0x0100\n      exp\n      dup2\n      sload\n      dup2\n      0xffffffffffffffffffffffffffffffffffffffff\n      mul\n      not\n      and\n      swap1\n      dup4\n      0xffffffffffffffffffffffffffffffffffffffff\n      and\n      mul\n      or\n      swap1\n      sstore\n      pop\n        /* \"scalable-dex/contracts/src/components/Governance.sol\":4308:4342  LogNewGovernorAccepted(msg.sender) */\n      0xcfb473e6c03f9a29ddaf990e736fa3de5188a0bd85d684f5b6e164ebfbfff5d2\n        /* \"scalable-dex/contracts/src/components/Governance.sol\":4331:4341  msg.sender */\n      caller\n        /* \"scalable-dex/contracts/src/components/Governance.sol\":4308:4342  LogNewGovernorAccepted(msg.sender) */\n      mload(0x40)\n      dup1\n      dup3\n      0xffffffffffffffffffffffffffffffffffffffff\n      and\n      dup2\n      mstore\n      0x20\n      add\n      swap2\n      pop\n      pop\n      mload(0x40)\n      dup1\n      swap2\n      sub\n      swap1\n      log1\n        /* \"scalable-dex/contracts/src/components/Governance.sol\":3847:4349  function acceptGovernance() internal {... */\n      pop\n      jump\t// out\n        /* \"scalable-dex/contracts/src/components/Governance.sol\":2474:2683  function isGovernor(address testGovernor) internal view override returns (bool) {... */\n    tag_33:\n        /* \"scalable-dex/contracts/src/components/Governance.sol\":2548:2552  bool */\n      0x00\n        /* \"scalable-dex/contracts/src/components/Governance.sol\":2564:2596  GovernanceInfoStruct storage gub */\n      dup1\n        /* \"scalable-dex/contracts/src/components/Governance.sol\":2599:2623  contractGovernanceInfo() */\n      tag_50\n        /* \"scalable-dex/contracts/src/components/Governance.sol\":2599:2621  contractGovernanceInfo */\n      tag_45\n        /* \"scalable-dex/contracts/src/components/Governance.sol\":2599:2623  contractGovernanceInfo() */\n      jump\t// in\n    tag_50:\n        /* \"scalable-dex/contracts/src/components/Governance.sol\":2564:2623  GovernanceInfoStruct storage gub = contractGovernanceInfo() */\n      swap1\n      pop\n        /* \"scalable-dex/contracts/src/components/Governance.sol\":2640:2643  gub */\n      dup1\n        /* \"scalable-dex/contracts/src/components/Governance.sol\":2640:2662  gub.effectiveGovernors */\n      0x00\n      add\n        /* \"scalable-dex/contracts/src/components/Governance.sol\":2640:2676  gub.effectiveGovernors[testGovernor] */\n      0x00\n        /* \"scalable-dex/contracts/src/components/Governance.sol\":2663:2675  testGovernor */\n      dup5\n        /* \"scalable-dex/contracts/src/components/Governance.sol\":2640:2676  gub.effectiveGovernors[testGovernor] */\n      0xffffffffffffffffffffffffffffffffffffffff\n      and\n      0xffffffffffffffffffffffffffffffffffffffff\n      and\n      dup2\n      mstore\n      0x20\n      add\n      swap1\n      dup2\n      mstore\n      0x20\n      add\n      0x00\n      keccak256\n      0x00\n      swap1\n      sload\n      swap1\n      0x0100\n      exp\n      swap1\n      div\n      0xff\n      and\n        /* \"scalable-dex/contracts/src/components/Governance.sol\":2633:2676  return gub.effectiveGovernors[testGovernor] */\n      swap2\n      pop\n      pop\n        /* \"scalable-dex/contracts/src/components/Governance.sol\":2474:2683  function isGovernor(address testGovernor) internal view override returns (bool) {... */\n      swap2\n      swap1\n      pop\n      jump\t// out\n        /* \"scalable-dex/contracts/src/components/Governance.sol\":2757:2970  function cancelNomination() internal onlyGovernance {... */\n    tag_36:\n        /* \"scalable-dex/contracts/src/interfaces/MGovernance.sol\":299:321  isGovernor(msg.sender) */\n      tag_52\n        /* \"scalable-dex/contracts/src/interfaces/MGovernance.sol\":310:320  msg.sender */\n      caller\n        /* \"scalable-dex/contracts/src/interfaces/MGovernance.sol\":299:309  isGovernor */\n      tag_33\n        /* \"scalable-dex/contracts/src/interfaces/MGovernance.sol\":299:321  isGovernor(msg.sender) */\n      jump\t// in\n    tag_52:\n        /* \"scalable-dex/contracts/src/interfaces/MGovernance.sol\":291:341  require(isGovernor(msg.sender), \"ONLY_GOVERNANCE\") */\n      tag_53\n      jumpi\n      mload(0x40)\n      0x08c379a000000000000000000000000000000000000000000000000000000000\n      dup2\n      mstore\n      0x04\n      add\n      dup1\n      dup1\n      0x20\n      add\n      dup3\n      dup2\n      sub\n      dup3\n      mstore\n      0x0f\n      dup2\n      mstore\n      0x20\n      add\n      dup1\n      0x4f4e4c595f474f5645524e414e43450000000000000000000000000000000000\n      dup2\n      mstore\n      pop\n      0x20\n      add\n      swap2\n      pop\n      pop\n      mload(0x40)\n      dup1\n      swap2\n      sub\n      swap1\n      revert\n    tag_53:\n        /* \"scalable-dex/contracts/src/components/Governance.sol\":2819:2851  GovernanceInfoStruct storage gub */\n      0x00\n        /* \"scalable-dex/contracts/src/components/Governance.sol\":2854:2878  contractGovernanceInfo() */\n      tag_55\n        /* \"scalable-dex/contracts/src/components/Governance.sol\":2854:2876  contractGovernanceInfo */\n      tag_45\n        /* \"scalable-dex/contracts/src/components/Governance.sol\":2854:2878  contractGovernanceInfo() */\n      jump\t// in\n    tag_55:\n        /* \"scalable-dex/contracts/src/components/Governance.sol\":2819:2878  GovernanceInfoStruct storage gub = contractGovernanceInfo() */\n      swap1\n      pop\n        /* \"scalable-dex/contracts/src/components/Governance.sol\":2920:2923  0x0 */\n      0x00\n        /* \"scalable-dex/contracts/src/components/Governance.sol\":2888:2891  gub */\n      dup2\n        /* \"scalable-dex/contracts/src/components/Governance.sol\":2888:2909  gub.candidateGovernor */\n      0x01\n      add\n      0x00\n        /* \"scalable-dex/contracts/src/components/Governance.sol\":2888:2924  gub.candidateGovernor = address(0x0) */\n      0x0100\n      exp\n      dup2\n      sload\n      dup2\n      0xffffffffffffffffffffffffffffffffffffffff\n      mul\n      not\n      and\n      swap1\n      dup4\n      0xffffffffffffffffffffffffffffffffffffffff\n      and\n      mul\n      or\n      swap1\n      sstore\n      pop\n        /* \"scalable-dex/contracts/src/components/Governance.sol\":2939:2963  LogNominationCancelled() */\n      0x7a8dc7dd7fffb43c4807438fa62729225156941e641fd877938f4edade3429f5\n      mload(0x40)\n      mload(0x40)\n      dup1\n      swap2\n      sub\n      swap1\n      log1\n        /* \"scalable-dex/contracts/src/interfaces/MGovernance.sol\":351:352  _ */\n      pop\n        /* \"scalable-dex/contracts/src/components/Governance.sol\":2757:2970  function cancelNomination() internal onlyGovernance {... */\n      jump\t// out\n        /* \"scalable-dex/contracts/src/components/Governance.sol\":2976:3282  function nominateNewGovernor(address newGovernor) internal onlyGovernance {... */\n    tag_39:\n        /* \"scalable-dex/contracts/src/interfaces/MGovernance.sol\":299:321  isGovernor(msg.sender) */\n      tag_57\n        /* \"scalable-dex/contracts/src/interfaces/MGovernance.sol\":310:320  msg.sender */\n      caller\n        /* \"scalable-dex/contracts/src/interfaces/MGovernance.sol\":299:309  isGovernor */\n      tag_33\n        /* \"scalable-dex/contracts/src/interfaces/MGovernance.sol\":299:321  isGovernor(msg.sender) */\n      jump\t// in\n    tag_57:\n        /* \"scalable-dex/contracts/src/interfaces/MGovernance.sol\":291:341  require(isGovernor(msg.sender), \"ONLY_GOVERNANCE\") */\n      tag_58\n      jumpi\n      mload(0x40)\n      0x08c379a000000000000000000000000000000000000000000000000000000000\n      dup2\n      mstore\n      0x04\n      add\n      dup1\n      dup1\n      0x20\n      add\n      dup3\n      dup2\n      sub\n      dup3\n      mstore\n      0x0f\n      dup2\n      mstore\n      0x20\n      add\n      dup1\n      0x4f4e4c595f474f5645524e414e43450000000000000000000000000000000000\n      dup2\n      mstore\n      pop\n      0x20\n      add\n      swap2\n      pop\n      pop\n      mload(0x40)\n      dup1\n      swap2\n      sub\n      swap1\n      revert\n    tag_58:\n        /* \"scalable-dex/contracts/src/components/Governance.sol\":3060:3092  GovernanceInfoStruct storage gub */\n      0x00\n        /* \"scalable-dex/contracts/src/components/Governance.sol\":3095:3119  contractGovernanceInfo() */\n      tag_60\n        /* \"scalable-dex/contracts/src/components/Governance.sol\":3095:3117  contractGovernanceInfo */\n      tag_45\n        /* \"scalable-dex/contracts/src/components/Governance.sol\":3095:3119  contractGovernanceInfo() */\n      jump\t// in\n    tag_60:\n        /* \"scalable-dex/contracts/src/components/Governance.sol\":3060:3119  GovernanceInfoStruct storage gub = contractGovernanceInfo() */\n      swap1\n      pop\n        /* \"scalable-dex/contracts/src/components/Governance.sol\":3138:3161  isGovernor(newGovernor) */\n      tag_61\n        /* \"scalable-dex/contracts/src/components/Governance.sol\":3149:3160  newGovernor */\n      dup3\n        /* \"scalable-dex/contracts/src/components/Governance.sol\":3138:3148  isGovernor */\n      tag_33\n        /* \"scalable-dex/contracts/src/components/Governance.sol\":3138:3161  isGovernor(newGovernor) */\n      jump\t// in\n    tag_61:\n        /* \"scalable-dex/contracts/src/components/Governance.sol\":3137:3161  !isGovernor(newGovernor) */\n      iszero\n        /* \"scalable-dex/contracts/src/components/Governance.sol\":3129:3182  require(!isGovernor(newGovernor), \"ALREADY_GOVERNOR\") */\n      tag_62\n      jumpi\n      mload(0x40)\n      0x08c379a000000000000000000000000000000000000000000000000000000000\n      dup2\n      mstore\n      0x04\n      add\n      dup1\n      dup1\n      0x20\n      add\n      dup3\n      dup2\n      sub\n      dup3\n      mstore\n      0x10\n      dup2\n      mstore\n      0x20\n      add\n      dup1\n      0x414c52454144595f474f5645524e4f5200000000000000000000000000000000\n      dup2\n      mstore\n      pop\n      0x20\n      add\n      swap2\n      pop\n      pop\n      mload(0x40)\n      dup1\n      swap2\n      sub\n      swap1\n      revert\n    tag_62:\n        /* \"scalable-dex/contracts/src/components/Governance.sol\":3216:3227  newGovernor */\n      dup2\n        /* \"scalable-dex/contracts/src/components/Governance.sol\":3192:3195  gub */\n      dup2\n        /* \"scalable-dex/contracts/src/components/Governance.sol\":3192:3213  gub.candidateGovernor */\n      0x01\n      add\n      0x00\n        /* \"scalable-dex/contracts/src/components/Governance.sol\":3192:3227  gub.candidateGovernor = newGovernor */\n      0x0100\n      exp\n      dup2\n      sload\n      dup2\n      0xffffffffffffffffffffffffffffffffffffffff\n      mul\n      not\n      and\n      swap1\n      dup4\n      0xffffffffffffffffffffffffffffffffffffffff\n      and\n      mul\n      or\n      swap1\n      sstore\n      pop\n        /* \"scalable-dex/contracts/src/components/Governance.sol\":3242:3275  LogNominatedGovernor(newGovernor) */\n      0x6166272c8d3f5f579082f2827532732f97195007983bb5b83ac12c56700b01a6\n        /* \"scalable-dex/contracts/src/components/Governance.sol\":3263:3274  newGovernor */\n      dup3\n        /* \"scalable-dex/contracts/src/components/Governance.sol\":3242:3275  LogNominatedGovernor(newGovernor) */\n      mload(0x40)\n      dup1\n      dup3\n      0xffffffffffffffffffffffffffffffffffffffff\n      and\n      dup2\n      mstore\n      0x20\n      add\n      swap2\n      pop\n      pop\n      mload(0x40)\n      dup1\n      swap2\n      sub\n      swap1\n      log1\n        /* \"scalable-dex/contracts/src/interfaces/MGovernance.sol\":351:352  _ */\n      pop\n        /* \"scalable-dex/contracts/src/components/Governance.sol\":2976:3282  function nominateNewGovernor(address newGovernor) internal onlyGovernance {... */\n      pop\n      jump\t// out\n        /* \"scalable-dex/contracts/src/components/Governance.sol\":4406:4811  function removeGovernor(address governorForRemoval) internal onlyGovernance {... */\n    tag_42:\n        /* \"scalable-dex/contracts/src/interfaces/MGovernance.sol\":299:321  isGovernor(msg.sender) */\n      tag_64\n        /* \"scalable-dex/contracts/src/interfaces/MGovernance.sol\":310:320  msg.sender */\n      caller\n        /* \"scalable-dex/contracts/src/interfaces/MGovernance.sol\":299:309  isGovernor */\n      tag_33\n        /* \"scalable-dex/contracts/src/interfaces/MGovernance.sol\":299:321  isGovernor(msg.sender) */\n      jump\t// in\n    tag_64:\n        /* \"scalable-dex/contracts/src/interfaces/MGovernance.sol\":291:341  require(isGovernor(msg.sender), \"ONLY_GOVERNANCE\") */\n      tag_65\n      jumpi\n      mload(0x40)\n      0x08c379a000000000000000000000000000000000000000000000000000000000\n      dup2\n      mstore\n      0x04\n      add\n      dup1\n      dup1\n      0x20\n      add\n      dup3\n      dup2\n      sub\n      dup3\n      mstore\n      0x0f\n      dup2\n      mstore\n      0x20\n      add\n      dup1\n      0x4f4e4c595f474f5645524e414e43450000000000000000000000000000000000\n      dup2\n      mstore\n      pop\n      0x20\n      add\n      swap2\n      pop\n      pop\n      mload(0x40)\n      dup1\n      swap2\n      sub\n      swap1\n      revert\n    tag_65:\n        /* \"scalable-dex/contracts/src/components/Governance.sol\":4514:4532  governorForRemoval */\n      dup1\n        /* \"scalable-dex/contracts/src/components/Governance.sol\":4500:4532  msg.sender != governorForRemoval */\n      0xffffffffffffffffffffffffffffffffffffffff\n      and\n        /* \"scalable-dex/contracts/src/components/Governance.sol\":4500:4510  msg.sender */\n      caller\n        /* \"scalable-dex/contracts/src/components/Governance.sol\":4500:4532  msg.sender != governorForRemoval */\n      0xffffffffffffffffffffffffffffffffffffffff\n      and\n      eq\n      iszero\n        /* \"scalable-dex/contracts/src/components/Governance.sol\":4492:4557  require(msg.sender != governorForRemoval, \"GOVERNOR_SELF_REMOVE\") */\n      tag_67\n      jumpi\n      mload(0x40)\n      0x08c379a000000000000000000000000000000000000000000000000000000000\n      dup2\n      mstore\n      0x04\n      add\n      dup1\n      dup1\n      0x20\n      add\n      dup3\n      dup2\n      sub\n      dup3\n      mstore\n      0x14\n      dup2\n      mstore\n      0x20\n      add\n      dup1\n      0x474f5645524e4f525f53454c465f52454d4f5645000000000000000000000000\n      dup2\n      mstore\n      pop\n      0x20\n      add\n      swap2\n      pop\n      pop\n      mload(0x40)\n      dup1\n      swap2\n      sub\n      swap1\n      revert\n    tag_67:\n        /* \"scalable-dex/contracts/src/components/Governance.sol\":4567:4599  GovernanceInfoStruct storage gub */\n      0x00\n        /* \"scalable-dex/contracts/src/components/Governance.sol\":4602:4626  contractGovernanceInfo() */\n      tag_68\n        /* \"scalable-dex/contracts/src/components/Governance.sol\":4602:4624  contractGovernanceInfo */\n      tag_45\n        /* \"scalable-dex/contracts/src/components/Governance.sol\":4602:4626  contractGovernanceInfo() */\n      jump\t// in\n    tag_68:\n        /* \"scalable-dex/contracts/src/components/Governance.sol\":4567:4626  GovernanceInfoStruct storage gub = contractGovernanceInfo() */\n      swap1\n      pop\n        /* \"scalable-dex/contracts/src/components/Governance.sol\":4644:4674  isGovernor(governorForRemoval) */\n      tag_69\n        /* \"scalable-dex/contracts/src/components/Governance.sol\":4655:4673  governorForRemoval */\n      dup3\n        /* \"scalable-dex/contracts/src/components/Governance.sol\":4644:4654  isGovernor */\n      tag_33\n        /* \"scalable-dex/contracts/src/components/Governance.sol\":4644:4674  isGovernor(governorForRemoval) */\n      jump\t// in\n    tag_69:\n        /* \"scalable-dex/contracts/src/components/Governance.sol\":4636:4691  require(isGovernor(governorForRemoval), \"NOT_GOVERNOR\") */\n      tag_70\n      jumpi\n      mload(0x40)\n      0x08c379a000000000000000000000000000000000000000000000000000000000\n      dup2\n      mstore\n      0x04\n      add\n      dup1\n      dup1\n      0x20\n      add\n      dup3\n      dup2\n      sub\n      dup3\n      mstore\n      0x0c\n      dup2\n      mstore\n      0x20\n      add\n      dup1\n      0x4e4f545f474f5645524e4f520000000000000000000000000000000000000000\n      dup2\n      mstore\n      pop\n      0x20\n      add\n      swap2\n      pop\n      pop\n      mload(0x40)\n      dup1\n      swap2\n      sub\n      swap1\n      revert\n    tag_70:\n        /* \"scalable-dex/contracts/src/components/Governance.sol\":4746:4751  false */\n      0x00\n        /* \"scalable-dex/contracts/src/components/Governance.sol\":4701:4704  gub */\n      dup2\n        /* \"scalable-dex/contracts/src/components/Governance.sol\":4701:4723  gub.effectiveGovernors */\n      0x00\n      add\n        /* \"scalable-dex/contracts/src/components/Governance.sol\":4701:4743  gub.effectiveGovernors[governorForRemoval] */\n      0x00\n        /* \"scalable-dex/contracts/src/components/Governance.sol\":4724:4742  governorForRemoval */\n      dup5\n        /* \"scalable-dex/contracts/src/components/Governance.sol\":4701:4743  gub.effectiveGovernors[governorForRemoval] */\n      0xffffffffffffffffffffffffffffffffffffffff\n      and\n      0xffffffffffffffffffffffffffffffffffffffff\n      and\n      dup2\n      mstore\n      0x20\n      add\n      swap1\n      dup2\n      mstore\n      0x20\n      add\n      0x00\n      keccak256\n      0x00\n        /* \"scalable-dex/contracts/src/components/Governance.sol\":4701:4751  gub.effectiveGovernors[governorForRemoval] = false */\n      0x0100\n      exp\n      dup2\n      sload\n      dup2\n      0xff\n      mul\n      not\n      and\n      swap1\n      dup4\n      iszero\n      iszero\n      mul\n      or\n      swap1\n      sstore\n      pop\n        /* \"scalable-dex/contracts/src/components/Governance.sol\":4766:4804  LogRemovedGovernor(governorForRemoval) */\n      0xd75f94825e770b8b512be8e74759e252ad00e102e38f50cce2f7c6f868a29599\n        /* \"scalable-dex/contracts/src/components/Governance.sol\":4785:4803  governorForRemoval */\n      dup3\n        /* \"scalable-dex/contracts/src/components/Governance.sol\":4766:4804  LogRemovedGovernor(governorForRemoval) */\n      mload(0x40)\n      dup1\n      dup3\n      0xffffffffffffffffffffffffffffffffffffffff\n      and\n      dup2\n      mstore\n      0x20\n      add\n      swap2\n      pop\n      pop\n      mload(0x40)\n      dup1\n      swap2\n      sub\n      swap1\n      log1\n        /* \"scalable-dex/contracts/src/interfaces/MGovernance.sol\":351:352  _ */\n      pop\n        /* \"scalable-dex/contracts/src/components/Governance.sol\":4406:4811  function removeGovernor(address governorForRemoval) internal onlyGovernance {... */\n      pop\n      jump\t// out\n        /* \"scalable-dex/contracts/src/components/Governance.sol\":1231:1510  function contractGovernanceInfo() internal view returns (GovernanceInfoStruct storage) {... */\n    tag_45:\n        /* \"scalable-dex/contracts/src/components/Governance.sol\":1288:1316  GovernanceInfoStruct storage */\n      0x00\n        /* \"scalable-dex/contracts/src/components/Governance.sol\":1328:1345  string memory tag */\n      0x60\n        /* \"scalable-dex/contracts/src/components/Governance.sol\":1348:1366  getGovernanceTag() */\n      tag_72\n        /* \"scalable-dex/contracts/src/components/Governance.sol\":1348:1364  getGovernanceTag */\n      tag_73\n        /* \"scalable-dex/contracts/src/components/Governance.sol\":1348:1366  getGovernanceTag() */\n      jump\t// in\n    tag_72:\n        /* \"scalable-dex/contracts/src/components/Governance.sol\":1328:1366  string memory tag = getGovernanceTag() */\n      swap1\n      pop\n        /* \"scalable-dex/contracts/src/components/Governance.sol\":1376:1408  GovernanceInfoStruct storage gub */\n      0x00\n        /* \"scalable-dex/contracts/src/components/Governance.sol\":1411:1425  governanceInfo */\n      dup1\n        /* \"scalable-dex/contracts/src/components/Governance.sol\":1426:1429  tag */\n      dup3\n        /* \"scalable-dex/contracts/src/components/Governance.sol\":1411:1430  governanceInfo[tag] */\n      mload(0x40)\n      dup1\n      dup3\n      dup1\n      mload\n      swap1\n      0x20\n      add\n      swap1\n      dup1\n      dup4\n      dup4\n    tag_74:\n      0x20\n      dup4\n      lt\n      tag_76\n      jumpi\n      dup1\n      mload\n      dup3\n      mstore\n      0x20\n      dup3\n      add\n      swap2\n      pop\n      0x20\n      dup2\n      add\n      swap1\n      pop\n      0x20\n      dup4\n      sub\n      swap3\n      pop\n      jump(tag_74)\n    tag_76:\n      0x01\n      dup4\n      0x20\n      sub\n      0x0100\n      exp\n      sub\n      dup1\n      not\n      dup3\n      mload\n      and\n      dup2\n      dup5\n      mload\n      and\n      dup1\n      dup3\n      or\n      dup6\n      mstore\n      pop\n      pop\n      pop\n      pop\n      pop\n      pop\n      swap1\n      pop\n      add\n      swap2\n      pop\n      pop\n      swap1\n      dup2\n      mstore\n      0x20\n      add\n      mload(0x40)\n      dup1\n      swap2\n      sub\n      swap1\n      keccak256\n        /* \"scalable-dex/contracts/src/components/Governance.sol\":1376:1430  GovernanceInfoStruct storage gub = governanceInfo[tag] */\n      swap1\n      pop\n        /* \"scalable-dex/contracts/src/components/Governance.sol\":1448:1451  gub */\n      dup1\n        /* \"scalable-dex/contracts/src/components/Governance.sol\":1448:1463  gub.initialized */\n      0x01\n      add\n      0x14\n      swap1\n      sload\n      swap1\n      0x0100\n      exp\n      swap1\n      div\n      0xff\n      and\n        /* \"scalable-dex/contracts/src/components/Governance.sol\":1440:1483  require(gub.initialized, \"NOT_INITIALIZED\") */\n      tag_77\n      jumpi\n      mload(0x40)\n      0x08c379a000000000000000000000000000000000000000000000000000000000\n      dup2\n      mstore\n      0x04\n      add\n      dup1\n      dup1\n      0x20\n      add\n      dup3\n      dup2\n      sub\n      dup3\n      mstore\n      0x0f\n      dup2\n      mstore\n      0x20\n      add\n      dup1\n      0x4e4f545f494e495449414c495a45440000000000000000000000000000000000\n      dup2\n      mstore\n      pop\n      0x20\n      add\n      swap2\n      pop\n      pop\n      mload(0x40)\n      dup1\n      swap2\n      sub\n      swap1\n      revert\n    tag_77:\n        /* \"scalable-dex/contracts/src/components/Governance.sol\":1500:1503  gub */\n      dup1\n        /* \"scalable-dex/contracts/src/components/Governance.sol\":1493:1503  return gub */\n      swap3\n      pop\n      pop\n      pop\n        /* \"scalable-dex/contracts/src/components/Governance.sol\":1231:1510  function contractGovernanceInfo() internal view returns (GovernanceInfoStruct storage) {... */\n      swap1\n      jump\t// out\n        /* \"scalable-dex/contracts/src/components/Governance.sol\":3600:3841  function addGovernor(address newGovernor) private {... */\n    tag_48:\n        /* \"scalable-dex/contracts/src/components/Governance.sol\":3669:3692  isGovernor(newGovernor) */\n      tag_79\n        /* \"scalable-dex/contracts/src/components/Governance.sol\":3680:3691  newGovernor */\n      dup2\n        /* \"scalable-dex/contracts/src/components/Governance.sol\":3669:3679  isGovernor */\n      tag_33\n        /* \"scalable-dex/contracts/src/components/Governance.sol\":3669:3692  isGovernor(newGovernor) */\n      jump\t// in\n    tag_79:\n        /* \"scalable-dex/contracts/src/components/Governance.sol\":3668:3692  !isGovernor(newGovernor) */\n      iszero\n        /* \"scalable-dex/contracts/src/components/Governance.sol\":3660:3713  require(!isGovernor(newGovernor), \"ALREADY_GOVERNOR\") */\n      tag_80\n      jumpi\n      mload(0x40)\n      0x08c379a000000000000000000000000000000000000000000000000000000000\n      dup2\n      mstore\n      0x04\n      add\n      dup1\n      dup1\n      0x20\n      add\n      dup3\n      dup2\n      sub\n      dup3\n      mstore\n      0x10\n      dup2\n      mstore\n      0x20\n      add\n      dup1\n      0x414c52454144595f474f5645524e4f5200000000000000000000000000000000\n      dup2\n      mstore\n      pop\n      0x20\n      add\n      swap2\n      pop\n      pop\n      mload(0x40)\n      dup1\n      swap2\n      sub\n      swap1\n      revert\n    tag_80:\n        /* \"scalable-dex/contracts/src/components/Governance.sol\":3723:3755  GovernanceInfoStruct storage gub */\n      0x00\n        /* \"scalable-dex/contracts/src/components/Governance.sol\":3758:3782  contractGovernanceInfo() */\n      tag_81\n        /* \"scalable-dex/contracts/src/components/Governance.sol\":3758:3780  contractGovernanceInfo */\n      tag_45\n        /* \"scalable-dex/contracts/src/components/Governance.sol\":3758:3782  contractGovernanceInfo() */\n      jump\t// in\n    tag_81:\n        /* \"scalable-dex/contracts/src/components/Governance.sol\":3723:3782  GovernanceInfoStruct storage gub = contractGovernanceInfo() */\n      swap1\n      pop\n        /* \"scalable-dex/contracts/src/components/Governance.sol\":3830:3834  true */\n      0x01\n        /* \"scalable-dex/contracts/src/components/Governance.sol\":3792:3795  gub */\n      dup2\n        /* \"scalable-dex/contracts/src/components/Governance.sol\":3792:3814  gub.effectiveGovernors */\n      0x00\n      add\n        /* \"scalable-dex/contracts/src/components/Governance.sol\":3792:3827  gub.effectiveGovernors[newGovernor] */\n      0x00\n        /* \"scalable-dex/contracts/src/components/Governance.sol\":3815:3826  newGovernor */\n      dup5\n        /* \"scalable-dex/contracts/src/components/Governance.sol\":3792:3827  gub.effectiveGovernors[newGovernor] */\n      0xffffffffffffffffffffffffffffffffffffffff\n      and\n      0xffffffffffffffffffffffffffffffffffffffff\n      and\n      dup2\n      mstore\n      0x20\n      add\n      swap1\n      dup2\n      mstore\n      0x20\n      add\n      0x00\n      keccak256\n      0x00\n        /* \"scalable-dex/contracts/src/components/Governance.sol\":3792:3834  gub.effectiveGovernors[newGovernor] = true */\n      0x0100\n      exp\n      dup2\n      sload\n      dup2\n      0xff\n      mul\n      not\n      and\n      swap1\n      dup4\n      iszero\n      iszero\n      mul\n      or\n      swap1\n      sstore\n      pop\n        /* \"scalable-dex/contracts/src/components/Governance.sol\":3600:3841  function addGovernor(address newGovernor) private {... */\n      pop\n      pop\n      jump\t// out\n        /* \"scalable-dex/contracts/src/components/MainGovernance.sol\":1827:1953  function getGovernanceTag() internal pure override returns (string memory tag) {... */\n    tag_73:\n        /* \"scalable-dex/contracts/src/components/MainGovernance.sol\":1887:1904  string memory tag */\n      0x60\n        /* \"scalable-dex/contracts/src/components/MainGovernance.sol\":1922:1946  MAIN_GOVERNANCE_INFO_TAG */\n      mload(0x40)\n      dup1\n      0x60\n      add\n      0x40\n      mstore\n      dup1\n      0x26\n      dup2\n      mstore\n      0x20\n      add\n      data_ba6723cd96f04722dd5b39f1fec1d379925779afeea0248c94e7ccb35c720bcb\n      0x26\n      swap2\n      codecopy\n        /* \"scalable-dex/contracts/src/components/MainGovernance.sol\":1916:1946  tag = MAIN_GOVERNANCE_INFO_TAG */\n      swap1\n      pop\n        /* \"scalable-dex/contracts/src/components/MainGovernance.sol\":1827:1953  function getGovernanceTag() internal pure override returns (string memory tag) {... */\n      swap1\n      jump\t// out\n    stop\n    data_ba6723cd96f04722dd5b39f1fec1d379925779afeea0248c94e7ccb35c720bcb 537461726b45782e4d61696e2e323031392e476f7665726e6f7273496e666f726d6174696f6e\n\n    auxdata: 0xa2646970667358221220b33d5c6c2d7043f9b1b5d9ce6bf8aad54f0142af0418f8174fb62eacf516d5e864736f6c634300060c0033\n}\n",
				"bytecode": {
					"linkReferences": {},
					"object": "608060405234801561001057600080fd5b50610b78806100206000396000f3fe608060405234801561001057600080fd5b50600436106100625760003560e01c806328700a151461006757806345f5cd971461007157806372eb3688146100cb5780638c4bce1c146100d5578063a1cc921e14610119578063c23b60ef1461015d575b600080fd5b61006f6101e0565b005b6100b36004803603602081101561008757600080fd5b81019080803573ffffffffffffffffffffffffffffffffffffffff1690602001909291905050506101ea565b60405180821515815260200191505060405180910390f35b6100d36101fc565b005b610117600480360360208110156100eb57600080fd5b81019080803573ffffffffffffffffffffffffffffffffffffffff169060200190929190505050610206565b005b61015b6004803603602081101561012f57600080fd5b81019080803573ffffffffffffffffffffffffffffffffffffffff169060200190929190505050610212565b005b61016561021e565b6040518080602001828103825283818151815260200191508051906020019080838360005b838110156101a557808201518184015260208101905061018a565b50505050905090810190601f1680156101d25780820380516001836020036101000a031916815260200191505b509250505060405180910390f35b6101e861023a565b565b60006101f5826103cc565b9050919050565b610204610430565b565b61020f8161052a565b50565b61021b816106c1565b50565b604051806060016040528060268152602001610b1d6026913981565b6000610244610910565b90508060010160009054906101000a900473ffffffffffffffffffffffffffffffffffffffff1673ffffffffffffffffffffffffffffffffffffffff163373ffffffffffffffffffffffffffffffffffffffff161461030b576040517f08c379a00000000000000000000000000000000000000000000000000000000081526004018080602001828103825260178152602001807f4f4e4c595f43414e4449444154455f474f5645524e4f5200000000000000000081525060200191505060405180910390fd5b6103388160010160009054906101000a900473ffffffffffffffffffffffffffffffffffffffff16610a16565b60008160010160006101000a81548173ffffffffffffffffffffffffffffffffffffffff021916908373ffffffffffffffffffffffffffffffffffffffff1602179055507fcfb473e6c03f9a29ddaf990e736fa3de5188a0bd85d684f5b6e164ebfbfff5d233604051808273ffffffffffffffffffffffffffffffffffffffff16815260200191505060405180910390a150565b6000806103d7610910565b90508060000160008473ffffffffffffffffffffffffffffffffffffffff1673ffffffffffffffffffffffffffffffffffffffff16815260200190815260200160002060009054906101000a900460ff16915050919050565b610439336103cc565b6104ab576040517f08c379a000000000000000000000000000000000000000000000000000000000815260040180806020018281038252600f8152602001807f4f4e4c595f474f5645524e414e4345000000000000000000000000000000000081525060200191505060405180910390fd5b60006104b5610910565b905060008160010160006101000a81548173ffffffffffffffffffffffffffffffffffffffff021916908373ffffffffffffffffffffffffffffffffffffffff1602179055507f7a8dc7dd7fffb43c4807438fa62729225156941e641fd877938f4edade3429f560405160405180910390a150565b610533336103cc565b6105a5576040517f08c379a000000000000000000000000000000000000000000000000000000000815260040180806020018281038252600f8152602001807f4f4e4c595f474f5645524e414e4345000000000000000000000000000000000081525060200191505060405180910390fd5b60006105af610910565b90506105ba826103cc565b1561062d576040517f08c379a00000000000000000000000000000000000000000000000000000000081526004018080602001828103825260108152602001807f414c52454144595f474f5645524e4f520000000000000000000000000000000081525060200191505060405180910390fd5b818160010160006101000a81548173ffffffffffffffffffffffffffffffffffffffff021916908373ffffffffffffffffffffffffffffffffffffffff1602179055507f6166272c8d3f5f579082f2827532732f97195007983bb5b83ac12c56700b01a682604051808273ffffffffffffffffffffffffffffffffffffffff16815260200191505060405180910390a15050565b6106ca336103cc565b61073c576040517f08c379a000000000000000000000000000000000000000000000000000000000815260040180806020018281038252600f8152602001807f4f4e4c595f474f5645524e414e4345000000000000000000000000000000000081525060200191505060405180910390fd5b8073ffffffffffffffffffffffffffffffffffffffff163373ffffffffffffffffffffffffffffffffffffffff1614156107de576040517f08c379a00000000000000000000000000000000000000000000000000000000081526004018080602001828103825260148152602001807f474f5645524e4f525f53454c465f52454d4f564500000000000000000000000081525060200191505060405180910390fd5b60006107e8610910565b90506107f3826103cc565b610865576040517f08c379a000000000000000000000000000000000000000000000000000000000815260040180806020018281038252600c8152602001807f4e4f545f474f5645524e4f52000000000000000000000000000000000000000081525060200191505060405180910390fd5b60008160000160008473ffffffffffffffffffffffffffffffffffffffff1673ffffffffffffffffffffffffffffffffffffffff16815260200190815260200160002060006101000a81548160ff0219169083151502179055507fd75f94825e770b8b512be8e74759e252ad00e102e38f50cce2f7c6f868a2959982604051808273ffffffffffffffffffffffffffffffffffffffff16815260200191505060405180910390a15050565b6000606061091c610afc565b9050600080826040518082805190602001908083835b602083106109555780518252602082019150602081019050602083039250610932565b6001836020036101000a038019825116818451168082178552505050505050905001915050908152602001604051809103902090508060010160149054906101000a900460ff16610a0e576040517f08c379a000000000000000000000000000000000000000000000000000000000815260040180806020018281038252600f8152602001807f4e4f545f494e495449414c495a4544000000000000000000000000000000000081525060200191505060405180910390fd5b809250505090565b610a1f816103cc565b15610a92576040517f08c379a00000000000000000000000000000000000000000000000000000000081526004018080602001828103825260108152602001807f414c52454144595f474f5645524e4f520000000000000000000000000000000081525060200191505060405180910390fd5b6000610a9c610910565b905060018160000160008473ffffffffffffffffffffffffffffffffffffffff1673ffffffffffffffffffffffffffffffffffffffff16815260200190815260200160002060006101000a81548160ff0219169083151502179055505050565b6060604051806060016040528060268152602001610b1d6026913990509056fe537461726b45782e4d61696e2e323031392e476f7665726e6f7273496e666f726d6174696f6ea2646970667358221220b33d5c6c2d7043f9b1b5d9ce6bf8aad54f0142af0418f8174fb62eacf516d5e864736f6c634300060c0033",
					"opcodes": "PUSH1 0x80 PUSH1 0x40 MSTORE CALLVALUE DUP1 ISZERO PUSH2 0x10 JUMPI PUSH1 0x0 DUP1 REVERT JUMPDEST POP PUSH2 0xB78 DUP1 PUSH2 0x20 PUSH1 0x0 CODECOPY PUSH1 0x0 RETURN INVALID PUSH1 0x80 PUSH1 0x40 MSTORE CALLVALUE DUP1 ISZERO PUSH2 0x10 JUMPI PUSH1 0x0 DUP1 REVERT JUMPDEST POP PUSH1 0x4 CALLDATASIZE LT PUSH2 0x62 JUMPI PUSH1 0x0 CALLDATALOAD PUSH1 0xE0 SHR DUP1 PUSH4 0x28700A15 EQ PUSH2 0x67 JUMPI DUP1 PUSH4 0x45F5CD97 EQ PUSH2 0x71 JUMPI DUP1 PUSH4 0x72EB3688 EQ PUSH2 0xCB JUMPI DUP1 PUSH4 0x8C4BCE1C EQ PUSH2 0xD5 JUMPI DUP1 PUSH4 0xA1CC921E EQ PUSH2 0x119 JUMPI DUP1 PUSH4 0xC23B60EF EQ PUSH2 0x15D JUMPI JUMPDEST PUSH1 0x0 DUP1 REVERT JUMPDEST PUSH2 0x6F PUSH2 0x1E0 JUMP JUMPDEST STOP JUMPDEST PUSH2 0xB3 PUSH1 0x4 DUP1 CALLDATASIZE SUB PUSH1 0x20 DUP2 LT ISZERO PUSH2 0x87 JUMPI PUSH1 0x0 DUP1 REVERT JUMPDEST DUP2 ADD SWAP1 DUP1 DUP1 CALLDATALOAD PUSH20 0xFFFFFFFFFFFFFFFFFFFFFFFFFFFFFFFFFFFFFFFF AND SWAP1 PUSH1 0x20 ADD SWAP1 SWAP3 SWAP2 SWAP1 POP POP POP PUSH2 0x1EA JUMP JUMPDEST PUSH1 0x40 MLOAD DUP1 DUP3 ISZERO ISZERO DUP2 MSTORE PUSH1 0x20 ADD SWAP2 POP POP PUSH1 0x40 MLOAD DUP1 SWAP2 SUB SWAP1 RETURN JUMPDEST PUSH2 0xD3 PUSH2 0x1FC JUMP JUMPDEST STOP JUMPDEST PUSH2 0x117 PUSH1 0x4 DUP1 CALLDATASIZE SUB PUSH1 0x20 DUP2 LT ISZERO PUSH2 0xEB JUMPI PUSH1 0x0 DUP1 REVERT JUMPDEST DUP2 ADD SWAP1 DUP1 DUP1 CALLDATALOAD PUSH20 0xFFFFFFFFFFFFFFFFFFFFFFFFFFFFFFFFFFFFFFFF AND SWAP1 PUSH1 0x20 ADD SWAP1 SWAP3 SWAP2 SWAP1 POP POP POP PUSH2 0x206 JUMP JUMPDEST STOP JUMPDEST PUSH2 0x15B PUSH1 0x4 DUP1 CALLDATASIZE SUB PUSH1 0x20 DUP2 LT ISZERO PUSH2 0x12F JUMPI PUSH1 0x0 DUP1 REVERT JUMPDEST DUP2 ADD SWAP1 DUP1 DUP1 CALLDATALOAD PUSH20 0xFFFFFFFFFFFFFFFFFFFFFFFFFFFFFFFFFFFFFFFF AND SWAP1 PUSH1 0x20 ADD SWAP1 SWAP3 SWAP2 SWAP1 POP POP POP PUSH2 0x212 JUMP JUMPDEST STOP JUMPDEST PUSH2 0x165 PUSH2 0x21E JUMP JUMPDEST PUSH1 0x40 MLOAD DUP1 DUP1 PUSH1 0x20 ADD DUP3 DUP2 SUB DUP3 MSTORE DUP4 DUP2 DUP2 MLOAD DUP2 MSTORE PUSH1 0x20 ADD SWAP2 POP DUP1 MLOAD SWAP1 PUSH1 0x20 ADD SWAP1 DUP1 DUP4 DUP4 PUSH1 0x0 JUMPDEST DUP4 DUP2 LT ISZERO PUSH2 0x1A5 JUMPI DUP1 DUP3 ADD MLOAD DUP2 DUP5 ADD MSTORE PUSH1 0x20 DUP2 ADD SWAP1 POP PUSH2 0x18A JUMP JUMPDEST POP POP POP POP SWAP1 POP SWAP1 DUP2 ADD SWAP1 PUSH1 0x1F AND DUP1 ISZERO PUSH2 0x1D2 JUMPI DUP1 DUP3 SUB DUP1 MLOAD PUSH1 0x1 DUP4 PUSH1 0x20 SUB PUSH2 0x100 EXP SUB NOT AND DUP2 MSTORE PUSH1 0x20 ADD SWAP2 POP JUMPDEST POP SWAP3 POP POP POP PUSH1 0x40 MLOAD DUP1 SWAP2 SUB SWAP1 RETURN JUMPDEST PUSH2 0x1E8 PUSH2 0x23A JUMP JUMPDEST JUMP JUMPDEST PUSH1 0x0 PUSH2 0x1F5 DUP3 PUSH2 0x3CC JUMP JUMPDEST SWAP1 POP SWAP2 SWAP1 POP JUMP JUMPDEST PUSH2 0x204 PUSH2 0x430 JUMP JUMPDEST JUMP JUMPDEST PUSH2 0x20F DUP2 PUSH2 0x52A JUMP JUMPDEST POP JUMP JUMPDEST PUSH2 0x21B DUP2 PUSH2 0x6C1 JUMP JUMPDEST POP JUMP JUMPDEST PUSH1 0x40 MLOAD DUP1 PUSH1 0x60 ADD PUSH1 0x40 MSTORE DUP1 PUSH1 0x26 DUP2 MSTORE PUSH1 0x20 ADD PUSH2 0xB1D PUSH1 0x26 SWAP2 CODECOPY DUP2 JUMP JUMPDEST PUSH1 0x0 PUSH2 0x244 PUSH2 0x910 JUMP JUMPDEST SWAP1 POP DUP1 PUSH1 0x1 ADD PUSH1 0x0 SWAP1 SLOAD SWAP1 PUSH2 0x100 EXP SWAP1 DIV PUSH20 0xFFFFFFFFFFFFFFFFFFFFFFFFFFFFFFFFFFFFFFFF AND PUSH20 0xFFFFFFFFFFFFFFFFFFFFFFFFFFFFFFFFFFFFFFFF AND CALLER PUSH20 0xFFFFFFFFFFFFFFFFFFFFFFFFFFFFFFFFFFFFFFFF AND EQ PUSH2 0x30B JUMPI PUSH1 0x40 MLOAD PUSH32 0x8C379A000000000000000000000000000000000000000000000000000000000 DUP2 MSTORE PUSH1 0x4 ADD DUP1 DUP1 PUSH1 0x20 ADD DUP3 DUP2 SUB DUP3 MSTORE PUSH1 0x17 DUP2 MSTORE PUSH1 0x20 ADD DUP1 PUSH32 0x4F4E4C595F43414E4449444154455F474F5645524E4F52000000000000000000 DUP2 MSTORE POP PUSH1 0x20 ADD SWAP2 POP POP PUSH1 0x40 MLOAD DUP1 SWAP2 SUB SWAP1 REVERT JUMPDEST PUSH2 0x338 DUP2 PUSH1 0x1 ADD PUSH1 0x0 SWAP1 SLOAD SWAP1 PUSH2 0x100 EXP SWAP1 DIV PUSH20 0xFFFFFFFFFFFFFFFFFFFFFFFFFFFFFFFFFFFFFFFF AND PUSH2 0xA16 JUMP JUMPDEST PUSH1 0x0 DUP2 PUSH1 0x1 ADD PUSH1 0x0 PUSH2 0x100 EXP DUP2 SLOAD DUP2 PUSH20 0xFFFFFFFFFFFFFFFFFFFFFFFFFFFFFFFFFFFFFFFF MUL NOT AND SWAP1 DUP4 PUSH20 0xFFFFFFFFFFFFFFFFFFFFFFFFFFFFFFFFFFFFFFFF AND MUL OR SWAP1 SSTORE POP PUSH32 0xCFB473E6C03F9A29DDAF990E736FA3DE5188A0BD85D684F5B6E164EBFBFFF5D2 CALLER PUSH1 0x40 MLOAD DUP1 DUP3 PUSH20 0xFFFFFFFFFFFFFFFFFFFFFFFFFFFFFFFFFFFFFFFF AND DUP2 MSTORE PUSH1 0x20 ADD SWAP2 POP POP PUSH1 0x40 MLOAD DUP1 SWAP2 SUB SWAP1 LOG1 POP JUMP JUMPDEST PUSH1 0x0 DUP1 PUSH2 0x3D7 PUSH2 0x910 JUMP JUMPDEST SWAP1 POP DUP1 PUSH1 0x0 ADD PUSH1 0x0 DUP5 PUSH20 0xFFFFFFFFFFFFFFFFFFFFFFFFFFFFFFFFFFFFFFFF AND PUSH20 0xFFFFFFFFFFFFFFFFFFFFFFFFFFFFFFFFFFFFFFFF AND DUP2 MSTORE PUSH1 0x20 ADD SWAP1 DUP2 MSTORE PUSH1 0x20 ADD PUSH1 0x0 KECCAK256 PUSH1 0x0 SWAP1 SLOAD SWAP1 PUSH2 0x100 EXP SWAP1 DIV PUSH1 0xFF AND SWAP2 POP POP SWAP2 SWAP1 POP JUMP JUMPDEST PUSH2 0x439 CALLER PUSH2 0x3CC JUMP JUMPDEST PUSH2 0x4AB JUMPI PUSH1 0x40 MLOAD PUSH32 0x8C379A000000000000000000000000000000000000000000000000000000000 DUP2 MSTORE PUSH1 0x4 ADD DUP1 DUP1 PUSH1 0x20 ADD DUP3 DUP2 SUB DUP3 MSTORE PUSH1 0xF DUP2 MSTORE PUSH1 0x20 ADD DUP1 PUSH32 0x4F4E4C595F474F5645524E414E43450000000000000000000000000000000000 DUP2 MSTORE POP PUSH1 0x20 ADD SWAP2 POP POP PUSH1 0x40 MLOAD DUP1 SWAP2 SUB SWAP1 REVERT JUMPDEST PUSH1 0x0 PUSH2 0x4B5 PUSH2 0x910 JUMP JUMPDEST SWAP1 POP PUSH1 0x0 DUP2 PUSH1 0x1 ADD PUSH1 0x0 PUSH2 0x100 EXP DUP2 SLOAD DUP2 PUSH20 0xFFFFFFFFFFFFFFFFFFFFFFFFFFFFFFFFFFFFFFFF MUL NOT AND SWAP1 DUP4 PUSH20 0xFFFFFFFFFFFFFFFFFFFFFFFFFFFFFFFFFFFFFFFF AND MUL OR SWAP1 SSTORE POP PUSH32 0x7A8DC7DD7FFFB43C4807438FA62729225156941E641FD877938F4EDADE3429F5 PUSH1 0x40 MLOAD PUSH1 0x40 MLOAD DUP1 SWAP2 SUB SWAP1 LOG1 POP JUMP JUMPDEST PUSH2 0x533 CALLER PUSH2 0x3CC JUMP JUMPDEST PUSH2 0x5A5 JUMPI PUSH1 0x40 MLOAD PUSH32 0x8C379A000000000000000000000000000000000000000000000000000000000 DUP2 MSTORE PUSH1 0x4 ADD DUP1 DUP1 PUSH1 0x20 ADD DUP3 DUP2 SUB DUP3 MSTORE PUSH1 0xF DUP2 MSTORE PUSH1 0x20 ADD DUP1 PUSH32 0x4F4E4C595F474F5645524E414E43450000000000000000000000000000000000 DUP2 MSTORE POP PUSH1 0x20 ADD SWAP2 POP POP PUSH1 0x40 MLOAD DUP1 SWAP2 SUB SWAP1 REVERT JUMPDEST PUSH1 0x0 PUSH2 0x5AF PUSH2 0x910 JUMP JUMPDEST SWAP1 POP PUSH2 0x5BA DUP3 PUSH2 0x3CC JUMP JUMPDEST ISZERO PUSH2 0x62D JUMPI PUSH1 0x40 MLOAD PUSH32 0x8C379A000000000000000000000000000000000000000000000000000000000 DUP2 MSTORE PUSH1 0x4 ADD DUP1 DUP1 PUSH1 0x20 ADD DUP3 DUP2 SUB DUP3 MSTORE PUSH1 0x10 DUP2 MSTORE PUSH1 0x20 ADD DUP1 PUSH32 0x414C52454144595F474F5645524E4F5200000000000000000000000000000000 DUP2 MSTORE POP PUSH1 0x20 ADD SWAP2 POP POP PUSH1 0x40 MLOAD DUP1 SWAP2 SUB SWAP1 REVERT JUMPDEST DUP2 DUP2 PUSH1 0x1 ADD PUSH1 0x0 PUSH2 0x100 EXP DUP2 SLOAD DUP2 PUSH20 0xFFFFFFFFFFFFFFFFFFFFFFFFFFFFFFFFFFFFFFFF MUL NOT AND SWAP1 DUP4 PUSH20 0xFFFFFFFFFFFFFFFFFFFFFFFFFFFFFFFFFFFFFFFF AND MUL OR SWAP1 SSTORE POP PUSH32 0x6166272C8D3F5F579082F2827532732F97195007983BB5B83AC12C56700B01A6 DUP3 PUSH1 0x40 MLOAD DUP1 DUP3 PUSH20 0xFFFFFFFFFFFFFFFFFFFFFFFFFFFFFFFFFFFFFFFF AND DUP2 MSTORE PUSH1 0x20 ADD SWAP2 POP POP PUSH1 0x40 MLOAD DUP1 SWAP2 SUB SWAP1 LOG1 POP POP JUMP JUMPDEST PUSH2 0x6CA CALLER PUSH2 0x3CC JUMP JUMPDEST PUSH2 0x73C JUMPI PUSH1 0x40 MLOAD PUSH32 0x8C379A000000000000000000000000000000000000000000000000000000000 DUP2 MSTORE PUSH1 0x4 ADD DUP1 DUP1 PUSH1 0x20 ADD DUP3 DUP2 SUB DUP3 MSTORE PUSH1 0xF DUP2 MSTORE PUSH1 0x20 ADD DUP1 PUSH32 0x4F4E4C595F474F5645524E414E43450000000000000000000000000000000000 DUP2 MSTORE POP PUSH1 0x20 ADD SWAP2 POP POP PUSH1 0x40 MLOAD DUP1 SWAP2 SUB SWAP1 REVERT JUMPDEST DUP1 PUSH20 0xFFFFFFFFFFFFFFFFFFFFFFFFFFFFFFFFFFFFFFFF AND CALLER PUSH20 0xFFFFFFFFFFFFFFFFFFFFFFFFFFFFFFFFFFFFFFFF AND EQ ISZERO PUSH2 0x7DE JUMPI PUSH1 0x40 MLOAD PUSH32 0x8C379A000000000000000000000000000000000000000000000000000000000 DUP2 MSTORE PUSH1 0x4 ADD DUP1 DUP1 PUSH1 0x20 ADD DUP3 DUP2 SUB DUP3 MSTORE PUSH1 0x14 DUP2 MSTORE PUSH1 0x20 ADD DUP1 PUSH32 0x474F5645524E4F525F53454C465F52454D4F5645000000000000000000000000 DUP2 MSTORE POP PUSH1 0x20 ADD SWAP2 POP POP PUSH1 0x40 MLOAD DUP1 SWAP2 SUB SWAP1 REVERT JUMPDEST PUSH1 0x0 PUSH2 0x7E8 PUSH2 0x910 JUMP JUMPDEST SWAP1 POP PUSH2 0x7F3 DUP3 PUSH2 0x3CC JUMP JUMPDEST PUSH2 0x865 JUMPI PUSH1 0x40 MLOAD PUSH32 0x8C379A000000000000000000000000000000000000000000000000000000000 DUP2 MSTORE PUSH1 0x4 ADD DUP1 DUP1 PUSH1 0x20 ADD DUP3 DUP2 SUB DUP3 MSTORE PUSH1 0xC DUP2 MSTORE PUSH1 0x20 ADD DUP1 PUSH32 0x4E4F545F474F5645524E4F520000000000000000000000000000000000000000 DUP2 MSTORE POP PUSH1 0x20 ADD SWAP2 POP POP PUSH1 0x40 MLOAD DUP1 SWAP2 SUB SWAP1 REVERT JUMPDEST PUSH1 0x0 DUP2 PUSH1 0x0 ADD PUSH1 0x0 DUP5 PUSH20 0xFFFFFFFFFFFFFFFFFFFFFFFFFFFFFFFFFFFFFFFF AND PUSH20 0xFFFFFFFFFFFFFFFFFFFFFFFFFFFFFFFFFFFFFFFF AND DUP2 MSTORE PUSH1 0x20 ADD SWAP1 DUP2 MSTORE PUSH1 0x20 ADD PUSH1 0x0 KECCAK256 PUSH1 0x0 PUSH2 0x100 EXP DUP2 SLOAD DUP2 PUSH1 0xFF MUL NOT AND SWAP1 DUP4 ISZERO ISZERO MUL OR SWAP1 SSTORE POP PUSH32 0xD75F94825E770B8B512BE8E74759E252AD00E102E38F50CCE2F7C6F868A29599 DUP3 PUSH1 0x40 MLOAD DUP1 DUP3 PUSH20 0xFFFFFFFFFFFFFFFFFFFFFFFFFFFFFFFFFFFFFFFF AND DUP2 MSTORE PUSH1 0x20 ADD SWAP2 POP POP PUSH1 0x40 MLOAD DUP1 SWAP2 SUB SWAP1 LOG1 POP POP JUMP JUMPDEST PUSH1 0x0 PUSH1 0x60 PUSH2 0x91C PUSH2 0xAFC JUMP JUMPDEST SWAP1 POP PUSH1 0x0 DUP1 DUP3 PUSH1 0x40 MLOAD DUP1 DUP3 DUP1 MLOAD SWAP1 PUSH1 0x20 ADD SWAP1 DUP1 DUP4 DUP4 JUMPDEST PUSH1 0x20 DUP4 LT PUSH2 0x955 JUMPI DUP1 MLOAD DUP3 MSTORE PUSH1 0x20 DUP3 ADD SWAP2 POP PUSH1 0x20 DUP2 ADD SWAP1 POP PUSH1 0x20 DUP4 SUB SWAP3 POP PUSH2 0x932 JUMP JUMPDEST PUSH1 0x1 DUP4 PUSH1 0x20 SUB PUSH2 0x100 EXP SUB DUP1 NOT DUP3 MLOAD AND DUP2 DUP5 MLOAD AND DUP1 DUP3 OR DUP6 MSTORE POP POP POP POP POP POP SWAP1 POP ADD SWAP2 POP POP SWAP1 DUP2 MSTORE PUSH1 0x20 ADD PUSH1 0x40 MLOAD DUP1 SWAP2 SUB SWAP1 KECCAK256 SWAP1 POP DUP1 PUSH1 0x1 ADD PUSH1 0x14 SWAP1 SLOAD SWAP1 PUSH2 0x100 EXP SWAP1 DIV PUSH1 0xFF AND PUSH2 0xA0E JUMPI PUSH1 0x40 MLOAD PUSH32 0x8C379A000000000000000000000000000000000000000000000000000000000 DUP2 MSTORE PUSH1 0x4 ADD DUP1 DUP1 PUSH1 0x20 ADD DUP3 DUP2 SUB DUP3 MSTORE PUSH1 0xF DUP2 MSTORE PUSH1 0x20 ADD DUP1 PUSH32 0x4E4F545F494E495449414C495A45440000000000000000000000000000000000 DUP2 MSTORE POP PUSH1 0x20 ADD SWAP2 POP POP PUSH1 0x40 MLOAD DUP1 SWAP2 SUB SWAP1 REVERT JUMPDEST DUP1 SWAP3 POP POP POP SWAP1 JUMP JUMPDEST PUSH2 0xA1F DUP2 PUSH2 0x3CC JUMP JUMPDEST ISZERO PUSH2 0xA92 JUMPI PUSH1 0x40 MLOAD PUSH32 0x8C379A000000000000000000000000000000000000000000000000000000000 DUP2 MSTORE PUSH1 0x4 ADD DUP1 DUP1 PUSH1 0x20 ADD DUP3 DUP2 SUB DUP3 MSTORE PUSH1 0x10 DUP2 MSTORE PUSH1 0x20 ADD DUP1 PUSH32 0x414C52454144595F474F5645524E4F5200000000000000000000000000000000 DUP2 MSTORE POP PUSH1 0x20 ADD SWAP2 POP POP PUSH1 0x40 MLOAD DUP1 SWAP2 SUB SWAP1 REVERT JUMPDEST PUSH1 0x0 PUSH2 0xA9C PUSH2 0x910 JUMP JUMPDEST SWAP1 POP PUSH1 0x1 DUP2 PUSH1 0x0 ADD PUSH1 0x0 DUP5 PUSH20 0xFFFFFFFFFFFFFFFFFFFFFFFFFFFFFFFFFFFFFFFF AND PUSH20 0xFFFFFFFFFFFFFFFFFFFFFFFFFFFFFFFFFFFFFFFF AND DUP2 MSTORE PUSH1 0x20 ADD SWAP1 DUP2 MSTORE PUSH1 0x20 ADD PUSH1 0x0 KECCAK256 PUSH1 0x0 PUSH2 0x100 EXP DUP2 SLOAD DUP2 PUSH1 0xFF MUL NOT AND SWAP1 DUP4 ISZERO ISZERO MUL OR SWAP1 SSTORE POP POP POP JUMP JUMPDEST PUSH1 0x60 PUSH1 0x40 MLOAD DUP1 PUSH1 0x60 ADD PUSH1 0x40 MSTORE DUP1 PUSH1 0x26 DUP2 MSTORE PUSH1 0x20 ADD PUSH2 0xB1D PUSH1 0x26 SWAP2 CODECOPY SWAP1 POP SWAP1 JUMP INVALID MSTORE8 PUSH21 0x61726B45782E4D61696E2E323031392E476F766572 PUSH15 0x6F7273496E666F726D6174696F6EA2 PUSH5 0x6970667358 0x22 SLT KECCAK256 0xB3 RETURNDATASIZE 0x5C PUSH13 0x2D7043F9B1B5D9CE6BF8AAD54F ADD TIMESTAMP 0xAF DIV XOR 0xF8 OR 0x4F 0xB6 0x2E 0xAC CREATE2 AND 0xD5 0xE8 PUSH5 0x736F6C6343 STOP MOD 0xC STOP CALLER "
				},
				"gasEstimates": {
					"creation": {
						"codeDepositCost": "587200",
						"executionCost": "619",
						"totalCost": "587819"
					},
					"external": {
						"MAIN_GOVERNANCE_INFO_TAG()": "infinite",
						"mainAcceptGovernance()": "infinite",
						"mainCancelNomination()": "infinite",
						"mainIsGovernor(address)": "infinite",
						"mainNominateNewGovernor(address)": "infinite",
						"mainRemoveGovernor(address)": "infinite"
					},
					"internal": {
						"getGovernanceTag()": "infinite"
					}
				},
				"methodIdentifiers": {
					"MAIN_GOVERNANCE_INFO_TAG()": "c23b60ef",
					"mainAcceptGovernance()": "28700a15",
					"mainCancelNomination()": "72eb3688",
					"mainIsGovernor(address)": "45f5cd97",
					"mainNominateNewGovernor(address)": "8c4bce1c",
					"mainRemoveGovernor(address)": "a1cc921e"
				}
			},
			"userdoc": {
				"kind": "user",
				"methods": {},
				"notice": "The StarkEx contract is governed by one or more Governors of which the initial one is the deployer of the contract. A governor has the sole authority to perform the following operations: 1. Nominate additional governors (:sol:func:`mainNominateNewGovernor`) 2. Remove other governors (:sol:func:`mainRemoveGovernor`) 3. Add new :sol:mod:`Verifiers` and :sol:mod:`AvailabilityVerifiers` 4. Remove :sol:mod:`Verifiers` and :sol:mod:`AvailabilityVerifiers` after a timelock allows it 5. Nominate Operators (see :sol:mod:`Operator`) and Token Administrators (see :sol:mod:`TokenRegister`) Adding governors is performed in a two step procedure: 1. First, an existing governor nominates a new governor (:sol:func:`mainNominateNewGovernor`) 2. Then, the new governor must accept governance to become a governor (:sol:func:`mainAcceptGovernance`) This two step procedure ensures that a governor public key cannot be nominated unless there is an entity that has the corresponding private key. This is intended to prevent errors in the addition process. The governor private key should typically be held in a secure cold wallet.",
				"version": 1
			}
		}
	}
}