{
	"scalable-dex/contracts/src/starkex/interactions/StarkExForcedActionState.sol": {
		"StarkExForcedActionState": {
			"abi": [
				{
					"inputs": [],
					"name": "DEPOSIT_CANCEL_DELAY",
					"outputs": [
						{
							"internalType": "uint256",
							"name": "",
							"type": "uint256"
						}
					],
					"stateMutability": "view",
					"type": "function"
				},
				{
					"inputs": [],
					"name": "FREEZE_GRACE_PERIOD",
					"outputs": [
						{
							"internalType": "uint256",
							"name": "",
							"type": "uint256"
						}
					],
					"stateMutability": "view",
					"type": "function"
				},
				{
					"inputs": [],
					"name": "MAX_FORCED_ACTIONS_REQS_PER_BLOCK",
					"outputs": [
						{
							"internalType": "uint256",
							"name": "",
							"type": "uint256"
						}
					],
					"stateMutability": "view",
					"type": "function"
				},
				{
					"inputs": [],
					"name": "MAX_VERIFIER_COUNT",
					"outputs": [
						{
							"internalType": "uint256",
							"name": "",
							"type": "uint256"
						}
					],
					"stateMutability": "view",
					"type": "function"
				},
				{
					"inputs": [],
					"name": "UNFREEZE_DELAY",
					"outputs": [
						{
							"internalType": "uint256",
							"name": "",
							"type": "uint256"
						}
					],
					"stateMutability": "view",
					"type": "function"
				},
				{
					"inputs": [],
					"name": "VERIFIER_REMOVAL_DELAY",
					"outputs": [
						{
							"internalType": "uint256",
							"name": "",
							"type": "uint256"
						}
					],
					"stateMutability": "view",
					"type": "function"
				},
				{
					"inputs": [],
					"name": "defaultVaultWithdrawalLock",
					"outputs": [
						{
							"internalType": "uint256",
							"name": "",
							"type": "uint256"
						}
					],
					"stateMutability": "view",
					"type": "function"
				},
				{
					"inputs": [],
					"name": "getActionCount",
					"outputs": [
						{
							"internalType": "uint256",
							"name": "",
							"type": "uint256"
						}
					],
					"stateMutability": "view",
					"type": "function"
				},
				{
					"inputs": [
						{
							"internalType": "uint256",
							"name": "actionIndex",
							"type": "uint256"
						}
					],
					"name": "getActionHashByIndex",
					"outputs": [
						{
							"internalType": "bytes32",
							"name": "",
							"type": "bytes32"
						}
					],
					"stateMutability": "view",
					"type": "function"
				},
				{
					"inputs": [
						{
							"internalType": "uint256",
							"name": "starkKey",
							"type": "uint256"
						},
						{
							"internalType": "uint256",
							"name": "vaultId",
							"type": "uint256"
						}
					],
					"name": "getFullWithdrawalRequest",
					"outputs": [
						{
							"internalType": "uint256",
							"name": "res",
							"type": "uint256"
						}
					],
					"stateMutability": "view",
					"type": "function"
				},
				{
					"inputs": [],
					"name": "orderRegistryAddress",
					"outputs": [
						{
							"internalType": "address",
							"name": "",
							"type": "address"
						}
					],
					"stateMutability": "view",
					"type": "function"
				}
			],
			"devdoc": {
				"kind": "dev",
				"methods": {},
				"version": 1
			},
			"evm": {
				"assembly": "    /* \"scalable-dex/contracts/src/starkex/interactions/StarkExForcedActionState.sol\":253:1521  contract StarkExForcedActionState is StarkExStorage, ActionHash, MStarkExForcedActionState {... */\n  mstore(0x40, 0x80)\n  callvalue\n  dup1\n  iszero\n  tag_1\n  jumpi\n  0x00\n  dup1\n  revert\ntag_1:\n  pop\n  dataSize(sub_0)\n  dup1\n  dataOffset(sub_0)\n  0x00\n  codecopy\n  0x00\n  return\nstop\n\nsub_0: assembly {\n        /* \"scalable-dex/contracts/src/starkex/interactions/StarkExForcedActionState.sol\":253:1521  contract StarkExForcedActionState is StarkExStorage, ActionHash, MStarkExForcedActionState {... */\n      mstore(0x40, 0x80)\n      callvalue\n      dup1\n      iszero\n      tag_1\n      jumpi\n      0x00\n      dup1\n      revert\n    tag_1:\n      pop\n      jumpi(tag_2, lt(calldatasize, 0x04))\n      shr(0xe0, calldataload(0x00))\n      dup1\n      0x993f3639\n      gt\n      tag_14\n      jumpi\n      dup1\n      0x993f3639\n      eq\n      tag_8\n      jumpi\n      dup1\n      0x9c6a2837\n      eq\n      tag_9\n      jumpi\n      dup1\n      0xa45d7841\n      eq\n      tag_10\n      jumpi\n      dup1\n      0xb7663112\n      eq\n      tag_11\n      jumpi\n      dup1\n      0xe30a5cff\n      eq\n      tag_12\n      jumpi\n      dup1\n      0xe6de6282\n      eq\n      tag_13\n      jumpi\n      jump(tag_2)\n    tag_14:\n      dup1\n      0x717542\n      eq\n      tag_3\n      jumpi\n      dup1\n      0x296e2f37\n      eq\n      tag_4\n      jumpi\n      dup1\n      0x5e586cd1\n      eq\n      tag_5\n      jumpi\n      dup1\n      0x5eecd218\n      eq\n      tag_6\n      jumpi\n      dup1\n      0x77e84e0d\n      eq\n      tag_7\n      jumpi\n    tag_2:\n      0x00\n      dup1\n      revert\n        /* \"scalable-dex/contracts/src/libraries/LibConstants.sol\":650:702  uint256 public constant FREEZE_GRACE_PERIOD = 7 days */\n    tag_3:\n      tag_15\n      tag_16\n      jump\t// in\n    tag_15:\n      mload(0x40)\n      dup1\n      dup3\n      dup2\n      mstore\n      0x20\n      add\n      swap2\n      pop\n      pop\n      mload(0x40)\n      dup1\n      swap2\n      sub\n      swap1\n      return\n        /* \"scalable-dex/contracts/src/starkex/interactions/StarkExForcedActionState.sol\":903:1276  function getFullWithdrawalRequest(uint256 starkKey, uint256 vaultId)... */\n    tag_4:\n      tag_17\n      0x04\n      dup1\n      calldatasize\n      sub\n      0x40\n      dup2\n      lt\n      iszero\n      tag_18\n      jumpi\n      0x00\n      dup1\n      revert\n    tag_18:\n      dup2\n      add\n      swap1\n      dup1\n      dup1\n      calldataload\n      swap1\n      0x20\n      add\n      swap1\n      swap3\n      swap2\n      swap1\n      dup1\n      calldataload\n      swap1\n      0x20\n      add\n      swap1\n      swap3\n      swap2\n      swap1\n      pop\n      pop\n      pop\n      tag_19\n      jump\t// in\n    tag_17:\n      mload(0x40)\n      dup1\n      dup3\n      dup2\n      mstore\n      0x20\n      add\n      swap2\n      pop\n      pop\n      mload(0x40)\n      dup1\n      swap2\n      sub\n      swap1\n      return\n        /* \"scalable-dex/contracts/src/components/ActionHash.sol\":1564:1777  function getActionHashByIndex(uint256 actionIndex) external view returns (bytes32) {... */\n    tag_5:\n      tag_20\n      0x04\n      dup1\n      calldatasize\n      sub\n      0x20\n      dup2\n      lt\n      iszero\n      tag_21\n      jumpi\n      0x00\n      dup1\n      revert\n    tag_21:\n      dup2\n      add\n      swap1\n      dup1\n      dup1\n      calldataload\n      swap1\n      0x20\n      add\n      swap1\n      swap3\n      swap2\n      swap1\n      pop\n      pop\n      pop\n      tag_22\n      jump\t// in\n    tag_20:\n      mload(0x40)\n      dup1\n      dup3\n      dup2\n      mstore\n      0x20\n      add\n      swap2\n      pop\n      pop\n      mload(0x40)\n      dup1\n      swap2\n      sub\n      swap1\n      return\n        /* \"scalable-dex/contracts/src/components/ActionHash.sol\":1455:1558  function getActionCount() external view returns (uint256) {... */\n    tag_6:\n      tag_23\n      tag_24\n      jump\t// in\n    tag_23:\n      mload(0x40)\n      dup1\n      dup3\n      dup2\n      mstore\n      0x20\n      add\n      swap2\n      pop\n      pop\n      mload(0x40)\n      dup1\n      swap2\n      sub\n      swap1\n      return\n        /* \"scalable-dex/contracts/src/libraries/LibConstants.sol\":463:516  uint256 public constant DEPOSIT_CANCEL_DELAY = 2 days */\n    tag_7:\n      tag_25\n      tag_26\n      jump\t// in\n    tag_25:\n      mload(0x40)\n      dup1\n      dup3\n      dup2\n      mstore\n      0x20\n      add\n      swap2\n      pop\n      pop\n      mload(0x40)\n      dup1\n      swap2\n      sub\n      swap1\n      return\n        /* \"scalable-dex/contracts/src/libraries/LibConstants.sol\":877:926  uint256 public constant UNFREEZE_DELAY = 365 days */\n    tag_8:\n      tag_27\n      tag_28\n      jump\t// in\n    tag_27:\n      mload(0x40)\n      dup1\n      dup3\n      dup2\n      mstore\n      0x20\n      add\n      swap2\n      pop\n      pop\n      mload(0x40)\n      dup1\n      swap2\n      sub\n      swap1\n      return\n        /* \"scalable-dex/contracts/src/starkex/components/StarkExStorage.sol\":1285:1320  address public orderRegistryAddress */\n    tag_9:\n      tag_29\n      tag_30\n      jump\t// in\n    tag_29:\n      mload(0x40)\n      dup1\n      dup3\n      0xffffffffffffffffffffffffffffffffffffffff\n      and\n      dup2\n      mstore\n      0x20\n      add\n      swap2\n      pop\n      pop\n      mload(0x40)\n      dup1\n      swap2\n      sub\n      swap1\n      return\n        /* \"scalable-dex/contracts/src/starkex/components/StarkExStorage.sol\":1117:1158  uint256 public defaultVaultWithdrawalLock */\n    tag_10:\n      tag_31\n      tag_32\n      jump\t// in\n    tag_31:\n      mload(0x40)\n      dup1\n      dup3\n      dup2\n      mstore\n      0x20\n      add\n      swap2\n      pop\n      pop\n      mload(0x40)\n      dup1\n      swap2\n      sub\n      swap1\n      return\n        /* \"scalable-dex/contracts/src/libraries/LibConstants.sol\":1128:1208  uint256 public constant VERIFIER_REMOVAL_DELAY = FREEZE_GRACE_PERIOD + (21 days) */\n    tag_11:\n      tag_33\n      tag_34\n      jump\t// in\n    tag_33:\n      mload(0x40)\n      dup1\n      dup3\n      dup2\n      mstore\n      0x20\n      add\n      swap2\n      pop\n      pop\n      mload(0x40)\n      dup1\n      swap2\n      sub\n      swap1\n      return\n        /* \"scalable-dex/contracts/src/libraries/LibConstants.sol\":1696:1758  uint256 public constant MAX_FORCED_ACTIONS_REQS_PER_BLOCK = 10 */\n    tag_12:\n      tag_35\n      tag_36\n      jump\t// in\n    tag_35:\n      mload(0x40)\n      dup1\n      dup3\n      dup2\n      mstore\n      0x20\n      add\n      swap2\n      pop\n      pop\n      mload(0x40)\n      dup1\n      swap2\n      sub\n      swap1\n      return\n        /* \"scalable-dex/contracts/src/libraries/LibConstants.sol\":988:1044  uint256 public constant MAX_VERIFIER_COUNT = uint256(64) */\n    tag_13:\n      tag_37\n      tag_38\n      jump\t// in\n    tag_37:\n      mload(0x40)\n      dup1\n      dup3\n      dup2\n      mstore\n      0x20\n      add\n      swap2\n      pop\n      pop\n      mload(0x40)\n      dup1\n      swap2\n      sub\n      swap1\n      return\n        /* \"scalable-dex/contracts/src/libraries/LibConstants.sol\":650:702  uint256 public constant FREEZE_GRACE_PERIOD = 7 days */\n    tag_16:\n        /* \"scalable-dex/contracts/src/libraries/LibConstants.sol\":696:702  7 days */\n      0x093a80\n        /* \"scalable-dex/contracts/src/libraries/LibConstants.sol\":650:702  uint256 public constant FREEZE_GRACE_PERIOD = 7 days */\n      dup2\n      jump\t// out\n        /* \"scalable-dex/contracts/src/starkex/interactions/StarkExForcedActionState.sol\":903:1276  function getFullWithdrawalRequest(uint256 starkKey, uint256 vaultId)... */\n    tag_19:\n        /* \"scalable-dex/contracts/src/starkex/interactions/StarkExForcedActionState.sol\":1034:1045  uint256 res */\n      0x00\n        /* \"scalable-dex/contracts/src/starkex/interactions/StarkExForcedActionState.sol\":1206:1226  forcedActionRequests */\n      0x22\n        /* \"scalable-dex/contracts/src/starkex/interactions/StarkExForcedActionState.sol\":1206:1269  forcedActionRequests[fullWithdrawActionHash(starkKey, vaultId)] */\n      0x00\n        /* \"scalable-dex/contracts/src/starkex/interactions/StarkExForcedActionState.sol\":1227:1268  fullWithdrawActionHash(starkKey, vaultId) */\n      tag_40\n        /* \"scalable-dex/contracts/src/starkex/interactions/StarkExForcedActionState.sol\":1250:1258  starkKey */\n      dup6\n        /* \"scalable-dex/contracts/src/starkex/interactions/StarkExForcedActionState.sol\":1260:1267  vaultId */\n      dup6\n        /* \"scalable-dex/contracts/src/starkex/interactions/StarkExForcedActionState.sol\":1227:1249  fullWithdrawActionHash */\n      tag_41\n        /* \"scalable-dex/contracts/src/starkex/interactions/StarkExForcedActionState.sol\":1227:1268  fullWithdrawActionHash(starkKey, vaultId) */\n      jump\t// in\n    tag_40:\n        /* \"scalable-dex/contracts/src/starkex/interactions/StarkExForcedActionState.sol\":1206:1269  forcedActionRequests[fullWithdrawActionHash(starkKey, vaultId)] */\n      dup2\n      mstore\n      0x20\n      add\n      swap1\n      dup2\n      mstore\n      0x20\n      add\n      0x00\n      keccak256\n      sload\n        /* \"scalable-dex/contracts/src/starkex/interactions/StarkExForcedActionState.sol\":1200:1269  res = forcedActionRequests[fullWithdrawActionHash(starkKey, vaultId)] */\n      swap1\n      pop\n        /* \"scalable-dex/contracts/src/starkex/interactions/StarkExForcedActionState.sol\":903:1276  function getFullWithdrawalRequest(uint256 starkKey, uint256 vaultId)... */\n      swap3\n      swap2\n      pop\n      pop\n      jump\t// out\n        /* \"scalable-dex/contracts/src/components/ActionHash.sol\":1564:1777  function getActionHashByIndex(uint256 actionIndex) external view returns (bytes32) {... */\n    tag_22:\n        /* \"scalable-dex/contracts/src/components/ActionHash.sol\":1638:1645  bytes32 */\n      0x00\n        /* \"scalable-dex/contracts/src/components/ActionHash.sol\":1679:1693  actionHashList */\n      0x24\n        /* \"scalable-dex/contracts/src/components/ActionHash.sol\":1679:1700  actionHashList.length */\n      dup1\n      sload\n      swap1\n      pop\n        /* \"scalable-dex/contracts/src/components/ActionHash.sol\":1665:1676  actionIndex */\n      dup3\n        /* \"scalable-dex/contracts/src/components/ActionHash.sol\":1665:1700  actionIndex < actionHashList.length */\n      lt\n        /* \"scalable-dex/contracts/src/components/ActionHash.sol\":1657:1726  require(actionIndex < actionHashList.length, \"ACTION_INDEX_TOO_HIGH\") */\n      tag_43\n      jumpi\n      mload(0x40)\n      0x08c379a000000000000000000000000000000000000000000000000000000000\n      dup2\n      mstore\n      0x04\n      add\n      dup1\n      dup1\n      0x20\n      add\n      dup3\n      dup2\n      sub\n      dup3\n      mstore\n      0x15\n      dup2\n      mstore\n      0x20\n      add\n      dup1\n      0x414354494f4e5f494e4445585f544f4f5f484947480000000000000000000000\n      dup2\n      mstore\n      pop\n      0x20\n      add\n      swap2\n      pop\n      pop\n      mload(0x40)\n      dup1\n      swap2\n      sub\n      swap1\n      revert\n    tag_43:\n        /* \"scalable-dex/contracts/src/components/ActionHash.sol\":1743:1757  actionHashList */\n      0x24\n        /* \"scalable-dex/contracts/src/components/ActionHash.sol\":1758:1769  actionIndex */\n      dup3\n        /* \"scalable-dex/contracts/src/components/ActionHash.sol\":1743:1770  actionHashList[actionIndex] */\n      dup2\n      sload\n      dup2\n      lt\n      tag_44\n      jumpi\n      invalid\n    tag_44:\n      swap1\n      0x00\n      mstore\n      keccak256(0x00, 0x20)\n      add\n      sload\n        /* \"scalable-dex/contracts/src/components/ActionHash.sol\":1736:1770  return actionHashList[actionIndex] */\n      swap1\n      pop\n        /* \"scalable-dex/contracts/src/components/ActionHash.sol\":1564:1777  function getActionHashByIndex(uint256 actionIndex) external view returns (bytes32) {... */\n      swap2\n      swap1\n      pop\n      jump\t// out\n        /* \"scalable-dex/contracts/src/components/ActionHash.sol\":1455:1558  function getActionCount() external view returns (uint256) {... */\n    tag_24:\n        /* \"scalable-dex/contracts/src/components/ActionHash.sol\":1504:1511  uint256 */\n      0x00\n        /* \"scalable-dex/contracts/src/components/ActionHash.sol\":1530:1544  actionHashList */\n      0x24\n        /* \"scalable-dex/contracts/src/components/ActionHash.sol\":1530:1551  actionHashList.length */\n      dup1\n      sload\n      swap1\n      pop\n        /* \"scalable-dex/contracts/src/components/ActionHash.sol\":1523:1551  return actionHashList.length */\n      swap1\n      pop\n        /* \"scalable-dex/contracts/src/components/ActionHash.sol\":1455:1558  function getActionCount() external view returns (uint256) {... */\n      swap1\n      jump\t// out\n        /* \"scalable-dex/contracts/src/libraries/LibConstants.sol\":463:516  uint256 public constant DEPOSIT_CANCEL_DELAY = 2 days */\n    tag_26:\n        /* \"scalable-dex/contracts/src/libraries/LibConstants.sol\":510:516  2 days */\n      0x02a300\n        /* \"scalable-dex/contracts/src/libraries/LibConstants.sol\":463:516  uint256 public constant DEPOSIT_CANCEL_DELAY = 2 days */\n      dup2\n      jump\t// out\n        /* \"scalable-dex/contracts/src/libraries/LibConstants.sol\":877:926  uint256 public constant UNFREEZE_DELAY = 365 days */\n    tag_28:\n        /* \"scalable-dex/contracts/src/libraries/LibConstants.sol\":918:926  365 days */\n      0x01e13380\n        /* \"scalable-dex/contracts/src/libraries/LibConstants.sol\":877:926  uint256 public constant UNFREEZE_DELAY = 365 days */\n      dup2\n      jump\t// out\n        /* \"scalable-dex/contracts/src/starkex/components/StarkExStorage.sol\":1285:1320  address public orderRegistryAddress */\n    tag_30:\n      0x010000000000000004\n      0x00\n      swap1\n      sload\n      swap1\n      0x0100\n      exp\n      swap1\n      div\n      0xffffffffffffffffffffffffffffffffffffffff\n      and\n      dup2\n      jump\t// out\n        /* \"scalable-dex/contracts/src/starkex/components/StarkExStorage.sol\":1117:1158  uint256 public defaultVaultWithdrawalLock */\n    tag_32:\n      sload(0x010000000000000003)\n      dup2\n      jump\t// out\n        /* \"scalable-dex/contracts/src/libraries/LibConstants.sol\":1128:1208  uint256 public constant VERIFIER_REMOVAL_DELAY = FREEZE_GRACE_PERIOD + (21 days) */\n    tag_34:\n        /* \"scalable-dex/contracts/src/libraries/LibConstants.sol\":1200:1207  21 days */\n      0x1baf80\n        /* \"scalable-dex/contracts/src/libraries/LibConstants.sol\":696:702  7 days */\n      0x093a80\n        /* \"scalable-dex/contracts/src/libraries/LibConstants.sol\":1177:1208  FREEZE_GRACE_PERIOD + (21 days) */\n      add\n        /* \"scalable-dex/contracts/src/libraries/LibConstants.sol\":1128:1208  uint256 public constant VERIFIER_REMOVAL_DELAY = FREEZE_GRACE_PERIOD + (21 days) */\n      dup2\n      jump\t// out\n        /* \"scalable-dex/contracts/src/libraries/LibConstants.sol\":1696:1758  uint256 public constant MAX_FORCED_ACTIONS_REQS_PER_BLOCK = 10 */\n    tag_36:\n        /* \"scalable-dex/contracts/src/libraries/LibConstants.sol\":1756:1758  10 */\n      0x0a\n        /* \"scalable-dex/contracts/src/libraries/LibConstants.sol\":1696:1758  uint256 public constant MAX_FORCED_ACTIONS_REQS_PER_BLOCK = 10 */\n      dup2\n      jump\t// out\n        /* \"scalable-dex/contracts/src/libraries/LibConstants.sol\":988:1044  uint256 public constant MAX_VERIFIER_COUNT = uint256(64) */\n    tag_38:\n        /* \"scalable-dex/contracts/src/libraries/LibConstants.sol\":1041:1043  64 */\n      0x40\n        /* \"scalable-dex/contracts/src/libraries/LibConstants.sol\":988:1044  uint256 public constant MAX_VERIFIER_COUNT = uint256(64) */\n      dup2\n      jump\t// out\n        /* \"scalable-dex/contracts/src/starkex/interactions/StarkExForcedActionState.sol\":350:581  function fullWithdrawActionHash(uint256 starkKey, uint256 vaultId)... */\n    tag_41:\n        /* \"scalable-dex/contracts/src/starkex/interactions/StarkExForcedActionState.sol\":481:488  bytes32 */\n      0x00\n        /* \"scalable-dex/contracts/src/starkex/interactions/StarkExForcedActionState.sol\":511:574  getActionHash(\"FULL_WITHDRAWAL\", abi.encode(starkKey, vaultId)) */\n      tag_48\n      mload(0x40)\n      dup1\n      0x40\n      add\n      0x40\n      mstore\n      dup1\n      0x0f\n      dup2\n      mstore\n      0x20\n      add\n      0x46554c4c5f5749544844524157414c0000000000000000000000000000000000\n      dup2\n      mstore\n      pop\n        /* \"scalable-dex/contracts/src/starkex/interactions/StarkExForcedActionState.sol\":555:563  starkKey */\n      dup5\n        /* \"scalable-dex/contracts/src/starkex/interactions/StarkExForcedActionState.sol\":565:572  vaultId */\n      dup5\n        /* \"scalable-dex/contracts/src/starkex/interactions/StarkExForcedActionState.sol\":544:573  abi.encode(starkKey, vaultId) */\n      add(0x20, mload(0x40))\n      dup1\n      dup4\n      dup2\n      mstore\n      0x20\n      add\n      dup3\n      dup2\n      mstore\n      0x20\n      add\n      swap3\n      pop\n      pop\n      pop\n      mload(0x40)\n      0x20\n      dup2\n      dup4\n      sub\n      sub\n      dup2\n      mstore\n      swap1\n      0x40\n      mstore\n        /* \"scalable-dex/contracts/src/starkex/interactions/StarkExForcedActionState.sol\":511:524  getActionHash */\n      tag_49\n        /* \"scalable-dex/contracts/src/starkex/interactions/StarkExForcedActionState.sol\":511:574  getActionHash(\"FULL_WITHDRAWAL\", abi.encode(starkKey, vaultId)) */\n      jump\t// in\n    tag_48:\n        /* \"scalable-dex/contracts/src/starkex/interactions/StarkExForcedActionState.sol\":504:574  return getActionHash(\"FULL_WITHDRAWAL\", abi.encode(starkKey, vaultId)) */\n      swap1\n      pop\n        /* \"scalable-dex/contracts/src/starkex/interactions/StarkExForcedActionState.sol\":350:581  function fullWithdrawActionHash(uint256 starkKey, uint256 vaultId)... */\n      swap3\n      swap2\n      pop\n      pop\n      jump\t// out\n        /* \"scalable-dex/contracts/src/components/ActionHash.sol\":286:536  function getActionHash(string memory actionName, bytes memory packedActionParameters)... */\n    tag_49:\n        /* \"scalable-dex/contracts/src/components/ActionHash.sol\":419:437  bytes32 actionHash */\n      0x00\n        /* \"scalable-dex/contracts/src/components/ActionHash.sol\":493:503  actionName */\n      dup3\n        /* \"scalable-dex/contracts/src/components/ActionHash.sol\":505:527  packedActionParameters */\n      dup3\n        /* \"scalable-dex/contracts/src/components/ActionHash.sol\":476:528  abi.encodePacked(actionName, packedActionParameters) */\n      add(0x20, mload(0x40))\n      dup1\n      dup4\n      dup1\n      mload\n      swap1\n      0x20\n      add\n      swap1\n      dup1\n      dup4\n      dup4\n    tag_51:\n      0x20\n      dup4\n      lt\n      tag_53\n      jumpi\n      dup1\n      mload\n      dup3\n      mstore\n      0x20\n      dup3\n      add\n      swap2\n      pop\n      0x20\n      dup2\n      add\n      swap1\n      pop\n      0x20\n      dup4\n      sub\n      swap3\n      pop\n      jump(tag_51)\n    tag_53:\n      0x01\n      dup4\n      0x20\n      sub\n      0x0100\n      exp\n      sub\n      dup1\n      not\n      dup3\n      mload\n      and\n      dup2\n      dup5\n      mload\n      and\n      dup1\n      dup3\n      or\n      dup6\n      mstore\n      pop\n      pop\n      pop\n      pop\n      pop\n      pop\n      swap1\n      pop\n      add\n      dup3\n      dup1\n      mload\n      swap1\n      0x20\n      add\n      swap1\n      dup1\n      dup4\n      dup4\n    tag_54:\n      0x20\n      dup4\n      lt\n      tag_56\n      jumpi\n      dup1\n      mload\n      dup3\n      mstore\n      0x20\n      dup3\n      add\n      swap2\n      pop\n      0x20\n      dup2\n      add\n      swap1\n      pop\n      0x20\n      dup4\n      sub\n      swap3\n      pop\n      jump(tag_54)\n    tag_56:\n      0x01\n      dup4\n      0x20\n      sub\n      0x0100\n      exp\n      sub\n      dup1\n      not\n      dup3\n      mload\n      and\n      dup2\n      dup5\n      mload\n      and\n      dup1\n      dup3\n      or\n      dup6\n      mstore\n      pop\n      pop\n      pop\n      pop\n      pop\n      pop\n      swap1\n      pop\n      add\n      swap3\n      pop\n      pop\n      pop\n      mload(0x40)\n      0x20\n      dup2\n      dup4\n      sub\n      sub\n      dup2\n      mstore\n      swap1\n      0x40\n      mstore\n        /* \"scalable-dex/contracts/src/components/ActionHash.sol\":466:529  keccak256(abi.encodePacked(actionName, packedActionParameters)) */\n      dup1\n      mload\n      swap1\n      0x20\n      add\n      keccak256\n        /* \"scalable-dex/contracts/src/components/ActionHash.sol\":453:529  actionHash = keccak256(abi.encodePacked(actionName, packedActionParameters)) */\n      swap1\n      pop\n        /* \"scalable-dex/contracts/src/components/ActionHash.sol\":286:536  function getActionHash(string memory actionName, bytes memory packedActionParameters)... */\n      swap3\n      swap2\n      pop\n      pop\n      jump\t// out\n\n    auxdata: 0xa264697066735822122033c02ec8777f03ca27c9e2a71b97fafd4c9a944aa8d79c78dcca008be45ab07f64736f6c634300060c0033\n}\n",
				"bytecode": {
					"linkReferences": {},
					"object": "608060405234801561001057600080fd5b5061050b806100206000396000f3fe608060405234801561001057600080fd5b50600436106100a85760003560e01c8063993f363911610071578063993f3639146101955780639c6a2837146101b3578063a45d7841146101e7578063b766311214610205578063e30a5cff14610223578063e6de628214610241576100a8565b8062717542146100ad578063296e2f37146100cb5780635e586cd1146101175780635eecd2181461015957806377e84e0d14610177575b600080fd5b6100b561025f565b6040518082815260200191505060405180910390f35b610101600480360360408110156100e157600080fd5b810190808035906020019092919080359060200190929190505050610266565b6040518082815260200191505060405180910390f35b6101436004803603602081101561012d57600080fd5b810190808035906020019092919050505061028d565b6040518082815260200191505060405180910390f35b610161610328565b6040518082815260200191505060405180910390f35b61017f610335565b6040518082815260200191505060405180910390f35b61019d61033c565b6040518082815260200191505060405180910390f35b6101bb610344565b604051808273ffffffffffffffffffffffffffffffffffffffff16815260200191505060405180910390f35b6101ef610372565b6040518082815260200191505060405180910390f35b61020d610380565b6040518082815260200191505060405180910390f35b61022b61038c565b6040518082815260200191505060405180910390f35b610249610391565b6040518082815260200191505060405180910390f35b62093a8081565b6000602260006102768585610396565b815260200190815260200160002054905092915050565b60006024805490508210610309576040517f08c379a00000000000000000000000000000000000000000000000000000000081526004018080602001828103825260158152602001807f414354494f4e5f494e4445585f544f4f5f48494748000000000000000000000081525060200191505060405180910390fd5b6024828154811061031657fe5b90600052602060002001549050919050565b6000602480549050905090565b6202a30081565b6301e1338081565b6801000000000000000460009054906101000a900473ffffffffffffffffffffffffffffffffffffffff1681565b680100000000000000035481565b621baf8062093a800181565b600a81565b604081565b60006103fe6040518060400160405280600f81526020017f46554c4c5f5749544844524157414c000000000000000000000000000000000081525084846040516020018083815260200182815260200192505050604051602081830303815290604052610406565b905092915050565b600082826040516020018083805190602001908083835b60208310610440578051825260208201915060208101905060208303925061041d565b6001836020036101000a03801982511681845116808217855250505050505090500182805190602001908083835b60208310610491578051825260208201915060208101905060208303925061046e565b6001836020036101000a038019825116818451168082178552505050505050905001925050506040516020818303038152906040528051906020012090509291505056fea264697066735822122033c02ec8777f03ca27c9e2a71b97fafd4c9a944aa8d79c78dcca008be45ab07f64736f6c634300060c0033",
					"opcodes": "PUSH1 0x80 PUSH1 0x40 MSTORE CALLVALUE DUP1 ISZERO PUSH2 0x10 JUMPI PUSH1 0x0 DUP1 REVERT JUMPDEST POP PUSH2 0x50B DUP1 PUSH2 0x20 PUSH1 0x0 CODECOPY PUSH1 0x0 RETURN INVALID PUSH1 0x80 PUSH1 0x40 MSTORE CALLVALUE DUP1 ISZERO PUSH2 0x10 JUMPI PUSH1 0x0 DUP1 REVERT JUMPDEST POP PUSH1 0x4 CALLDATASIZE LT PUSH2 0xA8 JUMPI PUSH1 0x0 CALLDATALOAD PUSH1 0xE0 SHR DUP1 PUSH4 0x993F3639 GT PUSH2 0x71 JUMPI DUP1 PUSH4 0x993F3639 EQ PUSH2 0x195 JUMPI DUP1 PUSH4 0x9C6A2837 EQ PUSH2 0x1B3 JUMPI DUP1 PUSH4 0xA45D7841 EQ PUSH2 0x1E7 JUMPI DUP1 PUSH4 0xB7663112 EQ PUSH2 0x205 JUMPI DUP1 PUSH4 0xE30A5CFF EQ PUSH2 0x223 JUMPI DUP1 PUSH4 0xE6DE6282 EQ PUSH2 0x241 JUMPI PUSH2 0xA8 JUMP JUMPDEST DUP1 PUSH3 0x717542 EQ PUSH2 0xAD JUMPI DUP1 PUSH4 0x296E2F37 EQ PUSH2 0xCB JUMPI DUP1 PUSH4 0x5E586CD1 EQ PUSH2 0x117 JUMPI DUP1 PUSH4 0x5EECD218 EQ PUSH2 0x159 JUMPI DUP1 PUSH4 0x77E84E0D EQ PUSH2 0x177 JUMPI JUMPDEST PUSH1 0x0 DUP1 REVERT JUMPDEST PUSH2 0xB5 PUSH2 0x25F JUMP JUMPDEST PUSH1 0x40 MLOAD DUP1 DUP3 DUP2 MSTORE PUSH1 0x20 ADD SWAP2 POP POP PUSH1 0x40 MLOAD DUP1 SWAP2 SUB SWAP1 RETURN JUMPDEST PUSH2 0x101 PUSH1 0x4 DUP1 CALLDATASIZE SUB PUSH1 0x40 DUP2 LT ISZERO PUSH2 0xE1 JUMPI PUSH1 0x0 DUP1 REVERT JUMPDEST DUP2 ADD SWAP1 DUP1 DUP1 CALLDATALOAD SWAP1 PUSH1 0x20 ADD SWAP1 SWAP3 SWAP2 SWAP1 DUP1 CALLDATALOAD SWAP1 PUSH1 0x20 ADD SWAP1 SWAP3 SWAP2 SWAP1 POP POP POP PUSH2 0x266 JUMP JUMPDEST PUSH1 0x40 MLOAD DUP1 DUP3 DUP2 MSTORE PUSH1 0x20 ADD SWAP2 POP POP PUSH1 0x40 MLOAD DUP1 SWAP2 SUB SWAP1 RETURN JUMPDEST PUSH2 0x143 PUSH1 0x4 DUP1 CALLDATASIZE SUB PUSH1 0x20 DUP2 LT ISZERO PUSH2 0x12D JUMPI PUSH1 0x0 DUP1 REVERT JUMPDEST DUP2 ADD SWAP1 DUP1 DUP1 CALLDATALOAD SWAP1 PUSH1 0x20 ADD SWAP1 SWAP3 SWAP2 SWAP1 POP POP POP PUSH2 0x28D JUMP JUMPDEST PUSH1 0x40 MLOAD DUP1 DUP3 DUP2 MSTORE PUSH1 0x20 ADD SWAP2 POP POP PUSH1 0x40 MLOAD DUP1 SWAP2 SUB SWAP1 RETURN JUMPDEST PUSH2 0x161 PUSH2 0x328 JUMP JUMPDEST PUSH1 0x40 MLOAD DUP1 DUP3 DUP2 MSTORE PUSH1 0x20 ADD SWAP2 POP POP PUSH1 0x40 MLOAD DUP1 SWAP2 SUB SWAP1 RETURN JUMPDEST PUSH2 0x17F PUSH2 0x335 JUMP JUMPDEST PUSH1 0x40 MLOAD DUP1 DUP3 DUP2 MSTORE PUSH1 0x20 ADD SWAP2 POP POP PUSH1 0x40 MLOAD DUP1 SWAP2 SUB SWAP1 RETURN JUMPDEST PUSH2 0x19D PUSH2 0x33C JUMP JUMPDEST PUSH1 0x40 MLOAD DUP1 DUP3 DUP2 MSTORE PUSH1 0x20 ADD SWAP2 POP POP PUSH1 0x40 MLOAD DUP1 SWAP2 SUB SWAP1 RETURN JUMPDEST PUSH2 0x1BB PUSH2 0x344 JUMP JUMPDEST PUSH1 0x40 MLOAD DUP1 DUP3 PUSH20 0xFFFFFFFFFFFFFFFFFFFFFFFFFFFFFFFFFFFFFFFF AND DUP2 MSTORE PUSH1 0x20 ADD SWAP2 POP POP PUSH1 0x40 MLOAD DUP1 SWAP2 SUB SWAP1 RETURN JUMPDEST PUSH2 0x1EF PUSH2 0x372 JUMP JUMPDEST PUSH1 0x40 MLOAD DUP1 DUP3 DUP2 MSTORE PUSH1 0x20 ADD SWAP2 POP POP PUSH1 0x40 MLOAD DUP1 SWAP2 SUB SWAP1 RETURN JUMPDEST PUSH2 0x20D PUSH2 0x380 JUMP JUMPDEST PUSH1 0x40 MLOAD DUP1 DUP3 DUP2 MSTORE PUSH1 0x20 ADD SWAP2 POP POP PUSH1 0x40 MLOAD DUP1 SWAP2 SUB SWAP1 RETURN JUMPDEST PUSH2 0x22B PUSH2 0x38C JUMP JUMPDEST PUSH1 0x40 MLOAD DUP1 DUP3 DUP2 MSTORE PUSH1 0x20 ADD SWAP2 POP POP PUSH1 0x40 MLOAD DUP1 SWAP2 SUB SWAP1 RETURN JUMPDEST PUSH2 0x249 PUSH2 0x391 JUMP JUMPDEST PUSH1 0x40 MLOAD DUP1 DUP3 DUP2 MSTORE PUSH1 0x20 ADD SWAP2 POP POP PUSH1 0x40 MLOAD DUP1 SWAP2 SUB SWAP1 RETURN JUMPDEST PUSH3 0x93A80 DUP2 JUMP JUMPDEST PUSH1 0x0 PUSH1 0x22 PUSH1 0x0 PUSH2 0x276 DUP6 DUP6 PUSH2 0x396 JUMP JUMPDEST DUP2 MSTORE PUSH1 0x20 ADD SWAP1 DUP2 MSTORE PUSH1 0x20 ADD PUSH1 0x0 KECCAK256 SLOAD SWAP1 POP SWAP3 SWAP2 POP POP JUMP JUMPDEST PUSH1 0x0 PUSH1 0x24 DUP1 SLOAD SWAP1 POP DUP3 LT PUSH2 0x309 JUMPI PUSH1 0x40 MLOAD PUSH32 0x8C379A000000000000000000000000000000000000000000000000000000000 DUP2 MSTORE PUSH1 0x4 ADD DUP1 DUP1 PUSH1 0x20 ADD DUP3 DUP2 SUB DUP3 MSTORE PUSH1 0x15 DUP2 MSTORE PUSH1 0x20 ADD DUP1 PUSH32 0x414354494F4E5F494E4445585F544F4F5F484947480000000000000000000000 DUP2 MSTORE POP PUSH1 0x20 ADD SWAP2 POP POP PUSH1 0x40 MLOAD DUP1 SWAP2 SUB SWAP1 REVERT JUMPDEST PUSH1 0x24 DUP3 DUP2 SLOAD DUP2 LT PUSH2 0x316 JUMPI INVALID JUMPDEST SWAP1 PUSH1 0x0 MSTORE PUSH1 0x20 PUSH1 0x0 KECCAK256 ADD SLOAD SWAP1 POP SWAP2 SWAP1 POP JUMP JUMPDEST PUSH1 0x0 PUSH1 0x24 DUP1 SLOAD SWAP1 POP SWAP1 POP SWAP1 JUMP JUMPDEST PUSH3 0x2A300 DUP2 JUMP JUMPDEST PUSH4 0x1E13380 DUP2 JUMP JUMPDEST PUSH9 0x10000000000000004 PUSH1 0x0 SWAP1 SLOAD SWAP1 PUSH2 0x100 EXP SWAP1 DIV PUSH20 0xFFFFFFFFFFFFFFFFFFFFFFFFFFFFFFFFFFFFFFFF AND DUP2 JUMP JUMPDEST PUSH9 0x10000000000000003 SLOAD DUP2 JUMP JUMPDEST PUSH3 0x1BAF80 PUSH3 0x93A80 ADD DUP2 JUMP JUMPDEST PUSH1 0xA DUP2 JUMP JUMPDEST PUSH1 0x40 DUP2 JUMP JUMPDEST PUSH1 0x0 PUSH2 0x3FE PUSH1 0x40 MLOAD DUP1 PUSH1 0x40 ADD PUSH1 0x40 MSTORE DUP1 PUSH1 0xF DUP2 MSTORE PUSH1 0x20 ADD PUSH32 0x46554C4C5F5749544844524157414C0000000000000000000000000000000000 DUP2 MSTORE POP DUP5 DUP5 PUSH1 0x40 MLOAD PUSH1 0x20 ADD DUP1 DUP4 DUP2 MSTORE PUSH1 0x20 ADD DUP3 DUP2 MSTORE PUSH1 0x20 ADD SWAP3 POP POP POP PUSH1 0x40 MLOAD PUSH1 0x20 DUP2 DUP4 SUB SUB DUP2 MSTORE SWAP1 PUSH1 0x40 MSTORE PUSH2 0x406 JUMP JUMPDEST SWAP1 POP SWAP3 SWAP2 POP POP JUMP JUMPDEST PUSH1 0x0 DUP3 DUP3 PUSH1 0x40 MLOAD PUSH1 0x20 ADD DUP1 DUP4 DUP1 MLOAD SWAP1 PUSH1 0x20 ADD SWAP1 DUP1 DUP4 DUP4 JUMPDEST PUSH1 0x20 DUP4 LT PUSH2 0x440 JUMPI DUP1 MLOAD DUP3 MSTORE PUSH1 0x20 DUP3 ADD SWAP2 POP PUSH1 0x20 DUP2 ADD SWAP1 POP PUSH1 0x20 DUP4 SUB SWAP3 POP PUSH2 0x41D JUMP JUMPDEST PUSH1 0x1 DUP4 PUSH1 0x20 SUB PUSH2 0x100 EXP SUB DUP1 NOT DUP3 MLOAD AND DUP2 DUP5 MLOAD AND DUP1 DUP3 OR DUP6 MSTORE POP POP POP POP POP POP SWAP1 POP ADD DUP3 DUP1 MLOAD SWAP1 PUSH1 0x20 ADD SWAP1 DUP1 DUP4 DUP4 JUMPDEST PUSH1 0x20 DUP4 LT PUSH2 0x491 JUMPI DUP1 MLOAD DUP3 MSTORE PUSH1 0x20 DUP3 ADD SWAP2 POP PUSH1 0x20 DUP2 ADD SWAP1 POP PUSH1 0x20 DUP4 SUB SWAP3 POP PUSH2 0x46E JUMP JUMPDEST PUSH1 0x1 DUP4 PUSH1 0x20 SUB PUSH2 0x100 EXP SUB DUP1 NOT DUP3 MLOAD AND DUP2 DUP5 MLOAD AND DUP1 DUP3 OR DUP6 MSTORE POP POP POP POP POP POP SWAP1 POP ADD SWAP3 POP POP POP PUSH1 0x40 MLOAD PUSH1 0x20 DUP2 DUP4 SUB SUB DUP2 MSTORE SWAP1 PUSH1 0x40 MSTORE DUP1 MLOAD SWAP1 PUSH1 0x20 ADD KECCAK256 SWAP1 POP SWAP3 SWAP2 POP POP JUMP INVALID LOG2 PUSH5 0x6970667358 0x22 SLT KECCAK256 CALLER 0xC0 0x2E 0xC8 PUSH24 0x7F03CA27C9E2A71B97FAFD4C9A944AA8D79C78DCCA008BE4 GAS 0xB0 PUSH32 0x64736F6C634300060C0033000000000000000000000000000000000000000000 "
				},
				"gasEstimates": {
					"creation": {
						"codeDepositCost": "258200",
						"executionCost": "300",
						"totalCost": "258500"
					},
					"external": {
						"DEPOSIT_CANCEL_DELAY()": "294",
						"FREEZE_GRACE_PERIOD()": "206",
						"MAX_FORCED_ACTIONS_REQS_PER_BLOCK()": "293",
						"MAX_VERIFIER_COUNT()": "315",
						"UNFREEZE_DELAY()": "205",
						"VERIFIER_REMOVAL_DELAY()": "277",
						"defaultVaultWithdrawalLock()": "1049",
						"getActionCount()": "1088",
						"getActionHashByIndex(uint256)": "2856",
						"getFullWithdrawalRequest(uint256,uint256)": "infinite",
						"orderRegistryAddress()": "1069"
					},
					"internal": {
						"clearFullWithdrawalRequest(uint256,uint256)": "infinite",
						"fullWithdrawActionHash(uint256,uint256)": "infinite",
						"setFullWithdrawalRequest(uint256,uint256)": "infinite"
					}
				},
				"methodIdentifiers": {
					"DEPOSIT_CANCEL_DELAY()": "77e84e0d",
					"FREEZE_GRACE_PERIOD()": "00717542",
					"MAX_FORCED_ACTIONS_REQS_PER_BLOCK()": "e30a5cff",
					"MAX_VERIFIER_COUNT()": "e6de6282",
					"UNFREEZE_DELAY()": "993f3639",
					"VERIFIER_REMOVAL_DELAY()": "b7663112",
					"defaultVaultWithdrawalLock()": "a45d7841",
					"getActionCount()": "5eecd218",
					"getActionHashByIndex(uint256)": "5e586cd1",
					"getFullWithdrawalRequest(uint256,uint256)": "296e2f37",
					"orderRegistryAddress()": "9c6a2837"
				}
			},
			"userdoc": {
				"kind": "user",
				"methods": {},
				"version": 1
			}
		}
	}
}