{
	"scalable-dex/contracts/src/starkex/toplevel_subcontracts/ForcedActions.sol": {
		"ForcedActions": {
			"abi": [
				{
					"anonymous": false,
					"inputs": [],
					"name": "LogFrozen",
					"type": "event"
				},
				{
					"anonymous": false,
					"inputs": [
						{
							"indexed": false,
							"internalType": "uint256",
							"name": "starkKey",
							"type": "uint256"
						},
						{
							"indexed": false,
							"internalType": "uint256",
							"name": "vaultId",
							"type": "uint256"
						}
					],
					"name": "LogFullWithdrawalRequest",
					"type": "event"
				},
				{
					"anonymous": false,
					"inputs": [
						{
							"indexed": false,
							"internalType": "address",
							"name": "acceptedGovernor",
							"type": "address"
						}
					],
					"name": "LogNewGovernorAccepted",
					"type": "event"
				},
				{
					"anonymous": false,
					"inputs": [
						{
							"indexed": false,
							"internalType": "address",
							"name": "nominatedGovernor",
							"type": "address"
						}
					],
					"name": "LogNominatedGovernor",
					"type": "event"
				},
				{
					"anonymous": false,
					"inputs": [],
					"name": "LogNominationCancelled",
					"type": "event"
				},
				{
					"anonymous": false,
					"inputs": [
						{
							"indexed": false,
							"internalType": "address",
							"name": "removedGovernor",
							"type": "address"
						}
					],
					"name": "LogRemovedGovernor",
					"type": "event"
				},
				{
					"anonymous": false,
					"inputs": [],
					"name": "LogUnFrozen",
					"type": "event"
				},
				{
					"inputs": [],
					"name": "DEPOSIT_CANCEL_DELAY",
					"outputs": [
						{
							"internalType": "uint256",
							"name": "",
							"type": "uint256"
						}
					],
					"stateMutability": "view",
					"type": "function"
				},
				{
					"inputs": [],
					"name": "FREEZE_GRACE_PERIOD",
					"outputs": [
						{
							"internalType": "uint256",
							"name": "",
							"type": "uint256"
						}
					],
					"stateMutability": "view",
					"type": "function"
				},
				{
					"inputs": [],
					"name": "MAIN_GOVERNANCE_INFO_TAG",
					"outputs": [
						{
							"internalType": "string",
							"name": "",
							"type": "string"
						}
					],
					"stateMutability": "view",
					"type": "function"
				},
				{
					"inputs": [],
					"name": "MAX_FORCED_ACTIONS_REQS_PER_BLOCK",
					"outputs": [
						{
							"internalType": "uint256",
							"name": "",
							"type": "uint256"
						}
					],
					"stateMutability": "view",
					"type": "function"
				},
				{
					"inputs": [],
					"name": "MAX_VERIFIER_COUNT",
					"outputs": [
						{
							"internalType": "uint256",
							"name": "",
							"type": "uint256"
						}
					],
					"stateMutability": "view",
					"type": "function"
				},
				{
					"inputs": [],
					"name": "STARKEX_MAX_DEFAULT_VAULT_LOCK",
					"outputs": [
						{
							"internalType": "uint256",
							"name": "",
							"type": "uint256"
						}
					],
					"stateMutability": "view",
					"type": "function"
				},
				{
					"inputs": [],
					"name": "UNFREEZE_DELAY",
					"outputs": [
						{
							"internalType": "uint256",
							"name": "",
							"type": "uint256"
						}
					],
					"stateMutability": "view",
					"type": "function"
				},
				{
					"inputs": [],
					"name": "VERIFIER_REMOVAL_DELAY",
					"outputs": [
						{
							"internalType": "uint256",
							"name": "",
							"type": "uint256"
						}
					],
					"stateMutability": "view",
					"type": "function"
				},
				{
					"inputs": [],
					"name": "defaultVaultWithdrawalLock",
					"outputs": [
						{
							"internalType": "uint256",
							"name": "",
							"type": "uint256"
						}
					],
					"stateMutability": "view",
					"type": "function"
				},
				{
					"inputs": [
						{
							"internalType": "uint256",
							"name": "starkKey",
							"type": "uint256"
						},
						{
							"internalType": "uint256",
							"name": "vaultId",
							"type": "uint256"
						}
					],
					"name": "freezeRequest",
					"outputs": [],
					"stateMutability": "nonpayable",
					"type": "function"
				},
				{
					"inputs": [
						{
							"internalType": "uint256",
							"name": "starkKey",
							"type": "uint256"
						},
						{
							"internalType": "uint256",
							"name": "vaultId",
							"type": "uint256"
						}
					],
					"name": "fullWithdrawalRequest",
					"outputs": [],
					"stateMutability": "nonpayable",
					"type": "function"
				},
				{
					"inputs": [],
					"name": "getActionCount",
					"outputs": [
						{
							"internalType": "uint256",
							"name": "",
							"type": "uint256"
						}
					],
					"stateMutability": "view",
					"type": "function"
				},
				{
					"inputs": [
						{
							"internalType": "uint256",
							"name": "actionIndex",
							"type": "uint256"
						}
					],
					"name": "getActionHashByIndex",
					"outputs": [
						{
							"internalType": "bytes32",
							"name": "",
							"type": "bytes32"
						}
					],
					"stateMutability": "view",
					"type": "function"
				},
				{
					"inputs": [
						{
							"internalType": "uint256",
							"name": "ownerKey",
							"type": "uint256"
						}
					],
					"name": "getEthKey",
					"outputs": [
						{
							"internalType": "address",
							"name": "",
							"type": "address"
						}
					],
					"stateMutability": "view",
					"type": "function"
				},
				{
					"inputs": [
						{
							"internalType": "uint256",
							"name": "starkKey",
							"type": "uint256"
						},
						{
							"internalType": "uint256",
							"name": "vaultId",
							"type": "uint256"
						}
					],
					"name": "getFullWithdrawalRequest",
					"outputs": [
						{
							"internalType": "uint256",
							"name": "res",
							"type": "uint256"
						}
					],
					"stateMutability": "view",
					"type": "function"
				},
				{
					"inputs": [],
					"name": "identify",
					"outputs": [
						{
							"internalType": "string",
							"name": "",
							"type": "string"
						}
					],
					"stateMutability": "pure",
					"type": "function"
				},
				{
					"inputs": [
						{
							"internalType": "bytes",
							"name": "",
							"type": "bytes"
						}
					],
					"name": "initialize",
					"outputs": [],
					"stateMutability": "nonpayable",
					"type": "function"
				},
				{
					"inputs": [],
					"name": "initializerSize",
					"outputs": [
						{
							"internalType": "uint256",
							"name": "",
							"type": "uint256"
						}
					],
					"stateMutability": "view",
					"type": "function"
				},
				{
					"inputs": [],
					"name": "isFrozen",
					"outputs": [
						{
							"internalType": "bool",
							"name": "",
							"type": "bool"
						}
					],
					"stateMutability": "view",
					"type": "function"
				},
				{
					"inputs": [],
					"name": "mainAcceptGovernance",
					"outputs": [],
					"stateMutability": "nonpayable",
					"type": "function"
				},
				{
					"inputs": [],
					"name": "mainCancelNomination",
					"outputs": [],
					"stateMutability": "nonpayable",
					"type": "function"
				},
				{
					"inputs": [
						{
							"internalType": "address",
							"name": "testGovernor",
							"type": "address"
						}
					],
					"name": "mainIsGovernor",
					"outputs": [
						{
							"internalType": "bool",
							"name": "",
							"type": "bool"
						}
					],
					"stateMutability": "view",
					"type": "function"
				},
				{
					"inputs": [
						{
							"internalType": "address",
							"name": "newGovernor",
							"type": "address"
						}
					],
					"name": "mainNominateNewGovernor",
					"outputs": [],
					"stateMutability": "nonpayable",
					"type": "function"
				},
				{
					"inputs": [
						{
							"internalType": "address",
							"name": "governorForRemoval",
							"type": "address"
						}
					],
					"name": "mainRemoveGovernor",
					"outputs": [],
					"stateMutability": "nonpayable",
					"type": "function"
				},
				{
					"inputs": [],
					"name": "orderRegistryAddress",
					"outputs": [
						{
							"internalType": "address",
							"name": "",
							"type": "address"
						}
					],
					"stateMutability": "view",
					"type": "function"
				},
				{
					"inputs": [],
					"name": "unFreeze",
					"outputs": [],
					"stateMutability": "nonpayable",
					"type": "function"
				}
			],
			"devdoc": {
				"kind": "dev",
				"methods": {},
				"version": 1
			},
			"evm": {
				"assembly": "    /* \"scalable-dex/contracts/src/starkex/toplevel_subcontracts/ForcedActions.sol\":342:845  contract ForcedActions is... */\n  mstore(0x40, 0x80)\n  callvalue\n  dup1\n  iszero\n  tag_1\n  jumpi\n  0x00\n  dup1\n  revert\ntag_1:\n  pop\n  dataSize(sub_0)\n  dup1\n  dataOffset(sub_0)\n  0x00\n  codecopy\n  0x00\n  return\nstop\n\nsub_0: assembly {\n        /* \"scalable-dex/contracts/src/starkex/toplevel_subcontracts/ForcedActions.sol\":342:845  contract ForcedActions is... */\n      mstore(0x40, 0x80)\n      callvalue\n      dup1\n      iszero\n      tag_1\n      jumpi\n      0x00\n      dup1\n      revert\n    tag_1:\n      pop\n      jumpi(tag_2, lt(calldatasize, 0x04))\n      shr(0xe0, calldataload(0x00))\n      dup1\n      0x835a71c3\n      gt\n      tag_29\n      jumpi\n      dup1\n      0xa45d7841\n      gt\n      tag_30\n      jumpi\n      dup1\n      0xc23b60ef\n      gt\n      tag_31\n      jumpi\n      dup1\n      0xc23b60ef\n      eq\n      tag_25\n      jumpi\n      dup1\n      0xe30a5cff\n      eq\n      tag_26\n      jumpi\n      dup1\n      0xe6de6282\n      eq\n      tag_27\n      jumpi\n      dup1\n      0xeeb72866\n      eq\n      tag_28\n      jumpi\n      jump(tag_2)\n    tag_31:\n      dup1\n      0xa45d7841\n      eq\n      tag_22\n      jumpi\n      dup1\n      0xa93310c4\n      eq\n      tag_23\n      jumpi\n      dup1\n      0xb7663112\n      eq\n      tag_24\n      jumpi\n      jump(tag_2)\n    tag_30:\n      dup1\n      0x835a71c3\n      eq\n      tag_16\n      jumpi\n      dup1\n      0x8c4bce1c\n      eq\n      tag_17\n      jumpi\n      dup1\n      0x93c1e466\n      eq\n      tag_18\n      jumpi\n      dup1\n      0x993f3639\n      eq\n      tag_19\n      jumpi\n      dup1\n      0x9c6a2837\n      eq\n      tag_20\n      jumpi\n      dup1\n      0xa1cc921e\n      eq\n      tag_21\n      jumpi\n      jump(tag_2)\n    tag_29:\n      dup1\n      0x439fab91\n      gt\n      tag_32\n      jumpi\n      dup1\n      0x5eecd218\n      gt\n      tag_33\n      jumpi\n      dup1\n      0x5eecd218\n      eq\n      tag_12\n      jumpi\n      dup1\n      0x72eb3688\n      eq\n      tag_13\n      jumpi\n      dup1\n      0x77e84e0d\n      eq\n      tag_14\n      jumpi\n      dup1\n      0x7cf12b90\n      eq\n      tag_15\n      jumpi\n      jump(tag_2)\n    tag_33:\n      dup1\n      0x439fab91\n      eq\n      tag_9\n      jumpi\n      dup1\n      0x45f5cd97\n      eq\n      tag_10\n      jumpi\n      dup1\n      0x5e586cd1\n      eq\n      tag_11\n      jumpi\n      jump(tag_2)\n    tag_32:\n      dup1\n      0x717542\n      eq\n      tag_3\n      jumpi\n      dup1\n      0x1dbd1da7\n      eq\n      tag_4\n      jumpi\n      dup1\n      0x28700a15\n      eq\n      tag_5\n      jumpi\n      dup1\n      0x296e2f37\n      eq\n      tag_6\n      jumpi\n      dup1\n      0x33eeb147\n      eq\n      tag_7\n      jumpi\n      dup1\n      0x3cc660ad\n      eq\n      tag_8\n      jumpi\n    tag_2:\n      0x00\n      dup1\n      revert\n        /* \"scalable-dex/contracts/src/libraries/LibConstants.sol\":650:702  uint256 public constant FREEZE_GRACE_PERIOD = 7 days */\n    tag_3:\n      tag_34\n      tag_35\n      jump\t// in\n    tag_34:\n      mload(0x40)\n      dup1\n      dup3\n      dup2\n      mstore\n      0x20\n      add\n      swap2\n      pop\n      pop\n      mload(0x40)\n      dup1\n      swap2\n      sub\n      swap1\n      return\n        /* \"scalable-dex/contracts/src/components/KeyGetters.sol\":876:1190  function getEthKey(uint256 ownerKey) public view override returns (address) {... */\n    tag_4:\n      tag_36\n      0x04\n      dup1\n      calldatasize\n      sub\n      0x20\n      dup2\n      lt\n      iszero\n      tag_37\n      jumpi\n      0x00\n      dup1\n      revert\n    tag_37:\n      dup2\n      add\n      swap1\n      dup1\n      dup1\n      calldataload\n      swap1\n      0x20\n      add\n      swap1\n      swap3\n      swap2\n      swap1\n      pop\n      pop\n      pop\n      tag_38\n      jump\t// in\n    tag_36:\n      mload(0x40)\n      dup1\n      dup3\n      0xffffffffffffffffffffffffffffffffffffffff\n      and\n      dup2\n      mstore\n      0x20\n      add\n      swap2\n      pop\n      pop\n      mload(0x40)\n      dup1\n      swap2\n      sub\n      swap1\n      return\n        /* \"scalable-dex/contracts/src/components/MainGovernance.sol\":2328:2404  function mainAcceptGovernance() external {... */\n    tag_5:\n      tag_39\n      tag_40\n      jump\t// in\n    tag_39:\n      stop\n        /* \"scalable-dex/contracts/src/starkex/interactions/StarkExForcedActionState.sol\":903:1276  function getFullWithdrawalRequest(uint256 starkKey, uint256 vaultId)... */\n    tag_6:\n      tag_41\n      0x04\n      dup1\n      calldatasize\n      sub\n      0x40\n      dup2\n      lt\n      iszero\n      tag_42\n      jumpi\n      0x00\n      dup1\n      revert\n    tag_42:\n      dup2\n      add\n      swap1\n      dup1\n      dup1\n      calldataload\n      swap1\n      0x20\n      add\n      swap1\n      swap3\n      swap2\n      swap1\n      dup1\n      calldataload\n      swap1\n      0x20\n      add\n      swap1\n      swap3\n      swap2\n      swap1\n      pop\n      pop\n      pop\n      tag_43\n      jump\t// in\n    tag_41:\n      mload(0x40)\n      dup1\n      dup3\n      dup2\n      mstore\n      0x20\n      add\n      swap2\n      pop\n      pop\n      mload(0x40)\n      dup1\n      swap2\n      sub\n      swap1\n      return\n        /* \"scalable-dex/contracts/src/components/Freezable.sol\":382:473  function isFrozen() public view override returns (bool) {... */\n    tag_7:\n      tag_44\n      tag_45\n      jump\t// in\n    tag_44:\n      mload(0x40)\n      dup1\n      dup3\n      iszero\n      iszero\n      dup2\n      mstore\n      0x20\n      add\n      swap2\n      pop\n      pop\n      mload(0x40)\n      dup1\n      swap2\n      sub\n      swap1\n      return\n        /* \"scalable-dex/contracts/src/starkex/toplevel_subcontracts/ForcedActions.sol\":621:714  function initializerSize() external view override returns (uint256) {... */\n    tag_8:\n      tag_46\n      tag_47\n      jump\t// in\n    tag_46:\n      mload(0x40)\n      dup1\n      dup3\n      dup2\n      mstore\n      0x20\n      add\n      swap2\n      pop\n      pop\n      mload(0x40)\n      dup1\n      swap2\n      sub\n      swap1\n      return\n        /* \"scalable-dex/contracts/src/starkex/toplevel_subcontracts/ForcedActions.sol\":494:615  function initialize(... */\n    tag_9:\n      tag_48\n      0x04\n      dup1\n      calldatasize\n      sub\n      0x20\n      dup2\n      lt\n      iszero\n      tag_49\n      jumpi\n      0x00\n      dup1\n      revert\n    tag_49:\n      dup2\n      add\n      swap1\n      dup1\n      dup1\n      calldataload\n      swap1\n      0x20\n      add\n      swap1\n      0x0100000000\n      dup2\n      gt\n      iszero\n      tag_50\n      jumpi\n      0x00\n      dup1\n      revert\n    tag_50:\n      dup3\n      add\n      dup4\n      0x20\n      dup3\n      add\n      gt\n      iszero\n      tag_51\n      jumpi\n      0x00\n      dup1\n      revert\n    tag_51:\n      dup1\n      calldataload\n      swap1\n      0x20\n      add\n      swap2\n      dup5\n      0x01\n      dup4\n      mul\n      dup5\n      add\n      gt\n      0x0100000000\n      dup4\n      gt\n      or\n      iszero\n      tag_52\n      jumpi\n      0x00\n      dup1\n      revert\n    tag_52:\n      swap1\n      swap2\n      swap3\n      swap4\n      swap2\n      swap3\n      swap4\n      swap1\n      pop\n      pop\n      pop\n      tag_53\n      jump\t// in\n    tag_48:\n      stop\n        /* \"scalable-dex/contracts/src/components/MainGovernance.sol\":1959:2082  function mainIsGovernor(address testGovernor) external view returns (bool) {... */\n    tag_10:\n      tag_54\n      0x04\n      dup1\n      calldatasize\n      sub\n      0x20\n      dup2\n      lt\n      iszero\n      tag_55\n      jumpi\n      0x00\n      dup1\n      revert\n    tag_55:\n      dup2\n      add\n      swap1\n      dup1\n      dup1\n      calldataload\n      0xffffffffffffffffffffffffffffffffffffffff\n      and\n      swap1\n      0x20\n      add\n      swap1\n      swap3\n      swap2\n      swap1\n      pop\n      pop\n      pop\n      tag_56\n      jump\t// in\n    tag_54:\n      mload(0x40)\n      dup1\n      dup3\n      iszero\n      iszero\n      dup2\n      mstore\n      0x20\n      add\n      swap2\n      pop\n      pop\n      mload(0x40)\n      dup1\n      swap2\n      sub\n      swap1\n      return\n        /* \"scalable-dex/contracts/src/components/ActionHash.sol\":1564:1777  function getActionHashByIndex(uint256 actionIndex) external view returns (bytes32) {... */\n    tag_11:\n      tag_57\n      0x04\n      dup1\n      calldatasize\n      sub\n      0x20\n      dup2\n      lt\n      iszero\n      tag_58\n      jumpi\n      0x00\n      dup1\n      revert\n    tag_58:\n      dup2\n      add\n      swap1\n      dup1\n      dup1\n      calldataload\n      swap1\n      0x20\n      add\n      swap1\n      swap3\n      swap2\n      swap1\n      pop\n      pop\n      pop\n      tag_59\n      jump\t// in\n    tag_57:\n      mload(0x40)\n      dup1\n      dup3\n      dup2\n      mstore\n      0x20\n      add\n      swap2\n      pop\n      pop\n      mload(0x40)\n      dup1\n      swap2\n      sub\n      swap1\n      return\n        /* \"scalable-dex/contracts/src/components/ActionHash.sol\":1455:1558  function getActionCount() external view returns (uint256) {... */\n    tag_12:\n      tag_60\n      tag_61\n      jump\t// in\n    tag_60:\n      mload(0x40)\n      dup1\n      dup3\n      dup2\n      mstore\n      0x20\n      add\n      swap2\n      pop\n      pop\n      mload(0x40)\n      dup1\n      swap2\n      sub\n      swap1\n      return\n        /* \"scalable-dex/contracts/src/components/MainGovernance.sol\":2410:2486  function mainCancelNomination() external {... */\n    tag_13:\n      tag_62\n      tag_63\n      jump\t// in\n    tag_62:\n      stop\n        /* \"scalable-dex/contracts/src/libraries/LibConstants.sol\":463:516  uint256 public constant DEPOSIT_CANCEL_DELAY = 2 days */\n    tag_14:\n      tag_64\n      tag_65\n      jump\t// in\n    tag_64:\n      mload(0x40)\n      dup1\n      dup3\n      dup2\n      mstore\n      0x20\n      add\n      swap2\n      pop\n      pop\n      mload(0x40)\n      dup1\n      swap2\n      sub\n      swap1\n      return\n        /* \"scalable-dex/contracts/src/components/Freezable.sol\":1292:1658  function unFreeze() external onlyFrozen onlyGovernance {... */\n    tag_15:\n      tag_66\n      tag_67\n      jump\t// in\n    tag_66:\n      stop\n        /* \"scalable-dex/contracts/src/starkex/StarkExConstants.sol\":275:338  uint256 public constant STARKEX_MAX_DEFAULT_VAULT_LOCK = 7 days */\n    tag_16:\n      tag_68\n      tag_69\n      jump\t// in\n    tag_68:\n      mload(0x40)\n      dup1\n      dup3\n      dup2\n      mstore\n      0x20\n      add\n      swap2\n      pop\n      pop\n      mload(0x40)\n      dup1\n      swap2\n      sub\n      swap1\n      return\n        /* \"scalable-dex/contracts/src/components/MainGovernance.sol\":2088:2200  function mainNominateNewGovernor(address newGovernor) external {... */\n    tag_17:\n      tag_70\n      0x04\n      dup1\n      calldatasize\n      sub\n      0x20\n      dup2\n      lt\n      iszero\n      tag_71\n      jumpi\n      0x00\n      dup1\n      revert\n    tag_71:\n      dup2\n      add\n      swap1\n      dup1\n      dup1\n      calldataload\n      0xffffffffffffffffffffffffffffffffffffffff\n      and\n      swap1\n      0x20\n      add\n      swap1\n      swap3\n      swap2\n      swap1\n      pop\n      pop\n      pop\n      tag_72\n      jump\t// in\n    tag_70:\n      stop\n        /* \"scalable-dex/contracts/src/starkex/interactions/FullWithdrawals.sol\":3397:3768  function freezeRequest(uint256 starkKey, uint256 vaultId) external notFrozen {... */\n    tag_18:\n      tag_73\n      0x04\n      dup1\n      calldatasize\n      sub\n      0x40\n      dup2\n      lt\n      iszero\n      tag_74\n      jumpi\n      0x00\n      dup1\n      revert\n    tag_74:\n      dup2\n      add\n      swap1\n      dup1\n      dup1\n      calldataload\n      swap1\n      0x20\n      add\n      swap1\n      swap3\n      swap2\n      swap1\n      dup1\n      calldataload\n      swap1\n      0x20\n      add\n      swap1\n      swap3\n      swap2\n      swap1\n      pop\n      pop\n      pop\n      tag_75\n      jump\t// in\n    tag_73:\n      stop\n        /* \"scalable-dex/contracts/src/libraries/LibConstants.sol\":877:926  uint256 public constant UNFREEZE_DELAY = 365 days */\n    tag_19:\n      tag_76\n      tag_77\n      jump\t// in\n    tag_76:\n      mload(0x40)\n      dup1\n      dup3\n      dup2\n      mstore\n      0x20\n      add\n      swap2\n      pop\n      pop\n      mload(0x40)\n      dup1\n      swap2\n      sub\n      swap1\n      return\n        /* \"scalable-dex/contracts/src/starkex/components/StarkExStorage.sol\":1285:1320  address public orderRegistryAddress */\n    tag_20:\n      tag_78\n      tag_79\n      jump\t// in\n    tag_78:\n      mload(0x40)\n      dup1\n      dup3\n      0xffffffffffffffffffffffffffffffffffffffff\n      and\n      dup2\n      mstore\n      0x20\n      add\n      swap2\n      pop\n      pop\n      mload(0x40)\n      dup1\n      swap2\n      sub\n      swap1\n      return\n        /* \"scalable-dex/contracts/src/components/MainGovernance.sol\":2206:2322  function mainRemoveGovernor(address governorForRemoval) external {... */\n    tag_21:\n      tag_80\n      0x04\n      dup1\n      calldatasize\n      sub\n      0x20\n      dup2\n      lt\n      iszero\n      tag_81\n      jumpi\n      0x00\n      dup1\n      revert\n    tag_81:\n      dup2\n      add\n      swap1\n      dup1\n      dup1\n      calldataload\n      0xffffffffffffffffffffffffffffffffffffffff\n      and\n      swap1\n      0x20\n      add\n      swap1\n      swap3\n      swap2\n      swap1\n      pop\n      pop\n      pop\n      tag_82\n      jump\t// in\n    tag_80:\n      stop\n        /* \"scalable-dex/contracts/src/starkex/components/StarkExStorage.sol\":1117:1158  uint256 public defaultVaultWithdrawalLock */\n    tag_22:\n      tag_83\n      tag_84\n      jump\t// in\n    tag_83:\n      mload(0x40)\n      dup1\n      dup3\n      dup2\n      mstore\n      0x20\n      add\n      swap2\n      pop\n      pop\n      mload(0x40)\n      dup1\n      swap2\n      sub\n      swap1\n      return\n        /* \"scalable-dex/contracts/src/starkex/interactions/FullWithdrawals.sol\":2950:3391  function fullWithdrawalRequest(uint256 starkKey, uint256 vaultId)... */\n    tag_23:\n      tag_85\n      0x04\n      dup1\n      calldatasize\n      sub\n      0x40\n      dup2\n      lt\n      iszero\n      tag_86\n      jumpi\n      0x00\n      dup1\n      revert\n    tag_86:\n      dup2\n      add\n      swap1\n      dup1\n      dup1\n      calldataload\n      swap1\n      0x20\n      add\n      swap1\n      swap3\n      swap2\n      swap1\n      dup1\n      calldataload\n      swap1\n      0x20\n      add\n      swap1\n      swap3\n      swap2\n      swap1\n      pop\n      pop\n      pop\n      tag_87\n      jump\t// in\n    tag_85:\n      stop\n        /* \"scalable-dex/contracts/src/libraries/LibConstants.sol\":1128:1208  uint256 public constant VERIFIER_REMOVAL_DELAY = FREEZE_GRACE_PERIOD + (21 days) */\n    tag_24:\n      tag_88\n      tag_89\n      jump\t// in\n    tag_88:\n      mload(0x40)\n      dup1\n      dup3\n      dup2\n      mstore\n      0x20\n      add\n      swap2\n      pop\n      pop\n      mload(0x40)\n      dup1\n      swap2\n      sub\n      swap1\n      return\n        /* \"scalable-dex/contracts/src/components/MainGovernance.sol\":1730:1820  string public constant MAIN_GOVERNANCE_INFO_TAG = \"StarkEx.Main.2019.GovernorsInformation\" */\n    tag_25:\n      tag_90\n      tag_91\n      jump\t// in\n    tag_90:\n      mload(0x40)\n      dup1\n      dup1\n      0x20\n      add\n      dup3\n      dup2\n      sub\n      dup3\n      mstore\n      dup4\n      dup2\n      dup2\n      mload\n      dup2\n      mstore\n      0x20\n      add\n      swap2\n      pop\n      dup1\n      mload\n      swap1\n      0x20\n      add\n      swap1\n      dup1\n      dup4\n      dup4\n      0x00\n    tag_92:\n      dup4\n      dup2\n      lt\n      iszero\n      tag_94\n      jumpi\n      dup1\n      dup3\n      add\n      mload\n      dup2\n      dup5\n      add\n      mstore\n      0x20\n      dup2\n      add\n      swap1\n      pop\n      jump(tag_92)\n    tag_94:\n      pop\n      pop\n      pop\n      pop\n      swap1\n      pop\n      swap1\n      dup2\n      add\n      swap1\n      0x1f\n      and\n      dup1\n      iszero\n      tag_95\n      jumpi\n      dup1\n      dup3\n      sub\n      dup1\n      mload\n      0x01\n      dup4\n      0x20\n      sub\n      0x0100\n      exp\n      sub\n      not\n      and\n      dup2\n      mstore\n      0x20\n      add\n      swap2\n      pop\n    tag_95:\n      pop\n      swap3\n      pop\n      pop\n      pop\n      mload(0x40)\n      dup1\n      swap2\n      sub\n      swap1\n      return\n        /* \"scalable-dex/contracts/src/libraries/LibConstants.sol\":1696:1758  uint256 public constant MAX_FORCED_ACTIONS_REQS_PER_BLOCK = 10 */\n    tag_26:\n      tag_96\n      tag_97\n      jump\t// in\n    tag_96:\n      mload(0x40)\n      dup1\n      dup3\n      dup2\n      mstore\n      0x20\n      add\n      swap2\n      pop\n      pop\n      mload(0x40)\n      dup1\n      swap2\n      sub\n      swap1\n      return\n        /* \"scalable-dex/contracts/src/libraries/LibConstants.sol\":988:1044  uint256 public constant MAX_VERIFIER_COUNT = uint256(64) */\n    tag_27:\n      tag_98\n      tag_99\n      jump\t// in\n    tag_98:\n      mload(0x40)\n      dup1\n      dup3\n      dup2\n      mstore\n      0x20\n      add\n      swap2\n      pop\n      pop\n      mload(0x40)\n      dup1\n      swap2\n      sub\n      swap1\n      return\n        /* \"scalable-dex/contracts/src/starkex/toplevel_subcontracts/ForcedActions.sol\":720:843  function identify() external pure override returns (string memory) {... */\n    tag_28:\n      tag_100\n      tag_101\n      jump\t// in\n    tag_100:\n      mload(0x40)\n      dup1\n      dup1\n      0x20\n      add\n      dup3\n      dup2\n      sub\n      dup3\n      mstore\n      dup4\n      dup2\n      dup2\n      mload\n      dup2\n      mstore\n      0x20\n      add\n      swap2\n      pop\n      dup1\n      mload\n      swap1\n      0x20\n      add\n      swap1\n      dup1\n      dup4\n      dup4\n      0x00\n    tag_102:\n      dup4\n      dup2\n      lt\n      iszero\n      tag_104\n      jumpi\n      dup1\n      dup3\n      add\n      mload\n      dup2\n      dup5\n      add\n      mstore\n      0x20\n      dup2\n      add\n      swap1\n      pop\n      jump(tag_102)\n    tag_104:\n      pop\n      pop\n      pop\n      pop\n      swap1\n      pop\n      swap1\n      dup2\n      add\n      swap1\n      0x1f\n      and\n      dup1\n      iszero\n      tag_105\n      jumpi\n      dup1\n      dup3\n      sub\n      dup1\n      mload\n      0x01\n      dup4\n      0x20\n      sub\n      0x0100\n      exp\n      sub\n      not\n      and\n      dup2\n      mstore\n      0x20\n      add\n      swap2\n      pop\n    tag_105:\n      pop\n      swap3\n      pop\n      pop\n      pop\n      mload(0x40)\n      dup1\n      swap2\n      sub\n      swap1\n      return\n        /* \"scalable-dex/contracts/src/libraries/LibConstants.sol\":650:702  uint256 public constant FREEZE_GRACE_PERIOD = 7 days */\n    tag_35:\n        /* \"scalable-dex/contracts/src/libraries/LibConstants.sol\":696:702  7 days */\n      0x093a80\n        /* \"scalable-dex/contracts/src/libraries/LibConstants.sol\":650:702  uint256 public constant FREEZE_GRACE_PERIOD = 7 days */\n      dup2\n      jump\t// out\n        /* \"scalable-dex/contracts/src/components/KeyGetters.sol\":876:1190  function getEthKey(uint256 ownerKey) public view override returns (address) {... */\n    tag_38:\n        /* \"scalable-dex/contracts/src/components/KeyGetters.sol\":943:950  address */\n      0x00\n        /* \"scalable-dex/contracts/src/components/KeyGetters.sol\":962:983  address registeredEth */\n      dup1\n        /* \"scalable-dex/contracts/src/components/KeyGetters.sol\":986:993  ethKeys */\n      0x18\n        /* \"scalable-dex/contracts/src/components/KeyGetters.sol\":986:1003  ethKeys[ownerKey] */\n      0x00\n        /* \"scalable-dex/contracts/src/components/KeyGetters.sol\":994:1002  ownerKey */\n      dup5\n        /* \"scalable-dex/contracts/src/components/KeyGetters.sol\":986:1003  ethKeys[ownerKey] */\n      dup2\n      mstore\n      0x20\n      add\n      swap1\n      dup2\n      mstore\n      0x20\n      add\n      0x00\n      keccak256\n      0x00\n      swap1\n      sload\n      swap1\n      0x0100\n      exp\n      swap1\n      div\n      0xffffffffffffffffffffffffffffffffffffffff\n      and\n        /* \"scalable-dex/contracts/src/components/KeyGetters.sol\":962:1003  address registeredEth = ethKeys[ownerKey] */\n      swap1\n      pop\n        /* \"scalable-dex/contracts/src/components/KeyGetters.sol\":1043:1046  0x0 */\n      0x00\n        /* \"scalable-dex/contracts/src/components/KeyGetters.sol\":1018:1047  registeredEth != address(0x0) */\n      0xffffffffffffffffffffffffffffffffffffffff\n      and\n        /* \"scalable-dex/contracts/src/components/KeyGetters.sol\":1018:1031  registeredEth */\n      dup2\n        /* \"scalable-dex/contracts/src/components/KeyGetters.sol\":1018:1047  registeredEth != address(0x0) */\n      0xffffffffffffffffffffffffffffffffffffffff\n      and\n      eq\n        /* \"scalable-dex/contracts/src/components/KeyGetters.sol\":1014:1094  if (registeredEth != address(0x0)) {... */\n      tag_107\n      jumpi\n        /* \"scalable-dex/contracts/src/components/KeyGetters.sol\":1070:1083  registeredEth */\n      dup1\n        /* \"scalable-dex/contracts/src/components/KeyGetters.sol\":1063:1083  return registeredEth */\n      swap2\n      pop\n      pop\n      jump(tag_106)\n        /* \"scalable-dex/contracts/src/components/KeyGetters.sol\":1014:1094  if (registeredEth != address(0x0)) {... */\n    tag_107:\n        /* \"scalable-dex/contracts/src/components/KeyGetters.sol\":274:288  (1 << 160) - 1 */\n      0xffffffffffffffffffffffffffffffffffffffff\n        /* \"scalable-dex/contracts/src/components/KeyGetters.sol\":1124:1132  ownerKey */\n      dup4\n        /* \"scalable-dex/contracts/src/components/KeyGetters.sol\":1124:1147  ownerKey & MASK_ADDRESS */\n      and\n        /* \"scalable-dex/contracts/src/components/KeyGetters.sol\":1111:1119  ownerKey */\n      dup4\n        /* \"scalable-dex/contracts/src/components/KeyGetters.sol\":1111:1148  ownerKey == (ownerKey & MASK_ADDRESS) */\n      eq\n        /* \"scalable-dex/contracts/src/components/KeyGetters.sol\":1111:1183  ownerKey == (ownerKey & MASK_ADDRESS) ? address(ownerKey) : address(0x0) */\n      tag_108\n      jumpi\n        /* \"scalable-dex/contracts/src/components/KeyGetters.sol\":1179:1182  0x0 */\n      0x00\n        /* \"scalable-dex/contracts/src/components/KeyGetters.sol\":1111:1183  ownerKey == (ownerKey & MASK_ADDRESS) ? address(ownerKey) : address(0x0) */\n      jump(tag_109)\n    tag_108:\n        /* \"scalable-dex/contracts/src/components/KeyGetters.sol\":1159:1167  ownerKey */\n      dup3\n        /* \"scalable-dex/contracts/src/components/KeyGetters.sol\":1111:1183  ownerKey == (ownerKey & MASK_ADDRESS) ? address(ownerKey) : address(0x0) */\n    tag_109:\n        /* \"scalable-dex/contracts/src/components/KeyGetters.sol\":1104:1183  return ownerKey == (ownerKey & MASK_ADDRESS) ? address(ownerKey) : address(0x0) */\n      swap2\n      pop\n      pop\n        /* \"scalable-dex/contracts/src/components/KeyGetters.sol\":876:1190  function getEthKey(uint256 ownerKey) public view override returns (address) {... */\n    tag_106:\n      swap2\n      swap1\n      pop\n      jump\t// out\n        /* \"scalable-dex/contracts/src/components/MainGovernance.sol\":2328:2404  function mainAcceptGovernance() external {... */\n    tag_40:\n        /* \"scalable-dex/contracts/src/components/MainGovernance.sol\":2379:2397  acceptGovernance() */\n      tag_111\n        /* \"scalable-dex/contracts/src/components/MainGovernance.sol\":2379:2395  acceptGovernance */\n      tag_112\n        /* \"scalable-dex/contracts/src/components/MainGovernance.sol\":2379:2397  acceptGovernance() */\n      jump\t// in\n    tag_111:\n        /* \"scalable-dex/contracts/src/components/MainGovernance.sol\":2328:2404  function mainAcceptGovernance() external {... */\n      jump\t// out\n        /* \"scalable-dex/contracts/src/starkex/interactions/StarkExForcedActionState.sol\":903:1276  function getFullWithdrawalRequest(uint256 starkKey, uint256 vaultId)... */\n    tag_43:\n        /* \"scalable-dex/contracts/src/starkex/interactions/StarkExForcedActionState.sol\":1034:1045  uint256 res */\n      0x00\n        /* \"scalable-dex/contracts/src/starkex/interactions/StarkExForcedActionState.sol\":1206:1226  forcedActionRequests */\n      0x22\n        /* \"scalable-dex/contracts/src/starkex/interactions/StarkExForcedActionState.sol\":1206:1269  forcedActionRequests[fullWithdrawActionHash(starkKey, vaultId)] */\n      0x00\n        /* \"scalable-dex/contracts/src/starkex/interactions/StarkExForcedActionState.sol\":1227:1268  fullWithdrawActionHash(starkKey, vaultId) */\n      tag_114\n        /* \"scalable-dex/contracts/src/starkex/interactions/StarkExForcedActionState.sol\":1250:1258  starkKey */\n      dup6\n        /* \"scalable-dex/contracts/src/starkex/interactions/StarkExForcedActionState.sol\":1260:1267  vaultId */\n      dup6\n        /* \"scalable-dex/contracts/src/starkex/interactions/StarkExForcedActionState.sol\":1227:1249  fullWithdrawActionHash */\n      tag_115\n        /* \"scalable-dex/contracts/src/starkex/interactions/StarkExForcedActionState.sol\":1227:1268  fullWithdrawActionHash(starkKey, vaultId) */\n      jump\t// in\n    tag_114:\n        /* \"scalable-dex/contracts/src/starkex/interactions/StarkExForcedActionState.sol\":1206:1269  forcedActionRequests[fullWithdrawActionHash(starkKey, vaultId)] */\n      dup2\n      mstore\n      0x20\n      add\n      swap1\n      dup2\n      mstore\n      0x20\n      add\n      0x00\n      keccak256\n      sload\n        /* \"scalable-dex/contracts/src/starkex/interactions/StarkExForcedActionState.sol\":1200:1269  res = forcedActionRequests[fullWithdrawActionHash(starkKey, vaultId)] */\n      swap1\n      pop\n        /* \"scalable-dex/contracts/src/starkex/interactions/StarkExForcedActionState.sol\":903:1276  function getFullWithdrawalRequest(uint256 starkKey, uint256 vaultId)... */\n      swap3\n      swap2\n      pop\n      pop\n      jump\t// out\n        /* \"scalable-dex/contracts/src/components/Freezable.sol\":382:473  function isFrozen() public view override returns (bool) {... */\n    tag_45:\n        /* \"scalable-dex/contracts/src/components/Freezable.sol\":432:436  bool */\n      0x00\n        /* \"scalable-dex/contracts/src/components/Freezable.sol\":455:466  stateFrozen */\n      0x04\n      0x14\n      swap1\n      sload\n      swap1\n      0x0100\n      exp\n      swap1\n      div\n      0xff\n      and\n        /* \"scalable-dex/contracts/src/components/Freezable.sol\":448:466  return stateFrozen */\n      swap1\n      pop\n        /* \"scalable-dex/contracts/src/components/Freezable.sol\":382:473  function isFrozen() public view override returns (bool) {... */\n      swap1\n      jump\t// out\n        /* \"scalable-dex/contracts/src/starkex/toplevel_subcontracts/ForcedActions.sol\":621:714  function initializerSize() external view override returns (uint256) {... */\n    tag_47:\n        /* \"scalable-dex/contracts/src/starkex/toplevel_subcontracts/ForcedActions.sol\":680:687  uint256 */\n      0x00\n        /* \"scalable-dex/contracts/src/starkex/toplevel_subcontracts/ForcedActions.sol\":621:714  function initializerSize() external view override returns (uint256) {... */\n      swap1\n      jump\t// out\n        /* \"scalable-dex/contracts/src/starkex/toplevel_subcontracts/ForcedActions.sol\":494:615  function initialize(... */\n    tag_53:\n        /* \"scalable-dex/contracts/src/starkex/toplevel_subcontracts/ForcedActions.sol\":583:608  revert(\"NOT_IMPLEMENTED\") */\n      mload(0x40)\n      0x08c379a000000000000000000000000000000000000000000000000000000000\n      dup2\n      mstore\n      0x04\n      add\n      dup1\n      dup1\n      0x20\n      add\n      dup3\n      dup2\n      sub\n      dup3\n      mstore\n      0x0f\n      dup2\n      mstore\n      0x20\n      add\n      dup1\n      0x4e4f545f494d504c454d454e5445440000000000000000000000000000000000\n      dup2\n      mstore\n      pop\n      0x20\n      add\n      swap2\n      pop\n      pop\n      mload(0x40)\n      dup1\n      swap2\n      sub\n      swap1\n      revert\n        /* \"scalable-dex/contracts/src/components/MainGovernance.sol\":1959:2082  function mainIsGovernor(address testGovernor) external view returns (bool) {... */\n    tag_56:\n        /* \"scalable-dex/contracts/src/components/MainGovernance.sol\":2028:2032  bool */\n      0x00\n        /* \"scalable-dex/contracts/src/components/MainGovernance.sol\":2051:2075  isGovernor(testGovernor) */\n      tag_120\n        /* \"scalable-dex/contracts/src/components/MainGovernance.sol\":2062:2074  testGovernor */\n      dup3\n        /* \"scalable-dex/contracts/src/components/MainGovernance.sol\":2051:2061  isGovernor */\n      tag_121\n        /* \"scalable-dex/contracts/src/components/MainGovernance.sol\":2051:2075  isGovernor(testGovernor) */\n      jump\t// in\n    tag_120:\n        /* \"scalable-dex/contracts/src/components/MainGovernance.sol\":2044:2075  return isGovernor(testGovernor) */\n      swap1\n      pop\n        /* \"scalable-dex/contracts/src/components/MainGovernance.sol\":1959:2082  function mainIsGovernor(address testGovernor) external view returns (bool) {... */\n      swap2\n      swap1\n      pop\n      jump\t// out\n        /* \"scalable-dex/contracts/src/components/ActionHash.sol\":1564:1777  function getActionHashByIndex(uint256 actionIndex) external view returns (bytes32) {... */\n    tag_59:\n        /* \"scalable-dex/contracts/src/components/ActionHash.sol\":1638:1645  bytes32 */\n      0x00\n        /* \"scalable-dex/contracts/src/components/ActionHash.sol\":1679:1693  actionHashList */\n      0x24\n        /* \"scalable-dex/contracts/src/components/ActionHash.sol\":1679:1700  actionHashList.length */\n      dup1\n      sload\n      swap1\n      pop\n        /* \"scalable-dex/contracts/src/components/ActionHash.sol\":1665:1676  actionIndex */\n      dup3\n        /* \"scalable-dex/contracts/src/components/ActionHash.sol\":1665:1700  actionIndex < actionHashList.length */\n      lt\n        /* \"scalable-dex/contracts/src/components/ActionHash.sol\":1657:1726  require(actionIndex < actionHashList.length, \"ACTION_INDEX_TOO_HIGH\") */\n      tag_123\n      jumpi\n      mload(0x40)\n      0x08c379a000000000000000000000000000000000000000000000000000000000\n      dup2\n      mstore\n      0x04\n      add\n      dup1\n      dup1\n      0x20\n      add\n      dup3\n      dup2\n      sub\n      dup3\n      mstore\n      0x15\n      dup2\n      mstore\n      0x20\n      add\n      dup1\n      0x414354494f4e5f494e4445585f544f4f5f484947480000000000000000000000\n      dup2\n      mstore\n      pop\n      0x20\n      add\n      swap2\n      pop\n      pop\n      mload(0x40)\n      dup1\n      swap2\n      sub\n      swap1\n      revert\n    tag_123:\n        /* \"scalable-dex/contracts/src/components/ActionHash.sol\":1743:1757  actionHashList */\n      0x24\n        /* \"scalable-dex/contracts/src/components/ActionHash.sol\":1758:1769  actionIndex */\n      dup3\n        /* \"scalable-dex/contracts/src/components/ActionHash.sol\":1743:1770  actionHashList[actionIndex] */\n      dup2\n      sload\n      dup2\n      lt\n      tag_124\n      jumpi\n      invalid\n    tag_124:\n      swap1\n      0x00\n      mstore\n      keccak256(0x00, 0x20)\n      add\n      sload\n        /* \"scalable-dex/contracts/src/components/ActionHash.sol\":1736:1770  return actionHashList[actionIndex] */\n      swap1\n      pop\n        /* \"scalable-dex/contracts/src/components/ActionHash.sol\":1564:1777  function getActionHashByIndex(uint256 actionIndex) external view returns (bytes32) {... */\n      swap2\n      swap1\n      pop\n      jump\t// out\n        /* \"scalable-dex/contracts/src/components/ActionHash.sol\":1455:1558  function getActionCount() external view returns (uint256) {... */\n    tag_61:\n        /* \"scalable-dex/contracts/src/components/ActionHash.sol\":1504:1511  uint256 */\n      0x00\n        /* \"scalable-dex/contracts/src/components/ActionHash.sol\":1530:1544  actionHashList */\n      0x24\n        /* \"scalable-dex/contracts/src/components/ActionHash.sol\":1530:1551  actionHashList.length */\n      dup1\n      sload\n      swap1\n      pop\n        /* \"scalable-dex/contracts/src/components/ActionHash.sol\":1523:1551  return actionHashList.length */\n      swap1\n      pop\n        /* \"scalable-dex/contracts/src/components/ActionHash.sol\":1455:1558  function getActionCount() external view returns (uint256) {... */\n      swap1\n      jump\t// out\n        /* \"scalable-dex/contracts/src/components/MainGovernance.sol\":2410:2486  function mainCancelNomination() external {... */\n    tag_63:\n        /* \"scalable-dex/contracts/src/components/MainGovernance.sol\":2461:2479  cancelNomination() */\n      tag_128\n        /* \"scalable-dex/contracts/src/components/MainGovernance.sol\":2461:2477  cancelNomination */\n      tag_129\n        /* \"scalable-dex/contracts/src/components/MainGovernance.sol\":2461:2479  cancelNomination() */\n      jump\t// in\n    tag_128:\n        /* \"scalable-dex/contracts/src/components/MainGovernance.sol\":2410:2486  function mainCancelNomination() external {... */\n      jump\t// out\n        /* \"scalable-dex/contracts/src/libraries/LibConstants.sol\":463:516  uint256 public constant DEPOSIT_CANCEL_DELAY = 2 days */\n    tag_65:\n        /* \"scalable-dex/contracts/src/libraries/LibConstants.sol\":510:516  2 days */\n      0x02a300\n        /* \"scalable-dex/contracts/src/libraries/LibConstants.sol\":463:516  uint256 public constant DEPOSIT_CANCEL_DELAY = 2 days */\n      dup2\n      jump\t// out\n        /* \"scalable-dex/contracts/src/components/Freezable.sol\":1292:1658  function unFreeze() external onlyFrozen onlyGovernance {... */\n    tag_67:\n        /* \"scalable-dex/contracts/src/interfaces/MFreezable.sol\":617:627  isFrozen() */\n      tag_131\n        /* \"scalable-dex/contracts/src/interfaces/MFreezable.sol\":617:625  isFrozen */\n      tag_45\n        /* \"scalable-dex/contracts/src/interfaces/MFreezable.sol\":617:627  isFrozen() */\n      jump\t// in\n    tag_131:\n        /* \"scalable-dex/contracts/src/interfaces/MFreezable.sol\":609:648  require(isFrozen(), \"STATE_NOT_FROZEN\") */\n      tag_132\n      jumpi\n      mload(0x40)\n      0x08c379a000000000000000000000000000000000000000000000000000000000\n      dup2\n      mstore\n      0x04\n      add\n      dup1\n      dup1\n      0x20\n      add\n      dup3\n      dup2\n      sub\n      dup3\n      mstore\n      0x10\n      dup2\n      mstore\n      0x20\n      add\n      dup1\n      0x53544154455f4e4f545f46524f5a454e00000000000000000000000000000000\n      dup2\n      mstore\n      pop\n      0x20\n      add\n      swap2\n      pop\n      pop\n      mload(0x40)\n      dup1\n      swap2\n      sub\n      swap1\n      revert\n    tag_132:\n        /* \"scalable-dex/contracts/src/interfaces/MGovernance.sol\":299:321  isGovernor(msg.sender) */\n      tag_134\n        /* \"scalable-dex/contracts/src/interfaces/MGovernance.sol\":310:320  msg.sender */\n      caller\n        /* \"scalable-dex/contracts/src/interfaces/MGovernance.sol\":299:309  isGovernor */\n      tag_121\n        /* \"scalable-dex/contracts/src/interfaces/MGovernance.sol\":299:321  isGovernor(msg.sender) */\n      jump\t// in\n    tag_134:\n        /* \"scalable-dex/contracts/src/interfaces/MGovernance.sol\":291:341  require(isGovernor(msg.sender), \"ONLY_GOVERNANCE\") */\n      tag_135\n      jumpi\n      mload(0x40)\n      0x08c379a000000000000000000000000000000000000000000000000000000000\n      dup2\n      mstore\n      0x04\n      add\n      dup1\n      dup1\n      0x20\n      add\n      dup3\n      dup2\n      sub\n      dup3\n      mstore\n      0x0f\n      dup2\n      mstore\n      0x20\n      add\n      dup1\n      0x4f4e4c595f474f5645524e414e43450000000000000000000000000000000000\n      dup2\n      mstore\n      pop\n      0x20\n      add\n      swap2\n      pop\n      pop\n      mload(0x40)\n      dup1\n      swap2\n      sub\n      swap1\n      revert\n    tag_135:\n        /* \"scalable-dex/contracts/src/components/Freezable.sol\":1384:1396  unFreezeTime */\n      sload(0x05)\n        /* \"scalable-dex/contracts/src/components/Freezable.sol\":1365:1380  block.timestamp */\n      timestamp\n        /* \"scalable-dex/contracts/src/components/Freezable.sol\":1365:1396  block.timestamp >= unFreezeTime */\n      lt\n      iszero\n        /* \"scalable-dex/contracts/src/components/Freezable.sol\":1357:1425  require(block.timestamp >= unFreezeTime, \"UNFREEZE_NOT_ALLOWED_YET\") */\n      tag_137\n      jumpi\n      mload(0x40)\n      0x08c379a000000000000000000000000000000000000000000000000000000000\n      dup2\n      mstore\n      0x04\n      add\n      dup1\n      dup1\n      0x20\n      add\n      dup3\n      dup2\n      sub\n      dup3\n      mstore\n      0x18\n      dup2\n      mstore\n      0x20\n      add\n      dup1\n      0x554e465245455a455f4e4f545f414c4c4f5745445f5945540000000000000000\n      dup2\n      mstore\n      pop\n      0x20\n      add\n      swap2\n      pop\n      pop\n      mload(0x40)\n      dup1\n      swap2\n      sub\n      swap1\n      revert\n    tag_137:\n        /* \"scalable-dex/contracts/src/components/Freezable.sol\":1475:1480  false */\n      0x00\n        /* \"scalable-dex/contracts/src/components/Freezable.sol\":1461:1472  stateFrozen */\n      0x04\n      0x14\n        /* \"scalable-dex/contracts/src/components/Freezable.sol\":1461:1480  stateFrozen = false */\n      0x0100\n      exp\n      dup2\n      sload\n      dup2\n      0xff\n      mul\n      not\n      and\n      swap1\n      dup4\n      iszero\n      iszero\n      mul\n      or\n      swap1\n      sstore\n      pop\n        /* \"scalable-dex/contracts/src/components/Freezable.sol\":1575:1576  1 */\n      0x01\n        /* \"scalable-dex/contracts/src/components/Freezable.sol\":1562:1571  vaultRoot */\n      0x0d\n      0x00\n        /* \"scalable-dex/contracts/src/components/Freezable.sol\":1562:1576  vaultRoot += 1 */\n      dup3\n      dup3\n      sload\n      add\n      swap3\n      pop\n      pop\n      dup2\n      swap1\n      sstore\n      pop\n        /* \"scalable-dex/contracts/src/components/Freezable.sol\":1599:1600  1 */\n      0x01\n        /* \"scalable-dex/contracts/src/components/Freezable.sol\":1586:1595  orderRoot */\n      0x0f\n      0x00\n        /* \"scalable-dex/contracts/src/components/Freezable.sol\":1586:1600  orderRoot += 1 */\n      dup3\n      dup3\n      sload\n      add\n      swap3\n      pop\n      pop\n      dup2\n      swap1\n      sstore\n      pop\n        /* \"scalable-dex/contracts/src/components/Freezable.sol\":1638:1651  LogUnFrozen() */\n      0x07017fe9180629cfffba412f65a9affcf9a121de02294179f5c058f881dcc9f8\n      mload(0x40)\n      mload(0x40)\n      dup1\n      swap2\n      sub\n      swap1\n      log1\n        /* \"scalable-dex/contracts/src/components/Freezable.sol\":1292:1658  function unFreeze() external onlyFrozen onlyGovernance {... */\n      jump\t// out\n        /* \"scalable-dex/contracts/src/starkex/StarkExConstants.sol\":275:338  uint256 public constant STARKEX_MAX_DEFAULT_VAULT_LOCK = 7 days */\n    tag_69:\n        /* \"scalable-dex/contracts/src/starkex/StarkExConstants.sol\":332:338  7 days */\n      0x093a80\n        /* \"scalable-dex/contracts/src/starkex/StarkExConstants.sol\":275:338  uint256 public constant STARKEX_MAX_DEFAULT_VAULT_LOCK = 7 days */\n      dup2\n      jump\t// out\n        /* \"scalable-dex/contracts/src/components/MainGovernance.sol\":2088:2200  function mainNominateNewGovernor(address newGovernor) external {... */\n    tag_72:\n        /* \"scalable-dex/contracts/src/components/MainGovernance.sol\":2161:2193  nominateNewGovernor(newGovernor) */\n      tag_139\n        /* \"scalable-dex/contracts/src/components/MainGovernance.sol\":2181:2192  newGovernor */\n      dup2\n        /* \"scalable-dex/contracts/src/components/MainGovernance.sol\":2161:2180  nominateNewGovernor */\n      tag_140\n        /* \"scalable-dex/contracts/src/components/MainGovernance.sol\":2161:2193  nominateNewGovernor(newGovernor) */\n      jump\t// in\n    tag_139:\n        /* \"scalable-dex/contracts/src/components/MainGovernance.sol\":2088:2200  function mainNominateNewGovernor(address newGovernor) external {... */\n      pop\n      jump\t// out\n        /* \"scalable-dex/contracts/src/starkex/interactions/FullWithdrawals.sol\":3397:3768  function freezeRequest(uint256 starkKey, uint256 vaultId) external notFrozen {... */\n    tag_75:\n        /* \"scalable-dex/contracts/src/interfaces/MFreezable.sol\":368:378  isFrozen() */\n      tag_142\n        /* \"scalable-dex/contracts/src/interfaces/MFreezable.sol\":368:376  isFrozen */\n      tag_45\n        /* \"scalable-dex/contracts/src/interfaces/MFreezable.sol\":368:378  isFrozen() */\n      jump\t// in\n    tag_142:\n        /* \"scalable-dex/contracts/src/interfaces/MFreezable.sol\":367:378  !isFrozen() */\n      iszero\n        /* \"scalable-dex/contracts/src/interfaces/MFreezable.sol\":359:398  require(!isFrozen(), \"STATE_IS_FROZEN\") */\n      tag_143\n      jumpi\n      mload(0x40)\n      0x08c379a000000000000000000000000000000000000000000000000000000000\n      dup2\n      mstore\n      0x04\n      add\n      dup1\n      dup1\n      0x20\n      add\n      dup3\n      dup2\n      sub\n      dup3\n      mstore\n      0x0f\n      dup2\n      mstore\n      0x20\n      add\n      dup1\n      0x53544154455f49535f46524f5a454e0000000000000000000000000000000000\n      dup2\n      mstore\n      pop\n      0x20\n      add\n      swap2\n      pop\n      pop\n      mload(0x40)\n      dup1\n      swap2\n      sub\n      swap1\n      revert\n    tag_143:\n        /* \"scalable-dex/contracts/src/starkex/StarkExConstants.sol\":203:208  2**31 */\n      0x80000000\n        /* \"scalable-dex/contracts/src/starkex/interactions/FullWithdrawals.sol\":3528:3535  vaultId */\n      dup2\n        /* \"scalable-dex/contracts/src/starkex/interactions/FullWithdrawals.sol\":3528:3566  vaultId < STARKEX_VAULT_ID_UPPER_BOUND */\n      lt\n        /* \"scalable-dex/contracts/src/starkex/interactions/FullWithdrawals.sol\":3520:3592  require(vaultId < STARKEX_VAULT_ID_UPPER_BOUND, \"OUT_OF_RANGE_VAULT_ID\") */\n      tag_145\n      jumpi\n      mload(0x40)\n      0x08c379a000000000000000000000000000000000000000000000000000000000\n      dup2\n      mstore\n      0x04\n      add\n      dup1\n      dup1\n      0x20\n      add\n      dup3\n      dup2\n      sub\n      dup3\n      mstore\n      0x15\n      dup2\n      mstore\n      0x20\n      add\n      dup1\n      0x4f55545f4f465f52414e47455f5641554c545f49440000000000000000000000\n      dup2\n      mstore\n      pop\n      0x20\n      add\n      swap2\n      pop\n      pop\n      mload(0x40)\n      dup1\n      swap2\n      sub\n      swap1\n      revert\n    tag_145:\n        /* \"scalable-dex/contracts/src/starkex/interactions/FullWithdrawals.sol\":3633:3652  uint256 requestTime */\n      0x00\n        /* \"scalable-dex/contracts/src/starkex/interactions/FullWithdrawals.sol\":3655:3698  getFullWithdrawalRequest(starkKey, vaultId) */\n      tag_146\n        /* \"scalable-dex/contracts/src/starkex/interactions/FullWithdrawals.sol\":3680:3688  starkKey */\n      dup4\n        /* \"scalable-dex/contracts/src/starkex/interactions/FullWithdrawals.sol\":3690:3697  vaultId */\n      dup4\n        /* \"scalable-dex/contracts/src/starkex/interactions/FullWithdrawals.sol\":3655:3679  getFullWithdrawalRequest */\n      tag_43\n        /* \"scalable-dex/contracts/src/starkex/interactions/FullWithdrawals.sol\":3655:3698  getFullWithdrawalRequest(starkKey, vaultId) */\n      jump\t// in\n    tag_146:\n        /* \"scalable-dex/contracts/src/starkex/interactions/FullWithdrawals.sol\":3633:3698  uint256 requestTime = getFullWithdrawalRequest(starkKey, vaultId) */\n      swap1\n      pop\n        /* \"scalable-dex/contracts/src/starkex/interactions/FullWithdrawals.sol\":3709:3743  validateFreezeRequest(requestTime) */\n      tag_147\n        /* \"scalable-dex/contracts/src/starkex/interactions/FullWithdrawals.sol\":3731:3742  requestTime */\n      dup2\n        /* \"scalable-dex/contracts/src/starkex/interactions/FullWithdrawals.sol\":3709:3730  validateFreezeRequest */\n      tag_148\n        /* \"scalable-dex/contracts/src/starkex/interactions/FullWithdrawals.sol\":3709:3743  validateFreezeRequest(requestTime) */\n      jump\t// in\n    tag_147:\n        /* \"scalable-dex/contracts/src/starkex/interactions/FullWithdrawals.sol\":3753:3761  freeze() */\n      tag_149\n        /* \"scalable-dex/contracts/src/starkex/interactions/FullWithdrawals.sol\":3753:3759  freeze */\n      tag_150\n        /* \"scalable-dex/contracts/src/starkex/interactions/FullWithdrawals.sol\":3753:3761  freeze() */\n      jump\t// in\n    tag_149:\n        /* \"scalable-dex/contracts/src/interfaces/MFreezable.sol\":408:409  _ */\n      pop\n        /* \"scalable-dex/contracts/src/starkex/interactions/FullWithdrawals.sol\":3397:3768  function freezeRequest(uint256 starkKey, uint256 vaultId) external notFrozen {... */\n      pop\n      pop\n      jump\t// out\n        /* \"scalable-dex/contracts/src/libraries/LibConstants.sol\":877:926  uint256 public constant UNFREEZE_DELAY = 365 days */\n    tag_77:\n        /* \"scalable-dex/contracts/src/libraries/LibConstants.sol\":918:926  365 days */\n      0x01e13380\n        /* \"scalable-dex/contracts/src/libraries/LibConstants.sol\":877:926  uint256 public constant UNFREEZE_DELAY = 365 days */\n      dup2\n      jump\t// out\n        /* \"scalable-dex/contracts/src/starkex/components/StarkExStorage.sol\":1285:1320  address public orderRegistryAddress */\n    tag_79:\n      0x010000000000000004\n      0x00\n      swap1\n      sload\n      swap1\n      0x0100\n      exp\n      swap1\n      div\n      0xffffffffffffffffffffffffffffffffffffffff\n      and\n      dup2\n      jump\t// out\n        /* \"scalable-dex/contracts/src/components/MainGovernance.sol\":2206:2322  function mainRemoveGovernor(address governorForRemoval) external {... */\n    tag_82:\n        /* \"scalable-dex/contracts/src/components/MainGovernance.sol\":2281:2315  removeGovernor(governorForRemoval) */\n      tag_152\n        /* \"scalable-dex/contracts/src/components/MainGovernance.sol\":2296:2314  governorForRemoval */\n      dup2\n        /* \"scalable-dex/contracts/src/components/MainGovernance.sol\":2281:2295  removeGovernor */\n      tag_153\n        /* \"scalable-dex/contracts/src/components/MainGovernance.sol\":2281:2315  removeGovernor(governorForRemoval) */\n      jump\t// in\n    tag_152:\n        /* \"scalable-dex/contracts/src/components/MainGovernance.sol\":2206:2322  function mainRemoveGovernor(address governorForRemoval) external {... */\n      pop\n      jump\t// out\n        /* \"scalable-dex/contracts/src/starkex/components/StarkExStorage.sol\":1117:1158  uint256 public defaultVaultWithdrawalLock */\n    tag_84:\n      sload(0x010000000000000003)\n      dup2\n      jump\t// out\n        /* \"scalable-dex/contracts/src/starkex/interactions/FullWithdrawals.sol\":2950:3391  function fullWithdrawalRequest(uint256 starkKey, uint256 vaultId)... */\n    tag_87:\n        /* \"scalable-dex/contracts/src/interfaces/MFreezable.sol\":368:378  isFrozen() */\n      tag_155\n        /* \"scalable-dex/contracts/src/interfaces/MFreezable.sol\":368:376  isFrozen */\n      tag_45\n        /* \"scalable-dex/contracts/src/interfaces/MFreezable.sol\":368:378  isFrozen() */\n      jump\t// in\n    tag_155:\n        /* \"scalable-dex/contracts/src/interfaces/MFreezable.sol\":367:378  !isFrozen() */\n      iszero\n        /* \"scalable-dex/contracts/src/interfaces/MFreezable.sol\":359:398  require(!isFrozen(), \"STATE_IS_FROZEN\") */\n      tag_156\n      jumpi\n      mload(0x40)\n      0x08c379a000000000000000000000000000000000000000000000000000000000\n      dup2\n      mstore\n      0x04\n      add\n      dup1\n      dup1\n      0x20\n      add\n      dup3\n      dup2\n      sub\n      dup3\n      mstore\n      0x0f\n      dup2\n      mstore\n      0x20\n      add\n      dup1\n      0x53544154455f49535f46524f5a454e0000000000000000000000000000000000\n      dup2\n      mstore\n      pop\n      0x20\n      add\n      swap2\n      pop\n      pop\n      mload(0x40)\n      dup1\n      swap2\n      sub\n      swap1\n      revert\n    tag_156:\n        /* \"scalable-dex/contracts/src/starkex/interactions/FullWithdrawals.sol\":3072:3080  starkKey */\n      dup2\n        /* \"scalable-dex/contracts/src/interfaces/MKeyGetters.sol\":628:653  strictGetEthKey(ownerKey) */\n      tag_158\n        /* \"scalable-dex/contracts/src/interfaces/MKeyGetters.sol\":644:652  ownerKey */\n      dup2\n        /* \"scalable-dex/contracts/src/interfaces/MKeyGetters.sol\":628:643  strictGetEthKey */\n      tag_159\n        /* \"scalable-dex/contracts/src/interfaces/MKeyGetters.sol\":628:653  strictGetEthKey(ownerKey) */\n      jump\t// in\n    tag_158:\n        /* \"scalable-dex/contracts/src/interfaces/MKeyGetters.sol\":614:653  msg.sender == strictGetEthKey(ownerKey) */\n      0xffffffffffffffffffffffffffffffffffffffff\n      and\n        /* \"scalable-dex/contracts/src/interfaces/MKeyGetters.sol\":614:624  msg.sender */\n      caller\n        /* \"scalable-dex/contracts/src/interfaces/MKeyGetters.sol\":614:653  msg.sender == strictGetEthKey(ownerKey) */\n      0xffffffffffffffffffffffffffffffffffffffff\n      and\n      eq\n        /* \"scalable-dex/contracts/src/interfaces/MKeyGetters.sol\":606:684  require(msg.sender == strictGetEthKey(ownerKey), \"MISMATCHING_STARK_ETH_KEYS\") */\n      tag_160\n      jumpi\n      mload(0x40)\n      0x08c379a000000000000000000000000000000000000000000000000000000000\n      dup2\n      mstore\n      0x04\n      add\n      dup1\n      dup1\n      0x20\n      add\n      dup3\n      dup2\n      sub\n      dup3\n      mstore\n      0x1a\n      dup2\n      mstore\n      0x20\n      add\n      dup1\n      0x4d49534d41544348494e475f535441524b5f4554485f4b455953000000000000\n      dup2\n      mstore\n      pop\n      0x20\n      add\n      swap2\n      pop\n      pop\n      mload(0x40)\n      dup1\n      swap2\n      sub\n      swap1\n      revert\n    tag_160:\n        /* \"scalable-dex/contracts/src/starkex/StarkExConstants.sol\":203:208  2**31 */\n      0x80000000\n        /* \"scalable-dex/contracts/src/starkex/interactions/FullWithdrawals.sol\":3141:3148  vaultId */\n      dup3\n        /* \"scalable-dex/contracts/src/starkex/interactions/FullWithdrawals.sol\":3141:3179  vaultId < STARKEX_VAULT_ID_UPPER_BOUND */\n      lt\n        /* \"scalable-dex/contracts/src/starkex/interactions/FullWithdrawals.sol\":3133:3205  require(vaultId < STARKEX_VAULT_ID_UPPER_BOUND, \"OUT_OF_RANGE_VAULT_ID\") */\n      tag_162\n      jumpi\n      mload(0x40)\n      0x08c379a000000000000000000000000000000000000000000000000000000000\n      dup2\n      mstore\n      0x04\n      add\n      dup1\n      dup1\n      0x20\n      add\n      dup3\n      dup2\n      sub\n      dup3\n      mstore\n      0x15\n      dup2\n      mstore\n      0x20\n      add\n      dup1\n      0x4f55545f4f465f52414e47455f5641554c545f49440000000000000000000000\n      dup2\n      mstore\n      pop\n      0x20\n      add\n      swap2\n      pop\n      pop\n      mload(0x40)\n      dup1\n      swap2\n      sub\n      swap1\n      revert\n    tag_162:\n        /* \"scalable-dex/contracts/src/starkex/interactions/FullWithdrawals.sol\":3258:3301  setFullWithdrawalRequest(starkKey, vaultId) */\n      tag_163\n        /* \"scalable-dex/contracts/src/starkex/interactions/FullWithdrawals.sol\":3283:3291  starkKey */\n      dup4\n        /* \"scalable-dex/contracts/src/starkex/interactions/FullWithdrawals.sol\":3293:3300  vaultId */\n      dup4\n        /* \"scalable-dex/contracts/src/starkex/interactions/FullWithdrawals.sol\":3258:3282  setFullWithdrawalRequest */\n      tag_164\n        /* \"scalable-dex/contracts/src/starkex/interactions/FullWithdrawals.sol\":3258:3301  setFullWithdrawalRequest(starkKey, vaultId) */\n      jump\t// in\n    tag_163:\n        /* \"scalable-dex/contracts/src/starkex/interactions/FullWithdrawals.sol\":3341:3384  LogFullWithdrawalRequest(starkKey, vaultId) */\n      0x08eb46dbb87dcfe92d4846e5766802051525fba08a9b48318f5e0fe41186d298\n        /* \"scalable-dex/contracts/src/starkex/interactions/FullWithdrawals.sol\":3366:3374  starkKey */\n      dup4\n        /* \"scalable-dex/contracts/src/starkex/interactions/FullWithdrawals.sol\":3376:3383  vaultId */\n      dup4\n        /* \"scalable-dex/contracts/src/starkex/interactions/FullWithdrawals.sol\":3341:3384  LogFullWithdrawalRequest(starkKey, vaultId) */\n      mload(0x40)\n      dup1\n      dup4\n      dup2\n      mstore\n      0x20\n      add\n      dup3\n      dup2\n      mstore\n      0x20\n      add\n      swap3\n      pop\n      pop\n      pop\n      mload(0x40)\n      dup1\n      swap2\n      sub\n      swap1\n      log1\n        /* \"scalable-dex/contracts/src/interfaces/MFreezable.sol\":408:409  _ */\n      pop\n        /* \"scalable-dex/contracts/src/starkex/interactions/FullWithdrawals.sol\":2950:3391  function fullWithdrawalRequest(uint256 starkKey, uint256 vaultId)... */\n      pop\n      pop\n      jump\t// out\n        /* \"scalable-dex/contracts/src/libraries/LibConstants.sol\":1128:1208  uint256 public constant VERIFIER_REMOVAL_DELAY = FREEZE_GRACE_PERIOD + (21 days) */\n    tag_89:\n        /* \"scalable-dex/contracts/src/libraries/LibConstants.sol\":1200:1207  21 days */\n      0x1baf80\n        /* \"scalable-dex/contracts/src/libraries/LibConstants.sol\":696:702  7 days */\n      0x093a80\n        /* \"scalable-dex/contracts/src/libraries/LibConstants.sol\":1177:1208  FREEZE_GRACE_PERIOD + (21 days) */\n      add\n        /* \"scalable-dex/contracts/src/libraries/LibConstants.sol\":1128:1208  uint256 public constant VERIFIER_REMOVAL_DELAY = FREEZE_GRACE_PERIOD + (21 days) */\n      dup2\n      jump\t// out\n        /* \"scalable-dex/contracts/src/components/MainGovernance.sol\":1730:1820  string public constant MAIN_GOVERNANCE_INFO_TAG = \"StarkEx.Main.2019.GovernorsInformation\" */\n    tag_91:\n      mload(0x40)\n      dup1\n      0x60\n      add\n      0x40\n      mstore\n      dup1\n      0x26\n      dup2\n      mstore\n      0x20\n      add\n      data_ba6723cd96f04722dd5b39f1fec1d379925779afeea0248c94e7ccb35c720bcb\n      0x26\n      swap2\n      codecopy\n      dup2\n      jump\t// out\n        /* \"scalable-dex/contracts/src/libraries/LibConstants.sol\":1696:1758  uint256 public constant MAX_FORCED_ACTIONS_REQS_PER_BLOCK = 10 */\n    tag_97:\n        /* \"scalable-dex/contracts/src/libraries/LibConstants.sol\":1756:1758  10 */\n      0x0a\n        /* \"scalable-dex/contracts/src/libraries/LibConstants.sol\":1696:1758  uint256 public constant MAX_FORCED_ACTIONS_REQS_PER_BLOCK = 10 */\n      dup2\n      jump\t// out\n        /* \"scalable-dex/contracts/src/libraries/LibConstants.sol\":988:1044  uint256 public constant MAX_VERIFIER_COUNT = uint256(64) */\n    tag_99:\n        /* \"scalable-dex/contracts/src/libraries/LibConstants.sol\":1041:1043  64 */\n      0x40\n        /* \"scalable-dex/contracts/src/libraries/LibConstants.sol\":988:1044  uint256 public constant MAX_VERIFIER_COUNT = uint256(64) */\n      dup2\n      jump\t// out\n        /* \"scalable-dex/contracts/src/starkex/toplevel_subcontracts/ForcedActions.sol\":720:843  function identify() external pure override returns (string memory) {... */\n    tag_101:\n        /* \"scalable-dex/contracts/src/starkex/toplevel_subcontracts/ForcedActions.sol\":772:785  string memory */\n      0x60\n        /* \"scalable-dex/contracts/src/starkex/toplevel_subcontracts/ForcedActions.sol\":797:836  return \"StarkWare_ForcedActions_2020_1\" */\n      mload(0x40)\n      dup1\n      0x40\n      add\n      0x40\n      mstore\n      dup1\n      0x1e\n      dup2\n      mstore\n      0x20\n      add\n      0x537461726b576172655f466f72636564416374696f6e735f323032305f310000\n      dup2\n      mstore\n      pop\n      swap1\n      pop\n        /* \"scalable-dex/contracts/src/starkex/toplevel_subcontracts/ForcedActions.sol\":720:843  function identify() external pure override returns (string memory) {... */\n      swap1\n      jump\t// out\n        /* \"scalable-dex/contracts/src/components/Governance.sol\":3847:4349  function acceptGovernance() internal {... */\n    tag_112:\n        /* \"scalable-dex/contracts/src/components/Governance.sol\":3975:4007  GovernanceInfoStruct storage gub */\n      0x00\n        /* \"scalable-dex/contracts/src/components/Governance.sol\":4010:4034  contractGovernanceInfo() */\n      tag_167\n        /* \"scalable-dex/contracts/src/components/Governance.sol\":4010:4032  contractGovernanceInfo */\n      tag_168\n        /* \"scalable-dex/contracts/src/components/Governance.sol\":4010:4034  contractGovernanceInfo() */\n      jump\t// in\n    tag_167:\n        /* \"scalable-dex/contracts/src/components/Governance.sol\":3975:4034  GovernanceInfoStruct storage gub = contractGovernanceInfo() */\n      swap1\n      pop\n        /* \"scalable-dex/contracts/src/components/Governance.sol\":4066:4069  gub */\n      dup1\n        /* \"scalable-dex/contracts/src/components/Governance.sol\":4066:4087  gub.candidateGovernor */\n      0x01\n      add\n      0x00\n      swap1\n      sload\n      swap1\n      0x0100\n      exp\n      swap1\n      div\n      0xffffffffffffffffffffffffffffffffffffffff\n      and\n        /* \"scalable-dex/contracts/src/components/Governance.sol\":4052:4087  msg.sender == gub.candidateGovernor */\n      0xffffffffffffffffffffffffffffffffffffffff\n      and\n        /* \"scalable-dex/contracts/src/components/Governance.sol\":4052:4062  msg.sender */\n      caller\n        /* \"scalable-dex/contracts/src/components/Governance.sol\":4052:4087  msg.sender == gub.candidateGovernor */\n      0xffffffffffffffffffffffffffffffffffffffff\n      and\n      eq\n        /* \"scalable-dex/contracts/src/components/Governance.sol\":4044:4115  require(msg.sender == gub.candidateGovernor, \"ONLY_CANDIDATE_GOVERNOR\") */\n      tag_169\n      jumpi\n      mload(0x40)\n      0x08c379a000000000000000000000000000000000000000000000000000000000\n      dup2\n      mstore\n      0x04\n      add\n      dup1\n      dup1\n      0x20\n      add\n      dup3\n      dup2\n      sub\n      dup3\n      mstore\n      0x17\n      dup2\n      mstore\n      0x20\n      add\n      dup1\n      0x4f4e4c595f43414e4449444154455f474f5645524e4f52000000000000000000\n      dup2\n      mstore\n      pop\n      0x20\n      add\n      swap2\n      pop\n      pop\n      mload(0x40)\n      dup1\n      swap2\n      sub\n      swap1\n      revert\n    tag_169:\n        /* \"scalable-dex/contracts/src/components/Governance.sol\":4151:4185  addGovernor(gub.candidateGovernor) */\n      tag_170\n        /* \"scalable-dex/contracts/src/components/Governance.sol\":4163:4166  gub */\n      dup2\n        /* \"scalable-dex/contracts/src/components/Governance.sol\":4163:4184  gub.candidateGovernor */\n      0x01\n      add\n      0x00\n      swap1\n      sload\n      swap1\n      0x0100\n      exp\n      swap1\n      div\n      0xffffffffffffffffffffffffffffffffffffffff\n      and\n        /* \"scalable-dex/contracts/src/components/Governance.sol\":4151:4162  addGovernor */\n      tag_171\n        /* \"scalable-dex/contracts/src/components/Governance.sol\":4151:4185  addGovernor(gub.candidateGovernor) */\n      jump\t// in\n    tag_170:\n        /* \"scalable-dex/contracts/src/components/Governance.sol\":4227:4230  0x0 */\n      0x00\n        /* \"scalable-dex/contracts/src/components/Governance.sol\":4195:4198  gub */\n      dup2\n        /* \"scalable-dex/contracts/src/components/Governance.sol\":4195:4216  gub.candidateGovernor */\n      0x01\n      add\n      0x00\n        /* \"scalable-dex/contracts/src/components/Governance.sol\":4195:4231  gub.candidateGovernor = address(0x0) */\n      0x0100\n      exp\n      dup2\n      sload\n      dup2\n      0xffffffffffffffffffffffffffffffffffffffff\n      mul\n      not\n      and\n      swap1\n      dup4\n      0xffffffffffffffffffffffffffffffffffffffff\n      and\n      mul\n      or\n      swap1\n      sstore\n      pop\n        /* \"scalable-dex/contracts/src/components/Governance.sol\":4308:4342  LogNewGovernorAccepted(msg.sender) */\n      0xcfb473e6c03f9a29ddaf990e736fa3de5188a0bd85d684f5b6e164ebfbfff5d2\n        /* \"scalable-dex/contracts/src/components/Governance.sol\":4331:4341  msg.sender */\n      caller\n        /* \"scalable-dex/contracts/src/components/Governance.sol\":4308:4342  LogNewGovernorAccepted(msg.sender) */\n      mload(0x40)\n      dup1\n      dup3\n      0xffffffffffffffffffffffffffffffffffffffff\n      and\n      dup2\n      mstore\n      0x20\n      add\n      swap2\n      pop\n      pop\n      mload(0x40)\n      dup1\n      swap2\n      sub\n      swap1\n      log1\n        /* \"scalable-dex/contracts/src/components/Governance.sol\":3847:4349  function acceptGovernance() internal {... */\n      pop\n      jump\t// out\n        /* \"scalable-dex/contracts/src/starkex/interactions/StarkExForcedActionState.sol\":350:581  function fullWithdrawActionHash(uint256 starkKey, uint256 vaultId)... */\n    tag_115:\n        /* \"scalable-dex/contracts/src/starkex/interactions/StarkExForcedActionState.sol\":481:488  bytes32 */\n      0x00\n        /* \"scalable-dex/contracts/src/starkex/interactions/StarkExForcedActionState.sol\":511:574  getActionHash(\"FULL_WITHDRAWAL\", abi.encode(starkKey, vaultId)) */\n      tag_173\n      mload(0x40)\n      dup1\n      0x40\n      add\n      0x40\n      mstore\n      dup1\n      0x0f\n      dup2\n      mstore\n      0x20\n      add\n      0x46554c4c5f5749544844524157414c0000000000000000000000000000000000\n      dup2\n      mstore\n      pop\n        /* \"scalable-dex/contracts/src/starkex/interactions/StarkExForcedActionState.sol\":555:563  starkKey */\n      dup5\n        /* \"scalable-dex/contracts/src/starkex/interactions/StarkExForcedActionState.sol\":565:572  vaultId */\n      dup5\n        /* \"scalable-dex/contracts/src/starkex/interactions/StarkExForcedActionState.sol\":544:573  abi.encode(starkKey, vaultId) */\n      add(0x20, mload(0x40))\n      dup1\n      dup4\n      dup2\n      mstore\n      0x20\n      add\n      dup3\n      dup2\n      mstore\n      0x20\n      add\n      swap3\n      pop\n      pop\n      pop\n      mload(0x40)\n      0x20\n      dup2\n      dup4\n      sub\n      sub\n      dup2\n      mstore\n      swap1\n      0x40\n      mstore\n        /* \"scalable-dex/contracts/src/starkex/interactions/StarkExForcedActionState.sol\":511:524  getActionHash */\n      tag_174\n        /* \"scalable-dex/contracts/src/starkex/interactions/StarkExForcedActionState.sol\":511:574  getActionHash(\"FULL_WITHDRAWAL\", abi.encode(starkKey, vaultId)) */\n      jump\t// in\n    tag_173:\n        /* \"scalable-dex/contracts/src/starkex/interactions/StarkExForcedActionState.sol\":504:574  return getActionHash(\"FULL_WITHDRAWAL\", abi.encode(starkKey, vaultId)) */\n      swap1\n      pop\n        /* \"scalable-dex/contracts/src/starkex/interactions/StarkExForcedActionState.sol\":350:581  function fullWithdrawActionHash(uint256 starkKey, uint256 vaultId)... */\n      swap3\n      swap2\n      pop\n      pop\n      jump\t// out\n        /* \"scalable-dex/contracts/src/components/Governance.sol\":2474:2683  function isGovernor(address testGovernor) internal view override returns (bool) {... */\n    tag_121:\n        /* \"scalable-dex/contracts/src/components/Governance.sol\":2548:2552  bool */\n      0x00\n        /* \"scalable-dex/contracts/src/components/Governance.sol\":2564:2596  GovernanceInfoStruct storage gub */\n      dup1\n        /* \"scalable-dex/contracts/src/components/Governance.sol\":2599:2623  contractGovernanceInfo() */\n      tag_176\n        /* \"scalable-dex/contracts/src/components/Governance.sol\":2599:2621  contractGovernanceInfo */\n      tag_168\n        /* \"scalable-dex/contracts/src/components/Governance.sol\":2599:2623  contractGovernanceInfo() */\n      jump\t// in\n    tag_176:\n        /* \"scalable-dex/contracts/src/components/Governance.sol\":2564:2623  GovernanceInfoStruct storage gub = contractGovernanceInfo() */\n      swap1\n      pop\n        /* \"scalable-dex/contracts/src/components/Governance.sol\":2640:2643  gub */\n      dup1\n        /* \"scalable-dex/contracts/src/components/Governance.sol\":2640:2662  gub.effectiveGovernors */\n      0x00\n      add\n        /* \"scalable-dex/contracts/src/components/Governance.sol\":2640:2676  gub.effectiveGovernors[testGovernor] */\n      0x00\n        /* \"scalable-dex/contracts/src/components/Governance.sol\":2663:2675  testGovernor */\n      dup5\n        /* \"scalable-dex/contracts/src/components/Governance.sol\":2640:2676  gub.effectiveGovernors[testGovernor] */\n      0xffffffffffffffffffffffffffffffffffffffff\n      and\n      0xffffffffffffffffffffffffffffffffffffffff\n      and\n      dup2\n      mstore\n      0x20\n      add\n      swap1\n      dup2\n      mstore\n      0x20\n      add\n      0x00\n      keccak256\n      0x00\n      swap1\n      sload\n      swap1\n      0x0100\n      exp\n      swap1\n      div\n      0xff\n      and\n        /* \"scalable-dex/contracts/src/components/Governance.sol\":2633:2676  return gub.effectiveGovernors[testGovernor] */\n      swap2\n      pop\n      pop\n        /* \"scalable-dex/contracts/src/components/Governance.sol\":2474:2683  function isGovernor(address testGovernor) internal view override returns (bool) {... */\n      swap2\n      swap1\n      pop\n      jump\t// out\n        /* \"scalable-dex/contracts/src/components/Governance.sol\":2757:2970  function cancelNomination() internal onlyGovernance {... */\n    tag_129:\n        /* \"scalable-dex/contracts/src/interfaces/MGovernance.sol\":299:321  isGovernor(msg.sender) */\n      tag_178\n        /* \"scalable-dex/contracts/src/interfaces/MGovernance.sol\":310:320  msg.sender */\n      caller\n        /* \"scalable-dex/contracts/src/interfaces/MGovernance.sol\":299:309  isGovernor */\n      tag_121\n        /* \"scalable-dex/contracts/src/interfaces/MGovernance.sol\":299:321  isGovernor(msg.sender) */\n      jump\t// in\n    tag_178:\n        /* \"scalable-dex/contracts/src/interfaces/MGovernance.sol\":291:341  require(isGovernor(msg.sender), \"ONLY_GOVERNANCE\") */\n      tag_179\n      jumpi\n      mload(0x40)\n      0x08c379a000000000000000000000000000000000000000000000000000000000\n      dup2\n      mstore\n      0x04\n      add\n      dup1\n      dup1\n      0x20\n      add\n      dup3\n      dup2\n      sub\n      dup3\n      mstore\n      0x0f\n      dup2\n      mstore\n      0x20\n      add\n      dup1\n      0x4f4e4c595f474f5645524e414e43450000000000000000000000000000000000\n      dup2\n      mstore\n      pop\n      0x20\n      add\n      swap2\n      pop\n      pop\n      mload(0x40)\n      dup1\n      swap2\n      sub\n      swap1\n      revert\n    tag_179:\n        /* \"scalable-dex/contracts/src/components/Governance.sol\":2819:2851  GovernanceInfoStruct storage gub */\n      0x00\n        /* \"scalable-dex/contracts/src/components/Governance.sol\":2854:2878  contractGovernanceInfo() */\n      tag_181\n        /* \"scalable-dex/contracts/src/components/Governance.sol\":2854:2876  contractGovernanceInfo */\n      tag_168\n        /* \"scalable-dex/contracts/src/components/Governance.sol\":2854:2878  contractGovernanceInfo() */\n      jump\t// in\n    tag_181:\n        /* \"scalable-dex/contracts/src/components/Governance.sol\":2819:2878  GovernanceInfoStruct storage gub = contractGovernanceInfo() */\n      swap1\n      pop\n        /* \"scalable-dex/contracts/src/components/Governance.sol\":2920:2923  0x0 */\n      0x00\n        /* \"scalable-dex/contracts/src/components/Governance.sol\":2888:2891  gub */\n      dup2\n        /* \"scalable-dex/contracts/src/components/Governance.sol\":2888:2909  gub.candidateGovernor */\n      0x01\n      add\n      0x00\n        /* \"scalable-dex/contracts/src/components/Governance.sol\":2888:2924  gub.candidateGovernor = address(0x0) */\n      0x0100\n      exp\n      dup2\n      sload\n      dup2\n      0xffffffffffffffffffffffffffffffffffffffff\n      mul\n      not\n      and\n      swap1\n      dup4\n      0xffffffffffffffffffffffffffffffffffffffff\n      and\n      mul\n      or\n      swap1\n      sstore\n      pop\n        /* \"scalable-dex/contracts/src/components/Governance.sol\":2939:2963  LogNominationCancelled() */\n      0x7a8dc7dd7fffb43c4807438fa62729225156941e641fd877938f4edade3429f5\n      mload(0x40)\n      mload(0x40)\n      dup1\n      swap2\n      sub\n      swap1\n      log1\n        /* \"scalable-dex/contracts/src/interfaces/MGovernance.sol\":351:352  _ */\n      pop\n        /* \"scalable-dex/contracts/src/components/Governance.sol\":2757:2970  function cancelNomination() internal onlyGovernance {... */\n      jump\t// out\n        /* \"scalable-dex/contracts/src/components/Governance.sol\":2976:3282  function nominateNewGovernor(address newGovernor) internal onlyGovernance {... */\n    tag_140:\n        /* \"scalable-dex/contracts/src/interfaces/MGovernance.sol\":299:321  isGovernor(msg.sender) */\n      tag_183\n        /* \"scalable-dex/contracts/src/interfaces/MGovernance.sol\":310:320  msg.sender */\n      caller\n        /* \"scalable-dex/contracts/src/interfaces/MGovernance.sol\":299:309  isGovernor */\n      tag_121\n        /* \"scalable-dex/contracts/src/interfaces/MGovernance.sol\":299:321  isGovernor(msg.sender) */\n      jump\t// in\n    tag_183:\n        /* \"scalable-dex/contracts/src/interfaces/MGovernance.sol\":291:341  require(isGovernor(msg.sender), \"ONLY_GOVERNANCE\") */\n      tag_184\n      jumpi\n      mload(0x40)\n      0x08c379a000000000000000000000000000000000000000000000000000000000\n      dup2\n      mstore\n      0x04\n      add\n      dup1\n      dup1\n      0x20\n      add\n      dup3\n      dup2\n      sub\n      dup3\n      mstore\n      0x0f\n      dup2\n      mstore\n      0x20\n      add\n      dup1\n      0x4f4e4c595f474f5645524e414e43450000000000000000000000000000000000\n      dup2\n      mstore\n      pop\n      0x20\n      add\n      swap2\n      pop\n      pop\n      mload(0x40)\n      dup1\n      swap2\n      sub\n      swap1\n      revert\n    tag_184:\n        /* \"scalable-dex/contracts/src/components/Governance.sol\":3060:3092  GovernanceInfoStruct storage gub */\n      0x00\n        /* \"scalable-dex/contracts/src/components/Governance.sol\":3095:3119  contractGovernanceInfo() */\n      tag_186\n        /* \"scalable-dex/contracts/src/components/Governance.sol\":3095:3117  contractGovernanceInfo */\n      tag_168\n        /* \"scalable-dex/contracts/src/components/Governance.sol\":3095:3119  contractGovernanceInfo() */\n      jump\t// in\n    tag_186:\n        /* \"scalable-dex/contracts/src/components/Governance.sol\":3060:3119  GovernanceInfoStruct storage gub = contractGovernanceInfo() */\n      swap1\n      pop\n        /* \"scalable-dex/contracts/src/components/Governance.sol\":3138:3161  isGovernor(newGovernor) */\n      tag_187\n        /* \"scalable-dex/contracts/src/components/Governance.sol\":3149:3160  newGovernor */\n      dup3\n        /* \"scalable-dex/contracts/src/components/Governance.sol\":3138:3148  isGovernor */\n      tag_121\n        /* \"scalable-dex/contracts/src/components/Governance.sol\":3138:3161  isGovernor(newGovernor) */\n      jump\t// in\n    tag_187:\n        /* \"scalable-dex/contracts/src/components/Governance.sol\":3137:3161  !isGovernor(newGovernor) */\n      iszero\n        /* \"scalable-dex/contracts/src/components/Governance.sol\":3129:3182  require(!isGovernor(newGovernor), \"ALREADY_GOVERNOR\") */\n      tag_188\n      jumpi\n      mload(0x40)\n      0x08c379a000000000000000000000000000000000000000000000000000000000\n      dup2\n      mstore\n      0x04\n      add\n      dup1\n      dup1\n      0x20\n      add\n      dup3\n      dup2\n      sub\n      dup3\n      mstore\n      0x10\n      dup2\n      mstore\n      0x20\n      add\n      dup1\n      0x414c52454144595f474f5645524e4f5200000000000000000000000000000000\n      dup2\n      mstore\n      pop\n      0x20\n      add\n      swap2\n      pop\n      pop\n      mload(0x40)\n      dup1\n      swap2\n      sub\n      swap1\n      revert\n    tag_188:\n        /* \"scalable-dex/contracts/src/components/Governance.sol\":3216:3227  newGovernor */\n      dup2\n        /* \"scalable-dex/contracts/src/components/Governance.sol\":3192:3195  gub */\n      dup2\n        /* \"scalable-dex/contracts/src/components/Governance.sol\":3192:3213  gub.candidateGovernor */\n      0x01\n      add\n      0x00\n        /* \"scalable-dex/contracts/src/components/Governance.sol\":3192:3227  gub.candidateGovernor = newGovernor */\n      0x0100\n      exp\n      dup2\n      sload\n      dup2\n      0xffffffffffffffffffffffffffffffffffffffff\n      mul\n      not\n      and\n      swap1\n      dup4\n      0xffffffffffffffffffffffffffffffffffffffff\n      and\n      mul\n      or\n      swap1\n      sstore\n      pop\n        /* \"scalable-dex/contracts/src/components/Governance.sol\":3242:3275  LogNominatedGovernor(newGovernor) */\n      0x6166272c8d3f5f579082f2827532732f97195007983bb5b83ac12c56700b01a6\n        /* \"scalable-dex/contracts/src/components/Governance.sol\":3263:3274  newGovernor */\n      dup3\n        /* \"scalable-dex/contracts/src/components/Governance.sol\":3242:3275  LogNominatedGovernor(newGovernor) */\n      mload(0x40)\n      dup1\n      dup3\n      0xffffffffffffffffffffffffffffffffffffffff\n      and\n      dup2\n      mstore\n      0x20\n      add\n      swap2\n      pop\n      pop\n      mload(0x40)\n      dup1\n      swap2\n      sub\n      swap1\n      log1\n        /* \"scalable-dex/contracts/src/interfaces/MGovernance.sol\":351:352  _ */\n      pop\n        /* \"scalable-dex/contracts/src/components/Governance.sol\":2976:3282  function nominateNewGovernor(address newGovernor) internal onlyGovernance {... */\n      pop\n      jump\t// out\n        /* \"scalable-dex/contracts/src/components/Freezable.sol\":479:1067  function validateFreezeRequest(uint256 requestTime) internal override {... */\n    tag_148:\n        /* \"scalable-dex/contracts/src/components/Freezable.sol\":582:583  0 */\n      0x00\n        /* \"scalable-dex/contracts/src/components/Freezable.sol\":567:578  requestTime */\n      dup2\n        /* \"scalable-dex/contracts/src/components/Freezable.sol\":567:583  requestTime != 0 */\n      eq\n      iszero\n        /* \"scalable-dex/contracts/src/components/Freezable.sol\":559:613  require(requestTime != 0, \"FORCED_ACTION_UNREQUESTED\") */\n      tag_190\n      jumpi\n      mload(0x40)\n      0x08c379a000000000000000000000000000000000000000000000000000000000\n      dup2\n      mstore\n      0x04\n      add\n      dup1\n      dup1\n      0x20\n      add\n      dup3\n      dup2\n      sub\n      dup3\n      mstore\n      0x19\n      dup2\n      mstore\n      0x20\n      add\n      dup1\n      0x464f524345445f414354494f4e5f554e52455155455354454400000000000000\n      dup2\n      mstore\n      pop\n      0x20\n      add\n      swap2\n      pop\n      pop\n      mload(0x40)\n      dup1\n      swap2\n      sub\n      swap1\n      revert\n    tag_190:\n        /* \"scalable-dex/contracts/src/components/Freezable.sol\":666:684  uint256 freezeTime */\n      0x00\n        /* \"scalable-dex/contracts/src/libraries/LibConstants.sol\":696:702  7 days */\n      0x093a80\n        /* \"scalable-dex/contracts/src/components/Freezable.sol\":687:698  requestTime */\n      dup3\n        /* \"scalable-dex/contracts/src/components/Freezable.sol\":687:720  requestTime + FREEZE_GRACE_PERIOD */\n      add\n        /* \"scalable-dex/contracts/src/components/Freezable.sol\":666:720  uint256 freezeTime = requestTime + FREEZE_GRACE_PERIOD */\n      swap1\n      pop\n        /* \"scalable-dex/contracts/src/libraries/LibConstants.sol\":696:702  7 days */\n      0x093a80\n        /* \"scalable-dex/contracts/src/components/Freezable.sol\":769:779  freezeTime */\n      dup2\n        /* \"scalable-dex/contracts/src/components/Freezable.sol\":769:802  freezeTime >= FREEZE_GRACE_PERIOD */\n      lt\n      iszero\n        /* \"scalable-dex/contracts/src/components/Freezable.sol\":762:803  assert(freezeTime >= FREEZE_GRACE_PERIOD) */\n      tag_191\n      jumpi\n      invalid\n    tag_191:\n        /* \"scalable-dex/contracts/src/components/Freezable.sol\":840:850  freezeTime */\n      dup1\n        /* \"scalable-dex/contracts/src/components/Freezable.sol\":821:836  block.timestamp */\n      timestamp\n        /* \"scalable-dex/contracts/src/components/Freezable.sol\":821:850  block.timestamp >= freezeTime */\n      lt\n      iszero\n        /* \"scalable-dex/contracts/src/components/Freezable.sol\":813:876  require(block.timestamp >= freezeTime, \"FORCED_ACTION_PENDING\") */\n      tag_192\n      jumpi\n      mload(0x40)\n      0x08c379a000000000000000000000000000000000000000000000000000000000\n      dup2\n      mstore\n      0x04\n      add\n      dup1\n      dup1\n      0x20\n      add\n      dup3\n      dup2\n      sub\n      dup3\n      mstore\n      0x15\n      dup2\n      mstore\n      0x20\n      add\n      dup1\n      0x464f524345445f414354494f4e5f50454e44494e470000000000000000000000\n      dup2\n      mstore\n      pop\n      0x20\n      add\n      swap2\n      pop\n      pop\n      mload(0x40)\n      dup1\n      swap2\n      sub\n      swap1\n      revert\n    tag_192:\n        /* \"scalable-dex/contracts/src/components/Freezable.sol\":1027:1039  unFreezeTime */\n      sload(0x05)\n        /* \"scalable-dex/contracts/src/components/Freezable.sol\":1014:1024  freezeTime */\n      dup2\n        /* \"scalable-dex/contracts/src/components/Freezable.sol\":1014:1039  freezeTime > unFreezeTime */\n      gt\n        /* \"scalable-dex/contracts/src/components/Freezable.sol\":1006:1060  require(freezeTime > unFreezeTime, \"REFREEZE_ATTEMPT\") */\n      tag_193\n      jumpi\n      mload(0x40)\n      0x08c379a000000000000000000000000000000000000000000000000000000000\n      dup2\n      mstore\n      0x04\n      add\n      dup1\n      dup1\n      0x20\n      add\n      dup3\n      dup2\n      sub\n      dup3\n      mstore\n      0x10\n      dup2\n      mstore\n      0x20\n      add\n      dup1\n      0x5245465245455a455f415454454d505400000000000000000000000000000000\n      dup2\n      mstore\n      pop\n      0x20\n      add\n      swap2\n      pop\n      pop\n      mload(0x40)\n      dup1\n      swap2\n      sub\n      swap1\n      revert\n    tag_193:\n        /* \"scalable-dex/contracts/src/components/Freezable.sol\":479:1067  function validateFreezeRequest(uint256 requestTime) internal override {... */\n      pop\n      pop\n      jump\t// out\n        /* \"scalable-dex/contracts/src/components/Freezable.sol\":1073:1286  function freeze() internal override notFrozen {... */\n    tag_150:\n        /* \"scalable-dex/contracts/src/interfaces/MFreezable.sol\":368:378  isFrozen() */\n      tag_195\n        /* \"scalable-dex/contracts/src/interfaces/MFreezable.sol\":368:376  isFrozen */\n      tag_45\n        /* \"scalable-dex/contracts/src/interfaces/MFreezable.sol\":368:378  isFrozen() */\n      jump\t// in\n    tag_195:\n        /* \"scalable-dex/contracts/src/interfaces/MFreezable.sol\":367:378  !isFrozen() */\n      iszero\n        /* \"scalable-dex/contracts/src/interfaces/MFreezable.sol\":359:398  require(!isFrozen(), \"STATE_IS_FROZEN\") */\n      tag_196\n      jumpi\n      mload(0x40)\n      0x08c379a000000000000000000000000000000000000000000000000000000000\n      dup2\n      mstore\n      0x04\n      add\n      dup1\n      dup1\n      0x20\n      add\n      dup3\n      dup2\n      sub\n      dup3\n      mstore\n      0x0f\n      dup2\n      mstore\n      0x20\n      add\n      dup1\n      0x53544154455f49535f46524f5a454e0000000000000000000000000000000000\n      dup2\n      mstore\n      pop\n      0x20\n      add\n      swap2\n      pop\n      pop\n      mload(0x40)\n      dup1\n      swap2\n      sub\n      swap1\n      revert\n    tag_196:\n        /* \"scalable-dex/contracts/src/libraries/LibConstants.sol\":918:926  365 days */\n      0x01e13380\n        /* \"scalable-dex/contracts/src/components/Freezable.sol\":1144:1159  block.timestamp */\n      timestamp\n        /* \"scalable-dex/contracts/src/components/Freezable.sol\":1144:1176  block.timestamp + UNFREEZE_DELAY */\n      add\n        /* \"scalable-dex/contracts/src/components/Freezable.sol\":1129:1141  unFreezeTime */\n      0x05\n        /* \"scalable-dex/contracts/src/components/Freezable.sol\":1129:1176  unFreezeTime = block.timestamp + UNFREEZE_DELAY */\n      dup2\n      swap1\n      sstore\n      pop\n        /* \"scalable-dex/contracts/src/components/Freezable.sol\":1226:1230  true */\n      0x01\n        /* \"scalable-dex/contracts/src/components/Freezable.sol\":1212:1223  stateFrozen */\n      0x04\n      0x14\n        /* \"scalable-dex/contracts/src/components/Freezable.sol\":1212:1230  stateFrozen = true */\n      0x0100\n      exp\n      dup2\n      sload\n      dup2\n      0xff\n      mul\n      not\n      and\n      swap1\n      dup4\n      iszero\n      iszero\n      mul\n      or\n      swap1\n      sstore\n      pop\n        /* \"scalable-dex/contracts/src/components/Freezable.sol\":1268:1279  LogFrozen() */\n      0xf5b8e6419478ab140eb98026ab5bd607038cb0ac4d4dad5b1fc0848dfd203d1f\n      mload(0x40)\n      mload(0x40)\n      dup1\n      swap2\n      sub\n      swap1\n      log1\n        /* \"scalable-dex/contracts/src/components/Freezable.sol\":1073:1286  function freeze() internal override notFrozen {... */\n      jump\t// out\n        /* \"scalable-dex/contracts/src/components/Governance.sol\":4406:4811  function removeGovernor(address governorForRemoval) internal onlyGovernance {... */\n    tag_153:\n        /* \"scalable-dex/contracts/src/interfaces/MGovernance.sol\":299:321  isGovernor(msg.sender) */\n      tag_199\n        /* \"scalable-dex/contracts/src/interfaces/MGovernance.sol\":310:320  msg.sender */\n      caller\n        /* \"scalable-dex/contracts/src/interfaces/MGovernance.sol\":299:309  isGovernor */\n      tag_121\n        /* \"scalable-dex/contracts/src/interfaces/MGovernance.sol\":299:321  isGovernor(msg.sender) */\n      jump\t// in\n    tag_199:\n        /* \"scalable-dex/contracts/src/interfaces/MGovernance.sol\":291:341  require(isGovernor(msg.sender), \"ONLY_GOVERNANCE\") */\n      tag_200\n      jumpi\n      mload(0x40)\n      0x08c379a000000000000000000000000000000000000000000000000000000000\n      dup2\n      mstore\n      0x04\n      add\n      dup1\n      dup1\n      0x20\n      add\n      dup3\n      dup2\n      sub\n      dup3\n      mstore\n      0x0f\n      dup2\n      mstore\n      0x20\n      add\n      dup1\n      0x4f4e4c595f474f5645524e414e43450000000000000000000000000000000000\n      dup2\n      mstore\n      pop\n      0x20\n      add\n      swap2\n      pop\n      pop\n      mload(0x40)\n      dup1\n      swap2\n      sub\n      swap1\n      revert\n    tag_200:\n        /* \"scalable-dex/contracts/src/components/Governance.sol\":4514:4532  governorForRemoval */\n      dup1\n        /* \"scalable-dex/contracts/src/components/Governance.sol\":4500:4532  msg.sender != governorForRemoval */\n      0xffffffffffffffffffffffffffffffffffffffff\n      and\n        /* \"scalable-dex/contracts/src/components/Governance.sol\":4500:4510  msg.sender */\n      caller\n        /* \"scalable-dex/contracts/src/components/Governance.sol\":4500:4532  msg.sender != governorForRemoval */\n      0xffffffffffffffffffffffffffffffffffffffff\n      and\n      eq\n      iszero\n        /* \"scalable-dex/contracts/src/components/Governance.sol\":4492:4557  require(msg.sender != governorForRemoval, \"GOVERNOR_SELF_REMOVE\") */\n      tag_202\n      jumpi\n      mload(0x40)\n      0x08c379a000000000000000000000000000000000000000000000000000000000\n      dup2\n      mstore\n      0x04\n      add\n      dup1\n      dup1\n      0x20\n      add\n      dup3\n      dup2\n      sub\n      dup3\n      mstore\n      0x14\n      dup2\n      mstore\n      0x20\n      add\n      dup1\n      0x474f5645524e4f525f53454c465f52454d4f5645000000000000000000000000\n      dup2\n      mstore\n      pop\n      0x20\n      add\n      swap2\n      pop\n      pop\n      mload(0x40)\n      dup1\n      swap2\n      sub\n      swap1\n      revert\n    tag_202:\n        /* \"scalable-dex/contracts/src/components/Governance.sol\":4567:4599  GovernanceInfoStruct storage gub */\n      0x00\n        /* \"scalable-dex/contracts/src/components/Governance.sol\":4602:4626  contractGovernanceInfo() */\n      tag_203\n        /* \"scalable-dex/contracts/src/components/Governance.sol\":4602:4624  contractGovernanceInfo */\n      tag_168\n        /* \"scalable-dex/contracts/src/components/Governance.sol\":4602:4626  contractGovernanceInfo() */\n      jump\t// in\n    tag_203:\n        /* \"scalable-dex/contracts/src/components/Governance.sol\":4567:4626  GovernanceInfoStruct storage gub = contractGovernanceInfo() */\n      swap1\n      pop\n        /* \"scalable-dex/contracts/src/components/Governance.sol\":4644:4674  isGovernor(governorForRemoval) */\n      tag_204\n        /* \"scalable-dex/contracts/src/components/Governance.sol\":4655:4673  governorForRemoval */\n      dup3\n        /* \"scalable-dex/contracts/src/components/Governance.sol\":4644:4654  isGovernor */\n      tag_121\n        /* \"scalable-dex/contracts/src/components/Governance.sol\":4644:4674  isGovernor(governorForRemoval) */\n      jump\t// in\n    tag_204:\n        /* \"scalable-dex/contracts/src/components/Governance.sol\":4636:4691  require(isGovernor(governorForRemoval), \"NOT_GOVERNOR\") */\n      tag_205\n      jumpi\n      mload(0x40)\n      0x08c379a000000000000000000000000000000000000000000000000000000000\n      dup2\n      mstore\n      0x04\n      add\n      dup1\n      dup1\n      0x20\n      add\n      dup3\n      dup2\n      sub\n      dup3\n      mstore\n      0x0c\n      dup2\n      mstore\n      0x20\n      add\n      dup1\n      0x4e4f545f474f5645524e4f520000000000000000000000000000000000000000\n      dup2\n      mstore\n      pop\n      0x20\n      add\n      swap2\n      pop\n      pop\n      mload(0x40)\n      dup1\n      swap2\n      sub\n      swap1\n      revert\n    tag_205:\n        /* \"scalable-dex/contracts/src/components/Governance.sol\":4746:4751  false */\n      0x00\n        /* \"scalable-dex/contracts/src/components/Governance.sol\":4701:4704  gub */\n      dup2\n        /* \"scalable-dex/contracts/src/components/Governance.sol\":4701:4723  gub.effectiveGovernors */\n      0x00\n      add\n        /* \"scalable-dex/contracts/src/components/Governance.sol\":4701:4743  gub.effectiveGovernors[governorForRemoval] */\n      0x00\n        /* \"scalable-dex/contracts/src/components/Governance.sol\":4724:4742  governorForRemoval */\n      dup5\n        /* \"scalable-dex/contracts/src/components/Governance.sol\":4701:4743  gub.effectiveGovernors[governorForRemoval] */\n      0xffffffffffffffffffffffffffffffffffffffff\n      and\n      0xffffffffffffffffffffffffffffffffffffffff\n      and\n      dup2\n      mstore\n      0x20\n      add\n      swap1\n      dup2\n      mstore\n      0x20\n      add\n      0x00\n      keccak256\n      0x00\n        /* \"scalable-dex/contracts/src/components/Governance.sol\":4701:4751  gub.effectiveGovernors[governorForRemoval] = false */\n      0x0100\n      exp\n      dup2\n      sload\n      dup2\n      0xff\n      mul\n      not\n      and\n      swap1\n      dup4\n      iszero\n      iszero\n      mul\n      or\n      swap1\n      sstore\n      pop\n        /* \"scalable-dex/contracts/src/components/Governance.sol\":4766:4804  LogRemovedGovernor(governorForRemoval) */\n      0xd75f94825e770b8b512be8e74759e252ad00e102e38f50cce2f7c6f868a29599\n        /* \"scalable-dex/contracts/src/components/Governance.sol\":4785:4803  governorForRemoval */\n      dup3\n        /* \"scalable-dex/contracts/src/components/Governance.sol\":4766:4804  LogRemovedGovernor(governorForRemoval) */\n      mload(0x40)\n      dup1\n      dup3\n      0xffffffffffffffffffffffffffffffffffffffff\n      and\n      dup2\n      mstore\n      0x20\n      add\n      swap2\n      pop\n      pop\n      mload(0x40)\n      dup1\n      swap2\n      sub\n      swap1\n      log1\n        /* \"scalable-dex/contracts/src/interfaces/MGovernance.sol\":351:352  _ */\n      pop\n        /* \"scalable-dex/contracts/src/components/Governance.sol\":4406:4811  function removeGovernor(address governorForRemoval) internal onlyGovernance {... */\n      pop\n      jump\t// out\n        /* \"scalable-dex/contracts/src/components/KeyGetters.sol\":1281:1479  function strictGetEthKey(uint256 ownerKey) internal view override returns (address ethKey) {... */\n    tag_159:\n        /* \"scalable-dex/contracts/src/components/KeyGetters.sol\":1356:1370  address ethKey */\n      0x00\n        /* \"scalable-dex/contracts/src/components/KeyGetters.sol\":1391:1410  getEthKey(ownerKey) */\n      tag_207\n        /* \"scalable-dex/contracts/src/components/KeyGetters.sol\":1401:1409  ownerKey */\n      dup3\n        /* \"scalable-dex/contracts/src/components/KeyGetters.sol\":1391:1400  getEthKey */\n      tag_38\n        /* \"scalable-dex/contracts/src/components/KeyGetters.sol\":1391:1410  getEthKey(ownerKey) */\n      jump\t// in\n    tag_207:\n        /* \"scalable-dex/contracts/src/components/KeyGetters.sol\":1382:1410  ethKey = getEthKey(ownerKey) */\n      swap1\n      pop\n        /* \"scalable-dex/contracts/src/components/KeyGetters.sol\":1446:1449  0x0 */\n      0x00\n        /* \"scalable-dex/contracts/src/components/KeyGetters.sol\":1428:1450  ethKey != address(0x0) */\n      0xffffffffffffffffffffffffffffffffffffffff\n      and\n        /* \"scalable-dex/contracts/src/components/KeyGetters.sol\":1428:1434  ethKey */\n      dup2\n        /* \"scalable-dex/contracts/src/components/KeyGetters.sol\":1428:1450  ethKey != address(0x0) */\n      0xffffffffffffffffffffffffffffffffffffffff\n      and\n      eq\n      iszero\n        /* \"scalable-dex/contracts/src/components/KeyGetters.sol\":1420:1472  require(ethKey != address(0x0), \"USER_UNREGISTERED\") */\n      tag_208\n      jumpi\n      mload(0x40)\n      0x08c379a000000000000000000000000000000000000000000000000000000000\n      dup2\n      mstore\n      0x04\n      add\n      dup1\n      dup1\n      0x20\n      add\n      dup3\n      dup2\n      sub\n      dup3\n      mstore\n      0x11\n      dup2\n      mstore\n      0x20\n      add\n      dup1\n      0x555345525f554e52454749535445524544000000000000000000000000000000\n      dup2\n      mstore\n      pop\n      0x20\n      add\n      swap2\n      pop\n      pop\n      mload(0x40)\n      dup1\n      swap2\n      sub\n      swap1\n      revert\n    tag_208:\n        /* \"scalable-dex/contracts/src/components/KeyGetters.sol\":1281:1479  function strictGetEthKey(uint256 ownerKey) internal view override returns (address ethKey) {... */\n      swap2\n      swap1\n      pop\n      jump\t// out\n        /* \"scalable-dex/contracts/src/starkex/interactions/StarkExForcedActionState.sol\":1282:1519  function setFullWithdrawalRequest(uint256 starkKey, uint256 vaultId) internal override {... */\n    tag_164:\n        /* \"scalable-dex/contracts/src/starkex/interactions/StarkExForcedActionState.sol\":1450:1512  setActionHash(fullWithdrawActionHash(starkKey, vaultId), true) */\n      tag_210\n        /* \"scalable-dex/contracts/src/starkex/interactions/StarkExForcedActionState.sol\":1464:1505  fullWithdrawActionHash(starkKey, vaultId) */\n      tag_211\n        /* \"scalable-dex/contracts/src/starkex/interactions/StarkExForcedActionState.sol\":1487:1495  starkKey */\n      dup4\n        /* \"scalable-dex/contracts/src/starkex/interactions/StarkExForcedActionState.sol\":1497:1504  vaultId */\n      dup4\n        /* \"scalable-dex/contracts/src/starkex/interactions/StarkExForcedActionState.sol\":1464:1486  fullWithdrawActionHash */\n      tag_115\n        /* \"scalable-dex/contracts/src/starkex/interactions/StarkExForcedActionState.sol\":1464:1505  fullWithdrawActionHash(starkKey, vaultId) */\n      jump\t// in\n    tag_211:\n        /* \"scalable-dex/contracts/src/starkex/interactions/StarkExForcedActionState.sol\":1507:1511  true */\n      0x01\n        /* \"scalable-dex/contracts/src/starkex/interactions/StarkExForcedActionState.sol\":1450:1463  setActionHash */\n      tag_212\n        /* \"scalable-dex/contracts/src/starkex/interactions/StarkExForcedActionState.sol\":1450:1512  setActionHash(fullWithdrawActionHash(starkKey, vaultId), true) */\n      jump\t// in\n    tag_210:\n        /* \"scalable-dex/contracts/src/starkex/interactions/StarkExForcedActionState.sol\":1282:1519  function setFullWithdrawalRequest(uint256 starkKey, uint256 vaultId) internal override {... */\n      pop\n      pop\n      jump\t// out\n        /* \"scalable-dex/contracts/src/components/Governance.sol\":1231:1510  function contractGovernanceInfo() internal view returns (GovernanceInfoStruct storage) {... */\n    tag_168:\n        /* \"scalable-dex/contracts/src/components/Governance.sol\":1288:1316  GovernanceInfoStruct storage */\n      0x00\n        /* \"scalable-dex/contracts/src/components/Governance.sol\":1328:1345  string memory tag */\n      0x60\n        /* \"scalable-dex/contracts/src/components/Governance.sol\":1348:1366  getGovernanceTag() */\n      tag_214\n        /* \"scalable-dex/contracts/src/components/Governance.sol\":1348:1364  getGovernanceTag */\n      tag_215\n        /* \"scalable-dex/contracts/src/components/Governance.sol\":1348:1366  getGovernanceTag() */\n      jump\t// in\n    tag_214:\n        /* \"scalable-dex/contracts/src/components/Governance.sol\":1328:1366  string memory tag = getGovernanceTag() */\n      swap1\n      pop\n        /* \"scalable-dex/contracts/src/components/Governance.sol\":1376:1408  GovernanceInfoStruct storage gub */\n      0x00\n        /* \"scalable-dex/contracts/src/components/Governance.sol\":1411:1425  governanceInfo */\n      dup1\n        /* \"scalable-dex/contracts/src/components/Governance.sol\":1426:1429  tag */\n      dup3\n        /* \"scalable-dex/contracts/src/components/Governance.sol\":1411:1430  governanceInfo[tag] */\n      mload(0x40)\n      dup1\n      dup3\n      dup1\n      mload\n      swap1\n      0x20\n      add\n      swap1\n      dup1\n      dup4\n      dup4\n    tag_216:\n      0x20\n      dup4\n      lt\n      tag_218\n      jumpi\n      dup1\n      mload\n      dup3\n      mstore\n      0x20\n      dup3\n      add\n      swap2\n      pop\n      0x20\n      dup2\n      add\n      swap1\n      pop\n      0x20\n      dup4\n      sub\n      swap3\n      pop\n      jump(tag_216)\n    tag_218:\n      0x01\n      dup4\n      0x20\n      sub\n      0x0100\n      exp\n      sub\n      dup1\n      not\n      dup3\n      mload\n      and\n      dup2\n      dup5\n      mload\n      and\n      dup1\n      dup3\n      or\n      dup6\n      mstore\n      pop\n      pop\n      pop\n      pop\n      pop\n      pop\n      swap1\n      pop\n      add\n      swap2\n      pop\n      pop\n      swap1\n      dup2\n      mstore\n      0x20\n      add\n      mload(0x40)\n      dup1\n      swap2\n      sub\n      swap1\n      keccak256\n        /* \"scalable-dex/contracts/src/components/Governance.sol\":1376:1430  GovernanceInfoStruct storage gub = governanceInfo[tag] */\n      swap1\n      pop\n        /* \"scalable-dex/contracts/src/components/Governance.sol\":1448:1451  gub */\n      dup1\n        /* \"scalable-dex/contracts/src/components/Governance.sol\":1448:1463  gub.initialized */\n      0x01\n      add\n      0x14\n      swap1\n      sload\n      swap1\n      0x0100\n      exp\n      swap1\n      div\n      0xff\n      and\n        /* \"scalable-dex/contracts/src/components/Governance.sol\":1440:1483  require(gub.initialized, \"NOT_INITIALIZED\") */\n      tag_219\n      jumpi\n      mload(0x40)\n      0x08c379a000000000000000000000000000000000000000000000000000000000\n      dup2\n      mstore\n      0x04\n      add\n      dup1\n      dup1\n      0x20\n      add\n      dup3\n      dup2\n      sub\n      dup3\n      mstore\n      0x0f\n      dup2\n      mstore\n      0x20\n      add\n      dup1\n      0x4e4f545f494e495449414c495a45440000000000000000000000000000000000\n      dup2\n      mstore\n      pop\n      0x20\n      add\n      swap2\n      pop\n      pop\n      mload(0x40)\n      dup1\n      swap2\n      sub\n      swap1\n      revert\n    tag_219:\n        /* \"scalable-dex/contracts/src/components/Governance.sol\":1500:1503  gub */\n      dup1\n        /* \"scalable-dex/contracts/src/components/Governance.sol\":1493:1503  return gub */\n      swap3\n      pop\n      pop\n      pop\n        /* \"scalable-dex/contracts/src/components/Governance.sol\":1231:1510  function contractGovernanceInfo() internal view returns (GovernanceInfoStruct storage) {... */\n      swap1\n      jump\t// out\n        /* \"scalable-dex/contracts/src/components/Governance.sol\":3600:3841  function addGovernor(address newGovernor) private {... */\n    tag_171:\n        /* \"scalable-dex/contracts/src/components/Governance.sol\":3669:3692  isGovernor(newGovernor) */\n      tag_221\n        /* \"scalable-dex/contracts/src/components/Governance.sol\":3680:3691  newGovernor */\n      dup2\n        /* \"scalable-dex/contracts/src/components/Governance.sol\":3669:3679  isGovernor */\n      tag_121\n        /* \"scalable-dex/contracts/src/components/Governance.sol\":3669:3692  isGovernor(newGovernor) */\n      jump\t// in\n    tag_221:\n        /* \"scalable-dex/contracts/src/components/Governance.sol\":3668:3692  !isGovernor(newGovernor) */\n      iszero\n        /* \"scalable-dex/contracts/src/components/Governance.sol\":3660:3713  require(!isGovernor(newGovernor), \"ALREADY_GOVERNOR\") */\n      tag_222\n      jumpi\n      mload(0x40)\n      0x08c379a000000000000000000000000000000000000000000000000000000000\n      dup2\n      mstore\n      0x04\n      add\n      dup1\n      dup1\n      0x20\n      add\n      dup3\n      dup2\n      sub\n      dup3\n      mstore\n      0x10\n      dup2\n      mstore\n      0x20\n      add\n      dup1\n      0x414c52454144595f474f5645524e4f5200000000000000000000000000000000\n      dup2\n      mstore\n      pop\n      0x20\n      add\n      swap2\n      pop\n      pop\n      mload(0x40)\n      dup1\n      swap2\n      sub\n      swap1\n      revert\n    tag_222:\n        /* \"scalable-dex/contracts/src/components/Governance.sol\":3723:3755  GovernanceInfoStruct storage gub */\n      0x00\n        /* \"scalable-dex/contracts/src/components/Governance.sol\":3758:3782  contractGovernanceInfo() */\n      tag_223\n        /* \"scalable-dex/contracts/src/components/Governance.sol\":3758:3780  contractGovernanceInfo */\n      tag_168\n        /* \"scalable-dex/contracts/src/components/Governance.sol\":3758:3782  contractGovernanceInfo() */\n      jump\t// in\n    tag_223:\n        /* \"scalable-dex/contracts/src/components/Governance.sol\":3723:3782  GovernanceInfoStruct storage gub = contractGovernanceInfo() */\n      swap1\n      pop\n        /* \"scalable-dex/contracts/src/components/Governance.sol\":3830:3834  true */\n      0x01\n        /* \"scalable-dex/contracts/src/components/Governance.sol\":3792:3795  gub */\n      dup2\n        /* \"scalable-dex/contracts/src/components/Governance.sol\":3792:3814  gub.effectiveGovernors */\n      0x00\n      add\n        /* \"scalable-dex/contracts/src/components/Governance.sol\":3792:3827  gub.effectiveGovernors[newGovernor] */\n      0x00\n        /* \"scalable-dex/contracts/src/components/Governance.sol\":3815:3826  newGovernor */\n      dup5\n        /* \"scalable-dex/contracts/src/components/Governance.sol\":3792:3827  gub.effectiveGovernors[newGovernor] */\n      0xffffffffffffffffffffffffffffffffffffffff\n      and\n      0xffffffffffffffffffffffffffffffffffffffff\n      and\n      dup2\n      mstore\n      0x20\n      add\n      swap1\n      dup2\n      mstore\n      0x20\n      add\n      0x00\n      keccak256\n      0x00\n        /* \"scalable-dex/contracts/src/components/Governance.sol\":3792:3834  gub.effectiveGovernors[newGovernor] = true */\n      0x0100\n      exp\n      dup2\n      sload\n      dup2\n      0xff\n      mul\n      not\n      and\n      swap1\n      dup4\n      iszero\n      iszero\n      mul\n      or\n      swap1\n      sstore\n      pop\n        /* \"scalable-dex/contracts/src/components/Governance.sol\":3600:3841  function addGovernor(address newGovernor) private {... */\n      pop\n      pop\n      jump\t// out\n        /* \"scalable-dex/contracts/src/components/ActionHash.sol\":286:536  function getActionHash(string memory actionName, bytes memory packedActionParameters)... */\n    tag_174:\n        /* \"scalable-dex/contracts/src/components/ActionHash.sol\":419:437  bytes32 actionHash */\n      0x00\n        /* \"scalable-dex/contracts/src/components/ActionHash.sol\":493:503  actionName */\n      dup3\n        /* \"scalable-dex/contracts/src/components/ActionHash.sol\":505:527  packedActionParameters */\n      dup3\n        /* \"scalable-dex/contracts/src/components/ActionHash.sol\":476:528  abi.encodePacked(actionName, packedActionParameters) */\n      add(0x20, mload(0x40))\n      dup1\n      dup4\n      dup1\n      mload\n      swap1\n      0x20\n      add\n      swap1\n      dup1\n      dup4\n      dup4\n    tag_225:\n      0x20\n      dup4\n      lt\n      tag_227\n      jumpi\n      dup1\n      mload\n      dup3\n      mstore\n      0x20\n      dup3\n      add\n      swap2\n      pop\n      0x20\n      dup2\n      add\n      swap1\n      pop\n      0x20\n      dup4\n      sub\n      swap3\n      pop\n      jump(tag_225)\n    tag_227:\n      0x01\n      dup4\n      0x20\n      sub\n      0x0100\n      exp\n      sub\n      dup1\n      not\n      dup3\n      mload\n      and\n      dup2\n      dup5\n      mload\n      and\n      dup1\n      dup3\n      or\n      dup6\n      mstore\n      pop\n      pop\n      pop\n      pop\n      pop\n      pop\n      swap1\n      pop\n      add\n      dup3\n      dup1\n      mload\n      swap1\n      0x20\n      add\n      swap1\n      dup1\n      dup4\n      dup4\n    tag_228:\n      0x20\n      dup4\n      lt\n      tag_230\n      jumpi\n      dup1\n      mload\n      dup3\n      mstore\n      0x20\n      dup3\n      add\n      swap2\n      pop\n      0x20\n      dup2\n      add\n      swap1\n      pop\n      0x20\n      dup4\n      sub\n      swap3\n      pop\n      jump(tag_228)\n    tag_230:\n      0x01\n      dup4\n      0x20\n      sub\n      0x0100\n      exp\n      sub\n      dup1\n      not\n      dup3\n      mload\n      and\n      dup2\n      dup5\n      mload\n      and\n      dup1\n      dup3\n      or\n      dup6\n      mstore\n      pop\n      pop\n      pop\n      pop\n      pop\n      pop\n      swap1\n      pop\n      add\n      swap3\n      pop\n      pop\n      pop\n      mload(0x40)\n      0x20\n      dup2\n      dup4\n      sub\n      sub\n      dup2\n      mstore\n      swap1\n      0x40\n      mstore\n        /* \"scalable-dex/contracts/src/components/ActionHash.sol\":466:529  keccak256(abi.encodePacked(actionName, packedActionParameters)) */\n      dup1\n      mload\n      swap1\n      0x20\n      add\n      keccak256\n        /* \"scalable-dex/contracts/src/components/ActionHash.sol\":453:529  actionHash = keccak256(abi.encodePacked(actionName, packedActionParameters)) */\n      swap1\n      pop\n        /* \"scalable-dex/contracts/src/components/ActionHash.sol\":286:536  function getActionHash(string memory actionName, bytes memory packedActionParameters)... */\n      swap3\n      swap2\n      pop\n      pop\n      jump\t// out\n        /* \"scalable-dex/contracts/src/components/ActionHash.sol\":542:1449  function setActionHash(bytes32 actionHash, bool premiumCost) internal {... */\n    tag_212:\n        /* \"scalable-dex/contracts/src/components/ActionHash.sol\":1022:1033  premiumCost */\n      dup1\n        /* \"scalable-dex/contracts/src/components/ActionHash.sol\":1018:1342  if (premiumCost) {... */\n      iszero\n      tag_232\n      jumpi\n        /* \"scalable-dex/contracts/src/components/ActionHash.sol\":1054:1063  uint256 i */\n      0x00\n        /* \"scalable-dex/contracts/src/components/ActionHash.sol\":1049:1087  for (uint256 i = 0; i < 21129; i++) {} */\n    tag_233:\n        /* \"scalable-dex/contracts/src/components/ActionHash.sol\":1073:1078  21129 */\n      0x5289\n        /* \"scalable-dex/contracts/src/components/ActionHash.sol\":1069:1070  i */\n      dup2\n        /* \"scalable-dex/contracts/src/components/ActionHash.sol\":1069:1078  i < 21129 */\n      lt\n        /* \"scalable-dex/contracts/src/components/ActionHash.sol\":1049:1087  for (uint256 i = 0; i < 21129; i++) {} */\n      iszero\n      tag_234\n      jumpi\n        /* \"scalable-dex/contracts/src/components/ActionHash.sol\":1080:1083  i++ */\n      dup1\n      dup1\n      0x01\n      add\n      swap2\n      pop\n      pop\n        /* \"scalable-dex/contracts/src/components/ActionHash.sol\":1049:1087  for (uint256 i = 0; i < 21129; i++) {} */\n      jump(tag_233)\n    tag_234:\n      pop\n        /* \"scalable-dex/contracts/src/components/ActionHash.sol\":1018:1342  if (premiumCost) {... */\n      jump(tag_236)\n    tag_232:\n        /* \"scalable-dex/contracts/src/libraries/LibConstants.sol\":1756:1758  10 */\n      0x0a\n        /* \"scalable-dex/contracts/src/components/ActionHash.sol\":1142:1163  forcedRequestsInBlock */\n      0x21\n        /* \"scalable-dex/contracts/src/components/ActionHash.sol\":1142:1177  forcedRequestsInBlock[block.number] */\n      0x00\n        /* \"scalable-dex/contracts/src/components/ActionHash.sol\":1164:1176  block.number */\n      number\n        /* \"scalable-dex/contracts/src/components/ActionHash.sol\":1142:1177  forcedRequestsInBlock[block.number] */\n      dup2\n      mstore\n      0x20\n      add\n      swap1\n      dup2\n      mstore\n      0x20\n      add\n      0x00\n      keccak256\n      sload\n        /* \"scalable-dex/contracts/src/components/ActionHash.sol\":1142:1213  forcedRequestsInBlock[block.number] < MAX_FORCED_ACTIONS_REQS_PER_BLOCK */\n      lt\n        /* \"scalable-dex/contracts/src/components/ActionHash.sol\":1117:1277  require(... */\n      tag_237\n      jumpi\n      mload(0x40)\n      0x08c379a000000000000000000000000000000000000000000000000000000000\n      dup2\n      mstore\n      0x04\n      add\n      dup1\n      dup1\n      0x20\n      add\n      dup3\n      dup2\n      sub\n      dup3\n      mstore\n      0x1e\n      dup2\n      mstore\n      0x20\n      add\n      dup1\n      0x4d41585f52455155455354535f5045525f424c4f434b5f524541434845440000\n      dup2\n      mstore\n      pop\n      0x20\n      add\n      swap2\n      pop\n      pop\n      mload(0x40)\n      dup1\n      swap2\n      sub\n      swap1\n      revert\n    tag_237:\n        /* \"scalable-dex/contracts/src/components/ActionHash.sol\":1330:1331  1 */\n      0x01\n        /* \"scalable-dex/contracts/src/components/ActionHash.sol\":1291:1312  forcedRequestsInBlock */\n      0x21\n        /* \"scalable-dex/contracts/src/components/ActionHash.sol\":1291:1326  forcedRequestsInBlock[block.number] */\n      0x00\n        /* \"scalable-dex/contracts/src/components/ActionHash.sol\":1313:1325  block.number */\n      number\n        /* \"scalable-dex/contracts/src/components/ActionHash.sol\":1291:1326  forcedRequestsInBlock[block.number] */\n      dup2\n      mstore\n      0x20\n      add\n      swap1\n      dup2\n      mstore\n      0x20\n      add\n      0x00\n      keccak256\n      0x00\n        /* \"scalable-dex/contracts/src/components/ActionHash.sol\":1291:1331  forcedRequestsInBlock[block.number] += 1 */\n      dup3\n      dup3\n      sload\n      add\n      swap3\n      pop\n      pop\n      dup2\n      swap1\n      sstore\n      pop\n        /* \"scalable-dex/contracts/src/components/ActionHash.sol\":1018:1342  if (premiumCost) {... */\n    tag_236:\n        /* \"scalable-dex/contracts/src/components/ActionHash.sol\":1386:1401  block.timestamp */\n      timestamp\n        /* \"scalable-dex/contracts/src/components/ActionHash.sol\":1351:1371  forcedActionRequests */\n      0x22\n        /* \"scalable-dex/contracts/src/components/ActionHash.sol\":1351:1383  forcedActionRequests[actionHash] */\n      0x00\n        /* \"scalable-dex/contracts/src/components/ActionHash.sol\":1372:1382  actionHash */\n      dup5\n        /* \"scalable-dex/contracts/src/components/ActionHash.sol\":1351:1383  forcedActionRequests[actionHash] */\n      dup2\n      mstore\n      0x20\n      add\n      swap1\n      dup2\n      mstore\n      0x20\n      add\n      0x00\n      keccak256\n        /* \"scalable-dex/contracts/src/components/ActionHash.sol\":1351:1401  forcedActionRequests[actionHash] = block.timestamp */\n      dup2\n      swap1\n      sstore\n      pop\n        /* \"scalable-dex/contracts/src/components/ActionHash.sol\":1411:1425  actionHashList */\n      0x24\n        /* \"scalable-dex/contracts/src/components/ActionHash.sol\":1431:1441  actionHash */\n      dup3\n        /* \"scalable-dex/contracts/src/components/ActionHash.sol\":1411:1442  actionHashList.push(actionHash) */\n      swap1\n      dup1\n      0x01\n      dup2\n      sload\n      add\n      dup1\n      dup3\n      sstore\n      dup1\n      swap2\n      pop\n      pop\n      0x01\n      swap1\n      sub\n      swap1\n      0x00\n      mstore\n      keccak256(0x00, 0x20)\n      add\n      0x00\n      swap1\n      swap2\n      swap1\n      swap2\n      swap1\n      swap2\n      pop\n      sstore\n        /* \"scalable-dex/contracts/src/components/ActionHash.sol\":542:1449  function setActionHash(bytes32 actionHash, bool premiumCost) internal {... */\n      pop\n      pop\n      jump\t// out\n        /* \"scalable-dex/contracts/src/components/MainGovernance.sol\":1827:1953  function getGovernanceTag() internal pure override returns (string memory tag) {... */\n    tag_215:\n        /* \"scalable-dex/contracts/src/components/MainGovernance.sol\":1887:1904  string memory tag */\n      0x60\n        /* \"scalable-dex/contracts/src/components/MainGovernance.sol\":1922:1946  MAIN_GOVERNANCE_INFO_TAG */\n      mload(0x40)\n      dup1\n      0x60\n      add\n      0x40\n      mstore\n      dup1\n      0x26\n      dup2\n      mstore\n      0x20\n      add\n      data_ba6723cd96f04722dd5b39f1fec1d379925779afeea0248c94e7ccb35c720bcb\n      0x26\n      swap2\n      codecopy\n        /* \"scalable-dex/contracts/src/components/MainGovernance.sol\":1916:1946  tag = MAIN_GOVERNANCE_INFO_TAG */\n      swap1\n      pop\n        /* \"scalable-dex/contracts/src/components/MainGovernance.sol\":1827:1953  function getGovernanceTag() internal pure override returns (string memory tag) {... */\n      swap1\n      jump\t// out\n    stop\n    data_ba6723cd96f04722dd5b39f1fec1d379925779afeea0248c94e7ccb35c720bcb 537461726b45782e4d61696e2e323031392e476f7665726e6f7273496e666f726d6174696f6e\n\n    auxdata: 0xa2646970667358221220c31437c2d73e8204927fe31b8cb403584fcdf5c3a6c024a8f9e36bf8fac34b5164736f6c634300060c0033\n}\n",
				"bytecode": {
					"linkReferences": {},
					"object": "608060405234801561001057600080fd5b50611d78806100206000396000f3fe608060405234801561001057600080fd5b506004361061018d5760003560e01c8063835a71c3116100de578063a45d784111610097578063c23b60ef11610071578063c23b60ef146105a5578063e30a5cff14610628578063e6de628214610646578063eeb72866146106645761018d565b8063a45d784114610531578063a93310c41461054f578063b7663112146105875761018d565b8063835a71c3146104015780638c4bce1c1461041f57806393c1e46614610463578063993f36391461049b5780639c6a2837146104b9578063a1cc921e146104ed5761018d565b8063439fab911161014b5780635eecd218116101255780635eecd218146103b157806372eb3688146103cf57806377e84e0d146103d95780637cf12b90146103f75761018d565b8063439fab911461029c57806345f5cd97146103155780635e586cd11461036f5761018d565b8062717542146101925780631dbd1da7146101b057806328700a1514610208578063296e2f371461021257806333eeb1471461025e5780633cc660ad1461027e575b600080fd5b61019a6106e7565b6040518082815260200191505060405180910390f35b6101dc600480360360208110156101c657600080fd5b81019080803590602001909291905050506106ee565b604051808273ffffffffffffffffffffffffffffffffffffffff16815260200191505060405180910390f35b610210610793565b005b6102486004803603604081101561022857600080fd5b81019080803590602001909291908035906020019092919050505061079d565b6040518082815260200191505060405180910390f35b6102666107c4565b60405180821515815260200191505060405180910390f35b6102866107db565b6040518082815260200191505060405180910390f35b610313600480360360208110156102b257600080fd5b81019080803590602001906401000000008111156102cf57600080fd5b8201836020820111156102e157600080fd5b8035906020019184600183028401116401000000008311171561030357600080fd5b90919293919293905050506107e0565b005b6103576004803603602081101561032b57600080fd5b81019080803573ffffffffffffffffffffffffffffffffffffffff16906020019092919050505061084e565b60405180821515815260200191505060405180910390f35b61039b6004803603602081101561038557600080fd5b8101908080359060200190929190505050610860565b6040518082815260200191505060405180910390f35b6103b96108fb565b6040518082815260200191505060405180910390f35b6103d7610908565b005b6103e1610912565b6040518082815260200191505060405180910390f35b6103ff610919565b005b610409610af1565b6040518082815260200191505060405180910390f35b6104616004803603602081101561043557600080fd5b81019080803573ffffffffffffffffffffffffffffffffffffffff169060200190929190505050610af8565b005b6104996004803603604081101561047957600080fd5b810190808035906020019092919080359060200190929190505050610b04565b005b6104a3610c1c565b6040518082815260200191505060405180910390f35b6104c1610c24565b604051808273ffffffffffffffffffffffffffffffffffffffff16815260200191505060405180910390f35b61052f6004803603602081101561050357600080fd5b81019080803573ffffffffffffffffffffffffffffffffffffffff169060200190929190505050610c52565b005b610539610c5e565b6040518082815260200191505060405180910390f35b6105856004803603604081101561056557600080fd5b810190808035906020019092919080359060200190929190505050610c6c565b005b61058f610e58565b6040518082815260200191505060405180910390f35b6105ad610e64565b6040518080602001828103825283818151815260200191508051906020019080838360005b838110156105ed5780820151818401526020810190506105d2565b50505050905090810190601f16801561061a5780820380516001836020036101000a031916815260200191505b509250505060405180910390f35b610630610e80565b6040518082815260200191505060405180910390f35b61064e610e85565b6040518082815260200191505060405180910390f35b61066c610e8a565b6040518080602001828103825283818151815260200191508051906020019080838360005b838110156106ac578082015181840152602081019050610691565b50505050905090810190601f1680156106d95780820380516001836020036101000a031916815260200191505b509250505060405180910390f35b62093a8081565b6000806018600084815260200190815260200160002060009054906101000a900473ffffffffffffffffffffffffffffffffffffffff169050600073ffffffffffffffffffffffffffffffffffffffff168173ffffffffffffffffffffffffffffffffffffffff1614610764578091505061078e565b73ffffffffffffffffffffffffffffffffffffffff8316831461078857600061078a565b825b9150505b919050565b61079b610ec7565b565b6000602260006107ad8585611059565b815260200190815260200160002054905092915050565b6000600460149054906101000a900460ff16905090565b600090565b6040517f08c379a000000000000000000000000000000000000000000000000000000000815260040180806020018281038252600f8152602001807f4e4f545f494d504c454d454e544544000000000000000000000000000000000081525060200191505060405180910390fd5b6000610859826110c9565b9050919050565b600060248054905082106108dc576040517f08c379a00000000000000000000000000000000000000000000000000000000081526004018080602001828103825260158152602001807f414354494f4e5f494e4445585f544f4f5f48494748000000000000000000000081525060200191505060405180910390fd5b602482815481106108e957fe5b90600052602060002001549050919050565b6000602480549050905090565b61091061112d565b565b6202a30081565b6109216107c4565b610993576040517f08c379a00000000000000000000000000000000000000000000000000000000081526004018080602001828103825260108152602001807f53544154455f4e4f545f46524f5a454e0000000000000000000000000000000081525060200191505060405180910390fd5b61099c336110c9565b610a0e576040517f08c379a000000000000000000000000000000000000000000000000000000000815260040180806020018281038252600f8152602001807f4f4e4c595f474f5645524e414e4345000000000000000000000000000000000081525060200191505060405180910390fd5b600554421015610a86576040517f08c379a00000000000000000000000000000000000000000000000000000000081526004018080602001828103825260188152602001807f554e465245455a455f4e4f545f414c4c4f5745445f594554000000000000000081525060200191505060405180910390fd5b6000600460146101000a81548160ff0219169083151502179055506001600d600082825401925050819055506001600f600082825401925050819055507f07017fe9180629cfffba412f65a9affcf9a121de02294179f5c058f881dcc9f860405160405180910390a1565b62093a8081565b610b0181611227565b50565b610b0c6107c4565b15610b7f576040517f08c379a000000000000000000000000000000000000000000000000000000000815260040180806020018281038252600f8152602001807f53544154455f49535f46524f5a454e000000000000000000000000000000000081525060200191505060405180910390fd5b63800000008110610bf8576040517f08c379a00000000000000000000000000000000000000000000000000000000081526004018080602001828103825260158152602001807f4f55545f4f465f52414e47455f5641554c545f4944000000000000000000000081525060200191505060405180910390fd5b6000610c04838361079d565b9050610c0f816113be565b610c1761153d565b505050565b6301e1338081565b6801000000000000000460009054906101000a900473ffffffffffffffffffffffffffffffffffffffff1681565b610c5b8161160e565b50565b680100000000000000035481565b610c746107c4565b15610ce7576040517f08c379a000000000000000000000000000000000000000000000000000000000815260040180806020018281038252600f8152602001807f53544154455f49535f46524f5a454e000000000000000000000000000000000081525060200191505060405180910390fd5b81610cf18161185d565b73ffffffffffffffffffffffffffffffffffffffff163373ffffffffffffffffffffffffffffffffffffffff1614610d91576040517f08c379a000000000000000000000000000000000000000000000000000000000815260040180806020018281038252601a8152602001807f4d49534d41544348494e475f535441524b5f4554485f4b45595300000000000081525060200191505060405180910390fd5b63800000008210610e0a576040517f08c379a00000000000000000000000000000000000000000000000000000000081526004018080602001828103825260158152602001807f4f55545f4f465f52414e47455f5641554c545f4944000000000000000000000081525060200191505060405180910390fd5b610e148383611912565b7f08eb46dbb87dcfe92d4846e5766802051525fba08a9b48318f5e0fe41186d2988383604051808381526020018281526020019250505060405180910390a1505050565b621baf8062093a800181565b604051806060016040528060268152602001611d1d6026913981565b600a81565b604081565b60606040518060400160405280601e81526020017f537461726b576172655f466f72636564416374696f6e735f323032305f310000815250905090565b6000610ed161192a565b90508060010160009054906101000a900473ffffffffffffffffffffffffffffffffffffffff1673ffffffffffffffffffffffffffffffffffffffff163373ffffffffffffffffffffffffffffffffffffffff1614610f98576040517f08c379a00000000000000000000000000000000000000000000000000000000081526004018080602001828103825260178152602001807f4f4e4c595f43414e4449444154455f474f5645524e4f5200000000000000000081525060200191505060405180910390fd5b610fc58160010160009054906101000a900473ffffffffffffffffffffffffffffffffffffffff16611a30565b60008160010160006101000a81548173ffffffffffffffffffffffffffffffffffffffff021916908373ffffffffffffffffffffffffffffffffffffffff1602179055507fcfb473e6c03f9a29ddaf990e736fa3de5188a0bd85d684f5b6e164ebfbfff5d233604051808273ffffffffffffffffffffffffffffffffffffffff16815260200191505060405180910390a150565b60006110c16040518060400160405280600f81526020017f46554c4c5f5749544844524157414c000000000000000000000000000000000081525084846040516020018083815260200182815260200192505050604051602081830303815290604052611b16565b905092915050565b6000806110d461192a565b90508060000160008473ffffffffffffffffffffffffffffffffffffffff1673ffffffffffffffffffffffffffffffffffffffff16815260200190815260200160002060009054906101000a900460ff16915050919050565b611136336110c9565b6111a8576040517f08c379a000000000000000000000000000000000000000000000000000000000815260040180806020018281038252600f8152602001807f4f4e4c595f474f5645524e414e4345000000000000000000000000000000000081525060200191505060405180910390fd5b60006111b261192a565b905060008160010160006101000a81548173ffffffffffffffffffffffffffffffffffffffff021916908373ffffffffffffffffffffffffffffffffffffffff1602179055507f7a8dc7dd7fffb43c4807438fa62729225156941e641fd877938f4edade3429f560405160405180910390a150565b611230336110c9565b6112a2576040517f08c379a000000000000000000000000000000000000000000000000000000000815260040180806020018281038252600f8152602001807f4f4e4c595f474f5645524e414e4345000000000000000000000000000000000081525060200191505060405180910390fd5b60006112ac61192a565b90506112b7826110c9565b1561132a576040517f08c379a00000000000000000000000000000000000000000000000000000000081526004018080602001828103825260108152602001807f414c52454144595f474f5645524e4f520000000000000000000000000000000081525060200191505060405180910390fd5b818160010160006101000a81548173ffffffffffffffffffffffffffffffffffffffff021916908373ffffffffffffffffffffffffffffffffffffffff1602179055507f6166272c8d3f5f579082f2827532732f97195007983bb5b83ac12c56700b01a682604051808273ffffffffffffffffffffffffffffffffffffffff16815260200191505060405180910390a15050565b6000811415611435576040517f08c379a00000000000000000000000000000000000000000000000000000000081526004018080602001828103825260198152602001807f464f524345445f414354494f4e5f554e5245515545535445440000000000000081525060200191505060405180910390fd5b600062093a808201905062093a8081101561144c57fe5b804210156114c2576040517f08c379a00000000000000000000000000000000000000000000000000000000081526004018080602001828103825260158152602001807f464f524345445f414354494f4e5f50454e44494e47000000000000000000000081525060200191505060405180910390fd5b6005548111611539576040517f08c379a00000000000000000000000000000000000000000000000000000000081526004018080602001828103825260108152602001807f5245465245455a455f415454454d50540000000000000000000000000000000081525060200191505060405180910390fd5b5050565b6115456107c4565b156115b8576040517f08c379a000000000000000000000000000000000000000000000000000000000815260040180806020018281038252600f8152602001807f53544154455f49535f46524f5a454e000000000000000000000000000000000081525060200191505060405180910390fd5b6301e1338042016005819055506001600460146101000a81548160ff0219169083151502179055507ff5b8e6419478ab140eb98026ab5bd607038cb0ac4d4dad5b1fc0848dfd203d1f60405160405180910390a1565b611617336110c9565b611689576040517f08c379a000000000000000000000000000000000000000000000000000000000815260040180806020018281038252600f8152602001807f4f4e4c595f474f5645524e414e4345000000000000000000000000000000000081525060200191505060405180910390fd5b8073ffffffffffffffffffffffffffffffffffffffff163373ffffffffffffffffffffffffffffffffffffffff16141561172b576040517f08c379a00000000000000000000000000000000000000000000000000000000081526004018080602001828103825260148152602001807f474f5645524e4f525f53454c465f52454d4f564500000000000000000000000081525060200191505060405180910390fd5b600061173561192a565b9050611740826110c9565b6117b2576040517f08c379a000000000000000000000000000000000000000000000000000000000815260040180806020018281038252600c8152602001807f4e4f545f474f5645524e4f52000000000000000000000000000000000000000081525060200191505060405180910390fd5b60008160000160008473ffffffffffffffffffffffffffffffffffffffff1673ffffffffffffffffffffffffffffffffffffffff16815260200190815260200160002060006101000a81548160ff0219169083151502179055507fd75f94825e770b8b512be8e74759e252ad00e102e38f50cce2f7c6f868a2959982604051808273ffffffffffffffffffffffffffffffffffffffff16815260200191505060405180910390a15050565b6000611868826106ee565b9050600073ffffffffffffffffffffffffffffffffffffffff168173ffffffffffffffffffffffffffffffffffffffff16141561190d576040517f08c379a00000000000000000000000000000000000000000000000000000000081526004018080602001828103825260118152602001807f555345525f554e5245474953544552454400000000000000000000000000000081525060200191505060405180910390fd5b919050565b61192661191f8383611059565b6001611be5565b5050565b60006060611936611cfc565b9050600080826040518082805190602001908083835b6020831061196f578051825260208201915060208101905060208303925061194c565b6001836020036101000a038019825116818451168082178552505050505050905001915050908152602001604051809103902090508060010160149054906101000a900460ff16611a28576040517f08c379a000000000000000000000000000000000000000000000000000000000815260040180806020018281038252600f8152602001807f4e4f545f494e495449414c495a4544000000000000000000000000000000000081525060200191505060405180910390fd5b809250505090565b611a39816110c9565b15611aac576040517f08c379a00000000000000000000000000000000000000000000000000000000081526004018080602001828103825260108152602001807f414c52454144595f474f5645524e4f520000000000000000000000000000000081525060200191505060405180910390fd5b6000611ab661192a565b905060018160000160008473ffffffffffffffffffffffffffffffffffffffff1673ffffffffffffffffffffffffffffffffffffffff16815260200190815260200160002060006101000a81548160ff0219169083151502179055505050565b600082826040516020018083805190602001908083835b60208310611b505780518252602082019150602081019050602083039250611b2d565b6001836020036101000a03801982511681845116808217855250505050505090500182805190602001908083835b60208310611ba15780518252602082019150602081019050602083039250611b7e565b6001836020036101000a0380198251168184511680821785525050505050509050019250505060405160208183030381529060405280519060200120905092915050565b8015611c0b5760005b615289811015611c05578080600101915050611bee565b50611cb7565b600a602160004381526020019081526020016000205410611c94576040517f08c379a000000000000000000000000000000000000000000000000000000000815260040180806020018281038252601e8152602001807f4d41585f52455155455354535f5045525f424c4f434b5f52454143484544000081525060200191505060405180910390fd5b600160216000438152602001908152602001600020600082825401925050819055505b42602260008481526020019081526020016000208190555060248290806001815401808255809150506001900390600052602060002001600090919091909150555050565b6060604051806060016040528060268152602001611d1d6026913990509056fe537461726b45782e4d61696e2e323031392e476f7665726e6f7273496e666f726d6174696f6ea2646970667358221220c31437c2d73e8204927fe31b8cb403584fcdf5c3a6c024a8f9e36bf8fac34b5164736f6c634300060c0033",
					"opcodes": "PUSH1 0x80 PUSH1 0x40 MSTORE CALLVALUE DUP1 ISZERO PUSH2 0x10 JUMPI PUSH1 0x0 DUP1 REVERT JUMPDEST POP PUSH2 0x1D78 DUP1 PUSH2 0x20 PUSH1 0x0 CODECOPY PUSH1 0x0 RETURN INVALID PUSH1 0x80 PUSH1 0x40 MSTORE CALLVALUE DUP1 ISZERO PUSH2 0x10 JUMPI PUSH1 0x0 DUP1 REVERT JUMPDEST POP PUSH1 0x4 CALLDATASIZE LT PUSH2 0x18D JUMPI PUSH1 0x0 CALLDATALOAD PUSH1 0xE0 SHR DUP1 PUSH4 0x835A71C3 GT PUSH2 0xDE JUMPI DUP1 PUSH4 0xA45D7841 GT PUSH2 0x97 JUMPI DUP1 PUSH4 0xC23B60EF GT PUSH2 0x71 JUMPI DUP1 PUSH4 0xC23B60EF EQ PUSH2 0x5A5 JUMPI DUP1 PUSH4 0xE30A5CFF EQ PUSH2 0x628 JUMPI DUP1 PUSH4 0xE6DE6282 EQ PUSH2 0x646 JUMPI DUP1 PUSH4 0xEEB72866 EQ PUSH2 0x664 JUMPI PUSH2 0x18D JUMP JUMPDEST DUP1 PUSH4 0xA45D7841 EQ PUSH2 0x531 JUMPI DUP1 PUSH4 0xA93310C4 EQ PUSH2 0x54F JUMPI DUP1 PUSH4 0xB7663112 EQ PUSH2 0x587 JUMPI PUSH2 0x18D JUMP JUMPDEST DUP1 PUSH4 0x835A71C3 EQ PUSH2 0x401 JUMPI DUP1 PUSH4 0x8C4BCE1C EQ PUSH2 0x41F JUMPI DUP1 PUSH4 0x93C1E466 EQ PUSH2 0x463 JUMPI DUP1 PUSH4 0x993F3639 EQ PUSH2 0x49B JUMPI DUP1 PUSH4 0x9C6A2837 EQ PUSH2 0x4B9 JUMPI DUP1 PUSH4 0xA1CC921E EQ PUSH2 0x4ED JUMPI PUSH2 0x18D JUMP JUMPDEST DUP1 PUSH4 0x439FAB91 GT PUSH2 0x14B JUMPI DUP1 PUSH4 0x5EECD218 GT PUSH2 0x125 JUMPI DUP1 PUSH4 0x5EECD218 EQ PUSH2 0x3B1 JUMPI DUP1 PUSH4 0x72EB3688 EQ PUSH2 0x3CF JUMPI DUP1 PUSH4 0x77E84E0D EQ PUSH2 0x3D9 JUMPI DUP1 PUSH4 0x7CF12B90 EQ PUSH2 0x3F7 JUMPI PUSH2 0x18D JUMP JUMPDEST DUP1 PUSH4 0x439FAB91 EQ PUSH2 0x29C JUMPI DUP1 PUSH4 0x45F5CD97 EQ PUSH2 0x315 JUMPI DUP1 PUSH4 0x5E586CD1 EQ PUSH2 0x36F JUMPI PUSH2 0x18D JUMP JUMPDEST DUP1 PUSH3 0x717542 EQ PUSH2 0x192 JUMPI DUP1 PUSH4 0x1DBD1DA7 EQ PUSH2 0x1B0 JUMPI DUP1 PUSH4 0x28700A15 EQ PUSH2 0x208 JUMPI DUP1 PUSH4 0x296E2F37 EQ PUSH2 0x212 JUMPI DUP1 PUSH4 0x33EEB147 EQ PUSH2 0x25E JUMPI DUP1 PUSH4 0x3CC660AD EQ PUSH2 0x27E JUMPI JUMPDEST PUSH1 0x0 DUP1 REVERT JUMPDEST PUSH2 0x19A PUSH2 0x6E7 JUMP JUMPDEST PUSH1 0x40 MLOAD DUP1 DUP3 DUP2 MSTORE PUSH1 0x20 ADD SWAP2 POP POP PUSH1 0x40 MLOAD DUP1 SWAP2 SUB SWAP1 RETURN JUMPDEST PUSH2 0x1DC PUSH1 0x4 DUP1 CALLDATASIZE SUB PUSH1 0x20 DUP2 LT ISZERO PUSH2 0x1C6 JUMPI PUSH1 0x0 DUP1 REVERT JUMPDEST DUP2 ADD SWAP1 DUP1 DUP1 CALLDATALOAD SWAP1 PUSH1 0x20 ADD SWAP1 SWAP3 SWAP2 SWAP1 POP POP POP PUSH2 0x6EE JUMP JUMPDEST PUSH1 0x40 MLOAD DUP1 DUP3 PUSH20 0xFFFFFFFFFFFFFFFFFFFFFFFFFFFFFFFFFFFFFFFF AND DUP2 MSTORE PUSH1 0x20 ADD SWAP2 POP POP PUSH1 0x40 MLOAD DUP1 SWAP2 SUB SWAP1 RETURN JUMPDEST PUSH2 0x210 PUSH2 0x793 JUMP JUMPDEST STOP JUMPDEST PUSH2 0x248 PUSH1 0x4 DUP1 CALLDATASIZE SUB PUSH1 0x40 DUP2 LT ISZERO PUSH2 0x228 JUMPI PUSH1 0x0 DUP1 REVERT JUMPDEST DUP2 ADD SWAP1 DUP1 DUP1 CALLDATALOAD SWAP1 PUSH1 0x20 ADD SWAP1 SWAP3 SWAP2 SWAP1 DUP1 CALLDATALOAD SWAP1 PUSH1 0x20 ADD SWAP1 SWAP3 SWAP2 SWAP1 POP POP POP PUSH2 0x79D JUMP JUMPDEST PUSH1 0x40 MLOAD DUP1 DUP3 DUP2 MSTORE PUSH1 0x20 ADD SWAP2 POP POP PUSH1 0x40 MLOAD DUP1 SWAP2 SUB SWAP1 RETURN JUMPDEST PUSH2 0x266 PUSH2 0x7C4 JUMP JUMPDEST PUSH1 0x40 MLOAD DUP1 DUP3 ISZERO ISZERO DUP2 MSTORE PUSH1 0x20 ADD SWAP2 POP POP PUSH1 0x40 MLOAD DUP1 SWAP2 SUB SWAP1 RETURN JUMPDEST PUSH2 0x286 PUSH2 0x7DB JUMP JUMPDEST PUSH1 0x40 MLOAD DUP1 DUP3 DUP2 MSTORE PUSH1 0x20 ADD SWAP2 POP POP PUSH1 0x40 MLOAD DUP1 SWAP2 SUB SWAP1 RETURN JUMPDEST PUSH2 0x313 PUSH1 0x4 DUP1 CALLDATASIZE SUB PUSH1 0x20 DUP2 LT ISZERO PUSH2 0x2B2 JUMPI PUSH1 0x0 DUP1 REVERT JUMPDEST DUP2 ADD SWAP1 DUP1 DUP1 CALLDATALOAD SWAP1 PUSH1 0x20 ADD SWAP1 PUSH5 0x100000000 DUP2 GT ISZERO PUSH2 0x2CF JUMPI PUSH1 0x0 DUP1 REVERT JUMPDEST DUP3 ADD DUP4 PUSH1 0x20 DUP3 ADD GT ISZERO PUSH2 0x2E1 JUMPI PUSH1 0x0 DUP1 REVERT JUMPDEST DUP1 CALLDATALOAD SWAP1 PUSH1 0x20 ADD SWAP2 DUP5 PUSH1 0x1 DUP4 MUL DUP5 ADD GT PUSH5 0x100000000 DUP4 GT OR ISZERO PUSH2 0x303 JUMPI PUSH1 0x0 DUP1 REVERT JUMPDEST SWAP1 SWAP2 SWAP3 SWAP4 SWAP2 SWAP3 SWAP4 SWAP1 POP POP POP PUSH2 0x7E0 JUMP JUMPDEST STOP JUMPDEST PUSH2 0x357 PUSH1 0x4 DUP1 CALLDATASIZE SUB PUSH1 0x20 DUP2 LT ISZERO PUSH2 0x32B JUMPI PUSH1 0x0 DUP1 REVERT JUMPDEST DUP2 ADD SWAP1 DUP1 DUP1 CALLDATALOAD PUSH20 0xFFFFFFFFFFFFFFFFFFFFFFFFFFFFFFFFFFFFFFFF AND SWAP1 PUSH1 0x20 ADD SWAP1 SWAP3 SWAP2 SWAP1 POP POP POP PUSH2 0x84E JUMP JUMPDEST PUSH1 0x40 MLOAD DUP1 DUP3 ISZERO ISZERO DUP2 MSTORE PUSH1 0x20 ADD SWAP2 POP POP PUSH1 0x40 MLOAD DUP1 SWAP2 SUB SWAP1 RETURN JUMPDEST PUSH2 0x39B PUSH1 0x4 DUP1 CALLDATASIZE SUB PUSH1 0x20 DUP2 LT ISZERO PUSH2 0x385 JUMPI PUSH1 0x0 DUP1 REVERT JUMPDEST DUP2 ADD SWAP1 DUP1 DUP1 CALLDATALOAD SWAP1 PUSH1 0x20 ADD SWAP1 SWAP3 SWAP2 SWAP1 POP POP POP PUSH2 0x860 JUMP JUMPDEST PUSH1 0x40 MLOAD DUP1 DUP3 DUP2 MSTORE PUSH1 0x20 ADD SWAP2 POP POP PUSH1 0x40 MLOAD DUP1 SWAP2 SUB SWAP1 RETURN JUMPDEST PUSH2 0x3B9 PUSH2 0x8FB JUMP JUMPDEST PUSH1 0x40 MLOAD DUP1 DUP3 DUP2 MSTORE PUSH1 0x20 ADD SWAP2 POP POP PUSH1 0x40 MLOAD DUP1 SWAP2 SUB SWAP1 RETURN JUMPDEST PUSH2 0x3D7 PUSH2 0x908 JUMP JUMPDEST STOP JUMPDEST PUSH2 0x3E1 PUSH2 0x912 JUMP JUMPDEST PUSH1 0x40 MLOAD DUP1 DUP3 DUP2 MSTORE PUSH1 0x20 ADD SWAP2 POP POP PUSH1 0x40 MLOAD DUP1 SWAP2 SUB SWAP1 RETURN JUMPDEST PUSH2 0x3FF PUSH2 0x919 JUMP JUMPDEST STOP JUMPDEST PUSH2 0x409 PUSH2 0xAF1 JUMP JUMPDEST PUSH1 0x40 MLOAD DUP1 DUP3 DUP2 MSTORE PUSH1 0x20 ADD SWAP2 POP POP PUSH1 0x40 MLOAD DUP1 SWAP2 SUB SWAP1 RETURN JUMPDEST PUSH2 0x461 PUSH1 0x4 DUP1 CALLDATASIZE SUB PUSH1 0x20 DUP2 LT ISZERO PUSH2 0x435 JUMPI PUSH1 0x0 DUP1 REVERT JUMPDEST DUP2 ADD SWAP1 DUP1 DUP1 CALLDATALOAD PUSH20 0xFFFFFFFFFFFFFFFFFFFFFFFFFFFFFFFFFFFFFFFF AND SWAP1 PUSH1 0x20 ADD SWAP1 SWAP3 SWAP2 SWAP1 POP POP POP PUSH2 0xAF8 JUMP JUMPDEST STOP JUMPDEST PUSH2 0x499 PUSH1 0x4 DUP1 CALLDATASIZE SUB PUSH1 0x40 DUP2 LT ISZERO PUSH2 0x479 JUMPI PUSH1 0x0 DUP1 REVERT JUMPDEST DUP2 ADD SWAP1 DUP1 DUP1 CALLDATALOAD SWAP1 PUSH1 0x20 ADD SWAP1 SWAP3 SWAP2 SWAP1 DUP1 CALLDATALOAD SWAP1 PUSH1 0x20 ADD SWAP1 SWAP3 SWAP2 SWAP1 POP POP POP PUSH2 0xB04 JUMP JUMPDEST STOP JUMPDEST PUSH2 0x4A3 PUSH2 0xC1C JUMP JUMPDEST PUSH1 0x40 MLOAD DUP1 DUP3 DUP2 MSTORE PUSH1 0x20 ADD SWAP2 POP POP PUSH1 0x40 MLOAD DUP1 SWAP2 SUB SWAP1 RETURN JUMPDEST PUSH2 0x4C1 PUSH2 0xC24 JUMP JUMPDEST PUSH1 0x40 MLOAD DUP1 DUP3 PUSH20 0xFFFFFFFFFFFFFFFFFFFFFFFFFFFFFFFFFFFFFFFF AND DUP2 MSTORE PUSH1 0x20 ADD SWAP2 POP POP PUSH1 0x40 MLOAD DUP1 SWAP2 SUB SWAP1 RETURN JUMPDEST PUSH2 0x52F PUSH1 0x4 DUP1 CALLDATASIZE SUB PUSH1 0x20 DUP2 LT ISZERO PUSH2 0x503 JUMPI PUSH1 0x0 DUP1 REVERT JUMPDEST DUP2 ADD SWAP1 DUP1 DUP1 CALLDATALOAD PUSH20 0xFFFFFFFFFFFFFFFFFFFFFFFFFFFFFFFFFFFFFFFF AND SWAP1 PUSH1 0x20 ADD SWAP1 SWAP3 SWAP2 SWAP1 POP POP POP PUSH2 0xC52 JUMP JUMPDEST STOP JUMPDEST PUSH2 0x539 PUSH2 0xC5E JUMP JUMPDEST PUSH1 0x40 MLOAD DUP1 DUP3 DUP2 MSTORE PUSH1 0x20 ADD SWAP2 POP POP PUSH1 0x40 MLOAD DUP1 SWAP2 SUB SWAP1 RETURN JUMPDEST PUSH2 0x585 PUSH1 0x4 DUP1 CALLDATASIZE SUB PUSH1 0x40 DUP2 LT ISZERO PUSH2 0x565 JUMPI PUSH1 0x0 DUP1 REVERT JUMPDEST DUP2 ADD SWAP1 DUP1 DUP1 CALLDATALOAD SWAP1 PUSH1 0x20 ADD SWAP1 SWAP3 SWAP2 SWAP1 DUP1 CALLDATALOAD SWAP1 PUSH1 0x20 ADD SWAP1 SWAP3 SWAP2 SWAP1 POP POP POP PUSH2 0xC6C JUMP JUMPDEST STOP JUMPDEST PUSH2 0x58F PUSH2 0xE58 JUMP JUMPDEST PUSH1 0x40 MLOAD DUP1 DUP3 DUP2 MSTORE PUSH1 0x20 ADD SWAP2 POP POP PUSH1 0x40 MLOAD DUP1 SWAP2 SUB SWAP1 RETURN JUMPDEST PUSH2 0x5AD PUSH2 0xE64 JUMP JUMPDEST PUSH1 0x40 MLOAD DUP1 DUP1 PUSH1 0x20 ADD DUP3 DUP2 SUB DUP3 MSTORE DUP4 DUP2 DUP2 MLOAD DUP2 MSTORE PUSH1 0x20 ADD SWAP2 POP DUP1 MLOAD SWAP1 PUSH1 0x20 ADD SWAP1 DUP1 DUP4 DUP4 PUSH1 0x0 JUMPDEST DUP4 DUP2 LT ISZERO PUSH2 0x5ED JUMPI DUP1 DUP3 ADD MLOAD DUP2 DUP5 ADD MSTORE PUSH1 0x20 DUP2 ADD SWAP1 POP PUSH2 0x5D2 JUMP JUMPDEST POP POP POP POP SWAP1 POP SWAP1 DUP2 ADD SWAP1 PUSH1 0x1F AND DUP1 ISZERO PUSH2 0x61A JUMPI DUP1 DUP3 SUB DUP1 MLOAD PUSH1 0x1 DUP4 PUSH1 0x20 SUB PUSH2 0x100 EXP SUB NOT AND DUP2 MSTORE PUSH1 0x20 ADD SWAP2 POP JUMPDEST POP SWAP3 POP POP POP PUSH1 0x40 MLOAD DUP1 SWAP2 SUB SWAP1 RETURN JUMPDEST PUSH2 0x630 PUSH2 0xE80 JUMP JUMPDEST PUSH1 0x40 MLOAD DUP1 DUP3 DUP2 MSTORE PUSH1 0x20 ADD SWAP2 POP POP PUSH1 0x40 MLOAD DUP1 SWAP2 SUB SWAP1 RETURN JUMPDEST PUSH2 0x64E PUSH2 0xE85 JUMP JUMPDEST PUSH1 0x40 MLOAD DUP1 DUP3 DUP2 MSTORE PUSH1 0x20 ADD SWAP2 POP POP PUSH1 0x40 MLOAD DUP1 SWAP2 SUB SWAP1 RETURN JUMPDEST PUSH2 0x66C PUSH2 0xE8A JUMP JUMPDEST PUSH1 0x40 MLOAD DUP1 DUP1 PUSH1 0x20 ADD DUP3 DUP2 SUB DUP3 MSTORE DUP4 DUP2 DUP2 MLOAD DUP2 MSTORE PUSH1 0x20 ADD SWAP2 POP DUP1 MLOAD SWAP1 PUSH1 0x20 ADD SWAP1 DUP1 DUP4 DUP4 PUSH1 0x0 JUMPDEST DUP4 DUP2 LT ISZERO PUSH2 0x6AC JUMPI DUP1 DUP3 ADD MLOAD DUP2 DUP5 ADD MSTORE PUSH1 0x20 DUP2 ADD SWAP1 POP PUSH2 0x691 JUMP JUMPDEST POP POP POP POP SWAP1 POP SWAP1 DUP2 ADD SWAP1 PUSH1 0x1F AND DUP1 ISZERO PUSH2 0x6D9 JUMPI DUP1 DUP3 SUB DUP1 MLOAD PUSH1 0x1 DUP4 PUSH1 0x20 SUB PUSH2 0x100 EXP SUB NOT AND DUP2 MSTORE PUSH1 0x20 ADD SWAP2 POP JUMPDEST POP SWAP3 POP POP POP PUSH1 0x40 MLOAD DUP1 SWAP2 SUB SWAP1 RETURN JUMPDEST PUSH3 0x93A80 DUP2 JUMP JUMPDEST PUSH1 0x0 DUP1 PUSH1 0x18 PUSH1 0x0 DUP5 DUP2 MSTORE PUSH1 0x20 ADD SWAP1 DUP2 MSTORE PUSH1 0x20 ADD PUSH1 0x0 KECCAK256 PUSH1 0x0 SWAP1 SLOAD SWAP1 PUSH2 0x100 EXP SWAP1 DIV PUSH20 0xFFFFFFFFFFFFFFFFFFFFFFFFFFFFFFFFFFFFFFFF AND SWAP1 POP PUSH1 0x0 PUSH20 0xFFFFFFFFFFFFFFFFFFFFFFFFFFFFFFFFFFFFFFFF AND DUP2 PUSH20 0xFFFFFFFFFFFFFFFFFFFFFFFFFFFFFFFFFFFFFFFF AND EQ PUSH2 0x764 JUMPI DUP1 SWAP2 POP POP PUSH2 0x78E JUMP JUMPDEST PUSH20 0xFFFFFFFFFFFFFFFFFFFFFFFFFFFFFFFFFFFFFFFF DUP4 AND DUP4 EQ PUSH2 0x788 JUMPI PUSH1 0x0 PUSH2 0x78A JUMP JUMPDEST DUP3 JUMPDEST SWAP2 POP POP JUMPDEST SWAP2 SWAP1 POP JUMP JUMPDEST PUSH2 0x79B PUSH2 0xEC7 JUMP JUMPDEST JUMP JUMPDEST PUSH1 0x0 PUSH1 0x22 PUSH1 0x0 PUSH2 0x7AD DUP6 DUP6 PUSH2 0x1059 JUMP JUMPDEST DUP2 MSTORE PUSH1 0x20 ADD SWAP1 DUP2 MSTORE PUSH1 0x20 ADD PUSH1 0x0 KECCAK256 SLOAD SWAP1 POP SWAP3 SWAP2 POP POP JUMP JUMPDEST PUSH1 0x0 PUSH1 0x4 PUSH1 0x14 SWAP1 SLOAD SWAP1 PUSH2 0x100 EXP SWAP1 DIV PUSH1 0xFF AND SWAP1 POP SWAP1 JUMP JUMPDEST PUSH1 0x0 SWAP1 JUMP JUMPDEST PUSH1 0x40 MLOAD PUSH32 0x8C379A000000000000000000000000000000000000000000000000000000000 DUP2 MSTORE PUSH1 0x4 ADD DUP1 DUP1 PUSH1 0x20 ADD DUP3 DUP2 SUB DUP3 MSTORE PUSH1 0xF DUP2 MSTORE PUSH1 0x20 ADD DUP1 PUSH32 0x4E4F545F494D504C454D454E5445440000000000000000000000000000000000 DUP2 MSTORE POP PUSH1 0x20 ADD SWAP2 POP POP PUSH1 0x40 MLOAD DUP1 SWAP2 SUB SWAP1 REVERT JUMPDEST PUSH1 0x0 PUSH2 0x859 DUP3 PUSH2 0x10C9 JUMP JUMPDEST SWAP1 POP SWAP2 SWAP1 POP JUMP JUMPDEST PUSH1 0x0 PUSH1 0x24 DUP1 SLOAD SWAP1 POP DUP3 LT PUSH2 0x8DC JUMPI PUSH1 0x40 MLOAD PUSH32 0x8C379A000000000000000000000000000000000000000000000000000000000 DUP2 MSTORE PUSH1 0x4 ADD DUP1 DUP1 PUSH1 0x20 ADD DUP3 DUP2 SUB DUP3 MSTORE PUSH1 0x15 DUP2 MSTORE PUSH1 0x20 ADD DUP1 PUSH32 0x414354494F4E5F494E4445585F544F4F5F484947480000000000000000000000 DUP2 MSTORE POP PUSH1 0x20 ADD SWAP2 POP POP PUSH1 0x40 MLOAD DUP1 SWAP2 SUB SWAP1 REVERT JUMPDEST PUSH1 0x24 DUP3 DUP2 SLOAD DUP2 LT PUSH2 0x8E9 JUMPI INVALID JUMPDEST SWAP1 PUSH1 0x0 MSTORE PUSH1 0x20 PUSH1 0x0 KECCAK256 ADD SLOAD SWAP1 POP SWAP2 SWAP1 POP JUMP JUMPDEST PUSH1 0x0 PUSH1 0x24 DUP1 SLOAD SWAP1 POP SWAP1 POP SWAP1 JUMP JUMPDEST PUSH2 0x910 PUSH2 0x112D JUMP JUMPDEST JUMP JUMPDEST PUSH3 0x2A300 DUP2 JUMP JUMPDEST PUSH2 0x921 PUSH2 0x7C4 JUMP JUMPDEST PUSH2 0x993 JUMPI PUSH1 0x40 MLOAD PUSH32 0x8C379A000000000000000000000000000000000000000000000000000000000 DUP2 MSTORE PUSH1 0x4 ADD DUP1 DUP1 PUSH1 0x20 ADD DUP3 DUP2 SUB DUP3 MSTORE PUSH1 0x10 DUP2 MSTORE PUSH1 0x20 ADD DUP1 PUSH32 0x53544154455F4E4F545F46524F5A454E00000000000000000000000000000000 DUP2 MSTORE POP PUSH1 0x20 ADD SWAP2 POP POP PUSH1 0x40 MLOAD DUP1 SWAP2 SUB SWAP1 REVERT JUMPDEST PUSH2 0x99C CALLER PUSH2 0x10C9 JUMP JUMPDEST PUSH2 0xA0E JUMPI PUSH1 0x40 MLOAD PUSH32 0x8C379A000000000000000000000000000000000000000000000000000000000 DUP2 MSTORE PUSH1 0x4 ADD DUP1 DUP1 PUSH1 0x20 ADD DUP3 DUP2 SUB DUP3 MSTORE PUSH1 0xF DUP2 MSTORE PUSH1 0x20 ADD DUP1 PUSH32 0x4F4E4C595F474F5645524E414E43450000000000000000000000000000000000 DUP2 MSTORE POP PUSH1 0x20 ADD SWAP2 POP POP PUSH1 0x40 MLOAD DUP1 SWAP2 SUB SWAP1 REVERT JUMPDEST PUSH1 0x5 SLOAD TIMESTAMP LT ISZERO PUSH2 0xA86 JUMPI PUSH1 0x40 MLOAD PUSH32 0x8C379A000000000000000000000000000000000000000000000000000000000 DUP2 MSTORE PUSH1 0x4 ADD DUP1 DUP1 PUSH1 0x20 ADD DUP3 DUP2 SUB DUP3 MSTORE PUSH1 0x18 DUP2 MSTORE PUSH1 0x20 ADD DUP1 PUSH32 0x554E465245455A455F4E4F545F414C4C4F5745445F5945540000000000000000 DUP2 MSTORE POP PUSH1 0x20 ADD SWAP2 POP POP PUSH1 0x40 MLOAD DUP1 SWAP2 SUB SWAP1 REVERT JUMPDEST PUSH1 0x0 PUSH1 0x4 PUSH1 0x14 PUSH2 0x100 EXP DUP2 SLOAD DUP2 PUSH1 0xFF MUL NOT AND SWAP1 DUP4 ISZERO ISZERO MUL OR SWAP1 SSTORE POP PUSH1 0x1 PUSH1 0xD PUSH1 0x0 DUP3 DUP3 SLOAD ADD SWAP3 POP POP DUP2 SWAP1 SSTORE POP PUSH1 0x1 PUSH1 0xF PUSH1 0x0 DUP3 DUP3 SLOAD ADD SWAP3 POP POP DUP2 SWAP1 SSTORE POP PUSH32 0x7017FE9180629CFFFBA412F65A9AFFCF9A121DE02294179F5C058F881DCC9F8 PUSH1 0x40 MLOAD PUSH1 0x40 MLOAD DUP1 SWAP2 SUB SWAP1 LOG1 JUMP JUMPDEST PUSH3 0x93A80 DUP2 JUMP JUMPDEST PUSH2 0xB01 DUP2 PUSH2 0x1227 JUMP JUMPDEST POP JUMP JUMPDEST PUSH2 0xB0C PUSH2 0x7C4 JUMP JUMPDEST ISZERO PUSH2 0xB7F JUMPI PUSH1 0x40 MLOAD PUSH32 0x8C379A000000000000000000000000000000000000000000000000000000000 DUP2 MSTORE PUSH1 0x4 ADD DUP1 DUP1 PUSH1 0x20 ADD DUP3 DUP2 SUB DUP3 MSTORE PUSH1 0xF DUP2 MSTORE PUSH1 0x20 ADD DUP1 PUSH32 0x53544154455F49535F46524F5A454E0000000000000000000000000000000000 DUP2 MSTORE POP PUSH1 0x20 ADD SWAP2 POP POP PUSH1 0x40 MLOAD DUP1 SWAP2 SUB SWAP1 REVERT JUMPDEST PUSH4 0x80000000 DUP2 LT PUSH2 0xBF8 JUMPI PUSH1 0x40 MLOAD PUSH32 0x8C379A000000000000000000000000000000000000000000000000000000000 DUP2 MSTORE PUSH1 0x4 ADD DUP1 DUP1 PUSH1 0x20 ADD DUP3 DUP2 SUB DUP3 MSTORE PUSH1 0x15 DUP2 MSTORE PUSH1 0x20 ADD DUP1 PUSH32 0x4F55545F4F465F52414E47455F5641554C545F49440000000000000000000000 DUP2 MSTORE POP PUSH1 0x20 ADD SWAP2 POP POP PUSH1 0x40 MLOAD DUP1 SWAP2 SUB SWAP1 REVERT JUMPDEST PUSH1 0x0 PUSH2 0xC04 DUP4 DUP4 PUSH2 0x79D JUMP JUMPDEST SWAP1 POP PUSH2 0xC0F DUP2 PUSH2 0x13BE JUMP JUMPDEST PUSH2 0xC17 PUSH2 0x153D JUMP JUMPDEST POP POP POP JUMP JUMPDEST PUSH4 0x1E13380 DUP2 JUMP JUMPDEST PUSH9 0x10000000000000004 PUSH1 0x0 SWAP1 SLOAD SWAP1 PUSH2 0x100 EXP SWAP1 DIV PUSH20 0xFFFFFFFFFFFFFFFFFFFFFFFFFFFFFFFFFFFFFFFF AND DUP2 JUMP JUMPDEST PUSH2 0xC5B DUP2 PUSH2 0x160E JUMP JUMPDEST POP JUMP JUMPDEST PUSH9 0x10000000000000003 SLOAD DUP2 JUMP JUMPDEST PUSH2 0xC74 PUSH2 0x7C4 JUMP JUMPDEST ISZERO PUSH2 0xCE7 JUMPI PUSH1 0x40 MLOAD PUSH32 0x8C379A000000000000000000000000000000000000000000000000000000000 DUP2 MSTORE PUSH1 0x4 ADD DUP1 DUP1 PUSH1 0x20 ADD DUP3 DUP2 SUB DUP3 MSTORE PUSH1 0xF DUP2 MSTORE PUSH1 0x20 ADD DUP1 PUSH32 0x53544154455F49535F46524F5A454E0000000000000000000000000000000000 DUP2 MSTORE POP PUSH1 0x20 ADD SWAP2 POP POP PUSH1 0x40 MLOAD DUP1 SWAP2 SUB SWAP1 REVERT JUMPDEST DUP2 PUSH2 0xCF1 DUP2 PUSH2 0x185D JUMP JUMPDEST PUSH20 0xFFFFFFFFFFFFFFFFFFFFFFFFFFFFFFFFFFFFFFFF AND CALLER PUSH20 0xFFFFFFFFFFFFFFFFFFFFFFFFFFFFFFFFFFFFFFFF AND EQ PUSH2 0xD91 JUMPI PUSH1 0x40 MLOAD PUSH32 0x8C379A000000000000000000000000000000000000000000000000000000000 DUP2 MSTORE PUSH1 0x4 ADD DUP1 DUP1 PUSH1 0x20 ADD DUP3 DUP2 SUB DUP3 MSTORE PUSH1 0x1A DUP2 MSTORE PUSH1 0x20 ADD DUP1 PUSH32 0x4D49534D41544348494E475F535441524B5F4554485F4B455953000000000000 DUP2 MSTORE POP PUSH1 0x20 ADD SWAP2 POP POP PUSH1 0x40 MLOAD DUP1 SWAP2 SUB SWAP1 REVERT JUMPDEST PUSH4 0x80000000 DUP3 LT PUSH2 0xE0A JUMPI PUSH1 0x40 MLOAD PUSH32 0x8C379A000000000000000000000000000000000000000000000000000000000 DUP2 MSTORE PUSH1 0x4 ADD DUP1 DUP1 PUSH1 0x20 ADD DUP3 DUP2 SUB DUP3 MSTORE PUSH1 0x15 DUP2 MSTORE PUSH1 0x20 ADD DUP1 PUSH32 0x4F55545F4F465F52414E47455F5641554C545F49440000000000000000000000 DUP2 MSTORE POP PUSH1 0x20 ADD SWAP2 POP POP PUSH1 0x40 MLOAD DUP1 SWAP2 SUB SWAP1 REVERT JUMPDEST PUSH2 0xE14 DUP4 DUP4 PUSH2 0x1912 JUMP JUMPDEST PUSH32 0x8EB46DBB87DCFE92D4846E5766802051525FBA08A9B48318F5E0FE41186D298 DUP4 DUP4 PUSH1 0x40 MLOAD DUP1 DUP4 DUP2 MSTORE PUSH1 0x20 ADD DUP3 DUP2 MSTORE PUSH1 0x20 ADD SWAP3 POP POP POP PUSH1 0x40 MLOAD DUP1 SWAP2 SUB SWAP1 LOG1 POP POP POP JUMP JUMPDEST PUSH3 0x1BAF80 PUSH3 0x93A80 ADD DUP2 JUMP JUMPDEST PUSH1 0x40 MLOAD DUP1 PUSH1 0x60 ADD PUSH1 0x40 MSTORE DUP1 PUSH1 0x26 DUP2 MSTORE PUSH1 0x20 ADD PUSH2 0x1D1D PUSH1 0x26 SWAP2 CODECOPY DUP2 JUMP JUMPDEST PUSH1 0xA DUP2 JUMP JUMPDEST PUSH1 0x40 DUP2 JUMP JUMPDEST PUSH1 0x60 PUSH1 0x40 MLOAD DUP1 PUSH1 0x40 ADD PUSH1 0x40 MSTORE DUP1 PUSH1 0x1E DUP2 MSTORE PUSH1 0x20 ADD PUSH32 0x537461726B576172655F466F72636564416374696F6E735F323032305F310000 DUP2 MSTORE POP SWAP1 POP SWAP1 JUMP JUMPDEST PUSH1 0x0 PUSH2 0xED1 PUSH2 0x192A JUMP JUMPDEST SWAP1 POP DUP1 PUSH1 0x1 ADD PUSH1 0x0 SWAP1 SLOAD SWAP1 PUSH2 0x100 EXP SWAP1 DIV PUSH20 0xFFFFFFFFFFFFFFFFFFFFFFFFFFFFFFFFFFFFFFFF AND PUSH20 0xFFFFFFFFFFFFFFFFFFFFFFFFFFFFFFFFFFFFFFFF AND CALLER PUSH20 0xFFFFFFFFFFFFFFFFFFFFFFFFFFFFFFFFFFFFFFFF AND EQ PUSH2 0xF98 JUMPI PUSH1 0x40 MLOAD PUSH32 0x8C379A000000000000000000000000000000000000000000000000000000000 DUP2 MSTORE PUSH1 0x4 ADD DUP1 DUP1 PUSH1 0x20 ADD DUP3 DUP2 SUB DUP3 MSTORE PUSH1 0x17 DUP2 MSTORE PUSH1 0x20 ADD DUP1 PUSH32 0x4F4E4C595F43414E4449444154455F474F5645524E4F52000000000000000000 DUP2 MSTORE POP PUSH1 0x20 ADD SWAP2 POP POP PUSH1 0x40 MLOAD DUP1 SWAP2 SUB SWAP1 REVERT JUMPDEST PUSH2 0xFC5 DUP2 PUSH1 0x1 ADD PUSH1 0x0 SWAP1 SLOAD SWAP1 PUSH2 0x100 EXP SWAP1 DIV PUSH20 0xFFFFFFFFFFFFFFFFFFFFFFFFFFFFFFFFFFFFFFFF AND PUSH2 0x1A30 JUMP JUMPDEST PUSH1 0x0 DUP2 PUSH1 0x1 ADD PUSH1 0x0 PUSH2 0x100 EXP DUP2 SLOAD DUP2 PUSH20 0xFFFFFFFFFFFFFFFFFFFFFFFFFFFFFFFFFFFFFFFF MUL NOT AND SWAP1 DUP4 PUSH20 0xFFFFFFFFFFFFFFFFFFFFFFFFFFFFFFFFFFFFFFFF AND MUL OR SWAP1 SSTORE POP PUSH32 0xCFB473E6C03F9A29DDAF990E736FA3DE5188A0BD85D684F5B6E164EBFBFFF5D2 CALLER PUSH1 0x40 MLOAD DUP1 DUP3 PUSH20 0xFFFFFFFFFFFFFFFFFFFFFFFFFFFFFFFFFFFFFFFF AND DUP2 MSTORE PUSH1 0x20 ADD SWAP2 POP POP PUSH1 0x40 MLOAD DUP1 SWAP2 SUB SWAP1 LOG1 POP JUMP JUMPDEST PUSH1 0x0 PUSH2 0x10C1 PUSH1 0x40 MLOAD DUP1 PUSH1 0x40 ADD PUSH1 0x40 MSTORE DUP1 PUSH1 0xF DUP2 MSTORE PUSH1 0x20 ADD PUSH32 0x46554C4C5F5749544844524157414C0000000000000000000000000000000000 DUP2 MSTORE POP DUP5 DUP5 PUSH1 0x40 MLOAD PUSH1 0x20 ADD DUP1 DUP4 DUP2 MSTORE PUSH1 0x20 ADD DUP3 DUP2 MSTORE PUSH1 0x20 ADD SWAP3 POP POP POP PUSH1 0x40 MLOAD PUSH1 0x20 DUP2 DUP4 SUB SUB DUP2 MSTORE SWAP1 PUSH1 0x40 MSTORE PUSH2 0x1B16 JUMP JUMPDEST SWAP1 POP SWAP3 SWAP2 POP POP JUMP JUMPDEST PUSH1 0x0 DUP1 PUSH2 0x10D4 PUSH2 0x192A JUMP JUMPDEST SWAP1 POP DUP1 PUSH1 0x0 ADD PUSH1 0x0 DUP5 PUSH20 0xFFFFFFFFFFFFFFFFFFFFFFFFFFFFFFFFFFFFFFFF AND PUSH20 0xFFFFFFFFFFFFFFFFFFFFFFFFFFFFFFFFFFFFFFFF AND DUP2 MSTORE PUSH1 0x20 ADD SWAP1 DUP2 MSTORE PUSH1 0x20 ADD PUSH1 0x0 KECCAK256 PUSH1 0x0 SWAP1 SLOAD SWAP1 PUSH2 0x100 EXP SWAP1 DIV PUSH1 0xFF AND SWAP2 POP POP SWAP2 SWAP1 POP JUMP JUMPDEST PUSH2 0x1136 CALLER PUSH2 0x10C9 JUMP JUMPDEST PUSH2 0x11A8 JUMPI PUSH1 0x40 MLOAD PUSH32 0x8C379A000000000000000000000000000000000000000000000000000000000 DUP2 MSTORE PUSH1 0x4 ADD DUP1 DUP1 PUSH1 0x20 ADD DUP3 DUP2 SUB DUP3 MSTORE PUSH1 0xF DUP2 MSTORE PUSH1 0x20 ADD DUP1 PUSH32 0x4F4E4C595F474F5645524E414E43450000000000000000000000000000000000 DUP2 MSTORE POP PUSH1 0x20 ADD SWAP2 POP POP PUSH1 0x40 MLOAD DUP1 SWAP2 SUB SWAP1 REVERT JUMPDEST PUSH1 0x0 PUSH2 0x11B2 PUSH2 0x192A JUMP JUMPDEST SWAP1 POP PUSH1 0x0 DUP2 PUSH1 0x1 ADD PUSH1 0x0 PUSH2 0x100 EXP DUP2 SLOAD DUP2 PUSH20 0xFFFFFFFFFFFFFFFFFFFFFFFFFFFFFFFFFFFFFFFF MUL NOT AND SWAP1 DUP4 PUSH20 0xFFFFFFFFFFFFFFFFFFFFFFFFFFFFFFFFFFFFFFFF AND MUL OR SWAP1 SSTORE POP PUSH32 0x7A8DC7DD7FFFB43C4807438FA62729225156941E641FD877938F4EDADE3429F5 PUSH1 0x40 MLOAD PUSH1 0x40 MLOAD DUP1 SWAP2 SUB SWAP1 LOG1 POP JUMP JUMPDEST PUSH2 0x1230 CALLER PUSH2 0x10C9 JUMP JUMPDEST PUSH2 0x12A2 JUMPI PUSH1 0x40 MLOAD PUSH32 0x8C379A000000000000000000000000000000000000000000000000000000000 DUP2 MSTORE PUSH1 0x4 ADD DUP1 DUP1 PUSH1 0x20 ADD DUP3 DUP2 SUB DUP3 MSTORE PUSH1 0xF DUP2 MSTORE PUSH1 0x20 ADD DUP1 PUSH32 0x4F4E4C595F474F5645524E414E43450000000000000000000000000000000000 DUP2 MSTORE POP PUSH1 0x20 ADD SWAP2 POP POP PUSH1 0x40 MLOAD DUP1 SWAP2 SUB SWAP1 REVERT JUMPDEST PUSH1 0x0 PUSH2 0x12AC PUSH2 0x192A JUMP JUMPDEST SWAP1 POP PUSH2 0x12B7 DUP3 PUSH2 0x10C9 JUMP JUMPDEST ISZERO PUSH2 0x132A JUMPI PUSH1 0x40 MLOAD PUSH32 0x8C379A000000000000000000000000000000000000000000000000000000000 DUP2 MSTORE PUSH1 0x4 ADD DUP1 DUP1 PUSH1 0x20 ADD DUP3 DUP2 SUB DUP3 MSTORE PUSH1 0x10 DUP2 MSTORE PUSH1 0x20 ADD DUP1 PUSH32 0x414C52454144595F474F5645524E4F5200000000000000000000000000000000 DUP2 MSTORE POP PUSH1 0x20 ADD SWAP2 POP POP PUSH1 0x40 MLOAD DUP1 SWAP2 SUB SWAP1 REVERT JUMPDEST DUP2 DUP2 PUSH1 0x1 ADD PUSH1 0x0 PUSH2 0x100 EXP DUP2 SLOAD DUP2 PUSH20 0xFFFFFFFFFFFFFFFFFFFFFFFFFFFFFFFFFFFFFFFF MUL NOT AND SWAP1 DUP4 PUSH20 0xFFFFFFFFFFFFFFFFFFFFFFFFFFFFFFFFFFFFFFFF AND MUL OR SWAP1 SSTORE POP PUSH32 0x6166272C8D3F5F579082F2827532732F97195007983BB5B83AC12C56700B01A6 DUP3 PUSH1 0x40 MLOAD DUP1 DUP3 PUSH20 0xFFFFFFFFFFFFFFFFFFFFFFFFFFFFFFFFFFFFFFFF AND DUP2 MSTORE PUSH1 0x20 ADD SWAP2 POP POP PUSH1 0x40 MLOAD DUP1 SWAP2 SUB SWAP1 LOG1 POP POP JUMP JUMPDEST PUSH1 0x0 DUP2 EQ ISZERO PUSH2 0x1435 JUMPI PUSH1 0x40 MLOAD PUSH32 0x8C379A000000000000000000000000000000000000000000000000000000000 DUP2 MSTORE PUSH1 0x4 ADD DUP1 DUP1 PUSH1 0x20 ADD DUP3 DUP2 SUB DUP3 MSTORE PUSH1 0x19 DUP2 MSTORE PUSH1 0x20 ADD DUP1 PUSH32 0x464F524345445F414354494F4E5F554E52455155455354454400000000000000 DUP2 MSTORE POP PUSH1 0x20 ADD SWAP2 POP POP PUSH1 0x40 MLOAD DUP1 SWAP2 SUB SWAP1 REVERT JUMPDEST PUSH1 0x0 PUSH3 0x93A80 DUP3 ADD SWAP1 POP PUSH3 0x93A80 DUP2 LT ISZERO PUSH2 0x144C JUMPI INVALID JUMPDEST DUP1 TIMESTAMP LT ISZERO PUSH2 0x14C2 JUMPI PUSH1 0x40 MLOAD PUSH32 0x8C379A000000000000000000000000000000000000000000000000000000000 DUP2 MSTORE PUSH1 0x4 ADD DUP1 DUP1 PUSH1 0x20 ADD DUP3 DUP2 SUB DUP3 MSTORE PUSH1 0x15 DUP2 MSTORE PUSH1 0x20 ADD DUP1 PUSH32 0x464F524345445F414354494F4E5F50454E44494E470000000000000000000000 DUP2 MSTORE POP PUSH1 0x20 ADD SWAP2 POP POP PUSH1 0x40 MLOAD DUP1 SWAP2 SUB SWAP1 REVERT JUMPDEST PUSH1 0x5 SLOAD DUP2 GT PUSH2 0x1539 JUMPI PUSH1 0x40 MLOAD PUSH32 0x8C379A000000000000000000000000000000000000000000000000000000000 DUP2 MSTORE PUSH1 0x4 ADD DUP1 DUP1 PUSH1 0x20 ADD DUP3 DUP2 SUB DUP3 MSTORE PUSH1 0x10 DUP2 MSTORE PUSH1 0x20 ADD DUP1 PUSH32 0x5245465245455A455F415454454D505400000000000000000000000000000000 DUP2 MSTORE POP PUSH1 0x20 ADD SWAP2 POP POP PUSH1 0x40 MLOAD DUP1 SWAP2 SUB SWAP1 REVERT JUMPDEST POP POP JUMP JUMPDEST PUSH2 0x1545 PUSH2 0x7C4 JUMP JUMPDEST ISZERO PUSH2 0x15B8 JUMPI PUSH1 0x40 MLOAD PUSH32 0x8C379A000000000000000000000000000000000000000000000000000000000 DUP2 MSTORE PUSH1 0x4 ADD DUP1 DUP1 PUSH1 0x20 ADD DUP3 DUP2 SUB DUP3 MSTORE PUSH1 0xF DUP2 MSTORE PUSH1 0x20 ADD DUP1 PUSH32 0x53544154455F49535F46524F5A454E0000000000000000000000000000000000 DUP2 MSTORE POP PUSH1 0x20 ADD SWAP2 POP POP PUSH1 0x40 MLOAD DUP1 SWAP2 SUB SWAP1 REVERT JUMPDEST PUSH4 0x1E13380 TIMESTAMP ADD PUSH1 0x5 DUP2 SWAP1 SSTORE POP PUSH1 0x1 PUSH1 0x4 PUSH1 0x14 PUSH2 0x100 EXP DUP2 SLOAD DUP2 PUSH1 0xFF MUL NOT AND SWAP1 DUP4 ISZERO ISZERO MUL OR SWAP1 SSTORE POP PUSH32 0xF5B8E6419478AB140EB98026AB5BD607038CB0AC4D4DAD5B1FC0848DFD203D1F PUSH1 0x40 MLOAD PUSH1 0x40 MLOAD DUP1 SWAP2 SUB SWAP1 LOG1 JUMP JUMPDEST PUSH2 0x1617 CALLER PUSH2 0x10C9 JUMP JUMPDEST PUSH2 0x1689 JUMPI PUSH1 0x40 MLOAD PUSH32 0x8C379A000000000000000000000000000000000000000000000000000000000 DUP2 MSTORE PUSH1 0x4 ADD DUP1 DUP1 PUSH1 0x20 ADD DUP3 DUP2 SUB DUP3 MSTORE PUSH1 0xF DUP2 MSTORE PUSH1 0x20 ADD DUP1 PUSH32 0x4F4E4C595F474F5645524E414E43450000000000000000000000000000000000 DUP2 MSTORE POP PUSH1 0x20 ADD SWAP2 POP POP PUSH1 0x40 MLOAD DUP1 SWAP2 SUB SWAP1 REVERT JUMPDEST DUP1 PUSH20 0xFFFFFFFFFFFFFFFFFFFFFFFFFFFFFFFFFFFFFFFF AND CALLER PUSH20 0xFFFFFFFFFFFFFFFFFFFFFFFFFFFFFFFFFFFFFFFF AND EQ ISZERO PUSH2 0x172B JUMPI PUSH1 0x40 MLOAD PUSH32 0x8C379A000000000000000000000000000000000000000000000000000000000 DUP2 MSTORE PUSH1 0x4 ADD DUP1 DUP1 PUSH1 0x20 ADD DUP3 DUP2 SUB DUP3 MSTORE PUSH1 0x14 DUP2 MSTORE PUSH1 0x20 ADD DUP1 PUSH32 0x474F5645524E4F525F53454C465F52454D4F5645000000000000000000000000 DUP2 MSTORE POP PUSH1 0x20 ADD SWAP2 POP POP PUSH1 0x40 MLOAD DUP1 SWAP2 SUB SWAP1 REVERT JUMPDEST PUSH1 0x0 PUSH2 0x1735 PUSH2 0x192A JUMP JUMPDEST SWAP1 POP PUSH2 0x1740 DUP3 PUSH2 0x10C9 JUMP JUMPDEST PUSH2 0x17B2 JUMPI PUSH1 0x40 MLOAD PUSH32 0x8C379A000000000000000000000000000000000000000000000000000000000 DUP2 MSTORE PUSH1 0x4 ADD DUP1 DUP1 PUSH1 0x20 ADD DUP3 DUP2 SUB DUP3 MSTORE PUSH1 0xC DUP2 MSTORE PUSH1 0x20 ADD DUP1 PUSH32 0x4E4F545F474F5645524E4F520000000000000000000000000000000000000000 DUP2 MSTORE POP PUSH1 0x20 ADD SWAP2 POP POP PUSH1 0x40 MLOAD DUP1 SWAP2 SUB SWAP1 REVERT JUMPDEST PUSH1 0x0 DUP2 PUSH1 0x0 ADD PUSH1 0x0 DUP5 PUSH20 0xFFFFFFFFFFFFFFFFFFFFFFFFFFFFFFFFFFFFFFFF AND PUSH20 0xFFFFFFFFFFFFFFFFFFFFFFFFFFFFFFFFFFFFFFFF AND DUP2 MSTORE PUSH1 0x20 ADD SWAP1 DUP2 MSTORE PUSH1 0x20 ADD PUSH1 0x0 KECCAK256 PUSH1 0x0 PUSH2 0x100 EXP DUP2 SLOAD DUP2 PUSH1 0xFF MUL NOT AND SWAP1 DUP4 ISZERO ISZERO MUL OR SWAP1 SSTORE POP PUSH32 0xD75F94825E770B8B512BE8E74759E252AD00E102E38F50CCE2F7C6F868A29599 DUP3 PUSH1 0x40 MLOAD DUP1 DUP3 PUSH20 0xFFFFFFFFFFFFFFFFFFFFFFFFFFFFFFFFFFFFFFFF AND DUP2 MSTORE PUSH1 0x20 ADD SWAP2 POP POP PUSH1 0x40 MLOAD DUP1 SWAP2 SUB SWAP1 LOG1 POP POP JUMP JUMPDEST PUSH1 0x0 PUSH2 0x1868 DUP3 PUSH2 0x6EE JUMP JUMPDEST SWAP1 POP PUSH1 0x0 PUSH20 0xFFFFFFFFFFFFFFFFFFFFFFFFFFFFFFFFFFFFFFFF AND DUP2 PUSH20 0xFFFFFFFFFFFFFFFFFFFFFFFFFFFFFFFFFFFFFFFF AND EQ ISZERO PUSH2 0x190D JUMPI PUSH1 0x40 MLOAD PUSH32 0x8C379A000000000000000000000000000000000000000000000000000000000 DUP2 MSTORE PUSH1 0x4 ADD DUP1 DUP1 PUSH1 0x20 ADD DUP3 DUP2 SUB DUP3 MSTORE PUSH1 0x11 DUP2 MSTORE PUSH1 0x20 ADD DUP1 PUSH32 0x555345525F554E52454749535445524544000000000000000000000000000000 DUP2 MSTORE POP PUSH1 0x20 ADD SWAP2 POP POP PUSH1 0x40 MLOAD DUP1 SWAP2 SUB SWAP1 REVERT JUMPDEST SWAP2 SWAP1 POP JUMP JUMPDEST PUSH2 0x1926 PUSH2 0x191F DUP4 DUP4 PUSH2 0x1059 JUMP JUMPDEST PUSH1 0x1 PUSH2 0x1BE5 JUMP JUMPDEST POP POP JUMP JUMPDEST PUSH1 0x0 PUSH1 0x60 PUSH2 0x1936 PUSH2 0x1CFC JUMP JUMPDEST SWAP1 POP PUSH1 0x0 DUP1 DUP3 PUSH1 0x40 MLOAD DUP1 DUP3 DUP1 MLOAD SWAP1 PUSH1 0x20 ADD SWAP1 DUP1 DUP4 DUP4 JUMPDEST PUSH1 0x20 DUP4 LT PUSH2 0x196F JUMPI DUP1 MLOAD DUP3 MSTORE PUSH1 0x20 DUP3 ADD SWAP2 POP PUSH1 0x20 DUP2 ADD SWAP1 POP PUSH1 0x20 DUP4 SUB SWAP3 POP PUSH2 0x194C JUMP JUMPDEST PUSH1 0x1 DUP4 PUSH1 0x20 SUB PUSH2 0x100 EXP SUB DUP1 NOT DUP3 MLOAD AND DUP2 DUP5 MLOAD AND DUP1 DUP3 OR DUP6 MSTORE POP POP POP POP POP POP SWAP1 POP ADD SWAP2 POP POP SWAP1 DUP2 MSTORE PUSH1 0x20 ADD PUSH1 0x40 MLOAD DUP1 SWAP2 SUB SWAP1 KECCAK256 SWAP1 POP DUP1 PUSH1 0x1 ADD PUSH1 0x14 SWAP1 SLOAD SWAP1 PUSH2 0x100 EXP SWAP1 DIV PUSH1 0xFF AND PUSH2 0x1A28 JUMPI PUSH1 0x40 MLOAD PUSH32 0x8C379A000000000000000000000000000000000000000000000000000000000 DUP2 MSTORE PUSH1 0x4 ADD DUP1 DUP1 PUSH1 0x20 ADD DUP3 DUP2 SUB DUP3 MSTORE PUSH1 0xF DUP2 MSTORE PUSH1 0x20 ADD DUP1 PUSH32 0x4E4F545F494E495449414C495A45440000000000000000000000000000000000 DUP2 MSTORE POP PUSH1 0x20 ADD SWAP2 POP POP PUSH1 0x40 MLOAD DUP1 SWAP2 SUB SWAP1 REVERT JUMPDEST DUP1 SWAP3 POP POP POP SWAP1 JUMP JUMPDEST PUSH2 0x1A39 DUP2 PUSH2 0x10C9 JUMP JUMPDEST ISZERO PUSH2 0x1AAC JUMPI PUSH1 0x40 MLOAD PUSH32 0x8C379A000000000000000000000000000000000000000000000000000000000 DUP2 MSTORE PUSH1 0x4 ADD DUP1 DUP1 PUSH1 0x20 ADD DUP3 DUP2 SUB DUP3 MSTORE PUSH1 0x10 DUP2 MSTORE PUSH1 0x20 ADD DUP1 PUSH32 0x414C52454144595F474F5645524E4F5200000000000000000000000000000000 DUP2 MSTORE POP PUSH1 0x20 ADD SWAP2 POP POP PUSH1 0x40 MLOAD DUP1 SWAP2 SUB SWAP1 REVERT JUMPDEST PUSH1 0x0 PUSH2 0x1AB6 PUSH2 0x192A JUMP JUMPDEST SWAP1 POP PUSH1 0x1 DUP2 PUSH1 0x0 ADD PUSH1 0x0 DUP5 PUSH20 0xFFFFFFFFFFFFFFFFFFFFFFFFFFFFFFFFFFFFFFFF AND PUSH20 0xFFFFFFFFFFFFFFFFFFFFFFFFFFFFFFFFFFFFFFFF AND DUP2 MSTORE PUSH1 0x20 ADD SWAP1 DUP2 MSTORE PUSH1 0x20 ADD PUSH1 0x0 KECCAK256 PUSH1 0x0 PUSH2 0x100 EXP DUP2 SLOAD DUP2 PUSH1 0xFF MUL NOT AND SWAP1 DUP4 ISZERO ISZERO MUL OR SWAP1 SSTORE POP POP POP JUMP JUMPDEST PUSH1 0x0 DUP3 DUP3 PUSH1 0x40 MLOAD PUSH1 0x20 ADD DUP1 DUP4 DUP1 MLOAD SWAP1 PUSH1 0x20 ADD SWAP1 DUP1 DUP4 DUP4 JUMPDEST PUSH1 0x20 DUP4 LT PUSH2 0x1B50 JUMPI DUP1 MLOAD DUP3 MSTORE PUSH1 0x20 DUP3 ADD SWAP2 POP PUSH1 0x20 DUP2 ADD SWAP1 POP PUSH1 0x20 DUP4 SUB SWAP3 POP PUSH2 0x1B2D JUMP JUMPDEST PUSH1 0x1 DUP4 PUSH1 0x20 SUB PUSH2 0x100 EXP SUB DUP1 NOT DUP3 MLOAD AND DUP2 DUP5 MLOAD AND DUP1 DUP3 OR DUP6 MSTORE POP POP POP POP POP POP SWAP1 POP ADD DUP3 DUP1 MLOAD SWAP1 PUSH1 0x20 ADD SWAP1 DUP1 DUP4 DUP4 JUMPDEST PUSH1 0x20 DUP4 LT PUSH2 0x1BA1 JUMPI DUP1 MLOAD DUP3 MSTORE PUSH1 0x20 DUP3 ADD SWAP2 POP PUSH1 0x20 DUP2 ADD SWAP1 POP PUSH1 0x20 DUP4 SUB SWAP3 POP PUSH2 0x1B7E JUMP JUMPDEST PUSH1 0x1 DUP4 PUSH1 0x20 SUB PUSH2 0x100 EXP SUB DUP1 NOT DUP3 MLOAD AND DUP2 DUP5 MLOAD AND DUP1 DUP3 OR DUP6 MSTORE POP POP POP POP POP POP SWAP1 POP ADD SWAP3 POP POP POP PUSH1 0x40 MLOAD PUSH1 0x20 DUP2 DUP4 SUB SUB DUP2 MSTORE SWAP1 PUSH1 0x40 MSTORE DUP1 MLOAD SWAP1 PUSH1 0x20 ADD KECCAK256 SWAP1 POP SWAP3 SWAP2 POP POP JUMP JUMPDEST DUP1 ISZERO PUSH2 0x1C0B JUMPI PUSH1 0x0 JUMPDEST PUSH2 0x5289 DUP2 LT ISZERO PUSH2 0x1C05 JUMPI DUP1 DUP1 PUSH1 0x1 ADD SWAP2 POP POP PUSH2 0x1BEE JUMP JUMPDEST POP PUSH2 0x1CB7 JUMP JUMPDEST PUSH1 0xA PUSH1 0x21 PUSH1 0x0 NUMBER DUP2 MSTORE PUSH1 0x20 ADD SWAP1 DUP2 MSTORE PUSH1 0x20 ADD PUSH1 0x0 KECCAK256 SLOAD LT PUSH2 0x1C94 JUMPI PUSH1 0x40 MLOAD PUSH32 0x8C379A000000000000000000000000000000000000000000000000000000000 DUP2 MSTORE PUSH1 0x4 ADD DUP1 DUP1 PUSH1 0x20 ADD DUP3 DUP2 SUB DUP3 MSTORE PUSH1 0x1E DUP2 MSTORE PUSH1 0x20 ADD DUP1 PUSH32 0x4D41585F52455155455354535F5045525F424C4F434B5F524541434845440000 DUP2 MSTORE POP PUSH1 0x20 ADD SWAP2 POP POP PUSH1 0x40 MLOAD DUP1 SWAP2 SUB SWAP1 REVERT JUMPDEST PUSH1 0x1 PUSH1 0x21 PUSH1 0x0 NUMBER DUP2 MSTORE PUSH1 0x20 ADD SWAP1 DUP2 MSTORE PUSH1 0x20 ADD PUSH1 0x0 KECCAK256 PUSH1 0x0 DUP3 DUP3 SLOAD ADD SWAP3 POP POP DUP2 SWAP1 SSTORE POP JUMPDEST TIMESTAMP PUSH1 0x22 PUSH1 0x0 DUP5 DUP2 MSTORE PUSH1 0x20 ADD SWAP1 DUP2 MSTORE PUSH1 0x20 ADD PUSH1 0x0 KECCAK256 DUP2 SWAP1 SSTORE POP PUSH1 0x24 DUP3 SWAP1 DUP1 PUSH1 0x1 DUP2 SLOAD ADD DUP1 DUP3 SSTORE DUP1 SWAP2 POP POP PUSH1 0x1 SWAP1 SUB SWAP1 PUSH1 0x0 MSTORE PUSH1 0x20 PUSH1 0x0 KECCAK256 ADD PUSH1 0x0 SWAP1 SWAP2 SWAP1 SWAP2 SWAP1 SWAP2 POP SSTORE POP POP JUMP JUMPDEST PUSH1 0x60 PUSH1 0x40 MLOAD DUP1 PUSH1 0x60 ADD PUSH1 0x40 MSTORE DUP1 PUSH1 0x26 DUP2 MSTORE PUSH1 0x20 ADD PUSH2 0x1D1D PUSH1 0x26 SWAP2 CODECOPY SWAP1 POP SWAP1 JUMP INVALID MSTORE8 PUSH21 0x61726B45782E4D61696E2E323031392E476F766572 PUSH15 0x6F7273496E666F726D6174696F6EA2 PUSH5 0x6970667358 0x22 SLT KECCAK256 0xC3 EQ CALLDATACOPY 0xC2 0xD7 RETURNDATACOPY DUP3 DIV SWAP3 PUSH32 0xE31B8CB403584FCDF5C3A6C024A8F9E36BF8FAC34B5164736F6C634300060C00 CALLER "
				},
				"gasEstimates": {
					"creation": {
						"codeDepositCost": "1508800",
						"executionCost": "1575",
						"totalCost": "1510375"
					},
					"external": {
						"DEPOSIT_CANCEL_DELAY()": "294",
						"FREEZE_GRACE_PERIOD()": "229",
						"MAIN_GOVERNANCE_INFO_TAG()": "infinite",
						"MAX_FORCED_ACTIONS_REQS_PER_BLOCK()": "271",
						"MAX_VERIFIER_COUNT()": "293",
						"STARKEX_MAX_DEFAULT_VAULT_LOCK()": "228",
						"UNFREEZE_DELAY()": "294",
						"VERIFIER_REMOVAL_DELAY()": "300",
						"defaultVaultWithdrawalLock()": "1050",
						"freezeRequest(uint256,uint256)": "infinite",
						"fullWithdrawalRequest(uint256,uint256)": "infinite",
						"getActionCount()": "1066",
						"getActionHashByIndex(uint256)": "2901",
						"getEthKey(uint256)": "1355",
						"getFullWithdrawalRequest(uint256,uint256)": "infinite",
						"identify()": "infinite",
						"initialize(bytes)": "535",
						"initializerSize()": "339",
						"isFrozen()": "1217",
						"mainAcceptGovernance()": "infinite",
						"mainCancelNomination()": "infinite",
						"mainIsGovernor(address)": "infinite",
						"mainNominateNewGovernor(address)": "infinite",
						"mainRemoveGovernor(address)": "infinite",
						"orderRegistryAddress()": "1158",
						"unFreeze()": "infinite"
					}
				},
				"methodIdentifiers": {
					"DEPOSIT_CANCEL_DELAY()": "77e84e0d",
					"FREEZE_GRACE_PERIOD()": "00717542",
					"MAIN_GOVERNANCE_INFO_TAG()": "c23b60ef",
					"MAX_FORCED_ACTIONS_REQS_PER_BLOCK()": "e30a5cff",
					"MAX_VERIFIER_COUNT()": "e6de6282",
					"STARKEX_MAX_DEFAULT_VAULT_LOCK()": "835a71c3",
					"UNFREEZE_DELAY()": "993f3639",
					"VERIFIER_REMOVAL_DELAY()": "b7663112",
					"defaultVaultWithdrawalLock()": "a45d7841",
					"freezeRequest(uint256,uint256)": "93c1e466",
					"fullWithdrawalRequest(uint256,uint256)": "a93310c4",
					"getActionCount()": "5eecd218",
					"getActionHashByIndex(uint256)": "5e586cd1",
					"getEthKey(uint256)": "1dbd1da7",
					"getFullWithdrawalRequest(uint256,uint256)": "296e2f37",
					"identify()": "eeb72866",
					"initialize(bytes)": "439fab91",
					"initializerSize()": "3cc660ad",
					"isFrozen()": "33eeb147",
					"mainAcceptGovernance()": "28700a15",
					"mainCancelNomination()": "72eb3688",
					"mainIsGovernor(address)": "45f5cd97",
					"mainNominateNewGovernor(address)": "8c4bce1c",
					"mainRemoveGovernor(address)": "a1cc921e",
					"orderRegistryAddress()": "9c6a2837",
					"unFreeze()": "7cf12b90"
				}
			},
			"userdoc": {
				"kind": "user",
				"methods": {},
				"version": 1
			}
		}
	}
}